{
  "abi": [
    {
      "inputs": [
        {
          "internalType": "contract ICDPVault_TypeA_Deployer",
          "name": "deployer_",
          "type": "address"
        },
        {
          "internalType": "address",
          "name": "unwinderFactory_",
          "type": "address"
        },
        {
          "internalType": "address",
          "name": "roleAdmin",
          "type": "address"
        },
        {
          "internalType": "address",
          "name": "deployerAdmin",
          "type": "address"
        },
        {
          "internalType": "address",
          "name": "pauseAdmin",
          "type": "address"
        }
      ],
      "stateMutability": "nonpayable",
      "type": "constructor"
    },
    {
      "anonymous": false,
      "inputs": [
        {
          "indexed": true,
          "internalType": "address",
          "name": "vault",
          "type": "address"
        },
        {
          "indexed": true,
          "internalType": "address",
          "name": "token",
          "type": "address"
        },
        {
          "indexed": true,
          "internalType": "address",
          "name": "creator",
          "type": "address"
        }
      ],
      "name": "CreateVault",
      "type": "event"
    },
    {
      "anonymous": false,
      "inputs": [
        {
          "indexed": false,
          "internalType": "address",
          "name": "account",
          "type": "address"
        }
      ],
      "name": "Paused",
      "type": "event"
    },
    {
      "anonymous": false,
      "inputs": [
        {
          "indexed": true,
          "internalType": "bytes32",
          "name": "role",
          "type": "bytes32"
        },
        {
          "indexed": true,
          "internalType": "bytes32",
          "name": "previousAdminRole",
          "type": "bytes32"
        },
        {
          "indexed": true,
          "internalType": "bytes32",
          "name": "newAdminRole",
          "type": "bytes32"
        }
      ],
      "name": "RoleAdminChanged",
      "type": "event"
    },
    {
      "anonymous": false,
      "inputs": [
        {
          "indexed": true,
          "internalType": "bytes32",
          "name": "role",
          "type": "bytes32"
        },
        {
          "indexed": true,
          "internalType": "address",
          "name": "account",
          "type": "address"
        },
        {
          "indexed": true,
          "internalType": "address",
          "name": "sender",
          "type": "address"
        }
      ],
      "name": "RoleGranted",
      "type": "event"
    },
    {
      "anonymous": false,
      "inputs": [
        {
          "indexed": true,
          "internalType": "bytes32",
          "name": "role",
          "type": "bytes32"
        },
        {
          "indexed": true,
          "internalType": "address",
          "name": "account",
          "type": "address"
        },
        {
          "indexed": true,
          "internalType": "address",
          "name": "sender",
          "type": "address"
        }
      ],
      "name": "RoleRevoked",
      "type": "event"
    },
    {
      "anonymous": false,
      "inputs": [
        {
          "indexed": false,
          "internalType": "address",
          "name": "account",
          "type": "address"
        }
      ],
      "name": "Unpaused",
      "type": "event"
    },
    {
      "inputs": [],
      "name": "DEFAULT_ADMIN_ROLE",
      "outputs": [
        {
          "internalType": "bytes32",
          "name": "",
          "type": "bytes32"
        }
      ],
      "stateMutability": "view",
      "type": "function"
    },
    {
      "inputs": [
        {
          "components": [
            {
              "internalType": "contract ICDM",
              "name": "cdm",
              "type": "address"
            },
            {
              "internalType": "contract IOracle",
              "name": "oracle",
              "type": "address"
            },
            {
              "internalType": "contract IBuffer",
              "name": "buffer",
              "type": "address"
            },
            {
              "internalType": "contract IERC20",
              "name": "token",
              "type": "address"
            },
            {
              "internalType": "uint256",
              "name": "tokenScale",
              "type": "uint256"
            },
            {
              "internalType": "uint256",
              "name": "protocolFee",
              "type": "uint256"
            },
            {
              "internalType": "uint64",
              "name": "targetUtilizationRatio",
              "type": "uint64"
            },
            {
              "internalType": "uint64",
              "name": "maxUtilizationRatio",
              "type": "uint64"
            },
            {
              "internalType": "uint64",
              "name": "minInterestRate",
              "type": "uint64"
            },
            {
              "internalType": "uint64",
              "name": "maxInterestRate",
              "type": "uint64"
            },
            {
              "internalType": "uint64",
              "name": "targetInterestRate",
              "type": "uint64"
            },
            {
              "internalType": "uint128",
              "name": "rebateRate",
              "type": "uint128"
            },
            {
              "internalType": "uint128",
              "name": "maxRebate",
              "type": "uint128"
            }
          ],
          "internalType": "struct CDPVaultConstants",
          "name": "cdpVaultConstants",
          "type": "tuple"
        },
        {
          "components": [
            {
              "internalType": "uint64",
              "name": "liquidationPenalty",
              "type": "uint64"
            },
            {
              "internalType": "uint64",
              "name": "liquidationDiscount",
              "type": "uint64"
            },
            {
              "internalType": "uint64",
              "name": "targetHealthFactor",
              "type": "uint64"
            }
          ],
          "internalType": "struct CDPVault_TypeAConfig",
          "name": "cdpVaultTypeAConfig",
          "type": "tuple"
        },
        {
          "components": [
            {
              "internalType": "uint128",
              "name": "debtFloor",
              "type": "uint128"
            },
            {
              "internalType": "uint256",
              "name": "limitOrderFloor",
              "type": "uint256"
            },
            {
              "internalType": "uint64",
              "name": "liquidationRatio",
              "type": "uint64"
            },
            {
              "internalType": "uint64",
              "name": "globalLiquidationRatio",
              "type": "uint64"
            },
            {
              "internalType": "uint256",
              "name": "baseRate",
              "type": "uint256"
            },
            {
              "internalType": "address",
              "name": "roleAdmin",
              "type": "address"
            },
            {
              "internalType": "address",
              "name": "vaultAdmin",
              "type": "address"
            },
            {
              "internalType": "address",
              "name": "tickManager",
              "type": "address"
            },
            {
              "internalType": "address",
              "name": "vaultUnwinder",
              "type": "address"
            },
            {
              "internalType": "address",
              "name": "pauseAdmin",
              "type": "address"
            }
          ],
          "internalType": "struct CDPVaultConfig",
          "name": "cdpVaultConfig",
          "type": "tuple"
        },
        {
          "internalType": "uint256",
          "name": "debtCeiling",
          "type": "uint256"
        }
      ],
      "name": "create",
      "outputs": [
        {
          "internalType": "address",
          "name": "",
          "type": "address"
        }
      ],
      "stateMutability": "nonpayable",
      "type": "function"
    },
    {
      "inputs": [],
      "name": "deployer",
      "outputs": [
        {
          "internalType": "contract ICDPVault_TypeA_Deployer",
          "name": "",
          "type": "address"
        }
      ],
      "stateMutability": "view",
      "type": "function"
    },
    {
      "inputs": [],
      "name": "getConstants",
      "outputs": [
        {
          "internalType": "contract ICDM",
          "name": "cdm",
          "type": "address"
        },
        {
          "internalType": "contract IOracle",
          "name": "oracle",
          "type": "address"
        },
        {
          "internalType": "contract IBuffer",
          "name": "buffer",
          "type": "address"
        },
        {
          "internalType": "contract IERC20",
          "name": "token",
          "type": "address"
        },
        {
          "internalType": "uint256",
          "name": "tokenScale",
          "type": "uint256"
        },
        {
          "internalType": "uint256",
          "name": "protocolFee",
          "type": "uint256"
        },
        {
          "internalType": "uint256",
          "name": "utilizationParams",
          "type": "uint256"
        },
        {
          "internalType": "uint256",
          "name": "rebateParams",
          "type": "uint256"
        },
        {
          "internalType": "address",
          "name": "withholder",
          "type": "address"
        }
      ],
      "stateMutability": "nonpayable",
      "type": "function"
    },
    {
      "inputs": [
        {
          "internalType": "bytes32",
          "name": "role",
          "type": "bytes32"
        }
      ],
      "name": "getRoleAdmin",
      "outputs": [
        {
          "internalType": "bytes32",
          "name": "",
          "type": "bytes32"
        }
      ],
      "stateMutability": "view",
      "type": "function"
    },
    {
      "inputs": [
        {
          "internalType": "bytes32",
          "name": "role",
          "type": "bytes32"
        },
        {
          "internalType": "address",
          "name": "account",
          "type": "address"
        }
      ],
      "name": "grantRole",
      "outputs": [],
      "stateMutability": "nonpayable",
      "type": "function"
    },
    {
      "inputs": [
        {
          "internalType": "bytes32",
          "name": "role",
          "type": "bytes32"
        },
        {
          "internalType": "address",
          "name": "account",
          "type": "address"
        }
      ],
      "name": "hasRole",
      "outputs": [
        {
          "internalType": "bool",
          "name": "",
          "type": "bool"
        }
      ],
      "stateMutability": "view",
      "type": "function"
    },
    {
      "inputs": [],
      "name": "pause",
      "outputs": [],
      "stateMutability": "nonpayable",
      "type": "function"
    },
    {
      "inputs": [],
      "name": "paused",
      "outputs": [
        {
          "internalType": "bool",
          "name": "",
          "type": "bool"
        }
      ],
      "stateMutability": "view",
      "type": "function"
    },
    {
      "inputs": [],
      "name": "pausedAt",
      "outputs": [
        {
          "internalType": "uint256",
          "name": "",
          "type": "uint256"
        }
      ],
      "stateMutability": "view",
      "type": "function"
    },
    {
      "inputs": [
        {
          "internalType": "bytes32",
          "name": "role",
          "type": "bytes32"
        },
        {
          "internalType": "address",
          "name": "account",
          "type": "address"
        }
      ],
      "name": "renounceRole",
      "outputs": [],
      "stateMutability": "nonpayable",
      "type": "function"
    },
    {
      "inputs": [
        {
          "internalType": "bytes32",
          "name": "role",
          "type": "bytes32"
        },
        {
          "internalType": "address",
          "name": "account",
          "type": "address"
        }
      ],
      "name": "revokeRole",
      "outputs": [],
      "stateMutability": "nonpayable",
      "type": "function"
    },
    {
      "inputs": [
        {
          "internalType": "bytes4",
          "name": "interfaceId",
          "type": "bytes4"
        }
      ],
      "name": "supportsInterface",
      "outputs": [
        {
          "internalType": "bool",
          "name": "",
          "type": "bool"
        }
      ],
      "stateMutability": "view",
      "type": "function"
    },
    {
      "inputs": [],
      "name": "unpause",
      "outputs": [],
      "stateMutability": "nonpayable",
      "type": "function"
    },
    {
      "inputs": [],
      "name": "unwinderFactory",
      "outputs": [
        {
          "internalType": "address",
          "name": "",
          "type": "address"
        }
      ],
      "stateMutability": "view",
      "type": "function"
    }
  ],
  "bytecode": {
    "object": "0x60c06040523480156200001157600080fd5b50604051620020893803806200208983398101604081905262000034916200017b565b6001805460ff191690556001600160a01b03808616608052841660a0526200005e600084620000c1565b6200008a7ffc425f2263d0df187444b70e47283d622c70181c5baebb1306a01edba1ce184c83620000c1565b620000b67f65d7a28e3265b37a6474929f336521b332c1681b933f6cb9f3376673440d862a82620000c1565b5050505050620001fb565b6000828152602081815260408083206001600160a01b038516845290915290205460ff166200015e576000828152602081815260408083206001600160a01b03851684529091529020805460ff191660011790556200011d3390565b6001600160a01b0316816001600160a01b0316837f2f8788117e7eff1d82e926ec794901d17c78024a50270940304540a733656f0d60405160405180910390a45b5050565b6001600160a01b03811681146200017857600080fd5b50565b600080600080600060a086880312156200019457600080fd5b8551620001a18162000162565b6020870151909550620001b48162000162565b6040870151909450620001c78162000162565b6060870151909350620001da8162000162565b6080870151909250620001ed8162000162565b809150509295509295909350565b60805160a051611e5362000236600039600081816101d301528181610697015261118201526000818161029101526105ea0152611e536000f3fe60806040523480156200001157600080fd5b5060043610620000e75760003560e01c80635c975abb11620000925780635c975abb14620001b75780638456cb5914620001c35780638e107be414620001cd57806391d1485414620001f55780639a295e73146200020c578063a217fddf146200026b578063d547741f1462000274578063d5f39488146200028b57600080fd5b806301ffc9a714620000ec578063248a9ca314620001185780632e55d0f2146200014d5780632f2ff15d146200015757806336568abe14620001705780633f4ba83a14620001875780634723da211462000191575b600080fd5b62000103620000fd36600462001697565b620002b3565b60405190151581526020015b60405180910390f35b6200013e62000129366004620016c3565b60009081526020819052604090206001015490565b6040519081526020016200010f565b6200013e60025481565b6200016e6200016836600462001705565b620002eb565b005b6200016e6200018136600462001705565b62000319565b6200016e6200039f565b620001a8620001a23660046200193a565b620003cc565b6040516200010f919062001a8b565b60015460ff1662000103565b6200016e62001003565b620001a87f000000000000000000000000000000000000000000000000000000000000000081565b620001036200020636600462001705565b6200102b565b6200021662001054565b604080516001600160a01b039a8b168152988a1660208a0152968916968801969096529387166060870152608086019290925260a085015260c084015260e0830152909116610100820152610120016200010f565b6200013e600081565b6200016e6200028536600462001705565b620011fa565b620001a87f000000000000000000000000000000000000000000000000000000000000000081565b60006001600160e01b03198216637965db0b60e01b1480620002e557506301ffc9a760e01b6001600160e01b03198316145b92915050565b600082815260208190526040902060010154620003088162001223565b6200031483836200122f565b505050565b6001600160a01b03811633146200038f5760405162461bcd60e51b815260206004820152602f60248201527f416363657373436f6e74726f6c3a2063616e206f6e6c792072656e6f756e636560448201526e103937b632b9903337b91039b2b63360891b60648201526084015b60405180910390fd5b6200039b8282620012b7565b5050565b60008051602062001dfe833981519152620003ba8162001223565b620003c46200131f565b506000600255565b6000620003d86200136f565b84600360008201518160000160006101000a8154816001600160a01b0302191690836001600160a01b0316021790555060208201518160010160006101000a8154816001600160a01b0302191690836001600160a01b0316021790555060408201518160020160006101000a8154816001600160a01b0302191690836001600160a01b0316021790555060608201518160030160006101000a8154816001600160a01b0302191690836001600160a01b031602179055506080820151816004015560a0820151816005015560c08201518160060160006101000a8154816001600160401b0302191690836001600160401b0316021790555060e08201518160060160086101000a8154816001600160401b0302191690836001600160401b031602179055506101008201518160060160106101000a8154816001600160401b0302191690836001600160401b031602179055506101208201518160060160186101000a8154816001600160401b0302191690836001600160401b031602179055506101408201518160070160006101000a8154816001600160401b0302191690836001600160401b031602179055506101608201518160070160086101000a8154816001600160801b0302191690836001600160801b031602179055506101808201518160080160006101000a8154816001600160801b0302191690836001600160801b0316021790555090505060007f00000000000000000000000000000000000000000000000000000000000000006001600160a01b031663775c300c6040518163ffffffff1660e01b81526004016020604051808303816000875af115801562000649573d6000803e3d6000fd5b505050506040513d601f19601f820116820180604052508101906200066f919062001a9f565b604051633f2601ef60e01b81529091506001600160a01b03821690633f2601ef90620006c0907f00000000000000000000000000000000000000000000000000000000000000009060040162001a8b565b600060405180830381600087803b158015620006db57600080fd5b505af1158015620006f0573d6000803e3d6000fd5b5050600380546001600160a01b03199081169091556004805482168155600580548316905560068054909216909155600060078190556008819055600955600a80546001600160c01b0319169055600b80546001600160801b0319169055604051632f2ff15d60e01b81526001600160a01b0385169350632f2ff15d92506200078d9160008051602062001dde8339815191529130910162001abf565b600060405180830381600087803b158015620007a857600080fd5b505af1158015620007bd573d6000803e3d6000fd5b5050855160405163391a83df60e11b8152683232b13a233637b7b960b91b60048201526001600160801b0390911660248201526001600160a01b038416925063723507be9150604401600060405180830381600087803b1580156200082157600080fd5b505af115801562000836573d6000803e3d6000fd5b50505050602084015160405163391a83df60e11b81526e3634b6b4ba27b93232b9233637b7b960891b600482015260248101919091526001600160a01b0382169063723507be90604401600060405180830381600087803b1580156200089b57600080fd5b505af1158015620008b0573d6000803e3d6000fd5b50505050604084810151905163391a83df60e11b81526f6c69717569646174696f6e526174696f60801b60048201526001600160401b0390911660248201526001600160a01b0382169063723507be90604401600060405180830381600087803b1580156200091e57600080fd5b505af115801562000933573d6000803e3d6000fd5b50505050606084015160405163391a83df60e11b815275676c6f62616c4c69717569646174696f6e526174696f60501b60048201526001600160401b0390911660248201526001600160a01b0382169063723507be90604401600060405180830381600087803b158015620009a757600080fd5b505af1158015620009bc573d6000803e3d6000fd5b50505050608084015160405163391a83df60e11b815267626173655261746560c01b600482015260248101919091526001600160a01b0382169063723507be90604401600060405180830381600087803b15801562000a1a57600080fd5b505af115801562000a2f573d6000803e3d6000fd5b5050865160405163391a83df60e11b8152716c69717569646174696f6e50656e616c747960701b60048201526001600160401b0390911660248201526001600160a01b038416925063723507be9150604401600060405180830381600087803b15801562000a9c57600080fd5b505af115801562000ab1573d6000803e3d6000fd5b50505050602085015160405163391a83df60e11b8152721b1a5c5d5a59185d1a5bdb911a5cd8dbdd5b9d606a1b60048201526001600160401b0390911660248201526001600160a01b0382169063723507be90604401600060405180830381600087803b15801562000b2257600080fd5b505af115801562000b37573d6000803e3d6000fd5b50505050604085810151905163391a83df60e11b8152713a30b933b2ba2432b0b63a342330b1ba37b960711b60048201526001600160401b0390911660248201526001600160a01b0382169063723507be90604401600060405180830381600087803b15801562000ba757600080fd5b505af115801562000bbc573d6000803e3d6000fd5b5050505060c0840151604051632f2ff15d60e01b81526001600160a01b03831691632f2ff15d9162000c029160008051602062001dde8339815191529160040162001abf565b600060405180830381600087803b15801562000c1d57600080fd5b505af115801562000c32573d6000803e3d6000fd5b5050505060e0840151604051632f2ff15d60e01b81526001600160a01b03831691632f2ff15d9162000c89917ff96f3d6876b63665360200e15ed8964960110cbbd99e917fb50ad1e576f538ac9160040162001abf565b600060405180830381600087803b15801562000ca457600080fd5b505af115801562000cb9573d6000803e3d6000fd5b50505050610100840151604051632f2ff15d60e01b81526001600160a01b03831691632f2ff15d9162000d11917fafc46fb4ec54859564243e17ddfa695c1305e429cc40d6e3e75973b087d9e9019160040162001abf565b600060405180830381600087803b15801562000d2c57600080fd5b505af115801562000d41573d6000803e3d6000fd5b50505050610120840151604051632f2ff15d60e01b81526001600160a01b03831691632f2ff15d9162000d889160008051602062001dfe8339815191529160040162001abf565b600060405180830381600087803b15801562000da357600080fd5b505af115801562000db8573d6000803e3d6000fd5b5050505060a0840151604051632f2ff15d60e01b81526001600160a01b03831691632f2ff15d9162000df09160009160040162001abf565b600060405180830381600087803b15801562000e0b57600080fd5b505af115801562000e20573d6000803e3d6000fd5b505060405163d547741f60e01b81526001600160a01b038416925063d547741f915062000e639060008051602062001dde83398151915290309060040162001abf565b600060405180830381600087803b15801562000e7e57600080fd5b505af115801562000e93573d6000803e3d6000fd5b505060405163d547741f60e01b81526001600160a01b038416925063d547741f915062000ec890600090309060040162001abf565b600060405180830381600087803b15801562000ee357600080fd5b505af115801562000ef8573d6000803e3d6000fd5b50505050600083111562000fac5762000f317ffc425f2263d0df187444b70e47283d622c70181c5baebb1306a01edba1ce184c62001223565b8551604051626e308160e21b81526001600160a01b0383811660048301526a646562744365696c696e6760a81b602483015260448201869052909116906301b8c20490606401600060405180830381600087803b15801562000f9257600080fd5b505af115801562000fa7573d6000803e3d6000fd5b505050505b336001600160a01b031686606001516001600160a01b0316826001600160a01b03167fb099da66a8504770c8deb56a35848ec236bde5e64dd9223d77c277b1ae09d43360405160405180910390a495945050505050565b60008051602062001dfe8339815191526200101e8162001223565b62001028620013b9565b50565b6000918252602082815260408084206001600160a01b0393909316845291905290205460ff1690565b600354600454600554600654600754600854600a546001600160a01b03968716969586169594851694909316926000908190819060d090620010a990670de0b6b3a7640000906001600160401b031662001aec565b600954911b9060a890620010d790670de0b6b3a764000090600160c01b90046001600160401b031662001aec565b600954911b906080906200110590670de0b6b3a764000090600160801b90046001600160401b031662001aec565b600954600b54600a54600354604080516001600160401b03861667ffffffffffffffff60401b600160401b9788900490931b92909216919091179590961b94909417959095179590951797509092046001600160801b03166001600160801b031960809490941b939093169290921793506001600160a01b0316907f0000000000000000000000000000000000000000000000000000000000000000903390620011af9062001689565b6001600160a01b03938416815291831660208301529091166040820152606001604051809103906000f080158015620011ec573d6000803e3d6000fd5b509050909192939495969798565b600082815260208190526040902060010154620012178162001223565b620003148383620012b7565b620010288133620013c9565b6200123b82826200102b565b6200039b576000828152602081815260408083206001600160a01b03851684529091529020805460ff19166001179055620012733390565b6001600160a01b0316816001600160a01b0316837f2f8788117e7eff1d82e926ec794901d17c78024a50270940304540a733656f0d60405160405180910390a45050565b620012c382826200102b565b156200039b576000828152602081815260408083206001600160a01b0385168085529252808320805460ff1916905551339285917ff6391f5c32d9c69d2a47ea670b442974b53935d1edc7fd64eb21e047a839171b9190a45050565b620013296200142d565b6001805460ff191690557f5db9ee0a495bf2e6ff9c91a7834c1ba4fdd244a5e8aa4e537bd38aeae4b073aa335b60405162001365919062001a8b565b60405180910390a1565b60015460ff1615620013b75760405162461bcd60e51b815260206004820152601060248201526f14185d5cd8589b194e881c185d5cd95960821b604482015260640162000386565b565b620013c362001478565b42600255565b620013d582826200102b565b6200039b57620013e581620014b6565b620013f2836020620014c9565b6040516020016200140592919062001b28565b60408051601f198184030181529082905262461bcd60e51b8252620003869160040162001b9b565b60015460ff16620013b75760405162461bcd60e51b815260206004820152601460248201527314185d5cd8589b194e881b9bdd081c185d5cd95960621b604482015260640162000386565b620014826200136f565b6001805460ff1916811790557f62e78cea01bee320cd4e420270b5ea74000d11b0c9f74754ebdbfc544b05a2583362001356565b6060620002e56001600160a01b03831660145b60606000620014da83600262001bd0565b620014e790600262001bea565b6001600160401b0381111562001501576200150162001738565b6040519080825280601f01601f1916602001820160405280156200152c576020820181803683370190505b509050600360fc1b816000815181106200154a576200154a62001c00565b60200101906001600160f81b031916908160001a905350600f60fb1b816001815181106200157c576200157c62001c00565b60200101906001600160f81b031916908160001a9053506000620015a284600262001bd0565b620015af90600162001bea565b90505b600181111562001631576f181899199a1a9b1b9c1cb0b131b232b360811b85600f1660108110620015e757620015e762001c00565b1a60f81b82828151811062001600576200160062001c00565b60200101906001600160f81b031916908160001a90535060049490941c93620016298162001c16565b9050620015b2565b508315620016825760405162461bcd60e51b815260206004820181905260248201527f537472696e67733a20686578206c656e67746820696e73756666696369656e74604482015260640162000386565b9392505050565b6101ad8062001c3183390190565b600060208284031215620016aa57600080fd5b81356001600160e01b0319811681146200168257600080fd5b600060208284031215620016d657600080fd5b5035919050565b6001600160a01b03811681146200102857600080fd5b80356200170081620016dd565b919050565b600080604083850312156200171957600080fd5b8235915060208301356200172d81620016dd565b809150509250929050565b634e487b7160e01b600052604160045260246000fd5b60405161014081016001600160401b03811182821017156200178057634e487b7160e01b600052604160045260246000fd5b60405290565b6040516101a081016001600160401b03811182821017156200178057634e487b7160e01b600052604160045260246000fd5b80356001600160401b03811681146200170057600080fd5b80356001600160801b03811681146200170057600080fd5b600060608284031215620017fb57600080fd5b604051606081018181106001600160401b03821117156200182c57634e487b7160e01b600052604160045260246000fd5b6040529050806200183d83620017b8565b81526200184d60208401620017b8565b60208201526200186060408401620017b8565b60408201525092915050565b600061014082840312156200188057600080fd5b6200188a6200174e565b90506200189782620017d0565b815260208201356020820152620018b160408301620017b8565b6040820152620018c460608301620017b8565b606082015260808201356080820152620018e160a08301620016f3565b60a0820152620018f460c08301620016f3565b60c08201526200190760e08301620016f3565b60e08201526101006200191c818401620016f3565b9082015261012062001930838201620016f3565b9082015292915050565b6000806000808486036103608112156200195357600080fd5b6101a0808212156200196457600080fd5b6200196e62001786565b91506200197b87620016f3565b82526200198b60208801620016f3565b60208301526200199e60408801620016f3565b6040830152620019b160608801620016f3565b60608301526080870135608083015260a087013560a0830152620019d860c08801620017b8565b60c0830152620019eb60e08801620017b8565b60e083015261010062001a00818901620017b8565b9083015261012062001a14888201620017b8565b9083015261014062001a28888201620017b8565b9083015261016062001a3c888201620017d0565b9083015261018062001a50888201620017d0565b818401525081955062001a6688828901620017e8565b9450505062001a7a8661020087016200186c565b939692955092936103400135925050565b6001600160a01b0391909116815260200190565b60006020828403121562001ab257600080fd5b81516200168281620016dd565b9182526001600160a01b0316602082015260400190565b634e487b7160e01b600052601160045260246000fd5b81810381811115620002e557620002e562001ad6565b60005b8381101562001b1f57818101518382015260200162001b05565b50506000910152565b76020b1b1b2b9b9a1b7b73a3937b61d1030b1b1b7bab73a1604d1b81526000835162001b5c81601785016020880162001b02565b7001034b99036b4b9b9b4b733903937b6329607d1b601791840191820152835162001b8f81602884016020880162001b02565b01602801949350505050565b602081526000825180602084015262001bbc81604085016020870162001b02565b601f01601f19169190910160400192915050565b8082028115828204841417620002e557620002e562001ad6565b80820180821115620002e557620002e562001ad6565b634e487b7160e01b600052603260045260246000fd5b60008162001c285762001c2862001ad6565b50600019019056fe608060405234801561001057600080fd5b506040516101ad3803806101ad83398101604081905261002f91610113565b60405163d9c70f5760e01b81526001600160a01b0382811660048301526001602483015284169063d9c70f5790604401600060405180830381600087803b15801561007957600080fd5b505af115801561008d573d6000803e3d6000fd5b505060405163d9c70f5760e01b81526001600160a01b038581166004830152600160248301528616925063d9c70f579150604401600060405180830381600087803b1580156100db57600080fd5b505af11580156100ef573d6000803e3d6000fd5b50505050505050610160565b6001600160a01b038116811461011057600080fd5b50565b60008060006060848603121561012857600080fd5b8351610133816100fb565b6020850151909350610144816100fb565b6040850151909250610155816100fb565b809150509250925092565b603f8061016e6000396000f3fe6080604052600080fdfea2646970667358221220a2177fc2a03647acc3a41b3f4839574298d9c05e26150426d3264883a45c5f2264736f6c634300081300337e2be3cffb06427cbcb9b1d12d4b78adcf14a2bf640e9bbdeb54bb711b65ec7165d7a28e3265b37a6474929f336521b332c1681b933f6cb9f3376673440d862aa26469706673582212201266a88ab4f79ecd15259eb692ed083994fdb7c1d1a2b7e12b85ab5c6c6e12b464736f6c63430008130033",
    "linkReferences": {}
  },
  "methodIdentifiers": {
    "DEFAULT_ADMIN_ROLE()": "a217fddf",
    "create((address,address,address,address,uint256,uint256,uint64,uint64,uint64,uint64,uint64,uint128,uint128),(uint64,uint64,uint64),(uint128,uint256,uint64,uint64,uint256,address,address,address,address,address),uint256)": "4723da21",
    "deployer()": "d5f39488",
    "getConstants()": "9a295e73",
    "getRoleAdmin(bytes32)": "248a9ca3",
    "grantRole(bytes32,address)": "2f2ff15d",
    "hasRole(bytes32,address)": "91d14854",
    "pause()": "8456cb59",
    "paused()": "5c975abb",
    "pausedAt()": "2e55d0f2",
    "renounceRole(bytes32,address)": "36568abe",
    "revokeRole(bytes32,address)": "d547741f",
    "supportsInterface(bytes4)": "01ffc9a7",
    "unpause()": "3f4ba83a",
    "unwinderFactory()": "8e107be4"
  },
  "id": 91
}