{
  "abi": [
    {
      "inputs": [
        {
          "internalType": "contract ICDPVault_Deployer",
          "name": "deployer_",
          "type": "address"
        },
        {
          "internalType": "address",
          "name": "roleAdmin",
          "type": "address"
        },
        {
          "internalType": "address",
          "name": "deployerAdmin",
          "type": "address"
        },
        {
          "internalType": "address",
          "name": "pauseAdmin",
          "type": "address"
        }
      ],
      "stateMutability": "nonpayable",
      "type": "constructor"
    },
    {
      "anonymous": false,
      "inputs": [
        {
          "indexed": true,
          "internalType": "address",
          "name": "vault",
          "type": "address"
        },
        {
          "indexed": true,
          "internalType": "address",
          "name": "token",
          "type": "address"
        },
        {
          "indexed": true,
          "internalType": "address",
          "name": "creator",
          "type": "address"
        }
      ],
      "name": "CreateVault",
      "type": "event"
    },
    {
      "anonymous": false,
      "inputs": [
        {
          "indexed": false,
          "internalType": "address",
          "name": "account",
          "type": "address"
        }
      ],
      "name": "Paused",
      "type": "event"
    },
    {
      "anonymous": false,
      "inputs": [
        {
          "indexed": true,
          "internalType": "bytes32",
          "name": "role",
          "type": "bytes32"
        },
        {
          "indexed": true,
          "internalType": "bytes32",
          "name": "previousAdminRole",
          "type": "bytes32"
        },
        {
          "indexed": true,
          "internalType": "bytes32",
          "name": "newAdminRole",
          "type": "bytes32"
        }
      ],
      "name": "RoleAdminChanged",
      "type": "event"
    },
    {
      "anonymous": false,
      "inputs": [
        {
          "indexed": true,
          "internalType": "bytes32",
          "name": "role",
          "type": "bytes32"
        },
        {
          "indexed": true,
          "internalType": "address",
          "name": "account",
          "type": "address"
        },
        {
          "indexed": true,
          "internalType": "address",
          "name": "sender",
          "type": "address"
        }
      ],
      "name": "RoleGranted",
      "type": "event"
    },
    {
      "anonymous": false,
      "inputs": [
        {
          "indexed": true,
          "internalType": "bytes32",
          "name": "role",
          "type": "bytes32"
        },
        {
          "indexed": true,
          "internalType": "address",
          "name": "account",
          "type": "address"
        },
        {
          "indexed": true,
          "internalType": "address",
          "name": "sender",
          "type": "address"
        }
      ],
      "name": "RoleRevoked",
      "type": "event"
    },
    {
      "anonymous": false,
      "inputs": [
        {
          "indexed": false,
          "internalType": "address",
          "name": "account",
          "type": "address"
        }
      ],
      "name": "Unpaused",
      "type": "event"
    },
    {
      "inputs": [],
      "name": "DEFAULT_ADMIN_ROLE",
      "outputs": [
        {
          "internalType": "bytes32",
          "name": "",
          "type": "bytes32"
        }
      ],
      "stateMutability": "view",
      "type": "function"
    },
    {
      "inputs": [
        {
          "components": [
            {
              "internalType": "contract ICDM",
              "name": "cdm",
              "type": "address"
            },
            {
              "internalType": "contract IOracle",
              "name": "oracle",
              "type": "address"
            },
            {
              "internalType": "contract IBuffer",
              "name": "buffer",
              "type": "address"
            },
            {
              "internalType": "contract IERC20",
              "name": "token",
              "type": "address"
            },
            {
              "internalType": "uint256",
              "name": "tokenScale",
              "type": "uint256"
            },
            {
              "internalType": "uint256",
              "name": "protocolFee",
              "type": "uint256"
            },
            {
              "internalType": "uint64",
              "name": "targetUtilizationRatio",
              "type": "uint64"
            },
            {
              "internalType": "uint64",
              "name": "maxUtilizationRatio",
              "type": "uint64"
            },
            {
              "internalType": "uint64",
              "name": "minInterestRate",
              "type": "uint64"
            },
            {
              "internalType": "uint64",
              "name": "maxInterestRate",
              "type": "uint64"
            },
            {
              "internalType": "uint64",
              "name": "targetInterestRate",
              "type": "uint64"
            },
            {
              "internalType": "uint128",
              "name": "rebateRate",
              "type": "uint128"
            },
            {
              "internalType": "uint128",
              "name": "maxRebate",
              "type": "uint128"
            }
          ],
          "internalType": "struct CDPVaultConstants",
          "name": "cdpVaultConstants",
          "type": "tuple"
        },
        {
          "components": [
            {
              "internalType": "uint64",
              "name": "liquidationPenalty",
              "type": "uint64"
            },
            {
              "internalType": "uint64",
              "name": "liquidationDiscount",
              "type": "uint64"
            },
            {
              "internalType": "uint64",
              "name": "targetHealthFactor",
              "type": "uint64"
            }
          ],
          "internalType": "struct CDPVault_TypeAConfig",
          "name": "cdpVaultTypeAConfig",
          "type": "tuple"
        },
        {
          "components": [
            {
              "internalType": "uint128",
              "name": "debtFloor",
              "type": "uint128"
            },
            {
              "internalType": "uint256",
              "name": "limitOrderFloor",
              "type": "uint256"
            },
            {
              "internalType": "uint64",
              "name": "liquidationRatio",
              "type": "uint64"
            },
            {
              "internalType": "uint64",
              "name": "globalLiquidationRatio",
              "type": "uint64"
            },
            {
              "internalType": "uint256",
              "name": "baseRate",
              "type": "uint256"
            },
            {
              "internalType": "address",
              "name": "roleAdmin",
              "type": "address"
            },
            {
              "internalType": "address",
              "name": "vaultAdmin",
              "type": "address"
            },
            {
              "internalType": "address",
              "name": "tickManager",
              "type": "address"
            },
            {
              "internalType": "address",
              "name": "pauseAdmin",
              "type": "address"
            }
          ],
          "internalType": "struct CDPVaultConfig",
          "name": "cdpVaultConfig",
          "type": "tuple"
        },
        {
          "internalType": "uint256",
          "name": "debtCeiling",
          "type": "uint256"
        }
      ],
      "name": "create",
      "outputs": [
        {
          "internalType": "address",
          "name": "",
          "type": "address"
        }
      ],
      "stateMutability": "nonpayable",
      "type": "function"
    },
    {
      "inputs": [],
      "name": "deployer",
      "outputs": [
        {
          "internalType": "contract ICDPVault_Deployer",
          "name": "",
          "type": "address"
        }
      ],
      "stateMutability": "view",
      "type": "function"
    },
    {
      "inputs": [],
      "name": "getConstants",
      "outputs": [
        {
          "internalType": "contract ICDM",
          "name": "cdm",
          "type": "address"
        },
        {
          "internalType": "contract IOracle",
          "name": "oracle",
          "type": "address"
        },
        {
          "internalType": "contract IBuffer",
          "name": "buffer",
          "type": "address"
        },
        {
          "internalType": "contract IERC20",
          "name": "token",
          "type": "address"
        },
        {
          "internalType": "uint256",
          "name": "tokenScale",
          "type": "uint256"
        },
        {
          "internalType": "uint256",
          "name": "protocolFee",
          "type": "uint256"
        },
        {
          "internalType": "uint256",
          "name": "utilizationParams",
          "type": "uint256"
        },
        {
          "internalType": "uint256",
          "name": "rebateParams",
          "type": "uint256"
        }
      ],
      "stateMutability": "view",
      "type": "function"
    },
    {
      "inputs": [
        {
          "internalType": "bytes32",
          "name": "role",
          "type": "bytes32"
        }
      ],
      "name": "getRoleAdmin",
      "outputs": [
        {
          "internalType": "bytes32",
          "name": "",
          "type": "bytes32"
        }
      ],
      "stateMutability": "view",
      "type": "function"
    },
    {
      "inputs": [
        {
          "internalType": "bytes32",
          "name": "role",
          "type": "bytes32"
        },
        {
          "internalType": "address",
          "name": "account",
          "type": "address"
        }
      ],
      "name": "grantRole",
      "outputs": [],
      "stateMutability": "nonpayable",
      "type": "function"
    },
    {
      "inputs": [
        {
          "internalType": "bytes32",
          "name": "role",
          "type": "bytes32"
        },
        {
          "internalType": "address",
          "name": "account",
          "type": "address"
        }
      ],
      "name": "hasRole",
      "outputs": [
        {
          "internalType": "bool",
          "name": "",
          "type": "bool"
        }
      ],
      "stateMutability": "view",
      "type": "function"
    },
    {
      "inputs": [],
      "name": "pause",
      "outputs": [],
      "stateMutability": "nonpayable",
      "type": "function"
    },
    {
      "inputs": [],
      "name": "paused",
      "outputs": [
        {
          "internalType": "bool",
          "name": "",
          "type": "bool"
        }
      ],
      "stateMutability": "view",
      "type": "function"
    },
    {
      "inputs": [],
      "name": "pausedAt",
      "outputs": [
        {
          "internalType": "uint256",
          "name": "",
          "type": "uint256"
        }
      ],
      "stateMutability": "view",
      "type": "function"
    },
    {
      "inputs": [
        {
          "internalType": "bytes32",
          "name": "role",
          "type": "bytes32"
        },
        {
          "internalType": "address",
          "name": "account",
          "type": "address"
        }
      ],
      "name": "renounceRole",
      "outputs": [],
      "stateMutability": "nonpayable",
      "type": "function"
    },
    {
      "inputs": [
        {
          "internalType": "bytes32",
          "name": "role",
          "type": "bytes32"
        },
        {
          "internalType": "address",
          "name": "account",
          "type": "address"
        }
      ],
      "name": "revokeRole",
      "outputs": [],
      "stateMutability": "nonpayable",
      "type": "function"
    },
    {
      "inputs": [
        {
          "internalType": "bytes4",
          "name": "interfaceId",
          "type": "bytes4"
        }
      ],
      "name": "supportsInterface",
      "outputs": [
        {
          "internalType": "bool",
          "name": "",
          "type": "bool"
        }
      ],
      "stateMutability": "view",
      "type": "function"
    },
    {
      "inputs": [],
      "name": "unpause",
      "outputs": [],
      "stateMutability": "nonpayable",
      "type": "function"
    }
  ],
  "bytecode": {
    "object": "0x60a06040523480156200001157600080fd5b5060405162001be038038062001be0833981016040819052620000349162000174565b6001805460ff191690556001600160a01b03841660805262000058600084620000ba565b620000847ffc425f2263d0df187444b70e47283d622c70181c5baebb1306a01edba1ce184c83620000ba565b620000b07f65d7a28e3265b37a6474929f336521b332c1681b933f6cb9f3376673440d862a82620000ba565b50505050620001dc565b6000828152602081815260408083206001600160a01b038516845290915290205460ff1662000157576000828152602081815260408083206001600160a01b03851684529091529020805460ff19166001179055620001163390565b6001600160a01b0316816001600160a01b0316837f2f8788117e7eff1d82e926ec794901d17c78024a50270940304540a733656f0d60405160405180910390a45b5050565b6001600160a01b03811681146200017157600080fd5b50565b600080600080608085870312156200018b57600080fd5b845162000198816200015b565b6020860151909450620001ab816200015b565b6040860151909350620001be816200015b565b6060860151909250620001d1816200015b565b939692955090935050565b6080516119e1620001ff60003960008181610229015261049e01526119e16000f3fe608060405234801561001057600080fd5b50600436106100ca5760003560e01c80635c975abb1161007c5780635c975abb1461018c5780638456cb591461019757806391d148541461019f5780639a295e73146101b2578063a217fddf14610209578063d547741f14610211578063d5f394881461022457600080fd5b806301ffc9a7146100cf578063248a9ca3146100f75780632bb9f31d146101285780632e55d0f2146101535780632f2ff15d1461015c57806336568abe146101715780633f4ba83a14610184575b600080fd5b6100e26100dd366004611455565b61024b565b60405190151581526020015b60405180910390f35b61011a61010536600461147f565b60009081526020819052604090206001015490565b6040519081526020016100ee565b61013b61013636600461168e565b610282565b6040516001600160a01b0390911681526020016100ee565b61011a60025481565b61016f61016a3660046117c1565b610dc7565b005b61016f61017f3660046117c1565b610df1565b61016f610e74565b60015460ff166100e2565b61016f610e9c565b6100e26101ad3660046117c1565b610ebf565b6101ba610ee8565b604080516001600160a01b03998a168152978916602089015295881695870195909552959092166060850152608084015260a083015260c082019290925260e0810191909152610100016100ee565b61011a600081565b61016f61021f3660046117c1565b611004565b61013b7f000000000000000000000000000000000000000000000000000000000000000081565b60006001600160e01b03198216637965db0b60e01b148061027c57506301ffc9a760e01b6001600160e01b03198316145b92915050565b600061028c611029565b84600360008201518160000160006101000a8154816001600160a01b0302191690836001600160a01b0316021790555060208201518160010160006101000a8154816001600160a01b0302191690836001600160a01b0316021790555060408201518160020160006101000a8154816001600160a01b0302191690836001600160a01b0316021790555060608201518160030160006101000a8154816001600160a01b0302191690836001600160a01b031602179055506080820151816004015560a0820151816005015560c08201518160060160006101000a8154816001600160401b0302191690836001600160401b0316021790555060e08201518160060160086101000a8154816001600160401b0302191690836001600160401b031602179055506101008201518160060160106101000a8154816001600160401b0302191690836001600160401b031602179055506101208201518160060160186101000a8154816001600160401b0302191690836001600160401b031602179055506101408201518160070160006101000a8154816001600160401b0302191690836001600160401b031602179055506101608201518160070160086101000a8154816001600160801b0302191690836001600160801b031602179055506101808201518160080160006101000a8154816001600160801b0302191690836001600160801b0316021790555090505060007f00000000000000000000000000000000000000000000000000000000000000006001600160a01b031663775c300c6040518163ffffffff1660e01b81526004016020604051808303816000875af11580156104fc573d6000803e3d6000fd5b505050506040513d601f19601f8201168201806040525081019061052091906117f1565b9050806001600160a01b0316630a9254e46040518163ffffffff1660e01b8152600401600060405180830381600087803b15801561055d57600080fd5b505af1158015610571573d6000803e3d6000fd5b5050600380546001600160a01b03199081169091556004805482168155600580548316905560068054909216909155600060078190556008819055600955600a80546001600160c01b0319169055600b80546001600160801b0319169055604051632f2ff15d60e01b81526001600160a01b0385169350632f2ff15d925061060b9160008051602061196c8339815191529130910161180e565b600060405180830381600087803b15801561062557600080fd5b505af1158015610639573d6000803e3d6000fd5b5050855160405163391a83df60e11b8152683232b13a233637b7b960b91b60048201526001600160801b0390911660248201526001600160a01b038416925063723507be9150604401600060405180830381600087803b15801561069c57600080fd5b505af11580156106b0573d6000803e3d6000fd5b50505050602084015160405163391a83df60e11b81526e3634b6b4ba27b93232b9233637b7b960891b600482015260248101919091526001600160a01b0382169063723507be90604401600060405180830381600087803b15801561071457600080fd5b505af1158015610728573d6000803e3d6000fd5b50505050604084810151905163391a83df60e11b81526f6c69717569646174696f6e526174696f60801b60048201526001600160401b0390911660248201526001600160a01b0382169063723507be90604401600060405180830381600087803b15801561079557600080fd5b505af11580156107a9573d6000803e3d6000fd5b50505050606084015160405163391a83df60e11b815275676c6f62616c4c69717569646174696f6e526174696f60501b60048201526001600160401b0390911660248201526001600160a01b0382169063723507be90604401600060405180830381600087803b15801561081c57600080fd5b505af1158015610830573d6000803e3d6000fd5b50505050608084015160405163391a83df60e11b815267626173655261746560c01b600482015260248101919091526001600160a01b0382169063723507be90604401600060405180830381600087803b15801561088d57600080fd5b505af11580156108a1573d6000803e3d6000fd5b5050865160405163391a83df60e11b8152716c69717569646174696f6e50656e616c747960701b60048201526001600160401b0390911660248201526001600160a01b038416925063723507be9150604401600060405180830381600087803b15801561090d57600080fd5b505af1158015610921573d6000803e3d6000fd5b50505050602085015160405163391a83df60e11b8152721b1a5c5d5a59185d1a5bdb911a5cd8dbdd5b9d606a1b60048201526001600160401b0390911660248201526001600160a01b0382169063723507be90604401600060405180830381600087803b15801561099157600080fd5b505af11580156109a5573d6000803e3d6000fd5b50505050604085810151905163391a83df60e11b8152713a30b933b2ba2432b0b63a342330b1ba37b960711b60048201526001600160401b0390911660248201526001600160a01b0382169063723507be90604401600060405180830381600087803b158015610a1457600080fd5b505af1158015610a28573d6000803e3d6000fd5b5050505060c0840151604051632f2ff15d60e01b81526001600160a01b03831691632f2ff15d91610a6b9160008051602061196c8339815191529160040161180e565b600060405180830381600087803b158015610a8557600080fd5b505af1158015610a99573d6000803e3d6000fd5b5050505060e0840151604051632f2ff15d60e01b81526001600160a01b03831691632f2ff15d91610aee917ff96f3d6876b63665360200e15ed8964960110cbbd99e917fb50ad1e576f538ac9160040161180e565b600060405180830381600087803b158015610b0857600080fd5b505af1158015610b1c573d6000803e3d6000fd5b50505050610100840151604051632f2ff15d60e01b81526001600160a01b03831691632f2ff15d91610b609160008051602061198c8339815191529160040161180e565b600060405180830381600087803b158015610b7a57600080fd5b505af1158015610b8e573d6000803e3d6000fd5b5050505060a0840151604051632f2ff15d60e01b81526001600160a01b03831691632f2ff15d91610bc49160009160040161180e565b600060405180830381600087803b158015610bde57600080fd5b505af1158015610bf2573d6000803e3d6000fd5b505060405163d547741f60e01b81526001600160a01b038416925063d547741f9150610c329060008051602061196c83398151915290309060040161180e565b600060405180830381600087803b158015610c4c57600080fd5b505af1158015610c60573d6000803e3d6000fd5b505060405163d547741f60e01b81526001600160a01b038416925063d547741f9150610c9390600090309060040161180e565b600060405180830381600087803b158015610cad57600080fd5b505af1158015610cc1573d6000803e3d6000fd5b505050506000831115610d7057610cf77ffc425f2263d0df187444b70e47283d622c70181c5baebb1306a01edba1ce184c611071565b8551604051626e308160e21b81526001600160a01b0383811660048301526a646562744365696c696e6760a81b602483015260448201869052909116906301b8c20490606401600060405180830381600087803b158015610d5757600080fd5b505af1158015610d6b573d6000803e3d6000fd5b505050505b336001600160a01b031686606001516001600160a01b0316826001600160a01b03167fb099da66a8504770c8deb56a35848ec236bde5e64dd9223d77c277b1ae09d43360405160405180910390a495945050505050565b600082815260208190526040902060010154610de281611071565b610dec838361107b565b505050565b6001600160a01b0381163314610e665760405162461bcd60e51b815260206004820152602f60248201527f416363657373436f6e74726f6c3a2063616e206f6e6c792072656e6f756e636560448201526e103937b632b9903337b91039b2b63360891b60648201526084015b60405180910390fd5b610e7082826110ff565b5050565b60008051602061198c833981519152610e8c81611071565b610e94611164565b506000600255565b60008051602061198c833981519152610eb481611071565b610ebc6111b6565b50565b6000918252602082815260408084206001600160a01b0393909316845291905290205460ff1690565b600354600454600554600654600754600854600a546001600160a01b0396871696958616959485169490931692600090819060d090610f3990670de0b6b3a7640000906001600160401b031661183b565b600954911b9060a890610f6590670de0b6b3a764000090600160c01b90046001600160401b031661183b565b600954911b90608090610f9190670de0b6b3a764000090600160801b90046001600160401b031661183b565b600954600b54600a549d9e9c9d9b9c9a9b999a98996001600160401b03831667ffffffffffffffff60401b600160401b9485900460401b16179390941b929092179390931793909317959190046001600160801b03166001600160801b031960809390931b929092169190911792509050565b60008281526020819052604090206001015461101f81611071565b610dec83836110ff565b60015460ff161561106f5760405162461bcd60e51b815260206004820152601060248201526f14185d5cd8589b194e881c185d5cd95960821b6044820152606401610e5d565b565b610ebc81336111c4565b6110858282610ebf565b610e70576000828152602081815260408083206001600160a01b03851684529091529020805460ff191660011790556110bb3390565b6001600160a01b0316816001600160a01b0316837f2f8788117e7eff1d82e926ec794901d17c78024a50270940304540a733656f0d60405160405180910390a45050565b6111098282610ebf565b15610e70576000828152602081815260408083206001600160a01b0385168085529252808320805460ff1916905551339285917ff6391f5c32d9c69d2a47ea670b442974b53935d1edc7fd64eb21e047a839171b9190a45050565b61116c61121d565b6001805460ff191690557f5db9ee0a495bf2e6ff9c91a7834c1ba4fdd244a5e8aa4e537bd38aeae4b073aa335b6040516001600160a01b03909116815260200160405180910390a1565b6111be611266565b42600255565b6111ce8282610ebf565b610e70576111db816112a1565b6111e68360206112b3565b6040516020016111f7929190611872565b60408051601f198184030181529082905262461bcd60e51b8252610e5d916004016118e1565b60015460ff1661106f5760405162461bcd60e51b815260206004820152601460248201527314185d5cd8589b194e881b9bdd081c185d5cd95960621b6044820152606401610e5d565b61126e611029565b6001805460ff1916811790557f62e78cea01bee320cd4e420270b5ea74000d11b0c9f74754ebdbfc544b05a25833611199565b606061027c6001600160a01b03831660145b606060006112c2836002611914565b6112cd90600261192b565b6001600160401b038111156112e4576112e4611498565b6040519080825280601f01601f19166020018201604052801561130e576020820181803683370190505b509050600360fc1b816000815181106113295761132961193e565b60200101906001600160f81b031916908160001a905350600f60fb1b816001815181106113585761135861193e565b60200101906001600160f81b031916908160001a905350600061137c846002611914565b61138790600161192b565b90505b60018111156113ff576f181899199a1a9b1b9c1cb0b131b232b360811b85600f16601081106113bb576113bb61193e565b1a60f81b8282815181106113d1576113d161193e565b60200101906001600160f81b031916908160001a90535060049490941c936113f881611954565b905061138a565b50831561144e5760405162461bcd60e51b815260206004820181905260248201527f537472696e67733a20686578206c656e67746820696e73756666696369656e746044820152606401610e5d565b9392505050565b60006020828403121561146757600080fd5b81356001600160e01b03198116811461144e57600080fd5b60006020828403121561149157600080fd5b5035919050565b634e487b7160e01b600052604160045260246000fd5b60405161012081016001600160401b03811182821017156114df57634e487b7160e01b600052604160045260246000fd5b60405290565b6040516101a081016001600160401b03811182821017156114df57634e487b7160e01b600052604160045260246000fd5b6001600160a01b0381168114610ebc57600080fd5b803561153681611516565b919050565b80356001600160401b038116811461153657600080fd5b80356001600160801b038116811461153657600080fd5b60006060828403121561157b57600080fd5b604051606081018181106001600160401b03821117156115ab57634e487b7160e01b600052604160045260246000fd5b6040529050806115ba8361153b565b81526115c86020840161153b565b60208201526115d96040840161153b565b60408201525092915050565b600061012082840312156115f857600080fd5b6116006114ae565b905061160b82611552565b8152602082013560208201526116236040830161153b565b60408201526116346060830161153b565b60608201526080820135608082015261164f60a0830161152b565b60a082015261166060c0830161152b565b60c082015261167160e0830161152b565b60e082015261010061168481840161152b565b9082015292915050565b6000806000808486036103408112156116a657600080fd5b6101a0808212156116b657600080fd5b6116be6114e5565b91506116c98761152b565b82526116d76020880161152b565b60208301526116e86040880161152b565b60408301526116f96060880161152b565b60608301526080870135608083015260a087013560a083015261171e60c0880161153b565b60c083015261172f60e0880161153b565b60e083015261010061174281890161153b565b9083015261012061175488820161153b565b9083015261014061176688820161153b565b90830152610160611778888201611552565b9083015261018061178a888201611552565b818401525081955061179e88828901611569565b945050506117b08661020087016115e5565b939692955092936103200135925050565b600080604083850312156117d457600080fd5b8235915060208301356117e681611516565b809150509250929050565b60006020828403121561180357600080fd5b815161144e81611516565b9182526001600160a01b0316602082015260400190565b634e487b7160e01b600052601160045260246000fd5b8181038181111561027c5761027c611825565b60005b83811015611869578181015183820152602001611851565b50506000910152565b76020b1b1b2b9b9a1b7b73a3937b61d1030b1b1b7bab73a1604d1b8152600083516118a481601785016020880161184e565b7001034b99036b4b9b9b4b733903937b6329607d1b60179184019182015283516118d581602884016020880161184e565b01602801949350505050565b602081526000825180602084015261190081604085016020870161184e565b601f01601f19169190910160400192915050565b808202811582820484141761027c5761027c611825565b8082018082111561027c5761027c611825565b634e487b7160e01b600052603260045260246000fd5b60008161196357611963611825565b50600019019056fe7e2be3cffb06427cbcb9b1d12d4b78adcf14a2bf640e9bbdeb54bb711b65ec7165d7a28e3265b37a6474929f336521b332c1681b933f6cb9f3376673440d862aa2646970667358221220a2b1b749d89eb8e8fdad8ccad4412134ee207c8f8881344b6277029cd7ba4eb864736f6c63430008130033",
    "linkReferences": {}
  },
  "methodIdentifiers": {
    "DEFAULT_ADMIN_ROLE()": "a217fddf",
    "create((address,address,address,address,uint256,uint256,uint64,uint64,uint64,uint64,uint64,uint128,uint128),(uint64,uint64,uint64),(uint128,uint256,uint64,uint64,uint256,address,address,address,address),uint256)": "2bb9f31d",
    "deployer()": "d5f39488",
    "getConstants()": "9a295e73",
    "getRoleAdmin(bytes32)": "248a9ca3",
    "grantRole(bytes32,address)": "2f2ff15d",
    "hasRole(bytes32,address)": "91d14854",
    "pause()": "8456cb59",
    "paused()": "5c975abb",
    "pausedAt()": "2e55d0f2",
    "renounceRole(bytes32,address)": "36568abe",
    "revokeRole(bytes32,address)": "d547741f",
    "supportsInterface(bytes4)": "01ffc9a7",
    "unpause()": "3f4ba83a"
  },
  "id": 91
}