{
  "abi": [
    {
      "inputs": [],
      "stateMutability": "nonpayable",
      "type": "constructor"
    },
    {
      "inputs": [],
      "name": "PRBProxy_ExecutionReverted",
      "type": "error"
    },
    {
      "inputs": [
        {
          "internalType": "address",
          "name": "owner",
          "type": "address"
        },
        {
          "internalType": "address",
          "name": "caller",
          "type": "address"
        },
        {
          "internalType": "address",
          "name": "target",
          "type": "address"
        }
      ],
      "name": "PRBProxy_ExecutionUnauthorized",
      "type": "error"
    },
    {
      "inputs": [
        {
          "internalType": "address",
          "name": "caller",
          "type": "address"
        },
        {
          "internalType": "address",
          "name": "owner",
          "type": "address"
        },
        {
          "internalType": "bytes4",
          "name": "method",
          "type": "bytes4"
        }
      ],
      "name": "PRBProxy_PluginNotInstalledForMethod",
      "type": "error"
    },
    {
      "inputs": [
        {
          "internalType": "contract IPRBProxyPlugin",
          "name": "plugin",
          "type": "address"
        }
      ],
      "name": "PRBProxy_PluginReverted",
      "type": "error"
    },
    {
      "inputs": [
        {
          "internalType": "address",
          "name": "target",
          "type": "address"
        }
      ],
      "name": "PRBProxy_TargetNotContract",
      "type": "error"
    },
    {
      "anonymous": false,
      "inputs": [
        {
          "indexed": true,
          "internalType": "address",
          "name": "target",
          "type": "address"
        },
        {
          "indexed": false,
          "internalType": "bytes",
          "name": "data",
          "type": "bytes"
        },
        {
          "indexed": false,
          "internalType": "bytes",
          "name": "response",
          "type": "bytes"
        }
      ],
      "name": "Execute",
      "type": "event"
    },
    {
      "anonymous": false,
      "inputs": [
        {
          "indexed": true,
          "internalType": "contract IPRBProxyPlugin",
          "name": "plugin",
          "type": "address"
        },
        {
          "indexed": false,
          "internalType": "bytes",
          "name": "data",
          "type": "bytes"
        },
        {
          "indexed": false,
          "internalType": "bytes",
          "name": "response",
          "type": "bytes"
        }
      ],
      "name": "RunPlugin",
      "type": "event"
    },
    {
      "stateMutability": "payable",
      "type": "fallback"
    },
    {
      "inputs": [
        {
          "internalType": "address",
          "name": "target",
          "type": "address"
        },
        {
          "internalType": "bytes",
          "name": "data",
          "type": "bytes"
        }
      ],
      "name": "execute",
      "outputs": [
        {
          "internalType": "bytes",
          "name": "response",
          "type": "bytes"
        }
      ],
      "stateMutability": "payable",
      "type": "function"
    },
    {
      "inputs": [],
      "name": "owner",
      "outputs": [
        {
          "internalType": "address",
          "name": "",
          "type": "address"
        }
      ],
      "stateMutability": "view",
      "type": "function"
    },
    {
      "inputs": [],
      "name": "registry",
      "outputs": [
        {
          "internalType": "contract IPRBProxyRegistry",
          "name": "",
          "type": "address"
        }
      ],
      "stateMutability": "view",
      "type": "function"
    },
    {
      "stateMutability": "payable",
      "type": "receive"
    }
  ],
  "bytecode": {
    "object": "0x60c06040523480156200001157600080fd5b503360a0819052604080516366b0182d60e01b81529051600092839283926366b0182d9160048082019286929091908290030181865afa1580156200005a573d6000803e3d6000fd5b505050506040513d6000823e601f3d908101601f1916820160405262000084919081019062000232565b6001600160a01b038084166080529295509093509150821615620000b057620000ae8282620000b9565b505b50505062000390565b6060826001600160a01b03163b600003620000f657604051636d17e5ef60e11b81526001600160a01b038416600482015260240160405180910390fd5b6000836001600160a01b03168360405162000112919062000312565b600060405180830381855af49150503d80600081146200014f576040519150601f19603f3d011682016040523d82523d6000602084013e62000154565b606091505b508093508192505050836001600160a01b03167fb24ebe141c5f2a744b103bea65fce6c40e0dc65d7341d092c09b160f4044799084846040516200019a9291906200035e565b60405180910390a280620001d257815115620001b95781518060208401fd5b60405163061a160d60e41b815260040160405180910390fd5b5092915050565b80516001600160a01b0381168114620001f157600080fd5b919050565b634e487b7160e01b600052604160045260246000fd5b60005b83811015620002295781810151838201526020016200020f565b50506000910152565b6000806000606084860312156200024857600080fd5b6200025384620001d9565b92506200026360208501620001d9565b60408501519092506001600160401b03808211156200028157600080fd5b818601915086601f8301126200029657600080fd5b815181811115620002ab57620002ab620001f6565b604051601f8201601f19908116603f01168101908382118183101715620002d657620002d6620001f6565b81604052828152896020848701011115620002f057600080fd5b620003038360208301602088016200020c565b80955050505050509250925092565b60008251620003268184602087016200020c565b9190910192915050565b600081518084526200034a8160208601602086016200020c565b601f01601f19169290920160200192915050565b60408152600062000373604083018562000330565b828103602084015262000387818562000330565b95945050505050565b60805160a0516107cf620003e5600039600081816099015281816102970152610346015260008181605601528181610131015281816102d8015281816102fe0152818161037301526103e901526107cf6000f3fe6080604052600436106100385760003560e01c80631cff79cd1461025c5780637b103999146102855780638da5cb5b146102c65761003f565b3661003f57005b6040516361be485960e01b81526001600160a01b037f000000000000000000000000000000000000000000000000000000000000000081166004830152600080356001600160e01b031916602484015291369160609184917f000000000000000000000000000000000000000000000000000000000000000016906361be485990604401602060405180830381865afa1580156100e0573d6000803e3d6000fd5b505050506040513d601f19601f820116820180604052508101906101049190610592565b90506001600160a01b03811661017557604051638848730f60e01b81523360048201526001600160a01b037f00000000000000000000000000000000000000000000000000000000000000001660248201526001600160e01b03196000351660448201526064015b60405180910390fd5b6000816001600160a01b031685856040516101919291906105b6565b600060405180830381855af49150503d80600081146101cc576040519150601f19603f3d011682016040523d82523d6000602084013e6101d1565b606091505b508094508192505050816001600160a01b03167fc4dabe0d7ef7462e2218f2c398c21ef217803e1c46f5cf802d1a5d1d9b503f2f86868660405161021793929190610616565b60405180910390a28061024f578251156102345782518084602001fd5b8160405163023c045d60e21b815260040161016c919061065e565b5050915050805190602001f35b61026f61026a366004610672565b6102fa565b60405161027c91906106f7565b60405180910390f35b34801561029157600080fd5b506102b97f000000000000000000000000000000000000000000000000000000000000000081565b60405161027c919061065e565b3480156102d257600080fd5b506102b97f000000000000000000000000000000000000000000000000000000000000000081565b60607f00000000000000000000000000000000000000000000000000000000000000006001600160a01b031633146104285760405163b31d1b9960e01b81526000906001600160a01b037f0000000000000000000000000000000000000000000000000000000000000000169063b31d1b999061039f907f00000000000000000000000000000000000000000000000000000000000000009033908a9060040161070a565b602060405180830381865afa1580156103bc573d6000803e3d6000fd5b505050506040513d601f19601f820116820180604052508101906103e0919061072d565b905080610426577f000000000000000000000000000000000000000000000000000000000000000033866040516355d1750960e01b815260040161016c9392919061070a565b505b6104688484848080601f01602080910402602001604051908101604052809392919081815260200183838082843760009201919091525061047092505050565b949350505050565b6060826001600160a01b03163b60000361049f5782604051636d17e5ef60e11b815260040161016c919061065e565b6000836001600160a01b0316836040516104b9919061074f565b600060405180830381855af49150503d80600081146104f4576040519150601f19603f3d011682016040523d82523d6000602084013e6104f9565b606091505b508093508192505050836001600160a01b03167fb24ebe141c5f2a744b103bea65fce6c40e0dc65d7341d092c09b160f40447990848460405161053d92919061076b565b60405180910390a2806105735781511561055a5781518060208401fd5b60405163061a160d60e41b815260040160405180910390fd5b5092915050565b6001600160a01b038116811461058f57600080fd5b50565b6000602082840312156105a457600080fd5b81516105af8161057a565b9392505050565b8183823760009101908152919050565b60005b838110156105e15781810151838201526020016105c9565b50506000910152565b600081518084526106028160208601602086016105c6565b601f01601f19169290920160200192915050565b60408152826040820152828460608301376000606084830101526000601f19601f8501168201606083820301602084015261065460608201856105ea565b9695505050505050565b6001600160a01b0391909116815260200190565b60008060006040848603121561068757600080fd5b83356106928161057a565b9250602084013567ffffffffffffffff808211156106af57600080fd5b818601915086601f8301126106c357600080fd5b8135818111156106d257600080fd5b8760208285010111156106e457600080fd5b6020830194508093505050509250925092565b6020815260006105af60208301846105ea565b6001600160a01b0393841681529183166020830152909116604082015260600190565b60006020828403121561073f57600080fd5b815180151581146105af57600080fd5b600082516107618184602087016105c6565b9190910192915050565b60408152600061077e60408301856105ea565b828103602084015261079081856105ea565b9594505050505056fea264697066735822122052450dc4972bf8884fc98cb78b7ab2307041fbddd18c444dba1078d679d19a0c64736f6c63430008130033",
    "linkReferences": {}
  },
  "methodIdentifiers": {
    "execute(address,bytes)": "1cff79cd",
    "owner()": "8da5cb5b",
    "registry()": "7b103999"
  },
  "id": 81
}