{
  "abi": [
    {
      "inputs": [
        {
          "internalType": "address",
          "name": "roleAdmin",
          "type": "address"
        },
        {
          "internalType": "address",
          "name": "cdmAdmin",
          "type": "address"
        },
        {
          "internalType": "address",
          "name": "accountAdmin",
          "type": "address"
        }
      ],
      "stateMutability": "nonpayable",
      "type": "constructor"
    },
    {
      "inputs": [],
      "name": "CDM__modifyBalance_debtCeilingExceeded",
      "type": "error"
    },
    {
      "inputs": [],
      "name": "CDM__modifyBalance_globalDebtCeilingExceeded",
      "type": "error"
    },
    {
      "inputs": [],
      "name": "CDM__modifyBalance_noPermission",
      "type": "error"
    },
    {
      "inputs": [],
      "name": "CDM__setParameter_debtCeilingExceedsMax",
      "type": "error"
    },
    {
      "inputs": [],
      "name": "CDM__setParameter_unrecognizedParameter",
      "type": "error"
    },
    {
      "inputs": [],
      "name": "Math__toInt256_overflow",
      "type": "error"
    },
    {
      "inputs": [],
      "name": "Permission__modifyPermission_notPermitted",
      "type": "error"
    },
    {
      "anonymous": false,
      "inputs": [
        {
          "indexed": true,
          "internalType": "address",
          "name": "from",
          "type": "address"
        },
        {
          "indexed": true,
          "internalType": "address",
          "name": "to",
          "type": "address"
        },
        {
          "indexed": false,
          "internalType": "int256",
          "name": "balanceFrom",
          "type": "int256"
        },
        {
          "indexed": false,
          "internalType": "int256",
          "name": "balanceTo",
          "type": "int256"
        },
        {
          "indexed": false,
          "internalType": "uint256",
          "name": "globalDebt",
          "type": "uint256"
        }
      ],
      "name": "ModifyBalance",
      "type": "event"
    },
    {
      "anonymous": false,
      "inputs": [
        {
          "indexed": false,
          "internalType": "address",
          "name": "authorizer",
          "type": "address"
        },
        {
          "indexed": false,
          "internalType": "address",
          "name": "owner",
          "type": "address"
        },
        {
          "indexed": false,
          "internalType": "address",
          "name": "caller",
          "type": "address"
        },
        {
          "indexed": false,
          "internalType": "bool",
          "name": "grant",
          "type": "bool"
        }
      ],
      "name": "ModifyPermission",
      "type": "event"
    },
    {
      "anonymous": false,
      "inputs": [
        {
          "indexed": true,
          "internalType": "bytes32",
          "name": "role",
          "type": "bytes32"
        },
        {
          "indexed": true,
          "internalType": "bytes32",
          "name": "previousAdminRole",
          "type": "bytes32"
        },
        {
          "indexed": true,
          "internalType": "bytes32",
          "name": "newAdminRole",
          "type": "bytes32"
        }
      ],
      "name": "RoleAdminChanged",
      "type": "event"
    },
    {
      "anonymous": false,
      "inputs": [
        {
          "indexed": true,
          "internalType": "bytes32",
          "name": "role",
          "type": "bytes32"
        },
        {
          "indexed": true,
          "internalType": "address",
          "name": "account",
          "type": "address"
        },
        {
          "indexed": true,
          "internalType": "address",
          "name": "sender",
          "type": "address"
        }
      ],
      "name": "RoleGranted",
      "type": "event"
    },
    {
      "anonymous": false,
      "inputs": [
        {
          "indexed": true,
          "internalType": "bytes32",
          "name": "role",
          "type": "bytes32"
        },
        {
          "indexed": true,
          "internalType": "address",
          "name": "account",
          "type": "address"
        },
        {
          "indexed": true,
          "internalType": "address",
          "name": "sender",
          "type": "address"
        }
      ],
      "name": "RoleRevoked",
      "type": "event"
    },
    {
      "anonymous": false,
      "inputs": [
        {
          "indexed": true,
          "internalType": "bytes32",
          "name": "parameter",
          "type": "bytes32"
        },
        {
          "indexed": false,
          "internalType": "uint256",
          "name": "data",
          "type": "uint256"
        }
      ],
      "name": "SetParameter",
      "type": "event"
    },
    {
      "anonymous": false,
      "inputs": [
        {
          "indexed": true,
          "internalType": "address",
          "name": "account",
          "type": "address"
        },
        {
          "indexed": true,
          "internalType": "bytes32",
          "name": "parameter",
          "type": "bytes32"
        },
        {
          "indexed": false,
          "internalType": "uint256",
          "name": "data",
          "type": "uint256"
        }
      ],
      "name": "SetParameter",
      "type": "event"
    },
    {
      "anonymous": false,
      "inputs": [
        {
          "indexed": false,
          "internalType": "address",
          "name": "owner",
          "type": "address"
        },
        {
          "indexed": false,
          "internalType": "address",
          "name": "agent",
          "type": "address"
        },
        {
          "indexed": false,
          "internalType": "bool",
          "name": "grant",
          "type": "bool"
        }
      ],
      "name": "SetPermittedAgent",
      "type": "event"
    },
    {
      "inputs": [],
      "name": "DEFAULT_ADMIN_ROLE",
      "outputs": [
        {
          "internalType": "bytes32",
          "name": "",
          "type": "bytes32"
        }
      ],
      "stateMutability": "view",
      "type": "function"
    },
    {
      "inputs": [
        {
          "internalType": "address",
          "name": "",
          "type": "address"
        }
      ],
      "name": "accounts",
      "outputs": [
        {
          "internalType": "int256",
          "name": "balance",
          "type": "int256"
        },
        {
          "internalType": "uint256",
          "name": "debtCeiling",
          "type": "uint256"
        }
      ],
      "stateMutability": "view",
      "type": "function"
    },
    {
      "inputs": [
        {
          "internalType": "address",
          "name": "debtor",
          "type": "address"
        }
      ],
      "name": "creditLine",
      "outputs": [
        {
          "internalType": "uint256",
          "name": "",
          "type": "uint256"
        }
      ],
      "stateMutability": "view",
      "type": "function"
    },
    {
      "inputs": [
        {
          "internalType": "bytes32",
          "name": "role",
          "type": "bytes32"
        }
      ],
      "name": "getRoleAdmin",
      "outputs": [
        {
          "internalType": "bytes32",
          "name": "",
          "type": "bytes32"
        }
      ],
      "stateMutability": "view",
      "type": "function"
    },
    {
      "inputs": [],
      "name": "globalDebt",
      "outputs": [
        {
          "internalType": "uint256",
          "name": "",
          "type": "uint256"
        }
      ],
      "stateMutability": "view",
      "type": "function"
    },
    {
      "inputs": [],
      "name": "globalDebtCeiling",
      "outputs": [
        {
          "internalType": "uint256",
          "name": "",
          "type": "uint256"
        }
      ],
      "stateMutability": "view",
      "type": "function"
    },
    {
      "inputs": [
        {
          "internalType": "bytes32",
          "name": "role",
          "type": "bytes32"
        },
        {
          "internalType": "address",
          "name": "account",
          "type": "address"
        }
      ],
      "name": "grantRole",
      "outputs": [],
      "stateMutability": "nonpayable",
      "type": "function"
    },
    {
      "inputs": [
        {
          "internalType": "address",
          "name": "owner",
          "type": "address"
        },
        {
          "internalType": "address",
          "name": "caller",
          "type": "address"
        }
      ],
      "name": "hasPermission",
      "outputs": [
        {
          "internalType": "bool",
          "name": "",
          "type": "bool"
        }
      ],
      "stateMutability": "view",
      "type": "function"
    },
    {
      "inputs": [
        {
          "internalType": "bytes32",
          "name": "role",
          "type": "bytes32"
        },
        {
          "internalType": "address",
          "name": "account",
          "type": "address"
        }
      ],
      "name": "hasRole",
      "outputs": [
        {
          "internalType": "bool",
          "name": "",
          "type": "bool"
        }
      ],
      "stateMutability": "view",
      "type": "function"
    },
    {
      "inputs": [
        {
          "internalType": "address",
          "name": "from",
          "type": "address"
        },
        {
          "internalType": "address",
          "name": "to",
          "type": "address"
        },
        {
          "internalType": "uint256",
          "name": "amount",
          "type": "uint256"
        }
      ],
      "name": "modifyBalance",
      "outputs": [],
      "stateMutability": "nonpayable",
      "type": "function"
    },
    {
      "inputs": [
        {
          "internalType": "address",
          "name": "owner",
          "type": "address"
        },
        {
          "internalType": "address",
          "name": "caller",
          "type": "address"
        },
        {
          "internalType": "bool",
          "name": "permitted",
          "type": "bool"
        }
      ],
      "name": "modifyPermission",
      "outputs": [],
      "stateMutability": "nonpayable",
      "type": "function"
    },
    {
      "inputs": [
        {
          "internalType": "address",
          "name": "caller",
          "type": "address"
        },
        {
          "internalType": "bool",
          "name": "permitted",
          "type": "bool"
        }
      ],
      "name": "modifyPermission",
      "outputs": [],
      "stateMutability": "nonpayable",
      "type": "function"
    },
    {
      "inputs": [
        {
          "internalType": "bytes32",
          "name": "role",
          "type": "bytes32"
        },
        {
          "internalType": "address",
          "name": "account",
          "type": "address"
        }
      ],
      "name": "renounceRole",
      "outputs": [],
      "stateMutability": "nonpayable",
      "type": "function"
    },
    {
      "inputs": [
        {
          "internalType": "bytes32",
          "name": "role",
          "type": "bytes32"
        },
        {
          "internalType": "address",
          "name": "account",
          "type": "address"
        }
      ],
      "name": "revokeRole",
      "outputs": [],
      "stateMutability": "nonpayable",
      "type": "function"
    },
    {
      "inputs": [
        {
          "internalType": "address",
          "name": "debtor",
          "type": "address"
        },
        {
          "internalType": "bytes32",
          "name": "parameter",
          "type": "bytes32"
        },
        {
          "internalType": "uint256",
          "name": "data",
          "type": "uint256"
        }
      ],
      "name": "setParameter",
      "outputs": [],
      "stateMutability": "nonpayable",
      "type": "function"
    },
    {
      "inputs": [
        {
          "internalType": "bytes32",
          "name": "parameter",
          "type": "bytes32"
        },
        {
          "internalType": "uint256",
          "name": "data",
          "type": "uint256"
        }
      ],
      "name": "setParameter",
      "outputs": [],
      "stateMutability": "nonpayable",
      "type": "function"
    },
    {
      "inputs": [
        {
          "internalType": "address",
          "name": "agent",
          "type": "address"
        },
        {
          "internalType": "bool",
          "name": "permitted",
          "type": "bool"
        }
      ],
      "name": "setPermissionAgent",
      "outputs": [],
      "stateMutability": "nonpayable",
      "type": "function"
    },
    {
      "inputs": [
        {
          "internalType": "bytes4",
          "name": "interfaceId",
          "type": "bytes4"
        }
      ],
      "name": "supportsInterface",
      "outputs": [
        {
          "internalType": "bool",
          "name": "",
          "type": "bool"
        }
      ],
      "stateMutability": "view",
      "type": "function"
    }
  ],
  "bytecode": {
    "object": "0x60806040523480156200001157600080fd5b506040516200133b3803806200133b833981016040819052620000349162000164565b62000041600084620000a2565b6200006d7f82db594318110a04b6349ce48645aa69f0892751bc893d15e61d9e2b9c4630f583620000a2565b620000997f559fe3dc990c00fba9554fe939c9ceda750eaa9f54bbd96781d76a3433420e1482620000a2565b505050620001ae565b60008281526002602090815260408083206001600160a01b038516845290915290205460ff16620001435760008281526002602090815260408083206001600160a01b03851684529091529020805460ff19166001179055620001023390565b6001600160a01b0316816001600160a01b0316837f2f8788117e7eff1d82e926ec794901d17c78024a50270940304540a733656f0d60405160405180910390a45b5050565b80516001600160a01b03811681146200015f57600080fd5b919050565b6000806000606084860312156200017a57600080fd5b620001858462000147565b9250620001956020850162000147565b9150620001a56040850162000147565b90509250925092565b61117d80620001be6000396000f3fe608060405234801561001057600080fd5b50600436106100f65760003560e01c8063723507be11610092578063723507be146101fa5780638309dbdd1461020d5780638543d5e01461022057806391d1485414610229578063a217fddf1461023c578063ac2ce9bc14610244578063cde6804114610257578063d547741f1461026a578063d9c70f571461027d57600080fd5b806301b8c204146100fb57806301ffc9a7146101105780631c3536e714610138578063248a9ca314610159578063280c37ef1461017c5780632efcc8661461018f5780632f2ff15d1461019857806336568abe146101ab5780635e5c06e2146101be575b600080fd5b61010e610109366004610d94565b610290565b005b61012361011e366004610dc7565b61037d565b60405190151581526020015b60405180910390f35b61014b610146366004610df1565b6103b4565b60405190815260200161012f565b61014b610167366004610e0c565b60009081526002602052604090206001015490565b61010e61018a366004610e35565b6103fb565b61014b60045481565b61010e6101a6366004610e68565b610472565b61010e6101b9366004610e68565b61049c565b6101e56101cc366004610df1565b6005602052600090815260409020805460019091015482565b6040805192835260208301919091520161012f565b61010e610208366004610e8b565b61051f565b61010e61021b366004610ead565b6105d0565b61014b60035481565b610123610237366004610e68565b61069d565b61014b600081565b61010e610252366004610ef0565b6106c8565b610123610265366004610f2c565b610945565b61010e610278366004610e68565b61098f565b61010e61028b366004610e35565b6109b4565b7f559fe3dc990c00fba9554fe939c9ceda750eaa9f54bbd96781d76a3433420e146102ba81610a15565b826a646562744365696c696e6760a81b0361031a576001600160ff1b038211156102f7576040516328caf6bd60e11b815260040160405180910390fd5b6001600160a01b0384166000908152600560205260409020600101829055610333565b60405163d8155de960e01b815260040160405180910390fd5b82846001600160a01b03167f50a989e048fcfed73b90709c715fbac45dda565b2c68d0801d3e393edbfb75998460405161036f91815260200190565b60405180910390a350505050565b60006001600160e01b03198216637965db0b60e01b14806103ae57506301ffc9a760e01b6001600160e01b03198316145b92915050565b6001600160a01b03811660009081526005602090815260408083208151808301909252805480835260019091015492820183905290916103f49190610a22565b9392505050565b3360008181526001602090815260408083206001600160a01b03871680855290835292819020805460ff1916861515908117909155815194855291840192909252908201527f6501e8bfa2d3e686d62fe2c0c3275df594494583b0a63a70b7452d3eeb712bd6906060015b60405180910390a15050565b60008281526002602052604090206001015461048d81610a15565b6104978383610a5a565b505050565b6001600160a01b03811633146105115760405162461bcd60e51b815260206004820152602f60248201527f416363657373436f6e74726f6c3a2063616e206f6e6c792072656e6f756e636560448201526e103937b632b9903337b91039b2b63360891b60648201526084015b60405180910390fd5b61051b8282610ae0565b5050565b7f82db594318110a04b6349ce48645aa69f0892751bc893d15e61d9e2b9c4630f561054981610a15565b8270676c6f62616c446562744365696c696e6760781b0361031a576001600160ff1b0382111561058c576040516328caf6bd60e11b815260040160405180910390fd5b6004829055827f4327e67d6578eb2c9293fb22f9334006073ac1397c7100f5dd5adca09ad71c08836040516105c391815260200190565b60405180910390a2505050565b6001600160a01b038316331480159061060d57506001600160a01b038316600090815260016020908152604080832033845290915290205460ff16155b1561062b57604051638743d2ff60e01b815260040160405180910390fd5b6001600160a01b038381166000908152602081815260408083209386168352929052819020805460ff1916831515179055517fdcf2bd5a4c47afeb1792d170f6f5e6e528e30c6b546fffe62b697a11f8953b2b90610690903390869086908690610f56565b60405180910390a1505050565b60009182526002602090815260408084206001600160a01b0393909316845291905290205460ff1690565b6106d28333610945565b6106ef576040516356e55cd560e01b815260040160405180910390fd5b6001600160a01b038084166000908152600560208181526040808420815180830183528154815260019182015481850152958816855292825292839020835180850190945280548085529201549083015282519061074c85610b47565b8451859061075b908390610f96565b90525061076785610b47565b83518490610776908390610fbd565b905250602084015160009061078a90610b47565b85516107969190610fbd565b12156107b5576040516317772a9160e01b815260040160405180910390fd5b8351600013806107c55750600082125b806107d1575082516000135b806107dc5750600081125b156108b85760035484518190600013806107f65750600084125b1561083b576108146000851285025b60ff81901c6000039081011890565b8651610824906000811202610805565b61082e9083610fe5565b6108389190610ff8565b90505b84516000138061084b5750600083125b156108855761085e600084128402610805565b855161086e906000811202610805565b6108789083610fe5565b6108829190610ff8565b90505b8181118015610895575060045481115b156108b357604051630c0e621960e11b815260040160405180910390fd5b600355505b6001600160a01b0387811660008181526005602090815260408083208951815589830151600191820155948b168084529281902088518082558984015191909601558851600354825191825292810195909552840152917f3e7338b511517c1bfb139b2822443d97702e73abbc2265509ded882be4cab0fe9060600160405180910390a350505050505050565b6000816001600160a01b0316836001600160a01b031614806103f45750506001600160a01b0391821660009081526020818152604080832093909416825291909152205460ff1690565b6000828152600260205260409020600101546109aa81610a15565b6104978383610ae0565b336000818152602081815260408083206001600160a01b038716845290915290819020805460ff1916841515179055517fdcf2bd5a4c47afeb1792d170f6f5e6e528e30c6b546fffe62b697a11f8953b2b9161046691819086908690610f56565b610a1f8133610b71565b50565b600080610a2e8361100b565b9050808412610a4f57610a418482610f96565b610a4a9061100b565b610a52565b60005b949350505050565b610a64828261069d565b61051b5760008281526002602090815260408083206001600160a01b03851684529091529020805460ff19166001179055610a9c3390565b6001600160a01b0316816001600160a01b0316837f2f8788117e7eff1d82e926ec794901d17c78024a50270940304540a733656f0d60405160405180910390a45050565b610aea828261069d565b1561051b5760008281526002602090815260408083206001600160a01b0385168085529252808320805460ff1916905551339285917ff6391f5c32d9c69d2a47ea670b442974b53935d1edc7fd64eb21e047a839171b9190a45050565b6000600160ff1b8210610b6d57604051632db27c5360e01b815260040160405180910390fd5b5090565b610b7b828261069d565b61051b57610b8881610bca565b610b93836020610bdc565b604051602001610ba492919061104b565b60408051601f198184030181529082905262461bcd60e51b8252610508916004016110ba565b60606103ae6001600160a01b03831660145b60606000610beb8360026110ed565b610bf6906002610fe5565b67ffffffffffffffff811115610c0e57610c0e611104565b6040519080825280601f01601f191660200182016040528015610c38576020820181803683370190505b509050600360fc1b81600081518110610c5357610c5361111a565b60200101906001600160f81b031916908160001a905350600f60fb1b81600181518110610c8257610c8261111a565b60200101906001600160f81b031916908160001a9053506000610ca68460026110ed565b610cb1906001610fe5565b90505b6001811115610d29576f181899199a1a9b1b9c1cb0b131b232b360811b85600f1660108110610ce557610ce561111a565b1a60f81b828281518110610cfb57610cfb61111a565b60200101906001600160f81b031916908160001a90535060049490941c93610d2281611130565b9050610cb4565b5083156103f45760405162461bcd60e51b815260206004820181905260248201527f537472696e67733a20686578206c656e67746820696e73756666696369656e746044820152606401610508565b80356001600160a01b0381168114610d8f57600080fd5b919050565b600080600060608486031215610da957600080fd5b610db284610d78565b95602085013595506040909401359392505050565b600060208284031215610dd957600080fd5b81356001600160e01b0319811681146103f457600080fd5b600060208284031215610e0357600080fd5b6103f482610d78565b600060208284031215610e1e57600080fd5b5035919050565b80358015158114610d8f57600080fd5b60008060408385031215610e4857600080fd5b610e5183610d78565b9150610e5f60208401610e25565b90509250929050565b60008060408385031215610e7b57600080fd5b82359150610e5f60208401610d78565b60008060408385031215610e9e57600080fd5b50508035926020909101359150565b600080600060608486031215610ec257600080fd5b610ecb84610d78565b9250610ed960208501610d78565b9150610ee760408501610e25565b90509250925092565b600080600060608486031215610f0557600080fd5b610f0e84610d78565b9250610f1c60208501610d78565b9150604084013590509250925092565b60008060408385031215610f3f57600080fd5b610f4883610d78565b9150610e5f60208401610d78565b6001600160a01b039485168152928416602084015292166040820152901515606082015260800190565b634e487b7160e01b600052601160045260246000fd5b8181036000831280158383131683831282161715610fb657610fb6610f80565b5092915050565b8082018281126000831280158216821582161715610fdd57610fdd610f80565b505092915050565b808201808211156103ae576103ae610f80565b818103818111156103ae576103ae610f80565b6000600160ff1b820161102057611020610f80565b5060000390565b60005b8381101561104257818101518382015260200161102a565b50506000910152565b76020b1b1b2b9b9a1b7b73a3937b61d1030b1b1b7bab73a1604d1b81526000835161107d816017850160208801611027565b7001034b99036b4b9b9b4b733903937b6329607d1b60179184019182015283516110ae816028840160208801611027565b01602801949350505050565b60208152600082518060208401526110d9816040850160208701611027565b601f01601f19169190910160400192915050565b80820281158282048414176103ae576103ae610f80565b634e487b7160e01b600052604160045260246000fd5b634e487b7160e01b600052603260045260246000fd5b60008161113f5761113f610f80565b50600019019056fea264697066735822122024f8161f47bb9344ef9f2fb73d97360ab3d76764cd1480477f6006629e365e8064736f6c63430008130033",
    "linkReferences": {}
  },
  "methodIdentifiers": {
    "DEFAULT_ADMIN_ROLE()": "a217fddf",
    "accounts(address)": "5e5c06e2",
    "creditLine(address)": "1c3536e7",
    "getRoleAdmin(bytes32)": "248a9ca3",
    "globalDebt()": "8543d5e0",
    "globalDebtCeiling()": "2efcc866",
    "grantRole(bytes32,address)": "2f2ff15d",
    "hasPermission(address,address)": "cde68041",
    "hasRole(bytes32,address)": "91d14854",
    "modifyBalance(address,address,uint256)": "ac2ce9bc",
    "modifyPermission(address,address,bool)": "8309dbdd",
    "modifyPermission(address,bool)": "d9c70f57",
    "renounceRole(bytes32,address)": "36568abe",
    "revokeRole(bytes32,address)": "d547741f",
    "setParameter(address,bytes32,uint256)": "01b8c204",
    "setParameter(bytes32,uint256)": "723507be",
    "setPermissionAgent(address,bool)": "280c37ef",
    "supportsInterface(bytes4)": "01ffc9a7"
  },
  "id": 87
}