{
  "abi": [
    {
      "inputs": [
        {
          "internalType": "contract ICDPVault_TypeB",
          "name": "vault_",
          "type": "address"
        },
        {
          "internalType": "contract IERC20",
          "name": "token_",
          "type": "address"
        },
        {
          "internalType": "contract ICDM",
          "name": "cdm_",
          "type": "address"
        }
      ],
      "stateMutability": "nonpayable",
      "type": "constructor"
    },
    {
      "inputs": [],
      "name": "CDPVaultUnwinder__redeemCredit_noCollateral",
      "type": "error"
    },
    {
      "inputs": [],
      "name": "CDPVaultUnwinder__redeemCredit_noPermission",
      "type": "error"
    },
    {
      "inputs": [],
      "name": "CDPVaultUnwinder__redeemCredit_notWithinPeriod",
      "type": "error"
    },
    {
      "inputs": [],
      "name": "CDPVaultUnwinder__redeemCredit_repaid",
      "type": "error"
    },
    {
      "inputs": [],
      "name": "CDPVaultUnwinder__redeemShares_noCredit",
      "type": "error"
    },
    {
      "inputs": [],
      "name": "CDPVaultUnwinder__redeemShares_notWithinPeriod",
      "type": "error"
    },
    {
      "inputs": [],
      "name": "CDPVaultUnwinder__redeemShares_redeemed",
      "type": "error"
    },
    {
      "inputs": [],
      "name": "CDPVaultUnwinder__redoAuction_cannotReset",
      "type": "error"
    },
    {
      "inputs": [],
      "name": "CDPVaultUnwinder__redoAuction_notRunning",
      "type": "error"
    },
    {
      "inputs": [],
      "name": "CDPVaultUnwinder__startAuction_alreadyStarted",
      "type": "error"
    },
    {
      "inputs": [],
      "name": "CDPVaultUnwinder__startAuction_noCash",
      "type": "error"
    },
    {
      "inputs": [],
      "name": "CDPVaultUnwinder__startAuction_notWithinPeriod",
      "type": "error"
    },
    {
      "inputs": [],
      "name": "CDPVaultUnwinder__takeCash_needsReset",
      "type": "error"
    },
    {
      "inputs": [],
      "name": "CDPVaultUnwinder__takeCash_noPartialPurchase",
      "type": "error"
    },
    {
      "inputs": [],
      "name": "CDPVaultUnwinder__takeCash_notRunning",
      "type": "error"
    },
    {
      "inputs": [],
      "name": "CDPVaultUnwinder__takeCash_tooExpensive",
      "type": "error"
    },
    {
      "anonymous": false,
      "inputs": [
        {
          "indexed": true,
          "internalType": "address",
          "name": "owner",
          "type": "address"
        },
        {
          "indexed": true,
          "internalType": "address",
          "name": "receiver",
          "type": "address"
        },
        {
          "indexed": true,
          "internalType": "address",
          "name": "payer",
          "type": "address"
        },
        {
          "indexed": false,
          "internalType": "uint256",
          "name": "subNormalDebt",
          "type": "uint256"
        },
        {
          "indexed": false,
          "internalType": "uint256",
          "name": "collateralRedeemed",
          "type": "uint256"
        }
      ],
      "name": "RedeemCredit",
      "type": "event"
    },
    {
      "anonymous": false,
      "inputs": [
        {
          "indexed": true,
          "internalType": "address",
          "name": "delegator",
          "type": "address"
        },
        {
          "indexed": false,
          "internalType": "uint256",
          "name": "subShares",
          "type": "uint256"
        },
        {
          "indexed": false,
          "internalType": "uint256",
          "name": "creditRedeemed",
          "type": "uint256"
        }
      ],
      "name": "RedeemShares",
      "type": "event"
    },
    {
      "anonymous": false,
      "inputs": [
        {
          "indexed": false,
          "internalType": "uint256",
          "name": "debt",
          "type": "uint256"
        },
        {
          "indexed": false,
          "internalType": "uint256",
          "name": "cash",
          "type": "uint256"
        },
        {
          "indexed": false,
          "internalType": "uint256",
          "name": "startsAt",
          "type": "uint256"
        },
        {
          "indexed": false,
          "internalType": "uint256",
          "name": "startPrice",
          "type": "uint256"
        }
      ],
      "name": "RedoAuction",
      "type": "event"
    },
    {
      "anonymous": false,
      "inputs": [
        {
          "indexed": true,
          "internalType": "address",
          "name": "owner",
          "type": "address"
        },
        {
          "indexed": false,
          "internalType": "uint256",
          "name": "amount",
          "type": "uint256"
        },
        {
          "indexed": false,
          "internalType": "uint256",
          "name": "totalDebt",
          "type": "uint256"
        }
      ],
      "name": "SettleDebt",
      "type": "event"
    },
    {
      "anonymous": false,
      "inputs": [
        {
          "indexed": false,
          "internalType": "uint256",
          "name": "debt",
          "type": "uint256"
        },
        {
          "indexed": false,
          "internalType": "uint256",
          "name": "cash",
          "type": "uint256"
        },
        {
          "indexed": false,
          "internalType": "uint256",
          "name": "startsAt",
          "type": "uint256"
        },
        {
          "indexed": false,
          "internalType": "uint256",
          "name": "startPrice",
          "type": "uint256"
        }
      ],
      "name": "StartAuction",
      "type": "event"
    },
    {
      "anonymous": false,
      "inputs": [
        {
          "indexed": true,
          "internalType": "address",
          "name": "recipient",
          "type": "address"
        },
        {
          "indexed": false,
          "internalType": "uint256",
          "name": "cashToBuy",
          "type": "uint256"
        },
        {
          "indexed": false,
          "internalType": "uint256",
          "name": "creditToPay",
          "type": "uint256"
        },
        {
          "indexed": false,
          "internalType": "uint256",
          "name": "debt",
          "type": "uint256"
        },
        {
          "indexed": false,
          "internalType": "uint256",
          "name": "cash",
          "type": "uint256"
        },
        {
          "indexed": false,
          "internalType": "uint256",
          "name": "price",
          "type": "uint256"
        }
      ],
      "name": "TakeCash",
      "type": "event"
    },
    {
      "inputs": [],
      "name": "AUCTION_DEBT_FLOOR",
      "outputs": [
        {
          "internalType": "uint256",
          "name": "",
          "type": "uint256"
        }
      ],
      "stateMutability": "view",
      "type": "function"
    },
    {
      "inputs": [],
      "name": "AUCTION_DURATION",
      "outputs": [
        {
          "internalType": "uint256",
          "name": "",
          "type": "uint256"
        }
      ],
      "stateMutability": "view",
      "type": "function"
    },
    {
      "inputs": [],
      "name": "AUCTION_END",
      "outputs": [
        {
          "internalType": "uint256",
          "name": "",
          "type": "uint256"
        }
      ],
      "stateMutability": "view",
      "type": "function"
    },
    {
      "inputs": [],
      "name": "AUCTION_MULTIPLIER",
      "outputs": [
        {
          "internalType": "uint256",
          "name": "",
          "type": "uint256"
        }
      ],
      "stateMutability": "view",
      "type": "function"
    },
    {
      "inputs": [],
      "name": "AUCTION_START",
      "outputs": [
        {
          "internalType": "uint256",
          "name": "",
          "type": "uint256"
        }
      ],
      "stateMutability": "view",
      "type": "function"
    },
    {
      "inputs": [],
      "name": "auction",
      "outputs": [
        {
          "internalType": "uint256",
          "name": "debt",
          "type": "uint256"
        },
        {
          "internalType": "uint256",
          "name": "cash",
          "type": "uint256"
        },
        {
          "internalType": "uint96",
          "name": "startsAt",
          "type": "uint96"
        },
        {
          "internalType": "uint160",
          "name": "startPrice",
          "type": "uint160"
        }
      ],
      "stateMutability": "view",
      "type": "function"
    },
    {
      "inputs": [],
      "name": "cdm",
      "outputs": [
        {
          "internalType": "contract ICDM",
          "name": "",
          "type": "address"
        }
      ],
      "stateMutability": "view",
      "type": "function"
    },
    {
      "inputs": [],
      "name": "createdAt",
      "outputs": [
        {
          "internalType": "uint256",
          "name": "",
          "type": "uint256"
        }
      ],
      "stateMutability": "view",
      "type": "function"
    },
    {
      "inputs": [],
      "name": "fixedCollateral",
      "outputs": [
        {
          "internalType": "uint256",
          "name": "",
          "type": "uint256"
        }
      ],
      "stateMutability": "view",
      "type": "function"
    },
    {
      "inputs": [],
      "name": "fixedCredit",
      "outputs": [
        {
          "internalType": "uint256",
          "name": "",
          "type": "uint256"
        }
      ],
      "stateMutability": "view",
      "type": "function"
    },
    {
      "inputs": [],
      "name": "fixedGlobalRateAccumulator",
      "outputs": [
        {
          "internalType": "uint256",
          "name": "",
          "type": "uint256"
        }
      ],
      "stateMutability": "view",
      "type": "function"
    },
    {
      "inputs": [],
      "name": "fixedTotalDebt",
      "outputs": [
        {
          "internalType": "uint256",
          "name": "",
          "type": "uint256"
        }
      ],
      "stateMutability": "view",
      "type": "function"
    },
    {
      "inputs": [],
      "name": "fixedTotalShares",
      "outputs": [
        {
          "internalType": "uint256",
          "name": "",
          "type": "uint256"
        }
      ],
      "stateMutability": "view",
      "type": "function"
    },
    {
      "inputs": [],
      "name": "getAuctionStatus",
      "outputs": [
        {
          "internalType": "bool",
          "name": "needsRedo",
          "type": "bool"
        },
        {
          "internalType": "uint256",
          "name": "price",
          "type": "uint256"
        },
        {
          "internalType": "uint256",
          "name": "cash",
          "type": "uint256"
        },
        {
          "internalType": "uint256",
          "name": "debt",
          "type": "uint256"
        }
      ],
      "stateMutability": "view",
      "type": "function"
    },
    {
      "inputs": [
        {
          "internalType": "address",
          "name": "owner",
          "type": "address"
        },
        {
          "internalType": "address",
          "name": "receiver",
          "type": "address"
        },
        {
          "internalType": "address",
          "name": "payer",
          "type": "address"
        },
        {
          "internalType": "uint256",
          "name": "subNormalDebt",
          "type": "uint256"
        }
      ],
      "name": "redeemCredit",
      "outputs": [
        {
          "internalType": "uint256",
          "name": "collateralRedeemed",
          "type": "uint256"
        }
      ],
      "stateMutability": "nonpayable",
      "type": "function"
    },
    {
      "inputs": [
        {
          "internalType": "uint256",
          "name": "subShares",
          "type": "uint256"
        }
      ],
      "name": "redeemShares",
      "outputs": [
        {
          "internalType": "uint256",
          "name": "creditRedeemed",
          "type": "uint256"
        }
      ],
      "stateMutability": "nonpayable",
      "type": "function"
    },
    {
      "inputs": [
        {
          "internalType": "address",
          "name": "delegator",
          "type": "address"
        }
      ],
      "name": "redeemedShares",
      "outputs": [
        {
          "internalType": "uint256",
          "name": "redeemedShares",
          "type": "uint256"
        }
      ],
      "stateMutability": "view",
      "type": "function"
    },
    {
      "inputs": [],
      "name": "redoAuction",
      "outputs": [],
      "stateMutability": "nonpayable",
      "type": "function"
    },
    {
      "inputs": [
        {
          "internalType": "address",
          "name": "position",
          "type": "address"
        }
      ],
      "name": "repaidNormalDebt",
      "outputs": [
        {
          "internalType": "uint256",
          "name": "repaidNormalDebt",
          "type": "uint256"
        }
      ],
      "stateMutability": "view",
      "type": "function"
    },
    {
      "inputs": [],
      "name": "startAuction",
      "outputs": [],
      "stateMutability": "nonpayable",
      "type": "function"
    },
    {
      "inputs": [
        {
          "internalType": "uint256",
          "name": "cashAmount",
          "type": "uint256"
        },
        {
          "internalType": "uint256",
          "name": "maxPrice",
          "type": "uint256"
        },
        {
          "internalType": "address",
          "name": "recipient",
          "type": "address"
        }
      ],
      "name": "takeCash",
      "outputs": [
        {
          "internalType": "uint256",
          "name": "cashToBuy",
          "type": "uint256"
        },
        {
          "internalType": "uint256",
          "name": "creditToPay",
          "type": "uint256"
        }
      ],
      "stateMutability": "nonpayable",
      "type": "function"
    },
    {
      "inputs": [],
      "name": "token",
      "outputs": [
        {
          "internalType": "contract IERC20",
          "name": "",
          "type": "address"
        }
      ],
      "stateMutability": "view",
      "type": "function"
    },
    {
      "inputs": [],
      "name": "tokenScale",
      "outputs": [
        {
          "internalType": "uint256",
          "name": "",
          "type": "uint256"
        }
      ],
      "stateMutability": "view",
      "type": "function"
    },
    {
      "inputs": [],
      "name": "totalDebt",
      "outputs": [
        {
          "internalType": "uint256",
          "name": "",
          "type": "uint256"
        }
      ],
      "stateMutability": "view",
      "type": "function"
    },
    {
      "inputs": [],
      "name": "totalShares",
      "outputs": [
        {
          "internalType": "uint256",
          "name": "",
          "type": "uint256"
        }
      ],
      "stateMutability": "view",
      "type": "function"
    },
    {
      "inputs": [],
      "name": "vault",
      "outputs": [
        {
          "internalType": "contract ICDPVault_TypeB",
          "name": "",
          "type": "address"
        }
      ],
      "stateMutability": "view",
      "type": "function"
    }
  ],
  "bytecode": {
    "object": "0x6101806040523480156200001257600080fd5b50604051620024aa380380620024aa833981016040819052620000359162000296565b42610100526001600160a01b03808416608081905282821660a05290831660c0526040805163342c02b160e01b815290516000929163342c02b19160048083019260209291908290030181865afa15801562000095573d6000803e3d6000fd5b505050506040513d601f19601f82011682018060405250810190620000bb9190620002ea565b90508060e08181525050600080856001600160a01b031663eb9534496040518163ffffffff1660e01b815260040160a060405180830381865afa15801562000107573d6000803e3d6000fd5b505050506040513d601f19601f820116820180604052508101906200012d919062000321565b9450506001600160401b031693505050816101208181525050856001600160a01b0316633a98ef396040518163ffffffff1660e01b8152600401602060405180830381865afa15801562000185573d6000803e3d6000fd5b505050506040513d601f19601f82011682018060405250810190620001ab9190620002ea565b61016081815250506000816200022b6080516001600160a01b031663842c311e6040518163ffffffff1660e01b8152600401602060405180830381865afa158015620001fb573d6000803e3d6000fd5b505050506040513d601f19601f82011682018060405250810190620002219190620002ea565b610120516200024e565b6200023791906200038f565b60028190556101405250620003b795505050505050565b6000816000190483118202156200026d5763c4c5d7f56000526004601cfd5b50670de0b6b3a764000091020490565b6001600160a01b03811681146200029357600080fd5b50565b600080600060608486031215620002ac57600080fd5b8351620002b9816200027d565b6020850151909350620002cc816200027d565b6040850151909250620002df816200027d565b809150509250925092565b600060208284031215620002fd57600080fd5b5051919050565b80516001600160401b03811681146200031c57600080fd5b919050565b600080600080600060a086880312156200033a57600080fd5b85518060070b81146200034c57600080fd5b94506200035c6020870162000304565b93506200036c6040870162000304565b92506200037c6060870162000304565b9150608086015190509295509295909350565b81810381811115620003b157634e487b7160e01b600052601160045260246000fd5b92915050565b60805160a05160c05160e05161010051610120516101405161016051611fa662000504600039600081816101780152611066015260006103ba01526000818161025001526108330152600081816103350152818161043e01528181610c6101528181610c9601528181610e59015281816111f601526117780152600081816101f80152818161051f015281816108c401528181610bcd0152610d8c01526000818161040801528181610492015281816108f201528181610d0401526118d201526000818161036601528181610eb7015281816110b30152818161135f0152818161143b015281816114db01528181611565015261160e0152600081816103e10152818161058f01528181610626015281816106b5015281816107bb01528181610f9a0152818161138c0152818161146a01528181611594015281816117ae01526118420152611fa66000f3fe608060405234801561001057600080fd5b506004361061016e5760003560e01c8063a271e525116100ce578063df65e2fb11610087578063df65e2fb14610357578063e2dfb31714610361578063f2144b2914610395578063fbca6dd5146103b5578063fbfa77cf146103dc578063fc0c546a14610403578063fc7b9c181461042a57600080fd5b8063a271e525146102e1578063adba9804146102eb578063af22bd70146102fe578063b793905d1461031e578063c161cddd14610326578063cf09e0d01461033057600080fd5b80633fa277ae1161012b5780633fa277ae1461022357806358d2be291461024b5780636b64c76914610272578063701162a91461027c57806370e40e4414610285578063789ef10a146102945780637d9f6db5146102a457600080fd5b8063083ffc6c14610173578063198d3069146101ad5780632074f152146101c05780632e93be30146101c9578063342c02b1146101f35780633a98ef391461021a575b600080fd5b61019a7f000000000000000000000000000000000000000000000000000000000000000081565b6040519081526020015b60405180910390f35b61019a6101bb366004611c65565b610433565b61019a60015481565b6101d1610988565b60408051941515855260208501939093529183015260608201526080016101a4565b61019a7f000000000000000000000000000000000000000000000000000000000000000081565b61019a60035481565b610236610231366004611cb6565b610a09565b604080519283526020830191909152016101a4565b61019a7f000000000000000000000000000000000000000000000000000000000000000081565b61027a610c58565b005b61019a60005481565b61019a670f43fc2c04ee000081565b61019a68056bc75e2d6310000081565b6006546007546008546102d19291906001600160601b03811690600160601b90046001600160a01b031684565b6040516101a49493929190611cef565b61019a6201fa4081565b61019a6102f9366004611d1c565b610e4e565b61019a61030c366004611d35565b60056020526000908152604090205481565b61027a611162565b61019a6212750081565b61019a7f000000000000000000000000000000000000000000000000000000000000000081565b61019a6224ea0081565b6103887f000000000000000000000000000000000000000000000000000000000000000081565b6040516101a49190611d52565b61019a6103a3366004611d35565b60046020526000908152604090205481565b61019a7f000000000000000000000000000000000000000000000000000000000000000081565b6103887f000000000000000000000000000000000000000000000000000000000000000081565b6103887f000000000000000000000000000000000000000000000000000000000000000081565b61019a60025481565b6000610462621275007f0000000000000000000000000000000000000000000000000000000000000000611d7c565b4210610481576040516357213c3b60e11b815260040160405180910390fd5b60005460000361056a5760006105437f00000000000000000000000000000000000000000000000000000000000000006001600160a01b03166370a08231306040518263ffffffff1660e01b81526004016104dc9190611d52565b602060405180830381865afa1580156104f9573d6000803e3d6000fd5b505050506040513d601f19601f8201168201806040525081019061051d9190611d8f565b7f00000000000000000000000000000000000000000000000000000000000000006112c8565b9050806000036105665760405163335e957560e11b815260040160405180910390fd5b6000555b60405163cde6804160e01b81526001600160a01b0386811660048301523360248301527f0000000000000000000000000000000000000000000000000000000000000000169063cde6804190604401602060405180830381865afa1580156105d6573d6000803e3d6000fd5b505050506040513d601f19601f820116820180604052508101906105fa9190611da8565b1580610693575060405163cde6804160e01b81526001600160a01b0384811660048301523360248301527f0000000000000000000000000000000000000000000000000000000000000000169063cde6804190604401602060405180830381865afa15801561066d573d6000803e3d6000fd5b505050506040513d601f19601f820116820180604052508101906106919190611da8565b155b156106b057604051626d66e160e31b815260040160405180910390fd5b6000807f00000000000000000000000000000000000000000000000000000000000000006001600160a01b03166355f57510886040518263ffffffff1660e01b81526004016106ff9190611d52565b6040805180830381865afa15801561071b573d6000803e3d6000fd5b505050506040513d601f19601f8201168201806040525081019061073f9190611dca565b6001600160a01b0389166000908152600460205260408120549294509092509061076a908690611d7c565b90508181111561078d576040516354d3911d60e01b815260040160405180910390fd5b6001600160a01b038089166000908152600460208190526040808320859055516336f9acc760e21b815291927f0000000000000000000000000000000000000000000000000000000000000000169163dbe6b31c916107ee918d9101611d52565b606060405180830381865afa15801561080b573d6000803e3d6000fd5b505050506040513d601f19601f8201168201806040525081019061082f9190611e0b565b92507f00000000000000000000000000000000000000000000000000000000000000009150600090506001600160801b03831661086c8684611317565b6108769190611e54565b90506000836001600160801b031661088e8a85611317565b6108989190611e54565b90506108a381611345565b816108ae8883611e67565b6108b89190611e7e565b97506109198b6108e88a7f0000000000000000000000000000000000000000000000000000000000000000611317565b6001600160a01b037f00000000000000000000000000000000000000000000000000000000000000001691906116d9565b896001600160a01b03168b6001600160a01b03168d6001600160a01b03167f200a67c1785c909880e875e8e5987f577746ae20a8602cf4e2c9f17b4920feb08c8c604051610971929190918252602082015260400190565b60405180910390a450505050505050949350505050565b60408051608081018252600654815260075460208201526008546001600160601b038116928201839052600160601b90046001600160a01b03166060820181905260009283928392839283916109de9190611730565b8351909650909150158015906109f15750805b95508160200151935081600001519250505090919293565b6040805160808101825260065480825260075460208301526008546001600160601b03811693830193909352600160601b9092046001600160a01b031660608201526000918291908203610a70576040516307777aab60e31b815260040160405180910390fd5b600080610a8e836040015184606001516001600160a01b0316611730565b915091508115610ab1576040516306c5322160e01b815260040160405180910390fd5b80871015610ad2576040516314c626ff60e01b815260040160405180910390fd5b602083015183518982118a83180282189650610aee8784611317565b955080861115610b0c57809550610b0586846112c8565b9650610b76565b8086108015610b1a57508187105b15610b765768056bc75e2d631000008682031015610b765768056bc75e2d631000008111610b5b576040516302df684560e31b815260040160405180910390fd5b68056bc75e2d6310000081039550610b7386846112c8565b96505b859003808552908690036020850181905260068290556007819055604085015160608601516001600160a01b0316600160601b026001600160601b039091161760085590610bc386611345565b610bf1886108e8897f0000000000000000000000000000000000000000000000000000000000000000611317565b604080518881526020810188905290810182905260608101839052608081018490526001600160a01b038916907f9c000f5cca8124c2ee7154ef6aaf68000fb099cd954d1418a7a155244abf6cef9060a00160405180910390a25050505050935093915050565b610c85621275007f0000000000000000000000000000000000000000000000000000000000000000611d7c565b421080610cbe5750610cba6224ea007f0000000000000000000000000000000000000000000000000000000000000000611d7c565b4210155b15610cdc57604051637f73964760e01b815260040160405180910390fd5b60065415610cfd5760405163271675f360e11b815260040160405180910390fd5b6000610d4e7f00000000000000000000000000000000000000000000000000000000000000006001600160a01b03166370a08231306040518263ffffffff1660e01b81526004016104dc9190611d52565b905080600003610d7157604051637ba1705160e01b815260040160405180910390fd5b600060405180608001604052806002548152602001610db0847f00000000000000000000000000000000000000000000000000000000000000006112c8565b8152602001426001600160601b03168152602001610dd0846002546117a9565b6001600160a01b0390811690915281516006819055602083015160078190556040808501516060860151948516600160601b026001600160601b0382161760085590519495507f0c4e66bf3dee47de60eef6350d1cf2e3864dcb06bbedf6b0092632b3708b552694610e429490611cef565b60405180910390a15050565b6000610e7d6224ea007f0000000000000000000000000000000000000000000000000000000000000000611d7c565b421015610e9d57604051633a39372760e21b815260040160405180910390fd5b604051632f2e037160e11b81526000906001600160a01b037f00000000000000000000000000000000000000000000000000000000000000001690635e5c06e290610eec903090600401611d52565b6040805180830381865afa158015610f08573d6000803e3d6000fd5b505050506040513d601f19601f82011682018060405250810190610f2c9190611dca565b506001549091506000819003610f5f57610f458261198f565b600181905590506000819003610f5f575060009392505050565b60008213610f8057604051635e77dbbf60e11b815260040160405180910390fd5b60405163673e156160e11b81526000906001600160a01b037f0000000000000000000000000000000000000000000000000000000000000000169063ce7c2ac290610fcf903390600401611d52565b602060405180830381865afa158015610fec573d6000803e3d6000fd5b505050506040513d601f19601f820116820180604052508101906110109190611d8f565b336000908152600560205260408120549192509061102f908790611d7c565b9050818111156110525760405163dd3106bf60e01b815260040160405180910390fd5b3360009081526005602052604090208190557f000000000000000000000000000000000000000000000000000000000000000061108f8488611e67565b6110999190611e7e565b604051632b0b3a6f60e21b81529095506001600160a01b037f0000000000000000000000000000000000000000000000000000000000000000169063ac2ce9bc906110ec90309033908a90600401611ea0565b600060405180830381600087803b15801561110657600080fd5b505af115801561111a573d6000803e3d6000fd5b505060408051898152602081018990523393507fef7fb21fed1701a6c82b78d78bad1ddab67e41025c2d5078a1be2a3a238b4e6292500160405180910390a250505050919050565b6040805160808101825260065480825260075460208301526008546001600160601b03811693830193909352600160601b9092046001600160a01b03166060820152906000036111c55760405163d1e8046b60e01b815260040160405180910390fd5b60006111e2826040015183606001516001600160a01b0316611730565b50905080158061121e575061121a6224ea007f0000000000000000000000000000000000000000000000000000000000000000611d7c565b4210155b1561123c576040516313a4264d60e01b815260040160405180910390fd5b6001600160601b03421660408301526020820151825161125c91906117a9565b6001600160a01b0316606083018190528251600681905560208401516007819055604080860151600160601b85026001600160601b0382161760085590517fa0b6cef9457cecb7da852e3d68675a2f7eecc05e4f6df28eeecde9e8e7cbfc6a94610e4294939291611cef565b60007812725dd1d243aba0e75fe645cc4873f9e65afe688c928e1f218311670de0b6b3a7640000021582026113055763bcbede656000526004601cfd5b50670de0b6b3a7640000919091020490565b6000816000190483118202156113355763c4c5d7f56000526004601cfd5b50670de0b6b3a764000091020490565b604051632f2e037160e11b81526000906001600160a01b037f00000000000000000000000000000000000000000000000000000000000000001690635e5c06e2906113b4907f000000000000000000000000000000000000000000000000000000000000000090600401611d52565b6040805180830381865afa1580156113d0573d6000803e3d6000fd5b505050506040513d601f19601f820116820180604052508101906113f49190611dca565b50905060008112156115f757600061140b82611ec4565b90508083111561154e5760006114218285611e54565b604051632b0b3a6f60e21b81529091506001600160a01b037f0000000000000000000000000000000000000000000000000000000000000000169063ac2ce9bc906114949033907f0000000000000000000000000000000000000000000000000000000000000000908790600401611ea0565b600060405180830381600087803b1580156114ae57600080fd5b505af11580156114c2573d6000803e3d6000fd5b5050604051632b0b3a6f60e21b81526001600160a01b037f000000000000000000000000000000000000000000000000000000000000000016925063ac2ce9bc915061151690339030908690600401611ea0565b600060405180830381600087803b15801561153057600080fd5b505af1158015611544573d6000803e3d6000fd5b50505050506115f1565b604051632b0b3a6f60e21b81526001600160a01b037f0000000000000000000000000000000000000000000000000000000000000000169063ac2ce9bc906115be9033907f0000000000000000000000000000000000000000000000000000000000000000908890600401611ea0565b600060405180830381600087803b1580156115d857600080fd5b505af11580156115ec573d6000803e3d6000fd5b505050505b5061167a565b604051632b0b3a6f60e21b81526001600160a01b037f0000000000000000000000000000000000000000000000000000000000000000169063ac2ce9bc9061164790339030908790600401611ea0565b600060405180830381600087803b15801561166157600080fd5b505af1158015611675573d6000803e3d6000fd5b505050505b816002600082825461168c9190611e54565b909155505060025460405133917f9393fd280611d3f6f785b63f3dfd232699aec517866c2b8c3ded3aa095fa50a4916116cd91868252602082015260400190565b60405180910390a25050565b604080516001600160a01b038416602482015260448082018490528251808303909101815260649091019091526020810180516001600160e01b031663a9059cbb60e01b17905261172b9084906119a6565b505050565b60008061174f8361174a6001600160601b03871642611e54565b611a80565b90506201fa406117686001600160601b03861642611e54565b11806117a0575061179c6224ea007f0000000000000000000000000000000000000000000000000000000000000000611d7c565b4210155b91509250929050565b6000807f00000000000000000000000000000000000000000000000000000000000000006001600160a01b0316637dc0d1d06040518163ffffffff1660e01b8152600401602060405180830381865afa15801561180a573d6000803e3d6000fd5b505050506040513d601f19601f8201168201806040525081019061182e9190611ee0565b90506001600160a01b0381163b15611968577f00000000000000000000000000000000000000000000000000000000000000006001600160a01b0316637dc0d1d06040518163ffffffff1660e01b8152600401602060405180830381865afa15801561189e573d6000803e3d6000fd5b505050506040513d601f19601f820116820180604052508101906118c29190611ee0565b6001600160a01b0316632cbf04c17f00000000000000000000000000000000000000000000000000000000000000006040518263ffffffff1660e01b815260040161190d9190611d52565b6020604051808303816000875af1925050508015611948575060408051601f3d908101601f1916820190925261194591810190611d8f565b60015b156119685761195f81670f43fc2c04ee0000611317565b92505050611989565b8361197b670f43fc2c04ee000085611e67565b6119859190611e7e565b9150505b92915050565b600080821261199e5781611989565b600092915050565b60006119fb826040518060400160405280602081526020017f5361666545524332303a206c6f772d6c6576656c2063616c6c206661696c6564815250856001600160a01b0316611abd9092919063ffffffff16565b9050805160001480611a1c575080806020019051810190611a1c9190611da8565b61172b5760405162461bcd60e51b815260206004820152602a60248201527f5361666545524332303a204552433230206f7065726174696f6e20646964206e6044820152691bdd081cdd58d8d9595960b21b60648201526084015b60405180910390fd5b60006201fa408210611a9457506000611989565b611ab683611ab1611aa8856201fa40611e54565b6201fa406112c8565b611317565b9392505050565b6060611acc8484600085611ad4565b949350505050565b606082471015611b355760405162461bcd60e51b815260206004820152602660248201527f416464726573733a20696e73756666696369656e742062616c616e636520666f6044820152651c8818d85b1b60d21b6064820152608401611a77565b600080866001600160a01b03168587604051611b519190611f21565b60006040518083038185875af1925050503d8060008114611b8e576040519150601f19603f3d011682016040523d82523d6000602084013e611b93565b606091505b5091509150611ba487838387611baf565b979650505050505050565b60608315611c1e578251600003611c17576001600160a01b0385163b611c175760405162461bcd60e51b815260206004820152601d60248201527f416464726573733a2063616c6c20746f206e6f6e2d636f6e74726163740000006044820152606401611a77565b5081611acc565b611acc8383815115611c335781518083602001fd5b8060405162461bcd60e51b8152600401611a779190611f3d565b6001600160a01b0381168114611c6257600080fd5b50565b60008060008060808587031215611c7b57600080fd5b8435611c8681611c4d565b93506020850135611c9681611c4d565b92506040850135611ca681611c4d565b9396929550929360600135925050565b600080600060608486031215611ccb57600080fd5b83359250602084013591506040840135611ce481611c4d565b809150509250925092565b93845260208401929092526001600160601b031660408301526001600160a01b0316606082015260800190565b600060208284031215611d2e57600080fd5b5035919050565b600060208284031215611d4757600080fd5b8135611ab681611c4d565b6001600160a01b0391909116815260200190565b634e487b7160e01b600052601160045260246000fd5b8082018082111561198957611989611d66565b600060208284031215611da157600080fd5b5051919050565b600060208284031215611dba57600080fd5b81518015158114611ab657600080fd5b60008060408385031215611ddd57600080fd5b505080516020909101519092909150565b805167ffffffffffffffff81168114611e0657600080fd5b919050565b600080600060608486031215611e2057600080fd5b611e2984611dee565b9250611e3760208501611dee565b60408501519092506001600160801b0381168114611ce457600080fd5b8181038181111561198957611989611d66565b808202811582820484141761198957611989611d66565b600082611e9b57634e487b7160e01b600052601260045260246000fd5b500490565b6001600160a01b039384168152919092166020820152604081019190915260600190565b6000600160ff1b8201611ed957611ed9611d66565b5060000390565b600060208284031215611ef257600080fd5b8151611ab681611c4d565b60005b83811015611f18578181015183820152602001611f00565b50506000910152565b60008251611f33818460208701611efd565b9190910192915050565b6020815260008251806020840152611f5c816040850160208701611efd565b601f01601f1916919091016040019291505056fea26469706673582212208a4157365a874b6d915996bf3694c4e506a970ba07b15687e11fcfd594489c2864736f6c63430008130033",
    "linkReferences": {}
  },
  "methodIdentifiers": {
    "AUCTION_DEBT_FLOOR()": "789ef10a",
    "AUCTION_DURATION()": "a271e525",
    "AUCTION_END()": "df65e2fb",
    "AUCTION_MULTIPLIER()": "70e40e44",
    "AUCTION_START()": "c161cddd",
    "auction()": "7d9f6db5",
    "cdm()": "e2dfb317",
    "createdAt()": "cf09e0d0",
    "fixedCollateral()": "701162a9",
    "fixedCredit()": "2074f152",
    "fixedGlobalRateAccumulator()": "58d2be29",
    "fixedTotalDebt()": "fbca6dd5",
    "fixedTotalShares()": "083ffc6c",
    "getAuctionStatus()": "2e93be30",
    "redeemCredit(address,address,address,uint256)": "198d3069",
    "redeemShares(uint256)": "adba9804",
    "redeemedShares(address)": "af22bd70",
    "redoAuction()": "b793905d",
    "repaidNormalDebt(address)": "f2144b29",
    "startAuction()": "6b64c769",
    "takeCash(uint256,uint256,address)": "3fa277ae",
    "token()": "fc0c546a",
    "tokenScale()": "342c02b1",
    "totalDebt()": "fc7b9c18",
    "totalShares()": "3a98ef39",
    "vault()": "fbfa77cf"
  },
  "id": 89
}