{
  "abi": [
    {
      "inputs": [
        {
          "internalType": "address",
          "name": "factory",
          "type": "address"
        }
      ],
      "stateMutability": "nonpayable",
      "type": "constructor"
    },
    {
      "inputs": [],
      "name": "CDPVault__addLimitPriceTick_invalidPriceTickOrder",
      "type": "error"
    },
    {
      "inputs": [],
      "name": "CDPVault__addLimitPriceTick_limitPriceTickOutOfRange",
      "type": "error"
    },
    {
      "inputs": [],
      "name": "CDPVault__calculateAssetsAndLiabilities_insufficientAssets",
      "type": "error"
    },
    {
      "inputs": [],
      "name": "CDPVault__cancelLimitOrder_limitOrderDoesNotExist",
      "type": "error"
    },
    {
      "inputs": [],
      "name": "CDPVault__checkEmergencyMode_entered",
      "type": "error"
    },
    {
      "inputs": [],
      "name": "CDPVault__claimUndelegatedCredit_epochNotClaimable",
      "type": "error"
    },
    {
      "inputs": [],
      "name": "CDPVault__claimUndelegatedCredit_epochNotFixed",
      "type": "error"
    },
    {
      "inputs": [],
      "name": "CDPVault__createLimitOrder_limitOrderAlreadyExists",
      "type": "error"
    },
    {
      "inputs": [],
      "name": "CDPVault__createLimitOrder_limitOrderFloor",
      "type": "error"
    },
    {
      "inputs": [],
      "name": "CDPVault__createLimitOrder_limitPriceTickNotActive",
      "type": "error"
    },
    {
      "inputs": [],
      "name": "CDPVault__delegateCredit_creditAmountTooSmall",
      "type": "error"
    },
    {
      "inputs": [],
      "name": "CDPVault__exchange_notEnoughExchanged",
      "type": "error"
    },
    {
      "inputs": [],
      "name": "CDPVault__liquidatePosition_notUnsafe",
      "type": "error"
    },
    {
      "inputs": [],
      "name": "CDPVault__liquidatePositions_argLengthMismatch",
      "type": "error"
    },
    {
      "inputs": [],
      "name": "CDPVault__modifyCollateralAndDebt_maxUtilizationRatio",
      "type": "error"
    },
    {
      "inputs": [],
      "name": "CDPVault__modifyCollateralAndDebt_noPermission",
      "type": "error"
    },
    {
      "inputs": [],
      "name": "CDPVault__modifyCollateralAndDebt_notSafe",
      "type": "error"
    },
    {
      "inputs": [],
      "name": "CDPVault__modifyPosition_debtFloor",
      "type": "error"
    },
    {
      "inputs": [],
      "name": "CDPVault__setParameter_unrecognizedParameter",
      "type": "error"
    },
    {
      "inputs": [],
      "name": "IdIsZero",
      "type": "error"
    },
    {
      "inputs": [],
      "name": "InterestRateModel__setBaseRate_invalidBaseRate",
      "type": "error"
    },
    {
      "inputs": [],
      "name": "ItemInList",
      "type": "error"
    },
    {
      "inputs": [],
      "name": "ItemNotInList",
      "type": "error"
    },
    {
      "inputs": [],
      "name": "Math__add_overflow_signed",
      "type": "error"
    },
    {
      "inputs": [],
      "name": "Math__mul_overflow_signed",
      "type": "error"
    },
    {
      "inputs": [],
      "name": "Math__sub_overflow_signed",
      "type": "error"
    },
    {
      "inputs": [],
      "name": "Math__toInt256_overflow",
      "type": "error"
    },
    {
      "inputs": [],
      "name": "Math__toUint64_overflow",
      "type": "error"
    },
    {
      "inputs": [],
      "name": "Permission__modifyPermission_notPermitted",
      "type": "error"
    },
    {
      "anonymous": false,
      "inputs": [
        {
          "indexed": true,
          "internalType": "uint256",
          "name": "limitPriceTick",
          "type": "uint256"
        }
      ],
      "name": "AddLimitPriceTick",
      "type": "event"
    },
    {
      "anonymous": false,
      "inputs": [
        {
          "indexed": true,
          "internalType": "uint256",
          "name": "limitPriceTick",
          "type": "uint256"
        },
        {
          "indexed": true,
          "internalType": "address",
          "name": "maker",
          "type": "address"
        }
      ],
      "name": "CancelLimitOrder",
      "type": "event"
    },
    {
      "anonymous": false,
      "inputs": [
        {
          "indexed": true,
          "internalType": "address",
          "name": "delegator",
          "type": "address"
        },
        {
          "indexed": false,
          "internalType": "uint256",
          "name": "sharesRedeemed",
          "type": "uint256"
        },
        {
          "indexed": false,
          "internalType": "uint256",
          "name": "creditClaimed",
          "type": "uint256"
        }
      ],
      "name": "ClaimUndelegatedCredit",
      "type": "event"
    },
    {
      "anonymous": false,
      "inputs": [
        {
          "indexed": true,
          "internalType": "uint256",
          "name": "limitPriceTick",
          "type": "uint256"
        },
        {
          "indexed": true,
          "internalType": "address",
          "name": "maker",
          "type": "address"
        }
      ],
      "name": "CreateLimitOrder",
      "type": "event"
    },
    {
      "anonymous": false,
      "inputs": [
        {
          "indexed": true,
          "internalType": "address",
          "name": "delegator",
          "type": "address"
        },
        {
          "indexed": false,
          "internalType": "uint256",
          "name": "creditDelegated",
          "type": "uint256"
        },
        {
          "indexed": false,
          "internalType": "uint256",
          "name": "sharesIssued",
          "type": "uint256"
        }
      ],
      "name": "DelegateCredit",
      "type": "event"
    },
    {
      "anonymous": false,
      "inputs": [
        {
          "indexed": true,
          "internalType": "address",
          "name": "redeemer",
          "type": "address"
        },
        {
          "indexed": false,
          "internalType": "uint256",
          "name": "creditExchanged",
          "type": "uint256"
        },
        {
          "indexed": false,
          "internalType": "uint256",
          "name": "collateralRedeemed",
          "type": "uint256"
        }
      ],
      "name": "Exchange",
      "type": "event"
    },
    {
      "anonymous": false,
      "inputs": [
        {
          "indexed": true,
          "internalType": "uint256",
          "name": "limitPriceTick",
          "type": "uint256"
        },
        {
          "indexed": true,
          "internalType": "uint256",
          "name": "limitOrderId",
          "type": "uint256"
        },
        {
          "indexed": false,
          "internalType": "uint256",
          "name": "collateralRedeemed",
          "type": "uint256"
        },
        {
          "indexed": false,
          "internalType": "uint256",
          "name": "creditExchanged",
          "type": "uint256"
        }
      ],
      "name": "ExecuteLimitOrder",
      "type": "event"
    },
    {
      "anonymous": false,
      "inputs": [
        {
          "indexed": true,
          "internalType": "address",
          "name": "position",
          "type": "address"
        },
        {
          "indexed": false,
          "internalType": "uint256",
          "name": "collateralReleased",
          "type": "uint256"
        },
        {
          "indexed": false,
          "internalType": "uint256",
          "name": "normalDebtRepaid",
          "type": "uint256"
        },
        {
          "indexed": true,
          "internalType": "address",
          "name": "liquidator",
          "type": "address"
        }
      ],
      "name": "LiquidatePosition",
      "type": "event"
    },
    {
      "anonymous": false,
      "inputs": [
        {
          "indexed": true,
          "internalType": "address",
          "name": "position",
          "type": "address"
        },
        {
          "indexed": true,
          "internalType": "address",
          "name": "collateralizer",
          "type": "address"
        },
        {
          "indexed": true,
          "internalType": "address",
          "name": "creditor",
          "type": "address"
        },
        {
          "indexed": false,
          "internalType": "int256",
          "name": "deltaCollateral",
          "type": "int256"
        },
        {
          "indexed": false,
          "internalType": "int256",
          "name": "deltaNormalDebt",
          "type": "int256"
        }
      ],
      "name": "ModifyCollateralAndDebt",
      "type": "event"
    },
    {
      "anonymous": false,
      "inputs": [
        {
          "indexed": false,
          "internalType": "address",
          "name": "authorizer",
          "type": "address"
        },
        {
          "indexed": false,
          "internalType": "address",
          "name": "owner",
          "type": "address"
        },
        {
          "indexed": false,
          "internalType": "address",
          "name": "caller",
          "type": "address"
        },
        {
          "indexed": false,
          "internalType": "bool",
          "name": "grant",
          "type": "bool"
        }
      ],
      "name": "ModifyPermission",
      "type": "event"
    },
    {
      "anonymous": false,
      "inputs": [
        {
          "indexed": true,
          "internalType": "address",
          "name": "position",
          "type": "address"
        },
        {
          "indexed": false,
          "internalType": "int256",
          "name": "deltaCollateral",
          "type": "int256"
        },
        {
          "indexed": false,
          "internalType": "int256",
          "name": "deltaNormalDebt",
          "type": "int256"
        },
        {
          "indexed": false,
          "internalType": "uint256",
          "name": "totalNormalDebt",
          "type": "uint256"
        }
      ],
      "name": "ModifyPosition",
      "type": "event"
    },
    {
      "anonymous": false,
      "inputs": [
        {
          "indexed": false,
          "internalType": "address",
          "name": "account",
          "type": "address"
        }
      ],
      "name": "Paused",
      "type": "event"
    },
    {
      "anonymous": false,
      "inputs": [
        {
          "indexed": true,
          "internalType": "uint256",
          "name": "limitPriceTick",
          "type": "uint256"
        }
      ],
      "name": "RemoveLimitPriceTick",
      "type": "event"
    },
    {
      "anonymous": false,
      "inputs": [
        {
          "indexed": true,
          "internalType": "bytes32",
          "name": "role",
          "type": "bytes32"
        },
        {
          "indexed": true,
          "internalType": "bytes32",
          "name": "previousAdminRole",
          "type": "bytes32"
        },
        {
          "indexed": true,
          "internalType": "bytes32",
          "name": "newAdminRole",
          "type": "bytes32"
        }
      ],
      "name": "RoleAdminChanged",
      "type": "event"
    },
    {
      "anonymous": false,
      "inputs": [
        {
          "indexed": true,
          "internalType": "bytes32",
          "name": "role",
          "type": "bytes32"
        },
        {
          "indexed": true,
          "internalType": "address",
          "name": "account",
          "type": "address"
        },
        {
          "indexed": true,
          "internalType": "address",
          "name": "sender",
          "type": "address"
        }
      ],
      "name": "RoleGranted",
      "type": "event"
    },
    {
      "anonymous": false,
      "inputs": [
        {
          "indexed": true,
          "internalType": "bytes32",
          "name": "role",
          "type": "bytes32"
        },
        {
          "indexed": true,
          "internalType": "address",
          "name": "account",
          "type": "address"
        },
        {
          "indexed": true,
          "internalType": "address",
          "name": "sender",
          "type": "address"
        }
      ],
      "name": "RoleRevoked",
      "type": "event"
    },
    {
      "anonymous": false,
      "inputs": [
        {
          "indexed": false,
          "internalType": "int64",
          "name": "baseRate",
          "type": "int64"
        }
      ],
      "name": "SetBaseRate",
      "type": "event"
    },
    {
      "anonymous": false,
      "inputs": [],
      "name": "SetGlobalIRS",
      "type": "event"
    },
    {
      "anonymous": false,
      "inputs": [
        {
          "indexed": true,
          "internalType": "bytes32",
          "name": "parameter",
          "type": "bytes32"
        },
        {
          "indexed": false,
          "internalType": "uint256",
          "name": "data",
          "type": "uint256"
        }
      ],
      "name": "SetParameter",
      "type": "event"
    },
    {
      "anonymous": false,
      "inputs": [
        {
          "indexed": false,
          "internalType": "address",
          "name": "owner",
          "type": "address"
        },
        {
          "indexed": false,
          "internalType": "address",
          "name": "agent",
          "type": "address"
        },
        {
          "indexed": false,
          "internalType": "bool",
          "name": "grant",
          "type": "bool"
        }
      ],
      "name": "SetPermittedAgent",
      "type": "event"
    },
    {
      "anonymous": false,
      "inputs": [
        {
          "indexed": false,
          "internalType": "address",
          "name": "position",
          "type": "address"
        }
      ],
      "name": "SetPositionIRS",
      "type": "event"
    },
    {
      "anonymous": false,
      "inputs": [
        {
          "indexed": true,
          "internalType": "address",
          "name": "delegator",
          "type": "address"
        },
        {
          "indexed": false,
          "internalType": "uint256",
          "name": "shareAmount",
          "type": "uint256"
        },
        {
          "indexed": false,
          "internalType": "uint256",
          "name": "estimatedClaim",
          "type": "uint256"
        },
        {
          "indexed": true,
          "internalType": "uint256",
          "name": "epoch",
          "type": "uint256"
        },
        {
          "indexed": false,
          "internalType": "uint256",
          "name": "claimableAtEpoch",
          "type": "uint256"
        }
      ],
      "name": "UndelegateCredit",
      "type": "event"
    },
    {
      "anonymous": false,
      "inputs": [
        {
          "indexed": false,
          "internalType": "address",
          "name": "account",
          "type": "address"
        }
      ],
      "name": "Unpaused",
      "type": "event"
    },
    {
      "inputs": [],
      "name": "DEFAULT_ADMIN_ROLE",
      "outputs": [
        {
          "internalType": "bytes32",
          "name": "",
          "type": "bytes32"
        }
      ],
      "stateMutability": "view",
      "type": "function"
    },
    {
      "inputs": [],
      "name": "EPOCH_DURATION",
      "outputs": [
        {
          "internalType": "uint256",
          "name": "",
          "type": "uint256"
        }
      ],
      "stateMutability": "view",
      "type": "function"
    },
    {
      "inputs": [],
      "name": "EPOCH_FIX_DELAY",
      "outputs": [
        {
          "internalType": "uint256",
          "name": "",
          "type": "uint256"
        }
      ],
      "stateMutability": "view",
      "type": "function"
    },
    {
      "inputs": [],
      "name": "EPOCH_FIX_TIMEOUT",
      "outputs": [
        {
          "internalType": "uint256",
          "name": "",
          "type": "uint256"
        }
      ],
      "stateMutability": "view",
      "type": "function"
    },
    {
      "inputs": [
        {
          "internalType": "uint256",
          "name": "priceTick",
          "type": "uint256"
        }
      ],
      "name": "activeLimitPriceTicks",
      "outputs": [
        {
          "internalType": "bool",
          "name": "isActive",
          "type": "bool"
        }
      ],
      "stateMutability": "view",
      "type": "function"
    },
    {
      "inputs": [
        {
          "internalType": "uint256",
          "name": "limitPriceTick",
          "type": "uint256"
        },
        {
          "internalType": "uint256",
          "name": "nextLimitPriceTick",
          "type": "uint256"
        }
      ],
      "name": "addLimitPriceTick",
      "outputs": [],
      "stateMutability": "nonpayable",
      "type": "function"
    },
    {
      "inputs": [],
      "name": "buffer",
      "outputs": [
        {
          "internalType": "contract IBuffer",
          "name": "",
          "type": "address"
        }
      ],
      "stateMutability": "view",
      "type": "function"
    },
    {
      "inputs": [
        {
          "internalType": "uint256",
          "name": "priceTick",
          "type": "uint256"
        }
      ],
      "name": "calculateRebateFactorForPriceTick",
      "outputs": [
        {
          "internalType": "uint64",
          "name": "",
          "type": "uint64"
        }
      ],
      "stateMutability": "view",
      "type": "function"
    },
    {
      "inputs": [],
      "name": "cancelLimitOrder",
      "outputs": [],
      "stateMutability": "nonpayable",
      "type": "function"
    },
    {
      "inputs": [
        {
          "internalType": "address",
          "name": "owner",
          "type": "address"
        }
      ],
      "name": "cash",
      "outputs": [
        {
          "internalType": "uint256",
          "name": "balance",
          "type": "uint256"
        }
      ],
      "stateMutability": "view",
      "type": "function"
    },
    {
      "inputs": [],
      "name": "cdm",
      "outputs": [
        {
          "internalType": "contract ICDM",
          "name": "",
          "type": "address"
        }
      ],
      "stateMutability": "view",
      "type": "function"
    },
    {
      "inputs": [],
      "name": "claimFees",
      "outputs": [
        {
          "internalType": "uint256",
          "name": "feesClaimed",
          "type": "uint256"
        }
      ],
      "stateMutability": "nonpayable",
      "type": "function"
    },
    {
      "inputs": [
        {
          "internalType": "uint256",
          "name": "claimForEpoch",
          "type": "uint256"
        }
      ],
      "name": "claimUndelegatedCredit",
      "outputs": [
        {
          "internalType": "uint256",
          "name": "creditAmount",
          "type": "uint256"
        }
      ],
      "stateMutability": "nonpayable",
      "type": "function"
    },
    {
      "inputs": [
        {
          "internalType": "uint256",
          "name": "limitPriceTick",
          "type": "uint256"
        }
      ],
      "name": "createLimitOrder",
      "outputs": [],
      "stateMutability": "nonpayable",
      "type": "function"
    },
    {
      "inputs": [],
      "name": "creditWithholder",
      "outputs": [
        {
          "internalType": "address",
          "name": "",
          "type": "address"
        }
      ],
      "stateMutability": "view",
      "type": "function"
    },
    {
      "inputs": [
        {
          "internalType": "uint256",
          "name": "creditAmount",
          "type": "uint256"
        }
      ],
      "name": "delegateCredit",
      "outputs": [
        {
          "internalType": "uint256",
          "name": "sharesAmount",
          "type": "uint256"
        }
      ],
      "stateMutability": "nonpayable",
      "type": "function"
    },
    {
      "inputs": [
        {
          "internalType": "address",
          "name": "to",
          "type": "address"
        },
        {
          "internalType": "uint256",
          "name": "amount",
          "type": "uint256"
        }
      ],
      "name": "deposit",
      "outputs": [
        {
          "internalType": "uint256",
          "name": "cashAmount",
          "type": "uint256"
        }
      ],
      "stateMutability": "nonpayable",
      "type": "function"
    },
    {
      "inputs": [],
      "name": "enterEmergencyMode",
      "outputs": [],
      "stateMutability": "nonpayable",
      "type": "function"
    },
    {
      "inputs": [
        {
          "internalType": "uint256",
          "name": "epoch",
          "type": "uint256"
        }
      ],
      "name": "epochs",
      "outputs": [
        {
          "internalType": "uint256",
          "name": "totalCreditClaimable",
          "type": "uint256"
        },
        {
          "internalType": "uint256",
          "name": "totalCreditWithheld",
          "type": "uint256"
        },
        {
          "internalType": "uint256",
          "name": "totalSharesQueued",
          "type": "uint256"
        },
        {
          "internalType": "uint128",
          "name": "claimRatio",
          "type": "uint128"
        },
        {
          "internalType": "uint128",
          "name": "estimatedCreditClaimPerShare",
          "type": "uint128"
        }
      ],
      "stateMutability": "view",
      "type": "function"
    },
    {
      "inputs": [
        {
          "internalType": "uint256",
          "name": "upperLimitPriceTick",
          "type": "uint256"
        },
        {
          "internalType": "uint256",
          "name": "creditToExchange",
          "type": "uint256"
        }
      ],
      "name": "exchange",
      "outputs": [
        {
          "internalType": "uint256",
          "name": "creditExchanged",
          "type": "uint256"
        },
        {
          "internalType": "uint256",
          "name": "collateralExchanged",
          "type": "uint256"
        }
      ],
      "stateMutability": "nonpayable",
      "type": "function"
    },
    {
      "inputs": [
        {
          "internalType": "uint256",
          "name": "upperLimitPriceTick",
          "type": "uint256"
        },
        {
          "internalType": "uint256",
          "name": "creditToExchange",
          "type": "uint256"
        }
      ],
      "name": "exchangePreview",
      "outputs": [
        {
          "internalType": "uint256",
          "name": "creditExchanged",
          "type": "uint256"
        },
        {
          "internalType": "uint256",
          "name": "collateralExchanged",
          "type": "uint256"
        }
      ],
      "stateMutability": "nonpayable",
      "type": "function"
    },
    {
      "inputs": [],
      "name": "getCurrentEpoch",
      "outputs": [
        {
          "internalType": "uint256",
          "name": "currentEpoch",
          "type": "uint256"
        }
      ],
      "stateMutability": "view",
      "type": "function"
    },
    {
      "inputs": [],
      "name": "getGlobalIRS",
      "outputs": [
        {
          "components": [
            {
              "internalType": "int64",
              "name": "baseRate",
              "type": "int64"
            },
            {
              "internalType": "uint64",
              "name": "lastUpdated",
              "type": "uint64"
            },
            {
              "internalType": "uint64",
              "name": "rateAccumulator",
              "type": "uint64"
            },
            {
              "internalType": "uint256",
              "name": "averageRebate",
              "type": "uint256"
            },
            {
              "internalType": "uint256",
              "name": "globalAccruedRebate",
              "type": "uint256"
            }
          ],
          "internalType": "struct InterestRateModel.GlobalIRS",
          "name": "",
          "type": "tuple"
        }
      ],
      "stateMutability": "view",
      "type": "function"
    },
    {
      "inputs": [
        {
          "internalType": "uint256",
          "name": "priceTick",
          "type": "uint256"
        },
        {
          "internalType": "uint256",
          "name": "index",
          "type": "uint256"
        }
      ],
      "name": "getLimitOrder",
      "outputs": [
        {
          "internalType": "uint256",
          "name": "limitOrderId",
          "type": "uint256"
        }
      ],
      "stateMutability": "view",
      "type": "function"
    },
    {
      "inputs": [
        {
          "internalType": "address",
          "name": "position",
          "type": "address"
        }
      ],
      "name": "getPositionIRS",
      "outputs": [
        {
          "components": [
            {
              "internalType": "uint64",
              "name": "snapshotRateAccumulator",
              "type": "uint64"
            },
            {
              "internalType": "uint64",
              "name": "rebateFactor",
              "type": "uint64"
            },
            {
              "internalType": "uint128",
              "name": "accruedRebate",
              "type": "uint128"
            }
          ],
          "internalType": "struct InterestRateModel.PositionIRS",
          "name": "",
          "type": "tuple"
        }
      ],
      "stateMutability": "view",
      "type": "function"
    },
    {
      "inputs": [
        {
          "internalType": "uint256",
          "name": "index",
          "type": "uint256"
        }
      ],
      "name": "getPriceTick",
      "outputs": [
        {
          "internalType": "uint256",
          "name": "priceTick",
          "type": "uint256"
        },
        {
          "internalType": "bool",
          "name": "isActive",
          "type": "bool"
        }
      ],
      "stateMutability": "view",
      "type": "function"
    },
    {
      "inputs": [
        {
          "internalType": "bytes32",
          "name": "role",
          "type": "bytes32"
        }
      ],
      "name": "getRoleAdmin",
      "outputs": [
        {
          "internalType": "bytes32",
          "name": "",
          "type": "bytes32"
        }
      ],
      "stateMutability": "view",
      "type": "function"
    },
    {
      "inputs": [
        {
          "internalType": "bytes32",
          "name": "role",
          "type": "bytes32"
        },
        {
          "internalType": "address",
          "name": "account",
          "type": "address"
        }
      ],
      "name": "grantRole",
      "outputs": [],
      "stateMutability": "nonpayable",
      "type": "function"
    },
    {
      "inputs": [
        {
          "internalType": "address",
          "name": "owner",
          "type": "address"
        },
        {
          "internalType": "address",
          "name": "caller",
          "type": "address"
        }
      ],
      "name": "hasPermission",
      "outputs": [
        {
          "internalType": "bool",
          "name": "",
          "type": "bool"
        }
      ],
      "stateMutability": "view",
      "type": "function"
    },
    {
      "inputs": [
        {
          "internalType": "bytes32",
          "name": "role",
          "type": "bytes32"
        },
        {
          "internalType": "address",
          "name": "account",
          "type": "address"
        }
      ],
      "name": "hasRole",
      "outputs": [
        {
          "internalType": "bool",
          "name": "",
          "type": "bool"
        }
      ],
      "stateMutability": "view",
      "type": "function"
    },
    {
      "inputs": [],
      "name": "limitOrderFloor",
      "outputs": [
        {
          "internalType": "uint256",
          "name": "",
          "type": "uint256"
        }
      ],
      "stateMutability": "view",
      "type": "function"
    },
    {
      "inputs": [
        {
          "internalType": "uint256",
          "name": "limitOrderId",
          "type": "uint256"
        }
      ],
      "name": "limitOrders",
      "outputs": [
        {
          "internalType": "uint256",
          "name": "priceTick",
          "type": "uint256"
        }
      ],
      "stateMutability": "view",
      "type": "function"
    },
    {
      "inputs": [
        {
          "internalType": "address[]",
          "name": "owners",
          "type": "address[]"
        },
        {
          "internalType": "uint256[]",
          "name": "repayAmounts",
          "type": "uint256[]"
        }
      ],
      "name": "liquidatePositions",
      "outputs": [],
      "stateMutability": "nonpayable",
      "type": "function"
    },
    {
      "inputs": [],
      "name": "liquidationConfig",
      "outputs": [
        {
          "internalType": "uint64",
          "name": "liquidationPenalty",
          "type": "uint64"
        },
        {
          "internalType": "uint64",
          "name": "liquidationDiscount",
          "type": "uint64"
        },
        {
          "internalType": "uint64",
          "name": "targetHealthFactor",
          "type": "uint64"
        }
      ],
      "stateMutability": "view",
      "type": "function"
    },
    {
      "inputs": [
        {
          "internalType": "address",
          "name": "owner",
          "type": "address"
        },
        {
          "internalType": "address",
          "name": "collateralizer",
          "type": "address"
        },
        {
          "internalType": "address",
          "name": "creditor",
          "type": "address"
        },
        {
          "internalType": "int256",
          "name": "deltaCollateral",
          "type": "int256"
        },
        {
          "internalType": "int256",
          "name": "deltaNormalDebt",
          "type": "int256"
        }
      ],
      "name": "modifyCollateralAndDebt",
      "outputs": [],
      "stateMutability": "nonpayable",
      "type": "function"
    },
    {
      "inputs": [
        {
          "internalType": "address",
          "name": "owner",
          "type": "address"
        },
        {
          "internalType": "address",
          "name": "caller",
          "type": "address"
        },
        {
          "internalType": "bool",
          "name": "permitted",
          "type": "bool"
        }
      ],
      "name": "modifyPermission",
      "outputs": [],
      "stateMutability": "nonpayable",
      "type": "function"
    },
    {
      "inputs": [
        {
          "internalType": "address",
          "name": "caller",
          "type": "address"
        },
        {
          "internalType": "bool",
          "name": "permitted",
          "type": "bool"
        }
      ],
      "name": "modifyPermission",
      "outputs": [],
      "stateMutability": "nonpayable",
      "type": "function"
    },
    {
      "inputs": [],
      "name": "oracle",
      "outputs": [
        {
          "internalType": "contract IOracle",
          "name": "",
          "type": "address"
        }
      ],
      "stateMutability": "view",
      "type": "function"
    },
    {
      "inputs": [],
      "name": "pause",
      "outputs": [],
      "stateMutability": "nonpayable",
      "type": "function"
    },
    {
      "inputs": [],
      "name": "paused",
      "outputs": [
        {
          "internalType": "bool",
          "name": "",
          "type": "bool"
        }
      ],
      "stateMutability": "view",
      "type": "function"
    },
    {
      "inputs": [],
      "name": "pausedAt",
      "outputs": [
        {
          "internalType": "uint256",
          "name": "",
          "type": "uint256"
        }
      ],
      "stateMutability": "view",
      "type": "function"
    },
    {
      "inputs": [
        {
          "internalType": "address",
          "name": "owner",
          "type": "address"
        }
      ],
      "name": "positions",
      "outputs": [
        {
          "internalType": "uint256",
          "name": "collateral",
          "type": "uint256"
        },
        {
          "internalType": "uint256",
          "name": "normalDebt",
          "type": "uint256"
        }
      ],
      "stateMutability": "view",
      "type": "function"
    },
    {
      "inputs": [],
      "name": "protocolFee",
      "outputs": [
        {
          "internalType": "uint256",
          "name": "",
          "type": "uint256"
        }
      ],
      "stateMutability": "view",
      "type": "function"
    },
    {
      "inputs": [
        {
          "internalType": "uint256",
          "name": "limitPriceTick",
          "type": "uint256"
        }
      ],
      "name": "removeLimitPriceTick",
      "outputs": [],
      "stateMutability": "nonpayable",
      "type": "function"
    },
    {
      "inputs": [
        {
          "internalType": "bytes32",
          "name": "role",
          "type": "bytes32"
        },
        {
          "internalType": "address",
          "name": "account",
          "type": "address"
        }
      ],
      "name": "renounceRole",
      "outputs": [],
      "stateMutability": "nonpayable",
      "type": "function"
    },
    {
      "inputs": [
        {
          "internalType": "bytes32",
          "name": "role",
          "type": "bytes32"
        },
        {
          "internalType": "address",
          "name": "account",
          "type": "address"
        }
      ],
      "name": "revokeRole",
      "outputs": [],
      "stateMutability": "nonpayable",
      "type": "function"
    },
    {
      "inputs": [
        {
          "internalType": "bytes32",
          "name": "parameter",
          "type": "bytes32"
        },
        {
          "internalType": "uint256",
          "name": "data",
          "type": "uint256"
        }
      ],
      "name": "setParameter",
      "outputs": [],
      "stateMutability": "nonpayable",
      "type": "function"
    },
    {
      "inputs": [
        {
          "internalType": "address",
          "name": "agent",
          "type": "address"
        },
        {
          "internalType": "bool",
          "name": "permitted",
          "type": "bool"
        }
      ],
      "name": "setPermissionAgent",
      "outputs": [],
      "stateMutability": "nonpayable",
      "type": "function"
    },
    {
      "inputs": [
        {
          "internalType": "address",
          "name": "unwinderFactory",
          "type": "address"
        }
      ],
      "name": "setUp",
      "outputs": [],
      "stateMutability": "nonpayable",
      "type": "function"
    },
    {
      "inputs": [
        {
          "internalType": "address",
          "name": "owner",
          "type": "address"
        }
      ],
      "name": "shares",
      "outputs": [
        {
          "internalType": "uint256",
          "name": "balance",
          "type": "uint256"
        }
      ],
      "stateMutability": "view",
      "type": "function"
    },
    {
      "inputs": [
        {
          "internalType": "uint256",
          "name": "epoch",
          "type": "uint256"
        },
        {
          "internalType": "address",
          "name": "delegator",
          "type": "address"
        }
      ],
      "name": "sharesQueuedByEpoch",
      "outputs": [
        {
          "internalType": "uint256",
          "name": "sharesQueued",
          "type": "uint256"
        }
      ],
      "stateMutability": "view",
      "type": "function"
    },
    {
      "inputs": [],
      "name": "spotPrice",
      "outputs": [
        {
          "internalType": "uint256",
          "name": "",
          "type": "uint256"
        }
      ],
      "stateMutability": "nonpayable",
      "type": "function"
    },
    {
      "inputs": [
        {
          "internalType": "bytes4",
          "name": "interfaceId",
          "type": "bytes4"
        }
      ],
      "name": "supportsInterface",
      "outputs": [
        {
          "internalType": "bool",
          "name": "",
          "type": "bool"
        }
      ],
      "stateMutability": "view",
      "type": "function"
    },
    {
      "inputs": [],
      "name": "token",
      "outputs": [
        {
          "internalType": "contract IERC20",
          "name": "",
          "type": "address"
        }
      ],
      "stateMutability": "view",
      "type": "function"
    },
    {
      "inputs": [],
      "name": "tokenScale",
      "outputs": [
        {
          "internalType": "uint256",
          "name": "",
          "type": "uint256"
        }
      ],
      "stateMutability": "view",
      "type": "function"
    },
    {
      "inputs": [],
      "name": "totalAccruedFees",
      "outputs": [
        {
          "internalType": "uint256",
          "name": "",
          "type": "uint256"
        }
      ],
      "stateMutability": "view",
      "type": "function"
    },
    {
      "inputs": [],
      "name": "totalCreditClaimable",
      "outputs": [
        {
          "internalType": "uint256",
          "name": "",
          "type": "uint256"
        }
      ],
      "stateMutability": "view",
      "type": "function"
    },
    {
      "inputs": [],
      "name": "totalNormalDebt",
      "outputs": [
        {
          "internalType": "uint256",
          "name": "",
          "type": "uint256"
        }
      ],
      "stateMutability": "view",
      "type": "function"
    },
    {
      "inputs": [],
      "name": "totalShares",
      "outputs": [
        {
          "internalType": "uint256",
          "name": "",
          "type": "uint256"
        }
      ],
      "stateMutability": "view",
      "type": "function"
    },
    {
      "inputs": [
        {
          "internalType": "uint256",
          "name": "shareAmount",
          "type": "uint256"
        },
        {
          "internalType": "uint256[]",
          "name": "prevQueuedEpochs",
          "type": "uint256[]"
        }
      ],
      "name": "undelegateCredit",
      "outputs": [
        {
          "internalType": "uint256",
          "name": "estimatedClaim",
          "type": "uint256"
        },
        {
          "internalType": "uint256",
          "name": "currentEpoch",
          "type": "uint256"
        },
        {
          "internalType": "uint256",
          "name": "claimableAtEpoch",
          "type": "uint256"
        },
        {
          "internalType": "uint256",
          "name": "fixableUntilEpoch",
          "type": "uint256"
        }
      ],
      "stateMutability": "nonpayable",
      "type": "function"
    },
    {
      "inputs": [],
      "name": "unpause",
      "outputs": [],
      "stateMutability": "nonpayable",
      "type": "function"
    },
    {
      "inputs": [],
      "name": "vaultConfig",
      "outputs": [
        {
          "internalType": "uint128",
          "name": "debtFloor",
          "type": "uint128"
        },
        {
          "internalType": "uint64",
          "name": "liquidationRatio",
          "type": "uint64"
        },
        {
          "internalType": "uint64",
          "name": "globalLiquidationRatio",
          "type": "uint64"
        }
      ],
      "stateMutability": "view",
      "type": "function"
    },
    {
      "inputs": [
        {
          "internalType": "address",
          "name": "position",
          "type": "address"
        }
      ],
      "name": "virtualIRS",
      "outputs": [
        {
          "internalType": "uint64",
          "name": "rateAccumulator",
          "type": "uint64"
        },
        {
          "internalType": "uint256",
          "name": "accruedRebate",
          "type": "uint256"
        },
        {
          "internalType": "uint256",
          "name": "globalAccruedRebate",
          "type": "uint256"
        }
      ],
      "stateMutability": "view",
      "type": "function"
    },
    {
      "inputs": [
        {
          "internalType": "address",
          "name": "to",
          "type": "address"
        },
        {
          "internalType": "uint256",
          "name": "amount",
          "type": "uint256"
        }
      ],
      "name": "withdraw",
      "outputs": [
        {
          "internalType": "uint256",
          "name": "tokenAmount",
          "type": "uint256"
        }
      ],
      "stateMutability": "nonpayable",
      "type": "function"
    }
  ],
  "bytecode": {
    "object": "0x6101a06040523480156200001257600080fd5b5060405162005dd138038062005dd1833981016040819052620000359162000114565b6001805460ff1916905560408051639a295e7360e01b8152905182916001600160a01b03831691639a295e73916004808201926101209290919082900301816000875af11580156200008b573d6000803e3d6000fd5b505050506040513d601f19601f82011682018060405250810190620000b191906200013b565b6001600160a01b03908116610140526101809190915261016091909152610120919091526101009190915290811660e05290811660c05290811660a0521660805250620001e39050565b6001600160a01b03811681146200011157600080fd5b50565b6000602082840312156200012757600080fd5b81516200013481620000fb565b9392505050565b60008060008060008060008060006101208a8c0312156200015b57600080fd5b89516200016881620000fb565b60208b01519099506200017b81620000fb565b60408b01519098506200018e81620000fb565b60608b0151909750620001a181620000fb565b8096505060808a0151945060a08a0151935060c08a0151925060e08a015191506101008a0151620001d281620000fb565b809150509295985092959850929598565b60805160a05160c05160e0516101005161012051610140516101605161018051615a8f6200034260003960006123650152600081816122930152613afa0152600081816107d901528181610f7b015281816117320152818161311d015281816131f5015281816134d8015261356f0152600081816107810152614d690152600081816104ab015281816114d601528181612cb80152614087015260008181610a670152818161119b0152818161126f015281816114a801528181612ceb01526140a9015260008181610a1a0152818161246d0152612b2801526000818161067e015261116e01526000818161099701528181610f4e015281816112be0152818161170301528181611e160152818161216e015281816121f10152818161243e015281816124fb01528181612a6c015281816130f0015281816131c8015281816134a9015281816135480152818161439301526148e70152615a8f6000f3fe608060405234801561001057600080fd5b50600436106103505760003560e01c8063842c311e116101bf578063cb6238c8116100fa578063dc2ec2491161009d578063dc2ec24914610976578063df10f6871461097f578063e2dfb31714610992578063eb953449146109b9578063edaafe2014610a15578063ef0563fb14610a3c578063f3fef3a314610a4f578063fc0c546a14610a6257600080fd5b8063cb6238c81461088b578063cde68041146108b6578063ce7c2ac2146108c9578063d294f093146108e9578063d4b7eac3146108f1578063d547741f14610904578063d9c70f5714610917578063dbe6b31c1461092a57600080fd5b8063a70b9f0c11610162578063a70b9f0c14610772578063b0e21e8a1461077c578063b6dc16f6146107a3578063b97dd9e2146107c3578063ba95534c146107cb578063bf404a41146107d4578063c6b61e4c146107fb578063c75a4b5e1461087857600080fd5b8063842c311e146106f85780638456cb591461070157806388439aea1461070957806391d148541461071c57806393f9eb351461072f5780639844afd214610742578063a217fddf1461074a578063a3e2b4951461075257600080fd5b80633f2601ef1161028f5780635fe83c7b116102325780635fe83c7b146105a9578063683f81a1146105b25780636e5e741e146105d5578063723507be146106085780637cc34bb41461061b5780637dc0d1d0146106795780638051ba75146106ad5780638309dbdd146106e557600080fd5b80633f2601ef146104f15780633f4ba83a1461050457806344a3c6641461050c578063472132f01461051f57806347e7ef241461052757806351f813ec1461053a57806355f57510146105625780635c975abb1461059e57600080fd5b80632af8992b116102f75780632af8992b146104645780632b2368a2146104775780632e55d0f21461048a5780632f2ff15d14610493578063342c02b1146104a657806336568abe146104cd578063398482d8146104e05780633a98ef39146104e857600080fd5b806301ffc9a71461035557806314815a6d1461037d57806319f1039c146103b65780631c580ad5146103be5780632202ce8c14610411578063248a9ca31461041b578063280c37ef1461043e5780632906f94e14610451575b600080fd5b6103686103633660046153a6565b610a89565b60405190151581526020015b60405180910390f35b6103a861038b3660046153e7565b601060209081526000928352604080842090915290825290205481565b604051908152602001610374565b6103a8600381565b6018546103e7906001600160401b0380821691600160401b8104821691600160801b9091041683565b604080516001600160401b0394851681529284166020840152921691810191909152606001610374565b610419610ac0565b005b6103a8610429366004615413565b60009081526020819052604090206001015490565b61041961044c36600461543a565b610b89565b61041961045f366004615413565b610c00565b6103a8610472366004615471565b610d39565b6103a8610485366004615413565b610d87565b6103a860025481565b6104196104a13660046153e7565b6110a7565b6103a87f000000000000000000000000000000000000000000000000000000000000000081565b6104196104db3660046153e7565b6110d1565b6103a8611154565b6103a8600c5481565b6104196104ff366004615493565b61120b565b61041961131e565b61041961051a366004615471565b611358565b6103a8600181565b6103a86105353660046154ae565b611491565b61054d610548366004615413565b611533565b60408051928352901515602083015201610374565b610589610570366004615493565b6012602052600090815260409020805460019091015482565b60408051928352602083019190915201610374565b60015460ff16610368565b6103a8600e5481565b6103686105c0366004615413565b60136020526000908152604090205460ff1681565b6105e86105e336600461557d565b61158f565b604080519485526020850193909352918301526060820152608001610374565b610419610616366004615471565b611910565b60095461064a906001600160801b038116906001600160401b03600160801b8204811691600160c01b90041683565b604080516001600160801b0390941684526001600160401b039283166020850152911690820152606001610374565b6106a07f000000000000000000000000000000000000000000000000000000000000000081565b60405161037491906155c3565b6106c06106bb366004615493565b611b74565b604080516001600160401b039094168452602084019290925290820152606001610374565b6104196106f33660046155d7565b611c04565b6103a8600a5481565b610419611cd3565b610589610717366004615471565b611d08565b61036861072a3660046153e7565b611d2b565b6103a861073d366004615413565b611d54565b610419611ec4565b6103a8600081565b6103a8610760366004615413565b60166020526000908152604090205481565b6103a86203f48081565b6103a87f000000000000000000000000000000000000000000000000000000000000000081565b6103a86107b1366004615493565b60116020526000908152604090205481565b6103a8611f16565b6103a8600b5481565b6106a07f000000000000000000000000000000000000000000000000000000000000000081565b610844610809366004615413565b600f602052600090815260409020805460018201546002830154600390930154919290916001600160801b0380821691600160801b90041685565b604080519586526020860194909452928401919091526001600160801b03908116606084015216608082015260a001610374565b61041961088636600461561e565b611f34565b61089e610899366004615413565b612349565b6040516001600160401b039091168152602001610374565b6103686108c4366004615673565b6123d0565b6103a86108d7366004615493565b600d6020526000908152604090205481565b6103a861241e565b6105896108ff366004615471565b6124cc565b6104196109123660046153e7565b6125d4565b61041961092536600461543a565b6125f9565b61093d610938366004615493565b61265c565b6040805182516001600160401b03908116825260208085015190911690820152918101516001600160801b031690820152606001610374565b6103a860175481565b61041961098d36600461569d565b6126c7565b6106a07f000000000000000000000000000000000000000000000000000000000000000081565b6109c1612baa565b6040516103749190600060a082019050825160070b825260208301516001600160401b0380821660208501528060408601511660408501525050606083015160608301526080830151608083015292915050565b6106a07f000000000000000000000000000000000000000000000000000000000000000081565b610419610a4a366004615413565b612c01565b6103a8610a5d3660046154ae565b612c83565b6106a07f000000000000000000000000000000000000000000000000000000000000000081565b60006001600160e01b03198216637965db0b60e01b1480610aba57506301ffc9a760e01b6001600160e01b03198316145b92915050565b3360008181526016602052604081205490819003610af157604051630573b42560e51b815260040160405180910390fd5b6000818152601560205260409020610b099083612d12565b6000828152601660209081526040808320839055338084526012909252822060010154600a54610b5593610b3b611154565b600954600160c01b90046001600160401b03166000612d93565b505060405133915082907f6f36e2a381bc87c87bcc2043deb0a5cdf9a6d87eb14cbe13cf0f1fe39f324dd990600090a35050565b3360008181526004602090815260408083206001600160a01b03871680855290835292819020805460ff1916861515908117909155815194855291840192909252908201527f6501e8bfa2d3e686d62fe2c0c3275df594494583b0a63a70b7452d3eeb712bd6906060015b60405180910390a15050565b60008181526013602052604090205460ff16610c2f5760405163da4b118b60e01b815260040160405180910390fd5b33600090815260126020526040902060010154601754811015610c65576040516305c0093760e21b815260040160405180910390fd5b3360008181526016602052604090205415610c935760405163345c017d60e01b815260040160405180910390fd5b600081815260166020908152604080832086905585835260158083528184208480528084529184206001015493879052909152610cd1918390612e5e565b610d043383600a546000610ce3611154565b600954600160c01b90046001600160401b0316610cff8a612349565b612d93565b505060405133915084907f85d7690ee90733d849878d2bbbd5bf047e442ce2d045c0308a58cfd2ce53031590600090a3505050565b6000828152601560209081526040808320838052909152812054905b828114610d805760008481526015602090815260408083208584529091529020549150600101610d55565b5092915050565b600080610d92611f16565b905060018301811015610db85760405163d84d29d760e01b815260040160405180910390fd5b6000610dc384612f2b565b94505050505080604001516000148015610de8575060608101516001600160801b0316155b8015610df657506020810151155b15610e5757506000838152600f6020908152604091829020825160a081018452815481526001820154928101929092526002810154928201929092526003909101546001600160801b038082166060840152600160801b9091041660808201525b604081015115801590610e75575060608101516001600160801b0316155b15610e9357604051632dcf9d3960e01b815260040160405180910390fd5b60008481526010602090815260408083203384529091528120546060830151909190610ec99083906001600160801b0316613634565b60008781526010602090815260408083203384529091528120559050610eef8183615749565b336000908152600d602052604081208054909190610f0e90849061575c565b9091555050604083015183519192508291610f2a90839061576f565b610f34919061579c565b604051632b0b3a6f60e21b81529095506001600160a01b037f0000000000000000000000000000000000000000000000000000000000000000169063ac2ce9bc90610fa7907f00000000000000000000000000000000000000000000000000000000000000009033908a906004016157be565b600060405180830381600087803b158015610fc157600080fd5b505af1158015610fd5573d6000803e3d6000fd5b505050508183604001818151610feb9190615749565b905250825185908490610fff908390615749565b9052506000868152600f60209081526040808320865181559186015160018301558501516002820155606085015160808601516001600160801b03908116600160801b02911617600390910155600e805487929061105e908490615749565b9091555050604080518381526020810187905233917f5a4beaa18eb50f2c5150783acec1964edb2e32cbf0f99957707375f76ffbd982910160405180910390a250505050919050565b6000828152602081905260409020600101546110c281613662565b6110cc838361366c565b505050565b6001600160a01b03811633146111465760405162461bcd60e51b815260206004820152602f60248201527f416363657373436f6e74726f6c3a2063616e206f6e6c792072656e6f756e636560448201526e103937b632b9903337b91039b2b63360891b60648201526084015b60405180910390fd5b61115082826136f0565b5050565b604051632cbf04c160e01b81526000906001600160a01b037f00000000000000000000000000000000000000000000000000000000000000001690632cbf04c1906111c3907f0000000000000000000000000000000000000000000000000000000000000000906004016155c3565b6020604051808303816000875af11580156111e2573d6000803e3d6000fd5b505050506040513d601f19601f8201168201806040525081019061120691906157e2565b905090565b6000611215612baa565b905080602001516001600160401b031660001461123157600080fd5b61123c60003361366c565b6001600160401b0342166020820152670de0b6b3a7640000604082015261126281613755565b6112986001600160a01b037f000000000000000000000000000000000000000000000000000000000000000016836000196137e3565b60405163d9c70f5760e01b81526001600160a01b038381166004830152600160248301527f0000000000000000000000000000000000000000000000000000000000000000169063d9c70f5790604401600060405180830381600087803b15801561130257600080fd5b505af1158015611316573d6000803e3d6000fd5b505050505050565b7f65d7a28e3265b37a6474929f336521b332c1681b933f6cb9f3376673440d862a61134881613662565b61135061392b565b506000600255565b611360613977565b7ff96f3d6876b63665360200e15ed8964960110cbbd99e917fb50ad1e576f538ac61138a81613662565b670de0b6b3a76400008310806113a857508268056bc75e2d63100000105b156113c6576040516336bbc25960e01b815260040160405180910390fd5b600080526014602052600080516020615a3a83398151915254801580156113ec57508215155b806114095750821580159061140957508284118061140957508281115b80611421575060008381526014602052604090205484105b1561143f576040516346b0cc7160e11b815260040160405180910390fd5b61144b60148585612e5e565b600084815260136020526040808220805460ff191660011790555185917f3907a47dfbf148deb99efcd854a68497cbdc2a2db8488083ecb842ad6bde91a891a250505050565b600061149b613977565b6114d06001600160a01b037f0000000000000000000000000000000000000000000000000000000000000000163330856139bf565b6114fa827f00000000000000000000000000000000000000000000000000000000000000006139e6565b6001600160a01b03841660009081526011602052604081208054929350839290919061152790849061575c565b90915550909392505050565b60008080526014602052600080516020615a3a8339815191525490805b838114611573576000838152601460205260409020600101549250600101611550565b5050600081815260136020526040902054909260ff9091169150565b60008060008061159d611f16565b925060008060008060006115b088612f2b565b945094509450945094506000805b8b518110156116b55760008c82815181106115db576115db6157fb565b6020026020010151905081600101915080600014806115fd575060038b038110155b8061162157506000818152600f60205260409020600301546001600160801b031615155b8061163b57506000818152600f6020526040902060020154155b1561164657506115be565b600081815260106020908152604080832033845290915290205461166a818561575c565b60008381526010602090815260408083203384528252808320839055858352600f9091528120600201805492965083929091906116a8908490615749565b909155506115be92505050565b50828c6116c28789615749565b6116cc919061576f565b6116d6919061579c565b99506000848b116116e7578a6116e9565b845b604051632b0b3a6f60e21b81529091506001600160a01b037f0000000000000000000000000000000000000000000000000000000000000000169063ac2ce9bc9061175c9030907f00000000000000000000000000000000000000000000000000000000000000009086906004016157be565b600060405180830381600087803b15801561177657600080fd5b505af115801561178a573d6000803e3d6000fd5b5050505080836020018181516117a0919061575c565b905250506040820151156117d9576117d482608001516001600160801b03166117c98c8f6139e6565b808218908211021890565b6117e3565b6117e38a8d6139e6565b6001600160801b031660808301526040820180518d919061180590839061575c565b9052506000898152600f6020908152604080832085518155828601516001820155818601516002820155606086015160808701516001600160801b03908116600160801b0291161760039091015560108252808320338452909152812080548e929061187290849061575c565b9091555050336000908152600d60205260409020548c9061189490839061575c565b61189e9190615749565b336000818152600d60209081526040918290209390935580518f81529283018d905260018c01908301819052995060038b0198508a917fe5248481489259c5ccaad0795cac80cd527112765494ed5a8d98b93501b27f079060600160405180910390a350505050505092959194509250565b611918613977565b7f7e2be3cffb06427cbcb9b1d12d4b78adcf14a2bf640e9bbdeb54bb711b65ec7161194281613662565b82683232b13a233637b7b960b91b0361197557600980546001600160801b0319166001600160801b038416179055611b35565b826f6c69717569646174696f6e526174696f60801b036119b9576009805467ffffffffffffffff60801b1916600160801b6001600160401b03851602179055611b35565b8275676c6f62616c4c69717569646174696f6e526174696f60501b036119fe57600980546001600160c01b0316600160c01b6001600160401b03851602179055611b35565b826e3634b6b4ba27b93232b9233637b7b960891b03611a21576017829055611b35565b8267626173655261746560c01b03611a5257611a4d6000198314611a455782613a35565b600019613a35565b611b35565b82716c69717569646174696f6e50656e616c747960701b03611a8f576018805467ffffffffffffffff19166001600160401b038416179055611b35565b82721b1a5c5d5a59185d1a5bdb911a5cd8dbdd5b9d606a1b03611ad6576018805467ffffffffffffffff60401b1916600160401b6001600160401b03851602179055611b35565b82713a30b933b2ba2432b0b63a342330b1ba37b960711b03611b1c576018805467ffffffffffffffff60801b1916600160801b6001600160401b03851602179055611b35565b604051638dd691e760e01b815260040160405180910390fd5b827f4327e67d6578eb2c9293fb22f9334006073ac1397c7100f5dd5adca09ad71c0883604051611b6791815260200190565b60405180910390a2505050565b600080600080611b82612baa565b600a54909150611b928282613add565b9450611ba78286836000806000806000613bf0565b506080810151935091506001600160a01b03861615611bfb57611bef611bcc8761265c565b6001600160a01b0388166000908152601260205260409020600101548790613d8f565b6001600160801b031693505b50509193909250565b6001600160a01b0383163314801590611c4157506001600160a01b038316600090815260046020908152604080832033845290915290205460ff16155b15611c5f57604051638743d2ff60e01b815260040160405180910390fd5b6001600160a01b0383811660009081526003602090815260408083209386168352929052819020805460ff1916831515179055517fdcf2bd5a4c47afeb1792d170f6f5e6e528e30c6b546fffe62b697a11f8953b2b90611cc6903390869086908690615811565b60405180910390a1505050565b7f65d7a28e3265b37a6474929f336521b332c1681b933f6cb9f3376673440d862a611cfd81613662565b611d05613dca565b50565b6000803315611d1657600080fd5b611d208484613dd8565b915091509250929050565b6000918252602082815260408084206001600160a01b0393909316845291905290205460ff1690565b6000670de0b6b3a7640000821015611d7f57604051636396b11f60e01b815260040160405180910390fd5b6000806000611d94611d8f611f16565b612f2b565b50935050925092508060001480611db25750611db08284615749565b155b611dd957611dc08284615749565b611dca868361576f565b611dd4919061579c565b611ddb565b845b336000908152600d602052604090208054820190559350611dfc848261575c565b600c55604051632b0b3a6f60e21b81526001600160a01b037f0000000000000000000000000000000000000000000000000000000000000000169063ac2ce9bc90611e4f90339030908a906004016157be565b600060405180830381600087803b158015611e6957600080fd5b505af1158015611e7d573d6000803e3d6000fd5b505060408051888152602081018890523393507f12352042ba8d46dbbba12767322c1c3bb5ed774314b10c283f945bf69e83f15792500160405180910390a2505050919050565b611ecc613977565b600080611ed96000611b74565b6009549294509250611f0991600160c01b90046001600160401b03169050611eff611154565b600a54858561405e565b1561115057611150613dca565b60006203f480804206420381611f2e57611f2e615786565b04905090565b6000811380611f435750600082125b8015611f565750611f5485336123d0565b155b80611f735750600082138015611f735750611f7184336123d0565b155b80611f905750600081128015611f905750611f8e83336123d0565b155b15611fae57604051634c26249960e01b815260040160405180910390fd5b6001600160a01b038516600090815260126020908152604080832081518083018352815481526001909101548184015281516060810183526009546001600160801b03811682526001600160401b03600160801b8204811695830195909552600160c01b900490931691830191909152600a54909261202b611154565b9050600080600061204a8c8860200151878b888b604001516000612d93565b92509250925061205e8c88848c8c8a61416e565b9650600088138061206f5750600089125b80156120b257506120b06120998860200151846000015185604001516001600160801b0316614275565b8851602089015187906001600160401b0316614295565b155b156120d057604051633f66923d60e01b815260040160405180910390fd5b6001600160a01b038b166000908152601160205260409020546120f3908a6142b8565b6001600160a01b038c1660009081526011602052604090205561211685896142fd565b945084600a819055506000816001600160801b031661214285604001516001600160401b03168b614342565b61214c919061583b565b905060008113156121de57604051632b0b3a6f60e21b81526001600160a01b037f0000000000000000000000000000000000000000000000000000000000000000169063ac2ce9bc906121a79030908f9086906004016157be565b600060405180830381600087803b1580156121c157600080fd5b505af11580156121d5573d6000803e3d6000fd5b50505050612272565b6000811215612272576001600160a01b037f00000000000000000000000000000000000000000000000000000000000000001663ac2ce9bc8c3061222185615863565b6040518463ffffffff1660e01b815260040161223f939291906157be565b600060405180830381600087803b15801561225957600080fd5b505af115801561226d573d6000803e3d6000fd5b505050505b60008913156122da576000612287858861436c565b90506001600160401b037f000000000000000000000000000000000000000000000000000000000000000060401c16808211156122d7576040516329b823dd60e21b815260040160405180910390fd5b50505b8a6001600160a01b03168c6001600160a01b03168e6001600160a01b03167f7ce3e27b99e7e2e42f0ddcb6f6679a25081a5fd4ca991bcd05c45e54daa997088d8d604051612332929190918252602082015260400190565b60405180910390a450505050505050505050505050565b6000670de0b6b3a764000082101561236357506000919050565b7f00000000000000000000000000000000000000000000000000000000000000006001600160801b0381169060801c6123c86123c3670de0b6b3a76400006123b4856123af838a615749565b613634565b6123be908561575c565b6139e6565b614441565b949350505050565b6000816001600160a01b0316836001600160a01b0316148061241757506001600160a01b0380841660009081526003602090815260408083209386168352929052205460ff165b9392505050565b600b80546000909155604051632b0b3a6f60e21b81526001600160a01b037f0000000000000000000000000000000000000000000000000000000000000000169063ac2ce9bc906124979030907f00000000000000000000000000000000000000000000000000000000000000009086906004016157be565b600060405180830381600087803b1580156124b157600080fd5b505af11580156124c5573d6000803e3d6000fd5b5050505090565b6000806124d98484613dd8565b9092509050811561256757604051632b0b3a6f60e21b81526001600160a01b037f0000000000000000000000000000000000000000000000000000000000000000169063ac2ce9bc90612534903390309087906004016157be565b600060405180830381600087803b15801561254e57600080fd5b505af1158015612562573d6000803e3d6000fd5b505050505b801561259257336000908152601160205260408120805483929061258c90849061575c565b90915550505b604080518381526020810183905233917f26981b9aefbb0f732b0264bd34c255e831001eb50b06bc85b32cc39e14389721910160405180910390a29250929050565b6000828152602081905260409020600101546125ef81613662565b6110cc83836136f0565b3360008181526003602090815260408083206001600160a01b038716845290915290819020805460ff1916841515179055517fdcf2bd5a4c47afeb1792d170f6f5e6e528e30c6b546fffe62b697a11f8953b2b91610bf491819086908690615811565b6126646152be565b6001600160a01b038216600090815260086020908152604091829020825160608101845290546001600160401b038082168352600160401b82041692820192909252600160801b9091046001600160801b031691810191909152610aba9061446b565b6126cf613977565b805182146126f0576040516338f30c4b60e11b815260040160405180910390fd5b60006126fa612baa565b60408051606080820183526009546001600160801b03811683526001600160401b03600160801b8083048216602080870191909152600160c01b909304821685870152855193840186526018548083168552600160401b810483169385019390935290910416928101929092529192506000612774611154565b905061277e6152de565b848152600a5460208201526009546001600160801b031660a08201526018546127b8908390600160401b90046001600160401b0316613634565b60c08201526018546001600160401b031660e082015260208101516000906127e1908790613add565b905060005b888110156129ff5760008a8a83818110612802576128026157fb565b90506020020160208101906128179190615493565b90506001600160a01b0381161580612848575088828151811061283c5761283c6157fb565b60200260200101516000145b6129f6576001600160a01b038116600090815260126020908152604080832081518083019092528054825260010154918101829052919061288b908490876144a2565b905060006128ab83602001518784604001516001600160801b0316614275565b90508715806128d257506128d28184600001518a8d602001516001600160401b0316614295565b156128f05760405163f87e38e960e01b815260040160405180910390fd5b600080600061291961290687600001518d613634565b8e602001516001600160401b03166139e6565b9050806129338d604001516001600160401b031686613634565b61293d9190615749565b91505060006129668d602001516001600160401b03168d602001516001600160401b0316613634565b9050600061297c670de0b6b3a7640000836139e6565b6129978e604001516001600160401b03168d60e00151613634565b6129a19190615749565b90506129ad83826139e6565b93505050506129dd8d87815181106129c7576129c76157fb565b60200260200101516117c9838b60e001516139e6565b6101008901526129ef888585886144e1565b9750505050505b506001016127e6565b50612a478260000151612a2884606001518560e00151670de0b6b3a76400006123af9190615749565b8460800151612a37919061575c565b846020015186896040015161471b565b506020820151600a556060820151604051632b0b3a6f60e21b81526001600160a01b037f0000000000000000000000000000000000000000000000000000000000000000169163ac2ce9bc91612aa49133913091906004016157be565b600060405180830381600087803b158015612abe57600080fd5b505af1158015612ad2573d6000803e3d6000fd5b505050604080840151336000908152601160205291822080549193509190612afb90849061575c565b909155505061012082015115612b9f57610120820151604051630bd0dedd60e21b815260048101919091527f00000000000000000000000000000000000000000000000000000000000000006001600160a01b031690632f437b74906024016020604051808303816000875af1158015612b79573d6000803e3d6000fd5b505050506040513d601f19601f82011682018060405250810190612b9d91906157e2565b505b505050505050505050565b612bb2615337565b506040805160a081018252600554600781810b83526001600160401b03600160401b830481166020850152600160801b9092049091169282019290925260065460608201529054608082015290565b612c09613977565b7ff96f3d6876b63665360200e15ed8964960110cbbd99e917fb50ad1e576f538ac612c3381613662565b6000828152601360205260409020805460ff19169055612c54601483612d12565b60405182907f343776161924dfe02a29fdf57e6087e2d25ca11fe703785a80632e9ab88c88a190600090a25050565b6000612c8d613977565b3360009081526011602052604081208054849290612cac908490615749565b90915550612cdc9050827f0000000000000000000000000000000000000000000000000000000000000000613634565b9050610aba6001600160a01b037f000000000000000000000000000000000000000000000000000000000000000016848361474e565b600081815260208381526040918290208251808401909352805483526001015490820152612d40838361477e565b612d5d5760405163564e265760e11b815260040160405180910390fd5b60208082018051835160009081529590925260408086206001908101939093559251905185528285205591835282208281550155565b612d9b615337565b612da36152be565b6000612dad612baa565b9250612db88a61265c565b91506000612dc6848a613add565b9050612dd383828c613d8f565b6001600160801b031660408401526001600160401b03168252612e1260008812612dfe576000612e07565b612e0788615863565b8a84604001516147ec565b6001600160801b0316604084015290506000612e348b85858c8e8d888c614837565b9094509050612e4f8482612e488c8c6142fd565b8a8a61471b565b50509750975097945050505050565b612e68838361477e565b15612e8657604051631e2bbc4f60e11b815260040160405180910390fd5b8015801590612e9c5750612e9a838261477e565b155b15612eba5760405163564e265760e11b815260040160405180910390fd5b600081815260208490526040902080549083905581158015612eeb5750600082815260208590526040902060010154155b15612f055760008281526020859052604090206001018390555b600081815260209490945260408085206001908101859055938552909320928355910155565b600080600080612f39615365565b6000612f43611f16565b60408051600480825260a08201909252919250600091829160609190816020015b612f6c615365565b815260200190600190039081612f645790505090506000805b600381116130d257600219818701016000818152600f6020908152604091829020825160a081018452815481526001820154928101929092526002810154928201929092526003909101546001600160801b038082166060840152600160801b90910416608082015284518190869085908110613004576130046157fb565b6020026020010181905250806040015160001415801561302f575060608101516001600160801b0316155b801561304557508761304260018461575c565b11155b1561309057861561306c5760808101516001600160801b031680851190851802841861307b565b80608001516001600160801b03165b935080604001518761308d919061575c565b96505b60608101516001909301926001600160801b03161580156130b45750604081015115155b156130cb5760208101516130c8908761575c565b95505b5050612f85565b50600e54604051632f2e037160e11b81526000906001600160a01b037f00000000000000000000000000000000000000000000000000000000000000001690635e5c06e290613145907f0000000000000000000000000000000000000000000000000000000000000000906004016155c3565b6040805180830381865afa158015613161573d6000803e3d6000fd5b505050506040513d601f19601f82011682018060405250810190613185919061587f565b50905060008286613195846148c5565b61319f9190615749565b6131a99190615749565b9050801561325457604051632b0b3a6f60e21b81526001600160a01b037f0000000000000000000000000000000000000000000000000000000000000000169063ac2ce9bc90613221907f000000000000000000000000000000000000000000000000000000000000000090309086906004016157be565b600060405180830381600087803b15801561323b57600080fd5b505af115801561324f573d6000803e3d6000fd5b505050505b5050600080600c549950613267866148dc565b929f50909d50909b5050891561329c5789878d8f6132859190615749565b61328f919061576f565b613299919061579c565b90505b80156132e2576132b0816117c9868a613634565b905060006132be878d61575c565b90506132d2818084108482180284186139e6565b92506132de8284613634565b9150505b6000805b6003811161347e5760008160038c03019050600088838151811061330c5761330c6157fb565b602002602001015190508060400151600014158015613336575060608101516001600160801b0316155b801561334c57508b61334960018461575c565b11155b15613474576040518060a001604052808c83604001518861336d919061576f565b613377919061579c565b815260200182602001518152602001613394836040015189613634565b81526001600160801b0388166020820152600060409091015280519091506133bc908861575c565b965080604001518e6133ce9190615749565b9d506133dd8160200151614a56565b81516133e890614a56565b6133f291906158a3565b6133fc908561583b565b935060008160200181815250508089848151811061341c5761341c6157fb565b6020908102919091018101919091526000838152600f8252604090819020835181559183015160018301558201516002820155606082015160808301516001600160801b03908116600160801b029116176003909101555b50506001016132e6565b50600e849055600c8b9055600081131561353557604051632b0b3a6f60e21b81526001600160a01b037f0000000000000000000000000000000000000000000000000000000000000000169063ac2ce9bc906135029030907f00000000000000000000000000000000000000000000000000000000000000009086906004016157be565b600060405180830381600087803b15801561351c57600080fd5b505af1158015613530573d6000803e3d6000fd5b505050505b60008112156135e9576001600160a01b037f00000000000000000000000000000000000000000000000000000000000000001663ac2ce9bc7f00000000000000000000000000000000000000000000000000000000000000003061359885615863565b6040518463ffffffff1660e01b81526004016135b6939291906157be565b600060405180830381600087803b1580156135d057600080fd5b505af11580156135e4573d6000803e3d6000fd5b505050505b60008f8a6135f79190615749565b90508060031061362157868160030381518110613616576136166157fb565b60200260200101519a505b5050505050505050505091939590929450565b6000816000190483118202156136525763c4c5d7f56000526004601cfd5b50670de0b6b3a764000091020490565b611d058133614a7c565b6136768282611d2b565b611150576000828152602081815260408083206001600160a01b03851684529091529020805460ff191660011790556136ac3390565b6001600160a01b0316816001600160a01b0316837f2f8788117e7eff1d82e926ec794901d17c78024a50270940304540a733656f0d60405160405180910390a45050565b6136fa8282611d2b565b15611150576000828152602081815260408083206001600160a01b0385168085529252808320805460ff1916905551339285917ff6391f5c32d9c69d2a47ea670b442974b53935d1edc7fd64eb21e047a839171b9190a45050565b80516005805460208401516040808601516001600160401b03908116600160801b0267ffffffffffffffff60801b19938216600160401b026001600160801b03199095169190961617929092171692909217905560608201516006556080820151600755517f9334cbdde649ebcbf798eaa08c381dc574197dc53947470a9be908dbcccc330190600090a150565b80158061385d5750604051636eb1769f60e11b81523060048201526001600160a01b03838116602483015284169063dd62ed3e90604401602060405180830381865afa158015613837573d6000803e3d6000fd5b505050506040513d601f19601f8201168201806040525081019061385b91906157e2565b155b6138c85760405162461bcd60e51b815260206004820152603660248201527f5361666545524332303a20617070726f76652066726f6d206e6f6e2d7a65726f60448201527520746f206e6f6e2d7a65726f20616c6c6f77616e636560501b606482015260840161113d565b6040516001600160a01b0383166024820152604481018290526110cc90849063095ea7b360e01b906064015b60408051601f198184030181529190526020810180516001600160e01b03166001600160e01b031990931692909217909152614ad5565b613933614baa565b6001805460ff191690557f5db9ee0a495bf2e6ff9c91a7834c1ba4fdd244a5e8aa4e537bd38aeae4b073aa335b60405161396d91906155c3565b60405180910390a1565b60015460ff16156139bd5760405162461bcd60e51b815260206004820152601060248201526f14185d5cd8589b194e881c185d5cd95960821b604482015260640161113d565b565b6139e0846323b872dd60e01b8585856040516024016138f4939291906157be565b50505050565b60007812725dd1d243aba0e75fe645cc4873f9e65afe688c928e1f218311670de0b6b3a764000002158202613a235763bcbede656000526004601cfd5b50670de0b6b3a7640000919091020490565b60008160070b138015613a535750670de0b6b3a7640000600782900b125b80613a695750670de0b6b8c1e505ce600782900b135b15613a875760405163947800ab60e01b815260040160405180910390fd5b6005805467ffffffffffffffff19166001600160401b038316179055604051600782900b81527fcb1621676ff5c8c9deff7ffc0af9b2c296851bc5b191381ac07d97e82ec03fe69060200160405180910390a150565b6000806000846000015160070b1215613be2576001600160401b037f000000000000000000000000000000000000000000000000000000000000000081811691604082901c1690670de0b6b3a764000064ffffffffff608083901c811682019260a881901c821683019260d09190911c909116016000613b5d8a8a61436c565b905084811115613b6a5750835b858111613b9e57613b8d613b87613b818685615749565b886139e6565b82613634565b613b97908561575c565b9650613bd7565b613bca613bc0613bae8486615749565b6123be89670de0b6b3a7640000615749565b6123af8884615749565b613bd4908361575c565b96505b505050505050613be6565b5082515b6123c88482614bf3565b613bf8615337565b600080613c0589886142fd565b60608c015190915087151580613c2d5750856001600160401b0316876001600160401b031614155b15613c7857613c49866001600160401b03166123af8b8b6142fd565b613c5c886001600160401b03168b613634565b8d60600151613c6b9190615749565b613c75919061575c565b90505b60008a15613cbd57613cb8613cb2613c948f606001518e6139e6565b8f604001518f613ca491906158c3565b6001600160401b0316613634565b84613634565b613cc0565b60005b90506000866001600160801b0316828f60800151613cde919061575c565b613ce89190615749565b90506040518060a001604052808f6000015160070b8152602001426001600160401b031681526020018e6001600160401b03168152602001848152602001828152509550505089600014613d7b57613d76613d70613d4a8e606001518d6139e6565b613d5c90670de0b6b3a7640000615749565b8e604001518760400151613ca491906158c3565b8b613634565b613d7e565b60005b925050509850989650505050505050565b6000613dbb613db585602001516001600160401b0316866000015186613ca491906158c3565b83613634565b84604001516123c891906158e3565b613dd2614c31565b42600255565b6000806000613de5612baa565b604080516060810182526009546001600160801b03811682526001600160401b03600160801b820481166020840152600160c01b90910416918101919091529091506000613e31611154565b9050613e3b6152de565b838152600a546020820181905283516001600160801b031660a0830152670de0b6b3a764000060e0830152600090613e74908690613add565b600080516020615a3a833981519152546000818152601560209081526040808320838052909152902054919250905b8984606001511015613ff857811580613ebb57508a82115b613ff85760008281526013602052604090205460ff161580613edb575080155b15613f0f57506000908152601460209081526040808320600101548084526015835281842084805290925290912054613ea3565b6000828152601560209081526040808320848452909152902054818103613f365750613ff8565b6001600160a01b03821660009081526012602090815260408083208151808301909252805482526001015491810182905284929091613f77908490896144a2565b9050613f838987613634565b60c08901526060880151613f97908f615749565b610100890152602082015181516040830151613fd892613fc19290916001600160801b0316614275565b835160208d01518c906001600160401b0316614295565b15613fec57613fe9888383866144e1565b97505b83945050505050613ea3565b614015846000015185608001518660200151888a6040015161471b565b506020840151600a5560608401518a1461404257604051633e6c5e0f60e01b815260040160405180910390fd5b8360600151846040015198509850505050505050509250929050565b60008061406c858585614275565b905080158015906141505750866001600160401b031661414e7f0000000000000000000000000000000000000000000000000000000000000000887f00000000000000000000000000000000000000000000000000000000000000006001600160a01b03166370a08231306040518263ffffffff1660e01b81526004016140f391906155c3565b602060405180830381865afa158015614110573d6000803e3d6000fd5b505050506040513d601f19601f8201168201806040525081019061413491906157e2565b61413e919061576f565b614148919061579c565b836139e6565b105b1561415f576001915050614165565b60009150505b95945050505050565b6040805180820190915260008082526020820152855161418e90856142fd565b8652602086015161419f90846142fd565b60208701819052158015906141d857506009546020870151865160408801516001600160801b03938416936141d693929116614275565b105b156141f657604051634b2c23a160e11b815260040160405180910390fd5b6001600160a01b038716600081815260126020908152604090912088518155908801516001909101557f71671d6112ff9270f1553ebc8fbf767a3221090f1002c7047475b6fa8f5801cd858561424c86826142fd565b6040805193845260208401929092529082015260600160405180910390a2509395945050505050565b60008161428b85856001600160401b0316613634565b6123c89190615749565b600084826142a3858761576f565b6142ad919061579c565b101595945050505050565b8082036000821380156142ca57508281115b806142df57506000821280156142df57508281105b15610aba5760405163e942b9ed60e01b815260040160405180910390fd5b81810160008213801561430f57508281105b80614324575060008212801561432457508281115b15610aba576040516354012a2960e11b815260040160405180910390fd5b6000670de0b6b3a76400006143578484614c6c565b8161436457614364615786565b059392505050565b6000806143828385604001518660800151614275565b905080156144375761443281600b547f00000000000000000000000000000000000000000000000000000000000000006001600160a01b0316631c3536e7306040518263ffffffff1660e01b81526004016143dd91906155c3565b602060405180830381865afa1580156143fa573d6000803e3d6000fd5b505050506040513d601f19601f8201168201806040525081019061441e91906157e2565b614428908561575c565b6123be9190615749565b6123c8565b6000949350505050565b6000600160401b8210614467576040516302217c1560e11b815260040160405180910390fd5b5090565b6144736152be565b81516001600160401b031660000361446757600060208301819052670de0b6b3a7640000835260408301525090565b6144aa6152be565b6144b38461265c565b90506144c0818385613d8f565b6001600160801b031660408201526001600160401b03909116815292915050565b6144e96152de565b6000806000806000614511896020015189600001518a604001516001600160801b0316614275565b905060006145288b61010001518c60e00151613634565b905061458e8183118015614548575060a08c01516145468385615749565b105b61455f5761455a838d60e001516139e6565b61457c565b61457c8c60a00151846145729190615749565b8d60e001516139e6565b6117c98c600001518e60c00151614cb5565b6101008c01519091508181118183180218955060006145b1878d60e00151613634565b90506145c281848c604001516147ec565b6001600160801b0390811660408d01528b519195506145e49183918716614ceb565b94506145f4878d60c001516139e6565b8b51909650861115614605578a5195505b8a51861480156146185750848b60200151115b15614644576146278184615749565b8c61012001818151614639919061575c565b90525060208b015194505b505050600089602001519050600061467c888c600001518b858e6020015161466b8a614a56565b61467490615863565b896000614837565b908c5290506146b1888b8b61469089614a56565b61469990615863565b6146a289614a56565b6146ab90615863565b8761416e565b50838b6020018181516146c49190615749565b90525060408b0180518691906146db90839061575c565b90525060608b0180518791906146f290839061575c565b90525060808b01805182919061470990839061575c565b905250999a9950505050505050505050565b600061473282848689604001518a60800151614d27565b61473b86613755565b61474485614d59565b9695505050505050565b6040516001600160a01b0383166024820152604481018290526110cc90849063a9059cbb60e01b906064016138f4565b6000816000036147a15760405163ee7efd5760e01b815260040160405180910390fd5b6000828152602084905260409020541515806147cd575060008281526020849052604090206001015415155b8061241757505060008080526020929092526040909120600101541490565b60008184158015906147fd57508315155b1561482f57836148166001600160801b0385168761576f565b614820919061579c565b915061482c8282615903565b90505b935093915050565b61483f615337565b60208781015160008b815260169092526040822054614883908c906148648a8a6142fd565b6001600160401b038816156148795787614dac565b8c60200151614dac565b6001600160401b031660208a015261489b8b8a614df2565b6148b38a8a600001518a8a8a868f602001518c613bf0565b909c909b509950505050505050505050565b60008082126148d45781610aba565b600092915050565b6000806000806000807f00000000000000000000000000000000000000000000000000000000000000006001600160a01b0316635e5c06e2306040518263ffffffff1660e01b815260040161493191906155c3565b6040805180830381865afa15801561494d573d6000803e3d6000fd5b505050506040513d601f19601f82011682018060405250810190614971919061587f565b9150915061497e826148c5565b935061498a8282614e8c565b92506000614996612baa565b600a5490915060006149ba836149ac8185613add565b846000806000806000613bf0565b909350905060006149e78483856149cf611154565b600954600160c01b90046001600160401b031661471b565b90506149fc8385604001518660800151614275565b614a068c8a61575c565b614a10919061575c565b995080614a1c87614eb4565b614a26919061575c565b9850888a1015614a495760405163702fbbed60e01b815260040160405180910390fd5b5050505050509193509193565b6000600160ff1b821061446757604051632db27c5360e01b815260040160405180910390fd5b614a868282611d2b565b61115057614a9381614ecb565b614a9e836020614edd565b604051602001614aaf929190615947565b60408051601f198184030181529082905262461bcd60e51b825261113d916004016159b6565b6000614b2a826040518060400160405280602081526020017f5361666545524332303a206c6f772d6c6576656c2063616c6c206661696c6564815250856001600160a01b03166150789092919063ffffffff16565b9050805160001480614b4b575080806020019051810190614b4b91906159e9565b6110cc5760405162461bcd60e51b815260206004820152602a60248201527f5361666545524332303a204552433230206f7065726174696f6e20646964206e6044820152691bdd081cdd58d8d9595960b21b606482015260840161113d565b60015460ff166139bd5760405162461bcd60e51b815260206004820152601460248201527314185d5cd8589b194e881b9bdd081c185d5cd95960621b604482015260640161113d565b600061241783604001516001600160401b03166123af846001600160401b031686602001516001600160401b03164203670de0b6b3a7640000615087565b614c39613977565b6001805460ff1916811790557f62e78cea01bee320cd4e420270b5ea74000d11b0c9f74754ebdbfc544b05a25833613960565b8181026000831280614c9757508115801590614c97575082828281614c9357614c93615786565b0514155b15610aba57604051631eed389360e01b815260040160405180910390fd5b600081600019048311820215614cd35763c4c5d7f56000526004601cfd5b50670de0b6b3a7640000910281810615159190040190565b6000614d09614cfa838661575c565b846001600160401b03166139e6565b905083614d17828585614275565b1015612417576001019392505050565b614d34858585858561405e565b15614d5257604051632ce9f52360e01b815260040160405180910390fd5b5050505050565b6000614d63613977565b614d8d827f0000000000000000000000000000000000000000000000000000000000000000613634565b600b6000828254614d9e919061575c565b92505081905590505b919050565b808315801590614dbd575082601754115b156123c8576000848152601560205260409020614dda9086612d12565b50505060009182525060166020526040812081905590565b6001600160a01b0382166000908152600860209081526040918290208351815492850151848601516001600160801b03908116600160801b026001600160401b03928316600160401b026001600160801b031990961692909316919091179390931792909216919091179055517f4fd60289e0d86501846be34d5f370dc28945d66ca81804a5f84e0e7c017c73a290610bf49084906155c3565b600080614e9883615863565b905080841261443757614eab84826158a3565b61443290615863565b60008082136148d457614ec682615863565b610aba565b6060610aba6001600160a01b03831660145b60606000614eec83600261576f565b614ef790600261575c565b6001600160401b03811115614f0e57614f0e6154d8565b6040519080825280601f01601f191660200182016040528015614f38576020820181803683370190505b509050600360fc1b81600081518110614f5357614f536157fb565b60200101906001600160f81b031916908160001a905350600f60fb1b81600181518110614f8257614f826157fb565b60200101906001600160f81b031916908160001a9053506000614fa684600261576f565b614fb190600161575c565b90505b6001811115615029576f181899199a1a9b1b9c1cb0b131b232b360811b85600f1660108110614fe557614fe56157fb565b1a60f81b828281518110614ffb57614ffb6157fb565b60200101906001600160f81b031916908160001a90535060049490941c9361502281615a06565b9050614fb4565b5083156124175760405162461bcd60e51b815260206004820181905260248201527f537472696e67733a20686578206c656e67746820696e73756666696369656e74604482015260640161113d565b60606123c88484600085615145565b60008280156151395784801561512e576001851680156150a9578693506150ad565b8493505b50600284046002860495505b8515615128578687028760801c156150d057600080fd5b818101818110156150e057600080fd5b869004975050600186161561511d57868402848882041415881515161561510657600080fd5b8181018181101561511657600080fd5b8690049450505b6002860495506150b9565b50615133565b600092505b5061513d565b8291505b509392505050565b6060824710156151a65760405162461bcd60e51b815260206004820152602660248201527f416464726573733a20696e73756666696369656e742062616c616e636520666f6044820152651c8818d85b1b60d21b606482015260840161113d565b600080866001600160a01b031685876040516151c29190615a1d565b60006040518083038185875af1925050503d80600081146151ff576040519150601f19603f3d011682016040523d82523d6000602084013e615204565b606091505b509150915061521587838387615220565b979650505050505050565b6060831561528f578251600003615288576001600160a01b0385163b6152885760405162461bcd60e51b815260206004820152601d60248201527f416464726573733a2063616c6c20746f206e6f6e2d636f6e7472616374000000604482015260640161113d565b50816123c8565b6123c883838151156152a45781518083602001fd5b8060405162461bcd60e51b815260040161113d91906159b6565b604080516060810182526000808252602082018190529181019190915290565b6040518061014001604052806152f2615337565b81526020016000815260200160008152602001600081526020016000815260200160008152602001600081526020016000815260200160008152602001600081525090565b6040805160a08101825260008082526020820181905291810182905260608101829052608081019190915290565b6040518060a0016040528060008152602001600081526020016000815260200160006001600160801b0316815260200160006001600160801b031681525090565b6000602082840312156153b857600080fd5b81356001600160e01b03198116811461241757600080fd5b80356001600160a01b0381168114614da757600080fd5b600080604083850312156153fa57600080fd5b8235915061540a602084016153d0565b90509250929050565b60006020828403121561542557600080fd5b5035919050565b8015158114611d0557600080fd5b6000806040838503121561544d57600080fd5b615456836153d0565b915060208301356154668161542c565b809150509250929050565b6000806040838503121561548457600080fd5b50508035926020909101359150565b6000602082840312156154a557600080fd5b612417826153d0565b600080604083850312156154c157600080fd5b6154ca836153d0565b946020939093013593505050565b634e487b7160e01b600052604160045260246000fd5b600082601f8301126154ff57600080fd5b813560206001600160401b038083111561551b5761551b6154d8565b8260051b604051601f19603f83011681018181108482111715615540576155406154d8565b60405293845285810183019383810192508785111561555e57600080fd5b83870191505b8482101561521557813583529183019190830190615564565b6000806040838503121561559057600080fd5b8235915060208301356001600160401b038111156155ad57600080fd5b6155b9858286016154ee565b9150509250929050565b6001600160a01b0391909116815260200190565b6000806000606084860312156155ec57600080fd5b6155f5846153d0565b9250615603602085016153d0565b915060408401356156138161542c565b809150509250925092565b600080600080600060a0868803121561563657600080fd5b61563f866153d0565b945061564d602087016153d0565b935061565b604087016153d0565b94979396509394606081013594506080013592915050565b6000806040838503121561568657600080fd5b61568f836153d0565b915061540a602084016153d0565b6000806000604084860312156156b257600080fd5b83356001600160401b03808211156156c957600080fd5b818601915086601f8301126156dd57600080fd5b8135818111156156ec57600080fd5b8760208260051b850101111561570157600080fd5b60209283019550935090850135908082111561571c57600080fd5b50615729868287016154ee565b9150509250925092565b634e487b7160e01b600052601160045260246000fd5b81810381811115610aba57610aba615733565b80820180821115610aba57610aba615733565b8082028115828204841417610aba57610aba615733565b634e487b7160e01b600052601260045260246000fd5b6000826157b957634e487b7160e01b600052601260045260246000fd5b500490565b6001600160a01b039384168152919092166020820152604081019190915260600190565b6000602082840312156157f457600080fd5b5051919050565b634e487b7160e01b600052603260045260246000fd5b6001600160a01b039485168152928416602084015292166040820152901515606082015260800190565b808201828112600083128015821682158216171561585b5761585b615733565b505092915050565b6000600160ff1b820161587857615878615733565b5060000390565b6000806040838503121561589257600080fd5b505080516020909101519092909150565b8181036000831280158383131683831282161715610d8057610d80615733565b6001600160401b03828116828216039080821115610d8057610d80615733565b6001600160801b03818116838216019080821115610d8057610d80615733565b6001600160801b03828116828216039080821115610d8057610d80615733565b60005b8381101561593e578181015183820152602001615926565b50506000910152565b76020b1b1b2b9b9a1b7b73a3937b61d1030b1b1b7bab73a1604d1b815260008351615979816017850160208801615923565b7001034b99036b4b9b9b4b733903937b6329607d1b60179184019182015283516159aa816028840160208801615923565b01602801949350505050565b60208152600082518060208401526159d5816040850160208701615923565b601f01601f19169190910160400192915050565b6000602082840312156159fb57600080fd5b81516124178161542c565b600081615a1557615a15615733565b506000190190565b60008251615a2f818460208701615923565b919091019291505056fe4f26c3876aa9f4b92579780beea1161a61f87ebf1ec6ee865b299e447ecba99da2646970667358221220e1a915f88d2cbe02b67abeff0e8bb63ee881f1836d5aa9f8293ec5dff979c29064736f6c63430008130033",
    "linkReferences": {}
  },
  "methodIdentifiers": {
    "DEFAULT_ADMIN_ROLE()": "a217fddf",
    "EPOCH_DURATION()": "a70b9f0c",
    "EPOCH_FIX_DELAY()": "472132f0",
    "EPOCH_FIX_TIMEOUT()": "19f1039c",
    "activeLimitPriceTicks(uint256)": "683f81a1",
    "addLimitPriceTick(uint256,uint256)": "44a3c664",
    "buffer()": "edaafe20",
    "calculateRebateFactorForPriceTick(uint256)": "cb6238c8",
    "cancelLimitOrder()": "2202ce8c",
    "cash(address)": "b6dc16f6",
    "cdm()": "e2dfb317",
    "claimFees()": "d294f093",
    "claimUndelegatedCredit(uint256)": "2b2368a2",
    "createLimitOrder(uint256)": "2906f94e",
    "creditWithholder()": "bf404a41",
    "delegateCredit(uint256)": "93f9eb35",
    "deposit(address,uint256)": "47e7ef24",
    "enterEmergencyMode()": "9844afd2",
    "epochs(uint256)": "c6b61e4c",
    "exchange(uint256,uint256)": "d4b7eac3",
    "exchangePreview(uint256,uint256)": "88439aea",
    "getCurrentEpoch()": "b97dd9e2",
    "getGlobalIRS()": "eb953449",
    "getLimitOrder(uint256,uint256)": "2af8992b",
    "getPositionIRS(address)": "dbe6b31c",
    "getPriceTick(uint256)": "51f813ec",
    "getRoleAdmin(bytes32)": "248a9ca3",
    "grantRole(bytes32,address)": "2f2ff15d",
    "hasPermission(address,address)": "cde68041",
    "hasRole(bytes32,address)": "91d14854",
    "limitOrderFloor()": "dc2ec249",
    "limitOrders(uint256)": "a3e2b495",
    "liquidatePositions(address[],uint256[])": "df10f687",
    "liquidationConfig()": "1c580ad5",
    "modifyCollateralAndDebt(address,address,address,int256,int256)": "c75a4b5e",
    "modifyPermission(address,address,bool)": "8309dbdd",
    "modifyPermission(address,bool)": "d9c70f57",
    "oracle()": "7dc0d1d0",
    "pause()": "8456cb59",
    "paused()": "5c975abb",
    "pausedAt()": "2e55d0f2",
    "positions(address)": "55f57510",
    "protocolFee()": "b0e21e8a",
    "removeLimitPriceTick(uint256)": "ef0563fb",
    "renounceRole(bytes32,address)": "36568abe",
    "revokeRole(bytes32,address)": "d547741f",
    "setParameter(bytes32,uint256)": "723507be",
    "setPermissionAgent(address,bool)": "280c37ef",
    "setUp(address)": "3f2601ef",
    "shares(address)": "ce7c2ac2",
    "sharesQueuedByEpoch(uint256,address)": "14815a6d",
    "spotPrice()": "398482d8",
    "supportsInterface(bytes4)": "01ffc9a7",
    "token()": "fc0c546a",
    "tokenScale()": "342c02b1",
    "totalAccruedFees()": "ba95534c",
    "totalCreditClaimable()": "5fe83c7b",
    "totalNormalDebt()": "842c311e",
    "totalShares()": "3a98ef39",
    "undelegateCredit(uint256,uint256[])": "6e5e741e",
    "unpause()": "3f4ba83a",
    "vaultConfig()": "7cc34bb4",
    "virtualIRS(address)": "8051ba75",
    "withdraw(address,uint256)": "f3fef3a3"
  },
  "id": 90
}