{
  "abi": [
    {
      "inputs": [
        {
          "internalType": "address",
          "name": "factory",
          "type": "address"
        }
      ],
      "stateMutability": "nonpayable",
      "type": "constructor"
    },
    {
      "inputs": [],
      "name": "CDPVault__addLimitPriceTick_invalidPriceTickOrder",
      "type": "error"
    },
    {
      "inputs": [],
      "name": "CDPVault__addLimitPriceTick_limitPriceTickOutOfRange",
      "type": "error"
    },
    {
      "inputs": [],
      "name": "CDPVault__cancelLimitOrder_limitOrderDoesNotExist",
      "type": "error"
    },
    {
      "inputs": [],
      "name": "CDPVault__checkEmergencyMode_entered",
      "type": "error"
    },
    {
      "inputs": [],
      "name": "CDPVault__createLimitOrder_limitOrderAlreadyExists",
      "type": "error"
    },
    {
      "inputs": [],
      "name": "CDPVault__createLimitOrder_limitOrderFloor",
      "type": "error"
    },
    {
      "inputs": [],
      "name": "CDPVault__createLimitOrder_limitPriceTickNotActive",
      "type": "error"
    },
    {
      "inputs": [],
      "name": "CDPVault__exchange_notEnoughExchanged",
      "type": "error"
    },
    {
      "inputs": [],
      "name": "CDPVault__liquidatePosition_notUnsafe",
      "type": "error"
    },
    {
      "inputs": [],
      "name": "CDPVault__liquidatePositions_argLengthMismatch",
      "type": "error"
    },
    {
      "inputs": [],
      "name": "CDPVault__modifyCollateralAndDebt_maxUtilizationRatio",
      "type": "error"
    },
    {
      "inputs": [],
      "name": "CDPVault__modifyCollateralAndDebt_noPermission",
      "type": "error"
    },
    {
      "inputs": [],
      "name": "CDPVault__modifyCollateralAndDebt_notSafe",
      "type": "error"
    },
    {
      "inputs": [],
      "name": "CDPVault__modifyPosition_debtFloor",
      "type": "error"
    },
    {
      "inputs": [],
      "name": "CDPVault__setParameter_unrecognizedParameter",
      "type": "error"
    },
    {
      "inputs": [],
      "name": "IdIsZero",
      "type": "error"
    },
    {
      "inputs": [],
      "name": "InterestRateModel__setBaseRate_invalidBaseRate",
      "type": "error"
    },
    {
      "inputs": [],
      "name": "ItemInList",
      "type": "error"
    },
    {
      "inputs": [],
      "name": "ItemNotInList",
      "type": "error"
    },
    {
      "inputs": [],
      "name": "Math__add_overflow_signed",
      "type": "error"
    },
    {
      "inputs": [],
      "name": "Math__mul_overflow_signed",
      "type": "error"
    },
    {
      "inputs": [],
      "name": "Math__sub_overflow_signed",
      "type": "error"
    },
    {
      "inputs": [],
      "name": "Math__toInt256_overflow",
      "type": "error"
    },
    {
      "inputs": [],
      "name": "Math__toUint64_overflow",
      "type": "error"
    },
    {
      "inputs": [],
      "name": "Permission__modifyPermission_notPermitted",
      "type": "error"
    },
    {
      "anonymous": false,
      "inputs": [
        {
          "indexed": true,
          "internalType": "uint256",
          "name": "limitPriceTick",
          "type": "uint256"
        }
      ],
      "name": "AddLimitPriceTick",
      "type": "event"
    },
    {
      "anonymous": false,
      "inputs": [
        {
          "indexed": true,
          "internalType": "uint256",
          "name": "limitPriceTick",
          "type": "uint256"
        },
        {
          "indexed": true,
          "internalType": "address",
          "name": "maker",
          "type": "address"
        }
      ],
      "name": "CancelLimitOrder",
      "type": "event"
    },
    {
      "anonymous": false,
      "inputs": [
        {
          "indexed": true,
          "internalType": "uint256",
          "name": "limitPriceTick",
          "type": "uint256"
        },
        {
          "indexed": true,
          "internalType": "address",
          "name": "maker",
          "type": "address"
        }
      ],
      "name": "CreateLimitOrder",
      "type": "event"
    },
    {
      "anonymous": false,
      "inputs": [
        {
          "indexed": true,
          "internalType": "address",
          "name": "redeemer",
          "type": "address"
        },
        {
          "indexed": false,
          "internalType": "uint256",
          "name": "creditExchanged",
          "type": "uint256"
        },
        {
          "indexed": false,
          "internalType": "uint256",
          "name": "collateralRedeemed",
          "type": "uint256"
        }
      ],
      "name": "Exchange",
      "type": "event"
    },
    {
      "anonymous": false,
      "inputs": [
        {
          "indexed": true,
          "internalType": "uint256",
          "name": "limitPriceTick",
          "type": "uint256"
        },
        {
          "indexed": true,
          "internalType": "uint256",
          "name": "limitOrderId",
          "type": "uint256"
        },
        {
          "indexed": false,
          "internalType": "uint256",
          "name": "collateralRedeemed",
          "type": "uint256"
        },
        {
          "indexed": false,
          "internalType": "uint256",
          "name": "creditExchanged",
          "type": "uint256"
        }
      ],
      "name": "ExecuteLimitOrder",
      "type": "event"
    },
    {
      "anonymous": false,
      "inputs": [
        {
          "indexed": true,
          "internalType": "address",
          "name": "position",
          "type": "address"
        },
        {
          "indexed": false,
          "internalType": "uint256",
          "name": "collateralReleased",
          "type": "uint256"
        },
        {
          "indexed": false,
          "internalType": "uint256",
          "name": "normalDebtRepaid",
          "type": "uint256"
        },
        {
          "indexed": true,
          "internalType": "address",
          "name": "liquidator",
          "type": "address"
        }
      ],
      "name": "LiquidatePosition",
      "type": "event"
    },
    {
      "anonymous": false,
      "inputs": [
        {
          "indexed": true,
          "internalType": "address",
          "name": "position",
          "type": "address"
        },
        {
          "indexed": true,
          "internalType": "address",
          "name": "collateralizer",
          "type": "address"
        },
        {
          "indexed": true,
          "internalType": "address",
          "name": "creditor",
          "type": "address"
        },
        {
          "indexed": false,
          "internalType": "int256",
          "name": "deltaCollateral",
          "type": "int256"
        },
        {
          "indexed": false,
          "internalType": "int256",
          "name": "deltaNormalDebt",
          "type": "int256"
        }
      ],
      "name": "ModifyCollateralAndDebt",
      "type": "event"
    },
    {
      "anonymous": false,
      "inputs": [
        {
          "indexed": false,
          "internalType": "address",
          "name": "authorizer",
          "type": "address"
        },
        {
          "indexed": false,
          "internalType": "address",
          "name": "owner",
          "type": "address"
        },
        {
          "indexed": false,
          "internalType": "address",
          "name": "caller",
          "type": "address"
        },
        {
          "indexed": false,
          "internalType": "bool",
          "name": "grant",
          "type": "bool"
        }
      ],
      "name": "ModifyPermission",
      "type": "event"
    },
    {
      "anonymous": false,
      "inputs": [
        {
          "indexed": true,
          "internalType": "address",
          "name": "position",
          "type": "address"
        },
        {
          "indexed": false,
          "internalType": "int256",
          "name": "deltaCollateral",
          "type": "int256"
        },
        {
          "indexed": false,
          "internalType": "int256",
          "name": "deltaNormalDebt",
          "type": "int256"
        },
        {
          "indexed": false,
          "internalType": "uint256",
          "name": "totalNormalDebt",
          "type": "uint256"
        }
      ],
      "name": "ModifyPosition",
      "type": "event"
    },
    {
      "anonymous": false,
      "inputs": [
        {
          "indexed": false,
          "internalType": "address",
          "name": "account",
          "type": "address"
        }
      ],
      "name": "Paused",
      "type": "event"
    },
    {
      "anonymous": false,
      "inputs": [
        {
          "indexed": true,
          "internalType": "uint256",
          "name": "limitPriceTick",
          "type": "uint256"
        }
      ],
      "name": "RemoveLimitPriceTick",
      "type": "event"
    },
    {
      "anonymous": false,
      "inputs": [
        {
          "indexed": true,
          "internalType": "bytes32",
          "name": "role",
          "type": "bytes32"
        },
        {
          "indexed": true,
          "internalType": "bytes32",
          "name": "previousAdminRole",
          "type": "bytes32"
        },
        {
          "indexed": true,
          "internalType": "bytes32",
          "name": "newAdminRole",
          "type": "bytes32"
        }
      ],
      "name": "RoleAdminChanged",
      "type": "event"
    },
    {
      "anonymous": false,
      "inputs": [
        {
          "indexed": true,
          "internalType": "bytes32",
          "name": "role",
          "type": "bytes32"
        },
        {
          "indexed": true,
          "internalType": "address",
          "name": "account",
          "type": "address"
        },
        {
          "indexed": true,
          "internalType": "address",
          "name": "sender",
          "type": "address"
        }
      ],
      "name": "RoleGranted",
      "type": "event"
    },
    {
      "anonymous": false,
      "inputs": [
        {
          "indexed": true,
          "internalType": "bytes32",
          "name": "role",
          "type": "bytes32"
        },
        {
          "indexed": true,
          "internalType": "address",
          "name": "account",
          "type": "address"
        },
        {
          "indexed": true,
          "internalType": "address",
          "name": "sender",
          "type": "address"
        }
      ],
      "name": "RoleRevoked",
      "type": "event"
    },
    {
      "anonymous": false,
      "inputs": [
        {
          "indexed": false,
          "internalType": "int64",
          "name": "baseRate",
          "type": "int64"
        }
      ],
      "name": "SetBaseRate",
      "type": "event"
    },
    {
      "anonymous": false,
      "inputs": [],
      "name": "SetGlobalIRS",
      "type": "event"
    },
    {
      "anonymous": false,
      "inputs": [
        {
          "indexed": true,
          "internalType": "bytes32",
          "name": "parameter",
          "type": "bytes32"
        },
        {
          "indexed": false,
          "internalType": "uint256",
          "name": "data",
          "type": "uint256"
        }
      ],
      "name": "SetParameter",
      "type": "event"
    },
    {
      "anonymous": false,
      "inputs": [
        {
          "indexed": false,
          "internalType": "address",
          "name": "owner",
          "type": "address"
        },
        {
          "indexed": false,
          "internalType": "address",
          "name": "agent",
          "type": "address"
        },
        {
          "indexed": false,
          "internalType": "bool",
          "name": "grant",
          "type": "bool"
        }
      ],
      "name": "SetPermittedAgent",
      "type": "event"
    },
    {
      "anonymous": false,
      "inputs": [
        {
          "indexed": true,
          "internalType": "address",
          "name": "position",
          "type": "address"
        },
        {
          "indexed": false,
          "internalType": "uint256",
          "name": "snapshotRateAccumulator",
          "type": "uint256"
        },
        {
          "indexed": false,
          "internalType": "uint256",
          "name": "accruedRebate",
          "type": "uint256"
        },
        {
          "indexed": false,
          "internalType": "uint256",
          "name": "rebateFactor",
          "type": "uint256"
        }
      ],
      "name": "SetPositionIRS",
      "type": "event"
    },
    {
      "anonymous": false,
      "inputs": [
        {
          "indexed": false,
          "internalType": "address",
          "name": "account",
          "type": "address"
        }
      ],
      "name": "Unpaused",
      "type": "event"
    },
    {
      "inputs": [],
      "name": "DEFAULT_ADMIN_ROLE",
      "outputs": [
        {
          "internalType": "bytes32",
          "name": "",
          "type": "bytes32"
        }
      ],
      "stateMutability": "view",
      "type": "function"
    },
    {
      "inputs": [
        {
          "internalType": "uint256",
          "name": "priceTick",
          "type": "uint256"
        }
      ],
      "name": "activeLimitPriceTicks",
      "outputs": [
        {
          "internalType": "bool",
          "name": "isActive",
          "type": "bool"
        }
      ],
      "stateMutability": "view",
      "type": "function"
    },
    {
      "inputs": [
        {
          "internalType": "uint256",
          "name": "limitPriceTick",
          "type": "uint256"
        },
        {
          "internalType": "uint256",
          "name": "nextLimitPriceTick",
          "type": "uint256"
        }
      ],
      "name": "addLimitPriceTick",
      "outputs": [],
      "stateMutability": "nonpayable",
      "type": "function"
    },
    {
      "inputs": [],
      "name": "buffer",
      "outputs": [
        {
          "internalType": "contract IBuffer",
          "name": "",
          "type": "address"
        }
      ],
      "stateMutability": "view",
      "type": "function"
    },
    {
      "inputs": [
        {
          "internalType": "uint256",
          "name": "priceTick",
          "type": "uint256"
        }
      ],
      "name": "calculateRebateFactorForPriceTick",
      "outputs": [
        {
          "internalType": "uint64",
          "name": "",
          "type": "uint64"
        }
      ],
      "stateMutability": "view",
      "type": "function"
    },
    {
      "inputs": [],
      "name": "cancelLimitOrder",
      "outputs": [],
      "stateMutability": "nonpayable",
      "type": "function"
    },
    {
      "inputs": [
        {
          "internalType": "address",
          "name": "owner",
          "type": "address"
        }
      ],
      "name": "cash",
      "outputs": [
        {
          "internalType": "uint256",
          "name": "balance",
          "type": "uint256"
        }
      ],
      "stateMutability": "view",
      "type": "function"
    },
    {
      "inputs": [],
      "name": "cdm",
      "outputs": [
        {
          "internalType": "contract ICDM",
          "name": "",
          "type": "address"
        }
      ],
      "stateMutability": "view",
      "type": "function"
    },
    {
      "inputs": [],
      "name": "claimFees",
      "outputs": [
        {
          "internalType": "uint256",
          "name": "feesClaimed",
          "type": "uint256"
        }
      ],
      "stateMutability": "nonpayable",
      "type": "function"
    },
    {
      "inputs": [
        {
          "internalType": "uint256",
          "name": "limitPriceTick",
          "type": "uint256"
        }
      ],
      "name": "createLimitOrder",
      "outputs": [],
      "stateMutability": "nonpayable",
      "type": "function"
    },
    {
      "inputs": [
        {
          "internalType": "address",
          "name": "to",
          "type": "address"
        },
        {
          "internalType": "uint256",
          "name": "amount",
          "type": "uint256"
        }
      ],
      "name": "deposit",
      "outputs": [
        {
          "internalType": "uint256",
          "name": "cashAmount",
          "type": "uint256"
        }
      ],
      "stateMutability": "nonpayable",
      "type": "function"
    },
    {
      "inputs": [],
      "name": "enterEmergencyMode",
      "outputs": [],
      "stateMutability": "nonpayable",
      "type": "function"
    },
    {
      "inputs": [
        {
          "internalType": "uint256",
          "name": "upperLimitPriceTick",
          "type": "uint256"
        },
        {
          "internalType": "uint256",
          "name": "creditToExchange",
          "type": "uint256"
        }
      ],
      "name": "exchange",
      "outputs": [
        {
          "internalType": "uint256",
          "name": "creditExchanged",
          "type": "uint256"
        },
        {
          "internalType": "uint256",
          "name": "collateralExchanged",
          "type": "uint256"
        }
      ],
      "stateMutability": "nonpayable",
      "type": "function"
    },
    {
      "inputs": [
        {
          "internalType": "uint256",
          "name": "upperLimitPriceTick",
          "type": "uint256"
        },
        {
          "internalType": "uint256",
          "name": "creditToExchange",
          "type": "uint256"
        }
      ],
      "name": "exchangePreview",
      "outputs": [
        {
          "internalType": "uint256",
          "name": "creditExchanged",
          "type": "uint256"
        },
        {
          "internalType": "uint256",
          "name": "collateralExchanged",
          "type": "uint256"
        }
      ],
      "stateMutability": "nonpayable",
      "type": "function"
    },
    {
      "inputs": [],
      "name": "getGlobalIRS",
      "outputs": [
        {
          "components": [
            {
              "internalType": "int64",
              "name": "baseRate",
              "type": "int64"
            },
            {
              "internalType": "uint64",
              "name": "lastUpdated",
              "type": "uint64"
            },
            {
              "internalType": "uint64",
              "name": "rateAccumulator",
              "type": "uint64"
            },
            {
              "internalType": "uint256",
              "name": "averageRebate",
              "type": "uint256"
            },
            {
              "internalType": "uint256",
              "name": "globalAccruedRebate",
              "type": "uint256"
            }
          ],
          "internalType": "struct InterestRateModel.GlobalIRS",
          "name": "",
          "type": "tuple"
        }
      ],
      "stateMutability": "view",
      "type": "function"
    },
    {
      "inputs": [
        {
          "internalType": "uint256",
          "name": "priceTick",
          "type": "uint256"
        },
        {
          "internalType": "uint256",
          "name": "index",
          "type": "uint256"
        }
      ],
      "name": "getLimitOrder",
      "outputs": [
        {
          "internalType": "uint256",
          "name": "limitOrderId",
          "type": "uint256"
        }
      ],
      "stateMutability": "view",
      "type": "function"
    },
    {
      "inputs": [
        {
          "internalType": "address",
          "name": "position",
          "type": "address"
        }
      ],
      "name": "getPositionIRS",
      "outputs": [
        {
          "components": [
            {
              "internalType": "uint64",
              "name": "snapshotRateAccumulator",
              "type": "uint64"
            },
            {
              "internalType": "uint64",
              "name": "rebateFactor",
              "type": "uint64"
            },
            {
              "internalType": "uint128",
              "name": "accruedRebate",
              "type": "uint128"
            }
          ],
          "internalType": "struct InterestRateModel.PositionIRS",
          "name": "",
          "type": "tuple"
        }
      ],
      "stateMutability": "view",
      "type": "function"
    },
    {
      "inputs": [
        {
          "internalType": "uint256",
          "name": "index",
          "type": "uint256"
        }
      ],
      "name": "getPriceTick",
      "outputs": [
        {
          "internalType": "uint256",
          "name": "priceTick",
          "type": "uint256"
        },
        {
          "internalType": "bool",
          "name": "isActive",
          "type": "bool"
        }
      ],
      "stateMutability": "view",
      "type": "function"
    },
    {
      "inputs": [
        {
          "internalType": "bytes32",
          "name": "role",
          "type": "bytes32"
        }
      ],
      "name": "getRoleAdmin",
      "outputs": [
        {
          "internalType": "bytes32",
          "name": "",
          "type": "bytes32"
        }
      ],
      "stateMutability": "view",
      "type": "function"
    },
    {
      "inputs": [
        {
          "internalType": "bytes32",
          "name": "role",
          "type": "bytes32"
        },
        {
          "internalType": "address",
          "name": "account",
          "type": "address"
        }
      ],
      "name": "grantRole",
      "outputs": [],
      "stateMutability": "nonpayable",
      "type": "function"
    },
    {
      "inputs": [
        {
          "internalType": "address",
          "name": "owner",
          "type": "address"
        },
        {
          "internalType": "address",
          "name": "caller",
          "type": "address"
        }
      ],
      "name": "hasPermission",
      "outputs": [
        {
          "internalType": "bool",
          "name": "",
          "type": "bool"
        }
      ],
      "stateMutability": "view",
      "type": "function"
    },
    {
      "inputs": [
        {
          "internalType": "bytes32",
          "name": "role",
          "type": "bytes32"
        },
        {
          "internalType": "address",
          "name": "account",
          "type": "address"
        }
      ],
      "name": "hasRole",
      "outputs": [
        {
          "internalType": "bool",
          "name": "",
          "type": "bool"
        }
      ],
      "stateMutability": "view",
      "type": "function"
    },
    {
      "inputs": [],
      "name": "limitOrderFloor",
      "outputs": [
        {
          "internalType": "uint256",
          "name": "",
          "type": "uint256"
        }
      ],
      "stateMutability": "view",
      "type": "function"
    },
    {
      "inputs": [
        {
          "internalType": "uint256",
          "name": "limitOrderId",
          "type": "uint256"
        }
      ],
      "name": "limitOrders",
      "outputs": [
        {
          "internalType": "uint256",
          "name": "priceTick",
          "type": "uint256"
        }
      ],
      "stateMutability": "view",
      "type": "function"
    },
    {
      "inputs": [
        {
          "internalType": "address[]",
          "name": "owners",
          "type": "address[]"
        },
        {
          "internalType": "uint256[]",
          "name": "repayAmounts",
          "type": "uint256[]"
        }
      ],
      "name": "liquidatePositions",
      "outputs": [],
      "stateMutability": "nonpayable",
      "type": "function"
    },
    {
      "inputs": [],
      "name": "liquidationConfig",
      "outputs": [
        {
          "internalType": "uint64",
          "name": "liquidationPenalty",
          "type": "uint64"
        },
        {
          "internalType": "uint64",
          "name": "liquidationDiscount",
          "type": "uint64"
        },
        {
          "internalType": "uint64",
          "name": "targetHealthFactor",
          "type": "uint64"
        }
      ],
      "stateMutability": "view",
      "type": "function"
    },
    {
      "inputs": [
        {
          "internalType": "address",
          "name": "owner",
          "type": "address"
        },
        {
          "internalType": "address",
          "name": "collateralizer",
          "type": "address"
        },
        {
          "internalType": "address",
          "name": "creditor",
          "type": "address"
        },
        {
          "internalType": "int256",
          "name": "deltaCollateral",
          "type": "int256"
        },
        {
          "internalType": "int256",
          "name": "deltaNormalDebt",
          "type": "int256"
        }
      ],
      "name": "modifyCollateralAndDebt",
      "outputs": [],
      "stateMutability": "nonpayable",
      "type": "function"
    },
    {
      "inputs": [
        {
          "internalType": "address",
          "name": "owner",
          "type": "address"
        },
        {
          "internalType": "address",
          "name": "caller",
          "type": "address"
        },
        {
          "internalType": "bool",
          "name": "permitted",
          "type": "bool"
        }
      ],
      "name": "modifyPermission",
      "outputs": [],
      "stateMutability": "nonpayable",
      "type": "function"
    },
    {
      "inputs": [
        {
          "internalType": "address",
          "name": "caller",
          "type": "address"
        },
        {
          "internalType": "bool",
          "name": "permitted",
          "type": "bool"
        }
      ],
      "name": "modifyPermission",
      "outputs": [],
      "stateMutability": "nonpayable",
      "type": "function"
    },
    {
      "inputs": [],
      "name": "oracle",
      "outputs": [
        {
          "internalType": "contract IOracle",
          "name": "",
          "type": "address"
        }
      ],
      "stateMutability": "view",
      "type": "function"
    },
    {
      "inputs": [],
      "name": "pause",
      "outputs": [],
      "stateMutability": "nonpayable",
      "type": "function"
    },
    {
      "inputs": [],
      "name": "paused",
      "outputs": [
        {
          "internalType": "bool",
          "name": "",
          "type": "bool"
        }
      ],
      "stateMutability": "view",
      "type": "function"
    },
    {
      "inputs": [],
      "name": "pausedAt",
      "outputs": [
        {
          "internalType": "uint256",
          "name": "",
          "type": "uint256"
        }
      ],
      "stateMutability": "view",
      "type": "function"
    },
    {
      "inputs": [
        {
          "internalType": "address",
          "name": "owner",
          "type": "address"
        }
      ],
      "name": "positions",
      "outputs": [
        {
          "internalType": "uint256",
          "name": "collateral",
          "type": "uint256"
        },
        {
          "internalType": "uint256",
          "name": "normalDebt",
          "type": "uint256"
        }
      ],
      "stateMutability": "view",
      "type": "function"
    },
    {
      "inputs": [],
      "name": "protocolFee",
      "outputs": [
        {
          "internalType": "uint256",
          "name": "",
          "type": "uint256"
        }
      ],
      "stateMutability": "view",
      "type": "function"
    },
    {
      "inputs": [
        {
          "internalType": "uint256",
          "name": "limitPriceTick",
          "type": "uint256"
        }
      ],
      "name": "removeLimitPriceTick",
      "outputs": [],
      "stateMutability": "nonpayable",
      "type": "function"
    },
    {
      "inputs": [
        {
          "internalType": "bytes32",
          "name": "role",
          "type": "bytes32"
        },
        {
          "internalType": "address",
          "name": "account",
          "type": "address"
        }
      ],
      "name": "renounceRole",
      "outputs": [],
      "stateMutability": "nonpayable",
      "type": "function"
    },
    {
      "inputs": [
        {
          "internalType": "bytes32",
          "name": "role",
          "type": "bytes32"
        },
        {
          "internalType": "address",
          "name": "account",
          "type": "address"
        }
      ],
      "name": "revokeRole",
      "outputs": [],
      "stateMutability": "nonpayable",
      "type": "function"
    },
    {
      "inputs": [
        {
          "internalType": "bytes32",
          "name": "parameter",
          "type": "bytes32"
        },
        {
          "internalType": "uint256",
          "name": "data",
          "type": "uint256"
        }
      ],
      "name": "setParameter",
      "outputs": [],
      "stateMutability": "nonpayable",
      "type": "function"
    },
    {
      "inputs": [
        {
          "internalType": "address",
          "name": "agent",
          "type": "address"
        },
        {
          "internalType": "bool",
          "name": "permitted",
          "type": "bool"
        }
      ],
      "name": "setPermissionAgent",
      "outputs": [],
      "stateMutability": "nonpayable",
      "type": "function"
    },
    {
      "inputs": [],
      "name": "setUp",
      "outputs": [],
      "stateMutability": "nonpayable",
      "type": "function"
    },
    {
      "inputs": [],
      "name": "spotPrice",
      "outputs": [
        {
          "internalType": "uint256",
          "name": "",
          "type": "uint256"
        }
      ],
      "stateMutability": "nonpayable",
      "type": "function"
    },
    {
      "inputs": [
        {
          "internalType": "bytes4",
          "name": "interfaceId",
          "type": "bytes4"
        }
      ],
      "name": "supportsInterface",
      "outputs": [
        {
          "internalType": "bool",
          "name": "",
          "type": "bool"
        }
      ],
      "stateMutability": "view",
      "type": "function"
    },
    {
      "inputs": [],
      "name": "token",
      "outputs": [
        {
          "internalType": "contract IERC20",
          "name": "",
          "type": "address"
        }
      ],
      "stateMutability": "view",
      "type": "function"
    },
    {
      "inputs": [],
      "name": "tokenScale",
      "outputs": [
        {
          "internalType": "uint256",
          "name": "",
          "type": "uint256"
        }
      ],
      "stateMutability": "view",
      "type": "function"
    },
    {
      "inputs": [],
      "name": "totalAccruedFees",
      "outputs": [
        {
          "internalType": "uint256",
          "name": "",
          "type": "uint256"
        }
      ],
      "stateMutability": "view",
      "type": "function"
    },
    {
      "inputs": [],
      "name": "totalNormalDebt",
      "outputs": [
        {
          "internalType": "uint256",
          "name": "",
          "type": "uint256"
        }
      ],
      "stateMutability": "view",
      "type": "function"
    },
    {
      "inputs": [],
      "name": "unpause",
      "outputs": [],
      "stateMutability": "nonpayable",
      "type": "function"
    },
    {
      "inputs": [],
      "name": "vaultConfig",
      "outputs": [
        {
          "internalType": "uint128",
          "name": "debtFloor",
          "type": "uint128"
        },
        {
          "internalType": "uint64",
          "name": "liquidationRatio",
          "type": "uint64"
        },
        {
          "internalType": "uint64",
          "name": "globalLiquidationRatio",
          "type": "uint64"
        }
      ],
      "stateMutability": "view",
      "type": "function"
    },
    {
      "inputs": [
        {
          "internalType": "address",
          "name": "position",
          "type": "address"
        }
      ],
      "name": "virtualIRS",
      "outputs": [
        {
          "internalType": "uint64",
          "name": "rateAccumulator",
          "type": "uint64"
        },
        {
          "internalType": "uint256",
          "name": "accruedRebate",
          "type": "uint256"
        },
        {
          "internalType": "uint256",
          "name": "globalAccruedRebate",
          "type": "uint256"
        }
      ],
      "stateMutability": "view",
      "type": "function"
    },
    {
      "inputs": [
        {
          "internalType": "address",
          "name": "to",
          "type": "address"
        },
        {
          "internalType": "uint256",
          "name": "amount",
          "type": "uint256"
        }
      ],
      "name": "withdraw",
      "outputs": [
        {
          "internalType": "uint256",
          "name": "tokenAmount",
          "type": "uint256"
        }
      ],
      "stateMutability": "nonpayable",
      "type": "function"
    }
  ],
  "bytecode": {
    "object": "0x6101806040523480156200001257600080fd5b506040516200478838038062004788833981016040819052620000359162000101565b6001805460ff1916905560408051639a295e7360e01b8152905182916001600160a01b03831691639a295e73916004808201926101009290919082900301816000875af11580156200008b573d6000803e3d6000fd5b505050506040513d601f19601f82011682018060405250810190620000b1919062000128565b610160526101405261012052610100526001600160a01b0390811660e05290811660c05290811660a0521660805250620001b79050565b6001600160a01b0381168114620000fe57600080fd5b50565b6000602082840312156200011457600080fd5b81516200012181620000e8565b9392505050565b600080600080600080600080610100898b0312156200014657600080fd5b88516200015381620000e8565b60208a01519098506200016681620000e8565b60408a01519097506200017981620000e8565b60608a01519096506200018c81620000e8565b60808a015160a08b015160c08c015160e0909c01519a9d999c50979a91999098919650945092505050565b60805160a05160c05160e051610100516101205161014051610160516144ed6200029b600039600061186401526000818161179201526127bc01526000818161063701526138c80152600081816103de01528181610ee7015281816121c20152612d4901526000818161085101528181610cbf01528181610eb9015281816121f50152612d6b0152600081816108040152818161196c01526120320152600081816105510152610c920152600081816107810152818161166d015281816116f00152818161193d015281816119fa01528181611f76015261305501526144ed6000f3fe608060405234801561001057600080fd5b50600436106102c15760003560e01c8063842c311e1161017d578063d294f093116100d9578063df10f68711610092578063df10f68714610769578063e2dfb3171461077c578063eb953449146107a3578063edaafe20146107ff578063ef0563fb14610826578063f3fef3a314610839578063fc0c546a1461084c57600080fd5b8063d294f093146106d3578063d4b7eac3146106db578063d547741f146106ee578063d9c70f5714610701578063dbe6b31c14610714578063dc2ec2491461076057600080fd5b8063a3e2b49511610136578063a3e2b49514610612578063b0e21e8a14610632578063b6dc16f614610659578063ba95534c14610679578063c75a4b5e14610682578063cb6238c814610695578063cde68041146106c057600080fd5b8063842c311e146105cb5780638456cb59146105d457806388439aea146105dc57806391d14854146105ef5780639844afd214610602578063a217fddf1461060a57600080fd5b8063398482d81161022c5780635c975abb116101e55780635c975abb146104ad578063683f81a1146104b8578063723507be146104db5780637cc34bb4146104ee5780637dc0d1d01461054c5780638051ba75146105805780638309dbdd146105b857600080fd5b8063398482d8146104135780633f4ba83a1461041b57806344a3c6641461042357806347e7ef241461043657806351f813ec1461044957806355f575101461047157600080fd5b80632906f94e1161027e5780632906f94e146103975780632af8992b146103aa5780632e55d0f2146103bd5780632f2ff15d146103c6578063342c02b1146103d957806336568abe1461040057600080fd5b806301ffc9a7146102c65780630a9254e4146102ee5780631c580ad5146102f85780632202ce8c1461034b578063248a9ca314610353578063280c37ef14610384575b600080fd5b6102d96102d4366004613e9a565b610873565b60405190151581526020015b60405180910390f35b6102f66108aa565b005b601354610321906001600160401b0380821691600160401b8104821691600160801b9091041683565b604080516001600160401b03948516815292841660208401529216918101919091526060016102e5565b6102f6610904565b610376610361366004613ec4565b60009081526020819052604090206001015490565b6040519081526020016102e5565b6102f6610392366004613f02565b6109cd565b6102f66103a5366004613ec4565b610a44565b6103766103b8366004613f39565b610b7d565b61037660025481565b6102f66103d4366004613f5b565b610bcb565b6103767f000000000000000000000000000000000000000000000000000000000000000081565b6102f661040e366004613f5b565b610bf5565b610376610c78565b6102f6610d2f565b6102f6610431366004613f39565b610d69565b610376610444366004613f87565b610ea2565b61045c610457366004613ec4565b610f44565b604080519283529015156020830152016102e5565b61049861047f366004613fb1565b600d602052600090815260409020805460019091015482565b604080519283526020830191909152016102e5565b60015460ff166102d9565b6102d96104c6366004613ec4565b600e6020526000908152604090205460ff1681565b6102f66104e9366004613f39565b610fa0565b60095461051d906001600160801b038116906001600160401b03600160801b8204811691600160c01b90041683565b604080516001600160801b0390941684526001600160401b0392831660208501529116908201526060016102e5565b6105737f000000000000000000000000000000000000000000000000000000000000000081565b6040516102e59190613fcc565b61059361058e366004613fb1565b611204565b604080516001600160401b0390941684526020840192909252908201526060016102e5565b6102f66105c6366004613fe0565b611294565b610376600a5481565b6102f6611363565b6104986105ea366004613f39565b611395565b6102d96105fd366004613f5b565b6113b8565b6102f66113e1565b610376600081565b610376610620366004613ec4565b60116020526000908152604090205481565b6103767f000000000000000000000000000000000000000000000000000000000000000081565b610376610667366004613fb1565b600c6020526000908152604090205481565b610376600b5481565b6102f6610690366004614027565b611433565b6106a86106a3366004613ec4565b611848565b6040516001600160401b0390911681526020016102e5565b6102d96106ce36600461407c565b6118cf565b61037661191d565b6104986106e9366004613f39565b6119cb565b6102f66106fc366004613f5b565b611ad3565b6102f661070f366004613f02565b611af8565b610727610722366004613fb1565b611b5b565b6040805182516001600160401b03908116825260208085015190911690820152918101516001600160801b0316908201526060016102e5565b61037660125481565b6102f66107773660046140bc565b611bc6565b6105737f000000000000000000000000000000000000000000000000000000000000000081565b6107ab6120b4565b6040516102e59190600060a082019050825160070b825260208301516001600160401b0380821660208501528060408601511660408501525050606083015160608301526080830151608083015292915050565b6105737f000000000000000000000000000000000000000000000000000000000000000081565b6102f6610834366004613ec4565b61210b565b610376610847366004613f87565b61218d565b6105737f000000000000000000000000000000000000000000000000000000000000000081565b60006001600160e01b03198216637965db0b60e01b14806108a457506301ffc9a760e01b6001600160e01b03198316145b92915050565b60006108b46120b4565b905080602001516001600160401b03166000146108d057600080fd5b6108db60003361221c565b6001600160401b0342166020820152670de0b6b3a76400006040820152610901816122a0565b50565b336000818152601160205260408120549081900361093557604051630573b42560e51b815260040160405180910390fd5b600081815260106020526040902061094d908361232e565b600082815260116020908152604080832083905533808452600d909252822060010154600a546109999361097f610c78565b600954600160c01b90046001600160401b031660006123af565b505060405133915082907f6f36e2a381bc87c87bcc2043deb0a5cdf9a6d87eb14cbe13cf0f1fe39f324dd990600090a35050565b3360008181526004602090815260408083206001600160a01b03871680855290835292819020805460ff1916861515908117909155815194855291840192909252908201527f6501e8bfa2d3e686d62fe2c0c3275df594494583b0a63a70b7452d3eeb712bd6906060015b60405180910390a15050565b6000818152600e602052604090205460ff16610a735760405163da4b118b60e01b815260040160405180910390fd5b336000908152600d6020526040902060010154601254811015610aa9576040516305c0093760e21b815260040160405180910390fd5b3360008181526011602052604090205415610ad75760405163345c017d60e01b815260040160405180910390fd5b600081815260116020908152604080832086905585835260108083528184208480528084529184206001015493879052909152610b1591839061247a565b610b483383600a546000610b27610c78565b600954600160c01b90046001600160401b0316610b438a611848565b6123af565b505060405133915084907f85d7690ee90733d849878d2bbbd5bf047e442ce2d045c0308a58cfd2ce53031590600090a3505050565b6000828152601060209081526040808320838052909152812054905b828114610bc45760008481526010602090815260408083208584529091529020549150600101610b99565b5092915050565b600082815260208190526040902060010154610be681612547565b610bf0838361221c565b505050565b6001600160a01b0381163314610c6a5760405162461bcd60e51b815260206004820152602f60248201527f416363657373436f6e74726f6c3a2063616e206f6e6c792072656e6f756e636560448201526e103937b632b9903337b91039b2b63360891b60648201526084015b60405180910390fd5b610c748282612551565b5050565b604051632cbf04c160e01b81526000906001600160a01b037f00000000000000000000000000000000000000000000000000000000000000001690632cbf04c190610ce7907f000000000000000000000000000000000000000000000000000000000000000090600401613fcc565b6020604051808303816000875af1158015610d06573d6000803e3d6000fd5b505050506040513d601f19601f82011682018060405250810190610d2a91906141d5565b905090565b7f65d7a28e3265b37a6474929f336521b332c1681b933f6cb9f3376673440d862a610d5981612547565b610d616125b6565b506000600255565b610d71612602565b7ff96f3d6876b63665360200e15ed8964960110cbbd99e917fb50ad1e576f538ac610d9b81612547565b670de0b6b3a7640000831080610db957508268056bc75e2d63100000105b15610dd7576040516336bbc25960e01b815260040160405180910390fd5b60008052600f6020526000805160206144988339815191525480158015610dfd57508215155b80610e1a57508215801590610e1a575082841180610e1a57508281115b80610e3257506000838152600f602052604090205484105b15610e50576040516346b0cc7160e11b815260040160405180910390fd5b610e5c600f858561247a565b6000848152600e6020526040808220805460ff191660011790555185917f3907a47dfbf148deb99efcd854a68497cbdc2a2db8488083ecb842ad6bde91a891a250505050565b6000610eac612602565b610ee16001600160a01b037f00000000000000000000000000000000000000000000000000000000000000001633308561264a565b610f0b827f00000000000000000000000000000000000000000000000000000000000000006126a8565b6001600160a01b0384166000908152600c6020526040812080549293508392909190610f38908490614204565b90915550909392505050565b6000808052600f6020526000805160206144988339815191525490805b838114610f84576000838152600f60205260409020600101549250600101610f61565b50506000818152600e6020526040902054909260ff9091169150565b610fa8612602565b7f7e2be3cffb06427cbcb9b1d12d4b78adcf14a2bf640e9bbdeb54bb711b65ec71610fd281612547565b82683232b13a233637b7b960b91b0361100557600980546001600160801b0319166001600160801b0384161790556111c5565b826f6c69717569646174696f6e526174696f60801b03611049576009805467ffffffffffffffff60801b1916600160801b6001600160401b038516021790556111c5565b8275676c6f62616c4c69717569646174696f6e526174696f60501b0361108e57600980546001600160c01b0316600160c01b6001600160401b038516021790556111c5565b826e3634b6b4ba27b93232b9233637b7b960891b036110b15760128290556111c5565b8267626173655261746560c01b036110e2576110dd60001983146110d557826126f7565b6000196126f7565b6111c5565b82716c69717569646174696f6e50656e616c747960701b0361111f576013805467ffffffffffffffff19166001600160401b0384161790556111c5565b82721b1a5c5d5a59185d1a5bdb911a5cd8dbdd5b9d606a1b03611166576013805467ffffffffffffffff60401b1916600160401b6001600160401b038516021790556111c5565b82713a30b933b2ba2432b0b63a342330b1ba37b960711b036111ac576013805467ffffffffffffffff60801b1916600160801b6001600160401b038516021790556111c5565b604051638dd691e760e01b815260040160405180910390fd5b827f4327e67d6578eb2c9293fb22f9334006073ac1397c7100f5dd5adca09ad71c08836040516111f791815260200190565b60405180910390a2505050565b6000806000806112126120b4565b600a54909150611222828261279f565b945061123782868360008060008060006128b2565b506080810151935091506001600160a01b0386161561128b5761127f61125c87611b5b565b6001600160a01b0388166000908152600d60205260409020600101548790612a51565b6001600160801b031693505b50509193909250565b6001600160a01b03831633148015906112d157506001600160a01b038316600090815260046020908152604080832033845290915290205460ff16155b156112ef57604051638743d2ff60e01b815260040160405180910390fd5b6001600160a01b0383811660009081526003602090815260408083209386168352929052819020805460ff1916831515179055517fdcf2bd5a4c47afeb1792d170f6f5e6e528e30c6b546fffe62b697a11f8953b2b90611356903390869086908690614217565b60405180910390a1505050565b7f65d7a28e3265b37a6474929f336521b332c1681b933f6cb9f3376673440d862a61138d81612547565b610901612a8c565b60008033156113a357600080fd5b6113ad8484612a9a565b915091509250929050565b6000918252602082815260408084206001600160a01b0393909316845291905290205460ff1690565b6113e9612602565b6000806113f66000611204565b600954929450925061142691600160c01b90046001600160401b0316905061141c610c78565b600a548585612d20565b15610c7457610c74612a8c565b60008113806114425750600082125b8015611455575061145385336118cf565b155b806114725750600082138015611472575061147084336118cf565b155b8061148f575060008112801561148f575061148d83336118cf565b155b156114ad57604051634c26249960e01b815260040160405180910390fd5b6001600160a01b0385166000908152600d6020908152604080832081518083018352815481526001909101548184015281516060810183526009546001600160801b03811682526001600160401b03600160801b8204811695830195909552600160c01b900490931691830191909152600a54909261152a610c78565b905060008060006115498c8860200151878b888b6040015160006123af565b92509250925061155d8c88848c8c8a612e30565b9650600088138061156e5750600089125b80156115b157506115af6115988860200151846000015185604001516001600160801b0316612f37565b8851602089015187906001600160401b0316612f57565b155b156115cf57604051633f66923d60e01b815260040160405180910390fd5b6001600160a01b038b166000908152600c60205260409020546115f2908a612f7a565b6001600160a01b038c166000908152600c60205260409020556116158589612fbf565b945084600a819055506000816001600160801b031661164185604001516001600160401b03168b613004565b61164b9190614241565b905060008113156116dd57604051632b0b3a6f60e21b81526001600160a01b037f0000000000000000000000000000000000000000000000000000000000000000169063ac2ce9bc906116a69030908f908690600401614269565b600060405180830381600087803b1580156116c057600080fd5b505af11580156116d4573d6000803e3d6000fd5b50505050611771565b6000811215611771576001600160a01b037f00000000000000000000000000000000000000000000000000000000000000001663ac2ce9bc8c306117208561428d565b6040518463ffffffff1660e01b815260040161173e93929190614269565b600060405180830381600087803b15801561175857600080fd5b505af115801561176c573d6000803e3d6000fd5b505050505b60008913156117d9576000611786858861302e565b90506001600160401b037f000000000000000000000000000000000000000000000000000000000000000060401c16808211156117d6576040516329b823dd60e21b815260040160405180910390fd5b50505b8a6001600160a01b03168c6001600160a01b03168e6001600160a01b03167f7ce3e27b99e7e2e42f0ddcb6f6679a25081a5fd4ca991bcd05c45e54daa997088d8d604051611831929190918252602082015260400190565b60405180910390a450505050505050505050505050565b6000670de0b6b3a764000082101561186257506000919050565b7f00000000000000000000000000000000000000000000000000000000000000006001600160801b0381169060801c6118c76118c2670de0b6b3a76400006118b3856118ae838a6142a9565b613103565b6118bd9085614204565b6126a8565b613131565b949350505050565b6000816001600160a01b0316836001600160a01b0316148061191657506001600160a01b0380841660009081526003602090815260408083209386168352929052205460ff165b9392505050565b600b80546000909155604051632b0b3a6f60e21b81526001600160a01b037f0000000000000000000000000000000000000000000000000000000000000000169063ac2ce9bc906119969030907f0000000000000000000000000000000000000000000000000000000000000000908690600401614269565b600060405180830381600087803b1580156119b057600080fd5b505af11580156119c4573d6000803e3d6000fd5b5050505090565b6000806119d88484612a9a565b90925090508115611a6657604051632b0b3a6f60e21b81526001600160a01b037f0000000000000000000000000000000000000000000000000000000000000000169063ac2ce9bc90611a3390339030908790600401614269565b600060405180830381600087803b158015611a4d57600080fd5b505af1158015611a61573d6000803e3d6000fd5b505050505b8015611a9157336000908152600c602052604081208054839290611a8b908490614204565b90915550505b604080518381526020810183905233917f26981b9aefbb0f732b0264bd34c255e831001eb50b06bc85b32cc39e14389721910160405180910390a29250929050565b600082815260208190526040902060010154611aee81612547565b610bf08383612551565b3360008181526003602090815260408083206001600160a01b038716845290915290819020805460ff1916841515179055517fdcf2bd5a4c47afeb1792d170f6f5e6e528e30c6b546fffe62b697a11f8953b2b91610a3891819086908690614217565b611b63613df3565b6001600160a01b038216600090815260086020908152604091829020825160608101845290546001600160401b038082168352600160401b82041692820192909252600160801b9091046001600160801b0316918101919091526108a49061315b565b611bce612602565b80518214611bef576040516338f30c4b60e11b815260040160405180910390fd5b6000611bf96120b4565b60408051606080820183526009546001600160801b03811683526001600160401b03600160801b8083048216602080870191909152600160c01b909304821685870152855193840186526013548083168552600160401b810483169385019390935290910416928101929092529192506000611c73610c78565b9050611c7d613e13565b848152600a5460208201526009546001600160801b031660a0820152601354611cb7908390600160401b90046001600160401b0316613103565b60c08201526013546001600160401b031660e08201526020810151600090611ce090879061279f565b905060005b88811015611f095760008a8a83818110611d0157611d016142bc565b9050602002016020810190611d169190613fb1565b90506001600160a01b0381161580611d475750888281518110611d3b57611d3b6142bc565b60200260200101516000145b611f00576001600160a01b0381166000908152600d60209081526040808320815180830190925280548252600101549181018290529190611d8a90849087613192565b90506000611daa83602001518784604001516001600160801b0316612f37565b9050871580611dd15750611dd18184600001518a8d602001516001600160401b0316612f57565b15611def5760405163f87e38e960e01b815260040160405180910390fd5b6000806000611e18611e0587600001518d613103565b8e602001516001600160401b03166126a8565b905080611e328d604001516001600160401b031686613103565b611e3c91906142a9565b9150506000611e658d602001516001600160401b03168d602001516001600160401b0316613103565b90506000611e7b670de0b6b3a7640000836126a8565b611e968e604001516001600160401b03168d60e00151613103565b611ea091906142a9565b9050611eac83826126a8565b9350505050611ee78d8781518110611ec657611ec66142bc565b6020026020010151611edc838b60e001516126a8565b808218908211021890565b610100890152611ef9888585886131d1565b9750505050505b50600101611ce5565b50611f518260000151611f3284606001518560e00151670de0b6b3a76400006118ae91906142a9565b8460800151611f419190614204565b846020015186896040015161340b565b506020820151600a556060820151604051632b0b3a6f60e21b81526001600160a01b037f0000000000000000000000000000000000000000000000000000000000000000169163ac2ce9bc91611fae913391309190600401614269565b600060405180830381600087803b158015611fc857600080fd5b505af1158015611fdc573d6000803e3d6000fd5b505050604080840151336000908152600c60205291822080549193509190612005908490614204565b9091555050610120820151156120a957610120820151604051630bd0dedd60e21b815260048101919091527f00000000000000000000000000000000000000000000000000000000000000006001600160a01b031690632f437b74906024016020604051808303816000875af1158015612083573d6000803e3d6000fd5b505050506040513d601f19601f820116820180604052508101906120a791906141d5565b505b505050505050505050565b6120bc613e6c565b506040805160a081018252600554600781810b83526001600160401b03600160401b830481166020850152600160801b9092049091169282019290925260065460608201529054608082015290565b612113612602565b7ff96f3d6876b63665360200e15ed8964960110cbbd99e917fb50ad1e576f538ac61213d81612547565b6000828152600e60205260409020805460ff1916905561215e600f8361232e565b60405182907f343776161924dfe02a29fdf57e6087e2d25ca11fe703785a80632e9ab88c88a190600090a25050565b6000612197612602565b336000908152600c6020526040812080548492906121b69084906142a9565b909155506121e69050827f0000000000000000000000000000000000000000000000000000000000000000613103565b90506108a46001600160a01b037f000000000000000000000000000000000000000000000000000000000000000016848361343e565b61222682826113b8565b610c74576000828152602081815260408083206001600160a01b03851684529091529020805460ff1916600117905561225c3390565b6001600160a01b0316816001600160a01b0316837f2f8788117e7eff1d82e926ec794901d17c78024a50270940304540a733656f0d60405160405180910390a45050565b80516005805460208401516040808601516001600160401b03908116600160801b0267ffffffffffffffff60801b19938216600160401b026001600160801b03199095169190961617929092171692909217905560608201516006556080820151600755517f9334cbdde649ebcbf798eaa08c381dc574197dc53947470a9be908dbcccc330190600090a150565b60008181526020838152604091829020825180840190935280548352600101549082015261235c838361346e565b6123795760405163564e265760e11b815260040160405180910390fd5b60208082018051835160009081529590925260408086206001908101939093559251905185528285205591835282208281550155565b6123b7613e6c565b6123bf613df3565b60006123c96120b4565b92506123d48a611b5b565b915060006123e2848a61279f565b90506123ef83828c612a51565b6001600160801b031660408401526001600160401b0316825261242e6000881261241a576000612423565b6124238861428d565b8a84604001516134dc565b6001600160801b03166040840152905060006124508b85858c8e8d888c613527565b909450905061246b84826124648c8c612fbf565b8a8a61340b565b50509750975097945050505050565b612484838361346e565b156124a257604051631e2bbc4f60e11b815260040160405180910390fd5b80158015906124b857506124b6838261346e565b155b156124d65760405163564e265760e11b815260040160405180910390fd5b6000818152602084905260409020805490839055811580156125075750600082815260208590526040902060010154155b156125215760008281526020859052604090206001018390555b600081815260209490945260408085206001908101859055938552909320928355910155565b61090181336135b5565b61255b82826113b8565b15610c74576000828152602081815260408083206001600160a01b0385168085529252808320805460ff1916905551339285917ff6391f5c32d9c69d2a47ea670b442974b53935d1edc7fd64eb21e047a839171b9190a45050565b6125be61360e565b6001805460ff191690557f5db9ee0a495bf2e6ff9c91a7834c1ba4fdd244a5e8aa4e537bd38aeae4b073aa335b6040516125f89190613fcc565b60405180910390a1565b60015460ff16156126485760405162461bcd60e51b815260206004820152601060248201526f14185d5cd8589b194e881c185d5cd95960821b6044820152606401610c61565b565b6126a2846323b872dd60e01b85858560405160240161266b93929190614269565b60408051601f198184030181529190526020810180516001600160e01b03166001600160e01b031990931692909217909152613657565b50505050565b60007812725dd1d243aba0e75fe645cc4873f9e65afe688c928e1f218311670de0b6b3a7640000021582026126e55763bcbede656000526004601cfd5b50670de0b6b3a7640000919091020490565b60008160070b1380156127155750670de0b6b3a7640000600782900b125b8061272b5750670de0b6b8c1e505ce600782900b135b156127495760405163947800ab60e01b815260040160405180910390fd5b6005805467ffffffffffffffff19166001600160401b038316179055604051600782900b81527fcb1621676ff5c8c9deff7ffc0af9b2c296851bc5b191381ac07d97e82ec03fe69060200160405180910390a150565b6000806000846000015160070b12156128a4576001600160401b037f000000000000000000000000000000000000000000000000000000000000000081811691604082901c1690670de0b6b3a764000064ffffffffff608083901c811682019260a881901c821683019260d09190911c90911601600061281f8a8a61302e565b90508481111561282c5750835b8581116128605761284f61284961284386856142a9565b886126a8565b82613103565b6128599085614204565b9650612899565b61288c61288261287084866142a9565b6118bd89670de0b6b3a76400006142a9565b6118ae88846142a9565b6128969083614204565b96505b5050505050506128a8565b5082515b6118c7848261372c565b6128ba613e6c565b6000806128c78988612fbf565b60608c0151909150871515806128ef5750856001600160401b0316876001600160401b031614155b1561293a5761290b866001600160401b03166118ae8b8b612fbf565b61291e886001600160401b03168b613103565b8d6060015161292d91906142a9565b6129379190614204565b90505b60008a1561297f5761297a6129746129568f606001518e6126a8565b8f604001518f61296691906142d2565b6001600160401b0316613103565b84613103565b612982565b60005b90506000866001600160801b0316828f608001516129a09190614204565b6129aa91906142a9565b90506040518060a001604052808f6000015160070b8152602001426001600160401b031681526020018e6001600160401b03168152602001848152602001828152509550505089600014612a3d57612a38612a32612a0c8e606001518d6126a8565b612a1e90670de0b6b3a76400006142a9565b8e60400151876040015161296691906142d2565b8b613103565b612a40565b60005b925050509850989650505050505050565b6000612a7d612a7785602001516001600160401b031686600001518661296691906142d2565b83613103565b84604001516118c791906142f2565b612a9461376a565b42600255565b6000806000612aa76120b4565b604080516060810182526009546001600160801b03811682526001600160401b03600160801b820481166020840152600160c01b90910416918101919091529091506000612af3610c78565b9050612afd613e13565b838152600a546020820181905283516001600160801b031660a0830152670de0b6b3a764000060e0830152600090612b3690869061279f565b600080516020614498833981519152546000818152601060209081526040808320838052909152902054919250905b8984606001511015612cba57811580612b7d57508a82115b612cba576000828152600e602052604090205460ff161580612b9d575080155b15612bd157506000908152600f60209081526040808320600101548084526010835281842084805290925290912054612b65565b6000828152601060209081526040808320848452909152902054818103612bf85750612cba565b6001600160a01b0382166000908152600d602090815260408083208151808301909252805482526001015491810182905284929091612c3990849089613192565b9050612c458987613103565b60c08901526060880151612c59908f6142a9565b610100890152602082015181516040830151612c9a92612c839290916001600160801b0316612f37565b835160208d01518c906001600160401b0316612f57565b15612cae57612cab888383866131d1565b97505b83945050505050612b65565b612cd7846000015185608001518660200151888a6040015161340b565b506020840151600a5560608401518a14612d0457604051633e6c5e0f60e01b815260040160405180910390fd5b8360600151846040015198509850505050505050509250929050565b600080612d2e858585612f37565b90508015801590612e125750866001600160401b0316612e107f0000000000000000000000000000000000000000000000000000000000000000887f00000000000000000000000000000000000000000000000000000000000000006001600160a01b03166370a08231306040518263ffffffff1660e01b8152600401612db59190613fcc565b602060405180830381865afa158015612dd2573d6000803e3d6000fd5b505050506040513d601f19601f82011682018060405250810190612df691906141d5565b612e009190614312565b612e0a919061433f565b836126a8565b105b15612e21576001915050612e27565b60009150505b95945050505050565b60408051808201909152600080825260208201528551612e509085612fbf565b86526020860151612e619084612fbf565b6020870181905215801590612e9a57506009546020870151865160408801516001600160801b0393841693612e9893929116612f37565b105b15612eb857604051634b2c23a160e11b815260040160405180910390fd5b6001600160a01b0387166000818152600d6020908152604090912088518155908801516001909101557f71671d6112ff9270f1553ebc8fbf767a3221090f1002c7047475b6fa8f5801cd8585612f0e8682612fbf565b6040805193845260208401929092529082015260600160405180910390a2509395945050505050565b600081612f4d85856001600160401b0316613103565b6118c791906142a9565b60008482612f658587614312565b612f6f919061433f565b101595945050505050565b808203600082138015612f8c57508281115b80612fa15750600082128015612fa157508281105b156108a45760405163e942b9ed60e01b815260040160405180910390fd5b818101600082138015612fd157508281105b80612fe65750600082128015612fe657508281115b156108a4576040516354012a2960e11b815260040160405180910390fd5b6000670de0b6b3a764000061301984846137a5565b8161302657613026614329565b059392505050565b6000806130448385604001518660800151612f37565b905080156130f9576130f481600b547f00000000000000000000000000000000000000000000000000000000000000006001600160a01b0316631c3536e7306040518263ffffffff1660e01b815260040161309f9190613fcc565b602060405180830381865afa1580156130bc573d6000803e3d6000fd5b505050506040513d601f19601f820116820180604052508101906130e091906141d5565b6130ea9085614204565b6118bd91906142a9565b6118c7565b6000949350505050565b6000816000190483118202156131215763c4c5d7f56000526004601cfd5b50670de0b6b3a764000091020490565b6000600160401b8210613157576040516302217c1560e11b815260040160405180910390fd5b5090565b613163613df3565b81516001600160401b031660000361315757600060208301819052670de0b6b3a7640000835260408301525090565b61319a613df3565b6131a384611b5b565b90506131b0818385612a51565b6001600160801b031660408201526001600160401b03909116815292915050565b6131d9613e13565b6000806000806000613201896020015189600001518a604001516001600160801b0316612f37565b905060006132188b61010001518c60e00151613103565b905061327e8183118015613238575060a08c015161323683856142a9565b105b61324f5761324a838d60e001516126a8565b61326c565b61326c8c60a001518461326291906142a9565b8d60e001516126a8565b611edc8c600001518e60c001516137ee565b6101008c01519091508181118183180218955060006132a1878d60e00151613103565b90506132b281848c604001516134dc565b6001600160801b0390811660408d01528b519195506132d49183918716613824565b94506132e4878d60c001516126a8565b8b519096508611156132f5578a5195505b8a51861480156133085750848b60200151115b156133345761331781846142a9565b8c610120018181516133299190614204565b90525060208b015194505b505050600089602001519050600061336c888c600001518b858e6020015161335b8a613860565b6133649061428d565b896000613527565b908c5290506133a1888b8b61338089613860565b6133899061428d565b61339289613860565b61339b9061428d565b87612e30565b50838b6020018181516133b491906142a9565b90525060408b0180518691906133cb908390614204565b90525060608b0180518791906133e2908390614204565b90525060808b0180518291906133f9908390614204565b905250999a9950505050505050505050565b600061342282848689604001518a60800151613886565b61342b866122a0565b613434856138b8565b9695505050505050565b6040516001600160a01b038316602482015260448101829052610bf090849063a9059cbb60e01b9060640161266b565b6000816000036134915760405163ee7efd5760e01b815260040160405180910390fd5b6000828152602084905260409020541515806134bd575060008281526020849052604090206001015415155b8061191657505060008080526020929092526040909120600101541490565b60008184158015906134ed57508315155b1561351f57836135066001600160801b03851687614312565b613510919061433f565b915061351c8282614361565b90505b935093915050565b61352f613e6c565b60208781015160008b815260119092526040822054613573908c906135548a8a612fbf565b6001600160401b03881615613569578761390b565b8c6020015161390b565b6001600160401b031660208a015261358b8b8a613951565b6135a38a8a600001518a8a8a868f602001518c6128b2565b909c909b509950505050505050505050565b6135bf82826113b8565b610c74576135cc81613a00565b6135d7836020613a12565b6040516020016135e89291906143a5565b60408051601f198184030181529082905262461bcd60e51b8252610c6191600401614414565b60015460ff166126485760405162461bcd60e51b815260206004820152601460248201527314185d5cd8589b194e881b9bdd081c185d5cd95960621b6044820152606401610c61565b60006136ac826040518060400160405280602081526020017f5361666545524332303a206c6f772d6c6576656c2063616c6c206661696c6564815250856001600160a01b0316613bad9092919063ffffffff16565b90508051600014806136cd5750808060200190518101906136cd9190614447565b610bf05760405162461bcd60e51b815260206004820152602a60248201527f5361666545524332303a204552433230206f7065726174696f6e20646964206e6044820152691bdd081cdd58d8d9595960b21b6064820152608401610c61565b600061191683604001516001600160401b03166118ae846001600160401b031686602001516001600160401b03164203670de0b6b3a7640000613bbc565b613772612602565b6001805460ff1916811790557f62e78cea01bee320cd4e420270b5ea74000d11b0c9f74754ebdbfc544b05a258336125eb565b81810260008312806137d0575081158015906137d05750828282816137cc576137cc614329565b0514155b156108a457604051631eed389360e01b815260040160405180910390fd5b60008160001904831182021561380c5763c4c5d7f56000526004601cfd5b50670de0b6b3a7640000910281810615159190040190565b60006138426138338386614204565b846001600160401b03166126a8565b905083613850828585612f37565b1015611916576001019392505050565b6000600160ff1b821061315757604051632db27c5360e01b815260040160405180910390fd5b6138938585858585612d20565b156138b157604051632ce9f52360e01b815260040160405180910390fd5b5050505050565b60006138c2612602565b6138ec827f0000000000000000000000000000000000000000000000000000000000000000613103565b600b60008282546138fd9190614204565b92505081905590505b919050565b80831580159061391c575082601254115b156118c7576000848152601060205260409020613939908661232e565b50505060009182525060116020526040812081905590565b6001600160a01b0382166000818152600860209081526040918290208451815486840151878601516001600160801b03908116600160801b81026001600160401b03938416600160401b81026001600160801b031990961694909616938417949094179190911692909217909355845192835292820192909252918201527f491dea4b757c9c18e4b668fc545a09f969bd7a6ca7c9f79bb5f53a1e996aeac89060600160405180910390a25050565b60606108a46001600160a01b03831660145b60606000613a21836002614312565b613a2c906002614204565b6001600160401b03811115613a4357613a436140a6565b6040519080825280601f01601f191660200182016040528015613a6d576020820181803683370190505b509050600360fc1b81600081518110613a8857613a886142bc565b60200101906001600160f81b031916908160001a905350600f60fb1b81600181518110613ab757613ab76142bc565b60200101906001600160f81b031916908160001a9053506000613adb846002614312565b613ae6906001614204565b90505b6001811115613b5e576f181899199a1a9b1b9c1cb0b131b232b360811b85600f1660108110613b1a57613b1a6142bc565b1a60f81b828281518110613b3057613b306142bc565b60200101906001600160f81b031916908160001a90535060049490941c93613b5781614464565b9050613ae9565b5083156119165760405162461bcd60e51b815260206004820181905260248201527f537472696e67733a20686578206c656e67746820696e73756666696369656e746044820152606401610c61565b60606118c78484600085613c7a565b6000828015613c6e57848015613c6357600185168015613bde57869350613be2565b8493505b50600284046002860495505b8515613c5d578687028760801c15613c0557600080fd5b81810181811015613c1557600080fd5b8690049750506001861615613c52578684028488820414158815151615613c3b57600080fd5b81810181811015613c4b57600080fd5b8690049450505b600286049550613bee565b50613c68565b600092505b50613c72565b8291505b509392505050565b606082471015613cdb5760405162461bcd60e51b815260206004820152602660248201527f416464726573733a20696e73756666696369656e742062616c616e636520666f6044820152651c8818d85b1b60d21b6064820152608401610c61565b600080866001600160a01b03168587604051613cf7919061447b565b60006040518083038185875af1925050503d8060008114613d34576040519150601f19603f3d011682016040523d82523d6000602084013e613d39565b606091505b5091509150613d4a87838387613d55565b979650505050505050565b60608315613dc4578251600003613dbd576001600160a01b0385163b613dbd5760405162461bcd60e51b815260206004820152601d60248201527f416464726573733a2063616c6c20746f206e6f6e2d636f6e74726163740000006044820152606401610c61565b50816118c7565b6118c78383815115613dd95781518083602001fd5b8060405162461bcd60e51b8152600401610c619190614414565b604080516060810182526000808252602082018190529181019190915290565b604051806101400160405280613e27613e6c565b81526020016000815260200160008152602001600081526020016000815260200160008152602001600081526020016000815260200160008152602001600081525090565b6040805160a08101825260008082526020820181905291810182905260608101829052608081019190915290565b600060208284031215613eac57600080fd5b81356001600160e01b03198116811461191657600080fd5b600060208284031215613ed657600080fd5b5035919050565b80356001600160a01b038116811461390657600080fd5b801515811461090157600080fd5b60008060408385031215613f1557600080fd5b613f1e83613edd565b91506020830135613f2e81613ef4565b809150509250929050565b60008060408385031215613f4c57600080fd5b50508035926020909101359150565b60008060408385031215613f6e57600080fd5b82359150613f7e60208401613edd565b90509250929050565b60008060408385031215613f9a57600080fd5b613fa383613edd565b946020939093013593505050565b600060208284031215613fc357600080fd5b61191682613edd565b6001600160a01b0391909116815260200190565b600080600060608486031215613ff557600080fd5b613ffe84613edd565b925061400c60208501613edd565b9150604084013561401c81613ef4565b809150509250925092565b600080600080600060a0868803121561403f57600080fd5b61404886613edd565b945061405660208701613edd565b935061406460408701613edd565b94979396509394606081013594506080013592915050565b6000806040838503121561408f57600080fd5b61409883613edd565b9150613f7e60208401613edd565b634e487b7160e01b600052604160045260246000fd5b6000806000604084860312156140d157600080fd5b83356001600160401b03808211156140e857600080fd5b818601915086601f8301126140fc57600080fd5b81358181111561410b57600080fd5b602088818360051b860101111561412157600080fd5b80840196508195508088013593508284111561413c57600080fd5b838801935088601f85011261415057600080fd5b8335915082821115614164576141646140a6565b8160051b604051601f19603f83011681018181108682111715614189576141896140a6565b60405292835281830193508481018201928a8411156141a757600080fd5b948201945b838610156141c5578535855294820194938201936141ac565b8096505050505050509250925092565b6000602082840312156141e757600080fd5b5051919050565b634e487b7160e01b600052601160045260246000fd5b808201808211156108a4576108a46141ee565b6001600160a01b039485168152928416602084015292166040820152901515606082015260800190565b8082018281126000831280158216821582161715614261576142616141ee565b505092915050565b6001600160a01b039384168152919092166020820152604081019190915260600190565b6000600160ff1b82016142a2576142a26141ee565b5060000390565b818103818111156108a4576108a46141ee565b634e487b7160e01b600052603260045260246000fd5b6001600160401b03828116828216039080821115610bc457610bc46141ee565b6001600160801b03818116838216019080821115610bc457610bc46141ee565b80820281158282048414176108a4576108a46141ee565b634e487b7160e01b600052601260045260246000fd5b60008261435c57634e487b7160e01b600052601260045260246000fd5b500490565b6001600160801b03828116828216039080821115610bc457610bc46141ee565b60005b8381101561439c578181015183820152602001614384565b50506000910152565b76020b1b1b2b9b9a1b7b73a3937b61d1030b1b1b7bab73a1604d1b8152600083516143d7816017850160208801614381565b7001034b99036b4b9b9b4b733903937b6329607d1b6017918401918201528351614408816028840160208801614381565b01602801949350505050565b6020815260008251806020840152614433816040850160208701614381565b601f01601f19169190910160400192915050565b60006020828403121561445957600080fd5b815161191681613ef4565b600081614473576144736141ee565b506000190190565b6000825161448d818460208701614381565b919091019291505056fef4803e074bd026baaf6ed2e288c9515f68c72fb7216eebdd7cae1718a53ec376a2646970667358221220a6ff50e4219136875f287408e49cc60e6eb077d67124da88d8500764d781431264736f6c63430008130033",
    "linkReferences": {}
  },
  "methodIdentifiers": {
    "DEFAULT_ADMIN_ROLE()": "a217fddf",
    "activeLimitPriceTicks(uint256)": "683f81a1",
    "addLimitPriceTick(uint256,uint256)": "44a3c664",
    "buffer()": "edaafe20",
    "calculateRebateFactorForPriceTick(uint256)": "cb6238c8",
    "cancelLimitOrder()": "2202ce8c",
    "cash(address)": "b6dc16f6",
    "cdm()": "e2dfb317",
    "claimFees()": "d294f093",
    "createLimitOrder(uint256)": "2906f94e",
    "deposit(address,uint256)": "47e7ef24",
    "enterEmergencyMode()": "9844afd2",
    "exchange(uint256,uint256)": "d4b7eac3",
    "exchangePreview(uint256,uint256)": "88439aea",
    "getGlobalIRS()": "eb953449",
    "getLimitOrder(uint256,uint256)": "2af8992b",
    "getPositionIRS(address)": "dbe6b31c",
    "getPriceTick(uint256)": "51f813ec",
    "getRoleAdmin(bytes32)": "248a9ca3",
    "grantRole(bytes32,address)": "2f2ff15d",
    "hasPermission(address,address)": "cde68041",
    "hasRole(bytes32,address)": "91d14854",
    "limitOrderFloor()": "dc2ec249",
    "limitOrders(uint256)": "a3e2b495",
    "liquidatePositions(address[],uint256[])": "df10f687",
    "liquidationConfig()": "1c580ad5",
    "modifyCollateralAndDebt(address,address,address,int256,int256)": "c75a4b5e",
    "modifyPermission(address,address,bool)": "8309dbdd",
    "modifyPermission(address,bool)": "d9c70f57",
    "oracle()": "7dc0d1d0",
    "pause()": "8456cb59",
    "paused()": "5c975abb",
    "pausedAt()": "2e55d0f2",
    "positions(address)": "55f57510",
    "protocolFee()": "b0e21e8a",
    "removeLimitPriceTick(uint256)": "ef0563fb",
    "renounceRole(bytes32,address)": "36568abe",
    "revokeRole(bytes32,address)": "d547741f",
    "setParameter(bytes32,uint256)": "723507be",
    "setPermissionAgent(address,bool)": "280c37ef",
    "setUp()": "0a9254e4",
    "spotPrice()": "398482d8",
    "supportsInterface(bytes4)": "01ffc9a7",
    "token()": "fc0c546a",
    "tokenScale()": "342c02b1",
    "totalAccruedFees()": "ba95534c",
    "totalNormalDebt()": "842c311e",
    "unpause()": "3f4ba83a",
    "vaultConfig()": "7cc34bb4",
    "virtualIRS(address)": "8051ba75",
    "withdraw(address,uint256)": "f3fef3a3"
  },
  "id": 90
}