{
  "abi": [
    {
      "inputs": [
        {
          "internalType": "address",
          "name": "factory",
          "type": "address"
        }
      ],
      "stateMutability": "nonpayable",
      "type": "constructor"
    },
    {
      "inputs": [],
      "name": "CDPVault__addLimitPriceTick_invalidPriceTickOrder",
      "type": "error"
    },
    {
      "inputs": [],
      "name": "CDPVault__addLimitPriceTick_limitPriceTickOutOfRange",
      "type": "error"
    },
    {
      "inputs": [],
      "name": "CDPVault__cancelLimitOrder_limitOrderDoesNotExist",
      "type": "error"
    },
    {
      "inputs": [],
      "name": "CDPVault__checkEmergencyMode_entered",
      "type": "error"
    },
    {
      "inputs": [],
      "name": "CDPVault__createLimitOrder_limitOrderAlreadyExists",
      "type": "error"
    },
    {
      "inputs": [],
      "name": "CDPVault__createLimitOrder_limitOrderFloor",
      "type": "error"
    },
    {
      "inputs": [],
      "name": "CDPVault__createLimitOrder_limitPriceTickNotActive",
      "type": "error"
    },
    {
      "inputs": [],
      "name": "CDPVault__exchange_notEnoughExchanged",
      "type": "error"
    },
    {
      "inputs": [],
      "name": "CDPVault__liquidatePosition_notUnsafe",
      "type": "error"
    },
    {
      "inputs": [],
      "name": "CDPVault__liquidatePositions_argLengthMismatch",
      "type": "error"
    },
    {
      "inputs": [],
      "name": "CDPVault__modifyCollateralAndDebt_maxUtilizationRatio",
      "type": "error"
    },
    {
      "inputs": [],
      "name": "CDPVault__modifyCollateralAndDebt_noPermission",
      "type": "error"
    },
    {
      "inputs": [],
      "name": "CDPVault__modifyCollateralAndDebt_notSafe",
      "type": "error"
    },
    {
      "inputs": [],
      "name": "CDPVault__modifyPosition_debtFloor",
      "type": "error"
    },
    {
      "inputs": [],
      "name": "CDPVault__setParameter_unrecognizedParameter",
      "type": "error"
    },
    {
      "inputs": [],
      "name": "IdIsZero",
      "type": "error"
    },
    {
      "inputs": [],
      "name": "InterestRateModel__setBaseRate_invalidBaseRate",
      "type": "error"
    },
    {
      "inputs": [],
      "name": "ItemInList",
      "type": "error"
    },
    {
      "inputs": [],
      "name": "ItemNotInList",
      "type": "error"
    },
    {
      "inputs": [],
      "name": "Math__add_overflow_signed",
      "type": "error"
    },
    {
      "inputs": [],
      "name": "Math__mul_overflow_signed",
      "type": "error"
    },
    {
      "inputs": [],
      "name": "Math__sub_overflow_signed",
      "type": "error"
    },
    {
      "inputs": [],
      "name": "Math__toInt256_overflow",
      "type": "error"
    },
    {
      "inputs": [],
      "name": "Math__toUint64_overflow",
      "type": "error"
    },
    {
      "inputs": [],
      "name": "Permission__modifyPermission_notPermitted",
      "type": "error"
    },
    {
      "anonymous": false,
      "inputs": [
        {
          "indexed": true,
          "internalType": "uint256",
          "name": "limitPriceTick",
          "type": "uint256"
        }
      ],
      "name": "AddLimitPriceTick",
      "type": "event"
    },
    {
      "anonymous": false,
      "inputs": [
        {
          "indexed": true,
          "internalType": "uint256",
          "name": "limitPriceTick",
          "type": "uint256"
        },
        {
          "indexed": true,
          "internalType": "address",
          "name": "maker",
          "type": "address"
        }
      ],
      "name": "CancelLimitOrder",
      "type": "event"
    },
    {
      "anonymous": false,
      "inputs": [
        {
          "indexed": true,
          "internalType": "uint256",
          "name": "limitPriceTick",
          "type": "uint256"
        },
        {
          "indexed": true,
          "internalType": "address",
          "name": "maker",
          "type": "address"
        }
      ],
      "name": "CreateLimitOrder",
      "type": "event"
    },
    {
      "anonymous": false,
      "inputs": [
        {
          "indexed": true,
          "internalType": "address",
          "name": "redeemer",
          "type": "address"
        },
        {
          "indexed": false,
          "internalType": "uint256",
          "name": "creditExchanged",
          "type": "uint256"
        },
        {
          "indexed": false,
          "internalType": "uint256",
          "name": "collateralRedeemed",
          "type": "uint256"
        }
      ],
      "name": "Exchange",
      "type": "event"
    },
    {
      "anonymous": false,
      "inputs": [
        {
          "indexed": true,
          "internalType": "uint256",
          "name": "limitPriceTick",
          "type": "uint256"
        },
        {
          "indexed": true,
          "internalType": "uint256",
          "name": "limitOrderId",
          "type": "uint256"
        },
        {
          "indexed": false,
          "internalType": "uint256",
          "name": "collateralRedeemed",
          "type": "uint256"
        },
        {
          "indexed": false,
          "internalType": "uint256",
          "name": "creditExchanged",
          "type": "uint256"
        }
      ],
      "name": "ExecuteLimitOrder",
      "type": "event"
    },
    {
      "anonymous": false,
      "inputs": [
        {
          "indexed": true,
          "internalType": "address",
          "name": "position",
          "type": "address"
        },
        {
          "indexed": false,
          "internalType": "uint256",
          "name": "collateralReleased",
          "type": "uint256"
        },
        {
          "indexed": false,
          "internalType": "uint256",
          "name": "normalDebtRepaid",
          "type": "uint256"
        },
        {
          "indexed": true,
          "internalType": "address",
          "name": "liquidator",
          "type": "address"
        }
      ],
      "name": "LiquidatePosition",
      "type": "event"
    },
    {
      "anonymous": false,
      "inputs": [
        {
          "indexed": true,
          "internalType": "address",
          "name": "position",
          "type": "address"
        },
        {
          "indexed": true,
          "internalType": "address",
          "name": "collateralizer",
          "type": "address"
        },
        {
          "indexed": true,
          "internalType": "address",
          "name": "creditor",
          "type": "address"
        },
        {
          "indexed": false,
          "internalType": "int256",
          "name": "deltaCollateral",
          "type": "int256"
        },
        {
          "indexed": false,
          "internalType": "int256",
          "name": "deltaNormalDebt",
          "type": "int256"
        }
      ],
      "name": "ModifyCollateralAndDebt",
      "type": "event"
    },
    {
      "anonymous": false,
      "inputs": [
        {
          "indexed": false,
          "internalType": "address",
          "name": "authorizer",
          "type": "address"
        },
        {
          "indexed": false,
          "internalType": "address",
          "name": "owner",
          "type": "address"
        },
        {
          "indexed": false,
          "internalType": "address",
          "name": "caller",
          "type": "address"
        },
        {
          "indexed": false,
          "internalType": "bool",
          "name": "grant",
          "type": "bool"
        }
      ],
      "name": "ModifyPermission",
      "type": "event"
    },
    {
      "anonymous": false,
      "inputs": [
        {
          "indexed": true,
          "internalType": "address",
          "name": "position",
          "type": "address"
        },
        {
          "indexed": false,
          "internalType": "int256",
          "name": "deltaCollateral",
          "type": "int256"
        },
        {
          "indexed": false,
          "internalType": "int256",
          "name": "deltaNormalDebt",
          "type": "int256"
        },
        {
          "indexed": false,
          "internalType": "uint256",
          "name": "totalNormalDebt",
          "type": "uint256"
        }
      ],
      "name": "ModifyPosition",
      "type": "event"
    },
    {
      "anonymous": false,
      "inputs": [
        {
          "indexed": false,
          "internalType": "address",
          "name": "account",
          "type": "address"
        }
      ],
      "name": "Paused",
      "type": "event"
    },
    {
      "anonymous": false,
      "inputs": [
        {
          "indexed": true,
          "internalType": "uint256",
          "name": "limitPriceTick",
          "type": "uint256"
        }
      ],
      "name": "RemoveLimitPriceTick",
      "type": "event"
    },
    {
      "anonymous": false,
      "inputs": [
        {
          "indexed": true,
          "internalType": "bytes32",
          "name": "role",
          "type": "bytes32"
        },
        {
          "indexed": true,
          "internalType": "bytes32",
          "name": "previousAdminRole",
          "type": "bytes32"
        },
        {
          "indexed": true,
          "internalType": "bytes32",
          "name": "newAdminRole",
          "type": "bytes32"
        }
      ],
      "name": "RoleAdminChanged",
      "type": "event"
    },
    {
      "anonymous": false,
      "inputs": [
        {
          "indexed": true,
          "internalType": "bytes32",
          "name": "role",
          "type": "bytes32"
        },
        {
          "indexed": true,
          "internalType": "address",
          "name": "account",
          "type": "address"
        },
        {
          "indexed": true,
          "internalType": "address",
          "name": "sender",
          "type": "address"
        }
      ],
      "name": "RoleGranted",
      "type": "event"
    },
    {
      "anonymous": false,
      "inputs": [
        {
          "indexed": true,
          "internalType": "bytes32",
          "name": "role",
          "type": "bytes32"
        },
        {
          "indexed": true,
          "internalType": "address",
          "name": "account",
          "type": "address"
        },
        {
          "indexed": true,
          "internalType": "address",
          "name": "sender",
          "type": "address"
        }
      ],
      "name": "RoleRevoked",
      "type": "event"
    },
    {
      "anonymous": false,
      "inputs": [
        {
          "indexed": false,
          "internalType": "int64",
          "name": "baseRate",
          "type": "int64"
        }
      ],
      "name": "SetBaseRate",
      "type": "event"
    },
    {
      "anonymous": false,
      "inputs": [],
      "name": "SetGlobalIRS",
      "type": "event"
    },
    {
      "anonymous": false,
      "inputs": [
        {
          "indexed": true,
          "internalType": "bytes32",
          "name": "parameter",
          "type": "bytes32"
        },
        {
          "indexed": false,
          "internalType": "uint256",
          "name": "data",
          "type": "uint256"
        }
      ],
      "name": "SetParameter",
      "type": "event"
    },
    {
      "anonymous": false,
      "inputs": [
        {
          "indexed": false,
          "internalType": "address",
          "name": "owner",
          "type": "address"
        },
        {
          "indexed": false,
          "internalType": "address",
          "name": "agent",
          "type": "address"
        },
        {
          "indexed": false,
          "internalType": "bool",
          "name": "grant",
          "type": "bool"
        }
      ],
      "name": "SetPermittedAgent",
      "type": "event"
    },
    {
      "anonymous": false,
      "inputs": [
        {
          "indexed": true,
          "internalType": "address",
          "name": "position",
          "type": "address"
        },
        {
          "indexed": false,
          "internalType": "uint256",
          "name": "snapshotRateAccumulator",
          "type": "uint256"
        },
        {
          "indexed": false,
          "internalType": "uint256",
          "name": "accruedRebate",
          "type": "uint256"
        },
        {
          "indexed": false,
          "internalType": "uint256",
          "name": "rebateFactor",
          "type": "uint256"
        }
      ],
      "name": "SetPositionIRS",
      "type": "event"
    },
    {
      "anonymous": false,
      "inputs": [
        {
          "indexed": false,
          "internalType": "address",
          "name": "account",
          "type": "address"
        }
      ],
      "name": "Unpaused",
      "type": "event"
    },
    {
      "inputs": [],
      "name": "DEFAULT_ADMIN_ROLE",
      "outputs": [
        {
          "internalType": "bytes32",
          "name": "",
          "type": "bytes32"
        }
      ],
      "stateMutability": "view",
      "type": "function"
    },
    {
      "inputs": [
        {
          "internalType": "uint256",
          "name": "priceTick",
          "type": "uint256"
        }
      ],
      "name": "activeLimitPriceTicks",
      "outputs": [
        {
          "internalType": "bool",
          "name": "isActive",
          "type": "bool"
        }
      ],
      "stateMutability": "view",
      "type": "function"
    },
    {
      "inputs": [
        {
          "internalType": "uint256",
          "name": "limitPriceTick",
          "type": "uint256"
        },
        {
          "internalType": "uint256",
          "name": "nextLimitPriceTick",
          "type": "uint256"
        }
      ],
      "name": "addLimitPriceTick",
      "outputs": [],
      "stateMutability": "nonpayable",
      "type": "function"
    },
    {
      "inputs": [],
      "name": "buffer",
      "outputs": [
        {
          "internalType": "contract IBuffer",
          "name": "",
          "type": "address"
        }
      ],
      "stateMutability": "view",
      "type": "function"
    },
    {
      "inputs": [
        {
          "internalType": "uint256",
          "name": "priceTick",
          "type": "uint256"
        }
      ],
      "name": "calculateRebateFactorForPriceTick",
      "outputs": [
        {
          "internalType": "uint64",
          "name": "",
          "type": "uint64"
        }
      ],
      "stateMutability": "view",
      "type": "function"
    },
    {
      "inputs": [],
      "name": "cancelLimitOrder",
      "outputs": [],
      "stateMutability": "nonpayable",
      "type": "function"
    },
    {
      "inputs": [
        {
          "internalType": "address",
          "name": "owner",
          "type": "address"
        }
      ],
      "name": "cash",
      "outputs": [
        {
          "internalType": "uint256",
          "name": "balance",
          "type": "uint256"
        }
      ],
      "stateMutability": "view",
      "type": "function"
    },
    {
      "inputs": [],
      "name": "cdm",
      "outputs": [
        {
          "internalType": "contract ICDM",
          "name": "",
          "type": "address"
        }
      ],
      "stateMutability": "view",
      "type": "function"
    },
    {
      "inputs": [],
      "name": "claimFees",
      "outputs": [
        {
          "internalType": "uint256",
          "name": "feesClaimed",
          "type": "uint256"
        }
      ],
      "stateMutability": "nonpayable",
      "type": "function"
    },
    {
      "inputs": [
        {
          "internalType": "uint256",
          "name": "limitPriceTick",
          "type": "uint256"
        }
      ],
      "name": "createLimitOrder",
      "outputs": [],
      "stateMutability": "nonpayable",
      "type": "function"
    },
    {
      "inputs": [
        {
          "internalType": "address",
          "name": "to",
          "type": "address"
        },
        {
          "internalType": "uint256",
          "name": "amount",
          "type": "uint256"
        }
      ],
      "name": "deposit",
      "outputs": [
        {
          "internalType": "uint256",
          "name": "cashAmount",
          "type": "uint256"
        }
      ],
      "stateMutability": "nonpayable",
      "type": "function"
    },
    {
      "inputs": [],
      "name": "enterEmergencyMode",
      "outputs": [],
      "stateMutability": "nonpayable",
      "type": "function"
    },
    {
      "inputs": [
        {
          "internalType": "uint256",
          "name": "upperLimitPriceTick",
          "type": "uint256"
        },
        {
          "internalType": "uint256",
          "name": "creditToExchange",
          "type": "uint256"
        }
      ],
      "name": "exchange",
      "outputs": [
        {
          "internalType": "uint256",
          "name": "creditExchanged",
          "type": "uint256"
        },
        {
          "internalType": "uint256",
          "name": "collateralExchanged",
          "type": "uint256"
        }
      ],
      "stateMutability": "nonpayable",
      "type": "function"
    },
    {
      "inputs": [
        {
          "internalType": "uint256",
          "name": "upperLimitPriceTick",
          "type": "uint256"
        },
        {
          "internalType": "uint256",
          "name": "creditToExchange",
          "type": "uint256"
        }
      ],
      "name": "exchangePreview",
      "outputs": [
        {
          "internalType": "uint256",
          "name": "creditExchanged",
          "type": "uint256"
        },
        {
          "internalType": "uint256",
          "name": "collateralExchanged",
          "type": "uint256"
        }
      ],
      "stateMutability": "nonpayable",
      "type": "function"
    },
    {
      "inputs": [],
      "name": "getGlobalIRS",
      "outputs": [
        {
          "components": [
            {
              "internalType": "int64",
              "name": "baseRate",
              "type": "int64"
            },
            {
              "internalType": "uint64",
              "name": "lastUpdated",
              "type": "uint64"
            },
            {
              "internalType": "uint64",
              "name": "rateAccumulator",
              "type": "uint64"
            },
            {
              "internalType": "uint256",
              "name": "averageRebate",
              "type": "uint256"
            },
            {
              "internalType": "uint256",
              "name": "globalAccruedRebate",
              "type": "uint256"
            }
          ],
          "internalType": "struct InterestRateModel.GlobalIRS",
          "name": "",
          "type": "tuple"
        }
      ],
      "stateMutability": "view",
      "type": "function"
    },
    {
      "inputs": [
        {
          "internalType": "uint256",
          "name": "priceTick",
          "type": "uint256"
        },
        {
          "internalType": "uint256",
          "name": "index",
          "type": "uint256"
        }
      ],
      "name": "getLimitOrder",
      "outputs": [
        {
          "internalType": "uint256",
          "name": "limitOrderId",
          "type": "uint256"
        }
      ],
      "stateMutability": "view",
      "type": "function"
    },
    {
      "inputs": [
        {
          "internalType": "address",
          "name": "position",
          "type": "address"
        }
      ],
      "name": "getPositionIRS",
      "outputs": [
        {
          "components": [
            {
              "internalType": "uint64",
              "name": "snapshotRateAccumulator",
              "type": "uint64"
            },
            {
              "internalType": "uint64",
              "name": "rebateFactor",
              "type": "uint64"
            },
            {
              "internalType": "uint128",
              "name": "accruedRebate",
              "type": "uint128"
            }
          ],
          "internalType": "struct InterestRateModel.PositionIRS",
          "name": "",
          "type": "tuple"
        }
      ],
      "stateMutability": "view",
      "type": "function"
    },
    {
      "inputs": [
        {
          "internalType": "uint256",
          "name": "index",
          "type": "uint256"
        }
      ],
      "name": "getPriceTick",
      "outputs": [
        {
          "internalType": "uint256",
          "name": "priceTick",
          "type": "uint256"
        },
        {
          "internalType": "bool",
          "name": "isActive",
          "type": "bool"
        }
      ],
      "stateMutability": "view",
      "type": "function"
    },
    {
      "inputs": [
        {
          "internalType": "bytes32",
          "name": "role",
          "type": "bytes32"
        }
      ],
      "name": "getRoleAdmin",
      "outputs": [
        {
          "internalType": "bytes32",
          "name": "",
          "type": "bytes32"
        }
      ],
      "stateMutability": "view",
      "type": "function"
    },
    {
      "inputs": [
        {
          "internalType": "bytes32",
          "name": "role",
          "type": "bytes32"
        },
        {
          "internalType": "address",
          "name": "account",
          "type": "address"
        }
      ],
      "name": "grantRole",
      "outputs": [],
      "stateMutability": "nonpayable",
      "type": "function"
    },
    {
      "inputs": [
        {
          "internalType": "address",
          "name": "owner",
          "type": "address"
        },
        {
          "internalType": "address",
          "name": "caller",
          "type": "address"
        }
      ],
      "name": "hasPermission",
      "outputs": [
        {
          "internalType": "bool",
          "name": "",
          "type": "bool"
        }
      ],
      "stateMutability": "view",
      "type": "function"
    },
    {
      "inputs": [
        {
          "internalType": "bytes32",
          "name": "role",
          "type": "bytes32"
        },
        {
          "internalType": "address",
          "name": "account",
          "type": "address"
        }
      ],
      "name": "hasRole",
      "outputs": [
        {
          "internalType": "bool",
          "name": "",
          "type": "bool"
        }
      ],
      "stateMutability": "view",
      "type": "function"
    },
    {
      "inputs": [],
      "name": "limitOrderFloor",
      "outputs": [
        {
          "internalType": "uint256",
          "name": "",
          "type": "uint256"
        }
      ],
      "stateMutability": "view",
      "type": "function"
    },
    {
      "inputs": [
        {
          "internalType": "uint256",
          "name": "limitOrderId",
          "type": "uint256"
        }
      ],
      "name": "limitOrders",
      "outputs": [
        {
          "internalType": "uint256",
          "name": "priceTick",
          "type": "uint256"
        }
      ],
      "stateMutability": "view",
      "type": "function"
    },
    {
      "inputs": [
        {
          "internalType": "address[]",
          "name": "owners",
          "type": "address[]"
        },
        {
          "internalType": "uint256[]",
          "name": "repayAmounts",
          "type": "uint256[]"
        }
      ],
      "name": "liquidatePositions",
      "outputs": [],
      "stateMutability": "nonpayable",
      "type": "function"
    },
    {
      "inputs": [],
      "name": "liquidationConfig",
      "outputs": [
        {
          "internalType": "uint64",
          "name": "liquidationPenalty",
          "type": "uint64"
        },
        {
          "internalType": "uint64",
          "name": "liquidationDiscount",
          "type": "uint64"
        },
        {
          "internalType": "uint64",
          "name": "targetHealthFactor",
          "type": "uint64"
        }
      ],
      "stateMutability": "view",
      "type": "function"
    },
    {
      "inputs": [
        {
          "internalType": "address",
          "name": "owner",
          "type": "address"
        },
        {
          "internalType": "address",
          "name": "collateralizer",
          "type": "address"
        },
        {
          "internalType": "address",
          "name": "creditor",
          "type": "address"
        },
        {
          "internalType": "int256",
          "name": "deltaCollateral",
          "type": "int256"
        },
        {
          "internalType": "int256",
          "name": "deltaNormalDebt",
          "type": "int256"
        }
      ],
      "name": "modifyCollateralAndDebt",
      "outputs": [],
      "stateMutability": "nonpayable",
      "type": "function"
    },
    {
      "inputs": [
        {
          "internalType": "address",
          "name": "owner",
          "type": "address"
        },
        {
          "internalType": "address",
          "name": "caller",
          "type": "address"
        },
        {
          "internalType": "bool",
          "name": "permitted",
          "type": "bool"
        }
      ],
      "name": "modifyPermission",
      "outputs": [],
      "stateMutability": "nonpayable",
      "type": "function"
    },
    {
      "inputs": [
        {
          "internalType": "address",
          "name": "caller",
          "type": "address"
        },
        {
          "internalType": "bool",
          "name": "permitted",
          "type": "bool"
        }
      ],
      "name": "modifyPermission",
      "outputs": [],
      "stateMutability": "nonpayable",
      "type": "function"
    },
    {
      "inputs": [],
      "name": "oracle",
      "outputs": [
        {
          "internalType": "contract IOracle",
          "name": "",
          "type": "address"
        }
      ],
      "stateMutability": "view",
      "type": "function"
    },
    {
      "inputs": [],
      "name": "pause",
      "outputs": [],
      "stateMutability": "nonpayable",
      "type": "function"
    },
    {
      "inputs": [],
      "name": "paused",
      "outputs": [
        {
          "internalType": "bool",
          "name": "",
          "type": "bool"
        }
      ],
      "stateMutability": "view",
      "type": "function"
    },
    {
      "inputs": [],
      "name": "pausedAt",
      "outputs": [
        {
          "internalType": "uint256",
          "name": "",
          "type": "uint256"
        }
      ],
      "stateMutability": "view",
      "type": "function"
    },
    {
      "inputs": [
        {
          "internalType": "address",
          "name": "owner",
          "type": "address"
        }
      ],
      "name": "positions",
      "outputs": [
        {
          "internalType": "uint256",
          "name": "collateral",
          "type": "uint256"
        },
        {
          "internalType": "uint256",
          "name": "normalDebt",
          "type": "uint256"
        }
      ],
      "stateMutability": "view",
      "type": "function"
    },
    {
      "inputs": [],
      "name": "protocolFee",
      "outputs": [
        {
          "internalType": "uint256",
          "name": "",
          "type": "uint256"
        }
      ],
      "stateMutability": "view",
      "type": "function"
    },
    {
      "inputs": [
        {
          "internalType": "uint256",
          "name": "limitPriceTick",
          "type": "uint256"
        }
      ],
      "name": "removeLimitPriceTick",
      "outputs": [],
      "stateMutability": "nonpayable",
      "type": "function"
    },
    {
      "inputs": [
        {
          "internalType": "bytes32",
          "name": "role",
          "type": "bytes32"
        },
        {
          "internalType": "address",
          "name": "account",
          "type": "address"
        }
      ],
      "name": "renounceRole",
      "outputs": [],
      "stateMutability": "nonpayable",
      "type": "function"
    },
    {
      "inputs": [
        {
          "internalType": "bytes32",
          "name": "role",
          "type": "bytes32"
        },
        {
          "internalType": "address",
          "name": "account",
          "type": "address"
        }
      ],
      "name": "revokeRole",
      "outputs": [],
      "stateMutability": "nonpayable",
      "type": "function"
    },
    {
      "inputs": [
        {
          "internalType": "bytes32",
          "name": "parameter",
          "type": "bytes32"
        },
        {
          "internalType": "uint256",
          "name": "data",
          "type": "uint256"
        }
      ],
      "name": "setParameter",
      "outputs": [],
      "stateMutability": "nonpayable",
      "type": "function"
    },
    {
      "inputs": [
        {
          "internalType": "address",
          "name": "agent",
          "type": "address"
        },
        {
          "internalType": "bool",
          "name": "permitted",
          "type": "bool"
        }
      ],
      "name": "setPermissionAgent",
      "outputs": [],
      "stateMutability": "nonpayable",
      "type": "function"
    },
    {
      "inputs": [],
      "name": "setUp",
      "outputs": [],
      "stateMutability": "nonpayable",
      "type": "function"
    },
    {
      "inputs": [],
      "name": "spotPrice",
      "outputs": [
        {
          "internalType": "uint256",
          "name": "",
          "type": "uint256"
        }
      ],
      "stateMutability": "view",
      "type": "function"
    },
    {
      "inputs": [
        {
          "internalType": "bytes4",
          "name": "interfaceId",
          "type": "bytes4"
        }
      ],
      "name": "supportsInterface",
      "outputs": [
        {
          "internalType": "bool",
          "name": "",
          "type": "bool"
        }
      ],
      "stateMutability": "view",
      "type": "function"
    },
    {
      "inputs": [],
      "name": "token",
      "outputs": [
        {
          "internalType": "contract IERC20",
          "name": "",
          "type": "address"
        }
      ],
      "stateMutability": "view",
      "type": "function"
    },
    {
      "inputs": [],
      "name": "tokenScale",
      "outputs": [
        {
          "internalType": "uint256",
          "name": "",
          "type": "uint256"
        }
      ],
      "stateMutability": "view",
      "type": "function"
    },
    {
      "inputs": [],
      "name": "totalAccruedFees",
      "outputs": [
        {
          "internalType": "uint256",
          "name": "",
          "type": "uint256"
        }
      ],
      "stateMutability": "view",
      "type": "function"
    },
    {
      "inputs": [],
      "name": "totalNormalDebt",
      "outputs": [
        {
          "internalType": "uint256",
          "name": "",
          "type": "uint256"
        }
      ],
      "stateMutability": "view",
      "type": "function"
    },
    {
      "inputs": [],
      "name": "unpause",
      "outputs": [],
      "stateMutability": "nonpayable",
      "type": "function"
    },
    {
      "inputs": [],
      "name": "vaultConfig",
      "outputs": [
        {
          "internalType": "uint128",
          "name": "debtFloor",
          "type": "uint128"
        },
        {
          "internalType": "uint64",
          "name": "liquidationRatio",
          "type": "uint64"
        },
        {
          "internalType": "uint64",
          "name": "globalLiquidationRatio",
          "type": "uint64"
        }
      ],
      "stateMutability": "view",
      "type": "function"
    },
    {
      "inputs": [
        {
          "internalType": "address",
          "name": "position",
          "type": "address"
        }
      ],
      "name": "virtualIRS",
      "outputs": [
        {
          "internalType": "uint64",
          "name": "rateAccumulator",
          "type": "uint64"
        },
        {
          "internalType": "uint256",
          "name": "accruedRebate",
          "type": "uint256"
        },
        {
          "internalType": "uint256",
          "name": "globalAccruedRebate",
          "type": "uint256"
        }
      ],
      "stateMutability": "view",
      "type": "function"
    },
    {
      "inputs": [
        {
          "internalType": "address",
          "name": "to",
          "type": "address"
        },
        {
          "internalType": "uint256",
          "name": "amount",
          "type": "uint256"
        }
      ],
      "name": "withdraw",
      "outputs": [
        {
          "internalType": "uint256",
          "name": "tokenAmount",
          "type": "uint256"
        }
      ],
      "stateMutability": "nonpayable",
      "type": "function"
    }
  ],
  "bytecode": {
    "object": "0x6101806040523480156200001257600080fd5b506040516200478638038062004786833981016040819052620000359162000101565b6001805460ff1916905560408051639a295e7360e01b8152905182916001600160a01b03831691639a295e73916004808201926101009290919082900301816000875af11580156200008b573d6000803e3d6000fd5b505050506040513d601f19601f82011682018060405250810190620000b1919062000128565b610160526101405261012052610100526001600160a01b0390811660e05290811660c05290811660a0521660805250620001b79050565b6001600160a01b0381168114620000fe57600080fd5b50565b6000602082840312156200011457600080fd5b81516200012181620000e8565b9392505050565b600080600080600080600080610100898b0312156200014657600080fd5b88516200015381620000e8565b60208a01519098506200016681620000e8565b60408a01519097506200017981620000e8565b60608a01519096506200018c81620000e8565b60808a015160a08b015160c08c015160e0909c01519a9d999c50979a91999098919650945092505050565b60805160a05160c05160e051610100516101205161014051610160516144eb6200029b600039600061186201526000818161179001526127ba01526000818161063701526138c60152600081816103de01528181610ee5015281816121c00152612d4701526000818161085101528181610cbf01528181610eb7015281816121f30152612d690152600081816108040152818161196a01526120300152600081816105510152610c920152600081816107810152818161166b015281816116ee0152818161193b015281816119f801528181611f74015261305301526144eb6000f3fe608060405234801561001057600080fd5b50600436106102c15760003560e01c8063842c311e1161017d578063d294f093116100d9578063df10f68711610092578063df10f68714610769578063e2dfb3171461077c578063eb953449146107a3578063edaafe20146107ff578063ef0563fb14610826578063f3fef3a314610839578063fc0c546a1461084c57600080fd5b8063d294f093146106d3578063d4b7eac3146106db578063d547741f146106ee578063d9c70f5714610701578063dbe6b31c14610714578063dc2ec2491461076057600080fd5b8063a3e2b49511610136578063a3e2b49514610612578063b0e21e8a14610632578063b6dc16f614610659578063ba95534c14610679578063c75a4b5e14610682578063cb6238c814610695578063cde68041146106c057600080fd5b8063842c311e146105cb5780638456cb59146105d457806388439aea146105dc57806391d14854146105ef5780639844afd214610602578063a217fddf1461060a57600080fd5b8063398482d81161022c5780635c975abb116101e55780635c975abb146104ad578063683f81a1146104b8578063723507be146104db5780637cc34bb4146104ee5780637dc0d1d01461054c5780638051ba75146105805780638309dbdd146105b857600080fd5b8063398482d8146104135780633f4ba83a1461041b57806344a3c6641461042357806347e7ef241461043657806351f813ec1461044957806355f575101461047157600080fd5b80632906f94e1161027e5780632906f94e146103975780632af8992b146103aa5780632e55d0f2146103bd5780632f2ff15d146103c6578063342c02b1146103d957806336568abe1461040057600080fd5b806301ffc9a7146102c65780630a9254e4146102ee5780631c580ad5146102f85780632202ce8c1461034b578063248a9ca314610353578063280c37ef14610384575b600080fd5b6102d96102d4366004613e98565b610873565b60405190151581526020015b60405180910390f35b6102f66108aa565b005b601354610321906001600160401b0380821691600160401b8104821691600160801b9091041683565b604080516001600160401b03948516815292841660208401529216918101919091526060016102e5565b6102f6610904565b610376610361366004613ec2565b60009081526020819052604090206001015490565b6040519081526020016102e5565b6102f6610392366004613f00565b6109cd565b6102f66103a5366004613ec2565b610a44565b6103766103b8366004613f37565b610b7d565b61037660025481565b6102f66103d4366004613f59565b610bcb565b6103767f000000000000000000000000000000000000000000000000000000000000000081565b6102f661040e366004613f59565b610bf5565b610376610c78565b6102f6610d2d565b6102f6610431366004613f37565b610d67565b610376610444366004613f85565b610ea0565b61045c610457366004613ec2565b610f42565b604080519283529015156020830152016102e5565b61049861047f366004613faf565b600d602052600090815260409020805460019091015482565b604080519283526020830191909152016102e5565b60015460ff166102d9565b6102d96104c6366004613ec2565b600e6020526000908152604090205460ff1681565b6102f66104e9366004613f37565b610f9e565b60095461051d906001600160801b038116906001600160401b03600160801b8204811691600160c01b90041683565b604080516001600160801b0390941684526001600160401b0392831660208501529116908201526060016102e5565b6105737f000000000000000000000000000000000000000000000000000000000000000081565b6040516102e59190613fca565b61059361058e366004613faf565b611202565b604080516001600160401b0390941684526020840192909252908201526060016102e5565b6102f66105c6366004613fde565b611292565b610376600a5481565b6102f6611361565b6104986105ea366004613f37565b611393565b6102d96105fd366004613f59565b6113b6565b6102f66113df565b610376600081565b610376610620366004613ec2565b60116020526000908152604090205481565b6103767f000000000000000000000000000000000000000000000000000000000000000081565b610376610667366004613faf565b600c6020526000908152604090205481565b610376600b5481565b6102f6610690366004614025565b611431565b6106a86106a3366004613ec2565b611846565b6040516001600160401b0390911681526020016102e5565b6102d96106ce36600461407a565b6118cd565b61037661191b565b6104986106e9366004613f37565b6119c9565b6102f66106fc366004613f59565b611ad1565b6102f661070f366004613f00565b611af6565b610727610722366004613faf565b611b59565b6040805182516001600160401b03908116825260208085015190911690820152918101516001600160801b0316908201526060016102e5565b61037660125481565b6102f66107773660046140ba565b611bc4565b6105737f000000000000000000000000000000000000000000000000000000000000000081565b6107ab6120b2565b6040516102e59190600060a082019050825160070b825260208301516001600160401b0380821660208501528060408601511660408501525050606083015160608301526080830151608083015292915050565b6105737f000000000000000000000000000000000000000000000000000000000000000081565b6102f6610834366004613ec2565b612109565b610376610847366004613f85565b61218b565b6105737f000000000000000000000000000000000000000000000000000000000000000081565b60006001600160e01b03198216637965db0b60e01b14806108a457506301ffc9a760e01b6001600160e01b03198316145b92915050565b60006108b46120b2565b905080602001516001600160401b03166000146108d057600080fd5b6108db60003361221a565b6001600160401b0342166020820152670de0b6b3a764000060408201526109018161229e565b50565b336000818152601160205260408120549081900361093557604051630573b42560e51b815260040160405180910390fd5b600081815260106020526040902061094d908361232c565b600082815260116020908152604080832083905533808452600d909252822060010154600a546109999361097f610c78565b600954600160c01b90046001600160401b031660006123ad565b505060405133915082907f6f36e2a381bc87c87bcc2043deb0a5cdf9a6d87eb14cbe13cf0f1fe39f324dd990600090a35050565b3360008181526004602090815260408083206001600160a01b03871680855290835292819020805460ff1916861515908117909155815194855291840192909252908201527f6501e8bfa2d3e686d62fe2c0c3275df594494583b0a63a70b7452d3eeb712bd6906060015b60405180910390a15050565b6000818152600e602052604090205460ff16610a735760405163da4b118b60e01b815260040160405180910390fd5b336000908152600d6020526040902060010154601254811015610aa9576040516305c0093760e21b815260040160405180910390fd5b3360008181526011602052604090205415610ad75760405163345c017d60e01b815260040160405180910390fd5b600081815260116020908152604080832086905585835260108083528184208480528084529184206001015493879052909152610b15918390612478565b610b483383600a546000610b27610c78565b600954600160c01b90046001600160401b0316610b438a611846565b6123ad565b505060405133915084907f85d7690ee90733d849878d2bbbd5bf047e442ce2d045c0308a58cfd2ce53031590600090a3505050565b6000828152601060209081526040808320838052909152812054905b828114610bc45760008481526010602090815260408083208584529091529020549150600101610b99565b5092915050565b600082815260208190526040902060010154610be681612545565b610bf0838361221a565b505050565b6001600160a01b0381163314610c6a5760405162461bcd60e51b815260206004820152602f60248201527f416363657373436f6e74726f6c3a2063616e206f6e6c792072656e6f756e636560448201526e103937b632b9903337b91039b2b63360891b60648201526084015b60405180910390fd5b610c74828261254f565b5050565b604051632cbf04c160e01b81526000906001600160a01b037f00000000000000000000000000000000000000000000000000000000000000001690632cbf04c190610ce7907f000000000000000000000000000000000000000000000000000000000000000090600401613fca565b602060405180830381865afa158015610d04573d6000803e3d6000fd5b505050506040513d601f19601f82011682018060405250810190610d2891906141d3565b905090565b7f65d7a28e3265b37a6474929f336521b332c1681b933f6cb9f3376673440d862a610d5781612545565b610d5f6125b4565b506000600255565b610d6f612600565b7ff96f3d6876b63665360200e15ed8964960110cbbd99e917fb50ad1e576f538ac610d9981612545565b670de0b6b3a7640000831080610db757508268056bc75e2d63100000105b15610dd5576040516336bbc25960e01b815260040160405180910390fd5b60008052600f6020526000805160206144968339815191525480158015610dfb57508215155b80610e1857508215801590610e18575082841180610e1857508281115b80610e3057506000838152600f602052604090205484105b15610e4e576040516346b0cc7160e11b815260040160405180910390fd5b610e5a600f8585612478565b6000848152600e6020526040808220805460ff191660011790555185917f3907a47dfbf148deb99efcd854a68497cbdc2a2db8488083ecb842ad6bde91a891a250505050565b6000610eaa612600565b610edf6001600160a01b037f000000000000000000000000000000000000000000000000000000000000000016333085612648565b610f09827f00000000000000000000000000000000000000000000000000000000000000006126a6565b6001600160a01b0384166000908152600c6020526040812080549293508392909190610f36908490614202565b90915550909392505050565b6000808052600f6020526000805160206144968339815191525490805b838114610f82576000838152600f60205260409020600101549250600101610f5f565b50506000818152600e6020526040902054909260ff9091169150565b610fa6612600565b7f7e2be3cffb06427cbcb9b1d12d4b78adcf14a2bf640e9bbdeb54bb711b65ec71610fd081612545565b82683232b13a233637b7b960b91b0361100357600980546001600160801b0319166001600160801b0384161790556111c3565b826f6c69717569646174696f6e526174696f60801b03611047576009805467ffffffffffffffff60801b1916600160801b6001600160401b038516021790556111c3565b8275676c6f62616c4c69717569646174696f6e526174696f60501b0361108c57600980546001600160c01b0316600160c01b6001600160401b038516021790556111c3565b826e3634b6b4ba27b93232b9233637b7b960891b036110af5760128290556111c3565b8267626173655261746560c01b036110e0576110db60001983146110d357826126f5565b6000196126f5565b6111c3565b82716c69717569646174696f6e50656e616c747960701b0361111d576013805467ffffffffffffffff19166001600160401b0384161790556111c3565b82721b1a5c5d5a59185d1a5bdb911a5cd8dbdd5b9d606a1b03611164576013805467ffffffffffffffff60401b1916600160401b6001600160401b038516021790556111c3565b82713a30b933b2ba2432b0b63a342330b1ba37b960711b036111aa576013805467ffffffffffffffff60801b1916600160801b6001600160401b038516021790556111c3565b604051638dd691e760e01b815260040160405180910390fd5b827f4327e67d6578eb2c9293fb22f9334006073ac1397c7100f5dd5adca09ad71c08836040516111f591815260200190565b60405180910390a2505050565b6000806000806112106120b2565b600a54909150611220828261279d565b945061123582868360008060008060006128b0565b506080810151935091506001600160a01b038616156112895761127d61125a87611b59565b6001600160a01b0388166000908152600d60205260409020600101548790612a4f565b6001600160801b031693505b50509193909250565b6001600160a01b03831633148015906112cf57506001600160a01b038316600090815260046020908152604080832033845290915290205460ff16155b156112ed57604051638743d2ff60e01b815260040160405180910390fd5b6001600160a01b0383811660009081526003602090815260408083209386168352929052819020805460ff1916831515179055517fdcf2bd5a4c47afeb1792d170f6f5e6e528e30c6b546fffe62b697a11f8953b2b90611354903390869086908690614215565b60405180910390a1505050565b7f65d7a28e3265b37a6474929f336521b332c1681b933f6cb9f3376673440d862a61138b81612545565b610901612a8a565b60008033156113a157600080fd5b6113ab8484612a98565b915091509250929050565b6000918252602082815260408084206001600160a01b0393909316845291905290205460ff1690565b6113e7612600565b6000806113f46000611202565b600954929450925061142491600160c01b90046001600160401b0316905061141a610c78565b600a548585612d1e565b15610c7457610c74612a8a565b60008113806114405750600082125b8015611453575061145185336118cd565b155b806114705750600082138015611470575061146e84336118cd565b155b8061148d575060008112801561148d575061148b83336118cd565b155b156114ab57604051634c26249960e01b815260040160405180910390fd5b6001600160a01b0385166000908152600d6020908152604080832081518083018352815481526001909101548184015281516060810183526009546001600160801b03811682526001600160401b03600160801b8204811695830195909552600160c01b900490931691830191909152600a549092611528610c78565b905060008060006115478c8860200151878b888b6040015160006123ad565b92509250925061155b8c88848c8c8a612e2e565b9650600088138061156c5750600089125b80156115af57506115ad6115968860200151846000015185604001516001600160801b0316612f35565b8851602089015187906001600160401b0316612f55565b155b156115cd57604051633f66923d60e01b815260040160405180910390fd5b6001600160a01b038b166000908152600c60205260409020546115f0908a612f78565b6001600160a01b038c166000908152600c60205260409020556116138589612fbd565b945084600a819055506000816001600160801b031661163f85604001516001600160401b03168b613002565b611649919061423f565b905060008113156116db57604051632b0b3a6f60e21b81526001600160a01b037f0000000000000000000000000000000000000000000000000000000000000000169063ac2ce9bc906116a49030908f908690600401614267565b600060405180830381600087803b1580156116be57600080fd5b505af11580156116d2573d6000803e3d6000fd5b5050505061176f565b600081121561176f576001600160a01b037f00000000000000000000000000000000000000000000000000000000000000001663ac2ce9bc8c3061171e8561428b565b6040518463ffffffff1660e01b815260040161173c93929190614267565b600060405180830381600087803b15801561175657600080fd5b505af115801561176a573d6000803e3d6000fd5b505050505b60008913156117d7576000611784858861302c565b90506001600160401b037f000000000000000000000000000000000000000000000000000000000000000060401c16808211156117d4576040516329b823dd60e21b815260040160405180910390fd5b50505b8a6001600160a01b03168c6001600160a01b03168e6001600160a01b03167f7ce3e27b99e7e2e42f0ddcb6f6679a25081a5fd4ca991bcd05c45e54daa997088d8d60405161182f929190918252602082015260400190565b60405180910390a450505050505050505050505050565b6000670de0b6b3a764000082101561186057506000919050565b7f00000000000000000000000000000000000000000000000000000000000000006001600160801b0381169060801c6118c56118c0670de0b6b3a76400006118b1856118ac838a6142a7565b613101565b6118bb9085614202565b6126a6565b61312f565b949350505050565b6000816001600160a01b0316836001600160a01b0316148061191457506001600160a01b0380841660009081526003602090815260408083209386168352929052205460ff165b9392505050565b600b80546000909155604051632b0b3a6f60e21b81526001600160a01b037f0000000000000000000000000000000000000000000000000000000000000000169063ac2ce9bc906119949030907f0000000000000000000000000000000000000000000000000000000000000000908690600401614267565b600060405180830381600087803b1580156119ae57600080fd5b505af11580156119c2573d6000803e3d6000fd5b5050505090565b6000806119d68484612a98565b90925090508115611a6457604051632b0b3a6f60e21b81526001600160a01b037f0000000000000000000000000000000000000000000000000000000000000000169063ac2ce9bc90611a3190339030908790600401614267565b600060405180830381600087803b158015611a4b57600080fd5b505af1158015611a5f573d6000803e3d6000fd5b505050505b8015611a8f57336000908152600c602052604081208054839290611a89908490614202565b90915550505b604080518381526020810183905233917f26981b9aefbb0f732b0264bd34c255e831001eb50b06bc85b32cc39e14389721910160405180910390a29250929050565b600082815260208190526040902060010154611aec81612545565b610bf0838361254f565b3360008181526003602090815260408083206001600160a01b038716845290915290819020805460ff1916841515179055517fdcf2bd5a4c47afeb1792d170f6f5e6e528e30c6b546fffe62b697a11f8953b2b91610a3891819086908690614215565b611b61613df1565b6001600160a01b038216600090815260086020908152604091829020825160608101845290546001600160401b038082168352600160401b82041692820192909252600160801b9091046001600160801b0316918101919091526108a490613159565b611bcc612600565b80518214611bed576040516338f30c4b60e11b815260040160405180910390fd5b6000611bf76120b2565b60408051606080820183526009546001600160801b03811683526001600160401b03600160801b8083048216602080870191909152600160c01b909304821685870152855193840186526013548083168552600160401b810483169385019390935290910416928101929092529192506000611c71610c78565b9050611c7b613e11565b848152600a5460208201526009546001600160801b031660a0820152601354611cb5908390600160401b90046001600160401b0316613101565b60c08201526013546001600160401b031660e08201526020810151600090611cde90879061279d565b905060005b88811015611f075760008a8a83818110611cff57611cff6142ba565b9050602002016020810190611d149190613faf565b90506001600160a01b0381161580611d455750888281518110611d3957611d396142ba565b60200260200101516000145b611efe576001600160a01b0381166000908152600d60209081526040808320815180830190925280548252600101549181018290529190611d8890849087613190565b90506000611da883602001518784604001516001600160801b0316612f35565b9050871580611dcf5750611dcf8184600001518a8d602001516001600160401b0316612f55565b15611ded5760405163f87e38e960e01b815260040160405180910390fd5b6000806000611e16611e0387600001518d613101565b8e602001516001600160401b03166126a6565b905080611e308d604001516001600160401b031686613101565b611e3a91906142a7565b9150506000611e638d602001516001600160401b03168d602001516001600160401b0316613101565b90506000611e79670de0b6b3a7640000836126a6565b611e948e604001516001600160401b03168d60e00151613101565b611e9e91906142a7565b9050611eaa83826126a6565b9350505050611ee58d8781518110611ec457611ec46142ba565b6020026020010151611eda838b60e001516126a6565b808218908211021890565b610100890152611ef7888585886131cf565b9750505050505b50600101611ce3565b50611f4f8260000151611f3084606001518560e00151670de0b6b3a76400006118ac91906142a7565b8460800151611f3f9190614202565b8460200151868960400151613409565b506020820151600a556060820151604051632b0b3a6f60e21b81526001600160a01b037f0000000000000000000000000000000000000000000000000000000000000000169163ac2ce9bc91611fac913391309190600401614267565b600060405180830381600087803b158015611fc657600080fd5b505af1158015611fda573d6000803e3d6000fd5b505050604080840151336000908152600c60205291822080549193509190612003908490614202565b9091555050610120820151156120a757610120820151604051630bd0dedd60e21b815260048101919091527f00000000000000000000000000000000000000000000000000000000000000006001600160a01b031690632f437b74906024016020604051808303816000875af1158015612081573d6000803e3d6000fd5b505050506040513d601f19601f820116820180604052508101906120a591906141d3565b505b505050505050505050565b6120ba613e6a565b506040805160a081018252600554600781810b83526001600160401b03600160401b830481166020850152600160801b9092049091169282019290925260065460608201529054608082015290565b612111612600565b7ff96f3d6876b63665360200e15ed8964960110cbbd99e917fb50ad1e576f538ac61213b81612545565b6000828152600e60205260409020805460ff1916905561215c600f8361232c565b60405182907f343776161924dfe02a29fdf57e6087e2d25ca11fe703785a80632e9ab88c88a190600090a25050565b6000612195612600565b336000908152600c6020526040812080548492906121b49084906142a7565b909155506121e49050827f0000000000000000000000000000000000000000000000000000000000000000613101565b90506108a46001600160a01b037f000000000000000000000000000000000000000000000000000000000000000016848361343c565b61222482826113b6565b610c74576000828152602081815260408083206001600160a01b03851684529091529020805460ff1916600117905561225a3390565b6001600160a01b0316816001600160a01b0316837f2f8788117e7eff1d82e926ec794901d17c78024a50270940304540a733656f0d60405160405180910390a45050565b80516005805460208401516040808601516001600160401b03908116600160801b0267ffffffffffffffff60801b19938216600160401b026001600160801b03199095169190961617929092171692909217905560608201516006556080820151600755517f9334cbdde649ebcbf798eaa08c381dc574197dc53947470a9be908dbcccc330190600090a150565b60008181526020838152604091829020825180840190935280548352600101549082015261235a838361346c565b6123775760405163564e265760e11b815260040160405180910390fd5b60208082018051835160009081529590925260408086206001908101939093559251905185528285205591835282208281550155565b6123b5613e6a565b6123bd613df1565b60006123c76120b2565b92506123d28a611b59565b915060006123e0848a61279d565b90506123ed83828c612a4f565b6001600160801b031660408401526001600160401b0316825261242c60008812612418576000612421565b6124218861428b565b8a84604001516134da565b6001600160801b031660408401529050600061244e8b85858c8e8d888c613525565b909450905061246984826124628c8c612fbd565b8a8a613409565b50509750975097945050505050565b612482838361346c565b156124a057604051631e2bbc4f60e11b815260040160405180910390fd5b80158015906124b657506124b4838261346c565b155b156124d45760405163564e265760e11b815260040160405180910390fd5b6000818152602084905260409020805490839055811580156125055750600082815260208590526040902060010154155b1561251f5760008281526020859052604090206001018390555b600081815260209490945260408085206001908101859055938552909320928355910155565b61090181336135b3565b61255982826113b6565b15610c74576000828152602081815260408083206001600160a01b0385168085529252808320805460ff1916905551339285917ff6391f5c32d9c69d2a47ea670b442974b53935d1edc7fd64eb21e047a839171b9190a45050565b6125bc61360c565b6001805460ff191690557f5db9ee0a495bf2e6ff9c91a7834c1ba4fdd244a5e8aa4e537bd38aeae4b073aa335b6040516125f69190613fca565b60405180910390a1565b60015460ff16156126465760405162461bcd60e51b815260206004820152601060248201526f14185d5cd8589b194e881c185d5cd95960821b6044820152606401610c61565b565b6126a0846323b872dd60e01b85858560405160240161266993929190614267565b60408051601f198184030181529190526020810180516001600160e01b03166001600160e01b031990931692909217909152613655565b50505050565b60007812725dd1d243aba0e75fe645cc4873f9e65afe688c928e1f218311670de0b6b3a7640000021582026126e35763bcbede656000526004601cfd5b50670de0b6b3a7640000919091020490565b60008160070b1380156127135750670de0b6b3a7640000600782900b125b806127295750670de0b6b8c1e505ce600782900b135b156127475760405163947800ab60e01b815260040160405180910390fd5b6005805467ffffffffffffffff19166001600160401b038316179055604051600782900b81527fcb1621676ff5c8c9deff7ffc0af9b2c296851bc5b191381ac07d97e82ec03fe69060200160405180910390a150565b6000806000846000015160070b12156128a2576001600160401b037f000000000000000000000000000000000000000000000000000000000000000081811691604082901c1690670de0b6b3a764000064ffffffffff608083901c811682019260a881901c821683019260d09190911c90911601600061281d8a8a61302c565b90508481111561282a5750835b85811161285e5761284d61284761284186856142a7565b886126a6565b82613101565b6128579085614202565b9650612897565b61288a61288061286e84866142a7565b6118bb89670de0b6b3a76400006142a7565b6118ac88846142a7565b6128949083614202565b96505b5050505050506128a6565b5082515b6118c5848261372a565b6128b8613e6a565b6000806128c58988612fbd565b60608c0151909150871515806128ed5750856001600160401b0316876001600160401b031614155b1561293857612909866001600160401b03166118ac8b8b612fbd565b61291c886001600160401b03168b613101565b8d6060015161292b91906142a7565b6129359190614202565b90505b60008a1561297d576129786129726129548f606001518e6126a6565b8f604001518f61296491906142d0565b6001600160401b0316613101565b84613101565b612980565b60005b90506000866001600160801b0316828f6080015161299e9190614202565b6129a891906142a7565b90506040518060a001604052808f6000015160070b8152602001426001600160401b031681526020018e6001600160401b03168152602001848152602001828152509550505089600014612a3b57612a36612a30612a0a8e606001518d6126a6565b612a1c90670de0b6b3a76400006142a7565b8e60400151876040015161296491906142d0565b8b613101565b612a3e565b60005b925050509850989650505050505050565b6000612a7b612a7585602001516001600160401b031686600001518661296491906142d0565b83613101565b84604001516118c591906142f0565b612a92613768565b42600255565b6000806000612aa56120b2565b604080516060810182526009546001600160801b03811682526001600160401b03600160801b820481166020840152600160c01b90910416918101919091529091506000612af1610c78565b9050612afb613e11565b838152600a546020820181905283516001600160801b031660a0830152670de0b6b3a764000060e0830152600090612b3490869061279d565b600080516020614496833981519152546000818152601060209081526040808320838052909152902054919250905b8984606001511015612cb857811580612b7b57508a82115b612cb8576000828152600e602052604090205460ff161580612b9b575080155b15612bcf57506000908152600f60209081526040808320600101548084526010835281842084805290925290912054612b63565b6000828152601060209081526040808320848452909152902054818103612bf65750612cb8565b6001600160a01b0382166000908152600d602090815260408083208151808301909252805482526001015491810182905284929091612c3790849089613190565b9050612c438987613101565b60c08901526060880151612c57908f6142a7565b610100890152602082015181516040830151612c9892612c819290916001600160801b0316612f35565b835160208d01518c906001600160401b0316612f55565b15612cac57612ca9888383866131cf565b97505b83945050505050612b63565b612cd5846000015185608001518660200151888a60400151613409565b506020840151600a5560608401518a14612d0257604051633e6c5e0f60e01b815260040160405180910390fd5b8360600151846040015198509850505050505050509250929050565b600080612d2c858585612f35565b90508015801590612e105750866001600160401b0316612e0e7f0000000000000000000000000000000000000000000000000000000000000000887f00000000000000000000000000000000000000000000000000000000000000006001600160a01b03166370a08231306040518263ffffffff1660e01b8152600401612db39190613fca565b602060405180830381865afa158015612dd0573d6000803e3d6000fd5b505050506040513d601f19601f82011682018060405250810190612df491906141d3565b612dfe9190614310565b612e08919061433d565b836126a6565b105b15612e1f576001915050612e25565b60009150505b95945050505050565b60408051808201909152600080825260208201528551612e4e9085612fbd565b86526020860151612e5f9084612fbd565b6020870181905215801590612e9857506009546020870151865160408801516001600160801b0393841693612e9693929116612f35565b105b15612eb657604051634b2c23a160e11b815260040160405180910390fd5b6001600160a01b0387166000818152600d6020908152604090912088518155908801516001909101557f71671d6112ff9270f1553ebc8fbf767a3221090f1002c7047475b6fa8f5801cd8585612f0c8682612fbd565b6040805193845260208401929092529082015260600160405180910390a2509395945050505050565b600081612f4b85856001600160401b0316613101565b6118c591906142a7565b60008482612f638587614310565b612f6d919061433d565b101595945050505050565b808203600082138015612f8a57508281115b80612f9f5750600082128015612f9f57508281105b156108a45760405163e942b9ed60e01b815260040160405180910390fd5b818101600082138015612fcf57508281105b80612fe45750600082128015612fe457508281115b156108a4576040516354012a2960e11b815260040160405180910390fd5b6000670de0b6b3a764000061301784846137a3565b8161302457613024614327565b059392505050565b6000806130428385604001518660800151612f35565b905080156130f7576130f281600b547f00000000000000000000000000000000000000000000000000000000000000006001600160a01b0316631c3536e7306040518263ffffffff1660e01b815260040161309d9190613fca565b602060405180830381865afa1580156130ba573d6000803e3d6000fd5b505050506040513d601f19601f820116820180604052508101906130de91906141d3565b6130e89085614202565b6118bb91906142a7565b6118c5565b6000949350505050565b60008160001904831182021561311f5763c4c5d7f56000526004601cfd5b50670de0b6b3a764000091020490565b6000600160401b8210613155576040516302217c1560e11b815260040160405180910390fd5b5090565b613161613df1565b81516001600160401b031660000361315557600060208301819052670de0b6b3a7640000835260408301525090565b613198613df1565b6131a184611b59565b90506131ae818385612a4f565b6001600160801b031660408201526001600160401b03909116815292915050565b6131d7613e11565b60008060008060006131ff896020015189600001518a604001516001600160801b0316612f35565b905060006132168b61010001518c60e00151613101565b905061327c8183118015613236575060a08c015161323483856142a7565b105b61324d57613248838d60e001516126a6565b61326a565b61326a8c60a001518461326091906142a7565b8d60e001516126a6565b611eda8c600001518e60c001516137ec565b6101008c015190915081811181831802189550600061329f878d60e00151613101565b90506132b081848c604001516134da565b6001600160801b0390811660408d01528b519195506132d29183918716613822565b94506132e2878d60c001516126a6565b8b519096508611156132f3578a5195505b8a51861480156133065750848b60200151115b156133325761331581846142a7565b8c610120018181516133279190614202565b90525060208b015194505b505050600089602001519050600061336a888c600001518b858e602001516133598a61385e565b6133629061428b565b896000613525565b908c52905061339f888b8b61337e8961385e565b6133879061428b565b6133908961385e565b6133999061428b565b87612e2e565b50838b6020018181516133b291906142a7565b90525060408b0180518691906133c9908390614202565b90525060608b0180518791906133e0908390614202565b90525060808b0180518291906133f7908390614202565b905250999a9950505050505050505050565b600061342082848689604001518a60800151613884565b6134298661229e565b613432856138b6565b9695505050505050565b6040516001600160a01b038316602482015260448101829052610bf090849063a9059cbb60e01b90606401612669565b60008160000361348f5760405163ee7efd5760e01b815260040160405180910390fd5b6000828152602084905260409020541515806134bb575060008281526020849052604090206001015415155b8061191457505060008080526020929092526040909120600101541490565b60008184158015906134eb57508315155b1561351d57836135046001600160801b03851687614310565b61350e919061433d565b915061351a828261435f565b90505b935093915050565b61352d613e6a565b60208781015160008b815260119092526040822054613571908c906135528a8a612fbd565b6001600160401b038816156135675787613909565b8c60200151613909565b6001600160401b031660208a01526135898b8a61394f565b6135a18a8a600001518a8a8a868f602001518c6128b0565b909c909b509950505050505050505050565b6135bd82826113b6565b610c74576135ca816139fe565b6135d5836020613a10565b6040516020016135e69291906143a3565b60408051601f198184030181529082905262461bcd60e51b8252610c6191600401614412565b60015460ff166126465760405162461bcd60e51b815260206004820152601460248201527314185d5cd8589b194e881b9bdd081c185d5cd95960621b6044820152606401610c61565b60006136aa826040518060400160405280602081526020017f5361666545524332303a206c6f772d6c6576656c2063616c6c206661696c6564815250856001600160a01b0316613bab9092919063ffffffff16565b90508051600014806136cb5750808060200190518101906136cb9190614445565b610bf05760405162461bcd60e51b815260206004820152602a60248201527f5361666545524332303a204552433230206f7065726174696f6e20646964206e6044820152691bdd081cdd58d8d9595960b21b6064820152608401610c61565b600061191483604001516001600160401b03166118ac846001600160401b031686602001516001600160401b03164203670de0b6b3a7640000613bba565b613770612600565b6001805460ff1916811790557f62e78cea01bee320cd4e420270b5ea74000d11b0c9f74754ebdbfc544b05a258336125e9565b81810260008312806137ce575081158015906137ce5750828282816137ca576137ca614327565b0514155b156108a457604051631eed389360e01b815260040160405180910390fd5b60008160001904831182021561380a5763c4c5d7f56000526004601cfd5b50670de0b6b3a7640000910281810615159190040190565b60006138406138318386614202565b846001600160401b03166126a6565b90508361384e828585612f35565b1015611914576001019392505050565b6000600160ff1b821061315557604051632db27c5360e01b815260040160405180910390fd5b6138918585858585612d1e565b156138af57604051632ce9f52360e01b815260040160405180910390fd5b5050505050565b60006138c0612600565b6138ea827f0000000000000000000000000000000000000000000000000000000000000000613101565b600b60008282546138fb9190614202565b92505081905590505b919050565b80831580159061391a575082601254115b156118c5576000848152601060205260409020613937908661232c565b50505060009182525060116020526040812081905590565b6001600160a01b0382166000818152600860209081526040918290208451815486840151878601516001600160801b03908116600160801b81026001600160401b03938416600160401b81026001600160801b031990961694909616938417949094179190911692909217909355845192835292820192909252918201527f491dea4b757c9c18e4b668fc545a09f969bd7a6ca7c9f79bb5f53a1e996aeac89060600160405180910390a25050565b60606108a46001600160a01b03831660145b60606000613a1f836002614310565b613a2a906002614202565b6001600160401b03811115613a4157613a416140a4565b6040519080825280601f01601f191660200182016040528015613a6b576020820181803683370190505b509050600360fc1b81600081518110613a8657613a866142ba565b60200101906001600160f81b031916908160001a905350600f60fb1b81600181518110613ab557613ab56142ba565b60200101906001600160f81b031916908160001a9053506000613ad9846002614310565b613ae4906001614202565b90505b6001811115613b5c576f181899199a1a9b1b9c1cb0b131b232b360811b85600f1660108110613b1857613b186142ba565b1a60f81b828281518110613b2e57613b2e6142ba565b60200101906001600160f81b031916908160001a90535060049490941c93613b5581614462565b9050613ae7565b5083156119145760405162461bcd60e51b815260206004820181905260248201527f537472696e67733a20686578206c656e67746820696e73756666696369656e746044820152606401610c61565b60606118c58484600085613c78565b6000828015613c6c57848015613c6157600185168015613bdc57869350613be0565b8493505b50600284046002860495505b8515613c5b578687028760801c15613c0357600080fd5b81810181811015613c1357600080fd5b8690049750506001861615613c50578684028488820414158815151615613c3957600080fd5b81810181811015613c4957600080fd5b8690049450505b600286049550613bec565b50613c66565b600092505b50613c70565b8291505b509392505050565b606082471015613cd95760405162461bcd60e51b815260206004820152602660248201527f416464726573733a20696e73756666696369656e742062616c616e636520666f6044820152651c8818d85b1b60d21b6064820152608401610c61565b600080866001600160a01b03168587604051613cf59190614479565b60006040518083038185875af1925050503d8060008114613d32576040519150601f19603f3d011682016040523d82523d6000602084013e613d37565b606091505b5091509150613d4887838387613d53565b979650505050505050565b60608315613dc2578251600003613dbb576001600160a01b0385163b613dbb5760405162461bcd60e51b815260206004820152601d60248201527f416464726573733a2063616c6c20746f206e6f6e2d636f6e74726163740000006044820152606401610c61565b50816118c5565b6118c58383815115613dd75781518083602001fd5b8060405162461bcd60e51b8152600401610c619190614412565b604080516060810182526000808252602082018190529181019190915290565b604051806101400160405280613e25613e6a565b81526020016000815260200160008152602001600081526020016000815260200160008152602001600081526020016000815260200160008152602001600081525090565b6040805160a08101825260008082526020820181905291810182905260608101829052608081019190915290565b600060208284031215613eaa57600080fd5b81356001600160e01b03198116811461191457600080fd5b600060208284031215613ed457600080fd5b5035919050565b80356001600160a01b038116811461390457600080fd5b801515811461090157600080fd5b60008060408385031215613f1357600080fd5b613f1c83613edb565b91506020830135613f2c81613ef2565b809150509250929050565b60008060408385031215613f4a57600080fd5b50508035926020909101359150565b60008060408385031215613f6c57600080fd5b82359150613f7c60208401613edb565b90509250929050565b60008060408385031215613f9857600080fd5b613fa183613edb565b946020939093013593505050565b600060208284031215613fc157600080fd5b61191482613edb565b6001600160a01b0391909116815260200190565b600080600060608486031215613ff357600080fd5b613ffc84613edb565b925061400a60208501613edb565b9150604084013561401a81613ef2565b809150509250925092565b600080600080600060a0868803121561403d57600080fd5b61404686613edb565b945061405460208701613edb565b935061406260408701613edb565b94979396509394606081013594506080013592915050565b6000806040838503121561408d57600080fd5b61409683613edb565b9150613f7c60208401613edb565b634e487b7160e01b600052604160045260246000fd5b6000806000604084860312156140cf57600080fd5b83356001600160401b03808211156140e657600080fd5b818601915086601f8301126140fa57600080fd5b81358181111561410957600080fd5b602088818360051b860101111561411f57600080fd5b80840196508195508088013593508284111561413a57600080fd5b838801935088601f85011261414e57600080fd5b8335915082821115614162576141626140a4565b8160051b604051601f19603f83011681018181108682111715614187576141876140a4565b60405292835281830193508481018201928a8411156141a557600080fd5b948201945b838610156141c3578535855294820194938201936141aa565b8096505050505050509250925092565b6000602082840312156141e557600080fd5b5051919050565b634e487b7160e01b600052601160045260246000fd5b808201808211156108a4576108a46141ec565b6001600160a01b039485168152928416602084015292166040820152901515606082015260800190565b808201828112600083128015821682158216171561425f5761425f6141ec565b505092915050565b6001600160a01b039384168152919092166020820152604081019190915260600190565b6000600160ff1b82016142a0576142a06141ec565b5060000390565b818103818111156108a4576108a46141ec565b634e487b7160e01b600052603260045260246000fd5b6001600160401b03828116828216039080821115610bc457610bc46141ec565b6001600160801b03818116838216019080821115610bc457610bc46141ec565b80820281158282048414176108a4576108a46141ec565b634e487b7160e01b600052601260045260246000fd5b60008261435a57634e487b7160e01b600052601260045260246000fd5b500490565b6001600160801b03828116828216039080821115610bc457610bc46141ec565b60005b8381101561439a578181015183820152602001614382565b50506000910152565b76020b1b1b2b9b9a1b7b73a3937b61d1030b1b1b7bab73a1604d1b8152600083516143d581601785016020880161437f565b7001034b99036b4b9b9b4b733903937b6329607d1b601791840191820152835161440681602884016020880161437f565b01602801949350505050565b602081526000825180602084015261443181604085016020870161437f565b601f01601f19169190910160400192915050565b60006020828403121561445757600080fd5b815161191481613ef2565b600081614471576144716141ec565b506000190190565b6000825161448b81846020870161437f565b919091019291505056fef4803e074bd026baaf6ed2e288c9515f68c72fb7216eebdd7cae1718a53ec376a2646970667358221220fd09ec8c80b7d26439d6afd94f14a5592ee5eaa07f1c257b43ec992c84bd2c6864736f6c63430008130033",
    "linkReferences": {}
  },
  "methodIdentifiers": {
    "DEFAULT_ADMIN_ROLE()": "a217fddf",
    "activeLimitPriceTicks(uint256)": "683f81a1",
    "addLimitPriceTick(uint256,uint256)": "44a3c664",
    "buffer()": "edaafe20",
    "calculateRebateFactorForPriceTick(uint256)": "cb6238c8",
    "cancelLimitOrder()": "2202ce8c",
    "cash(address)": "b6dc16f6",
    "cdm()": "e2dfb317",
    "claimFees()": "d294f093",
    "createLimitOrder(uint256)": "2906f94e",
    "deposit(address,uint256)": "47e7ef24",
    "enterEmergencyMode()": "9844afd2",
    "exchange(uint256,uint256)": "d4b7eac3",
    "exchangePreview(uint256,uint256)": "88439aea",
    "getGlobalIRS()": "eb953449",
    "getLimitOrder(uint256,uint256)": "2af8992b",
    "getPositionIRS(address)": "dbe6b31c",
    "getPriceTick(uint256)": "51f813ec",
    "getRoleAdmin(bytes32)": "248a9ca3",
    "grantRole(bytes32,address)": "2f2ff15d",
    "hasPermission(address,address)": "cde68041",
    "hasRole(bytes32,address)": "91d14854",
    "limitOrderFloor()": "dc2ec249",
    "limitOrders(uint256)": "a3e2b495",
    "liquidatePositions(address[],uint256[])": "df10f687",
    "liquidationConfig()": "1c580ad5",
    "modifyCollateralAndDebt(address,address,address,int256,int256)": "c75a4b5e",
    "modifyPermission(address,address,bool)": "8309dbdd",
    "modifyPermission(address,bool)": "d9c70f57",
    "oracle()": "7dc0d1d0",
    "pause()": "8456cb59",
    "paused()": "5c975abb",
    "pausedAt()": "2e55d0f2",
    "positions(address)": "55f57510",
    "protocolFee()": "b0e21e8a",
    "removeLimitPriceTick(uint256)": "ef0563fb",
    "renounceRole(bytes32,address)": "36568abe",
    "revokeRole(bytes32,address)": "d547741f",
    "setParameter(bytes32,uint256)": "723507be",
    "setPermissionAgent(address,bool)": "280c37ef",
    "setUp()": "0a9254e4",
    "spotPrice()": "398482d8",
    "supportsInterface(bytes4)": "01ffc9a7",
    "token()": "fc0c546a",
    "tokenScale()": "342c02b1",
    "totalAccruedFees()": "ba95534c",
    "totalNormalDebt()": "842c311e",
    "unpause()": "3f4ba83a",
    "vaultConfig()": "7cc34bb4",
    "virtualIRS(address)": "8051ba75",
    "withdraw(address,uint256)": "f3fef3a3"
  },
  "id": 90
}