{
  "abi": [
    {
      "inputs": [
        {
          "internalType": "contract ICDM",
          "name": "cdm_",
          "type": "address"
        },
        {
          "internalType": "contract IStablecoin",
          "name": "stablecoin_",
          "type": "address"
        },
        {
          "internalType": "address",
          "name": "roleAdmin",
          "type": "address"
        },
        {
          "internalType": "address",
          "name": "pauseAdmin",
          "type": "address"
        }
      ],
      "stateMutability": "nonpayable",
      "type": "constructor"
    },
    {
      "anonymous": false,
      "inputs": [
        {
          "indexed": true,
          "internalType": "address",
          "name": "user",
          "type": "address"
        },
        {
          "indexed": false,
          "internalType": "uint256",
          "name": "amount",
          "type": "uint256"
        }
      ],
      "name": "Enter",
      "type": "event"
    },
    {
      "anonymous": false,
      "inputs": [
        {
          "indexed": true,
          "internalType": "address",
          "name": "user",
          "type": "address"
        },
        {
          "indexed": false,
          "internalType": "uint256",
          "name": "amount",
          "type": "uint256"
        }
      ],
      "name": "Exit",
      "type": "event"
    },
    {
      "anonymous": false,
      "inputs": [
        {
          "indexed": false,
          "internalType": "address",
          "name": "account",
          "type": "address"
        }
      ],
      "name": "Paused",
      "type": "event"
    },
    {
      "anonymous": false,
      "inputs": [
        {
          "indexed": true,
          "internalType": "bytes32",
          "name": "role",
          "type": "bytes32"
        },
        {
          "indexed": true,
          "internalType": "bytes32",
          "name": "previousAdminRole",
          "type": "bytes32"
        },
        {
          "indexed": true,
          "internalType": "bytes32",
          "name": "newAdminRole",
          "type": "bytes32"
        }
      ],
      "name": "RoleAdminChanged",
      "type": "event"
    },
    {
      "anonymous": false,
      "inputs": [
        {
          "indexed": true,
          "internalType": "bytes32",
          "name": "role",
          "type": "bytes32"
        },
        {
          "indexed": true,
          "internalType": "address",
          "name": "account",
          "type": "address"
        },
        {
          "indexed": true,
          "internalType": "address",
          "name": "sender",
          "type": "address"
        }
      ],
      "name": "RoleGranted",
      "type": "event"
    },
    {
      "anonymous": false,
      "inputs": [
        {
          "indexed": true,
          "internalType": "bytes32",
          "name": "role",
          "type": "bytes32"
        },
        {
          "indexed": true,
          "internalType": "address",
          "name": "account",
          "type": "address"
        },
        {
          "indexed": true,
          "internalType": "address",
          "name": "sender",
          "type": "address"
        }
      ],
      "name": "RoleRevoked",
      "type": "event"
    },
    {
      "anonymous": false,
      "inputs": [
        {
          "indexed": false,
          "internalType": "address",
          "name": "account",
          "type": "address"
        }
      ],
      "name": "Unpaused",
      "type": "event"
    },
    {
      "inputs": [],
      "name": "DEFAULT_ADMIN_ROLE",
      "outputs": [
        {
          "internalType": "bytes32",
          "name": "",
          "type": "bytes32"
        }
      ],
      "stateMutability": "view",
      "type": "function"
    },
    {
      "inputs": [],
      "name": "cdm",
      "outputs": [
        {
          "internalType": "contract ICDM",
          "name": "",
          "type": "address"
        }
      ],
      "stateMutability": "view",
      "type": "function"
    },
    {
      "inputs": [
        {
          "internalType": "address",
          "name": "user",
          "type": "address"
        },
        {
          "internalType": "uint256",
          "name": "amount",
          "type": "uint256"
        }
      ],
      "name": "enter",
      "outputs": [],
      "stateMutability": "nonpayable",
      "type": "function"
    },
    {
      "inputs": [
        {
          "internalType": "address",
          "name": "user",
          "type": "address"
        },
        {
          "internalType": "uint256",
          "name": "amount",
          "type": "uint256"
        }
      ],
      "name": "exit",
      "outputs": [],
      "stateMutability": "nonpayable",
      "type": "function"
    },
    {
      "inputs": [
        {
          "internalType": "bytes32",
          "name": "role",
          "type": "bytes32"
        }
      ],
      "name": "getRoleAdmin",
      "outputs": [
        {
          "internalType": "bytes32",
          "name": "",
          "type": "bytes32"
        }
      ],
      "stateMutability": "view",
      "type": "function"
    },
    {
      "inputs": [
        {
          "internalType": "bytes32",
          "name": "role",
          "type": "bytes32"
        },
        {
          "internalType": "address",
          "name": "account",
          "type": "address"
        }
      ],
      "name": "grantRole",
      "outputs": [],
      "stateMutability": "nonpayable",
      "type": "function"
    },
    {
      "inputs": [
        {
          "internalType": "bytes32",
          "name": "role",
          "type": "bytes32"
        },
        {
          "internalType": "address",
          "name": "account",
          "type": "address"
        }
      ],
      "name": "hasRole",
      "outputs": [
        {
          "internalType": "bool",
          "name": "",
          "type": "bool"
        }
      ],
      "stateMutability": "view",
      "type": "function"
    },
    {
      "inputs": [],
      "name": "pause",
      "outputs": [],
      "stateMutability": "nonpayable",
      "type": "function"
    },
    {
      "inputs": [],
      "name": "paused",
      "outputs": [
        {
          "internalType": "bool",
          "name": "",
          "type": "bool"
        }
      ],
      "stateMutability": "view",
      "type": "function"
    },
    {
      "inputs": [],
      "name": "pausedAt",
      "outputs": [
        {
          "internalType": "uint256",
          "name": "",
          "type": "uint256"
        }
      ],
      "stateMutability": "view",
      "type": "function"
    },
    {
      "inputs": [
        {
          "internalType": "bytes32",
          "name": "role",
          "type": "bytes32"
        },
        {
          "internalType": "address",
          "name": "account",
          "type": "address"
        }
      ],
      "name": "renounceRole",
      "outputs": [],
      "stateMutability": "nonpayable",
      "type": "function"
    },
    {
      "inputs": [
        {
          "internalType": "bytes32",
          "name": "role",
          "type": "bytes32"
        },
        {
          "internalType": "address",
          "name": "account",
          "type": "address"
        }
      ],
      "name": "revokeRole",
      "outputs": [],
      "stateMutability": "nonpayable",
      "type": "function"
    },
    {
      "inputs": [],
      "name": "stablecoin",
      "outputs": [
        {
          "internalType": "contract IStablecoin",
          "name": "",
          "type": "address"
        }
      ],
      "stateMutability": "view",
      "type": "function"
    },
    {
      "inputs": [
        {
          "internalType": "bytes4",
          "name": "interfaceId",
          "type": "bytes4"
        }
      ],
      "name": "supportsInterface",
      "outputs": [
        {
          "internalType": "bool",
          "name": "",
          "type": "bool"
        }
      ],
      "stateMutability": "view",
      "type": "function"
    },
    {
      "inputs": [],
      "name": "unpause",
      "outputs": [],
      "stateMutability": "nonpayable",
      "type": "function"
    }
  ],
  "bytecode": {
    "object": "0x60c06040523480156200001157600080fd5b5060405162000ee438038062000ee483398101604081905262000034916200014b565b6001805460ff191690556200004b60008362000091565b620000777f65d7a28e3265b37a6474929f336521b332c1681b933f6cb9f3376673440d862a8262000091565b50506001600160a01b039182166080521660a052620001b3565b6000828152602081815260408083206001600160a01b038516845290915290205460ff166200012e576000828152602081815260408083206001600160a01b03851684529091529020805460ff19166001179055620000ed3390565b6001600160a01b0316816001600160a01b0316837f2f8788117e7eff1d82e926ec794901d17c78024a50270940304540a733656f0d60405160405180910390a45b5050565b6001600160a01b03811681146200014857600080fd5b50565b600080600080608085870312156200016257600080fd5b84516200016f8162000132565b6020860151909450620001828162000132565b6040860151909350620001958162000132565b6060860151909250620001a88162000132565b939692955090935050565b60805160a051610cef620001f560003960008181610204015281816103f301526105d10152600081816101c50152818161036e01526105420152610cef6000f3fe608060405234801561001057600080fd5b50600436106100d55760003560e01c80637e348b7d116100875780637e348b7d146101775780638456cb591461018a57806391d1485414610192578063a217fddf146101a5578063d547741f146101ad578063e2dfb317146101c0578063e9cbd822146101ff578063ef693bed1461022657600080fd5b806301ffc9a7146100da578063248a9ca3146101025780632e55d0f2146101335780632f2ff15d1461013c57806336568abe146101515780633f4ba83a146101645780635c975abb1461016c575b600080fd5b6100ed6100e8366004610a97565b610239565b60405190151581526020015b60405180910390f35b610125610110366004610ac1565b60009081526020819052604090206001015490565b6040519081526020016100f9565b61012560025481565b61014f61014a366004610af6565b610270565b005b61014f61015f366004610af6565b61029a565b61014f61031d565b60015460ff166100ed565b61014f610185366004610b22565b610357565b61014f6104a0565b6100ed6101a0366004610af6565b6104d5565b610125600081565b61014f6101bb366004610af6565b6104fe565b6101e77f000000000000000000000000000000000000000000000000000000000000000081565b6040516001600160a01b0390911681526020016100f9565b6101e77f000000000000000000000000000000000000000000000000000000000000000081565b61014f610234366004610b22565b610523565b60006001600160e01b03198216637965db0b60e01b148061026a57506301ffc9a760e01b6001600160e01b03198316145b92915050565b60008281526020819052604090206001015461028b8161066a565b6102958383610674565b505050565b6001600160a01b038116331461030f5760405162461bcd60e51b815260206004820152602f60248201527f416363657373436f6e74726f6c3a2063616e206f6e6c792072656e6f756e636560448201526e103937b632b9903337b91039b2b63360891b60648201526084015b60405180910390fd5b61031982826106f8565b5050565b7f65d7a28e3265b37a6474929f336521b332c1681b933f6cb9f3376673440d862a6103478161066a565b61034f61075d565b506000600255565b604051632b0b3a6f60e21b81526001600160a01b037f0000000000000000000000000000000000000000000000000000000000000000169063ac2ce9bc906103a790309086908690600401610b4c565b600060405180830381600087803b1580156103c157600080fd5b505af11580156103d5573d6000803e3d6000fd5b5050604051632770a7eb60e21b8152336004820152602481018490527f00000000000000000000000000000000000000000000000000000000000000006001600160a01b03169250639dc29fac9150604401600060405180830381600087803b15801561044157600080fd5b505af1158015610455573d6000803e3d6000fd5b50505050816001600160a01b03167f1fb48929215fc354244acea33112720ce5b7ba6912db70bb0149e77aa7c91ce18260405161049491815260200190565b60405180910390a25050565b7f65d7a28e3265b37a6474929f336521b332c1681b933f6cb9f3376673440d862a6104ca8161066a565b6104d26107af565b50565b6000918252602082815260408084206001600160a01b0393909316845291905290205460ff1690565b6000828152602081905260409020600101546105198161066a565b61029583836106f8565b61052b6107bd565b604051632b0b3a6f60e21b81526001600160a01b037f0000000000000000000000000000000000000000000000000000000000000000169063ac2ce9bc9061057b90339030908690600401610b4c565b600060405180830381600087803b15801561059557600080fd5b505af11580156105a9573d6000803e3d6000fd5b50506040516340c10f1960e01b81526001600160a01b038581166004830152602482018590527f00000000000000000000000000000000000000000000000000000000000000001692506340c10f199150604401600060405180830381600087803b15801561061757600080fd5b505af115801561062b573d6000803e3d6000fd5b50505050816001600160a01b03167f22d324652c93739755cf4581508b60875ebdd78c20c0cff5cf8e23452b2996318260405161049491815260200190565b6104d28133610805565b61067e82826104d5565b610319576000828152602081815260408083206001600160a01b03851684529091529020805460ff191660011790556106b43390565b6001600160a01b0316816001600160a01b0316837f2f8788117e7eff1d82e926ec794901d17c78024a50270940304540a733656f0d60405160405180910390a45050565b61070282826104d5565b15610319576000828152602081815260408083206001600160a01b0385168085529252808320805460ff1916905551339285917ff6391f5c32d9c69d2a47ea670b442974b53935d1edc7fd64eb21e047a839171b9190a45050565b61076561085e565b6001805460ff191690557f5db9ee0a495bf2e6ff9c91a7834c1ba4fdd244a5e8aa4e537bd38aeae4b073aa335b6040516001600160a01b03909116815260200160405180910390a1565b6107b76108a7565b42600255565b60015460ff16156108035760405162461bcd60e51b815260206004820152601060248201526f14185d5cd8589b194e881c185d5cd95960821b6044820152606401610306565b565b61080f82826104d5565b6103195761081c816108e2565b6108278360206108f4565b604051602001610838929190610b94565b60408051601f198184030181529082905262461bcd60e51b825261030691600401610c03565b60015460ff166108035760405162461bcd60e51b815260206004820152601460248201527314185d5cd8589b194e881b9bdd081c185d5cd95960621b6044820152606401610306565b6108af6107bd565b6001805460ff1916811790557f62e78cea01bee320cd4e420270b5ea74000d11b0c9f74754ebdbfc544b05a25833610792565b606061026a6001600160a01b03831660145b60606000610903836002610c4c565b61090e906002610c63565b67ffffffffffffffff81111561092657610926610c76565b6040519080825280601f01601f191660200182016040528015610950576020820181803683370190505b509050600360fc1b8160008151811061096b5761096b610c8c565b60200101906001600160f81b031916908160001a905350600f60fb1b8160018151811061099a5761099a610c8c565b60200101906001600160f81b031916908160001a90535060006109be846002610c4c565b6109c9906001610c63565b90505b6001811115610a41576f181899199a1a9b1b9c1cb0b131b232b360811b85600f16601081106109fd576109fd610c8c565b1a60f81b828281518110610a1357610a13610c8c565b60200101906001600160f81b031916908160001a90535060049490941c93610a3a81610ca2565b90506109cc565b508315610a905760405162461bcd60e51b815260206004820181905260248201527f537472696e67733a20686578206c656e67746820696e73756666696369656e746044820152606401610306565b9392505050565b600060208284031215610aa957600080fd5b81356001600160e01b031981168114610a9057600080fd5b600060208284031215610ad357600080fd5b5035919050565b80356001600160a01b0381168114610af157600080fd5b919050565b60008060408385031215610b0957600080fd5b82359150610b1960208401610ada565b90509250929050565b60008060408385031215610b3557600080fd5b610b3e83610ada565b946020939093013593505050565b6001600160a01b039384168152919092166020820152604081019190915260600190565b60005b83811015610b8b578181015183820152602001610b73565b50506000910152565b76020b1b1b2b9b9a1b7b73a3937b61d1030b1b1b7bab73a1604d1b815260008351610bc6816017850160208801610b70565b7001034b99036b4b9b9b4b733903937b6329607d1b6017918401918201528351610bf7816028840160208801610b70565b01602801949350505050565b6020815260008251806020840152610c22816040850160208701610b70565b601f01601f19169190910160400192915050565b634e487b7160e01b600052601160045260246000fd5b808202811582820484141761026a5761026a610c36565b8082018082111561026a5761026a610c36565b634e487b7160e01b600052604160045260246000fd5b634e487b7160e01b600052603260045260246000fd5b600081610cb157610cb1610c36565b50600019019056fea264697066735822122061a2c87e4b8b906d13f60dd6c5a223002a7bdd926fd3331a2f75f826fde2469564736f6c63430008130033",
    "linkReferences": {}
  },
  "methodIdentifiers": {
    "DEFAULT_ADMIN_ROLE()": "a217fddf",
    "cdm()": "e2dfb317",
    "enter(address,uint256)": "7e348b7d",
    "exit(address,uint256)": "ef693bed",
    "getRoleAdmin(bytes32)": "248a9ca3",
    "grantRole(bytes32,address)": "2f2ff15d",
    "hasRole(bytes32,address)": "91d14854",
    "pause()": "8456cb59",
    "paused()": "5c975abb",
    "pausedAt()": "2e55d0f2",
    "renounceRole(bytes32,address)": "36568abe",
    "revokeRole(bytes32,address)": "d547741f",
    "stablecoin()": "e9cbd822",
    "supportsInterface(bytes4)": "01ffc9a7",
    "unpause()": "3f4ba83a"
  },
  "id": 97
}