{
  "abi": [
    {
      "inputs": [],
      "name": "getMethods",
      "outputs": [
        {
          "internalType": "bytes4[]",
          "name": "methods",
          "type": "bytes4[]"
        }
      ],
      "stateMutability": "pure",
      "type": "function"
    },
    {
      "inputs": [
        {
          "internalType": "address",
          "name": "",
          "type": "address"
        },
        {
          "internalType": "address",
          "name": "",
          "type": "address"
        },
        {
          "internalType": "uint256[]",
          "name": "",
          "type": "uint256[]"
        },
        {
          "internalType": "uint256[]",
          "name": "",
          "type": "uint256[]"
        },
        {
          "internalType": "bytes",
          "name": "",
          "type": "bytes"
        }
      ],
      "name": "onERC1155BatchReceived",
      "outputs": [
        {
          "internalType": "bytes4",
          "name": "",
          "type": "bytes4"
        }
      ],
      "stateMutability": "nonpayable",
      "type": "function"
    },
    {
      "inputs": [
        {
          "internalType": "address",
          "name": "",
          "type": "address"
        },
        {
          "internalType": "address",
          "name": "",
          "type": "address"
        },
        {
          "internalType": "uint256",
          "name": "",
          "type": "uint256"
        },
        {
          "internalType": "uint256",
          "name": "",
          "type": "uint256"
        },
        {
          "internalType": "bytes",
          "name": "",
          "type": "bytes"
        }
      ],
      "name": "onERC1155Received",
      "outputs": [
        {
          "internalType": "bytes4",
          "name": "",
          "type": "bytes4"
        }
      ],
      "stateMutability": "nonpayable",
      "type": "function"
    },
    {
      "inputs": [
        {
          "internalType": "address",
          "name": "",
          "type": "address"
        },
        {
          "internalType": "address",
          "name": "",
          "type": "address"
        },
        {
          "internalType": "uint256",
          "name": "",
          "type": "uint256"
        },
        {
          "internalType": "bytes",
          "name": "",
          "type": "bytes"
        }
      ],
      "name": "onERC721Received",
      "outputs": [
        {
          "internalType": "bytes4",
          "name": "",
          "type": "bytes4"
        }
      ],
      "stateMutability": "nonpayable",
      "type": "function"
    },
    {
      "inputs": [
        {
          "internalType": "bytes4",
          "name": "interfaceId",
          "type": "bytes4"
        }
      ],
      "name": "supportsInterface",
      "outputs": [
        {
          "internalType": "bool",
          "name": "",
          "type": "bool"
        }
      ],
      "stateMutability": "view",
      "type": "function"
    }
  ],
  "bytecode": {
    "object": "0x608060405234801561001057600080fd5b506105a1806100206000396000f3fe608060405234801561001057600080fd5b50600436106100575760003560e01c806301ffc9a71461005c578063150b7a02146100845780636aeb4594146100bb578063bc197c81146100d0578063f23a6e61146100ef575b600080fd5b61006f61006a36600461020c565b61010e565b60405190151581526020015b60405180910390f35b6100a2610092366004610310565b630a85bd0160e11b949350505050565b6040516001600160e01b0319909116815260200161007b565b6100c3610145565b60405161007b9190610378565b6100a26100de366004610446565b63bc197c8160e01b95945050505050565b6100a26100fd3660046104f0565b63f23a6e6160e01b95945050505050565b60006001600160e01b03198216630271189760e51b148061013f57506301ffc9a760e01b6001600160e01b03198316145b92915050565b6040805160038082526080820190925260609160208201838036833701905050905063f23a6e6160e01b8160008151811061018257610182610555565b6001600160e01b031990921660209283029190910190910152805163bc197c8160e01b90829060019081106101b9576101b9610555565b6001600160e01b0319909216602092830291909101909101528051630a85bd0160e11b90829060029081106101f0576101f0610555565b6001600160e01b03199092166020928302919091019091015290565b60006020828403121561021e57600080fd5b81356001600160e01b03198116811461023657600080fd5b9392505050565b80356001600160a01b038116811461025457600080fd5b919050565b634e487b7160e01b600052604160045260246000fd5b604051601f8201601f1916810167ffffffffffffffff8111828210171561029857610298610259565b604052919050565b600082601f8301126102b157600080fd5b813567ffffffffffffffff8111156102cb576102cb610259565b6102de601f8201601f191660200161026f565b8181528460208386010111156102f357600080fd5b816020850160208301376000918101602001919091529392505050565b6000806000806080858703121561032657600080fd5b61032f8561023d565b935061033d6020860161023d565b925060408501359150606085013567ffffffffffffffff81111561036057600080fd5b61036c878288016102a0565b91505092959194509250565b6020808252825182820181905260009190848201906040850190845b818110156103ba5783516001600160e01b03191683529284019291840191600101610394565b50909695505050505050565b600082601f8301126103d757600080fd5b8135602067ffffffffffffffff8211156103f3576103f3610259565b8160051b61040282820161026f565b928352848101820192828101908785111561041c57600080fd5b83870192505b8483101561043b57823582529183019190830190610422565b979650505050505050565b600080600080600060a0868803121561045e57600080fd5b6104678661023d565b94506104756020870161023d565b9350604086013567ffffffffffffffff8082111561049257600080fd5b61049e89838a016103c6565b945060608801359150808211156104b457600080fd5b6104c089838a016103c6565b935060808801359150808211156104d657600080fd5b506104e3888289016102a0565b9150509295509295909350565b600080600080600060a0868803121561050857600080fd5b6105118661023d565b945061051f6020870161023d565b93506040860135925060608601359150608086013567ffffffffffffffff81111561054957600080fd5b6104e3888289016102a0565b634e487b7160e01b600052603260045260246000fdfea264697066735822122052da702a8f7ce74080f8706762c9a996f27d94efe51780100d03fa1ef230a28e64736f6c63430008130033",
    "linkReferences": {}
  },
  "methodIdentifiers": {
    "getMethods()": "6aeb4594",
    "onERC1155BatchReceived(address,address,uint256[],uint256[],bytes)": "bc197c81",
    "onERC1155Received(address,address,uint256,uint256,bytes)": "f23a6e61",
    "onERC721Received(address,address,uint256,bytes)": "150b7a02",
    "supportsInterface(bytes4)": "01ffc9a7"
  },
  "id": 121
}