{
  "abi": [
    {
      "inputs": [
        {
          "internalType": "contract AggregatorV3Interface",
          "name": "aggregator1_",
          "type": "address"
        },
        {
          "internalType": "contract AggregatorV3Interface",
          "name": "aggregator2_",
          "type": "address"
        },
        {
          "internalType": "contract AggregatorV3Interface",
          "name": "aggregator3_",
          "type": "address"
        },
        {
          "internalType": "contract ICurvePool",
          "name": "curvePool_",
          "type": "address"
        },
        {
          "internalType": "uint256",
          "name": "stalePeriod_",
          "type": "uint256"
        }
      ],
      "stateMutability": "nonpayable",
      "type": "constructor"
    },
    {
      "inputs": [],
      "name": "Chainlink3PoolOracle__authorizeUpgrade_validStatus",
      "type": "error"
    },
    {
      "inputs": [
        {
          "internalType": "address",
          "name": "aggregator",
          "type": "address"
        }
      ],
      "name": "Chainlink3PoolOracle__getPrice_invalidValue",
      "type": "error"
    },
    {
      "anonymous": false,
      "inputs": [
        {
          "indexed": false,
          "internalType": "address",
          "name": "previousAdmin",
          "type": "address"
        },
        {
          "indexed": false,
          "internalType": "address",
          "name": "newAdmin",
          "type": "address"
        }
      ],
      "name": "AdminChanged",
      "type": "event"
    },
    {
      "anonymous": false,
      "inputs": [
        {
          "indexed": true,
          "internalType": "address",
          "name": "beacon",
          "type": "address"
        }
      ],
      "name": "BeaconUpgraded",
      "type": "event"
    },
    {
      "anonymous": false,
      "inputs": [
        {
          "indexed": false,
          "internalType": "uint8",
          "name": "version",
          "type": "uint8"
        }
      ],
      "name": "Initialized",
      "type": "event"
    },
    {
      "anonymous": false,
      "inputs": [
        {
          "indexed": true,
          "internalType": "bytes32",
          "name": "role",
          "type": "bytes32"
        },
        {
          "indexed": true,
          "internalType": "bytes32",
          "name": "previousAdminRole",
          "type": "bytes32"
        },
        {
          "indexed": true,
          "internalType": "bytes32",
          "name": "newAdminRole",
          "type": "bytes32"
        }
      ],
      "name": "RoleAdminChanged",
      "type": "event"
    },
    {
      "anonymous": false,
      "inputs": [
        {
          "indexed": true,
          "internalType": "bytes32",
          "name": "role",
          "type": "bytes32"
        },
        {
          "indexed": true,
          "internalType": "address",
          "name": "account",
          "type": "address"
        },
        {
          "indexed": true,
          "internalType": "address",
          "name": "sender",
          "type": "address"
        }
      ],
      "name": "RoleGranted",
      "type": "event"
    },
    {
      "anonymous": false,
      "inputs": [
        {
          "indexed": true,
          "internalType": "bytes32",
          "name": "role",
          "type": "bytes32"
        },
        {
          "indexed": true,
          "internalType": "address",
          "name": "account",
          "type": "address"
        },
        {
          "indexed": true,
          "internalType": "address",
          "name": "sender",
          "type": "address"
        }
      ],
      "name": "RoleRevoked",
      "type": "event"
    },
    {
      "anonymous": false,
      "inputs": [
        {
          "indexed": true,
          "internalType": "address",
          "name": "implementation",
          "type": "address"
        }
      ],
      "name": "Upgraded",
      "type": "event"
    },
    {
      "inputs": [],
      "name": "DEFAULT_ADMIN_ROLE",
      "outputs": [
        {
          "internalType": "bytes32",
          "name": "",
          "type": "bytes32"
        }
      ],
      "stateMutability": "view",
      "type": "function"
    },
    {
      "inputs": [],
      "name": "aggregator1",
      "outputs": [
        {
          "internalType": "contract AggregatorV3Interface",
          "name": "",
          "type": "address"
        }
      ],
      "stateMutability": "view",
      "type": "function"
    },
    {
      "inputs": [],
      "name": "aggregator2",
      "outputs": [
        {
          "internalType": "contract AggregatorV3Interface",
          "name": "",
          "type": "address"
        }
      ],
      "stateMutability": "view",
      "type": "function"
    },
    {
      "inputs": [],
      "name": "aggregator3",
      "outputs": [
        {
          "internalType": "contract AggregatorV3Interface",
          "name": "",
          "type": "address"
        }
      ],
      "stateMutability": "view",
      "type": "function"
    },
    {
      "inputs": [],
      "name": "aggregatorScale1",
      "outputs": [
        {
          "internalType": "uint256",
          "name": "",
          "type": "uint256"
        }
      ],
      "stateMutability": "view",
      "type": "function"
    },
    {
      "inputs": [],
      "name": "aggregatorScale2",
      "outputs": [
        {
          "internalType": "uint256",
          "name": "",
          "type": "uint256"
        }
      ],
      "stateMutability": "view",
      "type": "function"
    },
    {
      "inputs": [],
      "name": "aggregatorScale3",
      "outputs": [
        {
          "internalType": "uint256",
          "name": "",
          "type": "uint256"
        }
      ],
      "stateMutability": "view",
      "type": "function"
    },
    {
      "inputs": [],
      "name": "curvePool",
      "outputs": [
        {
          "internalType": "contract ICurvePool",
          "name": "",
          "type": "address"
        }
      ],
      "stateMutability": "view",
      "type": "function"
    },
    {
      "inputs": [
        {
          "internalType": "bytes32",
          "name": "role",
          "type": "bytes32"
        }
      ],
      "name": "getRoleAdmin",
      "outputs": [
        {
          "internalType": "bytes32",
          "name": "",
          "type": "bytes32"
        }
      ],
      "stateMutability": "view",
      "type": "function"
    },
    {
      "inputs": [
        {
          "internalType": "address",
          "name": "",
          "type": "address"
        }
      ],
      "name": "getStatus",
      "outputs": [
        {
          "internalType": "bool",
          "name": "status",
          "type": "bool"
        }
      ],
      "stateMutability": "view",
      "type": "function"
    },
    {
      "inputs": [
        {
          "internalType": "bytes32",
          "name": "role",
          "type": "bytes32"
        },
        {
          "internalType": "address",
          "name": "account",
          "type": "address"
        }
      ],
      "name": "grantRole",
      "outputs": [],
      "stateMutability": "nonpayable",
      "type": "function"
    },
    {
      "inputs": [
        {
          "internalType": "bytes32",
          "name": "role",
          "type": "bytes32"
        },
        {
          "internalType": "address",
          "name": "account",
          "type": "address"
        }
      ],
      "name": "hasRole",
      "outputs": [
        {
          "internalType": "bool",
          "name": "",
          "type": "bool"
        }
      ],
      "stateMutability": "view",
      "type": "function"
    },
    {
      "inputs": [
        {
          "internalType": "address",
          "name": "admin",
          "type": "address"
        },
        {
          "internalType": "address",
          "name": "manager",
          "type": "address"
        }
      ],
      "name": "initialize",
      "outputs": [],
      "stateMutability": "nonpayable",
      "type": "function"
    },
    {
      "inputs": [],
      "name": "proxiableUUID",
      "outputs": [
        {
          "internalType": "bytes32",
          "name": "",
          "type": "bytes32"
        }
      ],
      "stateMutability": "view",
      "type": "function"
    },
    {
      "inputs": [
        {
          "internalType": "bytes32",
          "name": "role",
          "type": "bytes32"
        },
        {
          "internalType": "address",
          "name": "account",
          "type": "address"
        }
      ],
      "name": "renounceRole",
      "outputs": [],
      "stateMutability": "nonpayable",
      "type": "function"
    },
    {
      "inputs": [
        {
          "internalType": "bytes32",
          "name": "role",
          "type": "bytes32"
        },
        {
          "internalType": "address",
          "name": "account",
          "type": "address"
        }
      ],
      "name": "revokeRole",
      "outputs": [],
      "stateMutability": "nonpayable",
      "type": "function"
    },
    {
      "inputs": [
        {
          "internalType": "address",
          "name": "",
          "type": "address"
        }
      ],
      "name": "spot",
      "outputs": [
        {
          "internalType": "uint256",
          "name": "price",
          "type": "uint256"
        }
      ],
      "stateMutability": "view",
      "type": "function"
    },
    {
      "inputs": [],
      "name": "stalePeriod",
      "outputs": [
        {
          "internalType": "uint256",
          "name": "",
          "type": "uint256"
        }
      ],
      "stateMutability": "view",
      "type": "function"
    },
    {
      "inputs": [
        {
          "internalType": "bytes4",
          "name": "interfaceId",
          "type": "bytes4"
        }
      ],
      "name": "supportsInterface",
      "outputs": [
        {
          "internalType": "bool",
          "name": "",
          "type": "bool"
        }
      ],
      "stateMutability": "view",
      "type": "function"
    },
    {
      "inputs": [
        {
          "internalType": "address",
          "name": "newImplementation",
          "type": "address"
        }
      ],
      "name": "upgradeTo",
      "outputs": [],
      "stateMutability": "nonpayable",
      "type": "function"
    },
    {
      "inputs": [
        {
          "internalType": "address",
          "name": "newImplementation",
          "type": "address"
        },
        {
          "internalType": "bytes",
          "name": "data",
          "type": "bytes"
        }
      ],
      "name": "upgradeToAndCall",
      "outputs": [],
      "stateMutability": "payable",
      "type": "function"
    }
  ],
  "bytecode": {
    "object": "0x6101a0604052306080523480156200001657600080fd5b5060405162001f7f38038062001f7f83398101604081905262000039916200030c565b600054610100900460ff16158080156200005a5750600054600160ff909116105b80620000765750303b15801562000076575060005460ff166001145b620000de5760405162461bcd60e51b815260206004820152602e60248201527f496e697469616c697a61626c653a20636f6e747261637420697320616c72656160448201526d191e481a5b9a5d1a585b1a5e995960921b606482015260840160405180910390fd5b6000805460ff19166001179055801562000102576000805461ff0019166101001790555b6001600160a01b0380871660c081905286821660e0528582166101005261018084905290841660a0526040805163313ce56760e01b8152905163313ce567916004808201926020929091908290030181865afa15801562000167573d6000803e3d6000fd5b505050506040513d601f19601f820116820180604052508101906200018d919062000380565b6200019d9060ff16600a620004c1565b610120818152505060e0516001600160a01b031663313ce5676040518163ffffffff1660e01b8152600401602060405180830381865afa158015620001e6573d6000803e3d6000fd5b505050506040513d601f19601f820116820180604052508101906200020c919062000380565b6200021c9060ff16600a620004c1565b6101408181525050610100516001600160a01b031663313ce5676040518163ffffffff1660e01b8152600401602060405180830381865afa15801562000266573d6000803e3d6000fd5b505050506040513d601f19601f820116820180604052508101906200028c919062000380565b6200029c9060ff16600a620004c1565b610160528015620002e7576000805461ff0019169055604051600181527f7f26b83ff96e1f2b6a682f133852f6798a09c465da95921460cefb38474024989060200160405180910390a15b505050505050620004cf565b6001600160a01b03811681146200030957600080fd5b50565b600080600080600060a086880312156200032557600080fd5b85516200033281620002f3565b60208701519095506200034581620002f3565b60408701519094506200035881620002f3565b60608701519093506200036b81620002f3565b80925050608086015190509295509295909350565b6000602082840312156200039357600080fd5b815160ff81168114620003a557600080fd5b9392505050565b634e487b7160e01b600052601160045260246000fd5b600181815b8085111562000403578160001904821115620003e757620003e7620003ac565b80851615620003f557918102915b93841c9390800290620003c7565b509250929050565b6000826200041c57506001620004bb565b816200042b57506000620004bb565b81600181146200044457600281146200044f576200046f565b6001915050620004bb565b60ff841115620004635762000463620003ac565b50506001821b620004bb565b5060208310610133831016604e8410600b841016171562000494575081810a620004bb565b620004a08383620003c2565b8060001904821115620004b757620004b7620003ac565b0290505b92915050565b6000620003a583836200040b565b60805160a05160c05160e05161010051610120516101405161016051610180516119ac620005d3600039600081816103b00152610c250152600081816101eb015281816106240152610df101526000818161046c0152818161058a0152610da201526000818161025d015281816104f00152610d5301526000818161017601528181610603015281816106540152610dd00152600081816103e401528181610569015281816105ba0152610d81015260008181610418015281816104cf015281816105200152610d320152600081816101b7015261069e0152600081816107e801528181610828015281816109ef01528181610a2f0152610aa701526119ac6000f3fe60806040526004361061012a5760003560e01c80633659cfe6116100ab578063a217fddf1161006f578063a217fddf14610389578063a5b36a361461039e578063b3a262ef146103d2578063b800281714610406578063d547741f1461043a578063f944ec0c1461045a57600080fd5b80633659cfe614610301578063485cc955146103215780634f1ef2861461034157806352d1902d1461035457806391d148541461036957600080fd5b806325606182116100f2578063256061821461024b5780632cbf04c11461027f5780632f2ff15d1461029f57806330ccebb5146102c157806336568abe146102e157600080fd5b806301ffc9a71461012f57806315d5ee5914610164578063218751b2146101a55780632389738b146101d9578063248a9ca31461021b575b600080fd5b34801561013b57600080fd5b5061014f61014a3660046114f9565b61048e565b60405190151581526020015b60405180910390f35b34801561017057600080fd5b506101987f000000000000000000000000000000000000000000000000000000000000000081565b60405161015b9190611523565b3480156101b157600080fd5b506101987f000000000000000000000000000000000000000000000000000000000000000081565b3480156101e557600080fd5b5061020d7f000000000000000000000000000000000000000000000000000000000000000081565b60405190815260200161015b565b34801561022757600080fd5b5061020d610236366004611537565b60009081526065602052604090206001015490565b34801561025757600080fd5b5061020d7f000000000000000000000000000000000000000000000000000000000000000081565b34801561028b57600080fd5b5061020d61029a36600461156c565b6104c5565b3480156102ab57600080fd5b506102bf6102ba366004611587565b61072c565b005b3480156102cd57600080fd5b5061014f6102dc36600461156c565b610756565b3480156102ed57600080fd5b506102bf6102fc366004611587565b610760565b34801561030d57600080fd5b506102bf61031c36600461156c565b6107de565b34801561032d57600080fd5b506102bf61033c3660046115b3565b6108a6565b6102bf61034f3660046115f3565b6109e5565b34801561036057600080fd5b5061020d610a9a565b34801561037557600080fd5b5061014f610384366004611587565b610b48565b34801561039557600080fd5b5061020d600081565b3480156103aa57600080fd5b5061020d7f000000000000000000000000000000000000000000000000000000000000000081565b3480156103de57600080fd5b506101987f000000000000000000000000000000000000000000000000000000000000000081565b34801561041257600080fd5b506101987f000000000000000000000000000000000000000000000000000000000000000081565b34801561044657600080fd5b506102bf610455366004611587565b610b73565b34801561046657600080fd5b5061020d7f000000000000000000000000000000000000000000000000000000000000000081565b60006001600160e01b03198216637965db0b60e01b14806104bf57506301ffc9a760e01b6001600160e01b03198316145b92915050565b60008060006105147f00000000000000000000000000000000000000000000000000000000000000007f0000000000000000000000000000000000000000000000000000000000000000610b98565b909250905081610562577f000000000000000000000000000000000000000000000000000000000000000060405163e231624360e01b81526004016105599190611523565b60405180910390fd5b60006105ae7f00000000000000000000000000000000000000000000000000000000000000007f0000000000000000000000000000000000000000000000000000000000000000610b98565b9093509050826105f3577f000000000000000000000000000000000000000000000000000000000000000060405163e231624360e01b81526004016105599190611523565b80821181831802821891506106487f00000000000000000000000000000000000000000000000000000000000000007f0000000000000000000000000000000000000000000000000000000000000000610b98565b90935090508261068d577f000000000000000000000000000000000000000000000000000000000000000060405163e231624360e01b81526004016105599190611523565b8082118183180282189150610723827f00000000000000000000000000000000000000000000000000000000000000006001600160a01b031663bb7b8b806040518163ffffffff1660e01b8152600401602060405180830381865afa1580156106fa573d6000803e3d6000fd5b505050506040513d601f19601f8201168201806040525081019061071e91906116b5565b610c6c565b95945050505050565b60008281526065602052604090206001015461074781610c9a565b6107518383610ca4565b505050565b60006104bf610d2a565b6001600160a01b03811633146107d05760405162461bcd60e51b815260206004820152602f60248201527f416363657373436f6e74726f6c3a2063616e206f6e6c792072656e6f756e636560448201526e103937b632b9903337b91039b2b63360891b6064820152608401610559565b6107da8282610e33565b5050565b6001600160a01b037f00000000000000000000000000000000000000000000000000000000000000001630036108265760405162461bcd60e51b8152600401610559906116ce565b7f00000000000000000000000000000000000000000000000000000000000000006001600160a01b0316610858610e9a565b6001600160a01b03161461087e5760405162461bcd60e51b81526004016105599061171a565b61088781610eb6565b604080516000808252602082019092526108a391839190610f06565b50565b600054610100900460ff16158080156108c65750600054600160ff909116105b806108e05750303b1580156108e0575060005460ff166001145b6109435760405162461bcd60e51b815260206004820152602e60248201527f496e697469616c697a61626c653a20636f6e747261637420697320616c72656160448201526d191e481a5b9a5d1a585b1a5e995960921b6064820152608401610559565b6000805460ff191660011790558015610966576000805461ff0019166101001790555b610971600084610ca4565b61099b7f241ecf16d79d0f8dbfb92cbc07fe17840425976cf0667f022fe9877caa831b0883610ca4565b8015610751576000805461ff0019169055604051600181527f7f26b83ff96e1f2b6a682f133852f6798a09c465da95921460cefb38474024989060200160405180910390a1505050565b6001600160a01b037f0000000000000000000000000000000000000000000000000000000000000000163003610a2d5760405162461bcd60e51b8152600401610559906116ce565b7f00000000000000000000000000000000000000000000000000000000000000006001600160a01b0316610a5f610e9a565b6001600160a01b031614610a855760405162461bcd60e51b81526004016105599061171a565b610a8e82610eb6565b6107da82826001610f06565b6000306001600160a01b037f00000000000000000000000000000000000000000000000000000000000000001614610b355760405162461bcd60e51b815260206004820152603860248201527f555550535570677261646561626c653a206d757374206e6f742062652063616c6044820152771b1959081d1a1c9bdd59da0819195b1959d85d1958d85b1b60421b6064820152608401610559565b5060008051602061193083398151915290565b60009182526065602090815260408084206001600160a01b0393909316845291905290205460ff1690565b600082815260656020526040902060010154610b8e81610c9a565b6107518383610e33565b600080836001600160a01b031663feaf968c6040518163ffffffff1660e01b815260040160a060405180830381865afa925050508015610bf5575060408051601f3d908101601f19168201909252610bf29181019061177d565b60015b15610c6557600084138015610c1c5750846001600160501b0316816001600160501b031610155b8015610c5157507f0000000000000000000000000000000000000000000000000000000000000000610c4e83426117e3565b11155b9650610c5d8489611071565b955050505050505b9250929050565b600081600019048311820215610c8a5763c4c5d7f56000526004601cfd5b50670de0b6b3a764000091020490565b6108a381336110c0565b610cae8282610b48565b6107da5760008281526065602090815260408083206001600160a01b03851684529091529020805460ff19166001179055610ce63390565b6001600160a01b0316816001600160a01b0316837f2f8788117e7eff1d82e926ec794901d17c78024a50270940304540a733656f0d60405160405180910390a45050565b600080610d777f00000000000000000000000000000000000000000000000000000000000000007f0000000000000000000000000000000000000000000000000000000000000000610b98565b5090506000610dc67f00000000000000000000000000000000000000000000000000000000000000007f0000000000000000000000000000000000000000000000000000000000000000610b98565b5090506000610e157f00000000000000000000000000000000000000000000000000000000000000007f0000000000000000000000000000000000000000000000000000000000000000610b98565b509050828015610e225750815b8015610e2b5750805b935050505090565b610e3d8282610b48565b156107da5760008281526065602090815260408083206001600160a01b0385168085529252808320805460ff1916905551339285917ff6391f5c32d9c69d2a47ea670b442974b53935d1edc7fd64eb21e047a839171b9190a45050565b600080516020611930833981519152546001600160a01b031690565b7f241ecf16d79d0f8dbfb92cbc07fe17840425976cf0667f022fe9877caa831b08610ee081610c9a565b610ee8610d2a565b156107da5760405163853d24d360e01b815260040160405180910390fd5b7f4910fdfa16fed3260ed0e7147f7cc6da11a60208b5b9406d12a635614ffd91435460ff1615610f395761075183611119565b826001600160a01b03166352d1902d6040518163ffffffff1660e01b8152600401602060405180830381865afa925050508015610f93575060408051601f3d908101601f19168201909252610f90918101906116b5565b60015b610ff65760405162461bcd60e51b815260206004820152602e60248201527f45524331393637557067726164653a206e657720696d706c656d656e7461746960448201526d6f6e206973206e6f74205555505360901b6064820152608401610559565b60008051602061193083398151915281146110655760405162461bcd60e51b815260206004820152602960248201527f45524331393637557067726164653a20756e737570706f727465642070726f786044820152681a58589b195555525160ba1b6064820152608401610559565b506107518383836111b5565b60007812725dd1d243aba0e75fe645cc4873f9e65afe688c928e1f218311670de0b6b3a7640000021582026110ae5763bcbede656000526004601cfd5b50670de0b6b3a7640000919091020490565b6110ca8282610b48565b6107da576110d7816111e0565b6110e28360206111f2565b6040516020016110f392919061181a565b60408051601f198184030181529082905262461bcd60e51b825261055991600401611889565b6001600160a01b0381163b6111865760405162461bcd60e51b815260206004820152602d60248201527f455243313936373a206e657720696d706c656d656e746174696f6e206973206e60448201526c1bdd08184818dbdb9d1c9858dd609a1b6064820152608401610559565b60008051602061193083398151915280546001600160a01b0319166001600160a01b0392909216919091179055565b6111be83611395565b6000825111806111cb5750805b15610751576111da83836113d5565b50505050565b60606104bf6001600160a01b03831660145b606060006112018360026118bc565b61120c9060026118d3565b67ffffffffffffffff811115611224576112246115dd565b6040519080825280601f01601f19166020018201604052801561124e576020820181803683370190505b509050600360fc1b81600081518110611269576112696118e6565b60200101906001600160f81b031916908160001a905350600f60fb1b81600181518110611298576112986118e6565b60200101906001600160f81b031916908160001a90535060006112bc8460026118bc565b6112c79060016118d3565b90505b600181111561133f576f181899199a1a9b1b9c1cb0b131b232b360811b85600f16601081106112fb576112fb6118e6565b1a60f81b828281518110611311576113116118e6565b60200101906001600160f81b031916908160001a90535060049490941c93611338816118fc565b90506112ca565b50831561138e5760405162461bcd60e51b815260206004820181905260248201527f537472696e67733a20686578206c656e67746820696e73756666696369656e746044820152606401610559565b9392505050565b61139e81611119565b6040516001600160a01b038216907fbc7cd75a20ee27fd9adebab32041f755214dbc6bffa90cc0225b39da2e5c2d3b90600090a250565b60606001600160a01b0383163b61143d5760405162461bcd60e51b815260206004820152602660248201527f416464726573733a2064656c65676174652063616c6c20746f206e6f6e2d636f6044820152651b9d1c9858dd60d21b6064820152608401610559565b600080846001600160a01b0316846040516114589190611913565b600060405180830381855af49150503d8060008114611493576040519150601f19603f3d011682016040523d82523d6000602084013e611498565b606091505b5091509150610723828260405180606001604052806027815260200161195060279139606083156114ca57508161138e565b61138e83838151156114df5781518083602001fd5b8060405162461bcd60e51b81526004016105599190611889565b60006020828403121561150b57600080fd5b81356001600160e01b03198116811461138e57600080fd5b6001600160a01b0391909116815260200190565b60006020828403121561154957600080fd5b5035919050565b80356001600160a01b038116811461156757600080fd5b919050565b60006020828403121561157e57600080fd5b61138e82611550565b6000806040838503121561159a57600080fd5b823591506115aa60208401611550565b90509250929050565b600080604083850312156115c657600080fd5b6115cf83611550565b91506115aa60208401611550565b634e487b7160e01b600052604160045260246000fd5b6000806040838503121561160657600080fd5b61160f83611550565b9150602083013567ffffffffffffffff8082111561162c57600080fd5b818501915085601f83011261164057600080fd5b813581811115611652576116526115dd565b604051601f8201601f19908116603f0116810190838211818310171561167a5761167a6115dd565b8160405282815288602084870101111561169357600080fd5b8260208601602083013760006020848301015280955050505050509250929050565b6000602082840312156116c757600080fd5b5051919050565b6020808252602c908201527f46756e6374696f6e206d7573742062652063616c6c6564207468726f7567682060408201526b19195b1959d85d1958d85b1b60a21b606082015260800190565b6020808252602c908201527f46756e6374696f6e206d7573742062652063616c6c6564207468726f7567682060408201526b6163746976652070726f787960a01b606082015260800190565b80516001600160501b038116811461156757600080fd5b600080600080600060a0868803121561179557600080fd5b61179e86611766565b94506020860151935060408601519250606086015191506117c160808701611766565b90509295509295909350565b634e487b7160e01b600052601160045260246000fd5b818103818111156104bf576104bf6117cd565b60005b838110156118115781810151838201526020016117f9565b50506000910152565b76020b1b1b2b9b9a1b7b73a3937b61d1030b1b1b7bab73a1604d1b81526000835161184c8160178501602088016117f6565b7001034b99036b4b9b9b4b733903937b6329607d1b601791840191820152835161187d8160288401602088016117f6565b01602801949350505050565b60208152600082518060208401526118a88160408501602087016117f6565b601f01601f19169190910160400192915050565b80820281158282048414176104bf576104bf6117cd565b808201808211156104bf576104bf6117cd565b634e487b7160e01b600052603260045260246000fd5b60008161190b5761190b6117cd565b506000190190565b600082516119258184602087016117f6565b919091019291505056fe360894a13ba1a3210667c828492db98dca3e2076cc3735a920a3ca505d382bbc416464726573733a206c6f772d6c6576656c2064656c65676174652063616c6c206661696c6564a2646970667358221220dba30cf86f206d858fba502aac45f5eeca388f885770c3865da4273e02541a0f64736f6c63430008130033",
    "linkReferences": {}
  },
  "methodIdentifiers": {
    "DEFAULT_ADMIN_ROLE()": "a217fddf",
    "aggregator1()": "b8002817",
    "aggregator2()": "b3a262ef",
    "aggregator3()": "15d5ee59",
    "aggregatorScale1()": "25606182",
    "aggregatorScale2()": "f944ec0c",
    "aggregatorScale3()": "2389738b",
    "curvePool()": "218751b2",
    "getRoleAdmin(bytes32)": "248a9ca3",
    "getStatus(address)": "30ccebb5",
    "grantRole(bytes32,address)": "2f2ff15d",
    "hasRole(bytes32,address)": "91d14854",
    "initialize(address,address)": "485cc955",
    "proxiableUUID()": "52d1902d",
    "renounceRole(bytes32,address)": "36568abe",
    "revokeRole(bytes32,address)": "d547741f",
    "spot(address)": "2cbf04c1",
    "stalePeriod()": "a5b36a36",
    "supportsInterface(bytes4)": "01ffc9a7",
    "upgradeTo(address)": "3659cfe6",
    "upgradeToAndCall(address,bytes)": "4f1ef286"
  },
  "id": 112
}