{
  "abi": [
    {
      "inputs": [
        {
          "internalType": "contract IYearnLensOracle",
          "name": "oracle_",
          "type": "address"
        },
        {
          "internalType": "contract IYVault",
          "name": "yearnVault_",
          "type": "address"
        }
      ],
      "stateMutability": "nonpayable",
      "type": "constructor"
    },
    {
      "inputs": [],
      "name": "YearnOracle__authorizeUpgrade_validStatus",
      "type": "error"
    },
    {
      "inputs": [],
      "name": "YearnOracle__isV1Vault_invalidYearnVault",
      "type": "error"
    },
    {
      "inputs": [],
      "name": "YearnOracle__spot_invalidValue",
      "type": "error"
    },
    {
      "anonymous": false,
      "inputs": [
        {
          "indexed": false,
          "internalType": "address",
          "name": "previousAdmin",
          "type": "address"
        },
        {
          "indexed": false,
          "internalType": "address",
          "name": "newAdmin",
          "type": "address"
        }
      ],
      "name": "AdminChanged",
      "type": "event"
    },
    {
      "anonymous": false,
      "inputs": [
        {
          "indexed": true,
          "internalType": "address",
          "name": "beacon",
          "type": "address"
        }
      ],
      "name": "BeaconUpgraded",
      "type": "event"
    },
    {
      "anonymous": false,
      "inputs": [
        {
          "indexed": false,
          "internalType": "uint8",
          "name": "version",
          "type": "uint8"
        }
      ],
      "name": "Initialized",
      "type": "event"
    },
    {
      "anonymous": false,
      "inputs": [
        {
          "indexed": true,
          "internalType": "bytes32",
          "name": "role",
          "type": "bytes32"
        },
        {
          "indexed": true,
          "internalType": "bytes32",
          "name": "previousAdminRole",
          "type": "bytes32"
        },
        {
          "indexed": true,
          "internalType": "bytes32",
          "name": "newAdminRole",
          "type": "bytes32"
        }
      ],
      "name": "RoleAdminChanged",
      "type": "event"
    },
    {
      "anonymous": false,
      "inputs": [
        {
          "indexed": true,
          "internalType": "bytes32",
          "name": "role",
          "type": "bytes32"
        },
        {
          "indexed": true,
          "internalType": "address",
          "name": "account",
          "type": "address"
        },
        {
          "indexed": true,
          "internalType": "address",
          "name": "sender",
          "type": "address"
        }
      ],
      "name": "RoleGranted",
      "type": "event"
    },
    {
      "anonymous": false,
      "inputs": [
        {
          "indexed": true,
          "internalType": "bytes32",
          "name": "role",
          "type": "bytes32"
        },
        {
          "indexed": true,
          "internalType": "address",
          "name": "account",
          "type": "address"
        },
        {
          "indexed": true,
          "internalType": "address",
          "name": "sender",
          "type": "address"
        }
      ],
      "name": "RoleRevoked",
      "type": "event"
    },
    {
      "anonymous": false,
      "inputs": [
        {
          "indexed": true,
          "internalType": "address",
          "name": "implementation",
          "type": "address"
        }
      ],
      "name": "Upgraded",
      "type": "event"
    },
    {
      "inputs": [],
      "name": "DEFAULT_ADMIN_ROLE",
      "outputs": [
        {
          "internalType": "bytes32",
          "name": "",
          "type": "bytes32"
        }
      ],
      "stateMutability": "view",
      "type": "function"
    },
    {
      "inputs": [
        {
          "internalType": "bytes32",
          "name": "role",
          "type": "bytes32"
        }
      ],
      "name": "getRoleAdmin",
      "outputs": [
        {
          "internalType": "bytes32",
          "name": "",
          "type": "bytes32"
        }
      ],
      "stateMutability": "view",
      "type": "function"
    },
    {
      "inputs": [
        {
          "internalType": "address",
          "name": "",
          "type": "address"
        }
      ],
      "name": "getStatus",
      "outputs": [
        {
          "internalType": "bool",
          "name": "status",
          "type": "bool"
        }
      ],
      "stateMutability": "view",
      "type": "function"
    },
    {
      "inputs": [
        {
          "internalType": "bytes32",
          "name": "role",
          "type": "bytes32"
        },
        {
          "internalType": "address",
          "name": "account",
          "type": "address"
        }
      ],
      "name": "grantRole",
      "outputs": [],
      "stateMutability": "nonpayable",
      "type": "function"
    },
    {
      "inputs": [
        {
          "internalType": "bytes32",
          "name": "role",
          "type": "bytes32"
        },
        {
          "internalType": "address",
          "name": "account",
          "type": "address"
        }
      ],
      "name": "hasRole",
      "outputs": [
        {
          "internalType": "bool",
          "name": "",
          "type": "bool"
        }
      ],
      "stateMutability": "view",
      "type": "function"
    },
    {
      "inputs": [
        {
          "internalType": "address",
          "name": "admin",
          "type": "address"
        },
        {
          "internalType": "address",
          "name": "manager",
          "type": "address"
        }
      ],
      "name": "initialize",
      "outputs": [],
      "stateMutability": "nonpayable",
      "type": "function"
    },
    {
      "inputs": [],
      "name": "isV1Vault",
      "outputs": [
        {
          "internalType": "bool",
          "name": "",
          "type": "bool"
        }
      ],
      "stateMutability": "view",
      "type": "function"
    },
    {
      "inputs": [],
      "name": "oracle",
      "outputs": [
        {
          "internalType": "contract IYearnLensOracle",
          "name": "",
          "type": "address"
        }
      ],
      "stateMutability": "view",
      "type": "function"
    },
    {
      "inputs": [],
      "name": "proxiableUUID",
      "outputs": [
        {
          "internalType": "bytes32",
          "name": "",
          "type": "bytes32"
        }
      ],
      "stateMutability": "view",
      "type": "function"
    },
    {
      "inputs": [
        {
          "internalType": "bytes32",
          "name": "role",
          "type": "bytes32"
        },
        {
          "internalType": "address",
          "name": "account",
          "type": "address"
        }
      ],
      "name": "renounceRole",
      "outputs": [],
      "stateMutability": "nonpayable",
      "type": "function"
    },
    {
      "inputs": [
        {
          "internalType": "bytes32",
          "name": "role",
          "type": "bytes32"
        },
        {
          "internalType": "address",
          "name": "account",
          "type": "address"
        }
      ],
      "name": "revokeRole",
      "outputs": [],
      "stateMutability": "nonpayable",
      "type": "function"
    },
    {
      "inputs": [
        {
          "internalType": "address",
          "name": "",
          "type": "address"
        }
      ],
      "name": "spot",
      "outputs": [
        {
          "internalType": "uint256",
          "name": "price",
          "type": "uint256"
        }
      ],
      "stateMutability": "view",
      "type": "function"
    },
    {
      "inputs": [
        {
          "internalType": "bytes4",
          "name": "interfaceId",
          "type": "bytes4"
        }
      ],
      "name": "supportsInterface",
      "outputs": [
        {
          "internalType": "bool",
          "name": "",
          "type": "bool"
        }
      ],
      "stateMutability": "view",
      "type": "function"
    },
    {
      "inputs": [
        {
          "internalType": "address",
          "name": "newImplementation",
          "type": "address"
        }
      ],
      "name": "upgradeTo",
      "outputs": [],
      "stateMutability": "nonpayable",
      "type": "function"
    },
    {
      "inputs": [
        {
          "internalType": "address",
          "name": "newImplementation",
          "type": "address"
        },
        {
          "internalType": "bytes",
          "name": "data",
          "type": "bytes"
        }
      ],
      "name": "upgradeToAndCall",
      "outputs": [],
      "stateMutability": "payable",
      "type": "function"
    },
    {
      "inputs": [],
      "name": "vault",
      "outputs": [
        {
          "internalType": "contract IYVault",
          "name": "",
          "type": "address"
        }
      ],
      "stateMutability": "view",
      "type": "function"
    },
    {
      "inputs": [],
      "name": "vaultTokenAddress",
      "outputs": [
        {
          "internalType": "address",
          "name": "",
          "type": "address"
        }
      ],
      "stateMutability": "view",
      "type": "function"
    },
    {
      "inputs": [],
      "name": "vaultTokenScale",
      "outputs": [
        {
          "internalType": "uint256",
          "name": "",
          "type": "uint256"
        }
      ],
      "stateMutability": "view",
      "type": "function"
    }
  ],
  "bytecode": {
    "object": "0x610140604052306080523480156200001657600080fd5b5060405162001c7838038062001c7883398101604081905262000039916200037c565b600054610100900460ff16158080156200005a5750600054600160ff909116105b80620000765750303b15801562000076575060005460ff166001145b620000de5760405162461bcd60e51b815260206004820152602e60248201527f496e697469616c697a61626c653a20636f6e747261637420697320616c72656160448201526d191e481a5b9a5d1a585b1a5e995960921b606482015260840160405180910390fd5b6000805460ff19166001179055801562000102576000805461ff0019166101001790555b6001600160a01b0380841660a052821660c081905260408051637e062a3560e11b8152905163fc0c546a916004808201926020929091908290030181865afa15801562000153573d6000803e3d6000fd5b505050506040513d601f19601f82011682018060405250810190620001799190620003bb565b6001600160a01b031660e0526200018f62000274565b1515610100819052620002165760e0516001600160a01b031663313ce5676040518163ffffffff1660e01b8152600401602060405180830381865afa158015620001dd573d6000803e3d6000fd5b505050506040513d601f19601f82011682018060405250810190620002039190620003e2565b6200021090600a6200051c565b62000220565b670de0b6b3a76400005b6101205280156200026b576000805461ff0019169055604051600181527f7f26b83ff96e1f2b6a682f133852f6798a09c465da95921460cefb38474024989060200160405180910390a15b50505062000547565b600060c0516001600160a01b03166377c7b8fc6040518163ffffffff1660e01b8152600401602060405180830381865afa925050508015620002d5575060408051601f3d908101601f19168201909252620002d2918101906200052d565b60015b6200035b5760c0516001600160a01b03166399530b066040518163ffffffff1660e01b8152600401602060405180830381865afa92505050801562000339575060408051601f3d908101601f1916820190925262000336918101906200052d565b60015b6200035757604051632dbc8ea560e11b815260040160405180910390fd5b5090565b600191505090565b6001600160a01b03811681146200037957600080fd5b50565b600080604083850312156200039057600080fd5b82516200039d8162000363565b6020840151909250620003b08162000363565b809150509250929050565b600060208284031215620003ce57600080fd5b8151620003db8162000363565b9392505050565b600060208284031215620003f557600080fd5b815160ff81168114620003db57600080fd5b634e487b7160e01b600052601160045260246000fd5b600181815b808511156200045e57816000190482111562000442576200044262000407565b808516156200045057918102915b93841c939080029062000422565b509250929050565b600082620004775750600162000516565b81620004865750600062000516565b81600181146200049f5760028114620004aa57620004ca565b600191505062000516565b60ff841115620004be57620004be62000407565b50506001821b62000516565b5060208310610133831016604e8410600b8410161715620004ef575081810a62000516565b620004fb83836200041d565b806000190482111562000512576200051262000407565b0290505b92915050565b6000620003db60ff84168362000466565b6000602082840312156200054057600080fd5b5051919050565b60805160a05160c05160e051610100516101205161169b620005dd6000396000818161029101526109590152600081816101350152610cf301526000818161036601526108b601526000818161039a01528181610d190152610d9d0152600081816102c501526108e10152600081816104e601528181610526015281816106f50152818161073501526107ad015261169b6000f3fe6080604052600436106100e95760003560e01c80634f1ef286116100855780634f1ef2861461025757806352d1902d1461026a5780635551e0901461027f5780637dc0d1d0146102b357806391d14854146102ff578063a217fddf1461031f578063d547741f14610334578063df72f01714610354578063fbfa77cf1461038857600080fd5b806301ffc9a7146100ee578063063ab2ca14610123578063248a9ca3146101575780632cbf04c1146101955780632f2ff15d146101b557806330ccebb5146101d757806336568abe146101f75780633659cfe614610217578063485cc95514610237575b600080fd5b3480156100fa57600080fd5b5061010e610109366004611259565b6103bc565b60405190151581526020015b60405180910390f35b34801561012f57600080fd5b5061010e7f000000000000000000000000000000000000000000000000000000000000000081565b34801561016357600080fd5b50610187610172366004611283565b60009081526065602052604090206001015490565b60405190815260200161011a565b3480156101a157600080fd5b506101876101b03660046112b3565b6103f3565b3480156101c157600080fd5b506101d56101d03660046112ce565b610425565b005b3480156101e357600080fd5b5061010e6101f23660046112b3565b61044f565b34801561020357600080fd5b506101d56102123660046112ce565b610459565b34801561022357600080fd5b506101d56102323660046112b3565b6104dc565b34801561024357600080fd5b506101d56102523660046112fa565b6105a4565b6101d561026536600461133a565b6106eb565b34801561027657600080fd5b506101876107a0565b34801561028b57600080fd5b506101877f000000000000000000000000000000000000000000000000000000000000000081565b3480156102bf57600080fd5b506102e77f000000000000000000000000000000000000000000000000000000000000000081565b6040516001600160a01b03909116815260200161011a565b34801561030b57600080fd5b5061010e61031a3660046112ce565b61084f565b34801561032b57600080fd5b50610187600081565b34801561034057600080fd5b506101d561034f3660046112ce565b61087a565b34801561036057600080fd5b506102e77f000000000000000000000000000000000000000000000000000000000000000081565b34801561039457600080fd5b506102e77f000000000000000000000000000000000000000000000000000000000000000081565b60006001600160e01b03198216637965db0b60e01b14806103ed57506301ffc9a760e01b6001600160e01b03198316145b92915050565b60006103fd61089f565b90508060000361042057604051637227decd60e11b815260040160405180910390fd5b919050565b600082815260656020526040902060010154610440816109a3565b61044a83836109ad565b505050565b60006103ed610a33565b6001600160a01b03811633146104ce5760405162461bcd60e51b815260206004820152602f60248201527f416363657373436f6e74726f6c3a2063616e206f6e6c792072656e6f756e636560448201526e103937b632b9903337b91039b2b63360891b60648201526084015b60405180910390fd5b6104d88282610a44565b5050565b6001600160a01b037f00000000000000000000000000000000000000000000000000000000000000001630036105245760405162461bcd60e51b81526004016104c5906113fc565b7f00000000000000000000000000000000000000000000000000000000000000006001600160a01b0316610556610aab565b6001600160a01b03161461057c5760405162461bcd60e51b81526004016104c590611448565b61058581610ac7565b604080516000808252602082019092526105a191839190610b17565b50565b600054610100900460ff16158080156105c45750600054600160ff909116105b806105de5750303b1580156105de575060005460ff166001145b6106415760405162461bcd60e51b815260206004820152602e60248201527f496e697469616c697a61626c653a20636f6e747261637420697320616c72656160448201526d191e481a5b9a5d1a585b1a5e995960921b60648201526084016104c5565b6000805460ff191660011790558015610664576000805461ff0019166101001790555b61066c610c82565b6106776000846109ad565b6106a17f241ecf16d79d0f8dbfb92cbc07fe17840425976cf0667f022fe9877caa831b08836109ad565b801561044a576000805461ff0019169055604051600181527f7f26b83ff96e1f2b6a682f133852f6798a09c465da95921460cefb38474024989060200160405180910390a1505050565b6001600160a01b037f00000000000000000000000000000000000000000000000000000000000000001630036107335760405162461bcd60e51b81526004016104c5906113fc565b7f00000000000000000000000000000000000000000000000000000000000000006001600160a01b0316610765610aab565b6001600160a01b03161461078b5760405162461bcd60e51b81526004016104c590611448565b61079482610ac7565b6104d882826001610b17565b6000306001600160a01b037f0000000000000000000000000000000000000000000000000000000000000000161461083b5760405162461bcd60e51b815260206004820152603860248201527f555550535570677261646561626c653a206d757374206e6f742062652063616c6044820152771b1959081d1a1c9bdd59da0819195b1959d85d1958d85b1b60421b60648201526084016104c5565b5060008051602061161f8339815191525b90565b60009182526065602090815260408084206001600160a01b0393909316845291905290205460ff1690565b600082815260656020526040902060010154610895816109a3565b61044a8383610a44565b604051632415d18360e11b81526001600160a01b037f0000000000000000000000000000000000000000000000000000000000000000811660048301526000917f00000000000000000000000000000000000000000000000000000000000000009091169063482ba30690602401602060405180830381865afa925050508015610946575060408051601f3d908101601f1916820190925261094391810190611494565b60015b1561084c576000610955610cef565b90507f000000000000000000000000000000000000000000000000000000000000000064e8d4a5100061098883856114c3565b61099291906114c3565b61099c91906114da565b9250505090565b6105a18133610e12565b6109b7828261084f565b6104d85760008281526065602090815260408083206001600160a01b03851684529091529020805460ff191660011790556109ef3390565b6001600160a01b0316816001600160a01b0316837f2f8788117e7eff1d82e926ec794901d17c78024a50270940304540a733656f0d60405160405180910390a45050565b6000610a3d61089f565b1515919050565b610a4e828261084f565b156104d85760008281526065602090815260408083206001600160a01b0385168085529252808320805460ff1916905551339285917ff6391f5c32d9c69d2a47ea670b442974b53935d1edc7fd64eb21e047a839171b9190a45050565b60008051602061161f833981519152546001600160a01b031690565b7f241ecf16d79d0f8dbfb92cbc07fe17840425976cf0667f022fe9877caa831b08610af1816109a3565b610af9610a33565b156104d857604051637c0fefb360e01b815260040160405180910390fd5b7f4910fdfa16fed3260ed0e7147f7cc6da11a60208b5b9406d12a635614ffd91435460ff1615610b4a5761044a83610e6b565b826001600160a01b03166352d1902d6040518163ffffffff1660e01b8152600401602060405180830381865afa925050508015610ba4575060408051601f3d908101601f19168201909252610ba191810190611494565b60015b610c075760405162461bcd60e51b815260206004820152602e60248201527f45524331393637557067726164653a206e657720696d706c656d656e7461746960448201526d6f6e206973206e6f74205555505360901b60648201526084016104c5565b60008051602061161f8339815191528114610c765760405162461bcd60e51b815260206004820152602960248201527f45524331393637557067726164653a20756e737570706f727465642070726f786044820152681a58589b195555525160ba1b60648201526084016104c5565b5061044a838383610f07565b600054610100900460ff16610ced5760405162461bcd60e51b815260206004820152602b60248201527f496e697469616c697a61626c653a20636f6e7472616374206973206e6f74206960448201526a6e697469616c697a696e6760a81b60648201526084016104c5565b565b60007f000000000000000000000000000000000000000000000000000000000000000015610d9b577f00000000000000000000000000000000000000000000000000000000000000006001600160a01b03166377c7b8fc6040518163ffffffff1660e01b8152600401602060405180830381865afa925050508015610d91575060408051601f3d908101601f19168201909252610d8e91810190611494565b60015b1561084c57905090565b7f00000000000000000000000000000000000000000000000000000000000000006001600160a01b03166399530b066040518163ffffffff1660e01b8152600401602060405180830381865afa925050508015610d91575060408051601f3d908101601f19168201909252610d8e91810190611494565b610e1c828261084f565b6104d857610e2981610f32565b610e34836020610f44565b604051602001610e45929190611520565b60408051601f198184030181529082905262461bcd60e51b82526104c59160040161158f565b6001600160a01b0381163b610ed85760405162461bcd60e51b815260206004820152602d60248201527f455243313936373a206e657720696d706c656d656e746174696f6e206973206e60448201526c1bdd08184818dbdb9d1c9858dd609a1b60648201526084016104c5565b60008051602061161f83398151915280546001600160a01b0319166001600160a01b0392909216919091179055565b610f10836110e7565b600082511180610f1d5750805b1561044a57610f2c8383611127565b50505050565b60606103ed6001600160a01b03831660145b60606000610f538360026114c3565b610f5e9060026115c2565b67ffffffffffffffff811115610f7657610f76611324565b6040519080825280601f01601f191660200182016040528015610fa0576020820181803683370190505b509050600360fc1b81600081518110610fbb57610fbb6115d5565b60200101906001600160f81b031916908160001a905350600f60fb1b81600181518110610fea57610fea6115d5565b60200101906001600160f81b031916908160001a905350600061100e8460026114c3565b6110199060016115c2565b90505b6001811115611091576f181899199a1a9b1b9c1cb0b131b232b360811b85600f166010811061104d5761104d6115d5565b1a60f81b828281518110611063576110636115d5565b60200101906001600160f81b031916908160001a90535060049490941c9361108a816115eb565b905061101c565b5083156110e05760405162461bcd60e51b815260206004820181905260248201527f537472696e67733a20686578206c656e67746820696e73756666696369656e7460448201526064016104c5565b9392505050565b6110f081610e6b565b6040516001600160a01b038216907fbc7cd75a20ee27fd9adebab32041f755214dbc6bffa90cc0225b39da2e5c2d3b90600090a250565b60606001600160a01b0383163b61118f5760405162461bcd60e51b815260206004820152602660248201527f416464726573733a2064656c65676174652063616c6c20746f206e6f6e2d636f6044820152651b9d1c9858dd60d21b60648201526084016104c5565b600080846001600160a01b0316846040516111aa9190611602565b600060405180830381855af49150503d80600081146111e5576040519150601f19603f3d011682016040523d82523d6000602084013e6111ea565b606091505b5091509150611212828260405180606001604052806027815260200161163f6027913961121b565b95945050505050565b6060831561122a5750816110e0565b6110e0838381511561123f5781518083602001fd5b8060405162461bcd60e51b81526004016104c5919061158f565b60006020828403121561126b57600080fd5b81356001600160e01b0319811681146110e057600080fd5b60006020828403121561129557600080fd5b5035919050565b80356001600160a01b038116811461042057600080fd5b6000602082840312156112c557600080fd5b6110e08261129c565b600080604083850312156112e157600080fd5b823591506112f16020840161129c565b90509250929050565b6000806040838503121561130d57600080fd5b6113168361129c565b91506112f16020840161129c565b634e487b7160e01b600052604160045260246000fd5b6000806040838503121561134d57600080fd5b6113568361129c565b9150602083013567ffffffffffffffff8082111561137357600080fd5b818501915085601f83011261138757600080fd5b81358181111561139957611399611324565b604051601f8201601f19908116603f011681019083821181831017156113c1576113c1611324565b816040528281528860208487010111156113da57600080fd5b8260208601602083013760006020848301015280955050505050509250929050565b6020808252602c908201527f46756e6374696f6e206d7573742062652063616c6c6564207468726f7567682060408201526b19195b1959d85d1958d85b1b60a21b606082015260800190565b6020808252602c908201527f46756e6374696f6e206d7573742062652063616c6c6564207468726f7567682060408201526b6163746976652070726f787960a01b606082015260800190565b6000602082840312156114a657600080fd5b5051919050565b634e487b7160e01b600052601160045260246000fd5b80820281158282048414176103ed576103ed6114ad565b6000826114f757634e487b7160e01b600052601260045260246000fd5b500490565b60005b838110156115175781810151838201526020016114ff565b50506000910152565b76020b1b1b2b9b9a1b7b73a3937b61d1030b1b1b7bab73a1604d1b8152600083516115528160178501602088016114fc565b7001034b99036b4b9b9b4b733903937b6329607d1b60179184019182015283516115838160288401602088016114fc565b01602801949350505050565b60208152600082518060208401526115ae8160408501602087016114fc565b601f01601f19169190910160400192915050565b808201808211156103ed576103ed6114ad565b634e487b7160e01b600052603260045260246000fd5b6000816115fa576115fa6114ad565b506000190190565b600082516116148184602087016114fc565b919091019291505056fe360894a13ba1a3210667c828492db98dca3e2076cc3735a920a3ca505d382bbc416464726573733a206c6f772d6c6576656c2064656c65676174652063616c6c206661696c6564a2646970667358221220f052985be39cb735a39fd6928cd8acdd9e11f193cf52813d97071b0cceb4919964736f6c63430008130033",
    "linkReferences": {}
  },
  "methodIdentifiers": {
    "DEFAULT_ADMIN_ROLE()": "a217fddf",
    "getRoleAdmin(bytes32)": "248a9ca3",
    "getStatus(address)": "30ccebb5",
    "grantRole(bytes32,address)": "2f2ff15d",
    "hasRole(bytes32,address)": "91d14854",
    "initialize(address,address)": "485cc955",
    "isV1Vault()": "063ab2ca",
    "oracle()": "7dc0d1d0",
    "proxiableUUID()": "52d1902d",
    "renounceRole(bytes32,address)": "36568abe",
    "revokeRole(bytes32,address)": "d547741f",
    "spot(address)": "2cbf04c1",
    "supportsInterface(bytes4)": "01ffc9a7",
    "upgradeTo(address)": "3659cfe6",
    "upgradeToAndCall(address,bytes)": "4f1ef286",
    "vault()": "fbfa77cf",
    "vaultTokenAddress()": "df72f017",
    "vaultTokenScale()": "5551e090"
  },
  "id": 119
}