{
  "abi": [
    {
      "inputs": [
        {
          "internalType": "address",
          "name": "oneInchRouter_",
          "type": "address"
        },
        {
          "internalType": "contract IVault",
          "name": "balancerVault_",
          "type": "address"
        },
        {
          "internalType": "contract IUniswapV3Router",
          "name": "uniRouter_",
          "type": "address"
        }
      ],
      "stateMutability": "nonpayable",
      "type": "constructor"
    },
    {
      "inputs": [],
      "name": "Math__toInt256_overflow",
      "type": "error"
    },
    {
      "inputs": [],
      "name": "SwapAction__revertBytes_emptyRevertBytes",
      "type": "error"
    },
    {
      "inputs": [],
      "name": "SwapAction__swap_notSupported",
      "type": "error"
    },
    {
      "inputs": [],
      "name": "balancerVault",
      "outputs": [
        {
          "internalType": "contract IVault",
          "name": "",
          "type": "address"
        }
      ],
      "stateMutability": "view",
      "type": "function"
    },
    {
      "inputs": [],
      "name": "oneInchRouter",
      "outputs": [
        {
          "internalType": "address",
          "name": "",
          "type": "address"
        }
      ],
      "stateMutability": "view",
      "type": "function"
    },
    {
      "inputs": [],
      "name": "permit2",
      "outputs": [
        {
          "internalType": "address",
          "name": "",
          "type": "address"
        }
      ],
      "stateMutability": "view",
      "type": "function"
    },
    {
      "inputs": [
        {
          "components": [
            {
              "internalType": "enum SwapProtocol",
              "name": "swapProtocol",
              "type": "uint8"
            },
            {
              "internalType": "enum SwapType",
              "name": "swapType",
              "type": "uint8"
            },
            {
              "internalType": "address",
              "name": "assetIn",
              "type": "address"
            },
            {
              "internalType": "uint256",
              "name": "amount",
              "type": "uint256"
            },
            {
              "internalType": "uint256",
              "name": "limit",
              "type": "uint256"
            },
            {
              "internalType": "address",
              "name": "recipient",
              "type": "address"
            },
            {
              "internalType": "uint256",
              "name": "deadline",
              "type": "uint256"
            },
            {
              "internalType": "bytes",
              "name": "args",
              "type": "bytes"
            }
          ],
          "internalType": "struct SwapParams",
          "name": "swapParams",
          "type": "tuple"
        }
      ],
      "name": "swap",
      "outputs": [
        {
          "internalType": "uint256",
          "name": "retAmount",
          "type": "uint256"
        }
      ],
      "stateMutability": "nonpayable",
      "type": "function"
    },
    {
      "inputs": [
        {
          "internalType": "address",
          "name": "from",
          "type": "address"
        },
        {
          "components": [
            {
              "internalType": "enum ApprovalType",
              "name": "approvalType",
              "type": "uint8"
            },
            {
              "internalType": "uint256",
              "name": "approvalAmount",
              "type": "uint256"
            },
            {
              "internalType": "uint256",
              "name": "nonce",
              "type": "uint256"
            },
            {
              "internalType": "uint256",
              "name": "deadline",
              "type": "uint256"
            },
            {
              "internalType": "uint8",
              "name": "v",
              "type": "uint8"
            },
            {
              "internalType": "bytes32",
              "name": "r",
              "type": "bytes32"
            },
            {
              "internalType": "bytes32",
              "name": "s",
              "type": "bytes32"
            }
          ],
          "internalType": "struct PermitParams",
          "name": "permitParams",
          "type": "tuple"
        },
        {
          "components": [
            {
              "internalType": "enum SwapProtocol",
              "name": "swapProtocol",
              "type": "uint8"
            },
            {
              "internalType": "enum SwapType",
              "name": "swapType",
              "type": "uint8"
            },
            {
              "internalType": "address",
              "name": "assetIn",
              "type": "address"
            },
            {
              "internalType": "uint256",
              "name": "amount",
              "type": "uint256"
            },
            {
              "internalType": "uint256",
              "name": "limit",
              "type": "uint256"
            },
            {
              "internalType": "address",
              "name": "recipient",
              "type": "address"
            },
            {
              "internalType": "uint256",
              "name": "deadline",
              "type": "uint256"
            },
            {
              "internalType": "bytes",
              "name": "args",
              "type": "bytes"
            }
          ],
          "internalType": "struct SwapParams",
          "name": "swapParams",
          "type": "tuple"
        }
      ],
      "name": "transferAndSwap",
      "outputs": [
        {
          "internalType": "uint256",
          "name": "",
          "type": "uint256"
        }
      ],
      "stateMutability": "nonpayable",
      "type": "function"
    },
    {
      "inputs": [],
      "name": "uniRouter",
      "outputs": [
        {
          "internalType": "contract IUniswapV3Router",
          "name": "",
          "type": "address"
        }
      ],
      "stateMutability": "view",
      "type": "function"
    }
  ],
  "bytecode": {
    "object": "0x60e06040523480156200001157600080fd5b5060405162001bf138038062001bf183398101604081905262000034916200006b565b6001600160a01b0392831660805290821660a0521660c052620000bf565b6001600160a01b03811681146200006857600080fd5b50565b6000806000606084860312156200008157600080fd5b83516200008e8162000052565b6020850151909350620000a18162000052565b6040850151909250620000b48162000052565b809150509250925092565b60805160a05160c051611acc620001256000396000818160ef015281816109eb01528181610a1201528181610ae40152610b0b01526000818160b5015281816107a701526107d1015260008181610116015281816108ef01526109190152611acc6000f3fe608060405234801561001057600080fd5b50600436106100625760003560e01c80630147931c1461006757806312261ee71461008d578063158274a5146100b057806346caab34146100d7578063a0e47bf6146100ea578063ac3af20814610111575b600080fd5b61007a6100753660046111aa565b610138565b6040519081526020015b60405180910390f35b6100a36e22d473030f116ddee9f6b43ac78ba381565b604051610084919061121f565b6100a37f000000000000000000000000000000000000000000000000000000000000000081565b61007a6100e5366004611404565b6101c5565b6100a37f000000000000000000000000000000000000000000000000000000000000000081565b6100a37f000000000000000000000000000000000000000000000000000000000000000081565b60006001600160a01b03841630146101b15760008061015d604085016020860161144e565b600181111561016e5761016e611438565b1461017d578260800135610183565b82606001355b90506101af6101986060850160408601611470565b8630846101aa368a90038a018a61148d565b610351565b505b6101bd6100e58361150a565b949350505050565b600080825160028111156101db576101db611438565b03610230576000808360e001518060200190518101906101fb91906115ad565b91509150610227846020015185604001518484886060015189608001518a60a001518b60c0015161051c565b925050506102e8565b60018251600281111561024557610245611438565b148015610267575060008260200151600181111561026557610265611438565b145b1561028a57610283826040015183606001518460e001516108de565b90506102e8565b60028251600281111561029f5761029f611438565b036102cf5761028382602001518360400151846060015185608001518660a001518760c001518860e001516109c2565b60405163e11d7ccb60e01b815260040160405180910390fd5b60018260200151600181111561030057610300611438565b14801561031a575060a08201516001600160a01b03163014155b1561034c5761034c8260a00151828460800151610337919061167e565b60408501516001600160a01b03169190610b8f565b919050565b60028151600281111561036657610366611438565b03610490576e22d473030f116ddee9f6b43ac78ba36001600160a01b03166330f28b7a604051806060016040528060405180604001604052808a6001600160a01b03168152602001866020015181525081526020018460400151815260200184606001518152506040518060400160405280876001600160a01b0316815260200186815250878560a001518660c00151876080015160f81b60405160200161042b9392919092835260208301919091526001600160f81b031916604082015260410190565b6040516020818303038152906040526040518563ffffffff1660e01b815260040161045994939291906116e1565b600060405180830381600087803b15801561047357600080fd5b505af1158015610487573d6000803e3d6000fd5b50505050610515565b6001815160028111156104a5576104a5611438565b03610500576104e684848360200151846060015185608001518660a001518760c001518c6001600160a01b0316610bf790979695949392919063ffffffff16565b6104fb6001600160a01b038616858585610dd7565b610515565b6105156001600160a01b038616858585610dd7565b5050505050565b85516000908161052d82600161175a565b6001600160401b0381111561054457610544611233565b60405190808252806020026020018201604052801561056d578160200160208202803683370190505b5090506000826001600160401b0381111561058a5761058a611233565b6040519080825280602002602001820160405280156105f057816020015b6105dd6040518060a0016040528060008019168152602001600081526020016000815260200160008152602001606081525090565b8152602001906001900390816105a85790505b5090506060600080808f600181111561060b5761060b611438565b036106185750600161061d565b600191505b60005b86811015610692576040518060a001604052808f83815181106106455761064561176d565b6020026020010151815260200184830181526020018383018152602001600081526020018581525085828151811061067f5761067f61176d565b6020908102919091010152600101610620565b508a846000815181106106a7576106a761176d565b6020908102919091010151606001525060009150819050808e60018111156106d1576106d1611438565b03610739575060009050886106e581610e15565b846000815181106106f8576106f861176d565b60200260200101818152505061070d89610e15565b61071690611783565b8486815181106107285761072861176d565b602002602001018181525050610798565b5060019050876107488a610e15565b61075190611783565b846000815181106107645761076461176d565b60200260200101818152505061077989610e15565b84868151811061078b5761078b61176d565b6020026020010181815250505b6107cc6001600160a01b038e167f000000000000000000000000000000000000000000000000000000000000000083610e3f565b6108cc7f00000000000000000000000000000000000000000000000000000000000000006001600160a01b031663945bcec984868f6040518060800160405280306001600160a01b031681526020016000151581526020018f6001600160a01b03168152602001600015158152508a8e6040518763ffffffff1660e01b815260040161085d96959493929190611813565b6000604051808303816000875af115801561087c573d6000803e3d6000fd5b505050506040513d6000823e601f3d908101601f191682016040526108a49190810190611943565b86815181106108b5576108b561176d565b602002602001015160ff81901c6000039081011890565b9e9d5050505050505050505050505050565b60006109146001600160a01b0385167f000000000000000000000000000000000000000000000000000000000000000085610e3f565b6000807f00000000000000000000000000000000000000000000000000000000000000006001600160a01b03168460405161094f91906119c8565b6000604051808303816000865af19150503d806000811461098c576040519150601f19603f3d011682016040523d82523d6000602084013e610991565b606091505b5091509150816109a4576109a481610ece565b808060200190518101906109b891906119e4565b9695505050505050565b6000808860018111156109d7576109d7611438565b03610ad557610a106001600160a01b0388167f000000000000000000000000000000000000000000000000000000000000000088610e3f565b7f00000000000000000000000000000000000000000000000000000000000000006001600160a01b031663c04b8d596040518060a00160405280858152602001876001600160a01b03168152602001868152602001898152602001888152506040518263ffffffff1660e01b8152600401610a8b9190611a4e565b6020604051808303816000875af1158015610aaa573d6000803e3d6000fd5b505050506040513d601f19601f82011682018060405250810190610ace91906119e4565b9050610b84565b610b096001600160a01b0388167f000000000000000000000000000000000000000000000000000000000000000087610e3f565b7f00000000000000000000000000000000000000000000000000000000000000006001600160a01b031663f28c04986040518060a00160405280858152602001876001600160a01b03168152602001868152602001898152602001888152506040518263ffffffff1660e01b8152600401610a8b9190611a4e565b979650505050505050565b6040516001600160a01b038316602482015260448101829052610bf290849063a9059cbb60e01b906064015b60408051601f198184030181529190526020810180516001600160e01b03166001600160e01b031990931692909217909152610ef6565b505050565b604051623f675f60e91b81526000906001600160a01b038a1690637ecebe0090610c25908b9060040161121f565b602060405180830381865afa158015610c42573d6000803e3d6000fd5b505050506040513d601f19601f82011682018060405250810190610c6691906119e4565b60405163d505accf60e01b81526001600160a01b038a811660048301528981166024830152604482018990526064820188905260ff8716608483015260a4820186905260c48201859052919250908a169063d505accf9060e401600060405180830381600087803b158015610cda57600080fd5b505af1158015610cee573d6000803e3d6000fd5b5050604051623f675f60e91b8152600092506001600160a01b038c169150637ecebe0090610d20908c9060040161121f565b602060405180830381865afa158015610d3d573d6000803e3d6000fd5b505050506040513d601f19601f82011682018060405250810190610d6191906119e4565b9050610d6e82600161175a565b8114610dcb5760405162461bcd60e51b815260206004820152602160248201527f5361666545524332303a207065726d697420646964206e6f74207375636365656044820152601960fa1b60648201526084015b60405180910390fd5b50505050505050505050565b6040516001600160a01b0380851660248301528316604482015260648101829052610e0f9085906323b872dd60e01b90608401610bbb565b50505050565b6000600160ff1b8210610e3b57604051632db27c5360e01b815260040160405180910390fd5b5090565b604080516001600160a01b038416602482015260448082018490528251808303909101815260649091019091526020810180516001600160e01b031663095ea7b360e01b179052610e908482610fcb565b610e0f576040516001600160a01b038416602482015260006044820152610ec490859063095ea7b360e01b90606401610bbb565b610e0f8482610ef6565b805115610edd57805181602001fd5b604051634811b8df60e11b815260040160405180910390fd5b6000610f4b826040518060400160405280602081526020017f5361666545524332303a206c6f772d6c6576656c2063616c6c206661696c6564815250856001600160a01b03166110749092919063ffffffff16565b9050805160001480610f6c575080806020019051810190610f6c9190611a61565b610bf25760405162461bcd60e51b815260206004820152602a60248201527f5361666545524332303a204552433230206f7065726174696f6e20646964206e6044820152691bdd081cdd58d8d9595960b21b6064820152608401610dc2565b6000806000846001600160a01b031684604051610fe891906119c8565b6000604051808303816000865af19150503d8060008114611025576040519150601f19603f3d011682016040523d82523d6000602084013e61102a565b606091505b50915091508180156110545750805115806110545750808060200190518101906110549190611a61565b801561106957506001600160a01b0385163b15155b925050505b92915050565b60606101bd848460008585600080866001600160a01b0316858760405161109b91906119c8565b60006040518083038185875af1925050503d80600081146110d8576040519150601f19603f3d011682016040523d82523d6000602084013e6110dd565b606091505b5091509150610b848783838760608315611158578251600003611151576001600160a01b0385163b6111515760405162461bcd60e51b815260206004820152601d60248201527f416464726573733a2063616c6c20746f206e6f6e2d636f6e74726163740000006044820152606401610dc2565b50816101bd565b6101bd838381511561116d5781518083602001fd5b8060405162461bcd60e51b8152600401610dc29190611a83565b6001600160a01b038116811461119c57600080fd5b50565b803561034c81611187565b60008060008385036101208112156111c157600080fd5b84356111cc81611187565b935060e0601f19820112156111e057600080fd5b50602084019150610100808501356001600160401b0381111561120257600080fd5b850180870382131561121357600080fd5b80925050509250925092565b6001600160a01b0391909116815260200190565b634e487b7160e01b600052604160045260246000fd5b60405161010081016001600160401b038111828210171561126c5761126c611233565b60405290565b60405160e081016001600160401b038111828210171561126c5761126c611233565b604051601f8201601f191681016001600160401b03811182821017156112bc576112bc611233565b604052919050565b6003811061119c57600080fd5b803561034c816112c4565b80356002811061034c57600080fd5b600082601f8301126112fc57600080fd5b81356001600160401b0381111561131557611315611233565b611328601f8201601f1916602001611294565b81815284602083860101111561133d57600080fd5b816020850160208301376000918101602001919091529392505050565b6000610100828403121561136d57600080fd5b611375611249565b9050611380826112d1565b815261138e602083016112dc565b602082015261139f6040830161119f565b604082015260608201356060820152608082013560808201526113c460a0830161119f565b60a082015260c082013560c082015260e08201356001600160401b038111156113ec57600080fd5b6113f8848285016112eb565b60e08301525092915050565b60006020828403121561141657600080fd5b81356001600160401b0381111561142c57600080fd5b6101bd8482850161135a565b634e487b7160e01b600052602160045260246000fd5b60006020828403121561146057600080fd5b611469826112dc565b9392505050565b60006020828403121561148257600080fd5b813561146981611187565b600060e0828403121561149f57600080fd5b6114a7611272565b82356114b2816112c4565b80825250602083013560208201526040830135604082015260608301356060820152608083013560ff811681146114e857600080fd5b608082015260a0838101359082015260c0928301359281019290925250919050565b600061106e368361135a565b60006001600160401b0382111561152f5761152f611233565b5060051b60200190565b600082601f83011261154a57600080fd5b8151602061155f61155a83611516565b611294565b82815260059290921b8401810191818101908684111561157e57600080fd5b8286015b848110156115a257805161159581611187565b8352918301918301611582565b509695505050505050565b600080604083850312156115c057600080fd5b82516001600160401b03808211156115d757600080fd5b818501915085601f8301126115eb57600080fd5b815160206115fb61155a83611516565b82815260059290921b8401810191818101908984111561161a57600080fd5b948201945b838610156116385785518252948201949082019061161f565b9188015191965090935050508082111561165157600080fd5b5061165e85828601611539565b9150509250929050565b634e487b7160e01b600052601160045260246000fd5b8181038181111561106e5761106e611668565b60005b838110156116ac578181015183820152602001611694565b50506000910152565b600081518084526116cd816020860160208601611691565b601f01601f19169290920160200192915050565b600061010061170483885180516001600160a01b03168252602090810151910152565b6020870151604084015260408701516060840152611738608084018780516001600160a01b03168252602090810151910152565b6001600160a01b03851660c084015260e08301819052610b84818401856116b5565b8082018082111561106e5761106e611668565b634e487b7160e01b600052603260045260246000fd5b6000600160ff1b820161179857611798611668565b5060000390565b600081518084526020808501945080840160005b838110156117d85781516001600160a01b0316875295820195908201906001016117b3565b509495945050505050565b600081518084526020808501945080840160005b838110156117d8578151875295820195908201906001016117f7565b600061012080830160028a1061183957634e487b7160e01b600052602160045260246000fd5b89845260208085019290925288519081905261014080850192600583901b8601909101918a820160005b828110156118c65787850361013f190186528151805186528481015185870152604080820151908701526060808201519087015260809081015160a0918701829052906118b2818801836116b5565b978601979650505090830190600101611863565b5050505083810360408501526118dc818961179f565b91505061191c606084018780516001600160a01b039081168352602080830151151590840152604080830151909116908301526060908101511515910152565b82810360e084015261192e81866117e3565b91505082610100830152979650505050505050565b6000602080838503121561195657600080fd5b82516001600160401b0381111561196c57600080fd5b8301601f8101851361197d57600080fd5b805161198b61155a82611516565b81815260059190911b820183019083810190878311156119aa57600080fd5b928401925b82841015610b84578351825292840192908401906119af565b600082516119da818460208701611691565b9190910192915050565b6000602082840312156119f657600080fd5b5051919050565b6000815160a08452611a1260a08501826116b5565b6020848101516001600160a01b031690860152604080850151908601526060808501519086015260809384015193909401929092525090919050565b60208152600061146960208301846119fd565b600060208284031215611a7357600080fd5b8151801515811461146957600080fd5b60208152600061146960208301846116b556fea2646970667358221220fc97b8693f90bb4fbd88b53ab9f922103e182f67363a26bedabc973970c43a6b64736f6c63430008130033",
    "linkReferences": {}
  },
  "methodIdentifiers": {
    "balancerVault()": "158274a5",
    "oneInchRouter()": "ac3af208",
    "permit2()": "12261ee7",
    "swap((uint8,uint8,address,uint256,uint256,address,uint256,bytes))": "46caab34",
    "transferAndSwap(address,(uint8,uint256,uint256,uint256,uint8,bytes32,bytes32),(uint8,uint8,address,uint256,uint256,address,uint256,bytes))": "0147931c",
    "uniRouter()": "a0e47bf6"
  },
  "id": 128
}