{
  "abi": [
    {
      "inputs": [
        {
          "internalType": "contract IVault",
          "name": "balancerVault_",
          "type": "address"
        },
        {
          "internalType": "contract IUniswapV3Router",
          "name": "uniRouter_",
          "type": "address"
        }
      ],
      "stateMutability": "nonpayable",
      "type": "constructor"
    },
    {
      "inputs": [],
      "name": "Math__toInt256_overflow",
      "type": "error"
    },
    {
      "inputs": [],
      "name": "SwapAction__revertBytes_emptyRevertBytes",
      "type": "error"
    },
    {
      "inputs": [],
      "name": "SwapAction__swap_notSupported",
      "type": "error"
    },
    {
      "inputs": [],
      "name": "UniswapV3Router_decodeLastToken_invalidPath",
      "type": "error"
    },
    {
      "inputs": [],
      "name": "UniswapV3Router_toAddress_outOfBounds",
      "type": "error"
    },
    {
      "inputs": [],
      "name": "UniswapV3Router_toAddress_overflow",
      "type": "error"
    },
    {
      "inputs": [],
      "name": "balancerVault",
      "outputs": [
        {
          "internalType": "contract IVault",
          "name": "",
          "type": "address"
        }
      ],
      "stateMutability": "view",
      "type": "function"
    },
    {
      "inputs": [
        {
          "components": [
            {
              "internalType": "enum SwapProtocol",
              "name": "swapProtocol",
              "type": "uint8"
            },
            {
              "internalType": "enum SwapType",
              "name": "swapType",
              "type": "uint8"
            },
            {
              "internalType": "address",
              "name": "assetIn",
              "type": "address"
            },
            {
              "internalType": "uint256",
              "name": "amount",
              "type": "uint256"
            },
            {
              "internalType": "uint256",
              "name": "limit",
              "type": "uint256"
            },
            {
              "internalType": "address",
              "name": "recipient",
              "type": "address"
            },
            {
              "internalType": "uint256",
              "name": "deadline",
              "type": "uint256"
            },
            {
              "internalType": "bytes",
              "name": "args",
              "type": "bytes"
            }
          ],
          "internalType": "struct SwapParams",
          "name": "swapParams",
          "type": "tuple"
        }
      ],
      "name": "getSwapToken",
      "outputs": [
        {
          "internalType": "address",
          "name": "token",
          "type": "address"
        }
      ],
      "stateMutability": "pure",
      "type": "function"
    },
    {
      "inputs": [],
      "name": "permit2",
      "outputs": [
        {
          "internalType": "address",
          "name": "",
          "type": "address"
        }
      ],
      "stateMutability": "view",
      "type": "function"
    },
    {
      "inputs": [
        {
          "components": [
            {
              "internalType": "enum SwapProtocol",
              "name": "swapProtocol",
              "type": "uint8"
            },
            {
              "internalType": "enum SwapType",
              "name": "swapType",
              "type": "uint8"
            },
            {
              "internalType": "address",
              "name": "assetIn",
              "type": "address"
            },
            {
              "internalType": "uint256",
              "name": "amount",
              "type": "uint256"
            },
            {
              "internalType": "uint256",
              "name": "limit",
              "type": "uint256"
            },
            {
              "internalType": "address",
              "name": "recipient",
              "type": "address"
            },
            {
              "internalType": "uint256",
              "name": "deadline",
              "type": "uint256"
            },
            {
              "internalType": "bytes",
              "name": "args",
              "type": "bytes"
            }
          ],
          "internalType": "struct SwapParams",
          "name": "swapParams",
          "type": "tuple"
        }
      ],
      "name": "swap",
      "outputs": [
        {
          "internalType": "uint256",
          "name": "retAmount",
          "type": "uint256"
        }
      ],
      "stateMutability": "nonpayable",
      "type": "function"
    },
    {
      "inputs": [
        {
          "internalType": "address",
          "name": "from",
          "type": "address"
        },
        {
          "components": [
            {
              "internalType": "enum ApprovalType",
              "name": "approvalType",
              "type": "uint8"
            },
            {
              "internalType": "uint256",
              "name": "approvalAmount",
              "type": "uint256"
            },
            {
              "internalType": "uint256",
              "name": "nonce",
              "type": "uint256"
            },
            {
              "internalType": "uint256",
              "name": "deadline",
              "type": "uint256"
            },
            {
              "internalType": "uint8",
              "name": "v",
              "type": "uint8"
            },
            {
              "internalType": "bytes32",
              "name": "r",
              "type": "bytes32"
            },
            {
              "internalType": "bytes32",
              "name": "s",
              "type": "bytes32"
            }
          ],
          "internalType": "struct PermitParams",
          "name": "permitParams",
          "type": "tuple"
        },
        {
          "components": [
            {
              "internalType": "enum SwapProtocol",
              "name": "swapProtocol",
              "type": "uint8"
            },
            {
              "internalType": "enum SwapType",
              "name": "swapType",
              "type": "uint8"
            },
            {
              "internalType": "address",
              "name": "assetIn",
              "type": "address"
            },
            {
              "internalType": "uint256",
              "name": "amount",
              "type": "uint256"
            },
            {
              "internalType": "uint256",
              "name": "limit",
              "type": "uint256"
            },
            {
              "internalType": "address",
              "name": "recipient",
              "type": "address"
            },
            {
              "internalType": "uint256",
              "name": "deadline",
              "type": "uint256"
            },
            {
              "internalType": "bytes",
              "name": "args",
              "type": "bytes"
            }
          ],
          "internalType": "struct SwapParams",
          "name": "swapParams",
          "type": "tuple"
        }
      ],
      "name": "transferAndSwap",
      "outputs": [
        {
          "internalType": "uint256",
          "name": "",
          "type": "uint256"
        }
      ],
      "stateMutability": "nonpayable",
      "type": "function"
    },
    {
      "inputs": [],
      "name": "uniRouter",
      "outputs": [
        {
          "internalType": "contract IUniswapV3Router",
          "name": "",
          "type": "address"
        }
      ],
      "stateMutability": "view",
      "type": "function"
    }
  ],
  "bytecode": {
    "object": "0x60c06040523480156200001157600080fd5b5060405162001d7438038062001d74833981016040819052620000349162000065565b6001600160a01b039182166080521660a052620000a4565b6001600160a01b03811681146200006257600080fd5b50565b600080604083850312156200007957600080fd5b825162000086816200004c565b602084015190925062000099816200004c565b809150509250929050565b60805160a051611c81620000f36000396000818161010201528181610989015281816109b001528181610a820152610aa901526000818160b50152818161082901526108530152611c816000f3fe608060405234801561001057600080fd5b50600436106100625760003560e01c80630147931c1461006757806312261ee71461008d578063158274a5146100b057806346caab34146100d757806372008bef146100ea578063a0e47bf6146100fd575b600080fd5b61007a6100753660046111d8565b610124565b6040519081526020015b60405180910390f35b6100a36e22d473030f116ddee9f6b43ac78ba381565b6040516100849190611245565b6100a37f000000000000000000000000000000000000000000000000000000000000000081565b61007a6100e53660046113f9565b6101b1565b6100a36100f836600461142d565b6102ea565b6100a37f000000000000000000000000000000000000000000000000000000000000000081565b60006001600160a01b038416301461019d576000806101496040850160208601611477565b600181111561015a5761015a611461565b1461016957826080013561016f565b82606001355b905061019b610184606085016040860161149b565b863084610196368a90038a018a6114c9565b6103d3565b505b6101a96100e583611560565b949350505050565b600080825160018111156101c7576101c7611461565b0361021c576000808360e001518060200190518101906101e79190611603565b91509150610213846020015185604001518484886060015189608001518a60a001518b60c0015161059e565b92505050610281565b60018251600181111561023157610231611461565b036102685761026182602001518360400151846060015185608001518660a001518760c001518860e00151610960565b9050610281565b60405163e11d7ccb60e01b815260040160405180910390fd5b60018260200151600181111561029957610299611461565b1480156102b3575060a08201516001600160a01b03163014155b156102e5576102e58260a001518284608001516102d091906116d4565b60408501516001600160a01b03169190610b2d565b919050565b6000806102fa6020840184611477565b600181111561030b5761030b611461565b0361035e57600061031f60e08401846116e7565b81019061032c9190611798565b915050806001825161033e91906116d4565b8151811061034e5761034e611846565b6020026020010151915050919050565b600161036d6020840184611477565b600181111561037e5761037e611461565b03610268576103cd61039360e08401846116e7565b8080601f016020809104026020016040519081016040528093929190818152602001838380828437600092019190915250610b9592505050565b92915050565b6002815160028111156103e8576103e8611461565b03610512576e22d473030f116ddee9f6b43ac78ba36001600160a01b03166330f28b7a604051806060016040528060405180604001604052808a6001600160a01b03168152602001866020015181525081526020018460400151815260200184606001518152506040518060400160405280876001600160a01b0316815260200186815250878560a001518660c00151876080015160f81b6040516020016104ad9392919092835260208301919091526001600160f81b031916604082015260410190565b6040516020818303038152906040526040518563ffffffff1660e01b81526004016104db94939291906118ac565b600060405180830381600087803b1580156104f557600080fd5b505af1158015610509573d6000803e3d6000fd5b50505050610597565b60018151600281111561052757610527611461565b036105825761056884848360200151846060015185608001518660a001518760c001518c6001600160a01b0316610bd190979695949392919063ffffffff16565b61057d6001600160a01b038616858585610db1565b610597565b6105976001600160a01b038616858585610db1565b5050505050565b8551600090816105af826001611925565b6001600160401b038111156105c6576105c6611259565b6040519080825280602002602001820160405280156105ef578160200160208202803683370190505b5090506000826001600160401b0381111561060c5761060c611259565b60405190808252806020026020018201604052801561067257816020015b61065f6040518060a0016040528060008019168152602001600081526020016000815260200160008152602001606081525090565b81526020019060019003908161062a5790505b5090506060600080808f600181111561068d5761068d611461565b0361069a5750600161069f565b600191505b60005b86811015610714576040518060a001604052808f83815181106106c7576106c7611846565b6020026020010151815260200184830181526020018383018152602001600081526020018581525085828151811061070157610701611846565b60209081029190910101526001016106a2565b508a8460008151811061072957610729611846565b6020908102919091010151606001525060009150819050808e600181111561075357610753611461565b036107bb5750600090508861076781610def565b8460008151811061077a5761077a611846565b60200260200101818152505061078f89610def565b61079890611938565b8486815181106107aa576107aa611846565b60200260200101818152505061081a565b5060019050876107ca8a610def565b6107d390611938565b846000815181106107e6576107e6611846565b6020026020010181815250506107fb89610def565b84868151811061080d5761080d611846565b6020026020010181815250505b61084e6001600160a01b038e167f000000000000000000000000000000000000000000000000000000000000000083610e19565b61094e7f00000000000000000000000000000000000000000000000000000000000000006001600160a01b031663945bcec984868f6040518060800160405280306001600160a01b031681526020016000151581526020018f6001600160a01b03168152602001600015158152508a8e6040518763ffffffff1660e01b81526004016108df969594939291906119c8565b6000604051808303816000875af11580156108fe573d6000803e3d6000fd5b505050506040513d6000823e601f3d908101601f191682016040526109269190810190611af8565b868151811061093757610937611846565b602002602001015160ff81901c6000039081011890565b9e9d5050505050505050505050505050565b60008088600181111561097557610975611461565b03610a73576109ae6001600160a01b0388167f000000000000000000000000000000000000000000000000000000000000000088610e19565b7f00000000000000000000000000000000000000000000000000000000000000006001600160a01b031663c04b8d596040518060a00160405280858152602001876001600160a01b03168152602001868152602001898152602001888152506040518263ffffffff1660e01b8152600401610a299190611bce565b6020604051808303816000875af1158015610a48573d6000803e3d6000fd5b505050506040513d601f19601f82011682018060405250810190610a6c9190611be1565b9050610b22565b610aa76001600160a01b0388167f000000000000000000000000000000000000000000000000000000000000000087610e19565b7f00000000000000000000000000000000000000000000000000000000000000006001600160a01b031663f28c04986040518060a00160405280858152602001876001600160a01b03168152602001868152602001898152602001888152506040518263ffffffff1660e01b8152600401610a299190611bce565b979650505050505050565b6040516001600160a01b038316602482015260448101829052610b9090849063a9059cbb60e01b906064015b60408051601f198184030181529190526020810180516001600160e01b03166001600160e01b031990931692909217909152610ea4565b505050565b6000601482511015610bba5760405163d3d6273f60e01b815260040160405180910390fd5b6103cd8260148451610bcc91906116d4565b610f79565b604051623f675f60e91b81526000906001600160a01b038a1690637ecebe0090610bff908b90600401611245565b602060405180830381865afa158015610c1c573d6000803e3d6000fd5b505050506040513d601f19601f82011682018060405250810190610c409190611be1565b60405163d505accf60e01b81526001600160a01b038a811660048301528981166024830152604482018990526064820188905260ff8716608483015260a4820186905260c48201859052919250908a169063d505accf9060e401600060405180830381600087803b158015610cb457600080fd5b505af1158015610cc8573d6000803e3d6000fd5b5050604051623f675f60e91b8152600092506001600160a01b038c169150637ecebe0090610cfa908c90600401611245565b602060405180830381865afa158015610d17573d6000803e3d6000fd5b505050506040513d601f19601f82011682018060405250810190610d3b9190611be1565b9050610d48826001611925565b8114610da55760405162461bcd60e51b815260206004820152602160248201527f5361666545524332303a207065726d697420646964206e6f74207375636365656044820152601960fa1b60648201526084015b60405180910390fd5b50505050505050505050565b6040516001600160a01b0380851660248301528316604482015260648101829052610de99085906323b872dd60e01b90608401610b59565b50505050565b6000600160ff1b8210610e1557604051632db27c5360e01b815260040160405180910390fd5b5090565b604080516001600160a01b038416602482015260448082018490528251808303909101815260649091019091526020810180516001600160e01b031663095ea7b360e01b179052610e6a8482610fe2565b610de9576040516001600160a01b038416602482015260006044820152610e9e90859063095ea7b360e01b90606401610b59565b610de984825b6000610ef9826040518060400160405280602081526020017f5361666545524332303a206c6f772d6c6576656c2063616c6c206661696c6564815250856001600160a01b03166110899092919063ffffffff16565b9050805160001480610f1a575080806020019051810190610f1a9190611bfa565b610b905760405162461bcd60e51b815260206004820152602a60248201527f5361666545524332303a204552433230206f7065726174696f6e20646964206e6044820152691bdd081cdd58d8d9595960b21b6064820152608401610d9c565b600081610f87816014611925565b1015610fa657604051634b5ecc6360e11b815260040160405180910390fd5b610fb1826014611925565b83511015610fd25760405163a261974560e01b815260040160405180910390fd5b500160200151600160601b900490565b6000806000846001600160a01b031684604051610fff9190611c1c565b6000604051808303816000865af19150503d806000811461103c576040519150601f19603f3d011682016040523d82523d6000602084013e611041565b606091505b509150915081801561106b57508051158061106b57508080602001905181019061106b9190611bfa565b801561108057506001600160a01b0385163b15155b95945050505050565b60606101a9848460008585600080866001600160a01b031685876040516110b09190611c1c565b60006040518083038185875af1925050503d80600081146110ed576040519150601f19603f3d011682016040523d82523d6000602084013e6110f2565b606091505b5091509150610b22878383876060831561116d578251600003611166576001600160a01b0385163b6111665760405162461bcd60e51b815260206004820152601d60248201527f416464726573733a2063616c6c20746f206e6f6e2d636f6e74726163740000006044820152606401610d9c565b50816101a9565b6101a983838151156111825781518083602001fd5b8060405162461bcd60e51b8152600401610d9c9190611c38565b6001600160a01b03811681146111b157600080fd5b50565b80356102e58161119c565b600061010082840312156111d257600080fd5b50919050565b60008060008385036101208112156111ef57600080fd5b84356111fa8161119c565b935060e0601f198201121561120e57600080fd5b506020840191506101008401356001600160401b0381111561122f57600080fd5b61123b868287016111bf565b9150509250925092565b6001600160a01b0391909116815260200190565b634e487b7160e01b600052604160045260246000fd5b60405161010081016001600160401b038111828210171561129257611292611259565b60405290565b604051601f8201601f191681016001600160401b03811182821017156112c0576112c0611259565b604052919050565b600281106111b157600080fd5b80356102e5816112c8565b600082601f8301126112f157600080fd5b81356001600160401b0381111561130a5761130a611259565b61131d601f8201601f1916602001611298565b81815284602083860101111561133257600080fd5b816020850160208301376000918101602001919091529392505050565b6000610100828403121561136257600080fd5b61136a61126f565b9050611375826112d5565b8152611383602083016112d5565b6020820152611394604083016111b4565b604082015260608201356060820152608082013560808201526113b960a083016111b4565b60a082015260c082013560c082015260e08201356001600160401b038111156113e157600080fd5b6113ed848285016112e0565b60e08301525092915050565b60006020828403121561140b57600080fd5b81356001600160401b0381111561142157600080fd5b6101a98482850161134f565b60006020828403121561143f57600080fd5b81356001600160401b0381111561145557600080fd5b6101a9848285016111bf565b634e487b7160e01b600052602160045260246000fd5b60006020828403121561148957600080fd5b8135611494816112c8565b9392505050565b6000602082840312156114ad57600080fd5b81356114948161119c565b803560ff811681146102e557600080fd5b600060e082840312156114db57600080fd5b60405160e081018181106001600160401b03821117156114fd576114fd611259565b60405282356003811061150f57600080fd5b8082525060208301356020820152604083013560408201526060830135606082015261153d608084016114b8565b608082015260a083013560a082015260c083013560c08201528091505092915050565b60006103cd368361134f565b60006001600160401b0382111561158557611585611259565b5060051b60200190565b600082601f8301126115a057600080fd5b815160206115b56115b08361156c565b611298565b82815260059290921b840181019181810190868411156115d457600080fd5b8286015b848110156115f85780516115eb8161119c565b83529183019183016115d8565b509695505050505050565b6000806040838503121561161657600080fd5b82516001600160401b038082111561162d57600080fd5b818501915085601f83011261164157600080fd5b815160206116516115b08361156c565b82815260059290921b8401810191818101908984111561167057600080fd5b948201945b8386101561168e57855182529482019490820190611675565b918801519196509093505050808211156116a757600080fd5b506116b48582860161158f565b9150509250929050565b634e487b7160e01b600052601160045260246000fd5b818103818111156103cd576103cd6116be565b6000808335601e198436030181126116fe57600080fd5b8301803591506001600160401b0382111561171857600080fd5b60200191503681900382131561172d57600080fd5b9250929050565b600082601f83011261174557600080fd5b813560206117556115b08361156c565b82815260059290921b8401810191818101908684111561177457600080fd5b8286015b848110156115f857803561178b8161119c565b8352918301918301611778565b600080604083850312156117ab57600080fd5b82356001600160401b03808211156117c257600080fd5b818501915085601f8301126117d657600080fd5b813560206117e66115b08361156c565b82815260059290921b8401810191818101908984111561180557600080fd5b948201945b838610156118235785358252948201949082019061180a565b9650508601359250508082111561183957600080fd5b506116b485828601611734565b634e487b7160e01b600052603260045260246000fd5b60005b8381101561187757818101518382015260200161185f565b50506000910152565b6000815180845261189881602086016020860161185c565b601f01601f19169290920160200192915050565b60006101006118cf83885180516001600160a01b03168252602090810151910152565b6020870151604084015260408701516060840152611903608084018780516001600160a01b03168252602090810151910152565b6001600160a01b03851660c084015260e08301819052610b2281840185611880565b808201808211156103cd576103cd6116be565b6000600160ff1b820161194d5761194d6116be565b5060000390565b600081518084526020808501945080840160005b8381101561198d5781516001600160a01b031687529582019590820190600101611968565b509495945050505050565b600081518084526020808501945080840160005b8381101561198d578151875295820195908201906001016119ac565b600061012080830160028a106119ee57634e487b7160e01b600052602160045260246000fd5b89845260208085019290925288519081905261014080850192600583901b8601909101918a820160005b82811015611a7b5787850361013f190186528151805186528481015185870152604080820151908701526060808201519087015260809081015160a091870182905290611a6781880183611880565b978601979650505090830190600101611a18565b505050508381036040850152611a918189611954565b915050611ad1606084018780516001600160a01b039081168352602080830151151590840152604080830151909116908301526060908101511515910152565b82810360e0840152611ae38186611998565b91505082610100830152979650505050505050565b60006020808385031215611b0b57600080fd5b82516001600160401b03811115611b2157600080fd5b8301601f81018513611b3257600080fd5b8051611b406115b08261156c565b81815260059190911b82018301908381019087831115611b5f57600080fd5b928401925b82841015610b2257835182529284019290840190611b64565b6000815160a08452611b9260a0850182611880565b6020848101516001600160a01b031690860152604080850151908601526060808501519086015260809384015193909401929092525090919050565b6020815260006114946020830184611b7d565b600060208284031215611bf357600080fd5b5051919050565b600060208284031215611c0c57600080fd5b8151801515811461149457600080fd5b60008251611c2e81846020870161185c565b9190910192915050565b602081526000611494602083018461188056fea26469706673582212200739fb6f9f033605813eb491c85d5209c9a78a35d8a40fd2727cd637df8a89aa64736f6c63430008130033",
    "linkReferences": {}
  },
  "methodIdentifiers": {
    "balancerVault()": "158274a5",
    "getSwapToken((uint8,uint8,address,uint256,uint256,address,uint256,bytes))": "72008bef",
    "permit2()": "12261ee7",
    "swap((uint8,uint8,address,uint256,uint256,address,uint256,bytes))": "46caab34",
    "transferAndSwap(address,(uint8,uint256,uint256,uint256,uint8,bytes32,bytes32),(uint8,uint8,address,uint256,uint256,address,uint256,bytes))": "0147931c",
    "uniRouter()": "a0e47bf6"
  },
  "id": 129
}