{
  "abi": [
    {
      "inputs": [
        {
          "internalType": "address",
          "name": "flashlender_",
          "type": "address"
        },
        {
          "internalType": "address",
          "name": "swapActions_",
          "type": "address"
        },
        {
          "internalType": "address",
          "name": "joinAction_",
          "type": "address"
        }
      ],
      "stateMutability": "nonpayable",
      "type": "constructor"
    },
    {
      "inputs": [],
      "name": "Action__revertBytes_emptyRevertBytes",
      "type": "error"
    },
    {
      "inputs": [],
      "name": "Math__toInt256_overflow",
      "type": "error"
    },
    {
      "inputs": [],
      "name": "PositionAction__borrow_InvalidAuxSwap",
      "type": "error"
    },
    {
      "inputs": [],
      "name": "PositionAction__decreaseLever_invalidAuxSwap",
      "type": "error"
    },
    {
      "inputs": [],
      "name": "PositionAction__decreaseLever_invalidPrimarySwap",
      "type": "error"
    },
    {
      "inputs": [],
      "name": "PositionAction__decreaseLever_invalidResidualRecipient",
      "type": "error"
    },
    {
      "inputs": [],
      "name": "PositionAction__delegateViaStablecoin_InvalidAuxSwap",
      "type": "error"
    },
    {
      "inputs": [],
      "name": "PositionAction__deposit_InvalidAuxSwap",
      "type": "error"
    },
    {
      "inputs": [],
      "name": "PositionAction__increaseLever_invalidAuxSwap",
      "type": "error"
    },
    {
      "inputs": [],
      "name": "PositionAction__increaseLever_invalidPrimarySwap",
      "type": "error"
    },
    {
      "inputs": [],
      "name": "PositionAction__onCreditFlashLoan__invalidSender",
      "type": "error"
    },
    {
      "inputs": [],
      "name": "PositionAction__onFlashLoan__invalidSender",
      "type": "error"
    },
    {
      "inputs": [],
      "name": "PositionAction__onlyDelegatecall",
      "type": "error"
    },
    {
      "inputs": [],
      "name": "PositionAction__repay_InvalidAuxSwap",
      "type": "error"
    },
    {
      "inputs": [],
      "name": "CALLBACK_SUCCESS",
      "outputs": [
        {
          "internalType": "bytes32",
          "name": "",
          "type": "bytes32"
        }
      ],
      "stateMutability": "view",
      "type": "function"
    },
    {
      "inputs": [],
      "name": "CALLBACK_SUCCESS_CREDIT",
      "outputs": [
        {
          "internalType": "bytes32",
          "name": "",
          "type": "bytes32"
        }
      ],
      "stateMutability": "view",
      "type": "function"
    },
    {
      "inputs": [
        {
          "internalType": "address",
          "name": "position",
          "type": "address"
        },
        {
          "internalType": "address",
          "name": "vault",
          "type": "address"
        },
        {
          "components": [
            {
              "internalType": "uint256",
              "name": "amount",
              "type": "uint256"
            },
            {
              "internalType": "address",
              "name": "creditor",
              "type": "address"
            },
            {
              "components": [
                {
                  "internalType": "enum SwapProtocol",
                  "name": "swapProtocol",
                  "type": "uint8"
                },
                {
                  "internalType": "enum SwapType",
                  "name": "swapType",
                  "type": "uint8"
                },
                {
                  "internalType": "address",
                  "name": "assetIn",
                  "type": "address"
                },
                {
                  "internalType": "uint256",
                  "name": "amount",
                  "type": "uint256"
                },
                {
                  "internalType": "uint256",
                  "name": "limit",
                  "type": "uint256"
                },
                {
                  "internalType": "address",
                  "name": "recipient",
                  "type": "address"
                },
                {
                  "internalType": "uint256",
                  "name": "deadline",
                  "type": "uint256"
                },
                {
                  "internalType": "bytes",
                  "name": "args",
                  "type": "bytes"
                }
              ],
              "internalType": "struct SwapParams",
              "name": "auxSwap",
              "type": "tuple"
            }
          ],
          "internalType": "struct CreditParams",
          "name": "creditParams",
          "type": "tuple"
        }
      ],
      "name": "borrow",
      "outputs": [],
      "stateMutability": "nonpayable",
      "type": "function"
    },
    {
      "inputs": [],
      "name": "cdm",
      "outputs": [
        {
          "internalType": "contract ICDM",
          "name": "",
          "type": "address"
        }
      ],
      "stateMutability": "view",
      "type": "function"
    },
    {
      "inputs": [
        {
          "components": [
            {
              "internalType": "address",
              "name": "position",
              "type": "address"
            },
            {
              "internalType": "address",
              "name": "vault",
              "type": "address"
            },
            {
              "internalType": "address",
              "name": "collateralToken",
              "type": "address"
            },
            {
              "components": [
                {
                  "internalType": "enum SwapProtocol",
                  "name": "swapProtocol",
                  "type": "uint8"
                },
                {
                  "internalType": "enum SwapType",
                  "name": "swapType",
                  "type": "uint8"
                },
                {
                  "internalType": "address",
                  "name": "assetIn",
                  "type": "address"
                },
                {
                  "internalType": "uint256",
                  "name": "amount",
                  "type": "uint256"
                },
                {
                  "internalType": "uint256",
                  "name": "limit",
                  "type": "uint256"
                },
                {
                  "internalType": "address",
                  "name": "recipient",
                  "type": "address"
                },
                {
                  "internalType": "uint256",
                  "name": "deadline",
                  "type": "uint256"
                },
                {
                  "internalType": "bytes",
                  "name": "args",
                  "type": "bytes"
                }
              ],
              "internalType": "struct SwapParams",
              "name": "primarySwap",
              "type": "tuple"
            },
            {
              "components": [
                {
                  "internalType": "enum SwapProtocol",
                  "name": "swapProtocol",
                  "type": "uint8"
                },
                {
                  "internalType": "enum SwapType",
                  "name": "swapType",
                  "type": "uint8"
                },
                {
                  "internalType": "address",
                  "name": "assetIn",
                  "type": "address"
                },
                {
                  "internalType": "uint256",
                  "name": "amount",
                  "type": "uint256"
                },
                {
                  "internalType": "uint256",
                  "name": "limit",
                  "type": "uint256"
                },
                {
                  "internalType": "address",
                  "name": "recipient",
                  "type": "address"
                },
                {
                  "internalType": "uint256",
                  "name": "deadline",
                  "type": "uint256"
                },
                {
                  "internalType": "bytes",
                  "name": "args",
                  "type": "bytes"
                }
              ],
              "internalType": "struct SwapParams",
              "name": "auxSwap",
              "type": "tuple"
            },
            {
              "components": [
                {
                  "internalType": "enum JoinProtocol",
                  "name": "protocol",
                  "type": "uint8"
                },
                {
                  "internalType": "bytes32",
                  "name": "poolId",
                  "type": "bytes32"
                },
                {
                  "internalType": "address[]",
                  "name": "assets",
                  "type": "address[]"
                },
                {
                  "internalType": "uint256[]",
                  "name": "assetsIn",
                  "type": "uint256[]"
                },
                {
                  "internalType": "uint256[]",
                  "name": "maxAmountsIn",
                  "type": "uint256[]"
                },
                {
                  "internalType": "uint256",
                  "name": "minOut",
                  "type": "uint256"
                },
                {
                  "internalType": "address",
                  "name": "recipient",
                  "type": "address"
                }
              ],
              "internalType": "struct JoinParams",
              "name": "auxJoin",
              "type": "tuple"
            },
            {
              "internalType": "address",
              "name": "auxJoinToken",
              "type": "address"
            }
          ],
          "internalType": "struct LeverParams",
          "name": "leverParams",
          "type": "tuple"
        },
        {
          "internalType": "uint256",
          "name": "subCollateral",
          "type": "uint256"
        },
        {
          "internalType": "address",
          "name": "residualRecipient",
          "type": "address"
        }
      ],
      "name": "decreaseLever",
      "outputs": [],
      "stateMutability": "nonpayable",
      "type": "function"
    },
    {
      "inputs": [
        {
          "internalType": "address",
          "name": "position",
          "type": "address"
        },
        {
          "internalType": "address",
          "name": "vault",
          "type": "address"
        },
        {
          "components": [
            {
              "internalType": "address",
              "name": "targetToken",
              "type": "address"
            },
            {
              "internalType": "uint256",
              "name": "amount",
              "type": "uint256"
            },
            {
              "internalType": "address",
              "name": "collateralizer",
              "type": "address"
            },
            {
              "components": [
                {
                  "internalType": "enum SwapProtocol",
                  "name": "swapProtocol",
                  "type": "uint8"
                },
                {
                  "internalType": "enum SwapType",
                  "name": "swapType",
                  "type": "uint8"
                },
                {
                  "internalType": "address",
                  "name": "assetIn",
                  "type": "address"
                },
                {
                  "internalType": "uint256",
                  "name": "amount",
                  "type": "uint256"
                },
                {
                  "internalType": "uint256",
                  "name": "limit",
                  "type": "uint256"
                },
                {
                  "internalType": "address",
                  "name": "recipient",
                  "type": "address"
                },
                {
                  "internalType": "uint256",
                  "name": "deadline",
                  "type": "uint256"
                },
                {
                  "internalType": "bytes",
                  "name": "args",
                  "type": "bytes"
                }
              ],
              "internalType": "struct SwapParams",
              "name": "auxSwap",
              "type": "tuple"
            }
          ],
          "internalType": "struct CollateralParams",
          "name": "collateralParams",
          "type": "tuple"
        },
        {
          "components": [
            {
              "internalType": "enum ApprovalType",
              "name": "approvalType",
              "type": "uint8"
            },
            {
              "internalType": "uint256",
              "name": "approvalAmount",
              "type": "uint256"
            },
            {
              "internalType": "uint256",
              "name": "nonce",
              "type": "uint256"
            },
            {
              "internalType": "uint256",
              "name": "deadline",
              "type": "uint256"
            },
            {
              "internalType": "uint8",
              "name": "v",
              "type": "uint8"
            },
            {
              "internalType": "bytes32",
              "name": "r",
              "type": "bytes32"
            },
            {
              "internalType": "bytes32",
              "name": "s",
              "type": "bytes32"
            }
          ],
          "internalType": "struct PermitParams",
          "name": "permitParams",
          "type": "tuple"
        }
      ],
      "name": "deposit",
      "outputs": [],
      "stateMutability": "nonpayable",
      "type": "function"
    },
    {
      "inputs": [
        {
          "internalType": "address",
          "name": "position",
          "type": "address"
        },
        {
          "internalType": "address",
          "name": "vault",
          "type": "address"
        },
        {
          "components": [
            {
              "internalType": "address",
              "name": "targetToken",
              "type": "address"
            },
            {
              "internalType": "uint256",
              "name": "amount",
              "type": "uint256"
            },
            {
              "internalType": "address",
              "name": "collateralizer",
              "type": "address"
            },
            {
              "components": [
                {
                  "internalType": "enum SwapProtocol",
                  "name": "swapProtocol",
                  "type": "uint8"
                },
                {
                  "internalType": "enum SwapType",
                  "name": "swapType",
                  "type": "uint8"
                },
                {
                  "internalType": "address",
                  "name": "assetIn",
                  "type": "address"
                },
                {
                  "internalType": "uint256",
                  "name": "amount",
                  "type": "uint256"
                },
                {
                  "internalType": "uint256",
                  "name": "limit",
                  "type": "uint256"
                },
                {
                  "internalType": "address",
                  "name": "recipient",
                  "type": "address"
                },
                {
                  "internalType": "uint256",
                  "name": "deadline",
                  "type": "uint256"
                },
                {
                  "internalType": "bytes",
                  "name": "args",
                  "type": "bytes"
                }
              ],
              "internalType": "struct SwapParams",
              "name": "auxSwap",
              "type": "tuple"
            }
          ],
          "internalType": "struct CollateralParams",
          "name": "collateralParams",
          "type": "tuple"
        },
        {
          "components": [
            {
              "internalType": "uint256",
              "name": "amount",
              "type": "uint256"
            },
            {
              "internalType": "address",
              "name": "creditor",
              "type": "address"
            },
            {
              "components": [
                {
                  "internalType": "enum SwapProtocol",
                  "name": "swapProtocol",
                  "type": "uint8"
                },
                {
                  "internalType": "enum SwapType",
                  "name": "swapType",
                  "type": "uint8"
                },
                {
                  "internalType": "address",
                  "name": "assetIn",
                  "type": "address"
                },
                {
                  "internalType": "uint256",
                  "name": "amount",
                  "type": "uint256"
                },
                {
                  "internalType": "uint256",
                  "name": "limit",
                  "type": "uint256"
                },
                {
                  "internalType": "address",
                  "name": "recipient",
                  "type": "address"
                },
                {
                  "internalType": "uint256",
                  "name": "deadline",
                  "type": "uint256"
                },
                {
                  "internalType": "bytes",
                  "name": "args",
                  "type": "bytes"
                }
              ],
              "internalType": "struct SwapParams",
              "name": "auxSwap",
              "type": "tuple"
            }
          ],
          "internalType": "struct CreditParams",
          "name": "creditParams",
          "type": "tuple"
        },
        {
          "components": [
            {
              "internalType": "enum ApprovalType",
              "name": "approvalType",
              "type": "uint8"
            },
            {
              "internalType": "uint256",
              "name": "approvalAmount",
              "type": "uint256"
            },
            {
              "internalType": "uint256",
              "name": "nonce",
              "type": "uint256"
            },
            {
              "internalType": "uint256",
              "name": "deadline",
              "type": "uint256"
            },
            {
              "internalType": "uint8",
              "name": "v",
              "type": "uint8"
            },
            {
              "internalType": "bytes32",
              "name": "r",
              "type": "bytes32"
            },
            {
              "internalType": "bytes32",
              "name": "s",
              "type": "bytes32"
            }
          ],
          "internalType": "struct PermitParams",
          "name": "permitParams",
          "type": "tuple"
        }
      ],
      "name": "depositAndBorrow",
      "outputs": [],
      "stateMutability": "nonpayable",
      "type": "function"
    },
    {
      "inputs": [],
      "name": "flashlender",
      "outputs": [
        {
          "internalType": "contract IFlashlender",
          "name": "",
          "type": "address"
        }
      ],
      "stateMutability": "view",
      "type": "function"
    },
    {
      "inputs": [
        {
          "components": [
            {
              "internalType": "address",
              "name": "position",
              "type": "address"
            },
            {
              "internalType": "address",
              "name": "vault",
              "type": "address"
            },
            {
              "internalType": "address",
              "name": "collateralToken",
              "type": "address"
            },
            {
              "components": [
                {
                  "internalType": "enum SwapProtocol",
                  "name": "swapProtocol",
                  "type": "uint8"
                },
                {
                  "internalType": "enum SwapType",
                  "name": "swapType",
                  "type": "uint8"
                },
                {
                  "internalType": "address",
                  "name": "assetIn",
                  "type": "address"
                },
                {
                  "internalType": "uint256",
                  "name": "amount",
                  "type": "uint256"
                },
                {
                  "internalType": "uint256",
                  "name": "limit",
                  "type": "uint256"
                },
                {
                  "internalType": "address",
                  "name": "recipient",
                  "type": "address"
                },
                {
                  "internalType": "uint256",
                  "name": "deadline",
                  "type": "uint256"
                },
                {
                  "internalType": "bytes",
                  "name": "args",
                  "type": "bytes"
                }
              ],
              "internalType": "struct SwapParams",
              "name": "primarySwap",
              "type": "tuple"
            },
            {
              "components": [
                {
                  "internalType": "enum SwapProtocol",
                  "name": "swapProtocol",
                  "type": "uint8"
                },
                {
                  "internalType": "enum SwapType",
                  "name": "swapType",
                  "type": "uint8"
                },
                {
                  "internalType": "address",
                  "name": "assetIn",
                  "type": "address"
                },
                {
                  "internalType": "uint256",
                  "name": "amount",
                  "type": "uint256"
                },
                {
                  "internalType": "uint256",
                  "name": "limit",
                  "type": "uint256"
                },
                {
                  "internalType": "address",
                  "name": "recipient",
                  "type": "address"
                },
                {
                  "internalType": "uint256",
                  "name": "deadline",
                  "type": "uint256"
                },
                {
                  "internalType": "bytes",
                  "name": "args",
                  "type": "bytes"
                }
              ],
              "internalType": "struct SwapParams",
              "name": "auxSwap",
              "type": "tuple"
            },
            {
              "components": [
                {
                  "internalType": "enum JoinProtocol",
                  "name": "protocol",
                  "type": "uint8"
                },
                {
                  "internalType": "bytes32",
                  "name": "poolId",
                  "type": "bytes32"
                },
                {
                  "internalType": "address[]",
                  "name": "assets",
                  "type": "address[]"
                },
                {
                  "internalType": "uint256[]",
                  "name": "assetsIn",
                  "type": "uint256[]"
                },
                {
                  "internalType": "uint256[]",
                  "name": "maxAmountsIn",
                  "type": "uint256[]"
                },
                {
                  "internalType": "uint256",
                  "name": "minOut",
                  "type": "uint256"
                },
                {
                  "internalType": "address",
                  "name": "recipient",
                  "type": "address"
                }
              ],
              "internalType": "struct JoinParams",
              "name": "auxJoin",
              "type": "tuple"
            },
            {
              "internalType": "address",
              "name": "auxJoinToken",
              "type": "address"
            }
          ],
          "internalType": "struct LeverParams",
          "name": "leverParams",
          "type": "tuple"
        },
        {
          "internalType": "address",
          "name": "upFrontToken",
          "type": "address"
        },
        {
          "internalType": "uint256",
          "name": "upFrontAmount",
          "type": "uint256"
        },
        {
          "internalType": "address",
          "name": "collateralizer",
          "type": "address"
        },
        {
          "components": [
            {
              "internalType": "enum ApprovalType",
              "name": "approvalType",
              "type": "uint8"
            },
            {
              "internalType": "uint256",
              "name": "approvalAmount",
              "type": "uint256"
            },
            {
              "internalType": "uint256",
              "name": "nonce",
              "type": "uint256"
            },
            {
              "internalType": "uint256",
              "name": "deadline",
              "type": "uint256"
            },
            {
              "internalType": "uint8",
              "name": "v",
              "type": "uint8"
            },
            {
              "internalType": "bytes32",
              "name": "r",
              "type": "bytes32"
            },
            {
              "internalType": "bytes32",
              "name": "s",
              "type": "bytes32"
            }
          ],
          "internalType": "struct PermitParams",
          "name": "permitParams",
          "type": "tuple"
        }
      ],
      "name": "increaseLever",
      "outputs": [],
      "stateMutability": "nonpayable",
      "type": "function"
    },
    {
      "inputs": [],
      "name": "joinAction",
      "outputs": [
        {
          "internalType": "contract JoinAction",
          "name": "",
          "type": "address"
        }
      ],
      "stateMutability": "view",
      "type": "function"
    },
    {
      "inputs": [],
      "name": "minter",
      "outputs": [
        {
          "internalType": "contract IMinter",
          "name": "",
          "type": "address"
        }
      ],
      "stateMutability": "view",
      "type": "function"
    },
    {
      "inputs": [
        {
          "internalType": "address[]",
          "name": "targets",
          "type": "address[]"
        },
        {
          "internalType": "bytes[]",
          "name": "data",
          "type": "bytes[]"
        },
        {
          "internalType": "bool[]",
          "name": "delegateCall",
          "type": "bool[]"
        }
      ],
      "name": "multisend",
      "outputs": [],
      "stateMutability": "nonpayable",
      "type": "function"
    },
    {
      "inputs": [
        {
          "internalType": "address",
          "name": "",
          "type": "address"
        },
        {
          "internalType": "uint256",
          "name": "",
          "type": "uint256"
        },
        {
          "internalType": "uint256",
          "name": "",
          "type": "uint256"
        },
        {
          "internalType": "bytes",
          "name": "data",
          "type": "bytes"
        }
      ],
      "name": "onCreditFlashLoan",
      "outputs": [
        {
          "internalType": "bytes32",
          "name": "",
          "type": "bytes32"
        }
      ],
      "stateMutability": "nonpayable",
      "type": "function"
    },
    {
      "inputs": [
        {
          "internalType": "address",
          "name": "",
          "type": "address"
        },
        {
          "internalType": "address",
          "name": "",
          "type": "address"
        },
        {
          "internalType": "uint256",
          "name": "",
          "type": "uint256"
        },
        {
          "internalType": "uint256",
          "name": "",
          "type": "uint256"
        },
        {
          "internalType": "bytes",
          "name": "data",
          "type": "bytes"
        }
      ],
      "name": "onFlashLoan",
      "outputs": [
        {
          "internalType": "bytes32",
          "name": "",
          "type": "bytes32"
        }
      ],
      "stateMutability": "nonpayable",
      "type": "function"
    },
    {
      "inputs": [],
      "name": "permit2",
      "outputs": [
        {
          "internalType": "address",
          "name": "",
          "type": "address"
        }
      ],
      "stateMutability": "view",
      "type": "function"
    },
    {
      "inputs": [
        {
          "internalType": "address",
          "name": "position",
          "type": "address"
        },
        {
          "internalType": "address",
          "name": "vault",
          "type": "address"
        },
        {
          "components": [
            {
              "internalType": "uint256",
              "name": "amount",
              "type": "uint256"
            },
            {
              "internalType": "address",
              "name": "creditor",
              "type": "address"
            },
            {
              "components": [
                {
                  "internalType": "enum SwapProtocol",
                  "name": "swapProtocol",
                  "type": "uint8"
                },
                {
                  "internalType": "enum SwapType",
                  "name": "swapType",
                  "type": "uint8"
                },
                {
                  "internalType": "address",
                  "name": "assetIn",
                  "type": "address"
                },
                {
                  "internalType": "uint256",
                  "name": "amount",
                  "type": "uint256"
                },
                {
                  "internalType": "uint256",
                  "name": "limit",
                  "type": "uint256"
                },
                {
                  "internalType": "address",
                  "name": "recipient",
                  "type": "address"
                },
                {
                  "internalType": "uint256",
                  "name": "deadline",
                  "type": "uint256"
                },
                {
                  "internalType": "bytes",
                  "name": "args",
                  "type": "bytes"
                }
              ],
              "internalType": "struct SwapParams",
              "name": "auxSwap",
              "type": "tuple"
            }
          ],
          "internalType": "struct CreditParams",
          "name": "creditParams",
          "type": "tuple"
        },
        {
          "components": [
            {
              "internalType": "enum ApprovalType",
              "name": "approvalType",
              "type": "uint8"
            },
            {
              "internalType": "uint256",
              "name": "approvalAmount",
              "type": "uint256"
            },
            {
              "internalType": "uint256",
              "name": "nonce",
              "type": "uint256"
            },
            {
              "internalType": "uint256",
              "name": "deadline",
              "type": "uint256"
            },
            {
              "internalType": "uint8",
              "name": "v",
              "type": "uint8"
            },
            {
              "internalType": "bytes32",
              "name": "r",
              "type": "bytes32"
            },
            {
              "internalType": "bytes32",
              "name": "s",
              "type": "bytes32"
            }
          ],
          "internalType": "struct PermitParams",
          "name": "permitParams",
          "type": "tuple"
        }
      ],
      "name": "repay",
      "outputs": [],
      "stateMutability": "nonpayable",
      "type": "function"
    },
    {
      "inputs": [],
      "name": "self",
      "outputs": [
        {
          "internalType": "address",
          "name": "",
          "type": "address"
        }
      ],
      "stateMutability": "view",
      "type": "function"
    },
    {
      "inputs": [],
      "name": "stablecoin",
      "outputs": [
        {
          "internalType": "contract IStablecoin",
          "name": "",
          "type": "address"
        }
      ],
      "stateMutability": "view",
      "type": "function"
    },
    {
      "inputs": [],
      "name": "swapAction",
      "outputs": [
        {
          "internalType": "contract SwapAction",
          "name": "",
          "type": "address"
        }
      ],
      "stateMutability": "view",
      "type": "function"
    },
    {
      "inputs": [
        {
          "internalType": "address",
          "name": "position",
          "type": "address"
        },
        {
          "internalType": "address",
          "name": "vault",
          "type": "address"
        },
        {
          "components": [
            {
              "internalType": "address",
              "name": "targetToken",
              "type": "address"
            },
            {
              "internalType": "uint256",
              "name": "amount",
              "type": "uint256"
            },
            {
              "internalType": "address",
              "name": "collateralizer",
              "type": "address"
            },
            {
              "components": [
                {
                  "internalType": "enum SwapProtocol",
                  "name": "swapProtocol",
                  "type": "uint8"
                },
                {
                  "internalType": "enum SwapType",
                  "name": "swapType",
                  "type": "uint8"
                },
                {
                  "internalType": "address",
                  "name": "assetIn",
                  "type": "address"
                },
                {
                  "internalType": "uint256",
                  "name": "amount",
                  "type": "uint256"
                },
                {
                  "internalType": "uint256",
                  "name": "limit",
                  "type": "uint256"
                },
                {
                  "internalType": "address",
                  "name": "recipient",
                  "type": "address"
                },
                {
                  "internalType": "uint256",
                  "name": "deadline",
                  "type": "uint256"
                },
                {
                  "internalType": "bytes",
                  "name": "args",
                  "type": "bytes"
                }
              ],
              "internalType": "struct SwapParams",
              "name": "auxSwap",
              "type": "tuple"
            }
          ],
          "internalType": "struct CollateralParams",
          "name": "collateralParams",
          "type": "tuple"
        }
      ],
      "name": "withdraw",
      "outputs": [],
      "stateMutability": "nonpayable",
      "type": "function"
    },
    {
      "inputs": [
        {
          "internalType": "address",
          "name": "position",
          "type": "address"
        },
        {
          "internalType": "address",
          "name": "vault",
          "type": "address"
        },
        {
          "components": [
            {
              "internalType": "address",
              "name": "targetToken",
              "type": "address"
            },
            {
              "internalType": "uint256",
              "name": "amount",
              "type": "uint256"
            },
            {
              "internalType": "address",
              "name": "collateralizer",
              "type": "address"
            },
            {
              "components": [
                {
                  "internalType": "enum SwapProtocol",
                  "name": "swapProtocol",
                  "type": "uint8"
                },
                {
                  "internalType": "enum SwapType",
                  "name": "swapType",
                  "type": "uint8"
                },
                {
                  "internalType": "address",
                  "name": "assetIn",
                  "type": "address"
                },
                {
                  "internalType": "uint256",
                  "name": "amount",
                  "type": "uint256"
                },
                {
                  "internalType": "uint256",
                  "name": "limit",
                  "type": "uint256"
                },
                {
                  "internalType": "address",
                  "name": "recipient",
                  "type": "address"
                },
                {
                  "internalType": "uint256",
                  "name": "deadline",
                  "type": "uint256"
                },
                {
                  "internalType": "bytes",
                  "name": "args",
                  "type": "bytes"
                }
              ],
              "internalType": "struct SwapParams",
              "name": "auxSwap",
              "type": "tuple"
            }
          ],
          "internalType": "struct CollateralParams",
          "name": "collateralParams",
          "type": "tuple"
        },
        {
          "components": [
            {
              "internalType": "uint256",
              "name": "amount",
              "type": "uint256"
            },
            {
              "internalType": "address",
              "name": "creditor",
              "type": "address"
            },
            {
              "components": [
                {
                  "internalType": "enum SwapProtocol",
                  "name": "swapProtocol",
                  "type": "uint8"
                },
                {
                  "internalType": "enum SwapType",
                  "name": "swapType",
                  "type": "uint8"
                },
                {
                  "internalType": "address",
                  "name": "assetIn",
                  "type": "address"
                },
                {
                  "internalType": "uint256",
                  "name": "amount",
                  "type": "uint256"
                },
                {
                  "internalType": "uint256",
                  "name": "limit",
                  "type": "uint256"
                },
                {
                  "internalType": "address",
                  "name": "recipient",
                  "type": "address"
                },
                {
                  "internalType": "uint256",
                  "name": "deadline",
                  "type": "uint256"
                },
                {
                  "internalType": "bytes",
                  "name": "args",
                  "type": "bytes"
                }
              ],
              "internalType": "struct SwapParams",
              "name": "auxSwap",
              "type": "tuple"
            }
          ],
          "internalType": "struct CreditParams",
          "name": "creditParams",
          "type": "tuple"
        },
        {
          "components": [
            {
              "internalType": "enum ApprovalType",
              "name": "approvalType",
              "type": "uint8"
            },
            {
              "internalType": "uint256",
              "name": "approvalAmount",
              "type": "uint256"
            },
            {
              "internalType": "uint256",
              "name": "nonce",
              "type": "uint256"
            },
            {
              "internalType": "uint256",
              "name": "deadline",
              "type": "uint256"
            },
            {
              "internalType": "uint8",
              "name": "v",
              "type": "uint8"
            },
            {
              "internalType": "bytes32",
              "name": "r",
              "type": "bytes32"
            },
            {
              "internalType": "bytes32",
              "name": "s",
              "type": "bytes32"
            }
          ],
          "internalType": "struct PermitParams",
          "name": "permitParams",
          "type": "tuple"
        }
      ],
      "name": "withdrawAndRepay",
      "outputs": [],
      "stateMutability": "nonpayable",
      "type": "function"
    }
  ],
  "bytecode": {
    "object": "0x6101606040523480156200001257600080fd5b5060405162005594380380620055948339810160408190526200003591620002c5565b828282826001600160a01b031660a0816001600160a01b03168152505060a0516001600160a01b031663e9cbd8226040518163ffffffff1660e01b8152600401602060405180830381865afa15801562000093573d6000803e3d6000fd5b505050506040513d601f19601f82011682018060405250810190620000b9919062000319565b6001600160a01b031660c0816001600160a01b03168152505060a0516001600160a01b031663075461726040518163ffffffff1660e01b8152600401602060405180830381865afa15801562000113573d6000803e3d6000fd5b505050506040513d601f19601f8201168201806040525081019062000139919062000319565b6001600160a01b031660e0816001600160a01b03168152505060a0516001600160a01b031663e2dfb3176040518163ffffffff1660e01b8152600401602060405180830381865afa15801562000193573d6000803e3d6000fd5b505050506040513d601f19601f82011682018060405250810190620001b9919062000319565b6001600160a01b0390811660808190523061010052838216610120528282166101405260e05160405163d9c70f5760e01b815292166004830152600160248301529063d9c70f5790604401600060405180830381600087803b1580156200021f57600080fd5b505af115801562000234573d6000803e3d6000fd5b505060805160405163d9c70f5760e01b81526001600160a01b03878116600483015260016024830152909116925063d9c70f579150604401600060405180830381600087803b1580156200028757600080fd5b505af11580156200029c573d6000803e3d6000fd5b5050505050505050505062000340565b6001600160a01b0381168114620002c257600080fd5b50565b600080600060608486031215620002db57600080fd5b8351620002e881620002ac565b6020850151909350620002fb81620002ac565b60408501519092506200030e81620002ac565b809150509250925092565b6000602082840312156200032c57600080fd5b81516200033981620002ac565b9392505050565b60805160a05160c05160e0516101005161012051610140516150556200053f60003960008181610373015281816122c201526123480152600081816102b1015281816106ac015281816108ac015281816109bf01528181610a1c01528181612a9e01528181612b3a0152612e75015260008181610250015281816103b201528181610c9a01528181610d7601528181610e8d01528181610f1a01528181610f4b01528181610fac01528181611050015281816111550152818161119e0152818161128e01528181611365015281816114340152818161162e015281816116b001528181611824015281816118c8015281816119ab01528181611a220152611c00015260008181610156015281816107940152818161082001528181610b3601528181612743015281816127da015281816128ab0152818161291b015281816129cb01528181612d890152612e0e0152600081816102ff0152818161076701528181610bbc01528181610d1c0152818161107101528181612a3001528181612d020152612d5c015260008181610339015281816104830152818161094b01528181610bf101528181611025015261189d0152600081816102d8015281816105220152818161063901528181611496015281816115a401528181611c6201528181611d5f015281816127140152818161287a015261299a01526150556000f3fe608060405234801561001057600080fd5b50600436106101375760003560e01c80637104ddb2116100b8578063e9cbd8221161007c578063e9cbd822146102fa578063ee18c32014610321578063ee58918a14610334578063f38584e01461035b578063f8e63c521461036e578063faa994051461039557600080fd5b80637104ddb21461024b5780638237e5381461027257806396c2c40814610299578063a888828b146102ac578063e2dfb317146102d357600080fd5b806323e30c8b116100ff57806323e30c8b146101ec57806324ac0df5146101ff5780634ad4d4ad1461021257806356415a90146102255780636c7470571461023857600080fd5b80630567d4b11461013c57806307546172146101515780630f13be2a1461018e57806312261ee7146101c357806316d8f165146101d9575b600080fd5b61014f61014a36600461397f565b6103a8565b005b6101787f000000000000000000000000000000000000000000000000000000000000000081565b60405161018591906139f3565b60405180910390f35b6101b57f24ea9631d6c6b69006fd9fa411bb9c8909638fd1d178dd2f1d231dca3e3e4d7981565b604051908152602001610185565b6101786e22d473030f116ddee9f6b43ac78ba381565b6101b56101e7366004613a4f565b610476565b6101b56101fa366004613ab8565b61093e565b61014f61020d366004613b33565b610c90565b61014f610220366004613bc3565b611194565b61014f610233366004613c52565b611284565b61014f610246366004613cb3565b61135b565b6101787f000000000000000000000000000000000000000000000000000000000000000081565b6101b57f439148f0bbc682ca079e46d6e2c2f0c1e3b820f1a291b069d8882abf8cf18dd981565b61014f6102a7366004613bc3565b61142a565b6101787f000000000000000000000000000000000000000000000000000000000000000081565b6101787f000000000000000000000000000000000000000000000000000000000000000081565b6101787f000000000000000000000000000000000000000000000000000000000000000081565b61014f61032f366004613d0a565b611624565b6101787f000000000000000000000000000000000000000000000000000000000000000081565b61014f610369366004613da8565b611a18565b6101787f000000000000000000000000000000000000000000000000000000000000000081565b61014f6103a3366004613e2f565b611bf6565b6001600160a01b037f00000000000000000000000000000000000000000000000000000000000000001630036103f15760405163f46a288f60e01b815260040160405180910390fd5b60006103fe848484611dc9565b9050836001600160a01b031663c75a4b5e86303061041b86611f2a565b60006040518663ffffffff1660e01b815260040161043d959493929190613e88565b600060405180830381600087803b15801561045757600080fd5b505af115801561046b573d6000803e3d6000fd5b505050505050505050565b6000336001600160a01b037f000000000000000000000000000000000000000000000000000000000000000016146104c1576040516351b8314560e11b815260040160405180910390fd5b600080806104d18587018761432c565b92509250925060006104f484602001518560000151866060015160600151611f54565b602085015160405163d9c70f5760e01b81526001600160a01b039182166004820152600160248201529192507f0000000000000000000000000000000000000000000000000000000000000000169063d9c70f5790604401600060405180830381600087803b15801561056657600080fd5b505af115801561057a573d6000803e3d6000fd5b5050505083602001516001600160a01b031663c75a4b5e856000015130306105a188611f2a565b6105aa90614379565b6105b387611f2a565b6105bc90614379565b6040518663ffffffff1660e01b81526004016105dc959493929190613e88565b600060405180830381600087803b1580156105f657600080fd5b505af115801561060a573d6000803e3d6000fd5b50505050602084015160405163d9c70f5760e01b81526001600160a01b039182166004820152600060248201527f00000000000000000000000000000000000000000000000000000000000000009091169063d9c70f5790604401600060405180830381600087803b15801561067f57600080fd5b505af1158015610693573d6000803e3d6000fd5b5050505060006106a38585611fe0565b9050600061071f7f00000000000000000000000000000000000000000000000000000000000000006346caab3460e01b88606001516040516024016106e8919061441f565b60408051601f198184030181529190526020810180516001600160e01b03166001600160e01b0319909316929092179091526120db565b905060008180602001905181019061073791906144b1565b9050600061074582856144ca565b6060808a0151015160405163095ea7b360e01b81529192506001600160a01b037f0000000000000000000000000000000000000000000000000000000000000000169163095ea7b3916107bd917f000000000000000000000000000000000000000000000000000000000000000091906004016144dd565b6020604051808303816000875af11580156107dc573d6000803e3d6000fd5b505050506040513d601f19601f820116820180604052508101906108009190614504565b506060808901510151604051637e348b7d60e01b81526001600160a01b037f00000000000000000000000000000000000000000000000000000000000000001691637e348b7d916108559130916004016144dd565b600060405180830381600087803b15801561086f57600080fd5b505af1158015610883573d6000803e3d6000fd5b50505050600081111561090b576080880151604001516001600160a01b0316156108ee576108e87f00000000000000000000000000000000000000000000000000000000000000006346caab3460e01b8a608001516040516024016106e8919061441f565b5061090b565b60608801516040015161090b906001600160a01b0316878361214b565b507f24ea9631d6c6b69006fd9fa411bb9c8909638fd1d178dd2f1d231dca3e3e4d799d9c50505050505050505050505050565b6000336001600160a01b037f00000000000000000000000000000000000000000000000000000000000000001614610989576040516309436d0560e01b815260040160405180910390fd5b6000808061099985870187614521565b60808301516040015192955090935091506001600160a01b031615610a155760006109fb7f00000000000000000000000000000000000000000000000000000000000000006346caab3460e01b86608001516040516024016106e8919061441f565b905080806020019051810190610a1191906144b1565b9150505b6000610a587f00000000000000000000000000000000000000000000000000000000000000006346caab3460e01b86606001516040516024016106e8919061441f565b9050600081806020019051810190610a7091906144b1565b90506000610a80868686856121a6565b90506000610a9f87602001518860000151896060015160600151611f54565b905086602001516001600160a01b031663c75a4b5e88600001513030610ac487611f2a565b610acd87611f2a565b6040518663ffffffff1660e01b8152600401610aed959493929190613e88565b600060405180830381600087803b158015610b0757600080fd5b505af1158015610b1b573d6000803e3d6000fd5b50505050606087810151015160405163ef693bed60e01b81527f00000000000000000000000000000000000000000000000000000000000000006001600160a01b03169163ef693bed91610b739130916004016144dd565b600060405180830381600087803b158015610b8d57600080fd5b505af1158015610ba1573d6000803e3d6000fd5b50505050606087810151015160405163095ea7b360e01b81527f00000000000000000000000000000000000000000000000000000000000000006001600160a01b03169163095ea7b391610c19917f0000000000000000000000000000000000000000000000000000000000000000916004016144dd565b6020604051808303816000875af1158015610c38573d6000803e3d6000fd5b505050506040513d601f19601f82011682018060405250810190610c5c9190614504565b507f439148f0bbc682ca079e46d6e2c2f0c1e3b820f1a291b069d8882abf8cf18dd99e9d5050505050505050505050505050565b6001600160a01b037f0000000000000000000000000000000000000000000000000000000000000000163003610cd95760405163f46a288f60e01b815260040160405180910390fd5b6000610ce8606087018761457a565b610cf990604081019060200161459a565b6001811115610d0a57610d0a614395565b141580610d6657506001600160a01b037f000000000000000000000000000000000000000000000000000000000000000016610d49606087018761457a565b610d5a9060608101906040016145b5565b6001600160a01b031614155b80610dc057506001600160a01b037f000000000000000000000000000000000000000000000000000000000000000016610da3606087018761457a565b610db49060c081019060a0016145b5565b6001600160a01b031614155b15610dde576040516304286a2760e01b815260040160405180910390fd5b6000610ded608087018761457a565b610dfe9060608101906040016145b5565b6001600160a01b031614158015610ed757506000610e1f608087018761457a565b610e3090604081019060200161459a565b6001811115610e4157610e41614395565b141580610e7d57506001600160a01b038416610e60608087018761457a565b610e719060608101906040016145b5565b6001600160a01b031614155b80610ed757506001600160a01b037f000000000000000000000000000000000000000000000000000000000000000016610eba608087018761457a565b610ecb9060c081019060a0016145b5565b6001600160a01b031614155b15610ef557604051630655da1360e41b815260040160405180910390fd5b8215610f7f57306001600160a01b03831603610f4457610f3f6001600160a01b0385167f00000000000000000000000000000000000000000000000000000000000000008561214b565b610f7f565b610f7f84837f000000000000000000000000000000000000000000000000000000000000000086610f7a368790038701876145e3565b612532565b610f8f60408601602087016145b5565b6001600160a01b0316638309dbdd610faa60208801886145b5565b7f000000000000000000000000000000000000000000000000000000000000000060016040518463ffffffff1660e01b8152600401610feb93929190614659565b600060405180830381600087803b15801561100557600080fd5b505af1158015611019573d6000803e3d6000fd5b50506001600160a01b037f0000000000000000000000000000000000000000000000000000000000000000169150635cffe9de90507f00000000000000000000000000000000000000000000000000000000000000007f000000000000000000000000000000000000000000000000000000000000000061109d60608a018a61457a565b606001358989896040516020016110b693929190614a02565b6040516020818303038152906040526040518563ffffffff1660e01b81526004016110e49493929190614a30565b6020604051808303816000875af1158015611103573d6000803e3d6000fd5b505050506040513d601f19601f820116820180604052508101906111279190614504565b5061113860408601602087016145b5565b6001600160a01b0316638309dbdd61115360208801886145b5565b7f000000000000000000000000000000000000000000000000000000000000000060006040518463ffffffff1660e01b815260040161043d93929190614659565b6001600160a01b037f00000000000000000000000000000000000000000000000000000000000000001630036111dd5760405163f46a288f60e01b815260040160405180910390fd5b60006111ea858584611dc9565b905060006111fa86888635611f54565b9050856001600160a01b031663c75a4b5e88303061121787611f2a565b61122087611f2a565b6040518663ffffffff1660e01b8152600401611240959493929190613e88565b600060405180830381600087803b15801561125a57600080fd5b505af115801561126e573d6000803e3d6000fd5b5050505061127b846126fd565b50505050505050565b6001600160a01b037f00000000000000000000000000000000000000000000000000000000000000001630036112cd5760405163f46a288f60e01b815260040160405180910390fd5b60006112db83858435611f54565b9050826001600160a01b031663c75a4b5e85303060006112fa87611f2a565b6040518663ffffffff1660e01b815260040161131a959493929190613e88565b600060405180830381600087803b15801561133457600080fd5b505af1158015611348573d6000803e3d6000fd5b50505050611355826126fd565b50505050565b6001600160a01b037f00000000000000000000000000000000000000000000000000000000000000001630036113a45760405163f46a288f60e01b815260040160405180910390fd5b816001600160a01b031663c75a4b5e8430306113c38660200135611f2a565b6113cc90614379565b60006040518663ffffffff1660e01b81526004016113ee959493929190613e88565b600060405180830381600087803b15801561140857600080fd5b505af115801561141c573d6000803e3d6000fd5b505050506113558282612ae7565b6001600160a01b037f00000000000000000000000000000000000000000000000000000000000000001630036114735760405163f46a288f60e01b815260040160405180910390fd5b61147f85858484612ba5565b604051638309dbdd60e01b81526001600160a01b037f00000000000000000000000000000000000000000000000000000000000000001690638309dbdd906114d09088908890600190600401614659565b600060405180830381600087803b1580156114ea57600080fd5b505af11580156114fe573d6000803e3d6000fd5b50505050836001600160a01b031663c75a4b5e8630306115218860200135611f2a565b61152a90614379565b6115348835611f2a565b61153d90614379565b6040518663ffffffff1660e01b815260040161155d959493929190613e88565b600060405180830381600087803b15801561157757600080fd5b505af115801561158b573d6000803e3d6000fd5b5050604051638309dbdd60e01b81526001600160a01b037f0000000000000000000000000000000000000000000000000000000000000000169250638309dbdd91506115e09088908890600090600401614659565b600060405180830381600087803b1580156115fa57600080fd5b505af115801561160e573d6000803e3d6000fd5b5050505061161c8484612ae7565b505050505050565b6001600160a01b037f000000000000000000000000000000000000000000000000000000000000000016300361166d5760405163f46a288f60e01b815260040160405180910390fd5b600161167c606085018561457a565b61168d90604081019060200161459a565b600181111561169e5761169e614395565b1415806116fa57506001600160a01b037f0000000000000000000000000000000000000000000000000000000000000000166116dd606085018561457a565b6116ee9060c081019060a0016145b5565b6001600160a01b031614155b15611718576040516338ef377d60e01b815260040160405180910390fd5b6000611727608085018561457a565b6117389060608101906040016145b5565b6001600160a01b03161415801561177e57506000611759608085018561457a565b61176a90604081019060200161459a565b600181111561177b5761177b614395565b14155b1561179c57604051630e6c295f60e11b815260040160405180910390fd5b60006117ab608085018561457a565b6117bc9060608101906040016145b5565b6001600160a01b03161480156117d957506001600160a01b038116155b156117f75760405163163a7c2d60e01b815260040160405180910390fd5b61180760408401602085016145b5565b6001600160a01b0316638309dbdd61182260208601866145b5565b7f000000000000000000000000000000000000000000000000000000000000000060016040518463ffffffff1660e01b815260040161186393929190614659565b600060405180830381600087803b15801561187d57600080fd5b505af1158015611891573d6000803e3d6000fd5b50506001600160a01b037f0000000000000000000000000000000000000000000000000000000000000000169150637b644bad90507f00000000000000000000000000000000000000000000000000000000000000006118f4606087018761457a565b6060013586868660405160200161190d93929190614a63565b6040516020818303038152906040526040518463ffffffff1660e01b815260040161193a93929190614a96565b6020604051808303816000875af1158015611959573d6000803e3d6000fd5b505050506040513d601f19601f8201168201806040525081019061197d9190614504565b5061198e60408401602085016145b5565b6001600160a01b0316638309dbdd6119a960208601866145b5565b7f000000000000000000000000000000000000000000000000000000000000000060006040518463ffffffff1660e01b81526004016119ea93929190614659565b600060405180830381600087803b158015611a0457600080fd5b505af115801561127b573d6000803e3d6000fd5b6001600160a01b037f0000000000000000000000000000000000000000000000000000000000000000163003611a615760405163f46a288f60e01b815260040160405180910390fd5b8460005b81811015611bec57838382818110611a7f57611a7f614abd565b9050602002016020810190611a949190614ad3565b15611b2757611b21888883818110611aae57611aae614abd565b9050602002016020810190611ac391906145b5565b878784818110611ad557611ad5614abd565b9050602002810190611ae79190614af0565b8080601f0160208091040260200160405190810160405280939291908181526020018383808284376000920191909152506120db92505050565b50611be4565b600080898984818110611b3c57611b3c614abd565b9050602002016020810190611b5191906145b5565b6001600160a01b0316888885818110611b6c57611b6c614abd565b9050602002810190611b7e9190614af0565b604051611b8c929190614b36565b6000604051808303816000865af19150503d8060008114611bc9576040519150601f19603f3d011682016040523d82523d6000602084013e611bce565b606091505b509150915081611be157611be181612e45565b50505b600101611a65565b5050505050505050565b6001600160a01b037f0000000000000000000000000000000000000000000000000000000000000000163003611c3f5760405163f46a288f60e01b815260040160405180910390fd5b611c4b84848484612ba5565b604051638309dbdd60e01b81526001600160a01b037f00000000000000000000000000000000000000000000000000000000000000001690638309dbdd90611c9c9087908790600190600401614659565b600060405180830381600087803b158015611cb657600080fd5b505af1158015611cca573d6000803e3d6000fd5b50505050826001600160a01b031663c75a4b5e8530306000611cef8860000135611f2a565b611cf890614379565b6040518663ffffffff1660e01b8152600401611d18959493929190613e88565b600060405180830381600087803b158015611d3257600080fd5b505af1158015611d46573d6000803e3d6000fd5b5050604051638309dbdd60e01b81526001600160a01b037f0000000000000000000000000000000000000000000000000000000000000000169250638309dbdd9150611d9b9087908790600090600401614659565b600060405180830381600087803b158015611db557600080fd5b505af1158015611bec573d6000803e3d6000fd5b6000602083013581611dde606086018661457a565b611def9060608101906040016145b5565b6001600160a01b031614611eb857611e0a60208501856145b5565b6001600160a01b0316611e20606086018661457a565b611e319060608101906040016145b5565b6001600160a01b0316141580611e6d575030611e50606086018661457a565b611e619060c081019060a0016145b5565b6001600160a01b031614155b15611e8b5760405163469498c560e11b815260040160405180910390fd5b611eb1611e9e60608601604087016145b5565b611eab606087018761457a565b85612e6d565b9050611f08565b30611ec960608601604087016145b5565b6001600160a01b031614611f0857611f08611ee760208601866145b5565b611ef760608701604088016145b5565b3084610f7a368990038901896145e3565b611f1f85611f1960208701876145b5565b83612f3a565b9150505b9392505050565b6000600160ff1b8210611f5057604051632db27c5360e01b815260040160405180910390fd5b5090565b6000806000856001600160a01b0316638051ba75866040518263ffffffff1660e01b8152600401611f8591906139f3565b606060405180830381865afa158015611fa2573d6000803e3d6000fd5b505050506040513d601f19601f82011682018060405250810190611fc69190614b46565b5091509150611fd684838361312e565b9695505050505050565b60008083602001516001600160a01b031663f3fef3a330856040518363ffffffff1660e01b81526004016120159291906144dd565b6020604051808303816000875af1158015612034573d6000803e3d6000fd5b505050506040513d601f19601f8201168201806040525081019061205891906144b1565b905083604001516001600160a01b031663ba0876528230306040518463ffffffff1660e01b815260040161208e93929190614b89565b6020604051808303816000875af11580156120ad573d6000803e3d6000fd5b505050506040513d601f19601f820116820180604052508101906120d191906144b1565b9150505b92915050565b6060600080846001600160a01b0316846040516120f89190614ba8565b600060405180830381855af49150503d8060008114612133576040519150601f19603f3d011682016040523d82523d6000602084013e612138565b606091505b5091509150816120d1576120d181612e45565b6121a18363a9059cbb60e01b848460405160240161216a9291906144dd565b60408051601f198184030181529190526020810180516001600160e01b03166001600160e01b03199093169290921790915261316a565b505050565b6000806000839050856001600160a01b031687604001516001600160a01b03161480156121e257506080870151604001516001600160a01b0316155b156121ef578491506121fc565b6121f98582614bba565b90505b600087604001516001600160a01b03166338d52e0f6040518163ffffffff1660e01b8152600401602060405180830381865afa158015612240573d6000803e3d6000fd5b505050506040513d601f19601f820116820180604052508101906122649190614bd8565b60a089015160200151909150156123f3576080880151604001516000906001600160a01b031615612299578860c0015161229b565b875b60a08a015160c08b0151604051632627a14b60e21b81529293506000926001600160a01b037f0000000000000000000000000000000000000000000000000000000000000000169263989e852c926122fc928791908d908f90600401614cf4565b600060405180830381865afa158015612319573d6000803e3d6000fd5b505050506040513d6000823e601f3d908101601f191682016040526123419190810190614dfe565b90506123807f00000000000000000000000000000000000000000000000000000000000000006373f9170960e01b836040516024016106e89190614ee8565b506040516370a0823160e01b81526001600160a01b038416906370a08231906123ad9030906004016139f3565b602060405180830381865afa1580156123ca573d6000803e3d6000fd5b505050506040513d601f19601f820116820180604052508101906123ee91906144b1565b935050505b604088015161240d906001600160a01b0383169084613244565b6040808901519051636e553f6560e01b81526004810184905230602482015284916001600160a01b031690636e553f65906044016020604051808303816000875af1158015612460573d6000803e3d6000fd5b505050506040513d601f19601f8201168201806040525081019061248491906144b1565b61248e9190614bba565b602089015160408a01519193506124af916001600160a01b03169084613244565b87602001516001600160a01b03166347e7ef2430846040518363ffffffff1660e01b81526004016124e19291906144dd565b6020604051808303816000875af1158015612500573d6000803e3d6000fd5b505050506040513d601f19601f8201168201806040525081019061252491906144b1565b93505050505b949350505050565b60028151600281111561254757612547614395565b03612671576e22d473030f116ddee9f6b43ac78ba36001600160a01b03166330f28b7a604051806060016040528060405180604001604052808a6001600160a01b03168152602001866020015181525081526020018460400151815260200184606001518152506040518060400160405280876001600160a01b0316815260200186815250878560a001518660c00151876080015160f81b60405160200161260c9392919092835260208301919091526001600160f81b031916604082015260410190565b6040516020818303038152906040526040518563ffffffff1660e01b815260040161263a9493929190614efb565b600060405180830381600087803b15801561265457600080fd5b505af1158015612668573d6000803e3d6000fd5b505050506126f6565b60018151600281111561268657612686614395565b036126e1576126c784848360200151846060015185608001518660a001518760c001518c6001600160a01b03166132dd90979695949392919063ffffffff16565b6126dc6001600160a01b0386168585856134b8565b6126f6565b6126f66001600160a01b0386168585856134b8565b5050505050565b604051638309dbdd60e01b81526001600160a01b037f00000000000000000000000000000000000000000000000000000000000000001690638309dbdd9061276e9030907f000000000000000000000000000000000000000000000000000000000000000090600190600401614659565b600060405180830381600087803b15801561278857600080fd5b505af115801561279c573d6000803e3d6000fd5b50600092506127b1915050604083018361457a565b6127c29060608101906040016145b5565b6001600160a01b031603612904576001600160a01b037f00000000000000000000000000000000000000000000000000000000000000001663ef693bed61280f60408401602085016145b5565b6040516001600160e01b031960e084901b16815261283391908535906004016144dd565b600060405180830381600087803b15801561284d57600080fd5b505af1158015612861573d6000803e3d6000fd5b5050604051638309dbdd60e01b81526001600160a01b037f0000000000000000000000000000000000000000000000000000000000000000169250638309dbdd91506128d69030907f000000000000000000000000000000000000000000000000000000000000000090600090600401614659565b600060405180830381600087803b1580156128f057600080fd5b505af11580156126f6573d6000803e3d6000fd5b60405163ef693bed60e01b81526001600160a01b037f0000000000000000000000000000000000000000000000000000000000000000169063ef693bed906129539030908535906004016144dd565b600060405180830381600087803b15801561296d57600080fd5b505af1158015612981573d6000803e3d6000fd5b5050604051638309dbdd60e01b81526001600160a01b037f0000000000000000000000000000000000000000000000000000000000000000169250638309dbdd91506129f69030907f000000000000000000000000000000000000000000000000000000000000000090600090600401614659565b600060405180830381600087803b158015612a1057600080fd5b505af1158015612a24573d6000803e3d6000fd5b50506001600160a01b037f0000000000000000000000000000000000000000000000000000000000000000169150612a619050604083018361457a565b612a729060608101906040016145b5565b6001600160a01b031614612a995760405163051b33b760e51b815260040160405180910390fd5b612ae27f00000000000000000000000000000000000000000000000000000000000000006311b2aacd60e21b612ad2604085018561457a565b6040516024016106e89190614f74565b505b50565b600080612b0584612afb60208601866145b5565b85602001356134f0565b90506000612b16606085018561457a565b612b279060608101906040016145b5565b6001600160a01b031614612b7457612b6e7f00000000000000000000000000000000000000000000000000000000000000006311b2aacd60e21b612ad2606087018761457a565b50611f23565b611f23612b8760608501604086016145b5565b82612b9560208701876145b5565b6001600160a01b0316919061214b565b600080612bb5604085018561457a565b612bc69060608101906040016145b5565b6001600160a01b031614612c475730612be2604085018561457a565b612bf39060c081019060a0016145b5565b6001600160a01b031614612c1a57604051633300ff5360e21b815260040160405180910390fd5b612c40612c2d60408501602086016145b5565b612c3a604086018661457a565b84612e6d565b9050612d45565b600080856001600160a01b0316638051ba75886040518263ffffffff1660e01b8152600401612c7691906139f3565b606060405180830381865afa158015612c93573d6000803e3d6000fd5b505050506040513d601f19601f82011682018060405250810190612cb79190614b46565b50909250905080612cd26001600160401b0384168735613664565b612cdc91906144ca565b925030612cef60408701602088016145b5565b6001600160a01b031614612d4257612d427f0000000000000000000000000000000000000000000000000000000000000000612d3160408801602089016145b5565b3086610f7a368a90038a018a6145e3565b50505b60405163095ea7b360e01b81526001600160a01b037f0000000000000000000000000000000000000000000000000000000000000000169063095ea7b390612db3907f00000000000000000000000000000000000000000000000000000000000000009085906004016144dd565b6020604051808303816000875af1158015612dd2573d6000803e3d6000fd5b505050506040513d601f19601f82011682018060405250810190612df69190614504565b50604051637e348b7d60e01b81526001600160a01b037f00000000000000000000000000000000000000000000000000000000000000001690637e348b7d9061043d90309085906004016144dd565b805115612e5457805181602001fd5b60405163491182fb60e01b815260040160405180910390fd5b600080612eb17f0000000000000000000000000000000000000000000000000000000000000000630147931c60e01b8786886040516024016106e893929190614f87565b9050600081806020019051810190612ec991906144b1565b90506001612edd604087016020880161459a565b6001811115612eee57612eee614395565b03612f2d576000612f038260808801356144ca565b90508015612f2057612f208782612b9560608a0160408b016145b5565b8560600135935050612f31565b8092505b50509392505050565b600080846001600160a01b031663fc0c546a6040518163ffffffff1660e01b8152600401602060405180830381865afa158015612f7b573d6000803e3d6000fd5b505050506040513d601f19601f82011682018060405250810190612f9f9190614bd8565b9050806001600160a01b0316846001600160a01b0316146130a9576000816001600160a01b03166338d52e0f6040518163ffffffff1660e01b8152600401602060405180830381865afa158015612ffa573d6000803e3d6000fd5b505050506040513d601f19601f8201168201806040525081019061301e9190614bd8565b90506130346001600160a01b0382168386613244565b604051636e553f6560e01b8152600481018590523060248201526001600160a01b03831690636e553f65906044016020604051808303816000875af1158015613081573d6000803e3d6000fd5b505050506040513d601f19601f820116820180604052508101906130a591906144b1565b9350505b6130bd6001600160a01b0382168685613244565b6040516311f9fbc960e21b81526001600160a01b038616906347e7ef24906130eb90309087906004016144dd565b6020604051808303816000875af115801561310a573d6000803e3d6000fd5b505050506040513d601f19601f82011682018060405250810190611f1f91906144b1565b600061314c61313d8386614bba565b846001600160401b0316613692565b90508361315a8285856136e1565b1015611f23576001019392505050565b60006131bf826040518060400160405280602081526020017f5361666545524332303a206c6f772d6c6576656c2063616c6c206661696c6564815250856001600160a01b03166137019092919063ffffffff16565b90508051600014806131e05750808060200190518101906131e09190614504565b6121a15760405162461bcd60e51b815260206004820152602a60248201527f5361666545524332303a204552433230206f7065726174696f6e20646964206e6044820152691bdd081cdd58d8d9595960b21b60648201526084015b60405180910390fd5b600063095ea7b360e01b83836040516024016132619291906144dd565b60408051601f198184030181529190526020810180516001600160e01b03166001600160e01b031990931692909217909152905061329f8482613710565b611355576040516001600160a01b0384166024820152600060448201526132d390859063095ea7b360e01b9060640161216a565b611355848261316a565b604051623f675f60e91b81526000906001600160a01b038a1690637ecebe009061330b908b906004016139f3565b602060405180830381865afa158015613328573d6000803e3d6000fd5b505050506040513d601f19601f8201168201806040525081019061334c91906144b1565b60405163d505accf60e01b81526001600160a01b038a811660048301528981166024830152604482018990526064820188905260ff8716608483015260a4820186905260c48201859052919250908a169063d505accf9060e401600060405180830381600087803b1580156133c057600080fd5b505af11580156133d4573d6000803e3d6000fd5b5050604051623f675f60e91b8152600092506001600160a01b038c169150637ecebe0090613406908c906004016139f3565b602060405180830381865afa158015613423573d6000803e3d6000fd5b505050506040513d601f19601f8201168201806040525081019061344791906144b1565b9050613454826001614bba565b81146134ac5760405162461bcd60e51b815260206004820152602160248201527f5361666545524332303a207065726d697420646964206e6f74207375636365656044820152601960fa1b606482015260840161323b565b50505050505050505050565b6040516001600160a01b03808516602483015283166044820152606481018290526113559085906323b872dd60e01b9060840161216a565b600080846001600160a01b031663f3fef3a330856040518363ffffffff1660e01b81526004016135219291906144dd565b6020604051808303816000875af1158015613540573d6000803e3d6000fd5b505050506040513d601f19601f8201168201806040525081019061356491906144b1565b90506000856001600160a01b031663fc0c546a6040518163ffffffff1660e01b8152600401602060405180830381865afa1580156135a6573d6000803e3d6000fd5b505050506040513d601f19601f820116820180604052508101906135ca9190614bd8565b9050806001600160a01b0316856001600160a01b03161461365b57604051635d043b2960e11b81526001600160a01b0382169063ba0876529061361590859030908190600401614b89565b6020604051808303816000875af1158015613634573d6000803e3d6000fd5b505050506040513d601f19601f8201168201806040525081019061365891906144b1565b91505b50949350505050565b6000816000190483118202156136825763c4c5d7f56000526004601cfd5b50670de0b6b3a764000091020490565b60007812725dd1d243aba0e75fe645cc4873f9e65afe688c928e1f218311670de0b6b3a7640000021582026136cf5763bcbede656000526004601cfd5b50670de0b6b3a7640000919091020490565b6000816136f785856001600160401b0316613664565b61252a91906144ca565b606061252a84846000856137b7565b6000806000846001600160a01b03168460405161372d9190614ba8565b6000604051808303816000865af19150503d806000811461376a576040519150601f19603f3d011682016040523d82523d6000602084013e61376f565b606091505b50915091508180156137995750805115806137995750808060200190518101906137999190614504565b80156137ae57506001600160a01b0385163b15155b95945050505050565b6060824710156138185760405162461bcd60e51b815260206004820152602660248201527f416464726573733a20696e73756666696369656e742062616c616e636520666f6044820152651c8818d85b1b60d21b606482015260840161323b565b600080866001600160a01b031685876040516138349190614ba8565b60006040518083038185875af1925050503d8060008114613871576040519150601f19603f3d011682016040523d82523d6000602084013e613876565b606091505b509150915061388787838387613892565b979650505050505050565b606083156139015782516000036138fa576001600160a01b0385163b6138fa5760405162461bcd60e51b815260206004820152601d60248201527f416464726573733a2063616c6c20746f206e6f6e2d636f6e7472616374000000604482015260640161323b565b508161252a565b61252a83838151156139165781518083602001fd5b8060405162461bcd60e51b815260040161323b919061500c565b6001600160a01b0381168114612ae457600080fd5b803561395081613930565b919050565b60006080828403121561396757600080fd5b50919050565b600060e0828403121561396757600080fd5b600080600080610140858703121561399657600080fd5b84356139a181613930565b935060208501356139b181613930565b925060408501356001600160401b038111156139cc57600080fd5b6139d887828801613955565b9250506139e8866060870161396d565b905092959194509250565b6001600160a01b0391909116815260200190565b60008083601f840112613a1957600080fd5b5081356001600160401b03811115613a3057600080fd5b602083019150836020828501011115613a4857600080fd5b9250929050565b600080600080600060808688031215613a6757600080fd5b8535613a7281613930565b9450602086013593506040860135925060608601356001600160401b03811115613a9b57600080fd5b613aa788828901613a07565b969995985093965092949392505050565b60008060008060008060a08789031215613ad157600080fd5b8635613adc81613930565b95506020870135613aec81613930565b9450604087013593506060870135925060808701356001600160401b03811115613b1557600080fd5b613b2189828a01613a07565b979a9699509497509295939492505050565b60008060008060006101608688031215613b4c57600080fd5b85356001600160401b03811115613b6257600080fd5b613b6e8882890161396d565b9550506020860135613b7f81613930565b9350604086013592506060860135613b9681613930565b9150613ba5876080880161396d565b90509295509295909350565b60006060828403121561396757600080fd5b60008060008060006101608688031215613bdc57600080fd5b8535613be781613930565b94506020860135613bf781613930565b935060408601356001600160401b0380821115613c1357600080fd5b613c1f89838a01613955565b94506060880135915080821115613c3557600080fd5b50613c4288828901613bb1565b925050613ba5876080880161396d565b600080600060608486031215613c6757600080fd5b8335613c7281613930565b92506020840135613c8281613930565b915060408401356001600160401b03811115613c9d57600080fd5b613ca986828701613bb1565b9150509250925092565b600080600060608486031215613cc857600080fd5b8335613cd381613930565b92506020840135613ce381613930565b915060408401356001600160401b03811115613cfe57600080fd5b613ca986828701613955565b600080600060608486031215613d1f57600080fd5b83356001600160401b03811115613d3557600080fd5b613d418682870161396d565b935050602084013591506040840135613d5981613930565b809150509250925092565b60008083601f840112613d7657600080fd5b5081356001600160401b03811115613d8d57600080fd5b6020830191508360208260051b8501011115613a4857600080fd5b60008060008060008060608789031215613dc157600080fd5b86356001600160401b0380821115613dd857600080fd5b613de48a838b01613d64565b90985096506020890135915080821115613dfd57600080fd5b613e098a838b01613d64565b90965094506040890135915080821115613e2257600080fd5b50613b2189828a01613d64565b6000806000806101408587031215613e4657600080fd5b8435613e5181613930565b93506020850135613e6181613930565b925060408501356001600160401b03811115613e7c57600080fd5b6139d887828801613bb1565b6001600160a01b03958616815293851660208501529190931660408301526060820192909252608081019190915260a00190565b634e487b7160e01b600052604160045260246000fd5b60405161010081016001600160401b0381118282101715613ef557613ef5613ebc565b60405290565b60405160e081016001600160401b0381118282101715613ef557613ef5613ebc565b604051601f8201601f191681016001600160401b0381118282101715613f4557613f45613ebc565b604052919050565b60038110612ae457600080fd5b803561395081613f4d565b80356002811061395057600080fd5b600082601f830112613f8557600080fd5b81356001600160401b03811115613f9e57613f9e613ebc565b613fb1601f8201601f1916602001613f1d565b818152846020838601011115613fc657600080fd5b816020850160208301376000918101602001919091529392505050565b60006101008284031215613ff657600080fd5b613ffe613ed2565b905061400982613f5a565b815261401760208301613f65565b602082015261402860408301613945565b6040820152606082013560608201526080820135608082015261404d60a08301613945565b60a082015260c082013560c082015260e08201356001600160401b0381111561407557600080fd5b61408184828501613f74565b60e08301525092915050565b60018110612ae457600080fd5b80356139508161408d565b60006001600160401b038211156140be576140be613ebc565b5060051b60200190565b600082601f8301126140d957600080fd5b813560206140ee6140e9836140a5565b613f1d565b82815260059290921b8401810191818101908684111561410d57600080fd5b8286015b8481101561413157803561412481613930565b8352918301918301614111565b509695505050505050565b600082601f83011261414d57600080fd5b8135602061415d6140e9836140a5565b82815260059290921b8401810191818101908684111561417c57600080fd5b8286015b848110156141315780358352918301918301614180565b600060e082840312156141a957600080fd5b6141b1613efb565b90506141bc8261409a565b81526020820135602082015260408201356001600160401b03808211156141e257600080fd5b6141ee858386016140c8565b6040840152606084013591508082111561420757600080fd5b6142138583860161413c565b6060840152608084013591508082111561422c57600080fd5b506142398482850161413c565b60808301525060a082013560a082015261425560c08301613945565b60c082015292915050565b600060e0828403121561427257600080fd5b61427a613efb565b905061428582613945565b815261429360208301613945565b60208201526142a460408301613945565b604082015260608201356001600160401b03808211156142c357600080fd5b6142cf85838601613fe3565b606084015260808401359150808211156142e857600080fd5b6142f485838601613fe3565b608084015260a084013591508082111561430d57600080fd5b5061431a84828501614197565b60a08301525061425560c08301613945565b60008060006060848603121561434157600080fd5b83356001600160401b0381111561435757600080fd5b613d4186828701614260565b634e487b7160e01b600052601160045260246000fd5b6000600160ff1b820161438e5761438e614363565b5060000390565b634e487b7160e01b600052602160045260246000fd5b60038110612ae457612ae4614395565b600281106143cb576143cb614395565b9052565b60005b838110156143ea5781810151838201526020016143d2565b50506000910152565b6000815180845261440b8160208601602086016143cf565b601f01601f19169290920160200192915050565b6020815260008251614430816143ab565b80602084015250602083015161444960408401826143bb565b5060018060a01b03604084015116606083015260608301516080830152608083015160a083015260a083015161448a60c08401826001600160a01b03169052565b5060c083015160e083015260e08301516101008081850152506120d16101208401826143f3565b6000602082840312156144c357600080fd5b5051919050565b818103818111156120d5576120d5614363565b6001600160a01b03929092168252602082015260400190565b8015158114612ae457600080fd5b60006020828403121561451657600080fd5b8151611f23816144f6565b60008060006060848603121561453657600080fd5b83356001600160401b0381111561454c57600080fd5b61455886828701614260565b935050602084013561456981613930565b929592945050506040919091013590565b6000823560fe1983360301811261459057600080fd5b9190910192915050565b6000602082840312156145ac57600080fd5b611f2382613f65565b6000602082840312156145c757600080fd5b8135611f2381613930565b803560ff8116811461395057600080fd5b600060e082840312156145f557600080fd5b6145fd613efb565b823561460881613f4d565b80825250602083013560208201526040830135604082015260608301356060820152614636608084016145d2565b608082015260a083013560a082015260c083013560c08201528091505092915050565b6001600160a01b039384168152919092166020820152901515604082015260600190565b6000823560fe1983360301811261469357600080fd5b90910192915050565b6000808335601e198436030181126146b357600080fd5b83016020810192503590506001600160401b038111156146d257600080fd5b803603821315613a4857600080fd5b81835281816020850137506000828201602090810191909152601f909101601f19169091010190565b6000610100823561471a81613f4d565b614723816143ab565b845261473160208401613f65565b61473e60208601826143bb565b50604083013561474d81613930565b6001600160a01b03166040850152606083810135908501526080808401359085015260a083013561477d81613930565b6001600160a01b031660a085015260c083810135908501526147a260e084018461469c565b8260e0870152611fd683870182846146e1565b6000823560de1983360301811261469357600080fd5b600181106143cb576143cb614395565b6000808335601e198436030181126147f257600080fd5b83016020810192503590506001600160401b0381111561481157600080fd5b8060051b3603821315613a4857600080fd5b81835260006001600160fb1b0383111561483c57600080fd5b8260051b80836020870137939093016020019392505050565b600060e0830182356148668161408d565b61487085826147cb565b506020808401358186015261488860408501856147db565b60e06040880152928390529160009061010087015b818310156148cd5784356148b081613930565b6001600160a01b031681529383019360019290920191830161489d565b6148da60608801886147db565b9550935087810360608901526148f1818686614823565b94505050505061490460808401846147db565b8583036080870152614917838284614823565b9250505060a083013560a085015261493160c08401613945565b6001600160a01b03811660c08601525b509392505050565b6000813561495681613930565b6001600160a01b03908116845260208301359061497282613930565b908116602085015260408301359061498982613930565b16604084015261499c606083018361467d565b60e060608501526149b060e085018261470a565b90506149bf608084018461467d565b84820360808601526149d1828261470a565b9150506149e160a08401846147b5565b84820360a08601526149f38282614855565b91505061493160c08401613945565b606081526000614a156060830186614949565b6001600160a01b039490941660208301525060400152919050565b6001600160a01b0385811682528416602082015260408101839052608060608201819052600090611fd6908301846143f3565b606081526000614a766060830186614949565b6020830194909452506001600160a01b0391909116604090910152919050565b60018060a01b03841681528260208201526060604082015260006137ae60608301846143f3565b634e487b7160e01b600052603260045260246000fd5b600060208284031215614ae557600080fd5b8135611f23816144f6565b6000808335601e19843603018112614b0757600080fd5b8301803591506001600160401b03821115614b2157600080fd5b602001915036819003821315613a4857600080fd5b8183823760009101908152919050565b600080600060608486031215614b5b57600080fd5b83516001600160401b0381168114614b7257600080fd5b602085015160409095015190969495509392505050565b9283526001600160a01b03918216602084015216604082015260600190565b600082516145908184602087016143cf565b808201808211156120d5576120d5614363565b805161395081613930565b600060208284031215614bea57600080fd5b8151611f2381613930565b600081518084526020808501945080840160005b83811015614c2557815187529582019590820190600101614c09565b509495945050505050565b600060e08301614c418484516147cb565b60208084015181860152604084015160e06040870152828151808552610100880191508383019450600092505b80831015614c975784516001600160a01b03168252938301936001929092019190830190614c6e565b50606086015193508681036060880152614cb18185614bf5565b935050505060808301518482036080860152614ccd8282614bf5565b91505060a083015160a085015260c083015161494160c08601826001600160a01b03169052565b60a081526000614d0760a0830188614c30565b6001600160a01b039687166020840152949095166040820152606081019290925260809091015292915050565b80516139508161408d565b600082601f830112614d5057600080fd5b81516020614d606140e9836140a5565b82815260059290921b84018101918181019086841115614d7f57600080fd5b8286015b84811015614131578051614d9681613930565b8352918301918301614d83565b600082601f830112614db457600080fd5b81516020614dc46140e9836140a5565b82815260059290921b84018101918181019086841115614de357600080fd5b8286015b848110156141315780518352918301918301614de7565b600060208284031215614e1057600080fd5b81516001600160401b0380821115614e2757600080fd5b9083019060e08286031215614e3b57600080fd5b614e43613efb565b614e4c83614d34565b815260208301516020820152604083015182811115614e6a57600080fd5b614e7687828601614d3f565b604083015250606083015182811115614e8e57600080fd5b614e9a87828601614da3565b606083015250608083015182811115614eb257600080fd5b614ebe87828601614da3565b60808301525060a083015160a0820152614eda60c08401614bcd565b60c082015295945050505050565b602081526000611f236020830184614c30565b6000610100614f1e83885180516001600160a01b03168252602090810151910152565b6020870151604084015260408701516060840152614f52608084018780516001600160a01b03168252602090810151910152565b6001600160a01b03851660c084015260e08301819052613887818401856143f3565b602081526000611f23602083018461470a565b6001600160a01b038416815260006101208435614fa381613f4d565b614fac816143ab565b8060208501525060208501356040840152604085013560608401526060850135608084015260ff614fdf608087016145d2565b1660a084015260a085013560c084015260c085013560e084015280610100840152611fd68184018561470a565b602081526000611f2360208301846143f356fea2646970667358221220218ddce6be2e4aead850ded79c4449b1d6a2722e4d886e0e90abadad7276462b64736f6c63430008130033",
    "linkReferences": {}
  },
  "methodIdentifiers": {
    "CALLBACK_SUCCESS()": "8237e538",
    "CALLBACK_SUCCESS_CREDIT()": "0f13be2a",
    "borrow(address,address,(uint256,address,(uint8,uint8,address,uint256,uint256,address,uint256,bytes)))": "56415a90",
    "cdm()": "e2dfb317",
    "decreaseLever((address,address,address,(uint8,uint8,address,uint256,uint256,address,uint256,bytes),(uint8,uint8,address,uint256,uint256,address,uint256,bytes),(uint8,bytes32,address[],uint256[],uint256[],uint256,address),address),uint256,address)": "ee18c320",
    "deposit(address,address,(address,uint256,address,(uint8,uint8,address,uint256,uint256,address,uint256,bytes)),(uint8,uint256,uint256,uint256,uint8,bytes32,bytes32))": "0567d4b1",
    "depositAndBorrow(address,address,(address,uint256,address,(uint8,uint8,address,uint256,uint256,address,uint256,bytes)),(uint256,address,(uint8,uint8,address,uint256,uint256,address,uint256,bytes)),(uint8,uint256,uint256,uint256,uint8,bytes32,bytes32))": "4ad4d4ad",
    "flashlender()": "ee58918a",
    "increaseLever((address,address,address,(uint8,uint8,address,uint256,uint256,address,uint256,bytes),(uint8,uint8,address,uint256,uint256,address,uint256,bytes),(uint8,bytes32,address[],uint256[],uint256[],uint256,address),address),address,uint256,address,(uint8,uint256,uint256,uint256,uint8,bytes32,bytes32))": "24ac0df5",
    "joinAction()": "f8e63c52",
    "minter()": "07546172",
    "multisend(address[],bytes[],bool[])": "f38584e0",
    "onCreditFlashLoan(address,uint256,uint256,bytes)": "16d8f165",
    "onFlashLoan(address,address,uint256,uint256,bytes)": "23e30c8b",
    "permit2()": "12261ee7",
    "repay(address,address,(uint256,address,(uint8,uint8,address,uint256,uint256,address,uint256,bytes)),(uint8,uint256,uint256,uint256,uint8,bytes32,bytes32))": "faa99405",
    "self()": "7104ddb2",
    "stablecoin()": "e9cbd822",
    "swapAction()": "a888828b",
    "withdraw(address,address,(address,uint256,address,(uint8,uint8,address,uint256,uint256,address,uint256,bytes)))": "6c747057",
    "withdrawAndRepay(address,address,(address,uint256,address,(uint8,uint8,address,uint256,uint256,address,uint256,bytes)),(uint256,address,(uint8,uint8,address,uint256,uint256,address,uint256,bytes)),(uint8,uint256,uint256,uint256,uint8,bytes32,bytes32))": "96c2c408"
  },
  "id": 125
}