{
  "abi": [
    {
      "inputs": [
        {
          "internalType": "contract IMinter",
          "name": "minter_",
          "type": "address"
        },
        {
          "internalType": "uint256",
          "name": "protocolFee_",
          "type": "uint256"
        }
      ],
      "stateMutability": "nonpayable",
      "type": "constructor"
    },
    {
      "inputs": [],
      "name": "Flash__creditFlashLoan_callbackFailed",
      "type": "error"
    },
    {
      "inputs": [],
      "name": "Flash__flashFee_unsupportedToken",
      "type": "error"
    },
    {
      "inputs": [],
      "name": "Flash__flashLoan_callbackFailed",
      "type": "error"
    },
    {
      "inputs": [],
      "name": "Flash__flashLoan_unsupportedToken",
      "type": "error"
    },
    {
      "anonymous": false,
      "inputs": [
        {
          "indexed": true,
          "internalType": "address",
          "name": "receiver",
          "type": "address"
        },
        {
          "indexed": false,
          "internalType": "uint256",
          "name": "amount",
          "type": "uint256"
        },
        {
          "indexed": false,
          "internalType": "uint256",
          "name": "fee",
          "type": "uint256"
        }
      ],
      "name": "CreditFlashLoan",
      "type": "event"
    },
    {
      "anonymous": false,
      "inputs": [
        {
          "indexed": true,
          "internalType": "address",
          "name": "receiver",
          "type": "address"
        },
        {
          "indexed": false,
          "internalType": "address",
          "name": "token",
          "type": "address"
        },
        {
          "indexed": false,
          "internalType": "uint256",
          "name": "amount",
          "type": "uint256"
        },
        {
          "indexed": false,
          "internalType": "uint256",
          "name": "fee",
          "type": "uint256"
        }
      ],
      "name": "FlashLoan",
      "type": "event"
    },
    {
      "inputs": [],
      "name": "CALLBACK_SUCCESS",
      "outputs": [
        {
          "internalType": "bytes32",
          "name": "",
          "type": "bytes32"
        }
      ],
      "stateMutability": "view",
      "type": "function"
    },
    {
      "inputs": [],
      "name": "CALLBACK_SUCCESS_CREDIT",
      "outputs": [
        {
          "internalType": "bytes32",
          "name": "",
          "type": "bytes32"
        }
      ],
      "stateMutability": "view",
      "type": "function"
    },
    {
      "inputs": [],
      "name": "cdm",
      "outputs": [
        {
          "internalType": "contract ICDM",
          "name": "",
          "type": "address"
        }
      ],
      "stateMutability": "view",
      "type": "function"
    },
    {
      "inputs": [
        {
          "internalType": "contract ICreditFlashBorrower",
          "name": "receiver",
          "type": "address"
        },
        {
          "internalType": "uint256",
          "name": "amount",
          "type": "uint256"
        },
        {
          "internalType": "bytes",
          "name": "data",
          "type": "bytes"
        }
      ],
      "name": "creditFlashLoan",
      "outputs": [
        {
          "internalType": "bool",
          "name": "",
          "type": "bool"
        }
      ],
      "stateMutability": "nonpayable",
      "type": "function"
    },
    {
      "inputs": [
        {
          "internalType": "address",
          "name": "token",
          "type": "address"
        },
        {
          "internalType": "uint256",
          "name": "amount",
          "type": "uint256"
        }
      ],
      "name": "flashFee",
      "outputs": [
        {
          "internalType": "uint256",
          "name": "",
          "type": "uint256"
        }
      ],
      "stateMutability": "view",
      "type": "function"
    },
    {
      "inputs": [
        {
          "internalType": "contract IERC3156FlashBorrower",
          "name": "receiver",
          "type": "address"
        },
        {
          "internalType": "address",
          "name": "token",
          "type": "address"
        },
        {
          "internalType": "uint256",
          "name": "amount",
          "type": "uint256"
        },
        {
          "internalType": "bytes",
          "name": "data",
          "type": "bytes"
        }
      ],
      "name": "flashLoan",
      "outputs": [
        {
          "internalType": "bool",
          "name": "",
          "type": "bool"
        }
      ],
      "stateMutability": "nonpayable",
      "type": "function"
    },
    {
      "inputs": [
        {
          "internalType": "address",
          "name": "token",
          "type": "address"
        }
      ],
      "name": "maxFlashLoan",
      "outputs": [
        {
          "internalType": "uint256",
          "name": "max",
          "type": "uint256"
        }
      ],
      "stateMutability": "view",
      "type": "function"
    },
    {
      "inputs": [],
      "name": "minter",
      "outputs": [
        {
          "internalType": "contract IMinter",
          "name": "",
          "type": "address"
        }
      ],
      "stateMutability": "view",
      "type": "function"
    },
    {
      "inputs": [],
      "name": "protocolFee",
      "outputs": [
        {
          "internalType": "uint256",
          "name": "",
          "type": "uint256"
        }
      ],
      "stateMutability": "view",
      "type": "function"
    },
    {
      "inputs": [],
      "name": "stablecoin",
      "outputs": [
        {
          "internalType": "contract IStablecoin",
          "name": "",
          "type": "address"
        }
      ],
      "stateMutability": "view",
      "type": "function"
    }
  ],
  "bytecode": {
    "object": "0x6101006040523480156200001257600080fd5b5060405162000fc738038062000fc783398101604081905262000035916200023e565b600160009081556001600160a01b03831660a08190526040805163e2dfb31760e01b8152905163e2dfb317916004808201926020929091908290030181865afa15801562000087573d6000803e3d6000fd5b505050506040513d601f19601f82011682018060405250810190620000ad91906200026f565b6001600160a01b03166080816001600160a01b031681525090506000836001600160a01b031663e9cbd8226040518163ffffffff1660e01b8152600401602060405180830381865afa15801562000108573d6000803e3d6000fd5b505050506040513d601f19601f820116820180604052508101906200012e91906200026f565b6001600160a01b0390811660c081905260e085905260405163d9c70f5760e01b81528683166004820152600160248201529092509083169063d9c70f5790604401600060405180830381600087803b1580156200018a57600080fd5b505af11580156200019f573d6000803e3d6000fd5b505060405163095ea7b360e01b81526001600160a01b03878116600483015260001960248301528416925063095ea7b391506044016020604051808303816000875af1158015620001f4573d6000803e3d6000fd5b505050506040513d601f19601f820116820180604052508101906200021a919062000296565b5050505050620002ba565b6001600160a01b03811681146200023b57600080fd5b50565b600080604083850312156200025257600080fd5b82516200025f8162000225565b6020939093015192949293505050565b6000602082840312156200028257600080fd5b81516200028f8162000225565b9392505050565b600060208284031215620002a957600080fd5b815180151581146200028f57600080fd5b60805160a05160c05160e051610c806200034760003960008181610191015281816102780152818161064301526108e90152600081816101f201528181610220015281816104500152818161056a015261089301526000818160a8015281816102d301526104e90152600081816101cb015281816105b60152818161068f015261080c0152610c806000f3fe608060405234801561001057600080fd5b506004361061009e5760003560e01c80638237e538116100665780638237e53814610165578063b0e21e8a1461018c578063d9d98ce4146101b3578063e2dfb317146101c6578063e9cbd822146101ed57600080fd5b806307546172146100a35780630f13be2a146100e75780635cffe9de1461011c578063613255ab1461013f5780637b644bad14610152575b600080fd5b6100ca7f000000000000000000000000000000000000000000000000000000000000000081565b6040516001600160a01b0390911681526020015b60405180910390f35b61010e7f24ea9631d6c6b69006fd9fa411bb9c8909638fd1d178dd2f1d231dca3e3e4d7981565b6040519081526020016100de565b61012f61012a366004610a02565b610214565b60405190151581526020016100de565b61010e61014d366004610a75565b610566565b61012f610160366004610a99565b610631565b61010e7f439148f0bbc682ca079e46d6e2c2f0c1e3b820f1a291b069d8882abf8cf18dd981565b61010e7f000000000000000000000000000000000000000000000000000000000000000081565b61010e6101c1366004610af5565b61088f565b6100ca7f000000000000000000000000000000000000000000000000000000000000000081565b6100ca7f000000000000000000000000000000000000000000000000000000000000000081565b600061021e610916565b7f00000000000000000000000000000000000000000000000000000000000000006001600160a01b0316856001600160a01b03161461027057604051634630ed4360e11b815260040160405180910390fd5b600061029c857f0000000000000000000000000000000000000000000000000000000000000000610973565b905060006102aa8287610b21565b60405163ef693bed60e01b81526001600160a01b038a81166004830152602482018990529192507f00000000000000000000000000000000000000000000000000000000000000009091169063ef693bed90604401600060405180830381600087803b15801561031957600080fd5b505af115801561032d573d6000803e3d6000fd5b5050604080516001600160a01b038b81168252602082018b9052918101869052908b1692507f0d7d75e01ab95780d3cd1c8ec0dd6c2ce19e3a20427eec8bf53283b6fb8e95f0915060600160405180910390a26040516323e30c8b60e01b81527f439148f0bbc682ca079e46d6e2c2f0c1e3b820f1a291b069d8882abf8cf18dd9906001600160a01b038a16906323e30c8b906103d89033908c908c9089908d908d90600401610b6b565b6020604051808303816000875af11580156103f7573d6000803e3d6000fd5b505050506040513d601f19601f8201168201806040525081019061041b9190610bb2565b146104395760405163f56b9b8560e01b815260040160405180910390fd5b6040516323b872dd60e01b81526001600160a01b037f000000000000000000000000000000000000000000000000000000000000000016906323b872dd90610489908b9030908690600401610bcb565b6020604051808303816000875af11580156104a8573d6000803e3d6000fd5b505050506040513d601f19601f820116820180604052508101906104cc9190610bef565b50604051637e348b7d60e01b8152306004820152602481018290527f00000000000000000000000000000000000000000000000000000000000000006001600160a01b031690637e348b7d90604401600060405180830381600087803b15801561053557600080fd5b505af1158015610549573d6000803e3d6000fd5b5050505060019250505061055d6001600055565b95945050505050565b60007f00000000000000000000000000000000000000000000000000000000000000006001600160a01b0316826001600160a01b03160361062c57604051631c3536e760e01b81523060048201527f00000000000000000000000000000000000000000000000000000000000000006001600160a01b031690631c3536e790602401602060405180830381865afa158015610605573d6000803e3d6000fd5b505050506040513d601f19601f820116820180604052508101906106299190610bb2565b90505b919050565b600061063b610916565b6000610667857f0000000000000000000000000000000000000000000000000000000000000000610973565b905060006106758287610b21565b604051632b0b3a6f60e21b81529091506001600160a01b037f0000000000000000000000000000000000000000000000000000000000000000169063ac2ce9bc906106c89030908b908b90600401610bcb565b600060405180830381600087803b1580156106e257600080fd5b505af11580156106f6573d6000803e3d6000fd5b505060408051898152602081018690526001600160a01b038b1693507f3a37ed9ae34244e957180e19eafe0fd564467b00dd73ed95a9c8bef37d2f42fe92500160405180910390a26040516316d8f16560e01b81527f24ea9631d6c6b69006fd9fa411bb9c8909638fd1d178dd2f1d231dca3e3e4d79906001600160a01b038916906316d8f165906107949033908b9088908c908c90600401610c11565b6020604051808303816000875af11580156107b3573d6000803e3d6000fd5b505050506040513d601f19601f820116820180604052508101906107d79190610bb2565b146107f5576040516359e30c5b60e01b815260040160405180910390fd5b604051632b0b3a6f60e21b81526001600160a01b037f0000000000000000000000000000000000000000000000000000000000000000169063ac2ce9bc90610845908a9030908690600401610bcb565b600060405180830381600087803b15801561085f57600080fd5b505af1158015610873573d6000803e3d6000fd5b505050506001925050506108876001600055565b949350505050565b60007f00000000000000000000000000000000000000000000000000000000000000006001600160a01b0316836001600160a01b0316146108e3576040516396183b1d60e01b815260040160405180910390fd5b61090d827f0000000000000000000000000000000000000000000000000000000000000000610973565b90505b92915050565b60026000540361096c5760405162461bcd60e51b815260206004820152601f60248201527f5265656e7472616e637947756172643a207265656e7472616e742063616c6c00604482015260640160405180910390fd5b6002600055565b6000816000190483118202156109915763c4c5d7f56000526004601cfd5b50670de0b6b3a764000091020490565b6001600160a01b03811681146109b657600080fd5b50565b60008083601f8401126109cb57600080fd5b50813567ffffffffffffffff8111156109e357600080fd5b6020830191508360208285010111156109fb57600080fd5b9250929050565b600080600080600060808688031215610a1a57600080fd5b8535610a25816109a1565b94506020860135610a35816109a1565b935060408601359250606086013567ffffffffffffffff811115610a5857600080fd5b610a64888289016109b9565b969995985093965092949392505050565b600060208284031215610a8757600080fd5b8135610a92816109a1565b9392505050565b60008060008060608587031215610aaf57600080fd5b8435610aba816109a1565b935060208501359250604085013567ffffffffffffffff811115610add57600080fd5b610ae9878288016109b9565b95989497509550505050565b60008060408385031215610b0857600080fd5b8235610b13816109a1565b946020939093013593505050565b8082018082111561091057634e487b7160e01b600052601160045260246000fd5b81835281816020850137506000828201602090810191909152601f909101601f19169091010190565b6001600160a01b03878116825286166020820152604081018590526060810184905260a060808201819052600090610ba69083018486610b42565b98975050505050505050565b600060208284031215610bc457600080fd5b5051919050565b6001600160a01b039384168152919092166020820152604081019190915260600190565b600060208284031215610c0157600080fd5b81518015158114610a9257600080fd5b60018060a01b0386168152846020820152836040820152608060608201526000610c3f608083018486610b42565b97965050505050505056fea264697066735822122066e25b5ba10d4cb5fc62d1d66ca678f23d2fdedcf55bc7593b717ca8188102b764736f6c63430008130033",
    "linkReferences": {}
  },
  "methodIdentifiers": {
    "CALLBACK_SUCCESS()": "8237e538",
    "CALLBACK_SUCCESS_CREDIT()": "0f13be2a",
    "cdm()": "e2dfb317",
    "creditFlashLoan(address,uint256,bytes)": "7b644bad",
    "flashFee(address,uint256)": "d9d98ce4",
    "flashLoan(address,address,uint256,bytes)": "5cffe9de",
    "maxFlashLoan(address)": "613255ab",
    "minter()": "07546172",
    "protocolFee()": "b0e21e8a",
    "stablecoin()": "e9cbd822"
  },
  "id": 95
}