{
  "abi": [
    {
      "inputs": [
        {
          "internalType": "address",
          "name": "balancerVault_",
          "type": "address"
        }
      ],
      "stateMutability": "nonpayable",
      "type": "constructor"
    },
    {
      "inputs": [],
      "name": "PoolAction__exit_unsupportedProtocol",
      "type": "error"
    },
    {
      "inputs": [],
      "name": "PoolAction__join_unsupportedProtocol",
      "type": "error"
    },
    {
      "inputs": [],
      "name": "PoolAction__transferAndJoin_invalidPermitParams",
      "type": "error"
    },
    {
      "inputs": [],
      "name": "PoolAction__transferAndJoin_unsupportedProtocol",
      "type": "error"
    },
    {
      "inputs": [],
      "name": "balancerVault",
      "outputs": [
        {
          "internalType": "contract IVault",
          "name": "",
          "type": "address"
        }
      ],
      "stateMutability": "view",
      "type": "function"
    },
    {
      "inputs": [
        {
          "components": [
            {
              "internalType": "enum Protocol",
              "name": "protocol",
              "type": "uint8"
            },
            {
              "internalType": "uint256",
              "name": "minOut",
              "type": "uint256"
            },
            {
              "internalType": "address",
              "name": "recipient",
              "type": "address"
            },
            {
              "internalType": "bytes",
              "name": "args",
              "type": "bytes"
            }
          ],
          "internalType": "struct PoolActionParams",
          "name": "poolActionParams",
          "type": "tuple"
        }
      ],
      "name": "exit",
      "outputs": [
        {
          "internalType": "uint256",
          "name": "retAmount",
          "type": "uint256"
        }
      ],
      "stateMutability": "nonpayable",
      "type": "function"
    },
    {
      "inputs": [
        {
          "components": [
            {
              "internalType": "enum Protocol",
              "name": "protocol",
              "type": "uint8"
            },
            {
              "internalType": "uint256",
              "name": "minOut",
              "type": "uint256"
            },
            {
              "internalType": "address",
              "name": "recipient",
              "type": "address"
            },
            {
              "internalType": "bytes",
              "name": "args",
              "type": "bytes"
            }
          ],
          "internalType": "struct PoolActionParams",
          "name": "poolActionParams",
          "type": "tuple"
        }
      ],
      "name": "join",
      "outputs": [],
      "stateMutability": "nonpayable",
      "type": "function"
    },
    {
      "inputs": [],
      "name": "permit2",
      "outputs": [
        {
          "internalType": "address",
          "name": "",
          "type": "address"
        }
      ],
      "stateMutability": "view",
      "type": "function"
    },
    {
      "inputs": [
        {
          "internalType": "address",
          "name": "from",
          "type": "address"
        },
        {
          "components": [
            {
              "internalType": "enum ApprovalType",
              "name": "approvalType",
              "type": "uint8"
            },
            {
              "internalType": "uint256",
              "name": "approvalAmount",
              "type": "uint256"
            },
            {
              "internalType": "uint256",
              "name": "nonce",
              "type": "uint256"
            },
            {
              "internalType": "uint256",
              "name": "deadline",
              "type": "uint256"
            },
            {
              "internalType": "uint8",
              "name": "v",
              "type": "uint8"
            },
            {
              "internalType": "bytes32",
              "name": "r",
              "type": "bytes32"
            },
            {
              "internalType": "bytes32",
              "name": "s",
              "type": "bytes32"
            }
          ],
          "internalType": "struct PermitParams[]",
          "name": "permitParams",
          "type": "tuple[]"
        },
        {
          "components": [
            {
              "internalType": "enum Protocol",
              "name": "protocol",
              "type": "uint8"
            },
            {
              "internalType": "uint256",
              "name": "minOut",
              "type": "uint256"
            },
            {
              "internalType": "address",
              "name": "recipient",
              "type": "address"
            },
            {
              "internalType": "bytes",
              "name": "args",
              "type": "bytes"
            }
          ],
          "internalType": "struct PoolActionParams",
          "name": "poolActionParams",
          "type": "tuple"
        }
      ],
      "name": "transferAndJoin",
      "outputs": [],
      "stateMutability": "nonpayable",
      "type": "function"
    },
    {
      "inputs": [
        {
          "components": [
            {
              "internalType": "enum Protocol",
              "name": "protocol",
              "type": "uint8"
            },
            {
              "internalType": "uint256",
              "name": "minOut",
              "type": "uint256"
            },
            {
              "internalType": "address",
              "name": "recipient",
              "type": "address"
            },
            {
              "internalType": "bytes",
              "name": "args",
              "type": "bytes"
            }
          ],
          "internalType": "struct PoolActionParams",
          "name": "poolActionParams",
          "type": "tuple"
        },
        {
          "internalType": "address",
          "name": "joinToken",
          "type": "address"
        },
        {
          "internalType": "address",
          "name": "upFrontToken",
          "type": "address"
        },
        {
          "internalType": "uint256",
          "name": "flashLoanAmount",
          "type": "uint256"
        },
        {
          "internalType": "uint256",
          "name": "upfrontAmount",
          "type": "uint256"
        },
        {
          "internalType": "address",
          "name": "poolToken",
          "type": "address"
        }
      ],
      "name": "updateLeverJoin",
      "outputs": [
        {
          "components": [
            {
              "internalType": "enum Protocol",
              "name": "protocol",
              "type": "uint8"
            },
            {
              "internalType": "uint256",
              "name": "minOut",
              "type": "uint256"
            },
            {
              "internalType": "address",
              "name": "recipient",
              "type": "address"
            },
            {
              "internalType": "bytes",
              "name": "args",
              "type": "bytes"
            }
          ],
          "internalType": "struct PoolActionParams",
          "name": "outParams",
          "type": "tuple"
        }
      ],
      "stateMutability": "pure",
      "type": "function"
    }
  ],
  "bytecode": {
    "object": "0x60a060405234801561001057600080fd5b50604051611c3d380380611c3d83398101604081905261002f91610040565b6001600160a01b0316608052610070565b60006020828403121561005257600080fd5b81516001600160a01b038116811461006957600080fd5b9392505050565b608051611b976100a66000396000818160b501528181610585015281816105ac0152818161076701526107dd0152611b976000f3fe608060405234801561001057600080fd5b50600436106100625760003560e01c806311d04af71461006757806312261ee71461008d578063158274a5146100b0578063410e0041146100d757806358cb1f2a146100ec578063832316ca146100ff575b600080fd5b61007a6100753660046111c9565b61011f565b6040519081526020015b60405180910390f35b6100a36e22d473030f116ddee9f6b43ac78ba381565b60405161008491906111fd565b6100a37f000000000000000000000000000000000000000000000000000000000000000081565b6100ea6100e53660046111c9565b610167565b005b6100ea6100fa366004611229565b6101a6565b61011261010d3660046112d5565b6102ef565b60405161008491906113c3565b600080825160018111156101355761013561135d565b03610149576101438261053f565b92915050565b604051630eed341760e21b815260040160405180910390fd5b919050565b60008151600181111561017c5761017c61135d565b0361018d5761018a8161070f565b50565b604051639f3b0e3d60e01b815260040160405180910390fd5b6001600160a01b03841630146102dd5760006101c56020830183611416565b60018111156101d6576101d661135d565b036102c4576000806101eb6060840184611438565b8101906101f89190611513565b8251929550935050851490506102215760405163011167dd60e01b815260040160405180910390fd5b60005b82518110156102bc5781818151811061023f5761023f6115f8565b60200260200101516000146102b4576102b4838281518110610263576102636115f8565b6020026020010151883085858151811061027f5761027f6115f8565b60200260200101518a8a87818110610299576102996115f8565b905060e002018036038101906102af919061161f565b6108b5565b600101610224565b5050506102dd565b604051638c5c53b160e01b815260040160405180910390fd5b6102e96100e5826116b6565b50505050565b61031960408051608081019091528060008152600060208201819052604082015260609081015290565b50856000875160018111156103305761033061135d565b03610535576000806000808a606001518060200190518101906103539190611781565b8251939750919550935091506000896001600160a01b03808e16908d16036103825761037f8a8261181c565b90505b60005b838110156105005760008361039b57600061039e565b60015b6103ab9060ff168361182f565b90508e6001600160a01b03168883815181106103c9576103c96115f8565b60200260200101516001600160a01b03160361042257828683815181106103f2576103f26115f8565b60200260200101818152505082878281518110610411576104116115f8565b6020026020010181815250506104f7565b8d6001600160a01b031688838151811061043e5761043e6115f8565b60200260200101516001600160a01b031614801561048757508a6001600160a01b0316888381518110610473576104736115f8565b60200260200101516001600160a01b031614155b156104be578b86838151811061049f5761049f6115f8565b6020026020010181815250508b878281518110610411576104116115f8565b83806104f457508a6001600160a01b03168883815181106104e1576104e16115f8565b60200260200101516001600160a01b0316145b93505b50600101610385565b508686868660405160200161051894939291906118b6565b60408051601f198184030181529190526060890152505050505050505b9695505050505050565b6000806000806000806000876060015180602001905181019061056291906118f5565b955095509550955095509550836000146105aa576105aa6001600160a01b0386167f000000000000000000000000000000000000000000000000000000000000000086610a80565b7f00000000000000000000000000000000000000000000000000000000000000006001600160a01b0316638bdb391387308b60400151604051806080016040528088815260200187815260200160008b8b60405160200161060d93929190611998565b6040516020818303038152906040528152602001600015158152506040518563ffffffff1660e01b81526004016106479493929190611a1a565b600060405180830381600087803b15801561066157600080fd5b505af1158015610675573d6000803e3d6000fd5b5050505081838151811061068b5761068b6115f8565b60200260200101516001600160a01b03166370a0823189604001516040518263ffffffff1660e01b81526004016106c291906111fd565b602060405180830381865afa1580156106df573d6000803e3d6000fd5b505050506040513d601f19601f820116820180604052508101906107039190611a4c565b98975050505050505050565b600080600080846060015180602001905181019061072d9190611781565b935093509350935060005b83518110156107da57818181518110610753576107536115f8565b60200260200101516000146107d2576107d27f0000000000000000000000000000000000000000000000000000000000000000838381518110610798576107986115f8565b60200260200101518684815181106107b2576107b26115f8565b60200260200101516001600160a01b0316610a809092919063ffffffff16565b600101610738565b507f00000000000000000000000000000000000000000000000000000000000000006001600160a01b031663b95cac288530886040015160405180608001604052808981526020018781526020016001898d6020015160405160200161084293929190611a65565b6040516020818303038152906040528152602001600015158152506040518563ffffffff1660e01b815260040161087c9493929190611a1a565b600060405180830381600087803b15801561089657600080fd5b505af11580156108aa573d6000803e3d6000fd5b505050505050505050565b6002815160028111156108ca576108ca61135d565b036109f4576e22d473030f116ddee9f6b43ac78ba36001600160a01b03166330f28b7a604051806060016040528060405180604001604052808a6001600160a01b03168152602001866020015181525081526020018460400151815260200184606001518152506040518060400160405280876001600160a01b0316815260200186815250878560a001518660c00151876080015160f81b60405160200161098f9392919092835260208301919091526001600160f81b031916604082015260410190565b6040516020818303038152906040526040518563ffffffff1660e01b81526004016109bd9493929190611a97565b600060405180830381600087803b1580156109d757600080fd5b505af11580156109eb573d6000803e3d6000fd5b50505050610a79565b600181516002811115610a0957610a0961135d565b03610a6457610a4a84848360200151846060015185608001518660a001518760c001518c6001600160a01b0316610b4290979695949392919063ffffffff16565b610a5f6001600160a01b038616858585610d22565b610a79565b610a796001600160a01b038616858585610d22565b5050505050565b604080516001600160a01b038416602482015260448082018490528251808303909101815260649091019091526020810180516001600160e01b031663095ea7b360e01b179052610ad18482610d5a565b6102e9576040516001600160a01b038416602482015260006044820152610b3890859063095ea7b360e01b906064015b60408051601f198184030181529190526020810180516001600160e01b03166001600160e01b031990931692909217909152610e01565b6102e98482610e01565b604051623f675f60e91b81526000906001600160a01b038a1690637ecebe0090610b70908b906004016111fd565b602060405180830381865afa158015610b8d573d6000803e3d6000fd5b505050506040513d601f19601f82011682018060405250810190610bb19190611a4c565b60405163d505accf60e01b81526001600160a01b038a811660048301528981166024830152604482018990526064820188905260ff8716608483015260a4820186905260c48201859052919250908a169063d505accf9060e401600060405180830381600087803b158015610c2557600080fd5b505af1158015610c39573d6000803e3d6000fd5b5050604051623f675f60e91b8152600092506001600160a01b038c169150637ecebe0090610c6b908c906004016111fd565b602060405180830381865afa158015610c88573d6000803e3d6000fd5b505050506040513d601f19601f82011682018060405250810190610cac9190611a4c565b9050610cb982600161181c565b8114610d165760405162461bcd60e51b815260206004820152602160248201527f5361666545524332303a207065726d697420646964206e6f74207375636365656044820152601960fa1b60648201526084015b60405180910390fd5b50505050505050505050565b6040516001600160a01b03808516602483015283166044820152606481018290526102e99085906323b872dd60e01b90608401610b01565b6000806000846001600160a01b031684604051610d779190611b10565b6000604051808303816000865af19150503d8060008114610db4576040519150601f19603f3d011682016040523d82523d6000602084013e610db9565b606091505b5091509150818015610de3575080511580610de3575080806020019051810190610de39190611b2c565b8015610df857506001600160a01b0385163b15155b95945050505050565b6000610e56826040518060400160405280602081526020017f5361666545524332303a206c6f772d6c6576656c2063616c6c206661696c6564815250856001600160a01b0316610edb9092919063ffffffff16565b9050805160001480610e77575080806020019051810190610e779190611b2c565b610ed65760405162461bcd60e51b815260206004820152602a60248201527f5361666545524332303a204552433230206f7065726174696f6e20646964206e6044820152691bdd081cdd58d8d9595960b21b6064820152608401610d0d565b505050565b6060610eea8484600085610ef2565b949350505050565b606082471015610f535760405162461bcd60e51b815260206004820152602660248201527f416464726573733a20696e73756666696369656e742062616c616e636520666f6044820152651c8818d85b1b60d21b6064820152608401610d0d565b600080866001600160a01b03168587604051610f6f9190611b10565b60006040518083038185875af1925050503d8060008114610fac576040519150601f19603f3d011682016040523d82523d6000602084013e610fb1565b606091505b5091509150610fc287838387610fcd565b979650505050505050565b6060831561103c578251600003611035576001600160a01b0385163b6110355760405162461bcd60e51b815260206004820152601d60248201527f416464726573733a2063616c6c20746f206e6f6e2d636f6e74726163740000006044820152606401610d0d565b5081610eea565b610eea83838151156110515781518083602001fd5b8060405162461bcd60e51b8152600401610d0d9190611b4e565b634e487b7160e01b600052604160045260246000fd5b604051608081016001600160401b03811182821017156110a3576110a361106b565b60405290565b604051601f8201601f191681016001600160401b03811182821017156110d1576110d161106b565b604052919050565b80356002811061016257600080fd5b6001600160a01b038116811461018a57600080fd5b60006080828403121561110f57600080fd5b611117611081565b9050611122826110d9565b815260208083013581830152604083013561113c816110e8565b604083015260608301356001600160401b038082111561115b57600080fd5b818501915085601f83011261116f57600080fd5b8135818111156111815761118161106b565b611193601f8201601f191685016110a9565b915080825286848285010111156111a957600080fd5b808484018584013760008482840101525080606085015250505092915050565b6000602082840312156111db57600080fd5b81356001600160401b038111156111f157600080fd5b610eea848285016110fd565b6001600160a01b0391909116815260200190565b60006080828403121561122357600080fd5b50919050565b6000806000806060858703121561123f57600080fd5b843561124a816110e8565b935060208501356001600160401b038082111561126657600080fd5b818701915087601f83011261127a57600080fd5b81358181111561128957600080fd5b88602060e08302850101111561129e57600080fd5b6020830195508094505060408701359150808211156112bc57600080fd5b506112c987828801611211565b91505092959194509250565b60008060008060008060c087890312156112ee57600080fd5b86356001600160401b0381111561130457600080fd5b61131089828a016110fd565b9650506020870135611321816110e8565b94506040870135611331816110e8565b9350606087013592506080870135915060a087013561134f816110e8565b809150509295509295509295565b634e487b7160e01b600052602160045260246000fd5b60005b8381101561138e578181015183820152602001611376565b50506000910152565b600081518084526113af816020860160208601611373565b601f01601f19169290920160200192915050565b6020815260008251600281106113db576113db61135d565b806020840152506020830151604083015260018060a01b0360408401511660608301526060830151608080840152610eea60a0840182611397565b60006020828403121561142857600080fd5b611431826110d9565b9392505050565b6000808335601e1984360301811261144f57600080fd5b8301803591506001600160401b0382111561146957600080fd5b60200191503681900382131561147e57600080fd5b9250929050565b60006001600160401b0382111561149e5761149e61106b565b5060051b60200190565b600082601f8301126114b957600080fd5b813560206114ce6114c983611485565b6110a9565b82815260059290921b840181019181810190868411156114ed57600080fd5b8286015b8481101561150857803583529183019183016114f1565b509695505050505050565b6000806000806080858703121561152957600080fd5b843593506020808601356001600160401b038082111561154857600080fd5b818801915088601f83011261155c57600080fd5b813561156a6114c982611485565b81815260059190911b8301840190848101908b83111561158957600080fd5b938501935b828510156115b05784356115a1816110e8565b8252938501939085019061158e565b9750505060408801359250808311156115c857600080fd5b6115d489848a016114a8565b945060608801359250808311156115ea57600080fd5b50506112c9878288016114a8565b634e487b7160e01b600052603260045260246000fd5b803560ff8116811461016257600080fd5b600060e0828403121561163157600080fd5b60405160e081018181106001600160401b03821117156116535761165361106b565b60405282356003811061166557600080fd5b808252506020830135602082015260408301356040820152606083013560608201526116936080840161160e565b608082015260a083013560a082015260c083013560c08201528091505092915050565b600061014336836110fd565b600082601f8301126116d357600080fd5b815160206116e36114c983611485565b82815260059290921b8401810191818101908684111561170257600080fd5b8286015b84811015611508578051611719816110e8565b8352918301918301611706565b600082601f83011261173757600080fd5b815160206117476114c983611485565b82815260059290921b8401810191818101908684111561176657600080fd5b8286015b84811015611508578051835291830191830161176a565b6000806000806080858703121561179757600080fd5b8451935060208501516001600160401b03808211156117b557600080fd5b6117c1888389016116c2565b945060408701519150808211156117d757600080fd5b6117e388838901611726565b935060608701519150808211156117f957600080fd5b506112c987828801611726565b634e487b7160e01b600052601160045260246000fd5b8082018082111561014357610143611806565b8181038181111561014357610143611806565b600081518084526020808501945080840160005b8381101561187b5781516001600160a01b031687529582019590820190600101611856565b509495945050505050565b600081518084526020808501945080840160005b8381101561187b5781518752958201959082019060010161189a565b8481526080602082015260006118cf6080830186611842565b82810360408401526118e18186611886565b90508281036060840152610fc28185611886565b60008060008060008060c0878903121561190e57600080fd5b865195506020870151611920816110e8565b80955050604087015193506060870151925060808701516001600160401b038082111561194c57600080fd5b6119588a838b016116c2565b935060a089015191508082111561196e57600080fd5b5061197b89828a01611726565b9150509295509295509295565b6004811061018a5761018a61135d565b606081016119a585611988565b938152602081019290925260409091015290565b60008151608084526119ce6080850182611842565b9050602083015184820360208601526119e78282611886565b91505060408301518482036040860152611a018282611397565b9150506060830151151560608501528091505092915050565b8481526001600160a01b03848116602083015283166040820152608060608201819052600090610535908301846119b9565b600060208284031215611a5e57600080fd5b5051919050565b611a6e84611988565b838152606060208201526000611a876060830185611886565b9050826040830152949350505050565b6000610100611aba83885180516001600160a01b03168252602090810151910152565b6020870151604084015260408701516060840152611aee608084018780516001600160a01b03168252602090810151910152565b6001600160a01b03851660c084015260e08301819052610fc281840185611397565b60008251611b22818460208701611373565b9190910192915050565b600060208284031215611b3e57600080fd5b8151801515811461143157600080fd5b602081526000611431602083018461139756fea2646970667358221220c8f143f0b4f96a6720b919888c919105a205a4106fcb6cc1de959efc906903f364736f6c63430008130033",
    "linkReferences": {}
  },
  "methodIdentifiers": {
    "balancerVault()": "158274a5",
    "exit((uint8,uint256,address,bytes))": "11d04af7",
    "join((uint8,uint256,address,bytes))": "410e0041",
    "permit2()": "12261ee7",
    "transferAndJoin(address,(uint8,uint256,uint256,uint256,uint8,bytes32,bytes32)[],(uint8,uint256,address,bytes))": "58cb1f2a",
    "updateLeverJoin((uint8,uint256,address,bytes),address,address,uint256,uint256,address)": "832316ca"
  },
  "id": 122
}