{
  "abi": [
    {
      "inputs": [
        {
          "internalType": "address",
          "name": "factory",
          "type": "address"
        }
      ],
      "stateMutability": "nonpayable",
      "type": "constructor"
    },
    {
      "inputs": [],
      "name": "CDPVault__addLimitPriceTick_invalidPriceTickOrder",
      "type": "error"
    },
    {
      "inputs": [],
      "name": "CDPVault__addLimitPriceTick_limitPriceTickOutOfRange",
      "type": "error"
    },
    {
      "inputs": [],
      "name": "CDPVault__calculateAssetsAndLiabilities_insufficientAssets",
      "type": "error"
    },
    {
      "inputs": [],
      "name": "CDPVault__cancelLimitOrder_limitOrderDoesNotExist",
      "type": "error"
    },
    {
      "inputs": [],
      "name": "CDPVault__checkEmergencyMode_entered",
      "type": "error"
    },
    {
      "inputs": [],
      "name": "CDPVault__claimUndelegatedCredit_epochNotClaimable",
      "type": "error"
    },
    {
      "inputs": [],
      "name": "CDPVault__claimUndelegatedCredit_epochNotFixed",
      "type": "error"
    },
    {
      "inputs": [],
      "name": "CDPVault__createLimitOrder_limitOrderAlreadyExists",
      "type": "error"
    },
    {
      "inputs": [],
      "name": "CDPVault__createLimitOrder_limitOrderFloor",
      "type": "error"
    },
    {
      "inputs": [],
      "name": "CDPVault__createLimitOrder_limitPriceTickNotActive",
      "type": "error"
    },
    {
      "inputs": [],
      "name": "CDPVault__delegateCredit_creditAmountTooSmall",
      "type": "error"
    },
    {
      "inputs": [],
      "name": "CDPVault__exchange_notEnoughExchanged",
      "type": "error"
    },
    {
      "inputs": [],
      "name": "CDPVault__liquidatePosition_notUnsafe",
      "type": "error"
    },
    {
      "inputs": [],
      "name": "CDPVault__liquidatePositions_argLengthMismatch",
      "type": "error"
    },
    {
      "inputs": [],
      "name": "CDPVault__modifyCollateralAndDebt_maxUtilizationRatio",
      "type": "error"
    },
    {
      "inputs": [],
      "name": "CDPVault__modifyCollateralAndDebt_noPermission",
      "type": "error"
    },
    {
      "inputs": [],
      "name": "CDPVault__modifyCollateralAndDebt_notSafe",
      "type": "error"
    },
    {
      "inputs": [],
      "name": "CDPVault__modifyPosition_debtFloor",
      "type": "error"
    },
    {
      "inputs": [],
      "name": "CDPVault__setParameter_unrecognizedParameter",
      "type": "error"
    },
    {
      "inputs": [],
      "name": "IdIsZero",
      "type": "error"
    },
    {
      "inputs": [],
      "name": "InterestRateModel__setBaseRate_invalidBaseRate",
      "type": "error"
    },
    {
      "inputs": [],
      "name": "ItemInList",
      "type": "error"
    },
    {
      "inputs": [],
      "name": "ItemNotInList",
      "type": "error"
    },
    {
      "inputs": [],
      "name": "Math__add_overflow_signed",
      "type": "error"
    },
    {
      "inputs": [],
      "name": "Math__mul_overflow_signed",
      "type": "error"
    },
    {
      "inputs": [],
      "name": "Math__sub_overflow_signed",
      "type": "error"
    },
    {
      "inputs": [],
      "name": "Math__toInt256_overflow",
      "type": "error"
    },
    {
      "inputs": [],
      "name": "Math__toUint64_overflow",
      "type": "error"
    },
    {
      "inputs": [],
      "name": "Permission__modifyPermission_notPermitted",
      "type": "error"
    },
    {
      "anonymous": false,
      "inputs": [
        {
          "indexed": true,
          "internalType": "uint256",
          "name": "limitPriceTick",
          "type": "uint256"
        }
      ],
      "name": "AddLimitPriceTick",
      "type": "event"
    },
    {
      "anonymous": false,
      "inputs": [
        {
          "indexed": true,
          "internalType": "uint256",
          "name": "limitPriceTick",
          "type": "uint256"
        },
        {
          "indexed": true,
          "internalType": "address",
          "name": "maker",
          "type": "address"
        }
      ],
      "name": "CancelLimitOrder",
      "type": "event"
    },
    {
      "anonymous": false,
      "inputs": [
        {
          "indexed": true,
          "internalType": "address",
          "name": "delegator",
          "type": "address"
        },
        {
          "indexed": false,
          "internalType": "uint256",
          "name": "sharesRedeemed",
          "type": "uint256"
        },
        {
          "indexed": false,
          "internalType": "uint256",
          "name": "creditClaimed",
          "type": "uint256"
        }
      ],
      "name": "ClaimUndelegatedCredit",
      "type": "event"
    },
    {
      "anonymous": false,
      "inputs": [
        {
          "indexed": true,
          "internalType": "uint256",
          "name": "limitPriceTick",
          "type": "uint256"
        },
        {
          "indexed": true,
          "internalType": "address",
          "name": "maker",
          "type": "address"
        }
      ],
      "name": "CreateLimitOrder",
      "type": "event"
    },
    {
      "anonymous": false,
      "inputs": [
        {
          "indexed": true,
          "internalType": "address",
          "name": "delegator",
          "type": "address"
        },
        {
          "indexed": false,
          "internalType": "uint256",
          "name": "creditDelegated",
          "type": "uint256"
        },
        {
          "indexed": false,
          "internalType": "uint256",
          "name": "sharesIssued",
          "type": "uint256"
        }
      ],
      "name": "DelegateCredit",
      "type": "event"
    },
    {
      "anonymous": false,
      "inputs": [
        {
          "indexed": true,
          "internalType": "address",
          "name": "redeemer",
          "type": "address"
        },
        {
          "indexed": false,
          "internalType": "uint256",
          "name": "creditExchanged",
          "type": "uint256"
        },
        {
          "indexed": false,
          "internalType": "uint256",
          "name": "collateralRedeemed",
          "type": "uint256"
        }
      ],
      "name": "Exchange",
      "type": "event"
    },
    {
      "anonymous": false,
      "inputs": [
        {
          "indexed": true,
          "internalType": "uint256",
          "name": "limitPriceTick",
          "type": "uint256"
        },
        {
          "indexed": true,
          "internalType": "uint256",
          "name": "limitOrderId",
          "type": "uint256"
        },
        {
          "indexed": false,
          "internalType": "uint256",
          "name": "collateralRedeemed",
          "type": "uint256"
        },
        {
          "indexed": false,
          "internalType": "uint256",
          "name": "creditExchanged",
          "type": "uint256"
        }
      ],
      "name": "ExecuteLimitOrder",
      "type": "event"
    },
    {
      "anonymous": false,
      "inputs": [
        {
          "indexed": true,
          "internalType": "address",
          "name": "position",
          "type": "address"
        },
        {
          "indexed": false,
          "internalType": "uint256",
          "name": "collateralReleased",
          "type": "uint256"
        },
        {
          "indexed": false,
          "internalType": "uint256",
          "name": "normalDebtRepaid",
          "type": "uint256"
        },
        {
          "indexed": true,
          "internalType": "address",
          "name": "liquidator",
          "type": "address"
        }
      ],
      "name": "LiquidatePosition",
      "type": "event"
    },
    {
      "anonymous": false,
      "inputs": [
        {
          "indexed": true,
          "internalType": "address",
          "name": "position",
          "type": "address"
        },
        {
          "indexed": true,
          "internalType": "address",
          "name": "collateralizer",
          "type": "address"
        },
        {
          "indexed": true,
          "internalType": "address",
          "name": "creditor",
          "type": "address"
        },
        {
          "indexed": false,
          "internalType": "int256",
          "name": "deltaCollateral",
          "type": "int256"
        },
        {
          "indexed": false,
          "internalType": "int256",
          "name": "deltaNormalDebt",
          "type": "int256"
        }
      ],
      "name": "ModifyCollateralAndDebt",
      "type": "event"
    },
    {
      "anonymous": false,
      "inputs": [
        {
          "indexed": false,
          "internalType": "address",
          "name": "authorizer",
          "type": "address"
        },
        {
          "indexed": false,
          "internalType": "address",
          "name": "owner",
          "type": "address"
        },
        {
          "indexed": false,
          "internalType": "address",
          "name": "caller",
          "type": "address"
        },
        {
          "indexed": false,
          "internalType": "bool",
          "name": "grant",
          "type": "bool"
        }
      ],
      "name": "ModifyPermission",
      "type": "event"
    },
    {
      "anonymous": false,
      "inputs": [
        {
          "indexed": true,
          "internalType": "address",
          "name": "position",
          "type": "address"
        },
        {
          "indexed": false,
          "internalType": "int256",
          "name": "deltaCollateral",
          "type": "int256"
        },
        {
          "indexed": false,
          "internalType": "int256",
          "name": "deltaNormalDebt",
          "type": "int256"
        },
        {
          "indexed": false,
          "internalType": "uint256",
          "name": "totalNormalDebt",
          "type": "uint256"
        }
      ],
      "name": "ModifyPosition",
      "type": "event"
    },
    {
      "anonymous": false,
      "inputs": [
        {
          "indexed": false,
          "internalType": "address",
          "name": "account",
          "type": "address"
        }
      ],
      "name": "Paused",
      "type": "event"
    },
    {
      "anonymous": false,
      "inputs": [
        {
          "indexed": true,
          "internalType": "uint256",
          "name": "limitPriceTick",
          "type": "uint256"
        }
      ],
      "name": "RemoveLimitPriceTick",
      "type": "event"
    },
    {
      "anonymous": false,
      "inputs": [
        {
          "indexed": true,
          "internalType": "bytes32",
          "name": "role",
          "type": "bytes32"
        },
        {
          "indexed": true,
          "internalType": "bytes32",
          "name": "previousAdminRole",
          "type": "bytes32"
        },
        {
          "indexed": true,
          "internalType": "bytes32",
          "name": "newAdminRole",
          "type": "bytes32"
        }
      ],
      "name": "RoleAdminChanged",
      "type": "event"
    },
    {
      "anonymous": false,
      "inputs": [
        {
          "indexed": true,
          "internalType": "bytes32",
          "name": "role",
          "type": "bytes32"
        },
        {
          "indexed": true,
          "internalType": "address",
          "name": "account",
          "type": "address"
        },
        {
          "indexed": true,
          "internalType": "address",
          "name": "sender",
          "type": "address"
        }
      ],
      "name": "RoleGranted",
      "type": "event"
    },
    {
      "anonymous": false,
      "inputs": [
        {
          "indexed": true,
          "internalType": "bytes32",
          "name": "role",
          "type": "bytes32"
        },
        {
          "indexed": true,
          "internalType": "address",
          "name": "account",
          "type": "address"
        },
        {
          "indexed": true,
          "internalType": "address",
          "name": "sender",
          "type": "address"
        }
      ],
      "name": "RoleRevoked",
      "type": "event"
    },
    {
      "anonymous": false,
      "inputs": [
        {
          "indexed": false,
          "internalType": "int64",
          "name": "baseRate",
          "type": "int64"
        }
      ],
      "name": "SetBaseRate",
      "type": "event"
    },
    {
      "anonymous": false,
      "inputs": [],
      "name": "SetGlobalIRS",
      "type": "event"
    },
    {
      "anonymous": false,
      "inputs": [
        {
          "indexed": true,
          "internalType": "bytes32",
          "name": "parameter",
          "type": "bytes32"
        },
        {
          "indexed": false,
          "internalType": "uint256",
          "name": "data",
          "type": "uint256"
        }
      ],
      "name": "SetParameter",
      "type": "event"
    },
    {
      "anonymous": false,
      "inputs": [
        {
          "indexed": false,
          "internalType": "address",
          "name": "owner",
          "type": "address"
        },
        {
          "indexed": false,
          "internalType": "address",
          "name": "agent",
          "type": "address"
        },
        {
          "indexed": false,
          "internalType": "bool",
          "name": "grant",
          "type": "bool"
        }
      ],
      "name": "SetPermittedAgent",
      "type": "event"
    },
    {
      "anonymous": false,
      "inputs": [
        {
          "indexed": false,
          "internalType": "address",
          "name": "position",
          "type": "address"
        }
      ],
      "name": "SetPositionIRS",
      "type": "event"
    },
    {
      "anonymous": false,
      "inputs": [
        {
          "indexed": true,
          "internalType": "address",
          "name": "delegator",
          "type": "address"
        },
        {
          "indexed": false,
          "internalType": "uint256",
          "name": "shareAmount",
          "type": "uint256"
        },
        {
          "indexed": false,
          "internalType": "uint256",
          "name": "estimatedClaim",
          "type": "uint256"
        },
        {
          "indexed": true,
          "internalType": "uint256",
          "name": "epoch",
          "type": "uint256"
        },
        {
          "indexed": false,
          "internalType": "uint256",
          "name": "claimableAtEpoch",
          "type": "uint256"
        }
      ],
      "name": "UndelegateCredit",
      "type": "event"
    },
    {
      "anonymous": false,
      "inputs": [
        {
          "indexed": false,
          "internalType": "address",
          "name": "account",
          "type": "address"
        }
      ],
      "name": "Unpaused",
      "type": "event"
    },
    {
      "inputs": [],
      "name": "DEFAULT_ADMIN_ROLE",
      "outputs": [
        {
          "internalType": "bytes32",
          "name": "",
          "type": "bytes32"
        }
      ],
      "stateMutability": "view",
      "type": "function"
    },
    {
      "inputs": [],
      "name": "EPOCH_DURATION",
      "outputs": [
        {
          "internalType": "uint256",
          "name": "",
          "type": "uint256"
        }
      ],
      "stateMutability": "view",
      "type": "function"
    },
    {
      "inputs": [],
      "name": "EPOCH_FIX_DELAY",
      "outputs": [
        {
          "internalType": "uint256",
          "name": "",
          "type": "uint256"
        }
      ],
      "stateMutability": "view",
      "type": "function"
    },
    {
      "inputs": [],
      "name": "EPOCH_FIX_TIMEOUT",
      "outputs": [
        {
          "internalType": "uint256",
          "name": "",
          "type": "uint256"
        }
      ],
      "stateMutability": "view",
      "type": "function"
    },
    {
      "inputs": [
        {
          "internalType": "uint256",
          "name": "priceTick",
          "type": "uint256"
        }
      ],
      "name": "activeLimitPriceTicks",
      "outputs": [
        {
          "internalType": "bool",
          "name": "isActive",
          "type": "bool"
        }
      ],
      "stateMutability": "view",
      "type": "function"
    },
    {
      "inputs": [
        {
          "internalType": "uint256",
          "name": "limitPriceTick",
          "type": "uint256"
        },
        {
          "internalType": "uint256",
          "name": "nextLimitPriceTick",
          "type": "uint256"
        }
      ],
      "name": "addLimitPriceTick",
      "outputs": [],
      "stateMutability": "nonpayable",
      "type": "function"
    },
    {
      "inputs": [],
      "name": "buffer",
      "outputs": [
        {
          "internalType": "contract IBuffer",
          "name": "",
          "type": "address"
        }
      ],
      "stateMutability": "view",
      "type": "function"
    },
    {
      "inputs": [
        {
          "internalType": "uint256",
          "name": "priceTick",
          "type": "uint256"
        }
      ],
      "name": "calculateRebateFactorForPriceTick",
      "outputs": [
        {
          "internalType": "uint64",
          "name": "",
          "type": "uint64"
        }
      ],
      "stateMutability": "view",
      "type": "function"
    },
    {
      "inputs": [],
      "name": "cancelLimitOrder",
      "outputs": [],
      "stateMutability": "nonpayable",
      "type": "function"
    },
    {
      "inputs": [
        {
          "internalType": "address",
          "name": "owner",
          "type": "address"
        }
      ],
      "name": "cash",
      "outputs": [
        {
          "internalType": "uint256",
          "name": "balance",
          "type": "uint256"
        }
      ],
      "stateMutability": "view",
      "type": "function"
    },
    {
      "inputs": [],
      "name": "cdm",
      "outputs": [
        {
          "internalType": "contract ICDM",
          "name": "",
          "type": "address"
        }
      ],
      "stateMutability": "view",
      "type": "function"
    },
    {
      "inputs": [],
      "name": "claimFees",
      "outputs": [
        {
          "internalType": "uint256",
          "name": "feesClaimed",
          "type": "uint256"
        }
      ],
      "stateMutability": "nonpayable",
      "type": "function"
    },
    {
      "inputs": [
        {
          "internalType": "uint256",
          "name": "claimForEpoch",
          "type": "uint256"
        }
      ],
      "name": "claimUndelegatedCredit",
      "outputs": [
        {
          "internalType": "uint256",
          "name": "creditAmount",
          "type": "uint256"
        }
      ],
      "stateMutability": "nonpayable",
      "type": "function"
    },
    {
      "inputs": [
        {
          "internalType": "uint256",
          "name": "limitPriceTick",
          "type": "uint256"
        }
      ],
      "name": "createLimitOrder",
      "outputs": [],
      "stateMutability": "nonpayable",
      "type": "function"
    },
    {
      "inputs": [],
      "name": "creditWithholder",
      "outputs": [
        {
          "internalType": "address",
          "name": "",
          "type": "address"
        }
      ],
      "stateMutability": "view",
      "type": "function"
    },
    {
      "inputs": [
        {
          "internalType": "uint256",
          "name": "creditAmount",
          "type": "uint256"
        }
      ],
      "name": "delegateCredit",
      "outputs": [
        {
          "internalType": "uint256",
          "name": "sharesAmount",
          "type": "uint256"
        }
      ],
      "stateMutability": "nonpayable",
      "type": "function"
    },
    {
      "inputs": [
        {
          "internalType": "address",
          "name": "to",
          "type": "address"
        },
        {
          "internalType": "uint256",
          "name": "amount",
          "type": "uint256"
        }
      ],
      "name": "deposit",
      "outputs": [
        {
          "internalType": "uint256",
          "name": "cashAmount",
          "type": "uint256"
        }
      ],
      "stateMutability": "nonpayable",
      "type": "function"
    },
    {
      "inputs": [],
      "name": "enterEmergencyMode",
      "outputs": [],
      "stateMutability": "nonpayable",
      "type": "function"
    },
    {
      "inputs": [
        {
          "internalType": "uint256",
          "name": "epoch",
          "type": "uint256"
        }
      ],
      "name": "epochs",
      "outputs": [
        {
          "internalType": "uint256",
          "name": "totalCreditClaimable",
          "type": "uint256"
        },
        {
          "internalType": "uint256",
          "name": "totalCreditWithheld",
          "type": "uint256"
        },
        {
          "internalType": "uint256",
          "name": "totalSharesQueued",
          "type": "uint256"
        },
        {
          "internalType": "uint128",
          "name": "claimRatio",
          "type": "uint128"
        },
        {
          "internalType": "uint128",
          "name": "estimatedCreditClaimPerShare",
          "type": "uint128"
        }
      ],
      "stateMutability": "view",
      "type": "function"
    },
    {
      "inputs": [
        {
          "internalType": "uint256",
          "name": "upperLimitPriceTick",
          "type": "uint256"
        },
        {
          "internalType": "uint256",
          "name": "creditToExchange",
          "type": "uint256"
        }
      ],
      "name": "exchange",
      "outputs": [
        {
          "internalType": "uint256",
          "name": "creditExchanged",
          "type": "uint256"
        },
        {
          "internalType": "uint256",
          "name": "collateralExchanged",
          "type": "uint256"
        }
      ],
      "stateMutability": "nonpayable",
      "type": "function"
    },
    {
      "inputs": [
        {
          "internalType": "uint256",
          "name": "upperLimitPriceTick",
          "type": "uint256"
        },
        {
          "internalType": "uint256",
          "name": "creditToExchange",
          "type": "uint256"
        }
      ],
      "name": "exchangePreview",
      "outputs": [
        {
          "internalType": "uint256",
          "name": "creditExchanged",
          "type": "uint256"
        },
        {
          "internalType": "uint256",
          "name": "collateralExchanged",
          "type": "uint256"
        }
      ],
      "stateMutability": "nonpayable",
      "type": "function"
    },
    {
      "inputs": [],
      "name": "getCurrentEpoch",
      "outputs": [
        {
          "internalType": "uint256",
          "name": "currentEpoch",
          "type": "uint256"
        }
      ],
      "stateMutability": "view",
      "type": "function"
    },
    {
      "inputs": [],
      "name": "getGlobalIRS",
      "outputs": [
        {
          "components": [
            {
              "internalType": "int64",
              "name": "baseRate",
              "type": "int64"
            },
            {
              "internalType": "uint64",
              "name": "lastUpdated",
              "type": "uint64"
            },
            {
              "internalType": "uint64",
              "name": "rateAccumulator",
              "type": "uint64"
            },
            {
              "internalType": "uint256",
              "name": "averageRebate",
              "type": "uint256"
            },
            {
              "internalType": "uint256",
              "name": "globalAccruedRebate",
              "type": "uint256"
            }
          ],
          "internalType": "struct InterestRateModel.GlobalIRS",
          "name": "",
          "type": "tuple"
        }
      ],
      "stateMutability": "view",
      "type": "function"
    },
    {
      "inputs": [
        {
          "internalType": "uint256",
          "name": "priceTick",
          "type": "uint256"
        },
        {
          "internalType": "uint256",
          "name": "index",
          "type": "uint256"
        }
      ],
      "name": "getLimitOrder",
      "outputs": [
        {
          "internalType": "uint256",
          "name": "limitOrderId",
          "type": "uint256"
        }
      ],
      "stateMutability": "view",
      "type": "function"
    },
    {
      "inputs": [
        {
          "internalType": "address",
          "name": "owner",
          "type": "address"
        },
        {
          "internalType": "address",
          "name": "collateralizer",
          "type": "address"
        },
        {
          "internalType": "address",
          "name": "creditor",
          "type": "address"
        },
        {
          "internalType": "int256",
          "name": "deltaCollateral_",
          "type": "int256"
        }
      ],
      "name": "getMaximumDebtForCollateral",
      "outputs": [
        {
          "internalType": "int256",
          "name": "deltaCollateral",
          "type": "int256"
        },
        {
          "internalType": "int256",
          "name": "deltaNormalDebt",
          "type": "int256"
        },
        {
          "internalType": "uint256",
          "name": "creditNeeded",
          "type": "uint256"
        }
      ],
      "stateMutability": "nonpayable",
      "type": "function"
    },
    {
      "inputs": [
        {
          "internalType": "address",
          "name": "position",
          "type": "address"
        }
      ],
      "name": "getPositionIRS",
      "outputs": [
        {
          "components": [
            {
              "internalType": "uint64",
              "name": "snapshotRateAccumulator",
              "type": "uint64"
            },
            {
              "internalType": "uint64",
              "name": "rebateFactor",
              "type": "uint64"
            },
            {
              "internalType": "uint128",
              "name": "accruedRebate",
              "type": "uint128"
            }
          ],
          "internalType": "struct InterestRateModel.PositionIRS",
          "name": "",
          "type": "tuple"
        }
      ],
      "stateMutability": "view",
      "type": "function"
    },
    {
      "inputs": [
        {
          "internalType": "uint256",
          "name": "index",
          "type": "uint256"
        }
      ],
      "name": "getPriceTick",
      "outputs": [
        {
          "internalType": "uint256",
          "name": "priceTick",
          "type": "uint256"
        },
        {
          "internalType": "bool",
          "name": "isActive",
          "type": "bool"
        }
      ],
      "stateMutability": "view",
      "type": "function"
    },
    {
      "inputs": [
        {
          "internalType": "bytes32",
          "name": "role",
          "type": "bytes32"
        }
      ],
      "name": "getRoleAdmin",
      "outputs": [
        {
          "internalType": "bytes32",
          "name": "",
          "type": "bytes32"
        }
      ],
      "stateMutability": "view",
      "type": "function"
    },
    {
      "inputs": [
        {
          "internalType": "bytes32",
          "name": "role",
          "type": "bytes32"
        },
        {
          "internalType": "address",
          "name": "account",
          "type": "address"
        }
      ],
      "name": "grantRole",
      "outputs": [],
      "stateMutability": "nonpayable",
      "type": "function"
    },
    {
      "inputs": [
        {
          "internalType": "address",
          "name": "owner",
          "type": "address"
        },
        {
          "internalType": "address",
          "name": "caller",
          "type": "address"
        }
      ],
      "name": "hasPermission",
      "outputs": [
        {
          "internalType": "bool",
          "name": "",
          "type": "bool"
        }
      ],
      "stateMutability": "view",
      "type": "function"
    },
    {
      "inputs": [
        {
          "internalType": "bytes32",
          "name": "role",
          "type": "bytes32"
        },
        {
          "internalType": "address",
          "name": "account",
          "type": "address"
        }
      ],
      "name": "hasRole",
      "outputs": [
        {
          "internalType": "bool",
          "name": "",
          "type": "bool"
        }
      ],
      "stateMutability": "view",
      "type": "function"
    },
    {
      "inputs": [],
      "name": "limitOrderFloor",
      "outputs": [
        {
          "internalType": "uint256",
          "name": "",
          "type": "uint256"
        }
      ],
      "stateMutability": "view",
      "type": "function"
    },
    {
      "inputs": [
        {
          "internalType": "uint256",
          "name": "limitOrderId",
          "type": "uint256"
        }
      ],
      "name": "limitOrders",
      "outputs": [
        {
          "internalType": "uint256",
          "name": "priceTick",
          "type": "uint256"
        }
      ],
      "stateMutability": "view",
      "type": "function"
    },
    {
      "inputs": [
        {
          "internalType": "address[]",
          "name": "owners",
          "type": "address[]"
        },
        {
          "internalType": "uint256[]",
          "name": "repayAmounts",
          "type": "uint256[]"
        }
      ],
      "name": "liquidatePositions",
      "outputs": [],
      "stateMutability": "nonpayable",
      "type": "function"
    },
    {
      "inputs": [],
      "name": "liquidationConfig",
      "outputs": [
        {
          "internalType": "uint64",
          "name": "liquidationPenalty",
          "type": "uint64"
        },
        {
          "internalType": "uint64",
          "name": "liquidationDiscount",
          "type": "uint64"
        },
        {
          "internalType": "uint64",
          "name": "targetHealthFactor",
          "type": "uint64"
        }
      ],
      "stateMutability": "view",
      "type": "function"
    },
    {
      "inputs": [
        {
          "internalType": "address",
          "name": "owner",
          "type": "address"
        },
        {
          "internalType": "address",
          "name": "collateralizer",
          "type": "address"
        },
        {
          "internalType": "address",
          "name": "creditor",
          "type": "address"
        },
        {
          "internalType": "int256",
          "name": "deltaCollateral",
          "type": "int256"
        },
        {
          "internalType": "int256",
          "name": "deltaNormalDebt",
          "type": "int256"
        }
      ],
      "name": "modifyCollateralAndDebt",
      "outputs": [],
      "stateMutability": "nonpayable",
      "type": "function"
    },
    {
      "inputs": [
        {
          "internalType": "address",
          "name": "owner",
          "type": "address"
        },
        {
          "internalType": "address",
          "name": "caller",
          "type": "address"
        },
        {
          "internalType": "bool",
          "name": "permitted",
          "type": "bool"
        }
      ],
      "name": "modifyPermission",
      "outputs": [],
      "stateMutability": "nonpayable",
      "type": "function"
    },
    {
      "inputs": [
        {
          "internalType": "address",
          "name": "caller",
          "type": "address"
        },
        {
          "internalType": "bool",
          "name": "permitted",
          "type": "bool"
        }
      ],
      "name": "modifyPermission",
      "outputs": [],
      "stateMutability": "nonpayable",
      "type": "function"
    },
    {
      "inputs": [],
      "name": "oracle",
      "outputs": [
        {
          "internalType": "contract IOracle",
          "name": "",
          "type": "address"
        }
      ],
      "stateMutability": "view",
      "type": "function"
    },
    {
      "inputs": [],
      "name": "pause",
      "outputs": [],
      "stateMutability": "nonpayable",
      "type": "function"
    },
    {
      "inputs": [],
      "name": "paused",
      "outputs": [
        {
          "internalType": "bool",
          "name": "",
          "type": "bool"
        }
      ],
      "stateMutability": "view",
      "type": "function"
    },
    {
      "inputs": [],
      "name": "pausedAt",
      "outputs": [
        {
          "internalType": "uint256",
          "name": "",
          "type": "uint256"
        }
      ],
      "stateMutability": "view",
      "type": "function"
    },
    {
      "inputs": [
        {
          "internalType": "address",
          "name": "owner",
          "type": "address"
        }
      ],
      "name": "positions",
      "outputs": [
        {
          "internalType": "uint256",
          "name": "collateral",
          "type": "uint256"
        },
        {
          "internalType": "uint256",
          "name": "normalDebt",
          "type": "uint256"
        }
      ],
      "stateMutability": "view",
      "type": "function"
    },
    {
      "inputs": [],
      "name": "protocolFee",
      "outputs": [
        {
          "internalType": "uint256",
          "name": "",
          "type": "uint256"
        }
      ],
      "stateMutability": "view",
      "type": "function"
    },
    {
      "inputs": [
        {
          "internalType": "uint256",
          "name": "limitPriceTick",
          "type": "uint256"
        }
      ],
      "name": "removeLimitPriceTick",
      "outputs": [],
      "stateMutability": "nonpayable",
      "type": "function"
    },
    {
      "inputs": [
        {
          "internalType": "bytes32",
          "name": "role",
          "type": "bytes32"
        },
        {
          "internalType": "address",
          "name": "account",
          "type": "address"
        }
      ],
      "name": "renounceRole",
      "outputs": [],
      "stateMutability": "nonpayable",
      "type": "function"
    },
    {
      "inputs": [
        {
          "internalType": "bytes32",
          "name": "role",
          "type": "bytes32"
        },
        {
          "internalType": "address",
          "name": "account",
          "type": "address"
        }
      ],
      "name": "revokeRole",
      "outputs": [],
      "stateMutability": "nonpayable",
      "type": "function"
    },
    {
      "inputs": [
        {
          "internalType": "bytes32",
          "name": "parameter",
          "type": "bytes32"
        },
        {
          "internalType": "uint256",
          "name": "data",
          "type": "uint256"
        }
      ],
      "name": "setParameter",
      "outputs": [],
      "stateMutability": "nonpayable",
      "type": "function"
    },
    {
      "inputs": [
        {
          "internalType": "address",
          "name": "agent",
          "type": "address"
        },
        {
          "internalType": "bool",
          "name": "permitted",
          "type": "bool"
        }
      ],
      "name": "setPermissionAgent",
      "outputs": [],
      "stateMutability": "nonpayable",
      "type": "function"
    },
    {
      "inputs": [
        {
          "internalType": "address",
          "name": "unwinderFactory",
          "type": "address"
        }
      ],
      "name": "setUp",
      "outputs": [],
      "stateMutability": "nonpayable",
      "type": "function"
    },
    {
      "inputs": [
        {
          "internalType": "address",
          "name": "owner",
          "type": "address"
        }
      ],
      "name": "shares",
      "outputs": [
        {
          "internalType": "uint256",
          "name": "balance",
          "type": "uint256"
        }
      ],
      "stateMutability": "view",
      "type": "function"
    },
    {
      "inputs": [
        {
          "internalType": "uint256",
          "name": "epoch",
          "type": "uint256"
        },
        {
          "internalType": "address",
          "name": "delegator",
          "type": "address"
        }
      ],
      "name": "sharesQueuedByEpoch",
      "outputs": [
        {
          "internalType": "uint256",
          "name": "sharesQueued",
          "type": "uint256"
        }
      ],
      "stateMutability": "view",
      "type": "function"
    },
    {
      "inputs": [],
      "name": "spotPrice",
      "outputs": [
        {
          "internalType": "uint256",
          "name": "",
          "type": "uint256"
        }
      ],
      "stateMutability": "nonpayable",
      "type": "function"
    },
    {
      "inputs": [
        {
          "internalType": "bytes4",
          "name": "interfaceId",
          "type": "bytes4"
        }
      ],
      "name": "supportsInterface",
      "outputs": [
        {
          "internalType": "bool",
          "name": "",
          "type": "bool"
        }
      ],
      "stateMutability": "view",
      "type": "function"
    },
    {
      "inputs": [],
      "name": "token",
      "outputs": [
        {
          "internalType": "contract IERC20",
          "name": "",
          "type": "address"
        }
      ],
      "stateMutability": "view",
      "type": "function"
    },
    {
      "inputs": [],
      "name": "tokenScale",
      "outputs": [
        {
          "internalType": "uint256",
          "name": "",
          "type": "uint256"
        }
      ],
      "stateMutability": "view",
      "type": "function"
    },
    {
      "inputs": [],
      "name": "totalAccruedFees",
      "outputs": [
        {
          "internalType": "uint256",
          "name": "",
          "type": "uint256"
        }
      ],
      "stateMutability": "view",
      "type": "function"
    },
    {
      "inputs": [],
      "name": "totalCreditClaimable",
      "outputs": [
        {
          "internalType": "uint256",
          "name": "",
          "type": "uint256"
        }
      ],
      "stateMutability": "view",
      "type": "function"
    },
    {
      "inputs": [],
      "name": "totalNormalDebt",
      "outputs": [
        {
          "internalType": "uint256",
          "name": "",
          "type": "uint256"
        }
      ],
      "stateMutability": "view",
      "type": "function"
    },
    {
      "inputs": [],
      "name": "totalShares",
      "outputs": [
        {
          "internalType": "uint256",
          "name": "",
          "type": "uint256"
        }
      ],
      "stateMutability": "view",
      "type": "function"
    },
    {
      "inputs": [
        {
          "internalType": "uint256",
          "name": "shareAmount",
          "type": "uint256"
        },
        {
          "internalType": "uint256[]",
          "name": "prevQueuedEpochs",
          "type": "uint256[]"
        }
      ],
      "name": "undelegateCredit",
      "outputs": [
        {
          "internalType": "uint256",
          "name": "estimatedClaim",
          "type": "uint256"
        },
        {
          "internalType": "uint256",
          "name": "currentEpoch",
          "type": "uint256"
        },
        {
          "internalType": "uint256",
          "name": "claimableAtEpoch",
          "type": "uint256"
        },
        {
          "internalType": "uint256",
          "name": "fixableUntilEpoch",
          "type": "uint256"
        }
      ],
      "stateMutability": "nonpayable",
      "type": "function"
    },
    {
      "inputs": [],
      "name": "unpause",
      "outputs": [],
      "stateMutability": "nonpayable",
      "type": "function"
    },
    {
      "inputs": [],
      "name": "vaultConfig",
      "outputs": [
        {
          "internalType": "uint128",
          "name": "debtFloor",
          "type": "uint128"
        },
        {
          "internalType": "uint64",
          "name": "liquidationRatio",
          "type": "uint64"
        },
        {
          "internalType": "uint64",
          "name": "globalLiquidationRatio",
          "type": "uint64"
        }
      ],
      "stateMutability": "view",
      "type": "function"
    },
    {
      "inputs": [
        {
          "internalType": "address",
          "name": "position",
          "type": "address"
        }
      ],
      "name": "virtualIRS",
      "outputs": [
        {
          "internalType": "uint64",
          "name": "rateAccumulator",
          "type": "uint64"
        },
        {
          "internalType": "uint256",
          "name": "accruedRebate",
          "type": "uint256"
        },
        {
          "internalType": "uint256",
          "name": "globalAccruedRebate",
          "type": "uint256"
        }
      ],
      "stateMutability": "view",
      "type": "function"
    },
    {
      "inputs": [
        {
          "internalType": "address",
          "name": "to",
          "type": "address"
        },
        {
          "internalType": "uint256",
          "name": "amount",
          "type": "uint256"
        }
      ],
      "name": "withdraw",
      "outputs": [
        {
          "internalType": "uint256",
          "name": "tokenAmount",
          "type": "uint256"
        }
      ],
      "stateMutability": "nonpayable",
      "type": "function"
    }
  ],
  "bytecode": {
    "object": "0x6101a06040523480156200001257600080fd5b506040516200630238038062006302833981016040819052620000359162000116565b6001805460ff1916905560408051639a295e7360e01b81529051829182916001600160a01b03831691639a295e739160048083019261012092919082900301816000875af11580156200008c573d6000803e3d6000fd5b505050506040513d601f19601f82011682018060405250810190620000b291906200013d565b6001600160a01b03908116610140526101809190915261016091909152610120919091526101009190915290811660e05290811660c05290811660a0521660805250620001e5915050565b6001600160a01b03811681146200011357600080fd5b50565b6000602082840312156200012957600080fd5b81516200013681620000fd565b9392505050565b60008060008060008060008060006101208a8c0312156200015d57600080fd5b89516200016a81620000fd565b60208b01519099506200017d81620000fd565b60408b01519098506200019081620000fd565b60608b0151909750620001a381620000fd565b8096505060808a0151945060a08a0151935060c08a0151925060e08a015191506101008a0151620001d481620000fd565b809150509295985092959850929598565b60805160a05160c05160e0516101005161012051610140516101605161018051615fa26200036060003960006127e50152600081816127130152613f7501526000818161081201528181610fb40152818161176b01528181613598015281816136700152818161395301526139ea0152600081816107ba01526152310152600081816104b60152818161150f015281816131330152614665015260008181610aa0015281816111d4015281816112a8015281816114e1015281816131660152614687015260008181610a53015281816128e80152612fa301526000818161068901526111a70152600081816109d001528181610f87015281816112f70152818161173c01528181611e4901528181611ed601528181611f580152818161209001528181612296015281816125ee01528181612671015281816128b90152818161297601528181612ee70152818161356b0152818161364301528181613924015281816139c3015281816148e20152614deb0152615fa26000f3fe608060405234801561001057600080fd5b506004361061035b5760003560e01c8063842c311e116101ca578063c75a4b5e11610105578063dbe6b31c116100a8578063dbe6b31c14610963578063dc2ec249146109af578063df10f687146109b8578063e2dfb317146109cb578063eb953449146109f2578063edaafe2014610a4e578063ef0563fb14610a75578063f3fef3a314610a88578063fc0c546a14610a9b57600080fd5b8063c75a4b5e146108b1578063cb6238c8146108c4578063cde68041146108ef578063ce7c2ac214610902578063d294f09314610922578063d4b7eac31461092a578063d547741f1461093d578063d9c70f571461095057600080fd5b8063a3e2b4951161016d578063a3e2b4951461078b578063a70b9f0c146107ab578063b0e21e8a146107b5578063b6dc16f6146107dc578063b97dd9e2146107fc578063ba95534c14610804578063bf404a411461080d578063c6b61e4c1461083457600080fd5b8063842c311e146107035780638456cb591461070c57806388439aea146107145780638f1e5f631461072757806391d148541461075557806393f9eb35146107685780639844afd21461077b578063a217fddf1461078357600080fd5b80633f2601ef1161029a5780635fe83c7b1161023d5780635fe83c7b146105b4578063683f81a1146105bd5780636e5e741e146105e0578063723507be146106135780637cc34bb4146106265780637dc0d1d0146106845780638051ba75146106b85780638309dbdd146106f057600080fd5b80633f2601ef146104fc5780633f4ba83a1461050f57806344a3c66414610517578063472132f01461052a57806347e7ef241461053257806351f813ec1461054557806355f575101461056d5780635c975abb146105a957600080fd5b80632af8992b116103025780632af8992b1461046f5780632b2368a2146104825780632e55d0f2146104955780632f2ff15d1461049e578063342c02b1146104b157806336568abe146104d8578063398482d8146104eb5780633a98ef39146104f357600080fd5b806301ffc9a71461036057806314815a6d1461038857806319f1039c146103c15780631c580ad5146103c95780632202ce8c1461041c578063248a9ca314610426578063280c37ef146104495780632906f94e1461045c575b600080fd5b61037361036e36600461586e565b610ac2565b60405190151581526020015b60405180910390f35b6103b36103963660046158af565b601060209081526000928352604080842090915290825290205481565b60405190815260200161037f565b6103b3600381565b6018546103f2906001600160401b0380821691600160401b8104821691600160801b9091041683565b604080516001600160401b039485168152928416602084015292169181019190915260600161037f565b610424610af9565b005b6103b36104343660046158db565b60009081526020819052604090206001015490565b610424610457366004615902565b610bc2565b61042461046a3660046158db565b610c39565b6103b361047d366004615939565b610d72565b6103b36104903660046158db565b610dc0565b6103b360025481565b6104246104ac3660046158af565b6110e0565b6103b37f000000000000000000000000000000000000000000000000000000000000000081565b6104246104e63660046158af565b61110a565b6103b361118d565b6103b3600c5481565b61042461050a36600461595b565b611244565b610424611357565b610424610525366004615939565b611391565b6103b3600181565b6103b3610540366004615976565b6114ca565b6105586105533660046158db565b61156c565b6040805192835290151560208301520161037f565b61059461057b36600461595b565b6012602052600090815260409020805460019091015482565b6040805192835260208301919091520161037f565b60015460ff16610373565b6103b3600e5481565b6103736105cb3660046158db565b60136020526000908152604090205460ff1681565b6105f36105ee366004615a45565b6115c8565b60408051948552602085019390935291830152606082015260800161037f565b610424610621366004615939565b611949565b600954610655906001600160801b038116906001600160401b03600160801b8204811691600160c01b90041683565b604080516001600160801b0390941684526001600160401b03928316602085015291169082015260600161037f565b6106ab7f000000000000000000000000000000000000000000000000000000000000000081565b60405161037f9190615a8b565b6106cb6106c636600461595b565b611bad565b604080516001600160401b03909416845260208401929092529082015260600161037f565b6104246106fe366004615a9f565b611c3d565b6103b3600a5481565b610424611d0c565b610594610722366004615939565b611d41565b61073a610735366004615ae6565b611d64565b6040805193845260208401929092529082015260600161037f565b6103736107633660046158af565b6121ab565b6103b36107763660046158db565b6121d4565b610424612344565b6103b3600081565b6103b36107993660046158db565b60166020526000908152604090205481565b6103b36203f48081565b6103b37f000000000000000000000000000000000000000000000000000000000000000081565b6103b36107ea36600461595b565b60116020526000908152604090205481565b6103b3612396565b6103b3600b5481565b6106ab7f000000000000000000000000000000000000000000000000000000000000000081565b61087d6108423660046158db565b600f602052600090815260409020805460018201546002830154600390930154919290916001600160801b0380821691600160801b90041685565b604080519586526020860194909452928401919091526001600160801b03908116606084015216608082015260a00161037f565b6104246108bf366004615b31565b6123b4565b6108d76108d23660046158db565b6127c9565b6040516001600160401b03909116815260200161037f565b6103736108fd366004615b86565b61284b565b6103b361091036600461595b565b600d6020526000908152604090205481565b6103b3612899565b610594610938366004615939565b612947565b61042461094b3660046158af565b612a4f565b61042461095e366004615902565b612a74565b61097661097136600461595b565b612ad7565b6040805182516001600160401b03908116825260208085015190911690820152918101516001600160801b03169082015260600161037f565b6103b360175481565b6104246109c6366004615bb0565b612b42565b6106ab7f000000000000000000000000000000000000000000000000000000000000000081565b6109fa613025565b60405161037f9190600060a082019050825160070b825260208301516001600160401b0380821660208501528060408601511660408501525050606083015160608301526080830151608083015292915050565b6106ab7f000000000000000000000000000000000000000000000000000000000000000081565b610424610a833660046158db565b61307c565b6103b3610a96366004615976565b6130fe565b6106ab7f000000000000000000000000000000000000000000000000000000000000000081565b60006001600160e01b03198216637965db0b60e01b1480610af357506301ffc9a760e01b6001600160e01b03198316145b92915050565b3360008181526016602052604081205490819003610b2a57604051630573b42560e51b815260040160405180910390fd5b6000818152601560205260409020610b42908361318d565b6000828152601660209081526040808320839055338084526012909252822060010154600a54610b8e93610b7461118d565b600954600160c01b90046001600160401b0316600061320e565b505060405133915082907f6f36e2a381bc87c87bcc2043deb0a5cdf9a6d87eb14cbe13cf0f1fe39f324dd990600090a35050565b3360008181526004602090815260408083206001600160a01b03871680855290835292819020805460ff1916861515908117909155815194855291840192909252908201527f6501e8bfa2d3e686d62fe2c0c3275df594494583b0a63a70b7452d3eeb712bd6906060015b60405180910390a15050565b60008181526013602052604090205460ff16610c685760405163da4b118b60e01b815260040160405180910390fd5b33600090815260126020526040902060010154601754811015610c9e576040516305c0093760e21b815260040160405180910390fd5b3360008181526016602052604090205415610ccc5760405163345c017d60e01b815260040160405180910390fd5b600081815260166020908152604080832086905585835260158083528184208480528084529184206001015493879052909152610d0a9183906132d9565b610d3d3383600a546000610d1c61118d565b600954600160c01b90046001600160401b0316610d388a6127c9565b61320e565b505060405133915084907f85d7690ee90733d849878d2bbbd5bf047e442ce2d045c0308a58cfd2ce53031590600090a3505050565b6000828152601560209081526040808320838052909152812054905b828114610db95760008481526015602090815260408083208584529091529020549150600101610d8e565b5092915050565b600080610dcb612396565b905060018301811015610df15760405163d84d29d760e01b815260040160405180910390fd5b6000610dfc846133a6565b94505050505080604001516000148015610e21575060608101516001600160801b0316155b8015610e2f57506020810151155b15610e9057506000838152600f6020908152604091829020825160a081018452815481526001820154928101929092526002810154928201929092526003909101546001600160801b038082166060840152600160801b9091041660808201525b604081015115801590610eae575060608101516001600160801b0316155b15610ecc57604051632dcf9d3960e01b815260040160405180910390fd5b60008481526010602090815260408083203384529091528120546060830151909190610f029083906001600160801b0316613aaf565b60008781526010602090815260408083203384529091528120559050610f288183615c5c565b336000908152600d602052604081208054909190610f47908490615c6f565b9091555050604083015183519192508291610f63908390615c82565b610f6d9190615caf565b604051632b0b3a6f60e21b81529095506001600160a01b037f0000000000000000000000000000000000000000000000000000000000000000169063ac2ce9bc90610fe0907f00000000000000000000000000000000000000000000000000000000000000009033908a90600401615cd1565b600060405180830381600087803b158015610ffa57600080fd5b505af115801561100e573d6000803e3d6000fd5b5050505081836040018181516110249190615c5c565b905250825185908490611038908390615c5c565b9052506000868152600f60209081526040808320865181559186015160018301558501516002820155606085015160808601516001600160801b03908116600160801b02911617600390910155600e8054879290611097908490615c5c565b9091555050604080518381526020810187905233917f5a4beaa18eb50f2c5150783acec1964edb2e32cbf0f99957707375f76ffbd982910160405180910390a250505050919050565b6000828152602081905260409020600101546110fb81613add565b6111058383613ae7565b505050565b6001600160a01b038116331461117f5760405162461bcd60e51b815260206004820152602f60248201527f416363657373436f6e74726f6c3a2063616e206f6e6c792072656e6f756e636560448201526e103937b632b9903337b91039b2b63360891b60648201526084015b60405180910390fd5b6111898282613b6b565b5050565b604051632cbf04c160e01b81526000906001600160a01b037f00000000000000000000000000000000000000000000000000000000000000001690632cbf04c1906111fc907f000000000000000000000000000000000000000000000000000000000000000090600401615a8b565b6020604051808303816000875af115801561121b573d6000803e3d6000fd5b505050506040513d601f19601f8201168201806040525081019061123f9190615cf5565b905090565b600061124e613025565b905080602001516001600160401b031660001461126a57600080fd5b611275600033613ae7565b6001600160401b0342166020820152670de0b6b3a7640000604082015261129b81613bd0565b6112d16001600160a01b037f00000000000000000000000000000000000000000000000000000000000000001683600019613c5e565b60405163d9c70f5760e01b81526001600160a01b038381166004830152600160248301527f0000000000000000000000000000000000000000000000000000000000000000169063d9c70f5790604401600060405180830381600087803b15801561133b57600080fd5b505af115801561134f573d6000803e3d6000fd5b505050505050565b7f65d7a28e3265b37a6474929f336521b332c1681b933f6cb9f3376673440d862a61138181613add565b611389613da6565b506000600255565b611399613df2565b7ff96f3d6876b63665360200e15ed8964960110cbbd99e917fb50ad1e576f538ac6113c381613add565b670de0b6b3a76400008310806113e157508268056bc75e2d63100000105b156113ff576040516336bbc25960e01b815260040160405180910390fd5b600080526014602052600080516020615f4d833981519152548015801561142557508215155b806114425750821580159061144257508284118061144257508281115b8061145a575060008381526014602052604090205484105b15611478576040516346b0cc7160e11b815260040160405180910390fd5b611484601485856132d9565b600084815260136020526040808220805460ff191660011790555185917f3907a47dfbf148deb99efcd854a68497cbdc2a2db8488083ecb842ad6bde91a891a250505050565b60006114d4613df2565b6115096001600160a01b037f000000000000000000000000000000000000000000000000000000000000000016333085613e3a565b611533827f0000000000000000000000000000000000000000000000000000000000000000613e61565b6001600160a01b038416600090815260116020526040812080549293508392909190611560908490615c6f565b90915550909392505050565b60008080526014602052600080516020615f4d8339815191525490805b8381146115ac576000838152601460205260409020600101549250600101611589565b5050600081815260136020526040902054909260ff9091169150565b6000806000806115d6612396565b925060008060008060006115e9886133a6565b945094509450945094506000805b8b518110156116ee5760008c828151811061161457611614615d0e565b602002602001015190508160010191508060001480611636575060038b038110155b8061165a57506000818152600f60205260409020600301546001600160801b031615155b8061167457506000818152600f6020526040902060020154155b1561167f57506115f7565b60008181526010602090815260408083203384529091529020546116a38185615c6f565b60008381526010602090815260408083203384528252808320839055858352600f9091528120600201805492965083929091906116e1908490615c5c565b909155506115f792505050565b50828c6116fb8789615c5c565b6117059190615c82565b61170f9190615caf565b99506000848b11611720578a611722565b845b604051632b0b3a6f60e21b81529091506001600160a01b037f0000000000000000000000000000000000000000000000000000000000000000169063ac2ce9bc906117959030907f0000000000000000000000000000000000000000000000000000000000000000908690600401615cd1565b600060405180830381600087803b1580156117af57600080fd5b505af11580156117c3573d6000803e3d6000fd5b5050505080836020018181516117d99190615c6f565b905250506040820151156118125761180d82608001516001600160801b03166118028c8f613e61565b808218908211021890565b61181c565b61181c8a8d613e61565b6001600160801b031660808301526040820180518d919061183e908390615c6f565b9052506000898152600f6020908152604080832085518155828601516001820155818601516002820155606086015160808701516001600160801b03908116600160801b0291161760039091015560108252808320338452909152812080548e92906118ab908490615c6f565b9091555050336000908152600d60205260409020548c906118cd908390615c6f565b6118d79190615c5c565b336000818152600d60209081526040918290209390935580518f81529283018d905260018c01908301819052995060038b0198508a917fe5248481489259c5ccaad0795cac80cd527112765494ed5a8d98b93501b27f079060600160405180910390a350505050505092959194509250565b611951613df2565b7f7e2be3cffb06427cbcb9b1d12d4b78adcf14a2bf640e9bbdeb54bb711b65ec7161197b81613add565b82683232b13a233637b7b960b91b036119ae57600980546001600160801b0319166001600160801b038416179055611b6e565b826f6c69717569646174696f6e526174696f60801b036119f2576009805467ffffffffffffffff60801b1916600160801b6001600160401b03851602179055611b6e565b8275676c6f62616c4c69717569646174696f6e526174696f60501b03611a3757600980546001600160c01b0316600160c01b6001600160401b03851602179055611b6e565b826e3634b6b4ba27b93232b9233637b7b960891b03611a5a576017829055611b6e565b8267626173655261746560c01b03611a8b57611a866000198314611a7e5782613eb0565b600019613eb0565b611b6e565b82716c69717569646174696f6e50656e616c747960701b03611ac8576018805467ffffffffffffffff19166001600160401b038416179055611b6e565b82721b1a5c5d5a59185d1a5bdb911a5cd8dbdd5b9d606a1b03611b0f576018805467ffffffffffffffff60401b1916600160401b6001600160401b03851602179055611b6e565b82713a30b933b2ba2432b0b63a342330b1ba37b960711b03611b55576018805467ffffffffffffffff60801b1916600160801b6001600160401b03851602179055611b6e565b604051638dd691e760e01b815260040160405180910390fd5b827f4327e67d6578eb2c9293fb22f9334006073ac1397c7100f5dd5adca09ad71c0883604051611ba091815260200190565b60405180910390a2505050565b600080600080611bbb613025565b600a54909150611bcb8282613f58565b9450611be0828683600080600080600061406b565b506080810151935091506001600160a01b03861615611c3457611c28611c0587612ad7565b6001600160a01b038816600090815260126020526040902060010154879061420a565b6001600160801b031693505b50509193909250565b6001600160a01b0383163314801590611c7a57506001600160a01b038316600090815260046020908152604080832033845290915290205460ff16155b15611c9857604051638743d2ff60e01b815260040160405180910390fd5b6001600160a01b0383811660009081526003602090815260408083209386168352929052819020805460ff1916831515179055517fdcf2bd5a4c47afeb1792d170f6f5e6e528e30c6b546fffe62b697a11f8953b2b90611cff903390869086908690615d24565b60405180910390a1505050565b7f65d7a28e3265b37a6474929f336521b332c1681b933f6cb9f3376673440d862a611d3681613add565b611d3e614245565b50565b6000803315611d4f57600080fd5b611d598484614253565b915091509250929050565b6001600160a01b03841660009081526012602090815260408083208151808301909252805482526001015491810191909152829190819081841215611dc157611dba848260000151611db590615d4e565b6144d9565b9350611de8565b6001600160a01b038716600090815260116020526040902054611de59085906144f0565b93505b6000611e19611dfb836000015187614501565b611e14611e06614546565b670c7d713b49da0000613aaf565b613aaf565b9050600080611e278b611bad565b50915091506000611e3d8560200151848461456b565b90506000611ff7611fe27f00000000000000000000000000000000000000000000000000000000000000006001600160a01b0316631c3536e7306040518263ffffffff1660e01b8152600401611e939190615a8b565b602060405180830381865afa158015611eb0573d6000803e3d6000fd5b505050506040513d601f19601f82011682018060405250810190611ed49190615cf5565b7f00000000000000000000000000000000000000000000000000000000000000006001600160a01b0316638543d5e06040518163ffffffff1660e01b8152600401602060405180830381865afa158015611f32573d6000803e3d6000fd5b505050506040513d601f19601f82011682018060405250810190611f569190615cf5565b7f00000000000000000000000000000000000000000000000000000000000000006001600160a01b0316632efcc8666040518163ffffffff1660e01b8152600401602060405180830381865afa158015611fb4573d6000803e3d6000fd5b505050506040513d601f19601f82011682018060405250810190611fd89190615cf5565b6118029190615c5c565b611fec8488615d6a565b808218908213021890565b905060008082126120085781612011565b61201182615d4e565b905061201e81868661458b565b985060008212156120355761203289615d4e565b98505b5060008061205f60008b1261204b576000612054565b6120548b615d4e565b8960200151876145c7565b509050806001600160801b031661207f876001600160401b03168c614612565b6120899190615d8a565b91505060007f00000000000000000000000000000000000000000000000000000000000000006001600160a01b0316631c3536e78e6040518263ffffffff1660e01b81526004016120da9190615a8b565b602060405180830381865afa1580156120f7573d6000803e3d6000fd5b505050506040513d601f19601f8201168201806040525081019061211b9190615cf5565b90506000821380612133575061213082615d4e565b81135b612150578061214183615d4e565b61214b9190615d6a565b612153565b60005b985060008a89602001516121679190615d8a565b905060008113801561218657506009546001600160801b0316600f0b81125b156121985760009a5060009b50600099505b5050505050505050509450945094915050565b6000918252602082815260408084206001600160a01b0393909316845291905290205460ff1690565b6000670de0b6b3a76400008210156121ff57604051636396b11f60e01b815260040160405180910390fd5b600080600061221461220f612396565b6133a6565b5093505092509250806000148061223257506122308284615c5c565b155b612259576122408284615c5c565b61224a8683615c82565b6122549190615caf565b61225b565b845b336000908152600d60205260409020805482019055935061227c8482615c6f565b600c55604051632b0b3a6f60e21b81526001600160a01b037f0000000000000000000000000000000000000000000000000000000000000000169063ac2ce9bc906122cf90339030908a90600401615cd1565b600060405180830381600087803b1580156122e957600080fd5b505af11580156122fd573d6000803e3d6000fd5b505060408051888152602081018890523393507f12352042ba8d46dbbba12767322c1c3bb5ed774314b10c283f945bf69e83f15792500160405180910390a2505050919050565b61234c613df2565b6000806123596000611bad565b600954929450925061238991600160c01b90046001600160401b0316905061237f61118d565b600a54858561463c565b1561118957611189614245565b60006203f4808042064203816123ae576123ae615c99565b04905090565b60008113806123c35750600082125b80156123d657506123d4853361284b565b155b806123f357506000821380156123f357506123f1843361284b565b155b806124105750600081128015612410575061240e833361284b565b155b1561242e57604051634c26249960e01b815260040160405180910390fd5b6001600160a01b038516600090815260126020908152604080832081518083018352815481526001909101548184015281516060810183526009546001600160801b03811682526001600160401b03600160801b8204811695830195909552600160c01b900490931691830191909152600a5490926124ab61118d565b905060008060006124ca8c8860200151878b888b60400151600061320e565b9250925092506124de8c88848c8c8a61474c565b965060008813806124ef5750600089125b801561253257506125306125198860200151846000015185604001516001600160801b031661456b565b8851602089015187906001600160401b0316614853565b155b1561255057604051633f66923d60e01b815260040160405180910390fd5b6001600160a01b038b16600090815260116020526040902054612573908a614876565b6001600160a01b038c166000908152601160205260409020556125968589614501565b945084600a819055506000816001600160801b03166125c285604001516001600160401b03168b614612565b6125cc9190615d8a565b9050600081131561265e57604051632b0b3a6f60e21b81526001600160a01b037f0000000000000000000000000000000000000000000000000000000000000000169063ac2ce9bc906126279030908f908690600401615cd1565b600060405180830381600087803b15801561264157600080fd5b505af1158015612655573d6000803e3d6000fd5b505050506126f2565b60008112156126f2576001600160a01b037f00000000000000000000000000000000000000000000000000000000000000001663ac2ce9bc8c306126a185615d4e565b6040518463ffffffff1660e01b81526004016126bf93929190615cd1565b600060405180830381600087803b1580156126d957600080fd5b505af11580156126ed573d6000803e3d6000fd5b505050505b600089131561275a57600061270785886148bb565b90506001600160401b037f000000000000000000000000000000000000000000000000000000000000000060401c1680821115612757576040516329b823dd60e21b815260040160405180910390fd5b50505b8a6001600160a01b03168c6001600160a01b03168e6001600160a01b03167f7ce3e27b99e7e2e42f0ddcb6f6679a25081a5fd4ca991bcd05c45e54daa997088d8d6040516127b2929190918252602082015260400190565b60405180910390a450505050505050505050505050565b6000670de0b6b3a76400008210156127e357506000919050565b7f00000000000000000000000000000000000000000000000000000000000000006001600160801b0381169060801c61284361283e670de0b6b3a764000061282f85611e14838a615c5c565b6128399085615c6f565b613e61565b614990565b949350505050565b6000816001600160a01b0316836001600160a01b0316148061289257506001600160a01b0380841660009081526003602090815260408083209386168352929052205460ff165b9392505050565b600b80546000909155604051632b0b3a6f60e21b81526001600160a01b037f0000000000000000000000000000000000000000000000000000000000000000169063ac2ce9bc906129129030907f0000000000000000000000000000000000000000000000000000000000000000908690600401615cd1565b600060405180830381600087803b15801561292c57600080fd5b505af1158015612940573d6000803e3d6000fd5b5050505090565b6000806129548484614253565b909250905081156129e257604051632b0b3a6f60e21b81526001600160a01b037f0000000000000000000000000000000000000000000000000000000000000000169063ac2ce9bc906129af90339030908790600401615cd1565b600060405180830381600087803b1580156129c957600080fd5b505af11580156129dd573d6000803e3d6000fd5b505050505b8015612a0d573360009081526011602052604081208054839290612a07908490615c6f565b90915550505b604080518381526020810183905233917f26981b9aefbb0f732b0264bd34c255e831001eb50b06bc85b32cc39e14389721910160405180910390a29250929050565b600082815260208190526040902060010154612a6a81613add565b6111058383613b6b565b3360008181526003602090815260408083206001600160a01b038716845290915290819020805460ff1916841515179055517fdcf2bd5a4c47afeb1792d170f6f5e6e528e30c6b546fffe62b697a11f8953b2b91610c2d91819086908690615d24565b612adf615786565b6001600160a01b038216600090815260086020908152604091829020825160608101845290546001600160401b038082168352600160401b82041692820192909252600160801b9091046001600160801b031691810191909152610af3906149ba565b612b4a613df2565b80518214612b6b576040516338f30c4b60e11b815260040160405180910390fd5b6000612b75613025565b60408051606080820183526009546001600160801b03811683526001600160401b03600160801b8083048216602080870191909152600160c01b909304821685870152855193840186526018548083168552600160401b810483169385019390935290910416928101929092529192506000612bef61118d565b9050612bf96157a6565b848152600a5460208201526009546001600160801b031660a0820152601854612c33908390600160401b90046001600160401b0316613aaf565b60c08201526018546001600160401b031660e08201526020810151600090612c5c908790613f58565b905060005b88811015612e7a5760008a8a83818110612c7d57612c7d615d0e565b9050602002016020810190612c92919061595b565b90506001600160a01b0381161580612cc35750888281518110612cb757612cb7615d0e565b60200260200101516000145b612e71576001600160a01b0381166000908152601260209081526040808320815180830190925280548252600101549181018290529190612d06908490876149f1565b90506000612d2683602001518784604001516001600160801b031661456b565b9050871580612d4d5750612d4d8184600001518a8d602001516001600160401b0316614853565b15612d6b5760405163f87e38e960e01b815260040160405180910390fd5b6000806000612d94612d8187600001518d613aaf565b8e602001516001600160401b0316613e61565b905080612dae8d604001516001600160401b031686613aaf565b612db89190615c5c565b9150506000612de18d602001516001600160401b03168d602001516001600160401b0316613aaf565b90506000612df7670de0b6b3a764000083613e61565b612e128e604001516001600160401b03168d60e00151613aaf565b612e1c9190615c5c565b9050612e288382613e61565b9350505050612e588d8781518110612e4257612e42615d0e565b6020026020010151611802838b60e00151613e61565b610100890152612e6a88858588614a30565b9750505050505b50600101612c61565b50612ec28260000151612ea384606001518560e00151670de0b6b3a7640000611e149190615c5c565b8460800151612eb29190615c6f565b8460200151868960400151614c6a565b506020820151600a556060820151604051632b0b3a6f60e21b81526001600160a01b037f0000000000000000000000000000000000000000000000000000000000000000169163ac2ce9bc91612f1f913391309190600401615cd1565b600060405180830381600087803b158015612f3957600080fd5b505af1158015612f4d573d6000803e3d6000fd5b505050604080840151336000908152601160205291822080549193509190612f76908490615c6f565b90915550506101208201511561301a57610120820151604051630bd0dedd60e21b815260048101919091527f00000000000000000000000000000000000000000000000000000000000000006001600160a01b031690632f437b74906024016020604051808303816000875af1158015612ff4573d6000803e3d6000fd5b505050506040513d601f19601f820116820180604052508101906130189190615cf5565b505b505050505050505050565b61302d6157ff565b506040805160a081018252600554600781810b83526001600160401b03600160401b830481166020850152600160801b9092049091169282019290925260065460608201529054608082015290565b613084613df2565b7ff96f3d6876b63665360200e15ed8964960110cbbd99e917fb50ad1e576f538ac6130ae81613add565b6000828152601360205260409020805460ff191690556130cf60148361318d565b60405182907f343776161924dfe02a29fdf57e6087e2d25ca11fe703785a80632e9ab88c88a190600090a25050565b6000613108613df2565b3360009081526011602052604081208054849290613127908490615c5c565b909155506131579050827f0000000000000000000000000000000000000000000000000000000000000000613aaf565b9050610af36001600160a01b037f0000000000000000000000000000000000000000000000000000000000000000168483614c9d565b6000818152602083815260409182902082518084019093528054835260010154908201526131bb8383614ccd565b6131d85760405163564e265760e11b815260040160405180910390fd5b60208082018051835160009081529590925260408086206001908101939093559251905185528285205591835282208281550155565b6132166157ff565b61321e615786565b6000613228613025565b92506132338a612ad7565b91506000613241848a613f58565b905061324e83828c61420a565b6001600160801b031660408401526001600160401b0316825261328d60008812613279576000613282565b61328288615d4e565b8a84604001516145c7565b6001600160801b03166040840152905060006132af8b85858c8e8d888c614d3b565b90945090506132ca84826132c38c8c614501565b8a8a614c6a565b50509750975097945050505050565b6132e38383614ccd565b1561330157604051631e2bbc4f60e11b815260040160405180910390fd5b801580159061331757506133158382614ccd565b155b156133355760405163564e265760e11b815260040160405180910390fd5b6000818152602084905260409020805490839055811580156133665750600082815260208590526040902060010154155b156133805760008281526020859052604090206001018390555b600081815260209490945260408085206001908101859055938552909320928355910155565b6000806000806133b461582d565b60006133be612396565b60408051600480825260a08201909252919250600091829160609190816020015b6133e761582d565b8152602001906001900390816133df5790505090506000805b6003811161354d57600219818701016000818152600f6020908152604091829020825160a081018452815481526001820154928101929092526002810154928201929092526003909101546001600160801b038082166060840152600160801b9091041660808201528451819086908590811061347f5761347f615d0e565b602002602001018190525080604001516000141580156134aa575060608101516001600160801b0316155b80156134c05750876134bd600184615c6f565b11155b1561350b5786156134e75760808101516001600160801b03168085119085180284186134f6565b80608001516001600160801b03165b93508060400151876135089190615c6f565b96505b60608101516001909301926001600160801b031615801561352f5750604081015115155b156135465760208101516135439087615c6f565b95505b5050613400565b50600e54604051632f2e037160e11b81526000906001600160a01b037f00000000000000000000000000000000000000000000000000000000000000001690635e5c06e2906135c0907f000000000000000000000000000000000000000000000000000000000000000090600401615a8b565b6040805180830381865afa1580156135dc573d6000803e3d6000fd5b505050506040513d601f19601f820116820180604052508101906136009190615db2565b5090506000828661361084614dc9565b61361a9190615c5c565b6136249190615c5c565b905080156136cf57604051632b0b3a6f60e21b81526001600160a01b037f0000000000000000000000000000000000000000000000000000000000000000169063ac2ce9bc9061369c907f00000000000000000000000000000000000000000000000000000000000000009030908690600401615cd1565b600060405180830381600087803b1580156136b657600080fd5b505af11580156136ca573d6000803e3d6000fd5b505050505b5050600080600c5499506136e286614de0565b929f50909d50909b505089156137175789878d8f6137009190615c5c565b61370a9190615c82565b6137149190615caf565b90505b801561375d5761372b81611802868a613aaf565b90506000613739878d615c6f565b905061374d81808410848218028418613e61565b92506137598284613aaf565b9150505b6000805b600381116138f95760008160038c03019050600088838151811061378757613787615d0e565b6020026020010151905080604001516000141580156137b1575060608101516001600160801b0316155b80156137c757508b6137c4600184615c6f565b11155b156138ef576040518060a001604052808c8360400151886137e89190615c82565b6137f29190615caf565b81526020018260200151815260200161380f836040015189613aaf565b81526001600160801b0388166020820152600060409091015280519091506138379088615c6f565b965080604001518e6138499190615c5c565b9d506138588160200151614f5a565b815161386390614f5a565b61386d9190615d6a565b6138779085615d8a565b935060008160200181815250508089848151811061389757613897615d0e565b6020908102919091018101919091526000838152600f8252604090819020835181559183015160018301558201516002820155606082015160808301516001600160801b03908116600160801b029116176003909101555b5050600101613761565b50600e849055600c8b905560008113156139b057604051632b0b3a6f60e21b81526001600160a01b037f0000000000000000000000000000000000000000000000000000000000000000169063ac2ce9bc9061397d9030907f0000000000000000000000000000000000000000000000000000000000000000908690600401615cd1565b600060405180830381600087803b15801561399757600080fd5b505af11580156139ab573d6000803e3d6000fd5b505050505b6000811215613a64576001600160a01b037f00000000000000000000000000000000000000000000000000000000000000001663ac2ce9bc7f000000000000000000000000000000000000000000000000000000000000000030613a1385615d4e565b6040518463ffffffff1660e01b8152600401613a3193929190615cd1565b600060405180830381600087803b158015613a4b57600080fd5b505af1158015613a5f573d6000803e3d6000fd5b505050505b60008f8a613a729190615c5c565b905080600310613a9c57868160030381518110613a9157613a91615d0e565b60200260200101519a505b5050505050505050505091939590929450565b600081600019048311820215613acd5763c4c5d7f56000526004601cfd5b50670de0b6b3a764000091020490565b611d3e8133614f80565b613af182826121ab565b611189576000828152602081815260408083206001600160a01b03851684529091529020805460ff19166001179055613b273390565b6001600160a01b0316816001600160a01b0316837f2f8788117e7eff1d82e926ec794901d17c78024a50270940304540a733656f0d60405160405180910390a45050565b613b7582826121ab565b15611189576000828152602081815260408083206001600160a01b0385168085529252808320805460ff1916905551339285917ff6391f5c32d9c69d2a47ea670b442974b53935d1edc7fd64eb21e047a839171b9190a45050565b80516005805460208401516040808601516001600160401b03908116600160801b0267ffffffffffffffff60801b19938216600160401b026001600160801b03199095169190961617929092171692909217905560608201516006556080820151600755517f9334cbdde649ebcbf798eaa08c381dc574197dc53947470a9be908dbcccc330190600090a150565b801580613cd85750604051636eb1769f60e11b81523060048201526001600160a01b03838116602483015284169063dd62ed3e90604401602060405180830381865afa158015613cb2573d6000803e3d6000fd5b505050506040513d601f19601f82011682018060405250810190613cd69190615cf5565b155b613d435760405162461bcd60e51b815260206004820152603660248201527f5361666545524332303a20617070726f76652066726f6d206e6f6e2d7a65726f60448201527520746f206e6f6e2d7a65726f20616c6c6f77616e636560501b6064820152608401611176565b6040516001600160a01b03831660248201526044810182905261110590849063095ea7b360e01b906064015b60408051601f198184030181529190526020810180516001600160e01b03166001600160e01b031990931692909217909152614fd9565b613dae6150ae565b6001805460ff191690557f5db9ee0a495bf2e6ff9c91a7834c1ba4fdd244a5e8aa4e537bd38aeae4b073aa335b604051613de89190615a8b565b60405180910390a1565b60015460ff1615613e385760405162461bcd60e51b815260206004820152601060248201526f14185d5cd8589b194e881c185d5cd95960821b6044820152606401611176565b565b613e5b846323b872dd60e01b858585604051602401613d6f93929190615cd1565b50505050565b60007812725dd1d243aba0e75fe645cc4873f9e65afe688c928e1f218311670de0b6b3a764000002158202613e9e5763bcbede656000526004601cfd5b50670de0b6b3a7640000919091020490565b60008160070b138015613ece5750670de0b6b3a7640000600782900b125b80613ee45750670de0b6b8c1e505ce600782900b135b15613f025760405163947800ab60e01b815260040160405180910390fd5b6005805467ffffffffffffffff19166001600160401b038316179055604051600782900b81527fcb1621676ff5c8c9deff7ffc0af9b2c296851bc5b191381ac07d97e82ec03fe69060200160405180910390a150565b6000806000846000015160070b121561405d576001600160401b037f000000000000000000000000000000000000000000000000000000000000000081811691604082901c1690670de0b6b3a764000064ffffffffff608083901c811682019260a881901c821683019260d09190911c909116016000613fd88a8a6148bb565b905084811115613fe55750835b85811161401957614008614002613ffc8685615c5c565b88613e61565b82613aaf565b6140129085615c6f565b9650614052565b61404561403b6140298486615c5c565b61283989670de0b6b3a7640000615c5c565b611e148884615c5c565b61404f9083615c6f565b96505b505050505050614061565b5082515b61284384826150f7565b6140736157ff565b6000806140808988614501565b60608c0151909150871515806140a85750856001600160401b0316876001600160401b031614155b156140f3576140c4866001600160401b0316611e148b8b614501565b6140d7886001600160401b03168b613aaf565b8d606001516140e69190615c5c565b6140f09190615c6f565b90505b60008a156141385761413361412d61410f8f606001518e613e61565b8f604001518f61411f9190615dd6565b6001600160401b0316613aaf565b84613aaf565b61413b565b60005b90506000866001600160801b0316828f608001516141599190615c6f565b6141639190615c5c565b90506040518060a001604052808f6000015160070b8152602001426001600160401b031681526020018e6001600160401b031681526020018481526020018281525095505050896000146141f6576141f16141eb6141c58e606001518d613e61565b6141d790670de0b6b3a7640000615c5c565b8e60400151876040015161411f9190615dd6565b8b613aaf565b6141f9565b60005b925050509850989650505050505050565b600061423661423085602001516001600160401b031686600001518661411f9190615dd6565b83613aaf565b84604001516128439190615df6565b61424d615135565b42600255565b6000806000614260613025565b604080516060810182526009546001600160801b03811682526001600160401b03600160801b820481166020840152600160c01b909104169181019190915290915060006142ac61118d565b90506142b66157a6565b838152600a546020820181905283516001600160801b031660a0830152670de0b6b3a764000060e08301526000906142ef908690613f58565b600080516020615f4d833981519152546000818152601560209081526040808320838052909152902054919250905b89846060015110156144735781158061433657508a82115b6144735760008281526013602052604090205460ff161580614356575080155b1561438a5750600090815260146020908152604080832060010154808452601583528184208480529092529091205461431e565b60008281526015602090815260408083208484529091529020548181036143b15750614473565b6001600160a01b038216600090815260126020908152604080832081518083019092528054825260010154918101829052849290916143f2908490896149f1565b90506143fe8987613aaf565b60c08901526060880151614412908f615c5c565b6101008901526020820151815160408301516144539261443c9290916001600160801b031661456b565b835160208d01518c906001600160401b0316614853565b156144675761446488838386614a30565b97505b8394505050505061431e565b614490846000015185608001518660200151888a60400151614c6a565b506020840151600a5560608401518a146144bd57604051633e6c5e0f60e01b815260040160405180910390fd5b8360600151846040015198509850505050505050509250929050565b6000818313156144ea575081610af3565b50919050565b6000818312156144ea575081610af3565b81810160008213801561451357508281105b80614528575060008212801561452857508281115b15610af3576040516354012a2960e11b815260040160405180910390fd5b600061123f61455361118d565b600954600160801b90046001600160401b0316613e61565b60008161458185856001600160401b0316613aaf565b6128439190615c5c565b60006145a961459a8386615c6f565b846001600160401b0316613e61565b9050836145b782858561456b565b1015612892576001019392505050565b60008184158015906145d857508315155b1561460a57836145f16001600160801b03851687615c82565b6145fb9190615caf565b91506146078282615e16565b90505b935093915050565b6000670de0b6b3a76400006146278484615170565b8161463457614634615c99565b059392505050565b60008061464a85858561456b565b9050801580159061472e5750866001600160401b031661472c7f0000000000000000000000000000000000000000000000000000000000000000887f00000000000000000000000000000000000000000000000000000000000000006001600160a01b03166370a08231306040518263ffffffff1660e01b81526004016146d19190615a8b565b602060405180830381865afa1580156146ee573d6000803e3d6000fd5b505050506040513d601f19601f820116820180604052508101906147129190615cf5565b61471c9190615c82565b6147269190615caf565b83613e61565b105b1561473d576001915050614743565b60009150505b95945050505050565b6040805180820190915260008082526020820152855161476c9085614501565b8652602086015161477d9084614501565b60208701819052158015906147b657506009546020870151865160408801516001600160801b03938416936147b49392911661456b565b105b156147d457604051634b2c23a160e11b815260040160405180910390fd5b6001600160a01b038716600081815260126020908152604090912088518155908801516001909101557f71671d6112ff9270f1553ebc8fbf767a3221090f1002c7047475b6fa8f5801cd858561482a8682614501565b6040805193845260208401929092529082015260600160405180910390a2509395945050505050565b600084826148618587615c82565b61486b9190615caf565b101595945050505050565b80820360008213801561488857508281115b8061489d575060008212801561489d57508281105b15610af35760405163e942b9ed60e01b815260040160405180910390fd5b6000806148d1838560400151866080015161456b565b905080156149865761498181600b547f00000000000000000000000000000000000000000000000000000000000000006001600160a01b0316631c3536e7306040518263ffffffff1660e01b815260040161492c9190615a8b565b602060405180830381865afa158015614949573d6000803e3d6000fd5b505050506040513d601f19601f8201168201806040525081019061496d9190615cf5565b6149779085615c6f565b6128399190615c5c565b612843565b6000949350505050565b6000600160401b82106149b6576040516302217c1560e11b815260040160405180910390fd5b5090565b6149c2615786565b81516001600160401b03166000036149b657600060208301819052670de0b6b3a7640000835260408301525090565b6149f9615786565b614a0284612ad7565b9050614a0f81838561420a565b6001600160801b031660408201526001600160401b03909116815292915050565b614a386157a6565b6000806000806000614a60896020015189600001518a604001516001600160801b031661456b565b90506000614a778b61010001518c60e00151613aaf565b9050614add8183118015614a97575060a08c0151614a958385615c5c565b105b614aae57614aa9838d60e00151613e61565b614acb565b614acb8c60a0015184614ac19190615c5c565b8d60e00151613e61565b6118028c600001518e60c001516151b9565b6101008c0151909150818111818318021895506000614b00878d60e00151613aaf565b9050614b1181848c604001516145c7565b6001600160801b0390811660408d01528b51919550614b33918391871661458b565b9450614b43878d60c00151613e61565b8b51909650861115614b54578a5195505b8a5186148015614b675750848b60200151115b15614b9357614b768184615c5c565b8c61012001818151614b889190615c6f565b90525060208b015194505b5050506000896020015190506000614bcb888c600001518b858e60200151614bba8a614f5a565b614bc390615d4e565b896000614d3b565b908c529050614c00888b8b614bdf89614f5a565b614be890615d4e565b614bf189614f5a565b614bfa90615d4e565b8761474c565b50838b602001818151614c139190615c5c565b90525060408b018051869190614c2a908390615c6f565b90525060608b018051879190614c41908390615c6f565b90525060808b018051829190614c58908390615c6f565b905250999a9950505050505050505050565b6000614c8182848689604001518a608001516151ef565b614c8a86613bd0565b614c9385615221565b9695505050505050565b6040516001600160a01b03831660248201526044810182905261110590849063a9059cbb60e01b90606401613d6f565b600081600003614cf05760405163ee7efd5760e01b815260040160405180910390fd5b600082815260208490526040902054151580614d1c575060008281526020849052604090206001015415155b8061289257505060008080526020929092526040909120600101541490565b614d436157ff565b60208781015160008b815260169092526040822054614d87908c90614d688a8a614501565b6001600160401b03881615614d7d5787615274565b8c60200151615274565b6001600160401b031660208a0152614d9f8b8a6152ba565b614db78a8a600001518a8a8a868f602001518c61406b565b909c909b509950505050505050505050565b6000808212614dd85781610af3565b600092915050565b6000806000806000807f00000000000000000000000000000000000000000000000000000000000000006001600160a01b0316635e5c06e2306040518263ffffffff1660e01b8152600401614e359190615a8b565b6040805180830381865afa158015614e51573d6000803e3d6000fd5b505050506040513d601f19601f82011682018060405250810190614e759190615db2565b91509150614e8282614dc9565b9350614e8e8282615354565b92506000614e9a613025565b600a549091506000614ebe83614eb08185613f58565b84600080600080600061406b565b90935090506000614eeb848385614ed361118d565b600954600160c01b90046001600160401b0316614c6a565b9050614f00838560400151866080015161456b565b614f0a8c8a615c6f565b614f149190615c6f565b995080614f208761537c565b614f2a9190615c6f565b9850888a1015614f4d5760405163702fbbed60e01b815260040160405180910390fd5b5050505050509193509193565b6000600160ff1b82106149b657604051632db27c5360e01b815260040160405180910390fd5b614f8a82826121ab565b61118957614f9781615393565b614fa28360206153a5565b604051602001614fb3929190615e5a565b60408051601f198184030181529082905262461bcd60e51b825261117691600401615ec9565b600061502e826040518060400160405280602081526020017f5361666545524332303a206c6f772d6c6576656c2063616c6c206661696c6564815250856001600160a01b03166155409092919063ffffffff16565b905080516000148061504f57508080602001905181019061504f9190615efc565b6111055760405162461bcd60e51b815260206004820152602a60248201527f5361666545524332303a204552433230206f7065726174696f6e20646964206e6044820152691bdd081cdd58d8d9595960b21b6064820152608401611176565b60015460ff16613e385760405162461bcd60e51b815260206004820152601460248201527314185d5cd8589b194e881b9bdd081c185d5cd95960621b6044820152606401611176565b600061289283604001516001600160401b0316611e14846001600160401b031686602001516001600160401b03164203670de0b6b3a764000061554f565b61513d613df2565b6001805460ff1916811790557f62e78cea01bee320cd4e420270b5ea74000d11b0c9f74754ebdbfc544b05a25833613ddb565b818102600083128061519b5750811580159061519b57508282828161519757615197615c99565b0514155b15610af357604051631eed389360e01b815260040160405180910390fd5b6000816000190483118202156151d75763c4c5d7f56000526004601cfd5b50670de0b6b3a7640000910281810615159190040190565b6151fc858585858561463c565b1561521a57604051632ce9f52360e01b815260040160405180910390fd5b5050505050565b600061522b613df2565b615255827f0000000000000000000000000000000000000000000000000000000000000000613aaf565b600b60008282546152669190615c6f565b92505081905590505b919050565b808315801590615285575082601754115b156128435760008481526015602052604090206152a2908661318d565b50505060009182525060166020526040812081905590565b6001600160a01b0382166000908152600860209081526040918290208351815492850151848601516001600160801b03908116600160801b026001600160401b03928316600160401b026001600160801b031990961692909316919091179390931792909216919091179055517f4fd60289e0d86501846be34d5f370dc28945d66ca81804a5f84e0e7c017c73a290610c2d908490615a8b565b60008061536083615d4e565b9050808412614986576153738482615d6a565b61498190615d4e565b6000808213614dd85761538e82615d4e565b610af3565b6060610af36001600160a01b03831660145b606060006153b4836002615c82565b6153bf906002615c6f565b6001600160401b038111156153d6576153d66159a0565b6040519080825280601f01601f191660200182016040528015615400576020820181803683370190505b509050600360fc1b8160008151811061541b5761541b615d0e565b60200101906001600160f81b031916908160001a905350600f60fb1b8160018151811061544a5761544a615d0e565b60200101906001600160f81b031916908160001a905350600061546e846002615c82565b615479906001615c6f565b90505b60018111156154f1576f181899199a1a9b1b9c1cb0b131b232b360811b85600f16601081106154ad576154ad615d0e565b1a60f81b8282815181106154c3576154c3615d0e565b60200101906001600160f81b031916908160001a90535060049490941c936154ea81615f19565b905061547c565b5083156128925760405162461bcd60e51b815260206004820181905260248201527f537472696e67733a20686578206c656e67746820696e73756666696369656e746044820152606401611176565b6060612843848460008561560d565b6000828015615601578480156155f65760018516801561557157869350615575565b8493505b50600284046002860495505b85156155f0578687028760801c1561559857600080fd5b818101818110156155a857600080fd5b86900497505060018616156155e55786840284888204141588151516156155ce57600080fd5b818101818110156155de57600080fd5b8690049450505b600286049550615581565b506155fb565b600092505b50615605565b8291505b509392505050565b60608247101561566e5760405162461bcd60e51b815260206004820152602660248201527f416464726573733a20696e73756666696369656e742062616c616e636520666f6044820152651c8818d85b1b60d21b6064820152608401611176565b600080866001600160a01b0316858760405161568a9190615f30565b60006040518083038185875af1925050503d80600081146156c7576040519150601f19603f3d011682016040523d82523d6000602084013e6156cc565b606091505b50915091506156dd878383876156e8565b979650505050505050565b60608315615757578251600003615750576001600160a01b0385163b6157505760405162461bcd60e51b815260206004820152601d60248201527f416464726573733a2063616c6c20746f206e6f6e2d636f6e74726163740000006044820152606401611176565b5081612843565b612843838381511561576c5781518083602001fd5b8060405162461bcd60e51b81526004016111769190615ec9565b604080516060810182526000808252602082018190529181019190915290565b6040518061014001604052806157ba6157ff565b81526020016000815260200160008152602001600081526020016000815260200160008152602001600081526020016000815260200160008152602001600081525090565b6040805160a08101825260008082526020820181905291810182905260608101829052608081019190915290565b6040518060a0016040528060008152602001600081526020016000815260200160006001600160801b0316815260200160006001600160801b031681525090565b60006020828403121561588057600080fd5b81356001600160e01b03198116811461289257600080fd5b80356001600160a01b038116811461526f57600080fd5b600080604083850312156158c257600080fd5b823591506158d260208401615898565b90509250929050565b6000602082840312156158ed57600080fd5b5035919050565b8015158114611d3e57600080fd5b6000806040838503121561591557600080fd5b61591e83615898565b9150602083013561592e816158f4565b809150509250929050565b6000806040838503121561594c57600080fd5b50508035926020909101359150565b60006020828403121561596d57600080fd5b61289282615898565b6000806040838503121561598957600080fd5b61599283615898565b946020939093013593505050565b634e487b7160e01b600052604160045260246000fd5b600082601f8301126159c757600080fd5b813560206001600160401b03808311156159e3576159e36159a0565b8260051b604051601f19603f83011681018181108482111715615a0857615a086159a0565b604052938452858101830193838101925087851115615a2657600080fd5b83870191505b848210156156dd57813583529183019190830190615a2c565b60008060408385031215615a5857600080fd5b8235915060208301356001600160401b03811115615a7557600080fd5b615a81858286016159b6565b9150509250929050565b6001600160a01b0391909116815260200190565b600080600060608486031215615ab457600080fd5b615abd84615898565b9250615acb60208501615898565b91506040840135615adb816158f4565b809150509250925092565b60008060008060808587031215615afc57600080fd5b615b0585615898565b9350615b1360208601615898565b9250615b2160408601615898565b9396929550929360600135925050565b600080600080600060a08688031215615b4957600080fd5b615b5286615898565b9450615b6060208701615898565b9350615b6e60408701615898565b94979396509394606081013594506080013592915050565b60008060408385031215615b9957600080fd5b615ba283615898565b91506158d260208401615898565b600080600060408486031215615bc557600080fd5b83356001600160401b0380821115615bdc57600080fd5b818601915086601f830112615bf057600080fd5b813581811115615bff57600080fd5b8760208260051b8501011115615c1457600080fd5b602092830195509350908501359080821115615c2f57600080fd5b50615c3c868287016159b6565b9150509250925092565b634e487b7160e01b600052601160045260246000fd5b81810381811115610af357610af3615c46565b80820180821115610af357610af3615c46565b8082028115828204841417610af357610af3615c46565b634e487b7160e01b600052601260045260246000fd5b600082615ccc57634e487b7160e01b600052601260045260246000fd5b500490565b6001600160a01b039384168152919092166020820152604081019190915260600190565b600060208284031215615d0757600080fd5b5051919050565b634e487b7160e01b600052603260045260246000fd5b6001600160a01b039485168152928416602084015292166040820152901515606082015260800190565b6000600160ff1b8201615d6357615d63615c46565b5060000390565b8181036000831280158383131683831282161715610db957610db9615c46565b8082018281126000831280158216821582161715615daa57615daa615c46565b505092915050565b60008060408385031215615dc557600080fd5b505080516020909101519092909150565b6001600160401b03828116828216039080821115610db957610db9615c46565b6001600160801b03818116838216019080821115610db957610db9615c46565b6001600160801b03828116828216039080821115610db957610db9615c46565b60005b83811015615e51578181015183820152602001615e39565b50506000910152565b76020b1b1b2b9b9a1b7b73a3937b61d1030b1b1b7bab73a1604d1b815260008351615e8c816017850160208801615e36565b7001034b99036b4b9b9b4b733903937b6329607d1b6017918401918201528351615ebd816028840160208801615e36565b01602801949350505050565b6020815260008251806020840152615ee8816040850160208701615e36565b601f01601f19169190910160400192915050565b600060208284031215615f0e57600080fd5b8151612892816158f4565b600081615f2857615f28615c46565b506000190190565b60008251615f42818460208701615e36565b919091019291505056fe4f26c3876aa9f4b92579780beea1161a61f87ebf1ec6ee865b299e447ecba99da2646970667358221220eba494db9abb0c19fcf1cd5788a4855796b9904b88b1230d1f0cb66f768710be64736f6c63430008130033",
    "linkReferences": {}
  },
  "methodIdentifiers": {
    "DEFAULT_ADMIN_ROLE()": "a217fddf",
    "EPOCH_DURATION()": "a70b9f0c",
    "EPOCH_FIX_DELAY()": "472132f0",
    "EPOCH_FIX_TIMEOUT()": "19f1039c",
    "activeLimitPriceTicks(uint256)": "683f81a1",
    "addLimitPriceTick(uint256,uint256)": "44a3c664",
    "buffer()": "edaafe20",
    "calculateRebateFactorForPriceTick(uint256)": "cb6238c8",
    "cancelLimitOrder()": "2202ce8c",
    "cash(address)": "b6dc16f6",
    "cdm()": "e2dfb317",
    "claimFees()": "d294f093",
    "claimUndelegatedCredit(uint256)": "2b2368a2",
    "createLimitOrder(uint256)": "2906f94e",
    "creditWithholder()": "bf404a41",
    "delegateCredit(uint256)": "93f9eb35",
    "deposit(address,uint256)": "47e7ef24",
    "enterEmergencyMode()": "9844afd2",
    "epochs(uint256)": "c6b61e4c",
    "exchange(uint256,uint256)": "d4b7eac3",
    "exchangePreview(uint256,uint256)": "88439aea",
    "getCurrentEpoch()": "b97dd9e2",
    "getGlobalIRS()": "eb953449",
    "getLimitOrder(uint256,uint256)": "2af8992b",
    "getMaximumDebtForCollateral(address,address,address,int256)": "8f1e5f63",
    "getPositionIRS(address)": "dbe6b31c",
    "getPriceTick(uint256)": "51f813ec",
    "getRoleAdmin(bytes32)": "248a9ca3",
    "grantRole(bytes32,address)": "2f2ff15d",
    "hasPermission(address,address)": "cde68041",
    "hasRole(bytes32,address)": "91d14854",
    "limitOrderFloor()": "dc2ec249",
    "limitOrders(uint256)": "a3e2b495",
    "liquidatePositions(address[],uint256[])": "df10f687",
    "liquidationConfig()": "1c580ad5",
    "modifyCollateralAndDebt(address,address,address,int256,int256)": "c75a4b5e",
    "modifyPermission(address,address,bool)": "8309dbdd",
    "modifyPermission(address,bool)": "d9c70f57",
    "oracle()": "7dc0d1d0",
    "pause()": "8456cb59",
    "paused()": "5c975abb",
    "pausedAt()": "2e55d0f2",
    "positions(address)": "55f57510",
    "protocolFee()": "b0e21e8a",
    "removeLimitPriceTick(uint256)": "ef0563fb",
    "renounceRole(bytes32,address)": "36568abe",
    "revokeRole(bytes32,address)": "d547741f",
    "setParameter(bytes32,uint256)": "723507be",
    "setPermissionAgent(address,bool)": "280c37ef",
    "setUp(address)": "3f2601ef",
    "shares(address)": "ce7c2ac2",
    "sharesQueuedByEpoch(uint256,address)": "14815a6d",
    "spotPrice()": "398482d8",
    "supportsInterface(bytes4)": "01ffc9a7",
    "token()": "fc0c546a",
    "tokenScale()": "342c02b1",
    "totalAccruedFees()": "ba95534c",
    "totalCreditClaimable()": "5fe83c7b",
    "totalNormalDebt()": "842c311e",
    "totalShares()": "3a98ef39",
    "undelegateCredit(uint256,uint256[])": "6e5e741e",
    "unpause()": "3f4ba83a",
    "vaultConfig()": "7cc34bb4",
    "virtualIRS(address)": "8051ba75",
    "withdraw(address,uint256)": "f3fef3a3"
  },
  "id": 142
}