{
  "abi": [
    {
      "inputs": [
        {
          "internalType": "address",
          "name": "factory",
          "type": "address"
        }
      ],
      "stateMutability": "nonpayable",
      "type": "constructor"
    },
    {
      "inputs": [],
      "name": "CDPVault__addLimitPriceTick_invalidPriceTickOrder",
      "type": "error"
    },
    {
      "inputs": [],
      "name": "CDPVault__addLimitPriceTick_limitPriceTickOutOfRange",
      "type": "error"
    },
    {
      "inputs": [],
      "name": "CDPVault__cancelLimitOrder_limitOrderDoesNotExist",
      "type": "error"
    },
    {
      "inputs": [],
      "name": "CDPVault__checkEmergencyMode_entered",
      "type": "error"
    },
    {
      "inputs": [],
      "name": "CDPVault__createLimitOrder_limitOrderAlreadyExists",
      "type": "error"
    },
    {
      "inputs": [],
      "name": "CDPVault__createLimitOrder_limitOrderFloor",
      "type": "error"
    },
    {
      "inputs": [],
      "name": "CDPVault__createLimitOrder_limitPriceTickNotActive",
      "type": "error"
    },
    {
      "inputs": [],
      "name": "CDPVault__exchange_notEnoughExchanged",
      "type": "error"
    },
    {
      "inputs": [],
      "name": "CDPVault__liquidatePosition_notUnsafe",
      "type": "error"
    },
    {
      "inputs": [],
      "name": "CDPVault__liquidatePositions_argLengthMismatch",
      "type": "error"
    },
    {
      "inputs": [],
      "name": "CDPVault__modifyCollateralAndDebt_maxUtilizationRatio",
      "type": "error"
    },
    {
      "inputs": [],
      "name": "CDPVault__modifyCollateralAndDebt_noPermission",
      "type": "error"
    },
    {
      "inputs": [],
      "name": "CDPVault__modifyCollateralAndDebt_notSafe",
      "type": "error"
    },
    {
      "inputs": [],
      "name": "CDPVault__modifyPosition_debtFloor",
      "type": "error"
    },
    {
      "inputs": [],
      "name": "CDPVault__setParameter_unrecognizedParameter",
      "type": "error"
    },
    {
      "inputs": [],
      "name": "IdIsZero",
      "type": "error"
    },
    {
      "inputs": [],
      "name": "InterestRateModel__setBaseRate_invalidBaseRate",
      "type": "error"
    },
    {
      "inputs": [],
      "name": "ItemInList",
      "type": "error"
    },
    {
      "inputs": [],
      "name": "ItemNotInList",
      "type": "error"
    },
    {
      "inputs": [],
      "name": "Math__add_overflow_signed",
      "type": "error"
    },
    {
      "inputs": [],
      "name": "Math__mul_overflow_signed",
      "type": "error"
    },
    {
      "inputs": [],
      "name": "Math__sub_overflow_signed",
      "type": "error"
    },
    {
      "inputs": [],
      "name": "Math__toInt256_overflow",
      "type": "error"
    },
    {
      "inputs": [],
      "name": "Math__toUint64_overflow",
      "type": "error"
    },
    {
      "inputs": [],
      "name": "Permission__modifyPermission_notPermitted",
      "type": "error"
    },
    {
      "anonymous": false,
      "inputs": [
        {
          "indexed": true,
          "internalType": "uint256",
          "name": "limitPriceTick",
          "type": "uint256"
        }
      ],
      "name": "AddLimitPriceTick",
      "type": "event"
    },
    {
      "anonymous": false,
      "inputs": [
        {
          "indexed": true,
          "internalType": "uint256",
          "name": "limitPriceTick",
          "type": "uint256"
        },
        {
          "indexed": true,
          "internalType": "address",
          "name": "maker",
          "type": "address"
        }
      ],
      "name": "CancelLimitOrder",
      "type": "event"
    },
    {
      "anonymous": false,
      "inputs": [
        {
          "indexed": true,
          "internalType": "uint256",
          "name": "limitPriceTick",
          "type": "uint256"
        },
        {
          "indexed": true,
          "internalType": "address",
          "name": "maker",
          "type": "address"
        }
      ],
      "name": "CreateLimitOrder",
      "type": "event"
    },
    {
      "anonymous": false,
      "inputs": [
        {
          "indexed": true,
          "internalType": "address",
          "name": "redeemer",
          "type": "address"
        },
        {
          "indexed": false,
          "internalType": "uint256",
          "name": "creditExchanged",
          "type": "uint256"
        },
        {
          "indexed": false,
          "internalType": "uint256",
          "name": "collateralRedeemed",
          "type": "uint256"
        }
      ],
      "name": "Exchange",
      "type": "event"
    },
    {
      "anonymous": false,
      "inputs": [
        {
          "indexed": true,
          "internalType": "uint256",
          "name": "limitPriceTick",
          "type": "uint256"
        },
        {
          "indexed": true,
          "internalType": "uint256",
          "name": "limitOrderId",
          "type": "uint256"
        },
        {
          "indexed": false,
          "internalType": "uint256",
          "name": "collateralRedeemed",
          "type": "uint256"
        },
        {
          "indexed": false,
          "internalType": "uint256",
          "name": "creditExchanged",
          "type": "uint256"
        }
      ],
      "name": "ExecuteLimitOrder",
      "type": "event"
    },
    {
      "anonymous": false,
      "inputs": [
        {
          "indexed": true,
          "internalType": "address",
          "name": "position",
          "type": "address"
        },
        {
          "indexed": false,
          "internalType": "uint256",
          "name": "collateralReleased",
          "type": "uint256"
        },
        {
          "indexed": false,
          "internalType": "uint256",
          "name": "normalDebtRepaid",
          "type": "uint256"
        },
        {
          "indexed": true,
          "internalType": "address",
          "name": "liquidator",
          "type": "address"
        }
      ],
      "name": "LiquidatePosition",
      "type": "event"
    },
    {
      "anonymous": false,
      "inputs": [
        {
          "indexed": true,
          "internalType": "address",
          "name": "position",
          "type": "address"
        },
        {
          "indexed": true,
          "internalType": "address",
          "name": "collateralizer",
          "type": "address"
        },
        {
          "indexed": true,
          "internalType": "address",
          "name": "creditor",
          "type": "address"
        },
        {
          "indexed": false,
          "internalType": "int256",
          "name": "deltaCollateral",
          "type": "int256"
        },
        {
          "indexed": false,
          "internalType": "int256",
          "name": "deltaNormalDebt",
          "type": "int256"
        }
      ],
      "name": "ModifyCollateralAndDebt",
      "type": "event"
    },
    {
      "anonymous": false,
      "inputs": [
        {
          "indexed": false,
          "internalType": "address",
          "name": "authorizer",
          "type": "address"
        },
        {
          "indexed": false,
          "internalType": "address",
          "name": "owner",
          "type": "address"
        },
        {
          "indexed": false,
          "internalType": "address",
          "name": "caller",
          "type": "address"
        },
        {
          "indexed": false,
          "internalType": "bool",
          "name": "grant",
          "type": "bool"
        }
      ],
      "name": "ModifyPermission",
      "type": "event"
    },
    {
      "anonymous": false,
      "inputs": [
        {
          "indexed": true,
          "internalType": "address",
          "name": "position",
          "type": "address"
        },
        {
          "indexed": false,
          "internalType": "int256",
          "name": "deltaCollateral",
          "type": "int256"
        },
        {
          "indexed": false,
          "internalType": "int256",
          "name": "deltaNormalDebt",
          "type": "int256"
        },
        {
          "indexed": false,
          "internalType": "uint256",
          "name": "totalNormalDebt",
          "type": "uint256"
        }
      ],
      "name": "ModifyPosition",
      "type": "event"
    },
    {
      "anonymous": false,
      "inputs": [
        {
          "indexed": false,
          "internalType": "address",
          "name": "account",
          "type": "address"
        }
      ],
      "name": "Paused",
      "type": "event"
    },
    {
      "anonymous": false,
      "inputs": [
        {
          "indexed": true,
          "internalType": "uint256",
          "name": "limitPriceTick",
          "type": "uint256"
        }
      ],
      "name": "RemoveLimitPriceTick",
      "type": "event"
    },
    {
      "anonymous": false,
      "inputs": [
        {
          "indexed": true,
          "internalType": "bytes32",
          "name": "role",
          "type": "bytes32"
        },
        {
          "indexed": true,
          "internalType": "bytes32",
          "name": "previousAdminRole",
          "type": "bytes32"
        },
        {
          "indexed": true,
          "internalType": "bytes32",
          "name": "newAdminRole",
          "type": "bytes32"
        }
      ],
      "name": "RoleAdminChanged",
      "type": "event"
    },
    {
      "anonymous": false,
      "inputs": [
        {
          "indexed": true,
          "internalType": "bytes32",
          "name": "role",
          "type": "bytes32"
        },
        {
          "indexed": true,
          "internalType": "address",
          "name": "account",
          "type": "address"
        },
        {
          "indexed": true,
          "internalType": "address",
          "name": "sender",
          "type": "address"
        }
      ],
      "name": "RoleGranted",
      "type": "event"
    },
    {
      "anonymous": false,
      "inputs": [
        {
          "indexed": true,
          "internalType": "bytes32",
          "name": "role",
          "type": "bytes32"
        },
        {
          "indexed": true,
          "internalType": "address",
          "name": "account",
          "type": "address"
        },
        {
          "indexed": true,
          "internalType": "address",
          "name": "sender",
          "type": "address"
        }
      ],
      "name": "RoleRevoked",
      "type": "event"
    },
    {
      "anonymous": false,
      "inputs": [
        {
          "indexed": false,
          "internalType": "int64",
          "name": "baseRate",
          "type": "int64"
        }
      ],
      "name": "SetBaseRate",
      "type": "event"
    },
    {
      "anonymous": false,
      "inputs": [],
      "name": "SetGlobalIRS",
      "type": "event"
    },
    {
      "anonymous": false,
      "inputs": [
        {
          "indexed": true,
          "internalType": "bytes32",
          "name": "parameter",
          "type": "bytes32"
        },
        {
          "indexed": false,
          "internalType": "uint256",
          "name": "data",
          "type": "uint256"
        }
      ],
      "name": "SetParameter",
      "type": "event"
    },
    {
      "anonymous": false,
      "inputs": [
        {
          "indexed": false,
          "internalType": "address",
          "name": "owner",
          "type": "address"
        },
        {
          "indexed": false,
          "internalType": "address",
          "name": "agent",
          "type": "address"
        },
        {
          "indexed": false,
          "internalType": "bool",
          "name": "grant",
          "type": "bool"
        }
      ],
      "name": "SetPermittedAgent",
      "type": "event"
    },
    {
      "anonymous": false,
      "inputs": [
        {
          "indexed": true,
          "internalType": "address",
          "name": "position",
          "type": "address"
        },
        {
          "indexed": false,
          "internalType": "uint256",
          "name": "snapshotRateAccumulator",
          "type": "uint256"
        },
        {
          "indexed": false,
          "internalType": "uint256",
          "name": "accruedRebate",
          "type": "uint256"
        },
        {
          "indexed": false,
          "internalType": "uint256",
          "name": "rebateFactor",
          "type": "uint256"
        }
      ],
      "name": "SetPositionIRS",
      "type": "event"
    },
    {
      "anonymous": false,
      "inputs": [
        {
          "indexed": false,
          "internalType": "address",
          "name": "account",
          "type": "address"
        }
      ],
      "name": "Unpaused",
      "type": "event"
    },
    {
      "inputs": [],
      "name": "DEFAULT_ADMIN_ROLE",
      "outputs": [
        {
          "internalType": "bytes32",
          "name": "",
          "type": "bytes32"
        }
      ],
      "stateMutability": "view",
      "type": "function"
    },
    {
      "inputs": [
        {
          "internalType": "uint256",
          "name": "priceTick",
          "type": "uint256"
        }
      ],
      "name": "activeLimitPriceTicks",
      "outputs": [
        {
          "internalType": "bool",
          "name": "isActive",
          "type": "bool"
        }
      ],
      "stateMutability": "view",
      "type": "function"
    },
    {
      "inputs": [
        {
          "internalType": "uint256",
          "name": "limitPriceTick",
          "type": "uint256"
        },
        {
          "internalType": "uint256",
          "name": "nextLimitPriceTick",
          "type": "uint256"
        }
      ],
      "name": "addLimitPriceTick",
      "outputs": [],
      "stateMutability": "nonpayable",
      "type": "function"
    },
    {
      "inputs": [],
      "name": "buffer",
      "outputs": [
        {
          "internalType": "contract IBuffer",
          "name": "",
          "type": "address"
        }
      ],
      "stateMutability": "view",
      "type": "function"
    },
    {
      "inputs": [
        {
          "internalType": "uint256",
          "name": "priceTick",
          "type": "uint256"
        }
      ],
      "name": "calculateRebateFactorForPriceTick",
      "outputs": [
        {
          "internalType": "uint64",
          "name": "",
          "type": "uint64"
        }
      ],
      "stateMutability": "view",
      "type": "function"
    },
    {
      "inputs": [],
      "name": "cancelLimitOrder",
      "outputs": [],
      "stateMutability": "nonpayable",
      "type": "function"
    },
    {
      "inputs": [
        {
          "internalType": "address",
          "name": "owner",
          "type": "address"
        }
      ],
      "name": "cash",
      "outputs": [
        {
          "internalType": "uint256",
          "name": "balance",
          "type": "uint256"
        }
      ],
      "stateMutability": "view",
      "type": "function"
    },
    {
      "inputs": [],
      "name": "cdm",
      "outputs": [
        {
          "internalType": "contract ICDM",
          "name": "",
          "type": "address"
        }
      ],
      "stateMutability": "view",
      "type": "function"
    },
    {
      "inputs": [],
      "name": "claimFees",
      "outputs": [
        {
          "internalType": "uint256",
          "name": "feesClaimed",
          "type": "uint256"
        }
      ],
      "stateMutability": "nonpayable",
      "type": "function"
    },
    {
      "inputs": [
        {
          "internalType": "uint256",
          "name": "limitPriceTick",
          "type": "uint256"
        }
      ],
      "name": "createLimitOrder",
      "outputs": [],
      "stateMutability": "nonpayable",
      "type": "function"
    },
    {
      "inputs": [
        {
          "internalType": "address",
          "name": "to",
          "type": "address"
        },
        {
          "internalType": "uint256",
          "name": "amount",
          "type": "uint256"
        }
      ],
      "name": "deposit",
      "outputs": [
        {
          "internalType": "uint256",
          "name": "cashAmount",
          "type": "uint256"
        }
      ],
      "stateMutability": "nonpayable",
      "type": "function"
    },
    {
      "inputs": [],
      "name": "enterEmergencyMode",
      "outputs": [],
      "stateMutability": "nonpayable",
      "type": "function"
    },
    {
      "inputs": [
        {
          "internalType": "uint256",
          "name": "upperLimitPriceTick",
          "type": "uint256"
        },
        {
          "internalType": "uint256",
          "name": "creditToExchange",
          "type": "uint256"
        }
      ],
      "name": "exchange",
      "outputs": [
        {
          "internalType": "uint256",
          "name": "creditExchanged",
          "type": "uint256"
        },
        {
          "internalType": "uint256",
          "name": "collateralExchanged",
          "type": "uint256"
        }
      ],
      "stateMutability": "nonpayable",
      "type": "function"
    },
    {
      "inputs": [
        {
          "internalType": "uint256",
          "name": "upperLimitPriceTick",
          "type": "uint256"
        },
        {
          "internalType": "uint256",
          "name": "creditToExchange",
          "type": "uint256"
        }
      ],
      "name": "exchangePreview",
      "outputs": [
        {
          "internalType": "uint256",
          "name": "creditExchanged",
          "type": "uint256"
        },
        {
          "internalType": "uint256",
          "name": "collateralExchanged",
          "type": "uint256"
        }
      ],
      "stateMutability": "nonpayable",
      "type": "function"
    },
    {
      "inputs": [],
      "name": "getGlobalIRS",
      "outputs": [
        {
          "components": [
            {
              "internalType": "int64",
              "name": "baseRate",
              "type": "int64"
            },
            {
              "internalType": "uint64",
              "name": "lastUpdated",
              "type": "uint64"
            },
            {
              "internalType": "uint64",
              "name": "rateAccumulator",
              "type": "uint64"
            },
            {
              "internalType": "uint256",
              "name": "averageRebate",
              "type": "uint256"
            },
            {
              "internalType": "uint256",
              "name": "globalAccruedRebate",
              "type": "uint256"
            }
          ],
          "internalType": "struct InterestRateModel.GlobalIRS",
          "name": "",
          "type": "tuple"
        }
      ],
      "stateMutability": "view",
      "type": "function"
    },
    {
      "inputs": [
        {
          "internalType": "uint256",
          "name": "priceTick",
          "type": "uint256"
        },
        {
          "internalType": "uint256",
          "name": "index",
          "type": "uint256"
        }
      ],
      "name": "getLimitOrder",
      "outputs": [
        {
          "internalType": "uint256",
          "name": "limitOrderId",
          "type": "uint256"
        }
      ],
      "stateMutability": "view",
      "type": "function"
    },
    {
      "inputs": [
        {
          "internalType": "address",
          "name": "owner",
          "type": "address"
        },
        {
          "internalType": "address",
          "name": "collateralizer",
          "type": "address"
        },
        {
          "internalType": "address",
          "name": "creditor",
          "type": "address"
        },
        {
          "internalType": "int256",
          "name": "deltaCollateral_",
          "type": "int256"
        }
      ],
      "name": "getMaximumDebtForCollateral",
      "outputs": [
        {
          "internalType": "int256",
          "name": "deltaCollateral",
          "type": "int256"
        },
        {
          "internalType": "int256",
          "name": "deltaNormalDebt",
          "type": "int256"
        },
        {
          "internalType": "uint256",
          "name": "creditNeeded",
          "type": "uint256"
        }
      ],
      "stateMutability": "nonpayable",
      "type": "function"
    },
    {
      "inputs": [
        {
          "internalType": "address",
          "name": "position",
          "type": "address"
        }
      ],
      "name": "getPositionIRS",
      "outputs": [
        {
          "components": [
            {
              "internalType": "uint64",
              "name": "snapshotRateAccumulator",
              "type": "uint64"
            },
            {
              "internalType": "uint64",
              "name": "rebateFactor",
              "type": "uint64"
            },
            {
              "internalType": "uint128",
              "name": "accruedRebate",
              "type": "uint128"
            }
          ],
          "internalType": "struct InterestRateModel.PositionIRS",
          "name": "",
          "type": "tuple"
        }
      ],
      "stateMutability": "view",
      "type": "function"
    },
    {
      "inputs": [
        {
          "internalType": "uint256",
          "name": "index",
          "type": "uint256"
        }
      ],
      "name": "getPriceTick",
      "outputs": [
        {
          "internalType": "uint256",
          "name": "priceTick",
          "type": "uint256"
        },
        {
          "internalType": "bool",
          "name": "isActive",
          "type": "bool"
        }
      ],
      "stateMutability": "view",
      "type": "function"
    },
    {
      "inputs": [
        {
          "internalType": "bytes32",
          "name": "role",
          "type": "bytes32"
        }
      ],
      "name": "getRoleAdmin",
      "outputs": [
        {
          "internalType": "bytes32",
          "name": "",
          "type": "bytes32"
        }
      ],
      "stateMutability": "view",
      "type": "function"
    },
    {
      "inputs": [
        {
          "internalType": "bytes32",
          "name": "role",
          "type": "bytes32"
        },
        {
          "internalType": "address",
          "name": "account",
          "type": "address"
        }
      ],
      "name": "grantRole",
      "outputs": [],
      "stateMutability": "nonpayable",
      "type": "function"
    },
    {
      "inputs": [
        {
          "internalType": "address",
          "name": "owner",
          "type": "address"
        },
        {
          "internalType": "address",
          "name": "caller",
          "type": "address"
        }
      ],
      "name": "hasPermission",
      "outputs": [
        {
          "internalType": "bool",
          "name": "",
          "type": "bool"
        }
      ],
      "stateMutability": "view",
      "type": "function"
    },
    {
      "inputs": [
        {
          "internalType": "bytes32",
          "name": "role",
          "type": "bytes32"
        },
        {
          "internalType": "address",
          "name": "account",
          "type": "address"
        }
      ],
      "name": "hasRole",
      "outputs": [
        {
          "internalType": "bool",
          "name": "",
          "type": "bool"
        }
      ],
      "stateMutability": "view",
      "type": "function"
    },
    {
      "inputs": [],
      "name": "limitOrderFloor",
      "outputs": [
        {
          "internalType": "uint256",
          "name": "",
          "type": "uint256"
        }
      ],
      "stateMutability": "view",
      "type": "function"
    },
    {
      "inputs": [
        {
          "internalType": "uint256",
          "name": "limitOrderId",
          "type": "uint256"
        }
      ],
      "name": "limitOrders",
      "outputs": [
        {
          "internalType": "uint256",
          "name": "priceTick",
          "type": "uint256"
        }
      ],
      "stateMutability": "view",
      "type": "function"
    },
    {
      "inputs": [
        {
          "internalType": "address[]",
          "name": "owners",
          "type": "address[]"
        },
        {
          "internalType": "uint256[]",
          "name": "repayAmounts",
          "type": "uint256[]"
        }
      ],
      "name": "liquidatePositions",
      "outputs": [],
      "stateMutability": "nonpayable",
      "type": "function"
    },
    {
      "inputs": [],
      "name": "liquidationConfig",
      "outputs": [
        {
          "internalType": "uint64",
          "name": "liquidationPenalty",
          "type": "uint64"
        },
        {
          "internalType": "uint64",
          "name": "liquidationDiscount",
          "type": "uint64"
        },
        {
          "internalType": "uint64",
          "name": "targetHealthFactor",
          "type": "uint64"
        }
      ],
      "stateMutability": "view",
      "type": "function"
    },
    {
      "inputs": [
        {
          "internalType": "address",
          "name": "owner",
          "type": "address"
        },
        {
          "internalType": "address",
          "name": "collateralizer",
          "type": "address"
        },
        {
          "internalType": "address",
          "name": "creditor",
          "type": "address"
        },
        {
          "internalType": "int256",
          "name": "deltaCollateral",
          "type": "int256"
        },
        {
          "internalType": "int256",
          "name": "deltaNormalDebt",
          "type": "int256"
        }
      ],
      "name": "modifyCollateralAndDebt",
      "outputs": [],
      "stateMutability": "nonpayable",
      "type": "function"
    },
    {
      "inputs": [
        {
          "internalType": "address",
          "name": "owner",
          "type": "address"
        },
        {
          "internalType": "address",
          "name": "caller",
          "type": "address"
        },
        {
          "internalType": "bool",
          "name": "permitted",
          "type": "bool"
        }
      ],
      "name": "modifyPermission",
      "outputs": [],
      "stateMutability": "nonpayable",
      "type": "function"
    },
    {
      "inputs": [
        {
          "internalType": "address",
          "name": "caller",
          "type": "address"
        },
        {
          "internalType": "bool",
          "name": "permitted",
          "type": "bool"
        }
      ],
      "name": "modifyPermission",
      "outputs": [],
      "stateMutability": "nonpayable",
      "type": "function"
    },
    {
      "inputs": [],
      "name": "oracle",
      "outputs": [
        {
          "internalType": "contract IOracle",
          "name": "",
          "type": "address"
        }
      ],
      "stateMutability": "view",
      "type": "function"
    },
    {
      "inputs": [],
      "name": "pause",
      "outputs": [],
      "stateMutability": "nonpayable",
      "type": "function"
    },
    {
      "inputs": [],
      "name": "paused",
      "outputs": [
        {
          "internalType": "bool",
          "name": "",
          "type": "bool"
        }
      ],
      "stateMutability": "view",
      "type": "function"
    },
    {
      "inputs": [],
      "name": "pausedAt",
      "outputs": [
        {
          "internalType": "uint256",
          "name": "",
          "type": "uint256"
        }
      ],
      "stateMutability": "view",
      "type": "function"
    },
    {
      "inputs": [
        {
          "internalType": "address",
          "name": "owner",
          "type": "address"
        }
      ],
      "name": "positions",
      "outputs": [
        {
          "internalType": "uint256",
          "name": "collateral",
          "type": "uint256"
        },
        {
          "internalType": "uint256",
          "name": "normalDebt",
          "type": "uint256"
        }
      ],
      "stateMutability": "view",
      "type": "function"
    },
    {
      "inputs": [],
      "name": "protocolFee",
      "outputs": [
        {
          "internalType": "uint256",
          "name": "",
          "type": "uint256"
        }
      ],
      "stateMutability": "view",
      "type": "function"
    },
    {
      "inputs": [
        {
          "internalType": "uint256",
          "name": "limitPriceTick",
          "type": "uint256"
        }
      ],
      "name": "removeLimitPriceTick",
      "outputs": [],
      "stateMutability": "nonpayable",
      "type": "function"
    },
    {
      "inputs": [
        {
          "internalType": "bytes32",
          "name": "role",
          "type": "bytes32"
        },
        {
          "internalType": "address",
          "name": "account",
          "type": "address"
        }
      ],
      "name": "renounceRole",
      "outputs": [],
      "stateMutability": "nonpayable",
      "type": "function"
    },
    {
      "inputs": [
        {
          "internalType": "bytes32",
          "name": "role",
          "type": "bytes32"
        },
        {
          "internalType": "address",
          "name": "account",
          "type": "address"
        }
      ],
      "name": "revokeRole",
      "outputs": [],
      "stateMutability": "nonpayable",
      "type": "function"
    },
    {
      "inputs": [
        {
          "internalType": "bytes32",
          "name": "parameter",
          "type": "bytes32"
        },
        {
          "internalType": "uint256",
          "name": "data",
          "type": "uint256"
        }
      ],
      "name": "setParameter",
      "outputs": [],
      "stateMutability": "nonpayable",
      "type": "function"
    },
    {
      "inputs": [
        {
          "internalType": "address",
          "name": "agent",
          "type": "address"
        },
        {
          "internalType": "bool",
          "name": "permitted",
          "type": "bool"
        }
      ],
      "name": "setPermissionAgent",
      "outputs": [],
      "stateMutability": "nonpayable",
      "type": "function"
    },
    {
      "inputs": [],
      "name": "setUp",
      "outputs": [],
      "stateMutability": "nonpayable",
      "type": "function"
    },
    {
      "inputs": [],
      "name": "spotPrice",
      "outputs": [
        {
          "internalType": "uint256",
          "name": "",
          "type": "uint256"
        }
      ],
      "stateMutability": "nonpayable",
      "type": "function"
    },
    {
      "inputs": [
        {
          "internalType": "bytes4",
          "name": "interfaceId",
          "type": "bytes4"
        }
      ],
      "name": "supportsInterface",
      "outputs": [
        {
          "internalType": "bool",
          "name": "",
          "type": "bool"
        }
      ],
      "stateMutability": "view",
      "type": "function"
    },
    {
      "inputs": [],
      "name": "token",
      "outputs": [
        {
          "internalType": "contract IERC20",
          "name": "",
          "type": "address"
        }
      ],
      "stateMutability": "view",
      "type": "function"
    },
    {
      "inputs": [],
      "name": "tokenScale",
      "outputs": [
        {
          "internalType": "uint256",
          "name": "",
          "type": "uint256"
        }
      ],
      "stateMutability": "view",
      "type": "function"
    },
    {
      "inputs": [],
      "name": "totalAccruedFees",
      "outputs": [
        {
          "internalType": "uint256",
          "name": "",
          "type": "uint256"
        }
      ],
      "stateMutability": "view",
      "type": "function"
    },
    {
      "inputs": [],
      "name": "totalNormalDebt",
      "outputs": [
        {
          "internalType": "uint256",
          "name": "",
          "type": "uint256"
        }
      ],
      "stateMutability": "view",
      "type": "function"
    },
    {
      "inputs": [],
      "name": "unpause",
      "outputs": [],
      "stateMutability": "nonpayable",
      "type": "function"
    },
    {
      "inputs": [],
      "name": "vaultConfig",
      "outputs": [
        {
          "internalType": "uint128",
          "name": "debtFloor",
          "type": "uint128"
        },
        {
          "internalType": "uint64",
          "name": "liquidationRatio",
          "type": "uint64"
        },
        {
          "internalType": "uint64",
          "name": "globalLiquidationRatio",
          "type": "uint64"
        }
      ],
      "stateMutability": "view",
      "type": "function"
    },
    {
      "inputs": [
        {
          "internalType": "address",
          "name": "position",
          "type": "address"
        }
      ],
      "name": "virtualIRS",
      "outputs": [
        {
          "internalType": "uint64",
          "name": "rateAccumulator",
          "type": "uint64"
        },
        {
          "internalType": "uint256",
          "name": "accruedRebate",
          "type": "uint256"
        },
        {
          "internalType": "uint256",
          "name": "globalAccruedRebate",
          "type": "uint256"
        }
      ],
      "stateMutability": "view",
      "type": "function"
    },
    {
      "inputs": [
        {
          "internalType": "address",
          "name": "to",
          "type": "address"
        },
        {
          "internalType": "uint256",
          "name": "amount",
          "type": "uint256"
        }
      ],
      "name": "withdraw",
      "outputs": [
        {
          "internalType": "uint256",
          "name": "tokenAmount",
          "type": "uint256"
        }
      ],
      "stateMutability": "nonpayable",
      "type": "function"
    }
  ],
  "bytecode": {
    "object": "0x6101806040523480156200001257600080fd5b5060405162004cd938038062004cd9833981016040819052620000359162000103565b6001805460ff1916905560408051639a295e7360e01b81529051829182916001600160a01b03831691639a295e739160048083019261010092919082900301816000875af11580156200008c573d6000803e3d6000fd5b505050506040513d601f19601f82011682018060405250810190620000b291906200012a565b610160526101405261012052610100526001600160a01b0390811660e05290811660c05290811660a0521660805250620001b9915050565b6001600160a01b03811681146200010057600080fd5b50565b6000602082840312156200011657600080fd5b81516200012381620000ea565b9392505050565b600080600080600080600080610100898b0312156200014857600080fd5b88516200015581620000ea565b60208a01519098506200016881620000ea565b60408a01519097506200017b81620000ea565b60608a01519096506200018e81620000ea565b60808a015160a08b015160c08c015160e0909c01519a9d999c50979a91999098919650945092505050565b60805160a05160c05160e05161010051610120516101405161016051614a20620002b96000396000611cef015260008181611c1d0152612c370152600081816106700152613d900152600081816103e901528181610f200152818161263d015261335501526000818161088a01528181610cf801528181610ef201528181612670015261337701526000818161083d01528181611df201526124ad01526000818161055c0152610ccb0152600081816107ba015281816114d601528181611563015281816115e50152818161172801528181611af801528181611b7b01528181611dc301528181611e80015281816123f101526135d20152614a206000f3fe608060405234801561001057600080fd5b50600436106102cc5760003560e01c80638456cb591161017d578063d294f093116100d9578063df10f68711610092578063df10f687146107a2578063e2dfb317146107b5578063eb953449146107dc578063edaafe2014610838578063ef0563fb1461085f578063f3fef3a314610872578063fc0c546a1461088557600080fd5b8063d294f0931461070c578063d4b7eac314610714578063d547741f14610727578063d9c70f571461073a578063dbe6b31c1461074d578063dc2ec2491461079957600080fd5b8063a3e2b49511610136578063a3e2b4951461064b578063b0e21e8a1461066b578063b6dc16f614610692578063ba95534c146106b2578063c75a4b5e146106bb578063cb6238c8146106ce578063cde68041146106f957600080fd5b80638456cb59146105df57806388439aea146105e75780638f1e5f63146105fa57806391d14854146106285780639844afd21461063b578063a217fddf1461064357600080fd5b80633f4ba83a1161022c578063683f81a1116101e5578063683f81a1146104c3578063723507be146104e65780637cc34bb4146104f95780637dc0d1d0146105575780638051ba751461058b5780638309dbdd146105c3578063842c311e146105d657600080fd5b80633f4ba83a1461042657806344a3c6641461042e57806347e7ef241461044157806351f813ec1461045457806355f575101461047c5780635c975abb146104b857600080fd5b80632906f94e116102895780632906f94e146103a25780632af8992b146103b55780632e55d0f2146103c85780632f2ff15d146103d1578063342c02b1146103e457806336568abe1461040b578063398482d81461041e57600080fd5b806301ffc9a7146102d15780630a9254e4146102f95780631c580ad5146103035780632202ce8c14610356578063248a9ca31461035e578063280c37ef1461038f575b600080fd5b6102e46102df366004614362565b6108ac565b60405190151581526020015b60405180910390f35b6103016108e3565b005b60135461032c906001600160401b0380821691600160401b8104821691600160801b9091041683565b604080516001600160401b03948516815292841660208401529216918101919091526060016102f0565b61030161093d565b61038161036c36600461438c565b60009081526020819052604090206001015490565b6040519081526020016102f0565b61030161039d3660046143ca565b610a06565b6103016103b036600461438c565b610a7d565b6103816103c3366004614401565b610bb6565b61038160025481565b6103016103df366004614423565b610c04565b6103817f000000000000000000000000000000000000000000000000000000000000000081565b610301610419366004614423565b610c2e565b610381610cb1565b610301610d68565b61030161043c366004614401565b610da2565b61038161044f36600461444f565b610edb565b61046761046236600461438c565b610f7d565b604080519283529015156020830152016102f0565b6104a361048a366004614479565b600d602052600090815260409020805460019091015482565b604080519283526020830191909152016102f0565b60015460ff166102e4565b6102e46104d136600461438c565b600e6020526000908152604090205460ff1681565b6103016104f4366004614401565b610fd9565b600954610528906001600160801b038116906001600160401b03600160801b8204811691600160c01b90041683565b604080516001600160801b0390941684526001600160401b0392831660208501529116908201526060016102f0565b61057e7f000000000000000000000000000000000000000000000000000000000000000081565b6040516102f09190614494565b61059e610599366004614479565b61123d565b604080516001600160401b0390941684526020840192909252908201526060016102f0565b6103016105d13660046144a8565b6112cd565b610381600a5481565b61030161139c565b6104a36105f5366004614401565b6113ce565b61060d6106083660046144ef565b6113f1565b604080519384526020840192909252908201526060016102f0565b6102e4610636366004614423565b611843565b61030161186c565b610381600081565b61038161065936600461438c565b60116020526000908152604090205481565b6103817f000000000000000000000000000000000000000000000000000000000000000081565b6103816106a0366004614479565b600c6020526000908152604090205481565b610381600b5481565b6103016106c936600461453a565b6118be565b6106e16106dc36600461438c565b611cd3565b6040516001600160401b0390911681526020016102f0565b6102e461070736600461458f565b611d55565b610381611da3565b6104a3610722366004614401565b611e51565b610301610735366004614423565b611f59565b6103016107483660046143ca565b611f7e565b61076061075b366004614479565b611fe1565b6040805182516001600160401b03908116825260208085015190911690820152918101516001600160801b0316908201526060016102f0565b61038160125481565b6103016107b03660046145cf565b61204c565b61057e7f000000000000000000000000000000000000000000000000000000000000000081565b6107e461252f565b6040516102f09190600060a082019050825160070b825260208301516001600160401b0380821660208501528060408601511660408501525050606083015160608301526080830151608083015292915050565b61057e7f000000000000000000000000000000000000000000000000000000000000000081565b61030161086d36600461438c565b612586565b61038161088036600461444f565b612608565b61057e7f000000000000000000000000000000000000000000000000000000000000000081565b60006001600160e01b03198216637965db0b60e01b14806108dd57506301ffc9a760e01b6001600160e01b03198316145b92915050565b60006108ed61252f565b905080602001516001600160401b031660001461090957600080fd5b610914600033612697565b6001600160401b0342166020820152670de0b6b3a7640000604082015261093a8161271b565b50565b336000818152601160205260408120549081900361096e57604051630573b42560e51b815260040160405180910390fd5b600081815260106020526040902061098690836127a9565b600082815260116020908152604080832083905533808452600d909252822060010154600a546109d2936109b8610cb1565b600954600160c01b90046001600160401b0316600061282a565b505060405133915082907f6f36e2a381bc87c87bcc2043deb0a5cdf9a6d87eb14cbe13cf0f1fe39f324dd990600090a35050565b3360008181526004602090815260408083206001600160a01b03871680855290835292819020805460ff1916861515908117909155815194855291840192909252908201527f6501e8bfa2d3e686d62fe2c0c3275df594494583b0a63a70b7452d3eeb712bd6906060015b60405180910390a15050565b6000818152600e602052604090205460ff16610aac5760405163da4b118b60e01b815260040160405180910390fd5b336000908152600d6020526040902060010154601254811015610ae2576040516305c0093760e21b815260040160405180910390fd5b3360008181526011602052604090205415610b105760405163345c017d60e01b815260040160405180910390fd5b600081815260116020908152604080832086905585835260108083528184208480528084529184206001015493879052909152610b4e9183906128f5565b610b813383600a546000610b60610cb1565b600954600160c01b90046001600160401b0316610b7c8a611cd3565b61282a565b505060405133915084907f85d7690ee90733d849878d2bbbd5bf047e442ce2d045c0308a58cfd2ce53031590600090a3505050565b6000828152601060209081526040808320838052909152812054905b828114610bfd5760008481526010602090815260408083208584529091529020549150600101610bd2565b5092915050565b600082815260208190526040902060010154610c1f816129c2565b610c298383612697565b505050565b6001600160a01b0381163314610ca35760405162461bcd60e51b815260206004820152602f60248201527f416363657373436f6e74726f6c3a2063616e206f6e6c792072656e6f756e636560448201526e103937b632b9903337b91039b2b63360891b60648201526084015b60405180910390fd5b610cad82826129cc565b5050565b604051632cbf04c160e01b81526000906001600160a01b037f00000000000000000000000000000000000000000000000000000000000000001690632cbf04c190610d20907f000000000000000000000000000000000000000000000000000000000000000090600401614494565b6020604051808303816000875af1158015610d3f573d6000803e3d6000fd5b505050506040513d601f19601f82011682018060405250810190610d6391906146e8565b905090565b7f65d7a28e3265b37a6474929f336521b332c1681b933f6cb9f3376673440d862a610d92816129c2565b610d9a612a31565b506000600255565b610daa612a7d565b7ff96f3d6876b63665360200e15ed8964960110cbbd99e917fb50ad1e576f538ac610dd4816129c2565b670de0b6b3a7640000831080610df257508268056bc75e2d63100000105b15610e10576040516336bbc25960e01b815260040160405180910390fd5b60008052600f6020526000805160206149cb8339815191525480158015610e3657508215155b80610e5357508215801590610e53575082841180610e5357508281115b80610e6b57506000838152600f602052604090205484105b15610e89576040516346b0cc7160e11b815260040160405180910390fd5b610e95600f85856128f5565b6000848152600e6020526040808220805460ff191660011790555185917f3907a47dfbf148deb99efcd854a68497cbdc2a2db8488083ecb842ad6bde91a891a250505050565b6000610ee5612a7d565b610f1a6001600160a01b037f000000000000000000000000000000000000000000000000000000000000000016333085612ac5565b610f44827f0000000000000000000000000000000000000000000000000000000000000000612b23565b6001600160a01b0384166000908152600c6020526040812080549293508392909190610f71908490614717565b90915550909392505050565b6000808052600f6020526000805160206149cb8339815191525490805b838114610fbd576000838152600f60205260409020600101549250600101610f9a565b50506000818152600e6020526040902054909260ff9091169150565b610fe1612a7d565b7f7e2be3cffb06427cbcb9b1d12d4b78adcf14a2bf640e9bbdeb54bb711b65ec7161100b816129c2565b82683232b13a233637b7b960b91b0361103e57600980546001600160801b0319166001600160801b0384161790556111fe565b826f6c69717569646174696f6e526174696f60801b03611082576009805467ffffffffffffffff60801b1916600160801b6001600160401b038516021790556111fe565b8275676c6f62616c4c69717569646174696f6e526174696f60501b036110c757600980546001600160c01b0316600160c01b6001600160401b038516021790556111fe565b826e3634b6b4ba27b93232b9233637b7b960891b036110ea5760128290556111fe565b8267626173655261746560c01b0361111b57611116600019831461110e5782612b72565b600019612b72565b6111fe565b82716c69717569646174696f6e50656e616c747960701b03611158576013805467ffffffffffffffff19166001600160401b0384161790556111fe565b82721b1a5c5d5a59185d1a5bdb911a5cd8dbdd5b9d606a1b0361119f576013805467ffffffffffffffff60401b1916600160401b6001600160401b038516021790556111fe565b82713a30b933b2ba2432b0b63a342330b1ba37b960711b036111e5576013805467ffffffffffffffff60801b1916600160801b6001600160401b038516021790556111fe565b604051638dd691e760e01b815260040160405180910390fd5b827f4327e67d6578eb2c9293fb22f9334006073ac1397c7100f5dd5adca09ad71c088360405161123091815260200190565b60405180910390a2505050565b60008060008061124b61252f565b600a5490915061125b8282612c1a565b94506112708286836000806000806000612d2d565b506080810151935091506001600160a01b038616156112c4576112b861129587611fe1565b6001600160a01b0388166000908152600d60205260409020600101548790612ecc565b6001600160801b031693505b50509193909250565b6001600160a01b038316331480159061130a57506001600160a01b038316600090815260046020908152604080832033845290915290205460ff16155b1561132857604051638743d2ff60e01b815260040160405180910390fd5b6001600160a01b0383811660009081526003602090815260408083209386168352929052819020805460ff1916831515179055517fdcf2bd5a4c47afeb1792d170f6f5e6e528e30c6b546fffe62b697a11f8953b2b9061138f90339086908690869061472a565b60405180910390a1505050565b7f65d7a28e3265b37a6474929f336521b332c1681b933f6cb9f3376673440d862a6113c6816129c2565b61093a612f07565b60008033156113dc57600080fd5b6113e68484612f15565b915091509250929050565b6001600160a01b0384166000908152600d60209081526040808320815180830190925280548252600101549181019190915282919081908184121561144e5761144784826000015161144290614754565b61319b565b9350611475565b6001600160a01b0387166000908152600c60205260409020546114729085906131b2565b93505b60006114a66114888360000151876131c3565b6114a1611493613208565b670c7d713b49da000061322d565b61322d565b90506000806114b48b61123d565b509150915060006114ca8560200151848461325b565b9050600061168f61167a7f00000000000000000000000000000000000000000000000000000000000000006001600160a01b0316631c3536e7306040518263ffffffff1660e01b81526004016115209190614494565b602060405180830381865afa15801561153d573d6000803e3d6000fd5b505050506040513d601f19601f8201168201806040525081019061156191906146e8565b7f00000000000000000000000000000000000000000000000000000000000000006001600160a01b0316638543d5e06040518163ffffffff1660e01b8152600401602060405180830381865afa1580156115bf573d6000803e3d6000fd5b505050506040513d601f19601f820116820180604052508101906115e391906146e8565b7f00000000000000000000000000000000000000000000000000000000000000006001600160a01b0316632efcc8666040518163ffffffff1660e01b8152600401602060405180830381865afa158015611641573d6000803e3d6000fd5b505050506040513d601f19601f8201168201806040525081019061166591906146e8565b61166f9190614770565b808218908211021890565b6116848488614783565b808218908213021890565b905060008082126116a057816116a9565b6116a982614754565b90506116b681868661327b565b985060008212156116cd576116ca89614754565b98505b506000806116f760008b126116e35760006116ec565b6116ec8b614754565b8960200151876132b7565b509050806001600160801b0316611717876001600160401b03168c613302565b61172191906147a3565b91505060007f00000000000000000000000000000000000000000000000000000000000000006001600160a01b0316631c3536e78e6040518263ffffffff1660e01b81526004016117729190614494565b602060405180830381865afa15801561178f573d6000803e3d6000fd5b505050506040513d601f19601f820116820180604052508101906117b391906146e8565b905060008213806117cb57506117c882614754565b81135b6117e857806117d983614754565b6117e39190614783565b6117eb565b60005b985060008a89602001516117ff91906147a3565b905060008113801561181e57506009546001600160801b0316600f0b81125b156118305760009a5060009b50600099505b5050505050505050509450945094915050565b6000918252602082815260408084206001600160a01b0393909316845291905290205460ff1690565b611874612a7d565b600080611881600061123d565b60095492945092506118b191600160c01b90046001600160401b031690506118a7610cb1565b600a54858561332c565b15610cad57610cad612f07565b60008113806118cd5750600082125b80156118e057506118de8533611d55565b155b806118fd57506000821380156118fd57506118fb8433611d55565b155b8061191a575060008112801561191a57506119188333611d55565b155b1561193857604051634c26249960e01b815260040160405180910390fd5b6001600160a01b0385166000908152600d6020908152604080832081518083018352815481526001909101548184015281516060810183526009546001600160801b03811682526001600160401b03600160801b8204811695830195909552600160c01b900490931691830191909152600a5490926119b5610cb1565b905060008060006119d48c8860200151878b888b60400151600061282a565b9250925092506119e88c88848c8c8a61343c565b965060008813806119f95750600089125b8015611a3c5750611a3a611a238860200151846000015185604001516001600160801b031661325b565b8851602089015187906001600160401b0316613543565b155b15611a5a57604051633f66923d60e01b815260040160405180910390fd5b6001600160a01b038b166000908152600c6020526040902054611a7d908a613566565b6001600160a01b038c166000908152600c6020526040902055611aa085896131c3565b945084600a819055506000816001600160801b0316611acc85604001516001600160401b03168b613302565b611ad691906147a3565b90506000811315611b6857604051632b0b3a6f60e21b81526001600160a01b037f0000000000000000000000000000000000000000000000000000000000000000169063ac2ce9bc90611b319030908f9086906004016147cb565b600060405180830381600087803b158015611b4b57600080fd5b505af1158015611b5f573d6000803e3d6000fd5b50505050611bfc565b6000811215611bfc576001600160a01b037f00000000000000000000000000000000000000000000000000000000000000001663ac2ce9bc8c30611bab85614754565b6040518463ffffffff1660e01b8152600401611bc9939291906147cb565b600060405180830381600087803b158015611be357600080fd5b505af1158015611bf7573d6000803e3d6000fd5b505050505b6000891315611c64576000611c1185886135ab565b90506001600160401b037f000000000000000000000000000000000000000000000000000000000000000060401c1680821115611c61576040516329b823dd60e21b815260040160405180910390fd5b50505b8a6001600160a01b03168c6001600160a01b03168e6001600160a01b03167f7ce3e27b99e7e2e42f0ddcb6f6679a25081a5fd4ca991bcd05c45e54daa997088d8d604051611cbc929190918252602082015260400190565b60405180910390a450505050505050505050505050565b6000670de0b6b3a7640000821015611ced57506000919050565b7f00000000000000000000000000000000000000000000000000000000000000006001600160801b0381169060801c611d4d611d48670de0b6b3a7640000611d39856114a1838a614770565b611d439085614717565b612b23565b613680565b949350505050565b6000816001600160a01b0316836001600160a01b03161480611d9c57506001600160a01b0380841660009081526003602090815260408083209386168352929052205460ff165b9392505050565b600b80546000909155604051632b0b3a6f60e21b81526001600160a01b037f0000000000000000000000000000000000000000000000000000000000000000169063ac2ce9bc90611e1c9030907f00000000000000000000000000000000000000000000000000000000000000009086906004016147cb565b600060405180830381600087803b158015611e3657600080fd5b505af1158015611e4a573d6000803e3d6000fd5b5050505090565b600080611e5e8484612f15565b90925090508115611eec57604051632b0b3a6f60e21b81526001600160a01b037f0000000000000000000000000000000000000000000000000000000000000000169063ac2ce9bc90611eb9903390309087906004016147cb565b600060405180830381600087803b158015611ed357600080fd5b505af1158015611ee7573d6000803e3d6000fd5b505050505b8015611f1757336000908152600c602052604081208054839290611f11908490614717565b90915550505b604080518381526020810183905233917f26981b9aefbb0f732b0264bd34c255e831001eb50b06bc85b32cc39e14389721910160405180910390a29250929050565b600082815260208190526040902060010154611f74816129c2565b610c2983836129cc565b3360008181526003602090815260408083206001600160a01b038716845290915290819020805460ff1916841515179055517fdcf2bd5a4c47afeb1792d170f6f5e6e528e30c6b546fffe62b697a11f8953b2b91610a719181908690869061472a565b611fe96142bb565b6001600160a01b038216600090815260086020908152604091829020825160608101845290546001600160401b038082168352600160401b82041692820192909252600160801b9091046001600160801b0316918101919091526108dd906136aa565b612054612a7d565b80518214612075576040516338f30c4b60e11b815260040160405180910390fd5b600061207f61252f565b60408051606080820183526009546001600160801b03811683526001600160401b03600160801b8083048216602080870191909152600160c01b909304821685870152855193840186526013548083168552600160401b8104831693850193909352909104169281019290925291925060006120f9610cb1565b90506121036142db565b848152600a5460208201526009546001600160801b031660a082015260135461213d908390600160401b90046001600160401b031661322d565b60c08201526013546001600160401b031660e08201526020810151600090612166908790612c1a565b905060005b888110156123845760008a8a83818110612187576121876147ef565b905060200201602081019061219c9190614479565b90506001600160a01b03811615806121cd57508882815181106121c1576121c16147ef565b60200260200101516000145b61237b576001600160a01b0381166000908152600d60209081526040808320815180830190925280548252600101549181018290529190612210908490876136e1565b9050600061223083602001518784604001516001600160801b031661325b565b905087158061225757506122578184600001518a8d602001516001600160401b0316613543565b156122755760405163f87e38e960e01b815260040160405180910390fd5b600080600061229e61228b87600001518d61322d565b8e602001516001600160401b0316612b23565b9050806122b88d604001516001600160401b03168661322d565b6122c29190614770565b91505060006122eb8d602001516001600160401b03168d602001516001600160401b031661322d565b90506000612301670de0b6b3a764000083612b23565b61231c8e604001516001600160401b03168d60e0015161322d565b6123269190614770565b90506123328382612b23565b93505050506123628d878151811061234c5761234c6147ef565b602002602001015161166f838b60e00151612b23565b61010089015261237488858588613720565b9750505050505b5060010161216b565b506123cc82600001516123ad84606001518560e00151670de0b6b3a76400006114a19190614770565b84608001516123bc9190614717565b846020015186896040015161395a565b506020820151600a556060820151604051632b0b3a6f60e21b81526001600160a01b037f0000000000000000000000000000000000000000000000000000000000000000169163ac2ce9bc916124299133913091906004016147cb565b600060405180830381600087803b15801561244357600080fd5b505af1158015612457573d6000803e3d6000fd5b505050604080840151336000908152600c60205291822080549193509190612480908490614717565b90915550506101208201511561252457610120820151604051630bd0dedd60e21b815260048101919091527f00000000000000000000000000000000000000000000000000000000000000006001600160a01b031690632f437b74906024016020604051808303816000875af11580156124fe573d6000803e3d6000fd5b505050506040513d601f19601f8201168201806040525081019061252291906146e8565b505b505050505050505050565b612537614334565b506040805160a081018252600554600781810b83526001600160401b03600160401b830481166020850152600160801b9092049091169282019290925260065460608201529054608082015290565b61258e612a7d565b7ff96f3d6876b63665360200e15ed8964960110cbbd99e917fb50ad1e576f538ac6125b8816129c2565b6000828152600e60205260409020805460ff191690556125d9600f836127a9565b60405182907f343776161924dfe02a29fdf57e6087e2d25ca11fe703785a80632e9ab88c88a190600090a25050565b6000612612612a7d565b336000908152600c602052604081208054849290612631908490614770565b909155506126619050827f000000000000000000000000000000000000000000000000000000000000000061322d565b90506108dd6001600160a01b037f000000000000000000000000000000000000000000000000000000000000000016848361398d565b6126a18282611843565b610cad576000828152602081815260408083206001600160a01b03851684529091529020805460ff191660011790556126d73390565b6001600160a01b0316816001600160a01b0316837f2f8788117e7eff1d82e926ec794901d17c78024a50270940304540a733656f0d60405160405180910390a45050565b80516005805460208401516040808601516001600160401b03908116600160801b0267ffffffffffffffff60801b19938216600160401b026001600160801b03199095169190961617929092171692909217905560608201516006556080820151600755517f9334cbdde649ebcbf798eaa08c381dc574197dc53947470a9be908dbcccc330190600090a150565b6000818152602083815260409182902082518084019093528054835260010154908201526127d783836139bd565b6127f45760405163564e265760e11b815260040160405180910390fd5b60208082018051835160009081529590925260408086206001908101939093559251905185528285205591835282208281550155565b612832614334565b61283a6142bb565b600061284461252f565b925061284f8a611fe1565b9150600061285d848a612c1a565b905061286a83828c612ecc565b6001600160801b031660408401526001600160401b031682526128a96000881261289557600061289e565b61289e88614754565b8a84604001516132b7565b6001600160801b03166040840152905060006128cb8b85858c8e8d888c613a2b565b90945090506128e684826128df8c8c6131c3565b8a8a61395a565b50509750975097945050505050565b6128ff83836139bd565b1561291d57604051631e2bbc4f60e11b815260040160405180910390fd5b8015801590612933575061293183826139bd565b155b156129515760405163564e265760e11b815260040160405180910390fd5b6000818152602084905260409020805490839055811580156129825750600082815260208590526040902060010154155b1561299c5760008281526020859052604090206001018390555b600081815260209490945260408085206001908101859055938552909320928355910155565b61093a8133613ab9565b6129d68282611843565b15610cad576000828152602081815260408083206001600160a01b0385168085529252808320805460ff1916905551339285917ff6391f5c32d9c69d2a47ea670b442974b53935d1edc7fd64eb21e047a839171b9190a45050565b612a39613b12565b6001805460ff191690557f5db9ee0a495bf2e6ff9c91a7834c1ba4fdd244a5e8aa4e537bd38aeae4b073aa335b604051612a739190614494565b60405180910390a1565b60015460ff1615612ac35760405162461bcd60e51b815260206004820152601060248201526f14185d5cd8589b194e881c185d5cd95960821b6044820152606401610c9a565b565b612b1d846323b872dd60e01b858585604051602401612ae6939291906147cb565b60408051601f198184030181529190526020810180516001600160e01b03166001600160e01b031990931692909217909152613b5b565b50505050565b60007812725dd1d243aba0e75fe645cc4873f9e65afe688c928e1f218311670de0b6b3a764000002158202612b605763bcbede656000526004601cfd5b50670de0b6b3a7640000919091020490565b60008160070b138015612b905750670de0b6b3a7640000600782900b125b80612ba65750670de0b6b8c1e505ce600782900b135b15612bc45760405163947800ab60e01b815260040160405180910390fd5b6005805467ffffffffffffffff19166001600160401b038316179055604051600782900b81527fcb1621676ff5c8c9deff7ffc0af9b2c296851bc5b191381ac07d97e82ec03fe69060200160405180910390a150565b6000806000846000015160070b1215612d1f576001600160401b037f000000000000000000000000000000000000000000000000000000000000000081811691604082901c1690670de0b6b3a764000064ffffffffff608083901c811682019260a881901c821683019260d09190911c909116016000612c9a8a8a6135ab565b905084811115612ca75750835b858111612cdb57612cca612cc4612cbe8685614770565b88612b23565b8261322d565b612cd49085614717565b9650612d14565b612d07612cfd612ceb8486614770565b611d4389670de0b6b3a7640000614770565b6114a18884614770565b612d119083614717565b96505b505050505050612d23565b5082515b611d4d8482613c30565b612d35614334565b600080612d4289886131c3565b60608c015190915087151580612d6a5750856001600160401b0316876001600160401b031614155b15612db557612d86866001600160401b03166114a18b8b6131c3565b612d99886001600160401b03168b61322d565b8d60600151612da89190614770565b612db29190614717565b90505b60008a15612dfa57612df5612def612dd18f606001518e612b23565b8f604001518f612de19190614805565b6001600160401b031661322d565b8461322d565b612dfd565b60005b90506000866001600160801b0316828f60800151612e1b9190614717565b612e259190614770565b90506040518060a001604052808f6000015160070b8152602001426001600160401b031681526020018e6001600160401b03168152602001848152602001828152509550505089600014612eb857612eb3612ead612e878e606001518d612b23565b612e9990670de0b6b3a7640000614770565b8e604001518760400151612de19190614805565b8b61322d565b612ebb565b60005b925050509850989650505050505050565b6000612ef8612ef285602001516001600160401b0316866000015186612de19190614805565b8361322d565b8460400151611d4d9190614825565b612f0f613c6e565b42600255565b6000806000612f2261252f565b604080516060810182526009546001600160801b03811682526001600160401b03600160801b820481166020840152600160c01b90910416918101919091529091506000612f6e610cb1565b9050612f786142db565b838152600a546020820181905283516001600160801b031660a0830152670de0b6b3a764000060e0830152600090612fb1908690612c1a565b6000805160206149cb833981519152546000818152601060209081526040808320838052909152902054919250905b898460600151101561313557811580612ff857508a82115b613135576000828152600e602052604090205460ff161580613018575080155b1561304c57506000908152600f60209081526040808320600101548084526010835281842084805290925290912054612fe0565b60008281526010602090815260408083208484529091529020548181036130735750613135565b6001600160a01b0382166000908152600d6020908152604080832081518083019092528054825260010154918101829052849290916130b4908490896136e1565b90506130c0898761322d565b60c089015260608801516130d4908f614770565b610100890152602082015181516040830151613115926130fe9290916001600160801b031661325b565b835160208d01518c906001600160401b0316613543565b156131295761312688838386613720565b97505b83945050505050612fe0565b613152846000015185608001518660200151888a6040015161395a565b506020840151600a5560608401518a1461317f57604051633e6c5e0f60e01b815260040160405180910390fd5b8360600151846040015198509850505050505050509250929050565b6000818313156131ac5750816108dd565b50919050565b6000818312156131ac5750816108dd565b8181016000821380156131d557508281105b806131ea57506000821280156131ea57508281115b156108dd576040516354012a2960e11b815260040160405180910390fd5b6000610d63613215610cb1565b600954600160801b90046001600160401b0316612b23565b60008160001904831182021561324b5763c4c5d7f56000526004601cfd5b50670de0b6b3a764000091020490565b60008161327185856001600160401b031661322d565b611d4d9190614770565b600061329961328a8386614717565b846001600160401b0316612b23565b9050836132a782858561325b565b1015611d9c576001019392505050565b60008184158015906132c857508315155b156132fa57836132e16001600160801b03851687614845565b6132eb9190614872565b91506132f78282614894565b90505b935093915050565b6000670de0b6b3a76400006133178484613ca9565b816133245761332461485c565b059392505050565b60008061333a85858561325b565b9050801580159061341e5750866001600160401b031661341c7f0000000000000000000000000000000000000000000000000000000000000000887f00000000000000000000000000000000000000000000000000000000000000006001600160a01b03166370a08231306040518263ffffffff1660e01b81526004016133c19190614494565b602060405180830381865afa1580156133de573d6000803e3d6000fd5b505050506040513d601f19601f8201168201806040525081019061340291906146e8565b61340c9190614845565b6134169190614872565b83612b23565b105b1561342d576001915050613433565b60009150505b95945050505050565b6040805180820190915260008082526020820152855161345c90856131c3565b8652602086015161346d90846131c3565b60208701819052158015906134a657506009546020870151865160408801516001600160801b03938416936134a49392911661325b565b105b156134c457604051634b2c23a160e11b815260040160405180910390fd5b6001600160a01b0387166000818152600d6020908152604090912088518155908801516001909101557f71671d6112ff9270f1553ebc8fbf767a3221090f1002c7047475b6fa8f5801cd858561351a86826131c3565b6040805193845260208401929092529082015260600160405180910390a2509395945050505050565b600084826135518587614845565b61355b9190614872565b101595945050505050565b80820360008213801561357857508281115b8061358d575060008212801561358d57508281105b156108dd5760405163e942b9ed60e01b815260040160405180910390fd5b6000806135c1838560400151866080015161325b565b905080156136765761367181600b547f00000000000000000000000000000000000000000000000000000000000000006001600160a01b0316631c3536e7306040518263ffffffff1660e01b815260040161361c9190614494565b602060405180830381865afa158015613639573d6000803e3d6000fd5b505050506040513d601f19601f8201168201806040525081019061365d91906146e8565b6136679085614717565b611d439190614770565b611d4d565b6000949350505050565b6000600160401b82106136a6576040516302217c1560e11b815260040160405180910390fd5b5090565b6136b26142bb565b81516001600160401b03166000036136a657600060208301819052670de0b6b3a7640000835260408301525090565b6136e96142bb565b6136f284611fe1565b90506136ff818385612ecc565b6001600160801b031660408201526001600160401b03909116815292915050565b6137286142db565b6000806000806000613750896020015189600001518a604001516001600160801b031661325b565b905060006137678b61010001518c60e0015161322d565b90506137cd8183118015613787575060a08c01516137858385614770565b105b61379e57613799838d60e00151612b23565b6137bb565b6137bb8c60a00151846137b19190614770565b8d60e00151612b23565b61166f8c600001518e60c00151613cf2565b6101008c01519091508181118183180218955060006137f0878d60e0015161322d565b905061380181848c604001516132b7565b6001600160801b0390811660408d01528b51919550613823918391871661327b565b9450613833878d60c00151612b23565b8b51909650861115613844578a5195505b8a51861480156138575750848b60200151115b15613883576138668184614770565b8c610120018181516138789190614717565b90525060208b015194505b50505060008960200151905060006138bb888c600001518b858e602001516138aa8a613d28565b6138b390614754565b896000613a2b565b908c5290506138f0888b8b6138cf89613d28565b6138d890614754565b6138e189613d28565b6138ea90614754565b8761343c565b50838b6020018181516139039190614770565b90525060408b01805186919061391a908390614717565b90525060608b018051879190613931908390614717565b90525060808b018051829190613948908390614717565b905250999a9950505050505050505050565b600061397182848689604001518a60800151613d4e565b61397a8661271b565b61398385613d80565b9695505050505050565b6040516001600160a01b038316602482015260448101829052610c2990849063a9059cbb60e01b90606401612ae6565b6000816000036139e05760405163ee7efd5760e01b815260040160405180910390fd5b600082815260208490526040902054151580613a0c575060008281526020849052604090206001015415155b80611d9c57505060008080526020929092526040909120600101541490565b613a33614334565b60208781015160008b815260119092526040822054613a77908c90613a588a8a6131c3565b6001600160401b03881615613a6d5787613dd3565b8c60200151613dd3565b6001600160401b031660208a0152613a8f8b8a613e19565b613aa78a8a600001518a8a8a868f602001518c612d2d565b909c909b509950505050505050505050565b613ac38282611843565b610cad57613ad081613ec8565b613adb836020613eda565b604051602001613aec9291906148d8565b60408051601f198184030181529082905262461bcd60e51b8252610c9a91600401614947565b60015460ff16612ac35760405162461bcd60e51b815260206004820152601460248201527314185d5cd8589b194e881b9bdd081c185d5cd95960621b6044820152606401610c9a565b6000613bb0826040518060400160405280602081526020017f5361666545524332303a206c6f772d6c6576656c2063616c6c206661696c6564815250856001600160a01b03166140759092919063ffffffff16565b9050805160001480613bd1575080806020019051810190613bd1919061497a565b610c295760405162461bcd60e51b815260206004820152602a60248201527f5361666545524332303a204552433230206f7065726174696f6e20646964206e6044820152691bdd081cdd58d8d9595960b21b6064820152608401610c9a565b6000611d9c83604001516001600160401b03166114a1846001600160401b031686602001516001600160401b03164203670de0b6b3a7640000614084565b613c76612a7d565b6001805460ff1916811790557f62e78cea01bee320cd4e420270b5ea74000d11b0c9f74754ebdbfc544b05a25833612a66565b8181026000831280613cd457508115801590613cd4575082828281613cd057613cd061485c565b0514155b156108dd57604051631eed389360e01b815260040160405180910390fd5b600081600019048311820215613d105763c4c5d7f56000526004601cfd5b50670de0b6b3a7640000910281810615159190040190565b6000600160ff1b82106136a657604051632db27c5360e01b815260040160405180910390fd5b613d5b858585858561332c565b15613d7957604051632ce9f52360e01b815260040160405180910390fd5b5050505050565b6000613d8a612a7d565b613db4827f000000000000000000000000000000000000000000000000000000000000000061322d565b600b6000828254613dc59190614717565b92505081905590505b919050565b808315801590613de4575082601254115b15611d4d576000848152601060205260409020613e0190866127a9565b50505060009182525060116020526040812081905590565b6001600160a01b0382166000818152600860209081526040918290208451815486840151878601516001600160801b03908116600160801b81026001600160401b03938416600160401b81026001600160801b031990961694909616938417949094179190911692909217909355845192835292820192909252918201527f491dea4b757c9c18e4b668fc545a09f969bd7a6ca7c9f79bb5f53a1e996aeac89060600160405180910390a25050565b60606108dd6001600160a01b03831660145b60606000613ee9836002614845565b613ef4906002614717565b6001600160401b03811115613f0b57613f0b6145b9565b6040519080825280601f01601f191660200182016040528015613f35576020820181803683370190505b509050600360fc1b81600081518110613f5057613f506147ef565b60200101906001600160f81b031916908160001a905350600f60fb1b81600181518110613f7f57613f7f6147ef565b60200101906001600160f81b031916908160001a9053506000613fa3846002614845565b613fae906001614717565b90505b6001811115614026576f181899199a1a9b1b9c1cb0b131b232b360811b85600f1660108110613fe257613fe26147ef565b1a60f81b828281518110613ff857613ff86147ef565b60200101906001600160f81b031916908160001a90535060049490941c9361401f81614997565b9050613fb1565b508315611d9c5760405162461bcd60e51b815260206004820181905260248201527f537472696e67733a20686578206c656e67746820696e73756666696369656e746044820152606401610c9a565b6060611d4d8484600085614142565b60008280156141365784801561412b576001851680156140a6578693506140aa565b8493505b50600284046002860495505b8515614125578687028760801c156140cd57600080fd5b818101818110156140dd57600080fd5b869004975050600186161561411a57868402848882041415881515161561410357600080fd5b8181018181101561411357600080fd5b8690049450505b6002860495506140b6565b50614130565b600092505b5061413a565b8291505b509392505050565b6060824710156141a35760405162461bcd60e51b815260206004820152602660248201527f416464726573733a20696e73756666696369656e742062616c616e636520666f6044820152651c8818d85b1b60d21b6064820152608401610c9a565b600080866001600160a01b031685876040516141bf91906149ae565b60006040518083038185875af1925050503d80600081146141fc576040519150601f19603f3d011682016040523d82523d6000602084013e614201565b606091505b50915091506142128783838761421d565b979650505050505050565b6060831561428c578251600003614285576001600160a01b0385163b6142855760405162461bcd60e51b815260206004820152601d60248201527f416464726573733a2063616c6c20746f206e6f6e2d636f6e74726163740000006044820152606401610c9a565b5081611d4d565b611d4d83838151156142a15781518083602001fd5b8060405162461bcd60e51b8152600401610c9a9190614947565b604080516060810182526000808252602082018190529181019190915290565b6040518061014001604052806142ef614334565b81526020016000815260200160008152602001600081526020016000815260200160008152602001600081526020016000815260200160008152602001600081525090565b6040805160a08101825260008082526020820181905291810182905260608101829052608081019190915290565b60006020828403121561437457600080fd5b81356001600160e01b031981168114611d9c57600080fd5b60006020828403121561439e57600080fd5b5035919050565b80356001600160a01b0381168114613dce57600080fd5b801515811461093a57600080fd5b600080604083850312156143dd57600080fd5b6143e6836143a5565b915060208301356143f6816143bc565b809150509250929050565b6000806040838503121561441457600080fd5b50508035926020909101359150565b6000806040838503121561443657600080fd5b82359150614446602084016143a5565b90509250929050565b6000806040838503121561446257600080fd5b61446b836143a5565b946020939093013593505050565b60006020828403121561448b57600080fd5b611d9c826143a5565b6001600160a01b0391909116815260200190565b6000806000606084860312156144bd57600080fd5b6144c6846143a5565b92506144d4602085016143a5565b915060408401356144e4816143bc565b809150509250925092565b6000806000806080858703121561450557600080fd5b61450e856143a5565b935061451c602086016143a5565b925061452a604086016143a5565b9396929550929360600135925050565b600080600080600060a0868803121561455257600080fd5b61455b866143a5565b9450614569602087016143a5565b9350614577604087016143a5565b94979396509394606081013594506080013592915050565b600080604083850312156145a257600080fd5b6145ab836143a5565b9150614446602084016143a5565b634e487b7160e01b600052604160045260246000fd5b6000806000604084860312156145e457600080fd5b83356001600160401b03808211156145fb57600080fd5b818601915086601f83011261460f57600080fd5b81358181111561461e57600080fd5b602088818360051b860101111561463457600080fd5b80840196508195508088013593508284111561464f57600080fd5b838801935088601f85011261466357600080fd5b8335915082821115614677576146776145b9565b8160051b604051601f19603f8301168101818110868211171561469c5761469c6145b9565b60405292835281830193508481018201928a8411156146ba57600080fd5b948201945b838610156146d8578535855294820194938201936146bf565b8096505050505050509250925092565b6000602082840312156146fa57600080fd5b5051919050565b634e487b7160e01b600052601160045260246000fd5b808201808211156108dd576108dd614701565b6001600160a01b039485168152928416602084015292166040820152901515606082015260800190565b6000600160ff1b820161476957614769614701565b5060000390565b818103818111156108dd576108dd614701565b8181036000831280158383131683831282161715610bfd57610bfd614701565b80820182811260008312801582168215821617156147c3576147c3614701565b505092915050565b6001600160a01b039384168152919092166020820152604081019190915260600190565b634e487b7160e01b600052603260045260246000fd5b6001600160401b03828116828216039080821115610bfd57610bfd614701565b6001600160801b03818116838216019080821115610bfd57610bfd614701565b80820281158282048414176108dd576108dd614701565b634e487b7160e01b600052601260045260246000fd5b60008261488f57634e487b7160e01b600052601260045260246000fd5b500490565b6001600160801b03828116828216039080821115610bfd57610bfd614701565b60005b838110156148cf5781810151838201526020016148b7565b50506000910152565b76020b1b1b2b9b9a1b7b73a3937b61d1030b1b1b7bab73a1604d1b81526000835161490a8160178501602088016148b4565b7001034b99036b4b9b9b4b733903937b6329607d1b601791840191820152835161493b8160288401602088016148b4565b01602801949350505050565b60208152600082518060208401526149668160408501602087016148b4565b601f01601f19169190910160400192915050565b60006020828403121561498c57600080fd5b8151611d9c816143bc565b6000816149a6576149a6614701565b506000190190565b600082516149c08184602087016148b4565b919091019291505056fef4803e074bd026baaf6ed2e288c9515f68c72fb7216eebdd7cae1718a53ec376a26469706673582212203ac9d66861b3a948319252b93dfb8c71d26b8d0f9ca2218e617b94865f5beda864736f6c63430008130033",
    "linkReferences": {}
  },
  "methodIdentifiers": {
    "DEFAULT_ADMIN_ROLE()": "a217fddf",
    "activeLimitPriceTicks(uint256)": "683f81a1",
    "addLimitPriceTick(uint256,uint256)": "44a3c664",
    "buffer()": "edaafe20",
    "calculateRebateFactorForPriceTick(uint256)": "cb6238c8",
    "cancelLimitOrder()": "2202ce8c",
    "cash(address)": "b6dc16f6",
    "cdm()": "e2dfb317",
    "claimFees()": "d294f093",
    "createLimitOrder(uint256)": "2906f94e",
    "deposit(address,uint256)": "47e7ef24",
    "enterEmergencyMode()": "9844afd2",
    "exchange(uint256,uint256)": "d4b7eac3",
    "exchangePreview(uint256,uint256)": "88439aea",
    "getGlobalIRS()": "eb953449",
    "getLimitOrder(uint256,uint256)": "2af8992b",
    "getMaximumDebtForCollateral(address,address,address,int256)": "8f1e5f63",
    "getPositionIRS(address)": "dbe6b31c",
    "getPriceTick(uint256)": "51f813ec",
    "getRoleAdmin(bytes32)": "248a9ca3",
    "grantRole(bytes32,address)": "2f2ff15d",
    "hasPermission(address,address)": "cde68041",
    "hasRole(bytes32,address)": "91d14854",
    "limitOrderFloor()": "dc2ec249",
    "limitOrders(uint256)": "a3e2b495",
    "liquidatePositions(address[],uint256[])": "df10f687",
    "liquidationConfig()": "1c580ad5",
    "modifyCollateralAndDebt(address,address,address,int256,int256)": "c75a4b5e",
    "modifyPermission(address,address,bool)": "8309dbdd",
    "modifyPermission(address,bool)": "d9c70f57",
    "oracle()": "7dc0d1d0",
    "pause()": "8456cb59",
    "paused()": "5c975abb",
    "pausedAt()": "2e55d0f2",
    "positions(address)": "55f57510",
    "protocolFee()": "b0e21e8a",
    "removeLimitPriceTick(uint256)": "ef0563fb",
    "renounceRole(bytes32,address)": "36568abe",
    "revokeRole(bytes32,address)": "d547741f",
    "setParameter(bytes32,uint256)": "723507be",
    "setPermissionAgent(address,bool)": "280c37ef",
    "setUp()": "0a9254e4",
    "spotPrice()": "398482d8",
    "supportsInterface(bytes4)": "01ffc9a7",
    "token()": "fc0c546a",
    "tokenScale()": "342c02b1",
    "totalAccruedFees()": "ba95534c",
    "totalNormalDebt()": "842c311e",
    "unpause()": "3f4ba83a",
    "vaultConfig()": "7cc34bb4",
    "virtualIRS(address)": "8051ba75",
    "withdraw(address,uint256)": "f3fef3a3"
  },
  "id": 148
}