{
  "abi": [
    {
      "inputs": [
        {
          "internalType": "address",
          "name": "rewardPool_",
          "type": "address"
        },
        {
          "internalType": "address",
          "name": "asset_",
          "type": "address"
        },
        {
          "internalType": "address",
          "name": "feed_",
          "type": "address"
        },
        {
          "internalType": "uint32",
          "name": "maxClaimerIncentive_",
          "type": "uint32"
        },
        {
          "internalType": "uint32",
          "name": "maxLockerIncentive_",
          "type": "uint32"
        },
        {
          "internalType": "string",
          "name": "tokenName_",
          "type": "string"
        },
        {
          "internalType": "string",
          "name": "tokenSymbol_",
          "type": "string"
        }
      ],
      "stateMutability": "nonpayable",
      "type": "constructor"
    },
    {
      "anonymous": false,
      "inputs": [
        {
          "indexed": true,
          "internalType": "address",
          "name": "owner",
          "type": "address"
        },
        {
          "indexed": true,
          "internalType": "address",
          "name": "spender",
          "type": "address"
        },
        {
          "indexed": false,
          "internalType": "uint256",
          "name": "value",
          "type": "uint256"
        }
      ],
      "name": "Approval",
      "type": "event"
    },
    {
      "anonymous": false,
      "inputs": [
        {
          "indexed": true,
          "internalType": "address",
          "name": "caller",
          "type": "address"
        },
        {
          "indexed": false,
          "internalType": "uint256",
          "name": "rewardTokenClaimed",
          "type": "uint256"
        },
        {
          "indexed": false,
          "internalType": "uint256",
          "name": "secondaryRewardTokenClaimed",
          "type": "uint256"
        },
        {
          "indexed": false,
          "internalType": "uint256",
          "name": "lpTokenCompounded",
          "type": "uint256"
        }
      ],
      "name": "Claimed",
      "type": "event"
    },
    {
      "anonymous": false,
      "inputs": [
        {
          "indexed": true,
          "internalType": "address",
          "name": "sender",
          "type": "address"
        },
        {
          "indexed": true,
          "internalType": "address",
          "name": "owner",
          "type": "address"
        },
        {
          "indexed": false,
          "internalType": "uint256",
          "name": "assets",
          "type": "uint256"
        },
        {
          "indexed": false,
          "internalType": "uint256",
          "name": "shares",
          "type": "uint256"
        }
      ],
      "name": "Deposit",
      "type": "event"
    },
    {
      "anonymous": false,
      "inputs": [
        {
          "indexed": true,
          "internalType": "bytes32",
          "name": "role",
          "type": "bytes32"
        },
        {
          "indexed": true,
          "internalType": "bytes32",
          "name": "previousAdminRole",
          "type": "bytes32"
        },
        {
          "indexed": true,
          "internalType": "bytes32",
          "name": "newAdminRole",
          "type": "bytes32"
        }
      ],
      "name": "RoleAdminChanged",
      "type": "event"
    },
    {
      "anonymous": false,
      "inputs": [
        {
          "indexed": true,
          "internalType": "bytes32",
          "name": "role",
          "type": "bytes32"
        },
        {
          "indexed": true,
          "internalType": "address",
          "name": "account",
          "type": "address"
        },
        {
          "indexed": true,
          "internalType": "address",
          "name": "sender",
          "type": "address"
        }
      ],
      "name": "RoleGranted",
      "type": "event"
    },
    {
      "anonymous": false,
      "inputs": [
        {
          "indexed": true,
          "internalType": "bytes32",
          "name": "role",
          "type": "bytes32"
        },
        {
          "indexed": true,
          "internalType": "address",
          "name": "account",
          "type": "address"
        },
        {
          "indexed": true,
          "internalType": "address",
          "name": "sender",
          "type": "address"
        }
      ],
      "name": "RoleRevoked",
      "type": "event"
    },
    {
      "anonymous": false,
      "inputs": [
        {
          "indexed": true,
          "internalType": "address",
          "name": "from",
          "type": "address"
        },
        {
          "indexed": true,
          "internalType": "address",
          "name": "to",
          "type": "address"
        },
        {
          "indexed": false,
          "internalType": "uint256",
          "name": "value",
          "type": "uint256"
        }
      ],
      "name": "Transfer",
      "type": "event"
    },
    {
      "anonymous": false,
      "inputs": [
        {
          "indexed": true,
          "internalType": "address",
          "name": "sender",
          "type": "address"
        },
        {
          "indexed": true,
          "internalType": "address",
          "name": "receiver",
          "type": "address"
        },
        {
          "indexed": true,
          "internalType": "address",
          "name": "owner",
          "type": "address"
        },
        {
          "indexed": false,
          "internalType": "uint256",
          "name": "assets",
          "type": "uint256"
        },
        {
          "indexed": false,
          "internalType": "uint256",
          "name": "shares",
          "type": "uint256"
        }
      ],
      "name": "Withdraw",
      "type": "event"
    },
    {
      "inputs": [],
      "name": "DEFAULT_ADMIN_ROLE",
      "outputs": [
        {
          "internalType": "bytes32",
          "name": "",
          "type": "bytes32"
        }
      ],
      "stateMutability": "view",
      "type": "function"
    },
    {
      "inputs": [
        {
          "internalType": "address",
          "name": "owner",
          "type": "address"
        },
        {
          "internalType": "address",
          "name": "spender",
          "type": "address"
        }
      ],
      "name": "allowance",
      "outputs": [
        {
          "internalType": "uint256",
          "name": "",
          "type": "uint256"
        }
      ],
      "stateMutability": "view",
      "type": "function"
    },
    {
      "inputs": [
        {
          "internalType": "address",
          "name": "spender",
          "type": "address"
        },
        {
          "internalType": "uint256",
          "name": "amount",
          "type": "uint256"
        }
      ],
      "name": "approve",
      "outputs": [
        {
          "internalType": "bool",
          "name": "",
          "type": "bool"
        }
      ],
      "stateMutability": "nonpayable",
      "type": "function"
    },
    {
      "inputs": [],
      "name": "asset",
      "outputs": [
        {
          "internalType": "address",
          "name": "",
          "type": "address"
        }
      ],
      "stateMutability": "view",
      "type": "function"
    },
    {
      "inputs": [
        {
          "internalType": "address",
          "name": "account",
          "type": "address"
        }
      ],
      "name": "balanceOf",
      "outputs": [
        {
          "internalType": "uint256",
          "name": "",
          "type": "uint256"
        }
      ],
      "stateMutability": "view",
      "type": "function"
    },
    {
      "inputs": [
        {
          "internalType": "uint256[]",
          "name": "amounts",
          "type": "uint256[]"
        },
        {
          "internalType": "uint256",
          "name": "maxAmountIn",
          "type": "uint256"
        }
      ],
      "name": "claim",
      "outputs": [
        {
          "internalType": "uint256",
          "name": "amountIn",
          "type": "uint256"
        }
      ],
      "stateMutability": "nonpayable",
      "type": "function"
    },
    {
      "inputs": [
        {
          "internalType": "uint256",
          "name": "shares",
          "type": "uint256"
        }
      ],
      "name": "convertToAssets",
      "outputs": [
        {
          "internalType": "uint256",
          "name": "",
          "type": "uint256"
        }
      ],
      "stateMutability": "view",
      "type": "function"
    },
    {
      "inputs": [
        {
          "internalType": "uint256",
          "name": "assets",
          "type": "uint256"
        }
      ],
      "name": "convertToShares",
      "outputs": [
        {
          "internalType": "uint256",
          "name": "",
          "type": "uint256"
        }
      ],
      "stateMutability": "view",
      "type": "function"
    },
    {
      "inputs": [],
      "name": "decimals",
      "outputs": [
        {
          "internalType": "uint8",
          "name": "",
          "type": "uint8"
        }
      ],
      "stateMutability": "view",
      "type": "function"
    },
    {
      "inputs": [
        {
          "internalType": "address",
          "name": "spender",
          "type": "address"
        },
        {
          "internalType": "uint256",
          "name": "subtractedValue",
          "type": "uint256"
        }
      ],
      "name": "decreaseAllowance",
      "outputs": [
        {
          "internalType": "bool",
          "name": "",
          "type": "bool"
        }
      ],
      "stateMutability": "nonpayable",
      "type": "function"
    },
    {
      "inputs": [
        {
          "internalType": "uint256",
          "name": "assets",
          "type": "uint256"
        },
        {
          "internalType": "address",
          "name": "receiver",
          "type": "address"
        }
      ],
      "name": "deposit",
      "outputs": [
        {
          "internalType": "uint256",
          "name": "",
          "type": "uint256"
        }
      ],
      "stateMutability": "nonpayable",
      "type": "function"
    },
    {
      "inputs": [],
      "name": "feed",
      "outputs": [
        {
          "internalType": "address",
          "name": "",
          "type": "address"
        }
      ],
      "stateMutability": "view",
      "type": "function"
    },
    {
      "inputs": [
        {
          "internalType": "bytes32",
          "name": "role",
          "type": "bytes32"
        }
      ],
      "name": "getRoleAdmin",
      "outputs": [
        {
          "internalType": "bytes32",
          "name": "",
          "type": "bytes32"
        }
      ],
      "stateMutability": "view",
      "type": "function"
    },
    {
      "inputs": [
        {
          "internalType": "bytes32",
          "name": "role",
          "type": "bytes32"
        },
        {
          "internalType": "address",
          "name": "account",
          "type": "address"
        }
      ],
      "name": "grantRole",
      "outputs": [],
      "stateMutability": "nonpayable",
      "type": "function"
    },
    {
      "inputs": [
        {
          "internalType": "bytes32",
          "name": "role",
          "type": "bytes32"
        },
        {
          "internalType": "address",
          "name": "account",
          "type": "address"
        }
      ],
      "name": "hasRole",
      "outputs": [
        {
          "internalType": "bool",
          "name": "",
          "type": "bool"
        }
      ],
      "stateMutability": "view",
      "type": "function"
    },
    {
      "inputs": [
        {
          "internalType": "address",
          "name": "spender",
          "type": "address"
        },
        {
          "internalType": "uint256",
          "name": "addedValue",
          "type": "uint256"
        }
      ],
      "name": "increaseAllowance",
      "outputs": [
        {
          "internalType": "bool",
          "name": "",
          "type": "bool"
        }
      ],
      "stateMutability": "nonpayable",
      "type": "function"
    },
    {
      "inputs": [],
      "name": "maxClaimerIncentive",
      "outputs": [
        {
          "internalType": "uint32",
          "name": "",
          "type": "uint32"
        }
      ],
      "stateMutability": "view",
      "type": "function"
    },
    {
      "inputs": [
        {
          "internalType": "address",
          "name": "",
          "type": "address"
        }
      ],
      "name": "maxDeposit",
      "outputs": [
        {
          "internalType": "uint256",
          "name": "",
          "type": "uint256"
        }
      ],
      "stateMutability": "view",
      "type": "function"
    },
    {
      "inputs": [],
      "name": "maxLockerIncentive",
      "outputs": [
        {
          "internalType": "uint32",
          "name": "",
          "type": "uint32"
        }
      ],
      "stateMutability": "view",
      "type": "function"
    },
    {
      "inputs": [
        {
          "internalType": "address",
          "name": "",
          "type": "address"
        }
      ],
      "name": "maxMint",
      "outputs": [
        {
          "internalType": "uint256",
          "name": "",
          "type": "uint256"
        }
      ],
      "stateMutability": "view",
      "type": "function"
    },
    {
      "inputs": [
        {
          "internalType": "address",
          "name": "owner",
          "type": "address"
        }
      ],
      "name": "maxRedeem",
      "outputs": [
        {
          "internalType": "uint256",
          "name": "",
          "type": "uint256"
        }
      ],
      "stateMutability": "view",
      "type": "function"
    },
    {
      "inputs": [
        {
          "internalType": "address",
          "name": "owner",
          "type": "address"
        }
      ],
      "name": "maxWithdraw",
      "outputs": [
        {
          "internalType": "uint256",
          "name": "",
          "type": "uint256"
        }
      ],
      "stateMutability": "view",
      "type": "function"
    },
    {
      "inputs": [
        {
          "internalType": "uint256",
          "name": "shares",
          "type": "uint256"
        },
        {
          "internalType": "address",
          "name": "receiver",
          "type": "address"
        }
      ],
      "name": "mint",
      "outputs": [
        {
          "internalType": "uint256",
          "name": "",
          "type": "uint256"
        }
      ],
      "stateMutability": "nonpayable",
      "type": "function"
    },
    {
      "inputs": [],
      "name": "name",
      "outputs": [
        {
          "internalType": "string",
          "name": "",
          "type": "string"
        }
      ],
      "stateMutability": "view",
      "type": "function"
    },
    {
      "inputs": [
        {
          "internalType": "uint256",
          "name": "assets",
          "type": "uint256"
        }
      ],
      "name": "previewDeposit",
      "outputs": [
        {
          "internalType": "uint256",
          "name": "",
          "type": "uint256"
        }
      ],
      "stateMutability": "view",
      "type": "function"
    },
    {
      "inputs": [
        {
          "internalType": "uint256",
          "name": "shares",
          "type": "uint256"
        }
      ],
      "name": "previewMint",
      "outputs": [
        {
          "internalType": "uint256",
          "name": "",
          "type": "uint256"
        }
      ],
      "stateMutability": "view",
      "type": "function"
    },
    {
      "inputs": [
        {
          "internalType": "uint256",
          "name": "shares",
          "type": "uint256"
        }
      ],
      "name": "previewRedeem",
      "outputs": [
        {
          "internalType": "uint256",
          "name": "",
          "type": "uint256"
        }
      ],
      "stateMutability": "view",
      "type": "function"
    },
    {
      "inputs": [],
      "name": "previewReward",
      "outputs": [
        {
          "internalType": "uint256",
          "name": "amount",
          "type": "uint256"
        }
      ],
      "stateMutability": "view",
      "type": "function"
    },
    {
      "inputs": [
        {
          "internalType": "uint256",
          "name": "assets",
          "type": "uint256"
        }
      ],
      "name": "previewWithdraw",
      "outputs": [
        {
          "internalType": "uint256",
          "name": "",
          "type": "uint256"
        }
      ],
      "stateMutability": "view",
      "type": "function"
    },
    {
      "inputs": [
        {
          "internalType": "uint256",
          "name": "shares",
          "type": "uint256"
        },
        {
          "internalType": "address",
          "name": "receiver",
          "type": "address"
        },
        {
          "internalType": "address",
          "name": "owner",
          "type": "address"
        }
      ],
      "name": "redeem",
      "outputs": [
        {
          "internalType": "uint256",
          "name": "",
          "type": "uint256"
        }
      ],
      "stateMutability": "nonpayable",
      "type": "function"
    },
    {
      "inputs": [
        {
          "internalType": "bytes32",
          "name": "role",
          "type": "bytes32"
        },
        {
          "internalType": "address",
          "name": "account",
          "type": "address"
        }
      ],
      "name": "renounceRole",
      "outputs": [],
      "stateMutability": "nonpayable",
      "type": "function"
    },
    {
      "inputs": [
        {
          "internalType": "bytes32",
          "name": "role",
          "type": "bytes32"
        },
        {
          "internalType": "address",
          "name": "account",
          "type": "address"
        }
      ],
      "name": "revokeRole",
      "outputs": [],
      "stateMutability": "nonpayable",
      "type": "function"
    },
    {
      "inputs": [],
      "name": "rewardPool",
      "outputs": [
        {
          "internalType": "address",
          "name": "",
          "type": "address"
        }
      ],
      "stateMutability": "view",
      "type": "function"
    },
    {
      "inputs": [
        {
          "internalType": "uint32",
          "name": "_claimerIncentive",
          "type": "uint32"
        },
        {
          "internalType": "uint32",
          "name": "_lockerIncentive",
          "type": "uint32"
        },
        {
          "internalType": "address",
          "name": "_lockerRewards",
          "type": "address"
        }
      ],
      "name": "setVaultConfig",
      "outputs": [
        {
          "internalType": "bool",
          "name": "",
          "type": "bool"
        }
      ],
      "stateMutability": "nonpayable",
      "type": "function"
    },
    {
      "inputs": [
        {
          "internalType": "bytes4",
          "name": "interfaceId",
          "type": "bytes4"
        }
      ],
      "name": "supportsInterface",
      "outputs": [
        {
          "internalType": "bool",
          "name": "",
          "type": "bool"
        }
      ],
      "stateMutability": "view",
      "type": "function"
    },
    {
      "inputs": [],
      "name": "symbol",
      "outputs": [
        {
          "internalType": "string",
          "name": "",
          "type": "string"
        }
      ],
      "stateMutability": "view",
      "type": "function"
    },
    {
      "inputs": [],
      "name": "totalAssets",
      "outputs": [
        {
          "internalType": "uint256",
          "name": "",
          "type": "uint256"
        }
      ],
      "stateMutability": "view",
      "type": "function"
    },
    {
      "inputs": [],
      "name": "totalSupply",
      "outputs": [
        {
          "internalType": "uint256",
          "name": "",
          "type": "uint256"
        }
      ],
      "stateMutability": "view",
      "type": "function"
    },
    {
      "inputs": [
        {
          "internalType": "address",
          "name": "to",
          "type": "address"
        },
        {
          "internalType": "uint256",
          "name": "amount",
          "type": "uint256"
        }
      ],
      "name": "transfer",
      "outputs": [
        {
          "internalType": "bool",
          "name": "",
          "type": "bool"
        }
      ],
      "stateMutability": "nonpayable",
      "type": "function"
    },
    {
      "inputs": [
        {
          "internalType": "address",
          "name": "from",
          "type": "address"
        },
        {
          "internalType": "address",
          "name": "to",
          "type": "address"
        },
        {
          "internalType": "uint256",
          "name": "amount",
          "type": "uint256"
        }
      ],
      "name": "transferFrom",
      "outputs": [
        {
          "internalType": "bool",
          "name": "",
          "type": "bool"
        }
      ],
      "stateMutability": "nonpayable",
      "type": "function"
    },
    {
      "inputs": [],
      "name": "vaultConfig",
      "outputs": [
        {
          "internalType": "uint32",
          "name": "claimerIncentive",
          "type": "uint32"
        },
        {
          "internalType": "uint32",
          "name": "lockerIncentive",
          "type": "uint32"
        },
        {
          "internalType": "address",
          "name": "lockerRewards",
          "type": "address"
        }
      ],
      "stateMutability": "view",
      "type": "function"
    },
    {
      "inputs": [
        {
          "internalType": "uint256",
          "name": "assets",
          "type": "uint256"
        },
        {
          "internalType": "address",
          "name": "receiver",
          "type": "address"
        },
        {
          "internalType": "address",
          "name": "owner",
          "type": "address"
        }
      ],
      "name": "withdraw",
      "outputs": [
        {
          "internalType": "uint256",
          "name": "",
          "type": "uint256"
        }
      ],
      "stateMutability": "nonpayable",
      "type": "function"
    }
  ],
  "bytecode": {
    "object": "0x6101406040523480156200001257600080fd5b506040516200354e3803806200354e8339810160408190526200003591620002a3565b8582826003620000468382620003fa565b506004620000558282620003fa565b5050506000806200006c83620000bf60201b60201c565b91509150816200007e57601262000080565b805b60ff1660a05250506001600160a01b0390811660805296871660c0525050919093166101205263ffffffff92831660e0529091166101005250620004fe565b60408051600481526024810182526020810180516001600160e01b031663313ce56760e01b17905290516000918291829182916001600160a01b038716916200010891620004c6565b600060405180830381855afa9150503d806000811462000145576040519150601f19603f3d011682016040523d82523d6000602084013e6200014a565b606091505b50915091508180156200015f57506020815110155b1562000197576000818060200190518101906200017d9190620004e4565b905060ff811162000195576001969095509350505050565b505b5060009485945092505050565b80516001600160a01b0381168114620001bc57600080fd5b919050565b805163ffffffff81168114620001bc57600080fd5b634e487b7160e01b600052604160045260246000fd5b60005b8381101562000209578181015183820152602001620001ef565b50506000910152565b600082601f8301126200022457600080fd5b81516001600160401b0380821115620002415762000241620001d6565b604051601f8301601f19908116603f011681019082821181831017156200026c576200026c620001d6565b816040528381528660208588010111156200028657600080fd5b62000299846020830160208901620001ec565b9695505050505050565b600080600080600080600060e0888a031215620002bf57600080fd5b620002ca88620001a4565b9650620002da60208901620001a4565b9550620002ea60408901620001a4565b9450620002fa60608901620001c1565b93506200030a60808901620001c1565b60a08901519093506001600160401b03808211156200032857600080fd5b620003368b838c0162000212565b935060c08a01519150808211156200034d57600080fd5b506200035c8a828b0162000212565b91505092959891949750929550565b600181811c908216806200038057607f821691505b602082108103620003a157634e487b7160e01b600052602260045260246000fd5b50919050565b601f821115620003f557600081815260208120601f850160051c81016020861015620003d05750805b601f850160051c820191505b81811015620003f157828155600101620003dc565b5050505b505050565b81516001600160401b03811115620004165762000416620001d6565b6200042e816200042784546200036b565b84620003a7565b602080601f8311600181146200046657600084156200044d5750858301515b600019600386901b1c1916600185901b178555620003f1565b600085815260208120601f198616915b82811015620004975788860151825594840194600190910190840162000476565b5085821015620004b65787850151600019600388901b60f8161c191681555b5050505050600190811b01905550565b60008251620004da818460208701620001ec565b9190910192915050565b600060208284031215620004f757600080fd5b5051919050565b60805160a05160c05160e0516101005161012051612f7b620005d360003960008181610387015281816115bc015281816116650152818161170701526117b00152600081816104c8015261145d0152600081816105ca01526114110152600081816103f30152818161060301528181610768015281816107b701528181610abf01528181610e4001528181610f9501528181610fd4015281816110bb015281816110fa01528181611260015261136501526000610c8d015260008181610d310152818161203801526120f80152612f7b6000f3fe608060405234801561001057600080fd5b506004361061025e5760003560e01c806370a0823111610146578063b460af94116100c3578063ce96cb7711610087578063ce96cb771461058c578063d547741f1461059f578063d905777e146105b2578063db0b15e9146105c5578063dd62ed3e146105ec578063ef8b30f71461057957600080fd5b8063b460af9414610540578063ba08765214610553578063c525e0db14610566578063c63d75b6146103d1578063c6e6f5921461057957600080fd5b806397bc65b31161010a57806397bc65b3146104c3578063a217fddf146104ff578063a457c2d714610507578063a9059cbb1461051a578063b3d7f6b91461052d57600080fd5b806370a08231146104285780637cc34bb41461043b57806391d148541461049557806394bf804d146104a857806395d89b41146104bb57600080fd5b80632f2ff15d116101df57806339509351116101a357806339509351146103be578063402d267d146103d15780634a41dde0146103e65780634cdad506146102c957806366666aa9146103ee5780636e553f651461041557600080fd5b80632f2ff15d14610340578063313ce5671461035557806336568abe1461036f57806337a7b7d81461038257806338d52e0f146103b657600080fd5b8063095ea7b311610226578063095ea7b3146102dc5780630a28a477146102ef57806318160ddd1461030257806323b872dd1461030a578063248a9ca31461031d57600080fd5b80630144bc3a1461026357806301e1d1141461028957806301ffc9a71461029157806306fdde03146102b457806307a2d13a146102c9575b600080fd5b610276610271366004612913565b6105ff565b6040519081526020015b60405180910390f35b610276610aa5565b6102a461029f3660046129d7565b610b3a565b6040519015158152602001610280565b6102bc610b71565b6040516102809190612a25565b6102766102d7366004612a58565b610c03565b6102a46102ea366004612a8d565b610c10565b6102766102fd366004612a58565b610c28565b600254610276565b6102a4610318366004612ab7565b610c35565b61027661032b366004612a58565b60009081526005602052604090206001015490565b61035361034e366004612af3565b610c5b565b005b61035d610c85565b60405160ff9091168152602001610280565b61035361037d366004612af3565b610cb1565b6103a97f000000000000000000000000000000000000000000000000000000000000000081565b6040516102809190612b1f565b6103a9610d2f565b6102a46103cc366004612a8d565b610d53565b6102766103df366004612b33565b5060001990565b610276610d75565b6103a97f000000000000000000000000000000000000000000000000000000000000000081565b610276610423366004612af3565b610f76565b610276610436366004612b33565b611056565b6006546104699063ffffffff80821691600160201b810490911690600160401b90046001600160a01b031683565b6040805163ffffffff94851681529390921660208401526001600160a01b031690820152606001610280565b6102a46104a3366004612af3565b611071565b6102766104b6366004612af3565b61109c565b6102bc611131565b6104ea7f000000000000000000000000000000000000000000000000000000000000000081565b60405163ffffffff9091168152602001610280565b610276600081565b6102a4610515366004612a8d565b611140565b6102a4610528366004612a8d565b6111c6565b61027661053b366004612a58565b6111d4565b61027661054e366004612b4e565b6111e1565b610276610561366004612b4e565b6112e6565b6102a4610574366004612b9e565b6113e3565b610276610587366004612a58565b61153b565b61027661059a366004612b33565b611548565b6103536105ad366004612af3565b61155d565b6102766105c0366004612b33565b611582565b6104ea7f000000000000000000000000000000000000000000000000000000000000000081565b6102766105fa366004612bca565b61158d565b60007f00000000000000000000000000000000000000000000000000000000000000006001600160a01b0316633d18b9126040518163ffffffff1660e01b81526004016020604051808303816000875af1158015610661573d6000803e3d6000fd5b505050506040513d601f19601f820116820180604052508101906106859190612bf4565b506040805160608101825260065463ffffffff8082168352600160201b8204166020830152600160401b90046001600160a01b03169181019190915283516107019085906000906106d8576106d8612c16565b6020026020010151856001815181106106f3576106f3612c16565b6020026020010151836115b8565b9150828211156107445760405162461bcd60e51b815260206004820152600960248201526821536c69707061676560b81b60448201526064015b60405180910390fd5b610763333084610752610d2f565b6001600160a01b0316929190611885565b6107a07f000000000000000000000000000000000000000000000000000000000000000083610790610d2f565b6001600160a01b031691906118f6565b604051636e553f6560e01b81526001600160a01b037f00000000000000000000000000000000000000000000000000000000000000001690636e553f65906107ee9085903090600401612c2c565b6020604051808303816000875af115801561080d573d6000803e3d6000fd5b505050506040513d601f19601f820116820180604052508101906108319190612c43565b506108938160400151612710836020015163ffffffff168760008151811061085b5761085b612c16565b602002602001015161086d9190612c72565b6108779190612c9f565b73ba100000625a3754423978a60c9317c58a424e3d9190611a0b565b6108df33856000815181106108aa576108aa612c16565b602002602001015173ba100000625a3754423978a60c9317c58a424e3d6001600160a01b0316611a0b9092919063ffffffff16565b636841755e421161099c5761094b8160400151612710836020015163ffffffff168760018151811061091357610913612c16565b60200260200101516109259190612c72565b61092f9190612c9f565b73c0c293ce456ff0ed870add98a0828dd4d2903dbf9190611a0b565b610997338560018151811061096257610962612c16565b602002602001015173c0c293ce456ff0ed870add98a0828dd4d2903dbf6001600160a01b0316611a0b9092919063ffffffff16565b610a1e565b60408082015190516370a0823160e01b8152610a1e919073c0c293ce456ff0ed870add98a0828dd4d2903dbf906370a08231906109dd903090600401612b1f565b602060405180830381865afa1580156109fa573d6000803e3d6000fd5b505050506040513d601f19601f8201168201806040525081019061092f9190612c43565b336001600160a01b03167f9cdcf2f7714cca3508c7f0110b04a90a80a3a8dd0e35de99689db74d28c5383e85600081518110610a5c57610a5c612c16565b602002602001015186600181518110610a7757610a77612c16565b6020908102919091018101516040805193845291830152810185905260600160405180910390a25092915050565b6040516370a0823160e01b81526000906001600160a01b037f000000000000000000000000000000000000000000000000000000000000000016906370a0823190610af4903090600401612b1f565b602060405180830381865afa158015610b11573d6000803e3d6000fd5b505050506040513d601f19601f82011682018060405250810190610b359190612c43565b905090565b60006001600160e01b03198216637965db0b60e01b1480610b6b57506301ffc9a760e01b6001600160e01b03198316145b92915050565b606060038054610b8090612cc1565b80601f0160208091040260200160405190810160405280929190818152602001828054610bac90612cc1565b8015610bf95780601f10610bce57610100808354040283529160200191610bf9565b820191906000526020600020905b815481529060010190602001808311610bdc57829003601f168201915b5050505050905090565b6000610b6b826000611a3b565b600033610c1e818585611a8a565b5060019392505050565b6000610b6b826001611bae565b600033610c43858285611bf4565b610c4e858585611c68565b60019150505b9392505050565b600082815260056020526040902060010154610c7681611dfa565b610c808383611e07565b505050565b6000610b35817f0000000000000000000000000000000000000000000000000000000000000000612cfb565b6001600160a01b0381163314610d215760405162461bcd60e51b815260206004820152602f60248201527f416363657373436f6e74726f6c3a2063616e206f6e6c792072656e6f756e636560448201526e103937b632b9903337b91039b2b63360891b606482015260840161073b565b610d2b8282611e8d565b5050565b7f000000000000000000000000000000000000000000000000000000000000000090565b600033610c1e818585610d66838361158d565b610d709190612d14565b611a8a565b6040805160608101825260065463ffffffff8082168352600160201b8204166020830152600160401b90046001600160a01b03168183015290516370a0823160e01b815260009190829073ba100000625a3754423978a60c9317c58a424e3d906370a0823190610de9903090600401612b1f565b602060405180830381865afa158015610e06573d6000803e3d6000fd5b505050506040513d601f19601f82011682018060405250810190610e2a9190612c43565b6040516246613160e11b81526001600160a01b037f00000000000000000000000000000000000000000000000000000000000000001690628cc26290610e74903090600401612b1f565b602060405180830381865afa158015610e91573d6000803e3d6000fd5b505050506040513d601f19601f82011682018060405250810190610eb59190612c43565b610ebf9190612d14565b90506000636841755e4211610f5e576040516370a0823160e01b815273c0c293ce456ff0ed870add98a0828dd4d2903dbf906370a0823190610f05903090600401612b1f565b602060405180830381865afa158015610f22573d6000803e3d6000fd5b505050506040513d601f19601f82011682018060405250810190610f469190612c43565b610f4f83611ef4565b610f599190612d14565b610f61565b60005b9050610f6e8282856115b8565b935050505090565b600080610f828461153b565b9050610f9033848684612033565b610fbd7f000000000000000000000000000000000000000000000000000000000000000085610790610d2f565b604051636e553f6560e01b81526001600160a01b037f00000000000000000000000000000000000000000000000000000000000000001690636e553f659061100b9087903090600401612c2c565b6020604051808303816000875af115801561102a573d6000803e3d6000fd5b505050506040513d601f19601f8201168201806040525081019061104e9190612c43565b509392505050565b6001600160a01b031660009081526020819052604090205490565b60009182526005602090815260408084206001600160a01b0393909316845291905290205460ff1690565b6000806110a8846111d4565b90506110b633848387612033565b6110e37f000000000000000000000000000000000000000000000000000000000000000082610790610d2f565b604051636e553f6560e01b81526001600160a01b037f00000000000000000000000000000000000000000000000000000000000000001690636e553f659061100b9084903090600401612c2c565b606060048054610b8090612cc1565b6000338161114e828661158d565b9050838110156111ae5760405162461bcd60e51b815260206004820152602560248201527f45524332303a2064656372656173656420616c6c6f77616e63652062656c6f77604482015264207a65726f60d81b606482015260840161073b565b6111bb8286868403611a8a565b506001949350505050565b600033610c1e818585611c68565b6000610b6b826001611a3b565b60006111ec82611548565b84111561123b5760405162461bcd60e51b815260206004820152601f60248201527f455243343632363a207769746864726177206d6f7265207468616e206d617800604482015260640161073b565b600061124685610c28565b604051632d182be560e21b81529091506001600160a01b037f0000000000000000000000000000000000000000000000000000000000000000169063b460af949061129990889030908190600401612d27565b600060405180830381600087803b1580156112b357600080fd5b505af11580156112c7573d6000803e3d6000fd5b505050506112de6112d53390565b858588856120c5565b949350505050565b60006112f182611582565b8411156113405760405162461bcd60e51b815260206004820152601d60248201527f455243343632363a2072656465656d206d6f7265207468616e206d6178000000604482015260640161073b565b600061134b85610c03565b604051632d182be560e21b81529091506001600160a01b037f0000000000000000000000000000000000000000000000000000000000000000169063b460af949061139e90849030908190600401612d27565b600060405180830381600087803b1580156113b857600080fd5b505af11580156113cc573d6000803e3d6000fd5b505050506112de6113da3390565b858584896120c5565b60007f7edcee67725a77bfa311b39349d7e96df9b23fbdbdcb328dfc17d77926920c1361140f81611dfa565b7f000000000000000000000000000000000000000000000000000000000000000063ffffffff168563ffffffff16111561145b5760405162461bcd60e51b815260040161073b90612d46565b7f000000000000000000000000000000000000000000000000000000000000000063ffffffff168463ffffffff1611156114a75760405162461bcd60e51b815260040161073b90612d46565b6001600160a01b0383166114cd5760405162461bcd60e51b815260040161073b90612d46565b50506040805160608101825263ffffffff94851680825293909416602085018190526001600160a01b039290921693018390526006805467ffffffffffffffff1916909217600160201b90910217600160401b600160e01b031916600160401b909202919091179055600190565b6000610b6b826000611bae565b6000610b6b61155683611056565b6000611a3b565b60008281526005602052604090206001015461157881611dfa565b610c808383611e8d565b6000610b6b82611056565b6001600160a01b03918216600090815260016020908152604080832093909416825291909152205490565b60007f00000000000000000000000000000000000000000000000000000000000000006001600160a01b0316632cbf04c16115f1610d2f565b6040518263ffffffff1660e01b815260040161160d9190612b1f565b602060405180830381865afa15801561162a573d6000803e3d6000fd5b505050506040513d601f19601f8201168201806040525081019061164e9190612c43565b604051632cbf04c160e01b81526001600160a01b037f00000000000000000000000000000000000000000000000000000000000000001690632cbf04c1906116ae9073ba100000625a3754423978a60c9317c58a424e3d90600401612b1f565b602060405180830381865afa1580156116cb573d6000803e3d6000fd5b505050506040513d601f19601f820116820180604052508101906116ef9190612c43565b6116f99086612c72565b6117039190612c9f565b90507f00000000000000000000000000000000000000000000000000000000000000006001600160a01b0316632cbf04c161173c610d2f565b6040518263ffffffff1660e01b81526004016117589190612b1f565b602060405180830381865afa158015611775573d6000803e3d6000fd5b505050506040513d601f19601f820116820180604052508101906117999190612c43565b604051632cbf04c160e01b81526001600160a01b037f00000000000000000000000000000000000000000000000000000000000000001690632cbf04c1906117f99073c0c293ce456ff0ed870add98a0828dd4d2903dbf90600401612b1f565b602060405180830381865afa158015611816573d6000803e3d6000fd5b505050506040513d601f19601f8201168201806040525081019061183a9190612c43565b6118449085612c72565b61184e9190612c9f565b6118589082612d14565b8251909150612710906118719063ffffffff1682612d67565b61187b9083612c72565b6112de9190612c9f565b6040516001600160a01b03808516602483015283166044820152606481018290526118f09085906323b872dd60e01b906084015b60408051601f198184030181529190526020810180516001600160e01b03166001600160e01b031990931692909217909152612185565b50505050565b8015806119705750604051636eb1769f60e11b81523060048201526001600160a01b03838116602483015284169063dd62ed3e90604401602060405180830381865afa15801561194a573d6000803e3d6000fd5b505050506040513d601f19601f8201168201806040525081019061196e9190612c43565b155b6119db5760405162461bcd60e51b815260206004820152603660248201527f5361666545524332303a20617070726f76652066726f6d206e6f6e2d7a65726f60448201527520746f206e6f6e2d7a65726f20616c6c6f77616e636560501b606482015260840161073b565b6040516001600160a01b038316602482015260448101829052610c8090849063095ea7b360e01b906064016118b9565b6040516001600160a01b038316602482015260448101829052610c8090849063a9059cbb60e01b906064016118b9565b600080611a46610d75565b611a4e610aa5565b611a589190612d14565b90506112de611a68826001612d14565b611a746000600a612e5e565b600254611a819190612d14565b8691908661225a565b6001600160a01b038316611aec5760405162461bcd60e51b8152602060048201526024808201527f45524332303a20617070726f76652066726f6d20746865207a65726f206164646044820152637265737360e01b606482015260840161073b565b6001600160a01b038216611b4d5760405162461bcd60e51b815260206004820152602260248201527f45524332303a20617070726f766520746f20746865207a65726f206164647265604482015261737360f01b606482015260840161073b565b6001600160a01b0383811660008181526001602090815260408083209487168084529482529182902085905590518481527f8c5be1e5ebec7d5bd14f71427d1e84f3dd0314c0f7b2291e5b200ac8c7c3b925910160405180910390a3505050565b600080611bb9610d75565b611bc1610aa5565b611bcb9190612d14565b90506112de611bdc6000600a612e5e565b600254611be99190612d14565b611a81836001612d14565b6000611c00848461158d565b905060001981146118f05781811015611c5b5760405162461bcd60e51b815260206004820152601d60248201527f45524332303a20696e73756666696369656e7420616c6c6f77616e6365000000604482015260640161073b565b6118f08484848403611a8a565b6001600160a01b038316611ccc5760405162461bcd60e51b815260206004820152602560248201527f45524332303a207472616e736665722066726f6d20746865207a65726f206164604482015264647265737360d81b606482015260840161073b565b6001600160a01b038216611d2e5760405162461bcd60e51b815260206004820152602360248201527f45524332303a207472616e7366657220746f20746865207a65726f206164647260448201526265737360e81b606482015260840161073b565b6001600160a01b03831660009081526020819052604090205481811015611da65760405162461bcd60e51b815260206004820152602660248201527f45524332303a207472616e7366657220616d6f756e7420657863656564732062604482015265616c616e636560d01b606482015260840161073b565b6001600160a01b0384811660008181526020818152604080832087870390559387168083529184902080548701905592518581529092600080516020612f26833981519152910160405180910390a36118f0565b611e0481336122b7565b50565b611e118282611071565b610d2b5760008281526005602090815260408083206001600160a01b03851684529091529020805460ff19166001179055611e493390565b6001600160a01b0316816001600160a01b0316837f2f8788117e7eff1d82e926ec794901d17c78024a50270940304540a733656f0d60405160405180910390a45050565b611e978282611071565b15610d2b5760008281526005602090815260408083206001600160a01b0385168085529252808320805460ff1916905551339285917ff6391f5c32d9c69d2a47ea670b442974b53935d1edc7fd64eb21e047a839171b9190a45050565b60008073c0c293ce456ff0ed870add98a0828dd4d2903dbf6001600160a01b03166318160ddd6040518163ffffffff1660e01b8152600401602060405180830381865afa158015611f49573d6000803e3d6000fd5b505050506040513d601f19601f82011682018060405250810190611f6d9190612c43565b905060008080611f886a295be96e6406697200000085612d67565b611f929190612d67565b90506000611faa69152d02c7e14af680000083612c9f565b90506101f481101561202a5760006002611fc6836101f4612d67565b611fd1906005612c72565b611fdb9190612c9f565b611fe7906102bc612d14565b90506101f4611ff68289612c72565b6120009190612c9f565b95506000612019846a295be96e64066972000000612d67565b905080871115612027578096505b50505b50505050919050565b61205f7f0000000000000000000000000000000000000000000000000000000000000000853085611885565b6120698382612310565b826001600160a01b0316846001600160a01b03167fdcbc1c05240f31ff3ad067ef1ee35ce4997762752e3a095284754544f4c709d784846040516120b7929190918252602082015260400190565b60405180910390a350505050565b826001600160a01b0316856001600160a01b0316146120e9576120e9838683611bf4565b6120f383826123bd565b61211e7f00000000000000000000000000000000000000000000000000000000000000008584611a0b565b826001600160a01b0316846001600160a01b0316866001600160a01b03167ffbde797d201c681b91056529119e0b02407c7bb96a4a2c75c01fc9667232c8db8585604051612176929190918252602082015260400190565b60405180910390a45050505050565b60006121da826040518060400160405280602081526020017f5361666545524332303a206c6f772d6c6576656c2063616c6c206661696c6564815250856001600160a01b03166124dd9092919063ffffffff16565b90508051600014806121fb5750808060200190518101906121fb9190612bf4565b610c805760405162461bcd60e51b815260206004820152602a60248201527f5361666545524332303a204552433230206f7065726174696f6e20646964206e6044820152691bdd081cdd58d8d9595960b21b606482015260840161073b565b6000806122688686866124ec565b9050600183600281111561227e5761227e612e6d565b14801561229b57506000848061229657612296612c89565b868809115b156122ae576122ab600182612d14565b90505b95945050505050565b6122c18282611071565b610d2b576122ce816125d6565b6122d98360206125e8565b6040516020016122ea929190612e83565b60408051601f198184030181529082905262461bcd60e51b825261073b91600401612a25565b6001600160a01b0382166123665760405162461bcd60e51b815260206004820152601f60248201527f45524332303a206d696e7420746f20746865207a65726f206164647265737300604482015260640161073b565b80600260008282546123789190612d14565b90915550506001600160a01b03821660008181526020818152604080832080548601905551848152600080516020612f26833981519152910160405180910390a35050565b6001600160a01b03821661241d5760405162461bcd60e51b815260206004820152602160248201527f45524332303a206275726e2066726f6d20746865207a65726f206164647265736044820152607360f81b606482015260840161073b565b6001600160a01b038216600090815260208190526040902054818110156124915760405162461bcd60e51b815260206004820152602260248201527f45524332303a206275726e20616d6f756e7420657863656564732062616c616e604482015261636560f01b606482015260840161073b565b6001600160a01b038316600081815260208181526040808320868603905560028054879003905551858152919291600080516020612f26833981519152910160405180910390a3505050565b60606112de8484600085612784565b60008080600019858709858702925082811083820303915050806000036125265783828161251c5761251c612c89565b0492505050610c54565b80841161256d5760405162461bcd60e51b81526020600482015260156024820152744d6174683a206d756c446976206f766572666c6f7760581b604482015260640161073b565b60008486880960026001871981018816978890046003810283188082028403028082028403028082028403028082028403028082028403029081029092039091026000889003889004909101858311909403939093029303949094049190911702949350505050565b6060610b6b6001600160a01b03831660145b606060006125f7836002612c72565b612602906002612d14565b67ffffffffffffffff81111561261a5761261a6128fd565b6040519080825280601f01601f191660200182016040528015612644576020820181803683370190505b509050600360fc1b8160008151811061265f5761265f612c16565b60200101906001600160f81b031916908160001a905350600f60fb1b8160018151811061268e5761268e612c16565b60200101906001600160f81b031916908160001a90535060006126b2846002612c72565b6126bd906001612d14565b90505b6001811115612735576f181899199a1a9b1b9c1cb0b131b232b360811b85600f16601081106126f1576126f1612c16565b1a60f81b82828151811061270757612707612c16565b60200101906001600160f81b031916908160001a90535060049490941c9361272e81612ef2565b90506126c0565b508315610c545760405162461bcd60e51b815260206004820181905260248201527f537472696e67733a20686578206c656e67746820696e73756666696369656e74604482015260640161073b565b6060824710156127e55760405162461bcd60e51b815260206004820152602660248201527f416464726573733a20696e73756666696369656e742062616c616e636520666f6044820152651c8818d85b1b60d21b606482015260840161073b565b600080866001600160a01b031685876040516128019190612f09565b60006040518083038185875af1925050503d806000811461283e576040519150601f19603f3d011682016040523d82523d6000602084013e612843565b606091505b50915091506128548783838761285f565b979650505050505050565b606083156128ce5782516000036128c7576001600160a01b0385163b6128c75760405162461bcd60e51b815260206004820152601d60248201527f416464726573733a2063616c6c20746f206e6f6e2d636f6e7472616374000000604482015260640161073b565b50816112de565b6112de83838151156128e35781518083602001fd5b8060405162461bcd60e51b815260040161073b9190612a25565b634e487b7160e01b600052604160045260246000fd5b6000806040838503121561292657600080fd5b823567ffffffffffffffff8082111561293e57600080fd5b818501915085601f83011261295257600080fd5b8135602082821115612966576129666128fd565b8160051b604051601f19603f8301168101818110868211171561298b5761298b6128fd565b6040529283528183019350848101820192898411156129a957600080fd5b948201945b838610156129c7578535855294820194938201936129ae565b9997909101359750505050505050565b6000602082840312156129e957600080fd5b81356001600160e01b031981168114610c5457600080fd5b60005b83811015612a1c578181015183820152602001612a04565b50506000910152565b6020815260008251806020840152612a44816040850160208701612a01565b601f01601f19169190910160400192915050565b600060208284031215612a6a57600080fd5b5035919050565b80356001600160a01b0381168114612a8857600080fd5b919050565b60008060408385031215612aa057600080fd5b612aa983612a71565b946020939093013593505050565b600080600060608486031215612acc57600080fd5b612ad584612a71565b9250612ae360208501612a71565b9150604084013590509250925092565b60008060408385031215612b0657600080fd5b82359150612b1660208401612a71565b90509250929050565b6001600160a01b0391909116815260200190565b600060208284031215612b4557600080fd5b610c5482612a71565b600080600060608486031215612b6357600080fd5b83359250612b7360208501612a71565b9150612b8160408501612a71565b90509250925092565b803563ffffffff81168114612a8857600080fd5b600080600060608486031215612bb357600080fd5b612bbc84612b8a565b9250612b7360208501612b8a565b60008060408385031215612bdd57600080fd5b612be683612a71565b9150612b1660208401612a71565b600060208284031215612c0657600080fd5b81518015158114610c5457600080fd5b634e487b7160e01b600052603260045260246000fd5b9182526001600160a01b0316602082015260400190565b600060208284031215612c5557600080fd5b5051919050565b634e487b7160e01b600052601160045260246000fd5b8082028115828204841417610b6b57610b6b612c5c565b634e487b7160e01b600052601260045260246000fd5b600082612cbc57634e487b7160e01b600052601260045260246000fd5b500490565b600181811c90821680612cd557607f821691505b602082108103612cf557634e487b7160e01b600052602260045260246000fd5b50919050565b60ff8181168382160190811115610b6b57610b6b612c5c565b80820180821115610b6b57610b6b612c5c565b9283526001600160a01b03918216602084015216604082015260600190565b60208082526007908201526621436f6e66696760c81b604082015260600190565b81810381811115610b6b57610b6b612c5c565b600181815b80851115612db5578160001904821115612d9b57612d9b612c5c565b80851615612da857918102915b93841c9390800290612d7f565b509250929050565b600082612dcc57506001610b6b565b81612dd957506000610b6b565b8160018114612def5760028114612df957612e15565b6001915050610b6b565b60ff841115612e0a57612e0a612c5c565b50506001821b610b6b565b5060208310610133831016604e8410600b8410161715612e38575081810a610b6b565b612e428383612d7a565b8060001904821115612e5657612e56612c5c565b029392505050565b6000610c5460ff841683612dbd565b634e487b7160e01b600052602160045260246000fd5b76020b1b1b2b9b9a1b7b73a3937b61d1030b1b1b7bab73a1604d1b815260008351612eb5816017850160208801612a01565b7001034b99036b4b9b9b4b733903937b6329607d1b6017918401918201528351612ee6816028840160208801612a01565b01602801949350505050565b600081612f0157612f01612c5c565b506000190190565b60008251612f1b818460208701612a01565b919091019291505056feddf252ad1be2c89b69c2b068fc378daa952ba7f163c4a11628f55a4df523b3efa2646970667358221220aa5fb37dc819b95c2f5a38100dabab0342860338294aa7b83d8dfe6f1c1f5a4f64736f6c63430008130033",
    "linkReferences": {}
  },
  "methodIdentifiers": {
    "DEFAULT_ADMIN_ROLE()": "a217fddf",
    "allowance(address,address)": "dd62ed3e",
    "approve(address,uint256)": "095ea7b3",
    "asset()": "38d52e0f",
    "balanceOf(address)": "70a08231",
    "claim(uint256[],uint256)": "0144bc3a",
    "convertToAssets(uint256)": "07a2d13a",
    "convertToShares(uint256)": "c6e6f592",
    "decimals()": "313ce567",
    "decreaseAllowance(address,uint256)": "a457c2d7",
    "deposit(uint256,address)": "6e553f65",
    "feed()": "37a7b7d8",
    "getRoleAdmin(bytes32)": "248a9ca3",
    "grantRole(bytes32,address)": "2f2ff15d",
    "hasRole(bytes32,address)": "91d14854",
    "increaseAllowance(address,uint256)": "39509351",
    "maxClaimerIncentive()": "db0b15e9",
    "maxDeposit(address)": "402d267d",
    "maxLockerIncentive()": "97bc65b3",
    "maxMint(address)": "c63d75b6",
    "maxRedeem(address)": "d905777e",
    "maxWithdraw(address)": "ce96cb77",
    "mint(uint256,address)": "94bf804d",
    "name()": "06fdde03",
    "previewDeposit(uint256)": "ef8b30f7",
    "previewMint(uint256)": "b3d7f6b9",
    "previewRedeem(uint256)": "4cdad506",
    "previewReward()": "4a41dde0",
    "previewWithdraw(uint256)": "0a28a477",
    "redeem(uint256,address,address)": "ba087652",
    "renounceRole(bytes32,address)": "36568abe",
    "revokeRole(bytes32,address)": "d547741f",
    "rewardPool()": "66666aa9",
    "setVaultConfig(uint32,uint32,address)": "c525e0db",
    "supportsInterface(bytes4)": "01ffc9a7",
    "symbol()": "95d89b41",
    "totalAssets()": "01e1d114",
    "totalSupply()": "18160ddd",
    "transfer(address,uint256)": "a9059cbb",
    "transferFrom(address,address,uint256)": "23b872dd",
    "vaultConfig()": "7cc34bb4",
    "withdraw(uint256,address,address)": "b460af94"
  },
  "id": 186
}