{
  "abi": [
    {
      "inputs": [
        {
          "internalType": "contract AggregatorV3Interface",
          "name": "aggregator_",
          "type": "address"
        },
        {
          "internalType": "uint256",
          "name": "stalePeriod_",
          "type": "uint256"
        }
      ],
      "stateMutability": "nonpayable",
      "type": "constructor"
    },
    {
      "inputs": [],
      "name": "ChainlinkOracle__authorizeUpgrade_validStatus",
      "type": "error"
    },
    {
      "inputs": [],
      "name": "ChainlinkOracle__spot_invalidValue",
      "type": "error"
    },
    {
      "anonymous": false,
      "inputs": [
        {
          "indexed": false,
          "internalType": "address",
          "name": "previousAdmin",
          "type": "address"
        },
        {
          "indexed": false,
          "internalType": "address",
          "name": "newAdmin",
          "type": "address"
        }
      ],
      "name": "AdminChanged",
      "type": "event"
    },
    {
      "anonymous": false,
      "inputs": [
        {
          "indexed": true,
          "internalType": "address",
          "name": "beacon",
          "type": "address"
        }
      ],
      "name": "BeaconUpgraded",
      "type": "event"
    },
    {
      "anonymous": false,
      "inputs": [
        {
          "indexed": false,
          "internalType": "uint8",
          "name": "version",
          "type": "uint8"
        }
      ],
      "name": "Initialized",
      "type": "event"
    },
    {
      "anonymous": false,
      "inputs": [
        {
          "indexed": true,
          "internalType": "bytes32",
          "name": "role",
          "type": "bytes32"
        },
        {
          "indexed": true,
          "internalType": "bytes32",
          "name": "previousAdminRole",
          "type": "bytes32"
        },
        {
          "indexed": true,
          "internalType": "bytes32",
          "name": "newAdminRole",
          "type": "bytes32"
        }
      ],
      "name": "RoleAdminChanged",
      "type": "event"
    },
    {
      "anonymous": false,
      "inputs": [
        {
          "indexed": true,
          "internalType": "bytes32",
          "name": "role",
          "type": "bytes32"
        },
        {
          "indexed": true,
          "internalType": "address",
          "name": "account",
          "type": "address"
        },
        {
          "indexed": true,
          "internalType": "address",
          "name": "sender",
          "type": "address"
        }
      ],
      "name": "RoleGranted",
      "type": "event"
    },
    {
      "anonymous": false,
      "inputs": [
        {
          "indexed": true,
          "internalType": "bytes32",
          "name": "role",
          "type": "bytes32"
        },
        {
          "indexed": true,
          "internalType": "address",
          "name": "account",
          "type": "address"
        },
        {
          "indexed": true,
          "internalType": "address",
          "name": "sender",
          "type": "address"
        }
      ],
      "name": "RoleRevoked",
      "type": "event"
    },
    {
      "anonymous": false,
      "inputs": [
        {
          "indexed": true,
          "internalType": "address",
          "name": "implementation",
          "type": "address"
        }
      ],
      "name": "Upgraded",
      "type": "event"
    },
    {
      "inputs": [],
      "name": "DEFAULT_ADMIN_ROLE",
      "outputs": [
        {
          "internalType": "bytes32",
          "name": "",
          "type": "bytes32"
        }
      ],
      "stateMutability": "view",
      "type": "function"
    },
    {
      "inputs": [],
      "name": "aggregator",
      "outputs": [
        {
          "internalType": "contract AggregatorV3Interface",
          "name": "",
          "type": "address"
        }
      ],
      "stateMutability": "view",
      "type": "function"
    },
    {
      "inputs": [],
      "name": "aggregatorScale",
      "outputs": [
        {
          "internalType": "uint256",
          "name": "",
          "type": "uint256"
        }
      ],
      "stateMutability": "view",
      "type": "function"
    },
    {
      "inputs": [
        {
          "internalType": "bytes32",
          "name": "role",
          "type": "bytes32"
        }
      ],
      "name": "getRoleAdmin",
      "outputs": [
        {
          "internalType": "bytes32",
          "name": "",
          "type": "bytes32"
        }
      ],
      "stateMutability": "view",
      "type": "function"
    },
    {
      "inputs": [
        {
          "internalType": "address",
          "name": "",
          "type": "address"
        }
      ],
      "name": "getStatus",
      "outputs": [
        {
          "internalType": "bool",
          "name": "status",
          "type": "bool"
        }
      ],
      "stateMutability": "view",
      "type": "function"
    },
    {
      "inputs": [
        {
          "internalType": "bytes32",
          "name": "role",
          "type": "bytes32"
        },
        {
          "internalType": "address",
          "name": "account",
          "type": "address"
        }
      ],
      "name": "grantRole",
      "outputs": [],
      "stateMutability": "nonpayable",
      "type": "function"
    },
    {
      "inputs": [
        {
          "internalType": "bytes32",
          "name": "role",
          "type": "bytes32"
        },
        {
          "internalType": "address",
          "name": "account",
          "type": "address"
        }
      ],
      "name": "hasRole",
      "outputs": [
        {
          "internalType": "bool",
          "name": "",
          "type": "bool"
        }
      ],
      "stateMutability": "view",
      "type": "function"
    },
    {
      "inputs": [
        {
          "internalType": "address",
          "name": "admin",
          "type": "address"
        },
        {
          "internalType": "address",
          "name": "manager",
          "type": "address"
        }
      ],
      "name": "initialize",
      "outputs": [],
      "stateMutability": "nonpayable",
      "type": "function"
    },
    {
      "inputs": [],
      "name": "proxiableUUID",
      "outputs": [
        {
          "internalType": "bytes32",
          "name": "",
          "type": "bytes32"
        }
      ],
      "stateMutability": "view",
      "type": "function"
    },
    {
      "inputs": [
        {
          "internalType": "bytes32",
          "name": "role",
          "type": "bytes32"
        },
        {
          "internalType": "address",
          "name": "account",
          "type": "address"
        }
      ],
      "name": "renounceRole",
      "outputs": [],
      "stateMutability": "nonpayable",
      "type": "function"
    },
    {
      "inputs": [
        {
          "internalType": "bytes32",
          "name": "role",
          "type": "bytes32"
        },
        {
          "internalType": "address",
          "name": "account",
          "type": "address"
        }
      ],
      "name": "revokeRole",
      "outputs": [],
      "stateMutability": "nonpayable",
      "type": "function"
    },
    {
      "inputs": [
        {
          "internalType": "address",
          "name": "",
          "type": "address"
        }
      ],
      "name": "spot",
      "outputs": [
        {
          "internalType": "uint256",
          "name": "price",
          "type": "uint256"
        }
      ],
      "stateMutability": "view",
      "type": "function"
    },
    {
      "inputs": [],
      "name": "stalePeriod",
      "outputs": [
        {
          "internalType": "uint256",
          "name": "",
          "type": "uint256"
        }
      ],
      "stateMutability": "view",
      "type": "function"
    },
    {
      "inputs": [
        {
          "internalType": "bytes4",
          "name": "interfaceId",
          "type": "bytes4"
        }
      ],
      "name": "supportsInterface",
      "outputs": [
        {
          "internalType": "bool",
          "name": "",
          "type": "bool"
        }
      ],
      "stateMutability": "view",
      "type": "function"
    },
    {
      "inputs": [
        {
          "internalType": "address",
          "name": "newImplementation",
          "type": "address"
        }
      ],
      "name": "upgradeTo",
      "outputs": [],
      "stateMutability": "nonpayable",
      "type": "function"
    },
    {
      "inputs": [
        {
          "internalType": "address",
          "name": "newImplementation",
          "type": "address"
        },
        {
          "internalType": "bytes",
          "name": "data",
          "type": "bytes"
        }
      ],
      "name": "upgradeToAndCall",
      "outputs": [],
      "stateMutability": "payable",
      "type": "function"
    }
  ],
  "bytecode": {
    "object": "0x610100604052306080523480156200001657600080fd5b5060405162001983380380620019838339810160408190526200003991620001db565b600054610100900460ff16158080156200005a5750600054600160ff909116105b80620000765750303b15801562000076575060005460ff166001145b620000de5760405162461bcd60e51b815260206004820152602e60248201527f496e697469616c697a61626c653a20636f6e747261637420697320616c72656160448201526d191e481a5b9a5d1a585b1a5e995960921b606482015260840160405180910390fd5b6000805460ff19166001179055801562000102576000805461ff0019166101001790555b6001600160a01b03831660a081905260c08390526040805163313ce56760e01b8152905163313ce567916004808201926020929091908290030181865afa15801562000152573d6000803e3d6000fd5b505050506040513d601f19601f8201168201806040525081019062000178919062000217565b620001889060ff16600a62000358565b60e0528015620001d2576000805461ff0019169055604051600181527f7f26b83ff96e1f2b6a682f133852f6798a09c465da95921460cefb38474024989060200160405180910390a15b50505062000366565b60008060408385031215620001ef57600080fd5b82516001600160a01b03811681146200020757600080fd5b6020939093015192949293505050565b6000602082840312156200022a57600080fd5b815160ff811681146200023c57600080fd5b9392505050565b634e487b7160e01b600052601160045260246000fd5b600181815b808511156200029a5781600019048211156200027e576200027e62000243565b808516156200028c57918102915b93841c93908002906200025e565b509250929050565b600082620002b35750600162000352565b81620002c25750600062000352565b8160018114620002db5760028114620002e65762000306565b600191505062000352565b60ff841115620002fa57620002fa62000243565b50506001821b62000352565b5060208310610133831016604e8410600b84101617156200032b575081810a62000352565b62000337838362000259565b80600019048211156200034e576200034e62000243565b0290505b92915050565b60006200023c8383620002a2565b60805160a05160c05160e0516115b2620003d1600039600081816102fc01526109030152600081816102c801526108ce01526000818161011f0152610826015260008181610469015281816104a901528181610678015281816106b8015261073001526115b26000f3fe6080604052600436106100d35760003560e01c8063485cc9551161007a578063485cc955146102395780634f1ef2861461025957806352d1902d1461026c57806391d1485414610281578063a217fddf146102a1578063a5b36a36146102b6578063aca768a1146102ea578063d547741f1461031e57600080fd5b806301ffc9a7146100d8578063245a7bfc1461010d578063248a9ca3146101595780632cbf04c1146101975780632f2ff15d146101b757806330ccebb5146101d957806336568abe146101f95780633659cfe614610219575b600080fd5b3480156100e457600080fd5b506100f86100f3366004611113565b61033e565b60405190151581526020015b60405180910390f35b34801561011957600080fd5b506101417f000000000000000000000000000000000000000000000000000000000000000081565b6040516001600160a01b039091168152602001610104565b34801561016557600080fd5b5061018961017436600461113d565b60009081526065602052604090206001015490565b604051908152602001610104565b3480156101a357600080fd5b506101896101b2366004611172565b610375565b3480156101c357600080fd5b506101d76101d236600461118d565b6103a8565b005b3480156101e557600080fd5b506100f86101f4366004611172565b6103d2565b34801561020557600080fd5b506101d761021436600461118d565b6103dc565b34801561022557600080fd5b506101d7610234366004611172565b61045f565b34801561024557600080fd5b506101d76102543660046111b9565b610527565b6101d76102673660046111f9565b61066e565b34801561027857600080fd5b50610189610723565b34801561028d57600080fd5b506100f861029c36600461118d565b6107d1565b3480156102ad57600080fd5b50610189600081565b3480156102c257600080fd5b506101897f000000000000000000000000000000000000000000000000000000000000000081565b3480156102f657600080fd5b506101897f000000000000000000000000000000000000000000000000000000000000000081565b34801561032a57600080fd5b506101d761033936600461118d565b6107fc565b60006001600160e01b03198216637965db0b60e01b148061036f57506301ffc9a760e01b6001600160e01b03198316145b92915050565b600080610380610821565b92509050806103a257604051636bcf711f60e01b815260040160405180910390fd5b50919050565b6000828152606560205260409020600101546103c381610938565b6103cd8383610942565b505050565b600061036f6109c8565b6001600160a01b03811633146104515760405162461bcd60e51b815260206004820152602f60248201527f416363657373436f6e74726f6c3a2063616e206f6e6c792072656e6f756e636560448201526e103937b632b9903337b91039b2b63360891b60648201526084015b60405180910390fd5b61045b82826109d2565b5050565b6001600160a01b037f00000000000000000000000000000000000000000000000000000000000000001630036104a75760405162461bcd60e51b8152600401610448906112bb565b7f00000000000000000000000000000000000000000000000000000000000000006001600160a01b03166104d9610a39565b6001600160a01b0316146104ff5760405162461bcd60e51b815260040161044890611307565b61050881610a55565b6040805160008082526020820190925261052491839190610aa5565b50565b600054610100900460ff16158080156105475750600054600160ff909116105b806105615750303b158015610561575060005460ff166001145b6105c45760405162461bcd60e51b815260206004820152602e60248201527f496e697469616c697a61626c653a20636f6e747261637420697320616c72656160448201526d191e481a5b9a5d1a585b1a5e995960921b6064820152608401610448565b6000805460ff1916600117905580156105e7576000805461ff0019166101001790555b6105ef610c10565b6105fa600084610942565b6106247f241ecf16d79d0f8dbfb92cbc07fe17840425976cf0667f022fe9877caa831b0883610942565b80156103cd576000805461ff0019169055604051600181527f7f26b83ff96e1f2b6a682f133852f6798a09c465da95921460cefb38474024989060200160405180910390a1505050565b6001600160a01b037f00000000000000000000000000000000000000000000000000000000000000001630036106b65760405162461bcd60e51b8152600401610448906112bb565b7f00000000000000000000000000000000000000000000000000000000000000006001600160a01b03166106e8610a39565b6001600160a01b03161461070e5760405162461bcd60e51b815260040161044890611307565b61071782610a55565b61045b82826001610aa5565b6000306001600160a01b037f000000000000000000000000000000000000000000000000000000000000000016146107be5760405162461bcd60e51b815260206004820152603860248201527f555550535570677261646561626c653a206d757374206e6f742062652063616c6044820152771b1959081d1a1c9bdd59da0819195b1959d85d1958d85b1b60421b6064820152608401610448565b5060008051602061153683398151915290565b60009182526065602090815260408084206001600160a01b0393909316845291905290205460ff1690565b60008281526065602052604090206001015461081781610938565b6103cd83836109d2565b6000807f00000000000000000000000000000000000000000000000000000000000000006001600160a01b031663feaf968c6040518163ffffffff1660e01b815260040160a060405180830381865afa92505050801561089e575060408051601f3d908101601f1916820190925261089b9181019061136a565b60015b15610934576000841380156108c55750846001600160501b0316816001600160501b031610155b80156108fa57507f00000000000000000000000000000000000000000000000000000000000000006108f783426113d0565b11155b965086610927857f0000000000000000000000000000000000000000000000000000000000000000610c7d565b9650965050505050509091565b9091565b6105248133610ccc565b61094c82826107d1565b61045b5760008281526065602090815260408083206001600160a01b03851684529091529020805460ff191660011790556109843390565b6001600160a01b0316816001600160a01b0316837f2f8788117e7eff1d82e926ec794901d17c78024a50270940304540a733656f0d60405160405180910390a45050565b60006103a2610821565b6109dc82826107d1565b1561045b5760008281526065602090815260408083206001600160a01b0385168085529252808320805460ff1916905551339285917ff6391f5c32d9c69d2a47ea670b442974b53935d1edc7fd64eb21e047a839171b9190a45050565b600080516020611536833981519152546001600160a01b031690565b7f241ecf16d79d0f8dbfb92cbc07fe17840425976cf0667f022fe9877caa831b08610a7f81610938565b610a876109c8565b1561045b57604051632b3a25e760e21b815260040160405180910390fd5b7f4910fdfa16fed3260ed0e7147f7cc6da11a60208b5b9406d12a635614ffd91435460ff1615610ad8576103cd83610d25565b826001600160a01b03166352d1902d6040518163ffffffff1660e01b8152600401602060405180830381865afa925050508015610b32575060408051601f3d908101601f19168201909252610b2f918101906113e3565b60015b610b955760405162461bcd60e51b815260206004820152602e60248201527f45524331393637557067726164653a206e657720696d706c656d656e7461746960448201526d6f6e206973206e6f74205555505360901b6064820152608401610448565b6000805160206115368339815191528114610c045760405162461bcd60e51b815260206004820152602960248201527f45524331393637557067726164653a20756e737570706f727465642070726f786044820152681a58589b195555525160ba1b6064820152608401610448565b506103cd838383610dc1565b600054610100900460ff16610c7b5760405162461bcd60e51b815260206004820152602b60248201527f496e697469616c697a61626c653a20636f6e7472616374206973206e6f74206960448201526a6e697469616c697a696e6760a81b6064820152608401610448565b565b60007812725dd1d243aba0e75fe645cc4873f9e65afe688c928e1f218311670de0b6b3a764000002158202610cba5763bcbede656000526004601cfd5b50670de0b6b3a7640000919091020490565b610cd682826107d1565b61045b57610ce381610dec565b610cee836020610dfe565b604051602001610cff929190611420565b60408051601f198184030181529082905262461bcd60e51b82526104489160040161148f565b6001600160a01b0381163b610d925760405162461bcd60e51b815260206004820152602d60248201527f455243313936373a206e657720696d706c656d656e746174696f6e206973206e60448201526c1bdd08184818dbdb9d1c9858dd609a1b6064820152608401610448565b60008051602061153683398151915280546001600160a01b0319166001600160a01b0392909216919091179055565b610dca83610fa1565b600082511180610dd75750805b156103cd57610de68383610fe1565b50505050565b606061036f6001600160a01b03831660145b60606000610e0d8360026114c2565b610e189060026114d9565b67ffffffffffffffff811115610e3057610e306111e3565b6040519080825280601f01601f191660200182016040528015610e5a576020820181803683370190505b509050600360fc1b81600081518110610e7557610e756114ec565b60200101906001600160f81b031916908160001a905350600f60fb1b81600181518110610ea457610ea46114ec565b60200101906001600160f81b031916908160001a9053506000610ec88460026114c2565b610ed39060016114d9565b90505b6001811115610f4b576f181899199a1a9b1b9c1cb0b131b232b360811b85600f1660108110610f0757610f076114ec565b1a60f81b828281518110610f1d57610f1d6114ec565b60200101906001600160f81b031916908160001a90535060049490941c93610f4481611502565b9050610ed6565b508315610f9a5760405162461bcd60e51b815260206004820181905260248201527f537472696e67733a20686578206c656e67746820696e73756666696369656e746044820152606401610448565b9392505050565b610faa81610d25565b6040516001600160a01b038216907fbc7cd75a20ee27fd9adebab32041f755214dbc6bffa90cc0225b39da2e5c2d3b90600090a250565b60606001600160a01b0383163b6110495760405162461bcd60e51b815260206004820152602660248201527f416464726573733a2064656c65676174652063616c6c20746f206e6f6e2d636f6044820152651b9d1c9858dd60d21b6064820152608401610448565b600080846001600160a01b0316846040516110649190611519565b600060405180830381855af49150503d806000811461109f576040519150601f19603f3d011682016040523d82523d6000602084013e6110a4565b606091505b50915091506110cc8282604051806060016040528060278152602001611556602791396110d5565b95945050505050565b606083156110e4575081610f9a565b610f9a83838151156110f95781518083602001fd5b8060405162461bcd60e51b8152600401610448919061148f565b60006020828403121561112557600080fd5b81356001600160e01b031981168114610f9a57600080fd5b60006020828403121561114f57600080fd5b5035919050565b80356001600160a01b038116811461116d57600080fd5b919050565b60006020828403121561118457600080fd5b610f9a82611156565b600080604083850312156111a057600080fd5b823591506111b060208401611156565b90509250929050565b600080604083850312156111cc57600080fd5b6111d583611156565b91506111b060208401611156565b634e487b7160e01b600052604160045260246000fd5b6000806040838503121561120c57600080fd5b61121583611156565b9150602083013567ffffffffffffffff8082111561123257600080fd5b818501915085601f83011261124657600080fd5b813581811115611258576112586111e3565b604051601f8201601f19908116603f01168101908382118183101715611280576112806111e3565b8160405282815288602084870101111561129957600080fd5b8260208601602083013760006020848301015280955050505050509250929050565b6020808252602c908201527f46756e6374696f6e206d7573742062652063616c6c6564207468726f7567682060408201526b19195b1959d85d1958d85b1b60a21b606082015260800190565b6020808252602c908201527f46756e6374696f6e206d7573742062652063616c6c6564207468726f7567682060408201526b6163746976652070726f787960a01b606082015260800190565b80516001600160501b038116811461116d57600080fd5b600080600080600060a0868803121561138257600080fd5b61138b86611353565b94506020860151935060408601519250606086015191506113ae60808701611353565b90509295509295909350565b634e487b7160e01b600052601160045260246000fd5b8181038181111561036f5761036f6113ba565b6000602082840312156113f557600080fd5b5051919050565b60005b838110156114175781810151838201526020016113ff565b50506000910152565b76020b1b1b2b9b9a1b7b73a3937b61d1030b1b1b7bab73a1604d1b8152600083516114528160178501602088016113fc565b7001034b99036b4b9b9b4b733903937b6329607d1b60179184019182015283516114838160288401602088016113fc565b01602801949350505050565b60208152600082518060208401526114ae8160408501602087016113fc565b601f01601f19169190910160400192915050565b808202811582820484141761036f5761036f6113ba565b8082018082111561036f5761036f6113ba565b634e487b7160e01b600052603260045260246000fd5b600081611511576115116113ba565b506000190190565b6000825161152b8184602087016113fc565b919091019291505056fe360894a13ba1a3210667c828492db98dca3e2076cc3735a920a3ca505d382bbc416464726573733a206c6f772d6c6576656c2064656c65676174652063616c6c206661696c6564a26469706673582212204388dada30524f2759dcc40ac07efd330dd88eba3288a9417637b256d9dbaa8764736f6c63430008130033",
    "linkReferences": {}
  },
  "methodIdentifiers": {
    "DEFAULT_ADMIN_ROLE()": "a217fddf",
    "aggregator()": "245a7bfc",
    "aggregatorScale()": "aca768a1",
    "getRoleAdmin(bytes32)": "248a9ca3",
    "getStatus(address)": "30ccebb5",
    "grantRole(bytes32,address)": "2f2ff15d",
    "hasRole(bytes32,address)": "91d14854",
    "initialize(address,address)": "485cc955",
    "proxiableUUID()": "52d1902d",
    "renounceRole(bytes32,address)": "36568abe",
    "revokeRole(bytes32,address)": "d547741f",
    "spot(address)": "2cbf04c1",
    "stalePeriod()": "a5b36a36",
    "supportsInterface(bytes4)": "01ffc9a7",
    "upgradeTo(address)": "3659cfe6",
    "upgradeToAndCall(address,bytes)": "4f1ef286"
  },
  "id": 118
}