{
  "abi": [
    {
      "inputs": [
        {
          "internalType": "contract ICDPVault_Deployer",
          "name": "deployer_",
          "type": "address"
        },
        {
          "internalType": "address",
          "name": "roleAdmin",
          "type": "address"
        },
        {
          "internalType": "address",
          "name": "deployerAdmin",
          "type": "address"
        },
        {
          "internalType": "address",
          "name": "pauseAdmin",
          "type": "address"
        },
        {
          "internalType": "address",
          "name": "unwinderFactory_",
          "type": "address"
        }
      ],
      "stateMutability": "nonpayable",
      "type": "constructor"
    },
    {
      "anonymous": false,
      "inputs": [
        {
          "indexed": true,
          "internalType": "address",
          "name": "vault",
          "type": "address"
        },
        {
          "indexed": true,
          "internalType": "address",
          "name": "token",
          "type": "address"
        },
        {
          "indexed": true,
          "internalType": "address",
          "name": "creator",
          "type": "address"
        }
      ],
      "name": "CreateVault",
      "type": "event"
    },
    {
      "anonymous": false,
      "inputs": [
        {
          "indexed": false,
          "internalType": "address",
          "name": "account",
          "type": "address"
        }
      ],
      "name": "Paused",
      "type": "event"
    },
    {
      "anonymous": false,
      "inputs": [
        {
          "indexed": true,
          "internalType": "bytes32",
          "name": "role",
          "type": "bytes32"
        },
        {
          "indexed": true,
          "internalType": "bytes32",
          "name": "previousAdminRole",
          "type": "bytes32"
        },
        {
          "indexed": true,
          "internalType": "bytes32",
          "name": "newAdminRole",
          "type": "bytes32"
        }
      ],
      "name": "RoleAdminChanged",
      "type": "event"
    },
    {
      "anonymous": false,
      "inputs": [
        {
          "indexed": true,
          "internalType": "bytes32",
          "name": "role",
          "type": "bytes32"
        },
        {
          "indexed": true,
          "internalType": "address",
          "name": "account",
          "type": "address"
        },
        {
          "indexed": true,
          "internalType": "address",
          "name": "sender",
          "type": "address"
        }
      ],
      "name": "RoleGranted",
      "type": "event"
    },
    {
      "anonymous": false,
      "inputs": [
        {
          "indexed": true,
          "internalType": "bytes32",
          "name": "role",
          "type": "bytes32"
        },
        {
          "indexed": true,
          "internalType": "address",
          "name": "account",
          "type": "address"
        },
        {
          "indexed": true,
          "internalType": "address",
          "name": "sender",
          "type": "address"
        }
      ],
      "name": "RoleRevoked",
      "type": "event"
    },
    {
      "anonymous": false,
      "inputs": [
        {
          "indexed": false,
          "internalType": "address",
          "name": "account",
          "type": "address"
        }
      ],
      "name": "Unpaused",
      "type": "event"
    },
    {
      "inputs": [],
      "name": "DEFAULT_ADMIN_ROLE",
      "outputs": [
        {
          "internalType": "bytes32",
          "name": "",
          "type": "bytes32"
        }
      ],
      "stateMutability": "view",
      "type": "function"
    },
    {
      "inputs": [
        {
          "components": [
            {
              "internalType": "contract ICDM",
              "name": "cdm",
              "type": "address"
            },
            {
              "internalType": "contract IOracle",
              "name": "oracle",
              "type": "address"
            },
            {
              "internalType": "contract IBuffer",
              "name": "buffer",
              "type": "address"
            },
            {
              "internalType": "contract IERC20",
              "name": "token",
              "type": "address"
            },
            {
              "internalType": "uint256",
              "name": "tokenScale",
              "type": "uint256"
            },
            {
              "internalType": "uint256",
              "name": "protocolFee",
              "type": "uint256"
            },
            {
              "internalType": "uint64",
              "name": "targetUtilizationRatio",
              "type": "uint64"
            },
            {
              "internalType": "uint64",
              "name": "maxUtilizationRatio",
              "type": "uint64"
            },
            {
              "internalType": "uint64",
              "name": "minInterestRate",
              "type": "uint64"
            },
            {
              "internalType": "uint64",
              "name": "maxInterestRate",
              "type": "uint64"
            },
            {
              "internalType": "uint64",
              "name": "targetInterestRate",
              "type": "uint64"
            },
            {
              "internalType": "uint128",
              "name": "rebateRate",
              "type": "uint128"
            },
            {
              "internalType": "uint128",
              "name": "maxRebate",
              "type": "uint128"
            }
          ],
          "internalType": "struct CDPVaultConstants",
          "name": "cdpVaultConstants",
          "type": "tuple"
        },
        {
          "components": [
            {
              "internalType": "uint64",
              "name": "liquidationPenalty",
              "type": "uint64"
            },
            {
              "internalType": "uint64",
              "name": "liquidationDiscount",
              "type": "uint64"
            },
            {
              "internalType": "uint64",
              "name": "targetHealthFactor",
              "type": "uint64"
            },
            {
              "internalType": "address",
              "name": "vaultUnwinder",
              "type": "address"
            }
          ],
          "internalType": "struct CDPVault_TypeBConfig",
          "name": "cdpVaultTypeBConfig",
          "type": "tuple"
        },
        {
          "components": [
            {
              "internalType": "uint128",
              "name": "debtFloor",
              "type": "uint128"
            },
            {
              "internalType": "uint256",
              "name": "limitOrderFloor",
              "type": "uint256"
            },
            {
              "internalType": "uint64",
              "name": "liquidationRatio",
              "type": "uint64"
            },
            {
              "internalType": "uint64",
              "name": "globalLiquidationRatio",
              "type": "uint64"
            },
            {
              "internalType": "uint256",
              "name": "baseRate",
              "type": "uint256"
            },
            {
              "internalType": "address",
              "name": "roleAdmin",
              "type": "address"
            },
            {
              "internalType": "address",
              "name": "vaultAdmin",
              "type": "address"
            },
            {
              "internalType": "address",
              "name": "tickManager",
              "type": "address"
            },
            {
              "internalType": "address",
              "name": "pauseAdmin",
              "type": "address"
            }
          ],
          "internalType": "struct CDPVaultConfig",
          "name": "cdpVaultConfig",
          "type": "tuple"
        },
        {
          "internalType": "uint256",
          "name": "debtCeiling",
          "type": "uint256"
        }
      ],
      "name": "create",
      "outputs": [
        {
          "internalType": "address",
          "name": "",
          "type": "address"
        }
      ],
      "stateMutability": "nonpayable",
      "type": "function"
    },
    {
      "inputs": [],
      "name": "creditWithholder",
      "outputs": [
        {
          "internalType": "address",
          "name": "",
          "type": "address"
        }
      ],
      "stateMutability": "nonpayable",
      "type": "function"
    },
    {
      "inputs": [],
      "name": "deployer",
      "outputs": [
        {
          "internalType": "contract ICDPVault_Deployer",
          "name": "",
          "type": "address"
        }
      ],
      "stateMutability": "view",
      "type": "function"
    },
    {
      "inputs": [],
      "name": "getConstants",
      "outputs": [
        {
          "internalType": "contract ICDM",
          "name": "cdm",
          "type": "address"
        },
        {
          "internalType": "contract IOracle",
          "name": "oracle",
          "type": "address"
        },
        {
          "internalType": "contract IBuffer",
          "name": "buffer",
          "type": "address"
        },
        {
          "internalType": "contract IERC20",
          "name": "token",
          "type": "address"
        },
        {
          "internalType": "uint256",
          "name": "tokenScale",
          "type": "uint256"
        },
        {
          "internalType": "uint256",
          "name": "protocolFee",
          "type": "uint256"
        },
        {
          "internalType": "uint256",
          "name": "utilizationParams",
          "type": "uint256"
        },
        {
          "internalType": "uint256",
          "name": "rebateParams",
          "type": "uint256"
        }
      ],
      "stateMutability": "view",
      "type": "function"
    },
    {
      "inputs": [
        {
          "internalType": "bytes32",
          "name": "role",
          "type": "bytes32"
        }
      ],
      "name": "getRoleAdmin",
      "outputs": [
        {
          "internalType": "bytes32",
          "name": "",
          "type": "bytes32"
        }
      ],
      "stateMutability": "view",
      "type": "function"
    },
    {
      "inputs": [
        {
          "internalType": "bytes32",
          "name": "role",
          "type": "bytes32"
        },
        {
          "internalType": "address",
          "name": "account",
          "type": "address"
        }
      ],
      "name": "grantRole",
      "outputs": [],
      "stateMutability": "nonpayable",
      "type": "function"
    },
    {
      "inputs": [
        {
          "internalType": "bytes32",
          "name": "role",
          "type": "bytes32"
        },
        {
          "internalType": "address",
          "name": "account",
          "type": "address"
        }
      ],
      "name": "hasRole",
      "outputs": [
        {
          "internalType": "bool",
          "name": "",
          "type": "bool"
        }
      ],
      "stateMutability": "view",
      "type": "function"
    },
    {
      "inputs": [],
      "name": "pause",
      "outputs": [],
      "stateMutability": "nonpayable",
      "type": "function"
    },
    {
      "inputs": [],
      "name": "paused",
      "outputs": [
        {
          "internalType": "bool",
          "name": "",
          "type": "bool"
        }
      ],
      "stateMutability": "view",
      "type": "function"
    },
    {
      "inputs": [],
      "name": "pausedAt",
      "outputs": [
        {
          "internalType": "uint256",
          "name": "",
          "type": "uint256"
        }
      ],
      "stateMutability": "view",
      "type": "function"
    },
    {
      "inputs": [
        {
          "internalType": "bytes32",
          "name": "role",
          "type": "bytes32"
        },
        {
          "internalType": "address",
          "name": "account",
          "type": "address"
        }
      ],
      "name": "renounceRole",
      "outputs": [],
      "stateMutability": "nonpayable",
      "type": "function"
    },
    {
      "inputs": [
        {
          "internalType": "bytes32",
          "name": "role",
          "type": "bytes32"
        },
        {
          "internalType": "address",
          "name": "account",
          "type": "address"
        }
      ],
      "name": "revokeRole",
      "outputs": [],
      "stateMutability": "nonpayable",
      "type": "function"
    },
    {
      "inputs": [
        {
          "internalType": "bytes4",
          "name": "interfaceId",
          "type": "bytes4"
        }
      ],
      "name": "supportsInterface",
      "outputs": [
        {
          "internalType": "bool",
          "name": "",
          "type": "bool"
        }
      ],
      "stateMutability": "view",
      "type": "function"
    },
    {
      "inputs": [],
      "name": "unpause",
      "outputs": [],
      "stateMutability": "nonpayable",
      "type": "function"
    },
    {
      "inputs": [],
      "name": "unwinderFactory",
      "outputs": [
        {
          "internalType": "address",
          "name": "",
          "type": "address"
        }
      ],
      "stateMutability": "view",
      "type": "function"
    }
  ],
  "bytecode": {
    "object": "0x60c06040523480156200001157600080fd5b50604051620020f4380380620020f4833981016040819052620000349162000181565b6001805460ff191690556001600160a01b03851660805262000058600085620000c7565b620000847ffc425f2263d0df187444b70e47283d622c70181c5baebb1306a01edba1ce184c84620000c7565b620000b07f65d7a28e3265b37a6474929f336521b332c1681b933f6cb9f3376673440d862a83620000c7565b6001600160a01b031660a052506200020192505050565b6000828152602081815260408083206001600160a01b038516845290915290205460ff1662000164576000828152602081815260408083206001600160a01b03851684529091529020805460ff19166001179055620001233390565b6001600160a01b0316816001600160a01b0316837f2f8788117e7eff1d82e926ec794901d17c78024a50270940304540a733656f0d60405160405180910390a45b5050565b6001600160a01b03811681146200017e57600080fd5b50565b600080600080600060a086880312156200019a57600080fd5b8551620001a78162000168565b6020870151909550620001ba8162000168565b6040870151909450620001cd8162000168565b6060870151909350620001e08162000168565b6080870151909250620001f38162000168565b809150509295509295909350565b60805160a051611eb86200023c600039600081816101b90152818161072201526111ed0152600081816102a201526106230152611eb86000f3fe60806040523480156200001157600080fd5b5060043610620000f35760003560e01c80638e107be411620000925780638e107be414620001b357806391b8ca6b14620001ea57806391d1485414620002015780639a295e731462000218578063a217fddf1462000272578063bf404a41146200027b578063d547741f1462000285578063d5f39488146200029c57600080fd5b806301ffc9a714620000f8578063248a9ca314620001245780632e55d0f214620001595780632f2ff15d146200016357806336568abe146200017c5780633f4ba83a14620001935780635c975abb146200019d5780638456cb5914620001a9575b600080fd5b6200010f62000109366004620016fa565b620002c4565b60405190151581526020015b60405180910390f35b6200014a6200013536600462001726565b60009081526020819052604090206001015490565b6040519081526020016200011b565b6200014a60025481565b6200017a6200017436600462001768565b620002fc565b005b6200017a6200018d36600462001768565b6200032a565b6200017a620003b0565b60015460ff166200010f565b6200017a620003dd565b620001db7f000000000000000000000000000000000000000000000000000000000000000081565b6040516200011b91906200179b565b620001db620001fb366004620019b3565b62000405565b6200010f6200021236600462001768565b6200108d565b62000222620010b6565b604080516001600160a01b03998a168152978916602089015295881695870195909552959092166060850152608084015260a083015260c082019290925260e0810191909152610100016200011b565b6200014a600081565b620001db620011d8565b6200017a6200029636600462001768565b6200125d565b620001db7f000000000000000000000000000000000000000000000000000000000000000081565b60006001600160e01b03198216637965db0b60e01b1480620002f657506301ffc9a760e01b6001600160e01b03198316145b92915050565b600082815260208190526040902060010154620003198162001286565b62000325838362001292565b505050565b6001600160a01b0381163314620003a05760405162461bcd60e51b815260206004820152602f60248201527f416363657373436f6e74726f6c3a2063616e206f6e6c792072656e6f756e636560448201526e103937b632b9903337b91039b2b63360891b60648201526084015b60405180910390fd5b620003ac82826200131a565b5050565b60008051602062001e63833981519152620003cb8162001286565b620003d562001382565b506000600255565b60008051602062001e63833981519152620003f88162001286565b62000402620013d2565b50565b600062000411620013e2565b84600360008201518160000160006101000a8154816001600160a01b0302191690836001600160a01b0316021790555060208201518160010160006101000a8154816001600160a01b0302191690836001600160a01b0316021790555060408201518160020160006101000a8154816001600160a01b0302191690836001600160a01b0316021790555060608201518160030160006101000a8154816001600160a01b0302191690836001600160a01b031602179055506080820151816004015560a0820151816005015560c08201518160060160006101000a8154816001600160401b0302191690836001600160401b0316021790555060e08201518160060160086101000a8154816001600160401b0302191690836001600160401b031602179055506101008201518160060160106101000a8154816001600160401b0302191690836001600160401b031602179055506101208201518160060160186101000a8154816001600160401b0302191690836001600160401b031602179055506101408201518160070160006101000a8154816001600160401b0302191690836001600160401b031602179055506101608201518160070160086101000a8154816001600160801b0302191690836001600160801b031602179055506101808201518160080160006101000a8154816001600160801b0302191690836001600160801b0316021790555090505060007f00000000000000000000000000000000000000000000000000000000000000006001600160a01b031663775c300c6040518163ffffffff1660e01b81526004016020604051808303816000875af115801562000682573d6000803e3d6000fd5b505050506040513d601f19601f82011682018060405250810190620006a8919062001b04565b9050806001600160a01b0316630a9254e46040518163ffffffff1660e01b8152600401600060405180830381600087803b158015620006e657600080fd5b505af1158015620006fb573d6000803e3d6000fd5b50506040516203703d60e11b81526001600160a01b03841692506206e07a91506200074b907f0000000000000000000000000000000000000000000000000000000000000000906004016200179b565b600060405180830381600087803b1580156200076657600080fd5b505af11580156200077b573d6000803e3d6000fd5b5050600380546001600160a01b03199081169091556004805482168155600580548316905560068054909216909155600060078190556008819055600955600a80546001600160c01b0319169055600b80546001600160801b0319169055604051632f2ff15d60e01b81526001600160a01b0385169350632f2ff15d9250620008189160008051602062001e438339815191529130910162001b24565b600060405180830381600087803b1580156200083357600080fd5b505af115801562000848573d6000803e3d6000fd5b5050855160405163391a83df60e11b8152683232b13a233637b7b960b91b60048201526001600160801b0390911660248201526001600160a01b038416925063723507be9150604401600060405180830381600087803b158015620008ac57600080fd5b505af1158015620008c1573d6000803e3d6000fd5b50505050602084015160405163391a83df60e11b81526e3634b6b4ba27b93232b9233637b7b960891b600482015260248101919091526001600160a01b0382169063723507be90604401600060405180830381600087803b1580156200092657600080fd5b505af11580156200093b573d6000803e3d6000fd5b50505050604084810151905163391a83df60e11b81526f6c69717569646174696f6e526174696f60801b60048201526001600160401b0390911660248201526001600160a01b0382169063723507be90604401600060405180830381600087803b158015620009a957600080fd5b505af1158015620009be573d6000803e3d6000fd5b50505050606084015160405163391a83df60e11b815275676c6f62616c4c69717569646174696f6e526174696f60501b60048201526001600160401b0390911660248201526001600160a01b0382169063723507be90604401600060405180830381600087803b15801562000a3257600080fd5b505af115801562000a47573d6000803e3d6000fd5b50505050608084015160405163391a83df60e11b815267626173655261746560c01b600482015260248101919091526001600160a01b0382169063723507be90604401600060405180830381600087803b15801562000aa557600080fd5b505af115801562000aba573d6000803e3d6000fd5b5050865160405163391a83df60e11b8152716c69717569646174696f6e50656e616c747960701b60048201526001600160401b0390911660248201526001600160a01b038416925063723507be9150604401600060405180830381600087803b15801562000b2757600080fd5b505af115801562000b3c573d6000803e3d6000fd5b50505050602085015160405163391a83df60e11b8152721b1a5c5d5a59185d1a5bdb911a5cd8dbdd5b9d606a1b60048201526001600160401b0390911660248201526001600160a01b0382169063723507be90604401600060405180830381600087803b15801562000bad57600080fd5b505af115801562000bc2573d6000803e3d6000fd5b50505050604085810151905163391a83df60e11b8152713a30b933b2ba2432b0b63a342330b1ba37b960711b60048201526001600160401b0390911660248201526001600160a01b0382169063723507be90604401600060405180830381600087803b15801562000c3257600080fd5b505af115801562000c47573d6000803e3d6000fd5b5050505060c0840151604051632f2ff15d60e01b81526001600160a01b03831691632f2ff15d9162000c8d9160008051602062001e438339815191529160040162001b24565b600060405180830381600087803b15801562000ca857600080fd5b505af115801562000cbd573d6000803e3d6000fd5b5050505060e0840151604051632f2ff15d60e01b81526001600160a01b03831691632f2ff15d9162000d14917ff96f3d6876b63665360200e15ed8964960110cbbd99e917fb50ad1e576f538ac9160040162001b24565b600060405180830381600087803b15801562000d2f57600080fd5b505af115801562000d44573d6000803e3d6000fd5b505050506060850151604051632f2ff15d60e01b81526001600160a01b03831691632f2ff15d9162000d9b917fafc46fb4ec54859564243e17ddfa695c1305e429cc40d6e3e75973b087d9e9019160040162001b24565b600060405180830381600087803b15801562000db657600080fd5b505af115801562000dcb573d6000803e3d6000fd5b50505050610100840151604051632f2ff15d60e01b81526001600160a01b03831691632f2ff15d9162000e129160008051602062001e638339815191529160040162001b24565b600060405180830381600087803b15801562000e2d57600080fd5b505af115801562000e42573d6000803e3d6000fd5b5050505060a0840151604051632f2ff15d60e01b81526001600160a01b03831691632f2ff15d9162000e7a9160009160040162001b24565b600060405180830381600087803b15801562000e9557600080fd5b505af115801562000eaa573d6000803e3d6000fd5b505060405163d547741f60e01b81526001600160a01b038416925063d547741f915062000eed9060008051602062001e4383398151915290309060040162001b24565b600060405180830381600087803b15801562000f0857600080fd5b505af115801562000f1d573d6000803e3d6000fd5b505060405163d547741f60e01b81526001600160a01b038416925063d547741f915062000f5290600090309060040162001b24565b600060405180830381600087803b15801562000f6d57600080fd5b505af115801562000f82573d6000803e3d6000fd5b505050506000831115620010365762000fbb7ffc425f2263d0df187444b70e47283d622c70181c5baebb1306a01edba1ce184c62001286565b8551604051626e308160e21b81526001600160a01b0383811660048301526a646562744365696c696e6760a81b602483015260448201869052909116906301b8c20490606401600060405180830381600087803b1580156200101c57600080fd5b505af115801562001031573d6000803e3d6000fd5b505050505b336001600160a01b031686606001516001600160a01b0316826001600160a01b03167fb099da66a8504770c8deb56a35848ec236bde5e64dd9223d77c277b1ae09d43360405160405180910390a495945050505050565b6000918252602082815260408084206001600160a01b0393909316845291905290205460ff1690565b600354600454600554600654600754600854600a546001600160a01b0396871696958616959485169490931692600090819060d0906200110990670de0b6b3a7640000906001600160401b031662001b51565b600954911b9060a8906200113790670de0b6b3a764000090600160c01b90046001600160401b031662001b51565b600954911b906080906200116590670de0b6b3a764000090600160801b90046001600160401b031662001b51565b600954600b54600a549d9e9c9d9b9c9a9b999a98996001600160401b03831667ffffffffffffffff60401b600160401b9485900460401b16179390941b929092179390931793909317959190046001600160801b03166001600160801b031960809390931b929092169190911792509050565b6003546040516000916001600160a01b0316907f00000000000000000000000000000000000000000000000000000000000000009033906200121a90620016ec565b6001600160a01b03938416815291831660208301529091166040820152606001604051809103906000f08015801562001257573d6000803e3d6000fd5b50905090565b6000828152602081905260409020600101546200127a8162001286565b6200032583836200131a565b6200040281336200142c565b6200129e82826200108d565b620003ac576000828152602081815260408083206001600160a01b03851684529091529020805460ff19166001179055620012d63390565b6001600160a01b0316816001600160a01b0316837f2f8788117e7eff1d82e926ec794901d17c78024a50270940304540a733656f0d60405160405180910390a45050565b6200132682826200108d565b15620003ac576000828152602081815260408083206001600160a01b0385168085529252808320805460ff1916905551339285917ff6391f5c32d9c69d2a47ea670b442974b53935d1edc7fd64eb21e047a839171b9190a45050565b6200138c62001490565b6001805460ff191690557f5db9ee0a495bf2e6ff9c91a7834c1ba4fdd244a5e8aa4e537bd38aeae4b073aa335b604051620013c891906200179b565b60405180910390a1565b620013dc620014db565b42600255565b60015460ff16156200142a5760405162461bcd60e51b815260206004820152601060248201526f14185d5cd8589b194e881c185d5cd95960821b604482015260640162000397565b565b6200143882826200108d565b620003ac57620014488162001519565b620014558360206200152c565b6040516020016200146892919062001b8d565b60408051601f198184030181529082905262461bcd60e51b8252620003979160040162001c00565b60015460ff166200142a5760405162461bcd60e51b815260206004820152601460248201527314185d5cd8589b194e881b9bdd081c185d5cd95960621b604482015260640162000397565b620014e5620013e2565b6001805460ff1916811790557f62e78cea01bee320cd4e420270b5ea74000d11b0c9f74754ebdbfc544b05a25833620013b9565b6060620002f66001600160a01b03831660145b606060006200153d83600262001c35565b6200154a90600262001c4f565b6001600160401b03811115620015645762001564620017af565b6040519080825280601f01601f1916602001820160405280156200158f576020820181803683370190505b509050600360fc1b81600081518110620015ad57620015ad62001c65565b60200101906001600160f81b031916908160001a905350600f60fb1b81600181518110620015df57620015df62001c65565b60200101906001600160f81b031916908160001a90535060006200160584600262001c35565b6200161290600162001c4f565b90505b600181111562001694576f181899199a1a9b1b9c1cb0b131b232b360811b85600f16601081106200164a576200164a62001c65565b1a60f81b82828151811062001663576200166362001c65565b60200101906001600160f81b031916908160001a90535060049490941c936200168c8162001c7b565b905062001615565b508315620016e55760405162461bcd60e51b815260206004820181905260248201527f537472696e67733a20686578206c656e67746820696e73756666696369656e74604482015260640162000397565b9392505050565b6101ad8062001c9683390190565b6000602082840312156200170d57600080fd5b81356001600160e01b031981168114620016e557600080fd5b6000602082840312156200173957600080fd5b5035919050565b6001600160a01b03811681146200040257600080fd5b8035620017638162001740565b919050565b600080604083850312156200177c57600080fd5b823591506020830135620017908162001740565b809150509250929050565b6001600160a01b0391909116815260200190565b634e487b7160e01b600052604160045260246000fd5b60405161012081016001600160401b0381118282101715620017f757634e487b7160e01b600052604160045260246000fd5b60405290565b6040516101a081016001600160401b0381118282101715620017f757634e487b7160e01b600052604160045260246000fd5b80356001600160401b03811681146200176357600080fd5b80356001600160801b03811681146200176357600080fd5b6000608082840312156200187257600080fd5b604051608081018181106001600160401b0382111715620018a357634e487b7160e01b600052604160045260246000fd5b604052905080620018b4836200182f565b8152620018c4602084016200182f565b6020820152620018d7604084016200182f565b60408201526060830135620018ec8162001740565b6060919091015292915050565b600061012082840312156200190d57600080fd5b62001917620017c5565b9050620019248262001847565b8152602082013560208201526200193e604083016200182f565b604082015262001951606083016200182f565b6060820152608082013560808201526200196e60a0830162001756565b60a08201526200198160c0830162001756565b60c08201526200199460e0830162001756565b60e0820152610100620019a981840162001756565b9082015292915050565b600080600080848603610360811215620019cc57600080fd5b6101a080821215620019dd57600080fd5b620019e7620017fd565b9150620019f48762001756565b825262001a046020880162001756565b602083015262001a176040880162001756565b604083015262001a2a6060880162001756565b60608301526080870135608083015260a087013560a083015262001a5160c088016200182f565b60c083015262001a6460e088016200182f565b60e083015261010062001a798189016200182f565b9083015261012062001a8d8882016200182f565b9083015261014062001aa18882016200182f565b9083015261016062001ab588820162001847565b9083015261018062001ac988820162001847565b818401525081955062001adf888289016200185f565b9450505062001af3866102208701620018f9565b939692955092936103400135925050565b60006020828403121562001b1757600080fd5b8151620016e58162001740565b9182526001600160a01b0316602082015260400190565b634e487b7160e01b600052601160045260246000fd5b81810381811115620002f657620002f662001b3b565b60005b8381101562001b8457818101518382015260200162001b6a565b50506000910152565b76020b1b1b2b9b9a1b7b73a3937b61d1030b1b1b7bab73a1604d1b81526000835162001bc181601785016020880162001b67565b7001034b99036b4b9b9b4b733903937b6329607d1b601791840191820152835162001bf481602884016020880162001b67565b01602801949350505050565b602081526000825180602084015262001c2181604085016020870162001b67565b601f01601f19169190910160400192915050565b8082028115828204841417620002f657620002f662001b3b565b80820180821115620002f657620002f662001b3b565b634e487b7160e01b600052603260045260246000fd5b60008162001c8d5762001c8d62001b3b565b50600019019056fe608060405234801561001057600080fd5b506040516101ad3803806101ad83398101604081905261002f91610113565b60405163d9c70f5760e01b81526001600160a01b0382811660048301526001602483015284169063d9c70f5790604401600060405180830381600087803b15801561007957600080fd5b505af115801561008d573d6000803e3d6000fd5b505060405163d9c70f5760e01b81526001600160a01b038581166004830152600160248301528616925063d9c70f579150604401600060405180830381600087803b1580156100db57600080fd5b505af11580156100ef573d6000803e3d6000fd5b50505050505050610160565b6001600160a01b038116811461011057600080fd5b50565b60008060006060848603121561012857600080fd5b8351610133816100fb565b6020850151909350610144816100fb565b6040850151909250610155816100fb565b809150509250925092565b603f8061016e6000396000f3fe6080604052600080fdfea2646970667358221220a2177fc2a03647acc3a41b3f4839574298d9c05e26150426d3264883a45c5f2264736f6c634300081300337e2be3cffb06427cbcb9b1d12d4b78adcf14a2bf640e9bbdeb54bb711b65ec7165d7a28e3265b37a6474929f336521b332c1681b933f6cb9f3376673440d862aa2646970667358221220ef95d0af79dc67570ed9fc310f1215bec5384238eb9ba5c55573fdd03ea3648664736f6c63430008130033",
    "linkReferences": {}
  },
  "methodIdentifiers": {
    "DEFAULT_ADMIN_ROLE()": "a217fddf",
    "create((address,address,address,address,uint256,uint256,uint64,uint64,uint64,uint64,uint64,uint128,uint128),(uint64,uint64,uint64,address),(uint128,uint256,uint64,uint64,uint256,address,address,address,address),uint256)": "91b8ca6b",
    "creditWithholder()": "bf404a41",
    "deployer()": "d5f39488",
    "getConstants()": "9a295e73",
    "getRoleAdmin(bytes32)": "248a9ca3",
    "grantRole(bytes32,address)": "2f2ff15d",
    "hasRole(bytes32,address)": "91d14854",
    "pause()": "8456cb59",
    "paused()": "5c975abb",
    "pausedAt()": "2e55d0f2",
    "renounceRole(bytes32,address)": "36568abe",
    "revokeRole(bytes32,address)": "d547741f",
    "supportsInterface(bytes4)": "01ffc9a7",
    "unpause()": "3f4ba83a",
    "unwinderFactory()": "8e107be4"
  },
  "id": 93
}