{
  "abi": [
    {
      "inputs": [],
      "name": "deploy",
      "outputs": [
        {
          "internalType": "address",
          "name": "vault",
          "type": "address"
        }
      ],
      "stateMutability": "nonpayable",
      "type": "function"
    }
  ],
  "bytecode": {
    "object": "0x608060405234801561001057600080fd5b50615f25806100206000396000f3fe608060405234801561001057600080fd5b506004361061002b5760003560e01c8063775c300c14610030575b600080fd5b610038610054565b6040516001600160a01b03909116815260200160405180910390f35b60003360405161006390610095565b6001600160a01b039091168152602001604051809103906000f08015801561008f573d6000803e3d6000fd5b50905090565b615e4d806100a38339019056fe6101a06040523480156200001257600080fd5b5060405162005e4d38038062005e4d833981016040819052620000359162000179565b6001805460ff1916905560408051639a295e7360e01b81529051829182916001600160a01b03831691639a295e739160048083019261010092919082900301816000875af11580156200008c573d6000803e3d6000fd5b505050506040513d601f19601f82011682018060405250810190620000b29190620001a0565b610160526101405261012052610100526001600160a01b0390811660e05290811660c05290811660a0529081166080526040805163bf404a4160e01b81529051918516935063bf404a41925060048082019260209290919082900301816000875af115801562000126573d6000803e3d6000fd5b505050506040513d601f19601f820116820180604052508101906200014c919062000179565b6001600160a01b031661018052506200022f565b6001600160a01b03811681146200017657600080fd5b50565b6000602082840312156200018c57600080fd5b8151620001998162000160565b9392505050565b600080600080600080600080610100898b031215620001be57600080fd5b8851620001cb8162000160565b60208a0151909850620001de8162000160565b60408a0151909750620001f18162000160565b60608a0151909650620002048162000160565b60808a015160a08b015160c08c015160e0909c01519a9d999c50979a91999098919650945092505050565b60805160a05160c05160e0516101005161012051610140516101605161018051615abf6200038e600039600081816107eb015281816110ae015281816117500152818161339c015281816134740152818161375701526137ee015260006123800152600081816122ae0152613b150152600081816107930152614d840152600081816104d0015281816114f401528181612cd301526140a2015260008181610a7901528181610ab3015281816112ce015281816114c601528181612d0601526140c4015260008181610a2c015281816124880152612b4301526000818161069001526112a10152600081816109a901528181610b02015281816110810152818161172101528181611e31015281816121890152818161220c015281816124590152818161251601528181612a870152818161336f0152818161344701528181613728015281816137c7015281816143ae0152614a300152615abf6000f3fe608060405234801561001057600080fd5b506004361061035a5760003560e01c80638309dbdd116101ca578063c75a4b5e11610105578063dbe6b31c116100a8578063dbe6b31c1461093c578063dc2ec24914610988578063df10f68714610991578063e2dfb317146109a4578063eb953449146109cb578063edaafe2014610a27578063ef0563fb14610a4e578063f3fef3a314610a61578063fc0c546a14610a7457600080fd5b8063c75a4b5e1461088a578063cb6238c81461089d578063cde68041146108c8578063ce7c2ac2146108db578063d294f093146108fb578063d4b7eac314610903578063d547741f14610916578063d9c70f571461092957600080fd5b8063a3e2b4951161016d578063a3e2b49514610764578063a70b9f0c14610784578063b0e21e8a1461078e578063b6dc16f6146107b5578063b97dd9e2146107d5578063ba95534c146107dd578063bf404a41146107e6578063c6b61e4c1461080d57600080fd5b80638309dbdd146106f7578063842c311e1461070a5780638456cb591461071357806388439aea1461071b57806391d148541461072e57806393f9eb35146107415780639844afd214610754578063a217fddf1461075c57600080fd5b8063398482d81161029a5780635c975abb1161023d5780635c975abb146105b05780635fe83c7b146105bb578063683f81a1146105c45780636e5e741e146105e7578063723507be1461061a5780637cc34bb41461062d5780637dc0d1d01461068b5780638051ba75146106bf57600080fd5b8063398482d8146105055780633a98ef391461050d5780633f4ba83a1461051657806344a3c6641461051e578063472132f01461053157806347e7ef241461053957806351f813ec1461054c57806355f575101461057457600080fd5b8063280c37ef11610302578063280c37ef146104635780632906f94e146104765780632af8992b146104895780632b2368a21461049c5780632e55d0f2146104af5780632f2ff15d146104b8578063342c02b1146104cb57806336568abe146104f257600080fd5b806206e07a1461035f57806301ffc9a7146103745780630a9254e41461039c57806314815a6d146103a457806319f1039c146103dd5780631c580ad5146103e55780632202ce8c14610438578063248a9ca314610440575b600080fd5b61037261036d3660046153ed565b610a9b565b005b610387610382366004615408565b610b62565b60405190151581526020015b60405180910390f35b610372610b99565b6103cf6103b2366004615432565b601860209081526000928352604080842090915290825290205481565b604051908152602001610393565b6103cf600381565b60135461040e906001600160401b0380821691600160401b8104821691600160801b9091041683565b604080516001600160401b0394851681529284166020840152921691810191909152606001610393565b610372610bf3565b6103cf61044e36600461545e565b60009081526020819052604090206001015490565b610372610471366004615485565b610cbc565b61037261048436600461545e565b610d33565b6103cf6104973660046154bc565b610e6c565b6103cf6104aa36600461545e565b610eba565b6103cf60025481565b6103726104c6366004615432565b6111da565b6103cf7f000000000000000000000000000000000000000000000000000000000000000081565b610372610500366004615432565b611204565b6103cf611287565b6103cf60145481565b61037261133c565b61037261052c3660046154bc565b611376565b6103cf600181565b6103cf6105473660046154de565b6114af565b61055f61055a36600461545e565b611551565b60408051928352901515602083015201610393565b61059b6105823660046153ed565b600d602052600090815260409020805460019091015482565b60408051928352602083019190915201610393565b60015460ff16610387565b6103cf60165481565b6103876105d236600461545e565b600e6020526000908152604090205460ff1681565b6105fa6105f53660046155ad565b6115ad565b604080519485526020850193909352918301526060820152608001610393565b6103726106283660046154bc565b61192e565b60095461065c906001600160801b038116906001600160401b03600160801b8204811691600160c01b90041683565b604080516001600160801b0390941684526001600160401b039283166020850152911690820152606001610393565b6106b27f000000000000000000000000000000000000000000000000000000000000000081565b60405161039391906155f3565b6106d26106cd3660046153ed565b611b92565b604080516001600160401b039094168452602084019290925290820152606001610393565b610372610705366004615607565b611c22565b6103cf600a5481565b610372611cf1565b61059b6107293660046154bc565b611d23565b61038761073c366004615432565b611d46565b6103cf61074f36600461545e565b611d6f565b610372611edf565b6103cf600081565b6103cf61077236600461545e565b60116020526000908152604090205481565b6103cf6203f48081565b6103cf7f000000000000000000000000000000000000000000000000000000000000000081565b6103cf6107c33660046153ed565b600c6020526000908152604090205481565b6103cf611f31565b6103cf600b5481565b6106b27f000000000000000000000000000000000000000000000000000000000000000081565b61085661081b36600461545e565b6017602052600090815260409020805460018201546002830154600390930154919290916001600160801b0380821691600160801b90041685565b604080519586526020860194909452928401919091526001600160801b03908116606084015216608082015260a001610393565b61037261089836600461564e565b611f4f565b6108b06108ab36600461545e565b612364565b6040516001600160401b039091168152602001610393565b6103876108d63660046156a3565b6123eb565b6103cf6108e93660046153ed565b60156020526000908152604090205481565b6103cf612439565b61059b6109113660046154bc565b6124e7565b610372610924366004615432565b6125ef565b610372610937366004615485565b612614565b61094f61094a3660046153ed565b612677565b6040805182516001600160401b03908116825260208085015190911690820152918101516001600160801b031690820152606001610393565b6103cf60125481565b61037261099f3660046156cd565b6126e2565b6106b27f000000000000000000000000000000000000000000000000000000000000000081565b6109d3612bc5565b6040516103939190600060a082019050825160070b825260208301516001600160401b0380821660208501528060408601511660408501525050606083015160608301526080830151608083015292915050565b6106b27f000000000000000000000000000000000000000000000000000000000000000081565b610372610a5c36600461545e565b612c1c565b6103cf610a6f3660046154de565b612c9e565b6106b27f000000000000000000000000000000000000000000000000000000000000000081565b6000610aa681612d2d565b610adc6001600160a01b037f00000000000000000000000000000000000000000000000000000000000000001683600019612d37565b60405163d9c70f5760e01b81526001600160a01b038381166004830152600160248301527f0000000000000000000000000000000000000000000000000000000000000000169063d9c70f5790604401600060405180830381600087803b158015610b4657600080fd5b505af1158015610b5a573d6000803e3d6000fd5b505050505050565b60006001600160e01b03198216637965db0b60e01b1480610b9357506301ffc9a760e01b6001600160e01b03198316145b92915050565b6000610ba3612bc5565b905080602001516001600160401b0316600014610bbf57600080fd5b610bca600033612e7f565b6001600160401b0342166020820152670de0b6b3a76400006040820152610bf081612f03565b50565b3360008181526011602052604081205490819003610c2457604051630573b42560e51b815260040160405180910390fd5b6000818152601060205260409020610c3c9083612f91565b600082815260116020908152604080832083905533808452600d909252822060010154600a54610c8893610c6e611287565b600954600160c01b90046001600160401b03166000613012565b505060405133915082907f6f36e2a381bc87c87bcc2043deb0a5cdf9a6d87eb14cbe13cf0f1fe39f324dd990600090a35050565b3360008181526004602090815260408083206001600160a01b03871680855290835292819020805460ff1916861515908117909155815194855291840192909252908201527f6501e8bfa2d3e686d62fe2c0c3275df594494583b0a63a70b7452d3eeb712bd6906060015b60405180910390a15050565b6000818152600e602052604090205460ff16610d625760405163da4b118b60e01b815260040160405180910390fd5b336000908152600d6020526040902060010154601254811015610d98576040516305c0093760e21b815260040160405180910390fd5b3360008181526011602052604090205415610dc65760405163345c017d60e01b815260040160405180910390fd5b600081815260116020908152604080832086905585835260108083528184208480528084529184206001015493879052909152610e049183906130dd565b610e373383600a546000610e16611287565b600954600160c01b90046001600160401b0316610e328a612364565b613012565b505060405133915084907f85d7690ee90733d849878d2bbbd5bf047e442ce2d045c0308a58cfd2ce53031590600090a3505050565b6000828152601060209081526040808320838052909152812054905b828114610eb35760008481526010602090815260408083208584529091529020549150600101610e88565b5092915050565b600080610ec5611f31565b905060018301811015610eeb576040516319b8050760e31b815260040160405180910390fd5b6000610ef6846131aa565b94505050505080604001516000148015610f1b575060608101516001600160801b0316155b8015610f2957506020810151155b15610f8a5750600083815260176020908152604091829020825160a081018452815481526001820154928101929092526002810154928201929092526003909101546001600160801b038082166060840152600160801b9091041660808201525b604081015115801590610fa8575060608101516001600160801b0316155b15610fc657604051632204228160e01b815260040160405180910390fd5b60008481526018602090815260408083203384529091528120546060830151909190610ffc9083906001600160801b03166138b3565b600087815260186020908152604080832033845290915281205590506110228183615779565b336000908152601560205260408120805490919061104190849061578c565b909155505060408301518351919250829161105d90839061579f565b61106791906157cc565b604051632b0b3a6f60e21b81529095506001600160a01b037f0000000000000000000000000000000000000000000000000000000000000000169063ac2ce9bc906110da907f00000000000000000000000000000000000000000000000000000000000000009033908a906004016157ee565b600060405180830381600087803b1580156110f457600080fd5b505af1158015611108573d6000803e3d6000fd5b50505050818360400181815161111e9190615779565b905250825185908490611132908390615779565b9052506000868152601760209081526040808320865181559186015160018301558501516002820155606085015160808601516001600160801b03908116600160801b0291161760039091015560168054879290611191908490615779565b9091555050604080518381526020810187905233917f5a4beaa18eb50f2c5150783acec1964edb2e32cbf0f99957707375f76ffbd982910160405180910390a250505050919050565b6000828152602081905260409020600101546111f581612d2d565b6111ff8383612e7f565b505050565b6001600160a01b03811633146112795760405162461bcd60e51b815260206004820152602f60248201527f416363657373436f6e74726f6c3a2063616e206f6e6c792072656e6f756e636560448201526e103937b632b9903337b91039b2b63360891b60648201526084015b60405180910390fd5b61128382826138e1565b5050565b604051632cbf04c160e01b81526000906001600160a01b037f00000000000000000000000000000000000000000000000000000000000000001690632cbf04c1906112f6907f0000000000000000000000000000000000000000000000000000000000000000906004016155f3565b602060405180830381865afa158015611313573d6000803e3d6000fd5b505050506040513d601f19601f820116820180604052508101906113379190615812565b905090565b7f65d7a28e3265b37a6474929f336521b332c1681b933f6cb9f3376673440d862a61136681612d2d565b61136e613946565b506000600255565b61137e613992565b7ff96f3d6876b63665360200e15ed8964960110cbbd99e917fb50ad1e576f538ac6113a881612d2d565b670de0b6b3a76400008310806113c657508268056bc75e2d63100000105b156113e4576040516336bbc25960e01b815260040160405180910390fd5b60008052600f602052600080516020615a6a833981519152548015801561140a57508215155b806114275750821580159061142757508284118061142757508281115b8061143f57506000838152600f602052604090205484105b1561145d576040516346b0cc7160e11b815260040160405180910390fd5b611469600f85856130dd565b6000848152600e6020526040808220805460ff191660011790555185917f3907a47dfbf148deb99efcd854a68497cbdc2a2db8488083ecb842ad6bde91a891a250505050565b60006114b9613992565b6114ee6001600160a01b037f0000000000000000000000000000000000000000000000000000000000000000163330856139da565b611518827f0000000000000000000000000000000000000000000000000000000000000000613a01565b6001600160a01b0384166000908152600c602052604081208054929350839290919061154590849061578c565b90915550909392505050565b6000808052600f602052600080516020615a6a8339815191525490805b838114611591576000838152600f6020526040902060010154925060010161156e565b50506000818152600e6020526040902054909260ff9091169150565b6000806000806115bb611f31565b925060008060008060006115ce886131aa565b945094509450945094506000805b8b518110156116d35760008c82815181106115f9576115f961582b565b60200260200101519050816001019150806000148061161b575060038b038110155b8061163f57506000818152601760205260409020600301546001600160801b031615155b806116595750600081815260176020526040902060020154155b1561166457506115dc565b6000818152601860209081526040808320338452909152902054611688818561578c565b6000838152601860209081526040808320338452825280832083905585835260179091528120600201805492965083929091906116c6908490615779565b909155506115dc92505050565b50828c6116e08789615779565b6116ea919061579f565b6116f491906157cc565b99506000848b11611705578a611707565b845b604051632b0b3a6f60e21b81529091506001600160a01b037f0000000000000000000000000000000000000000000000000000000000000000169063ac2ce9bc9061177a9030907f00000000000000000000000000000000000000000000000000000000000000009086906004016157ee565b600060405180830381600087803b15801561179457600080fd5b505af11580156117a8573d6000803e3d6000fd5b5050505080836020018181516117be919061578c565b905250506040820151156117f7576117f282608001516001600160801b03166117e78c8f613a01565b808218908211021890565b611801565b6118018a8d613a01565b6001600160801b031660808301526040820180518d919061182390839061578c565b905250600089815260176020908152604080832085518155828601516001820155818601516002820155606086015160808701516001600160801b03908116600160801b0291161760039091015560188252808320338452909152812080548e929061189090849061578c565b9091555050336000908152601560205260409020548c906118b290839061578c565b6118bc9190615779565b336000818152601560209081526040918290209390935580518f81529283018d905260018c01908301819052995060038b0198508a917fe5248481489259c5ccaad0795cac80cd527112765494ed5a8d98b93501b27f079060600160405180910390a350505050505092959194509250565b611936613992565b7f7e2be3cffb06427cbcb9b1d12d4b78adcf14a2bf640e9bbdeb54bb711b65ec7161196081612d2d565b82683232b13a233637b7b960b91b0361199357600980546001600160801b0319166001600160801b038416179055611b53565b826f6c69717569646174696f6e526174696f60801b036119d7576009805467ffffffffffffffff60801b1916600160801b6001600160401b03851602179055611b53565b8275676c6f62616c4c69717569646174696f6e526174696f60501b03611a1c57600980546001600160c01b0316600160c01b6001600160401b03851602179055611b53565b826e3634b6b4ba27b93232b9233637b7b960891b03611a3f576012829055611b53565b8267626173655261746560c01b03611a7057611a6b6000198314611a635782613a50565b600019613a50565b611b53565b82716c69717569646174696f6e50656e616c747960701b03611aad576013805467ffffffffffffffff19166001600160401b038416179055611b53565b82721b1a5c5d5a59185d1a5bdb911a5cd8dbdd5b9d606a1b03611af4576013805467ffffffffffffffff60401b1916600160401b6001600160401b03851602179055611b53565b82713a30b933b2ba2432b0b63a342330b1ba37b960711b03611b3a576013805467ffffffffffffffff60801b1916600160801b6001600160401b03851602179055611b53565b604051638dd691e760e01b815260040160405180910390fd5b827f4327e67d6578eb2c9293fb22f9334006073ac1397c7100f5dd5adca09ad71c0883604051611b8591815260200190565b60405180910390a2505050565b600080600080611ba0612bc5565b600a54909150611bb08282613af8565b9450611bc58286836000806000806000613c0b565b506080810151935091506001600160a01b03861615611c1957611c0d611bea87612677565b6001600160a01b0388166000908152600d60205260409020600101548790613daa565b6001600160801b031693505b50509193909250565b6001600160a01b0383163314801590611c5f57506001600160a01b038316600090815260046020908152604080832033845290915290205460ff16155b15611c7d57604051638743d2ff60e01b815260040160405180910390fd5b6001600160a01b0383811660009081526003602090815260408083209386168352929052819020805460ff1916831515179055517fdcf2bd5a4c47afeb1792d170f6f5e6e528e30c6b546fffe62b697a11f8953b2b90611ce4903390869086908690615841565b60405180910390a1505050565b7f65d7a28e3265b37a6474929f336521b332c1681b933f6cb9f3376673440d862a611d1b81612d2d565b610bf0613de5565b6000803315611d3157600080fd5b611d3b8484613df3565b915091509250929050565b6000918252602082815260408084206001600160a01b0393909316845291905290205460ff1690565b6000670de0b6b3a7640000821015611d9a57604051630a6055b960e21b815260040160405180910390fd5b6000806000611daf611daa611f31565b6131aa565b50935050925092508060001480611dcd5750611dcb8284615779565b155b611df457611ddb8284615779565b611de5868361579f565b611def91906157cc565b611df6565b845b3360009081526015602052604090208054820190559350611e17848261578c565b601455604051632b0b3a6f60e21b81526001600160a01b037f0000000000000000000000000000000000000000000000000000000000000000169063ac2ce9bc90611e6a90339030908a906004016157ee565b600060405180830381600087803b158015611e8457600080fd5b505af1158015611e98573d6000803e3d6000fd5b505060408051888152602081018890523393507f12352042ba8d46dbbba12767322c1c3bb5ed774314b10c283f945bf69e83f15792500160405180910390a2505050919050565b611ee7613992565b600080611ef46000611b92565b6009549294509250611f2491600160c01b90046001600160401b03169050611f1a611287565b600a548585614079565b1561128357611283613de5565b60006203f480804206420381611f4957611f496157b6565b04905090565b6000811380611f5e5750600082125b8015611f715750611f6f85336123eb565b155b80611f8e5750600082138015611f8e5750611f8c84336123eb565b155b80611fab5750600081128015611fab5750611fa983336123eb565b155b15611fc957604051634c26249960e01b815260040160405180910390fd5b6001600160a01b0385166000908152600d6020908152604080832081518083018352815481526001909101548184015281516060810183526009546001600160801b03811682526001600160401b03600160801b8204811695830195909552600160c01b900490931691830191909152600a549092612046611287565b905060008060006120658c8860200151878b888b604001516000613012565b9250925092506120798c88848c8c8a614189565b9650600088138061208a5750600089125b80156120cd57506120cb6120b48860200151846000015185604001516001600160801b0316614290565b8851602089015187906001600160401b03166142b0565b155b156120eb57604051633f66923d60e01b815260040160405180910390fd5b6001600160a01b038b166000908152600c602052604090205461210e908a6142d3565b6001600160a01b038c166000908152600c60205260409020556121318589614318565b945084600a819055506000816001600160801b031661215d85604001516001600160401b03168b61435d565b612167919061586b565b905060008113156121f957604051632b0b3a6f60e21b81526001600160a01b037f0000000000000000000000000000000000000000000000000000000000000000169063ac2ce9bc906121c29030908f9086906004016157ee565b600060405180830381600087803b1580156121dc57600080fd5b505af11580156121f0573d6000803e3d6000fd5b5050505061228d565b600081121561228d576001600160a01b037f00000000000000000000000000000000000000000000000000000000000000001663ac2ce9bc8c3061223c85615893565b6040518463ffffffff1660e01b815260040161225a939291906157ee565b600060405180830381600087803b15801561227457600080fd5b505af1158015612288573d6000803e3d6000fd5b505050505b60008913156122f55760006122a28588614387565b90506001600160401b037f000000000000000000000000000000000000000000000000000000000000000060401c16808211156122f2576040516329b823dd60e21b815260040160405180910390fd5b50505b8a6001600160a01b03168c6001600160a01b03168e6001600160a01b03167f7ce3e27b99e7e2e42f0ddcb6f6679a25081a5fd4ca991bcd05c45e54daa997088d8d60405161234d929190918252602082015260400190565b60405180910390a450505050505050505050505050565b6000670de0b6b3a764000082101561237e57506000919050565b7f00000000000000000000000000000000000000000000000000000000000000006001600160801b0381169060801c6123e36123de670de0b6b3a76400006123cf856123ca838a615779565b6138b3565b6123d9908561578c565b613a01565b61445c565b949350505050565b6000816001600160a01b0316836001600160a01b0316148061243257506001600160a01b0380841660009081526003602090815260408083209386168352929052205460ff165b9392505050565b600b80546000909155604051632b0b3a6f60e21b81526001600160a01b037f0000000000000000000000000000000000000000000000000000000000000000169063ac2ce9bc906124b29030907f00000000000000000000000000000000000000000000000000000000000000009086906004016157ee565b600060405180830381600087803b1580156124cc57600080fd5b505af11580156124e0573d6000803e3d6000fd5b5050505090565b6000806124f48484613df3565b9092509050811561258257604051632b0b3a6f60e21b81526001600160a01b037f0000000000000000000000000000000000000000000000000000000000000000169063ac2ce9bc9061254f903390309087906004016157ee565b600060405180830381600087803b15801561256957600080fd5b505af115801561257d573d6000803e3d6000fd5b505050505b80156125ad57336000908152600c6020526040812080548392906125a790849061578c565b90915550505b604080518381526020810183905233917f26981b9aefbb0f732b0264bd34c255e831001eb50b06bc85b32cc39e14389721910160405180910390a29250929050565b60008281526020819052604090206001015461260a81612d2d565b6111ff83836138e1565b3360008181526003602090815260408083206001600160a01b038716845290915290819020805460ff1916841515179055517fdcf2bd5a4c47afeb1792d170f6f5e6e528e30c6b546fffe62b697a11f8953b2b91610d2791819086908690615841565b61267f6152ee565b6001600160a01b038216600090815260086020908152604091829020825160608101845290546001600160401b038082168352600160401b82041692820192909252600160801b9091046001600160801b031691810191909152610b9390614486565b6126ea613992565b8051821461270b576040516338f30c4b60e11b815260040160405180910390fd5b6000612715612bc5565b60408051606080820183526009546001600160801b03811683526001600160401b03600160801b8083048216602080870191909152600160c01b909304821685870152855193840186526013548083168552600160401b81048316938501939093529091041692810192909252919250600061278f611287565b905061279961530e565b848152600a5460208201526009546001600160801b031660a08201526013546127d3908390600160401b90046001600160401b03166138b3565b60c08201526013546001600160401b031660e082015260208101516000906127fc908790613af8565b905060005b88811015612a1a5760008a8a8381811061281d5761281d61582b565b905060200201602081019061283291906153ed565b90506001600160a01b038116158061286357508882815181106128575761285761582b565b60200260200101516000145b612a11576001600160a01b0381166000908152600d602090815260408083208151808301909252805482526001015491810182905291906128a6908490876144bd565b905060006128c683602001518784604001516001600160801b0316614290565b90508715806128ed57506128ed8184600001518a8d602001516001600160401b03166142b0565b1561290b5760405163f87e38e960e01b815260040160405180910390fd5b600080600061293461292187600001518d6138b3565b8e602001516001600160401b0316613a01565b90508061294e8d604001516001600160401b0316866138b3565b6129589190615779565b91505060006129818d602001516001600160401b03168d602001516001600160401b03166138b3565b90506000612997670de0b6b3a764000083613a01565b6129b28e604001516001600160401b03168d60e001516138b3565b6129bc9190615779565b90506129c88382613a01565b93505050506129f88d87815181106129e2576129e261582b565b60200260200101516117e7838b60e00151613a01565b610100890152612a0a888585886144fc565b9750505050505b50600101612801565b50612a628260000151612a4384606001518560e00151670de0b6b3a76400006123ca9190615779565b8460800151612a52919061578c565b8460200151868960400151614736565b506020820151600a556060820151604051632b0b3a6f60e21b81526001600160a01b037f0000000000000000000000000000000000000000000000000000000000000000169163ac2ce9bc91612abf9133913091906004016157ee565b600060405180830381600087803b158015612ad957600080fd5b505af1158015612aed573d6000803e3d6000fd5b505050604080840151336000908152600c60205291822080549193509190612b1690849061578c565b909155505061012082015115612bba57610120820151604051630bd0dedd60e21b815260048101919091527f00000000000000000000000000000000000000000000000000000000000000006001600160a01b031690632f437b74906024016020604051808303816000875af1158015612b94573d6000803e3d6000fd5b505050506040513d601f19601f82011682018060405250810190612bb89190615812565b505b505050505050505050565b612bcd615367565b506040805160a081018252600554600781810b83526001600160401b03600160401b830481166020850152600160801b9092049091169282019290925260065460608201529054608082015290565b612c24613992565b7ff96f3d6876b63665360200e15ed8964960110cbbd99e917fb50ad1e576f538ac612c4e81612d2d565b6000828152600e60205260409020805460ff19169055612c6f600f83612f91565b60405182907f343776161924dfe02a29fdf57e6087e2d25ca11fe703785a80632e9ab88c88a190600090a25050565b6000612ca8613992565b336000908152600c602052604081208054849290612cc7908490615779565b90915550612cf79050827f00000000000000000000000000000000000000000000000000000000000000006138b3565b9050610b936001600160a01b037f0000000000000000000000000000000000000000000000000000000000000000168483614769565b610bf08133614799565b801580612db15750604051636eb1769f60e11b81523060048201526001600160a01b03838116602483015284169063dd62ed3e90604401602060405180830381865afa158015612d8b573d6000803e3d6000fd5b505050506040513d601f19601f82011682018060405250810190612daf9190615812565b155b612e1c5760405162461bcd60e51b815260206004820152603660248201527f5361666545524332303a20617070726f76652066726f6d206e6f6e2d7a65726f60448201527520746f206e6f6e2d7a65726f20616c6c6f77616e636560501b6064820152608401611270565b6040516001600160a01b0383166024820152604481018290526111ff90849063095ea7b360e01b906064015b60408051601f198184030181529190526020810180516001600160e01b03166001600160e01b0319909316929092179091526147f2565b612e898282611d46565b611283576000828152602081815260408083206001600160a01b03851684529091529020805460ff19166001179055612ebf3390565b6001600160a01b0316816001600160a01b0316837f2f8788117e7eff1d82e926ec794901d17c78024a50270940304540a733656f0d60405160405180910390a45050565b80516005805460208401516040808601516001600160401b03908116600160801b0267ffffffffffffffff60801b19938216600160401b026001600160801b03199095169190961617929092171692909217905560608201516006556080820151600755517f9334cbdde649ebcbf798eaa08c381dc574197dc53947470a9be908dbcccc330190600090a150565b600081815260208381526040918290208251808401909352805483526001015490820152612fbf83836148c7565b612fdc5760405163564e265760e11b815260040160405180910390fd5b60208082018051835160009081529590925260408086206001908101939093559251905185528285205591835282208281550155565b61301a615367565b6130226152ee565b600061302c612bc5565b92506130378a612677565b91506000613045848a613af8565b905061305283828c613daa565b6001600160801b031660408401526001600160401b031682526130916000881261307d576000613086565b61308688615893565b8a8460400151614935565b6001600160801b03166040840152905060006130b38b85858c8e8d888c614980565b90945090506130ce84826130c78c8c614318565b8a8a614736565b50509750975097945050505050565b6130e783836148c7565b1561310557604051631e2bbc4f60e11b815260040160405180910390fd5b801580159061311b575061311983826148c7565b155b156131395760405163564e265760e11b815260040160405180910390fd5b60008181526020849052604090208054908390558115801561316a5750600082815260208590526040902060010154155b156131845760008281526020859052604090206001018390555b600081815260209490945260408085206001908101859055938552909320928355910155565b6000806000806131b8615395565b60006131c2611f31565b60408051600480825260a08201909252919250600091829160609190816020015b6131eb615395565b8152602001906001900390816131e35790505090506000805b600381116133515760021981870101600081815260176020908152604091829020825160a081018452815481526001820154928101929092526002810154928201929092526003909101546001600160801b038082166060840152600160801b909104166080820152845181908690859081106132835761328361582b565b602002602001018190525080604001516000141580156132ae575060608101516001600160801b0316155b80156132c45750876132c160018461578c565b11155b1561330f5786156132eb5760808101516001600160801b03168085119085180284186132fa565b80608001516001600160801b03165b935080604001518761330c919061578c565b96505b60608101516001909301926001600160801b03161580156133335750604081015115155b1561334a576020810151613347908761578c565b95505b5050613204565b50601654604051632f2e037160e11b81526000906001600160a01b037f00000000000000000000000000000000000000000000000000000000000000001690635e5c06e2906133c4907f0000000000000000000000000000000000000000000000000000000000000000906004016155f3565b6040805180830381865afa1580156133e0573d6000803e3d6000fd5b505050506040513d601f19601f8201168201806040525081019061340491906158af565b5090506000828661341484614a0e565b61341e9190615779565b6134289190615779565b905080156134d357604051632b0b3a6f60e21b81526001600160a01b037f0000000000000000000000000000000000000000000000000000000000000000169063ac2ce9bc906134a0907f000000000000000000000000000000000000000000000000000000000000000090309086906004016157ee565b600060405180830381600087803b1580156134ba57600080fd5b505af11580156134ce573d6000803e3d6000fd5b505050505b505060008060145499506134e686614a25565b929f50909d50909b5050891561351b5789878d8f6135049190615779565b61350e919061579f565b61351891906157cc565b90505b80156135615761352f816117e7868a6138b3565b9050600061353d878d61578c565b905061355181808410848218028418613a01565b925061355d82846138b3565b9150505b6000805b600381116136fd5760008160038c03019050600088838151811061358b5761358b61582b565b6020026020010151905080604001516000141580156135b5575060608101516001600160801b0316155b80156135cb57508b6135c860018461578c565b11155b156136f3576040518060a001604052808c8360400151886135ec919061579f565b6135f691906157cc565b8152602001826020015181526020016136138360400151896138b3565b81526001600160801b03881660208201526000604090910152805190915061363b908861578c565b965080604001518e61364d9190615779565b9d5061365c8160200151614b9f565b815161366790614b9f565b61367191906158d3565b61367b908561586b565b935060008160200181815250508089848151811061369b5761369b61582b565b602090810291909101810191909152600083815260178252604090819020835181559183015160018301558201516002820155606082015160808301516001600160801b03908116600160801b029116176003909101555b5050600101613565565b50601684905560148b905560008113156137b457604051632b0b3a6f60e21b81526001600160a01b037f0000000000000000000000000000000000000000000000000000000000000000169063ac2ce9bc906137819030907f00000000000000000000000000000000000000000000000000000000000000009086906004016157ee565b600060405180830381600087803b15801561379b57600080fd5b505af11580156137af573d6000803e3d6000fd5b505050505b6000811215613868576001600160a01b037f00000000000000000000000000000000000000000000000000000000000000001663ac2ce9bc7f00000000000000000000000000000000000000000000000000000000000000003061381785615893565b6040518463ffffffff1660e01b8152600401613835939291906157ee565b600060405180830381600087803b15801561384f57600080fd5b505af1158015613863573d6000803e3d6000fd5b505050505b60008f8a6138769190615779565b9050806003106138a0578681600303815181106138955761389561582b565b60200260200101519a505b5050505050505050505091939590929450565b6000816000190483118202156138d15763c4c5d7f56000526004601cfd5b50670de0b6b3a764000091020490565b6138eb8282611d46565b15611283576000828152602081815260408083206001600160a01b0385168085529252808320805460ff1916905551339285917ff6391f5c32d9c69d2a47ea670b442974b53935d1edc7fd64eb21e047a839171b9190a45050565b61394e614bc5565b6001805460ff191690557f5db9ee0a495bf2e6ff9c91a7834c1ba4fdd244a5e8aa4e537bd38aeae4b073aa335b60405161398891906155f3565b60405180910390a1565b60015460ff16156139d85760405162461bcd60e51b815260206004820152601060248201526f14185d5cd8589b194e881c185d5cd95960821b6044820152606401611270565b565b6139fb846323b872dd60e01b858585604051602401612e48939291906157ee565b50505050565b60007812725dd1d243aba0e75fe645cc4873f9e65afe688c928e1f218311670de0b6b3a764000002158202613a3e5763bcbede656000526004601cfd5b50670de0b6b3a7640000919091020490565b60008160070b138015613a6e5750670de0b6b3a7640000600782900b125b80613a845750670de0b6b8c1e505ce600782900b135b15613aa25760405163947800ab60e01b815260040160405180910390fd5b6005805467ffffffffffffffff19166001600160401b038316179055604051600782900b81527fcb1621676ff5c8c9deff7ffc0af9b2c296851bc5b191381ac07d97e82ec03fe69060200160405180910390a150565b6000806000846000015160070b1215613bfd576001600160401b037f000000000000000000000000000000000000000000000000000000000000000081811691604082901c1690670de0b6b3a764000064ffffffffff608083901c811682019260a881901c821683019260d09190911c909116016000613b788a8a614387565b905084811115613b855750835b858111613bb957613ba8613ba2613b9c8685615779565b88613a01565b826138b3565b613bb2908561578c565b9650613bf2565b613be5613bdb613bc98486615779565b6123d989670de0b6b3a7640000615779565b6123ca8884615779565b613bef908361578c565b96505b505050505050613c01565b5082515b6123e38482614c0e565b613c13615367565b600080613c208988614318565b60608c015190915087151580613c485750856001600160401b0316876001600160401b031614155b15613c9357613c64866001600160401b03166123ca8b8b614318565b613c77886001600160401b03168b6138b3565b8d60600151613c869190615779565b613c90919061578c565b90505b60008a15613cd857613cd3613ccd613caf8f606001518e613a01565b8f604001518f613cbf91906158f3565b6001600160401b03166138b3565b846138b3565b613cdb565b60005b90506000866001600160801b0316828f60800151613cf9919061578c565b613d039190615779565b90506040518060a001604052808f6000015160070b8152602001426001600160401b031681526020018e6001600160401b03168152602001848152602001828152509550505089600014613d9657613d91613d8b613d658e606001518d613a01565b613d7790670de0b6b3a7640000615779565b8e604001518760400151613cbf91906158f3565b8b6138b3565b613d99565b60005b925050509850989650505050505050565b6000613dd6613dd085602001516001600160401b0316866000015186613cbf91906158f3565b836138b3565b84604001516123e39190615913565b613ded614c4c565b42600255565b6000806000613e00612bc5565b604080516060810182526009546001600160801b03811682526001600160401b03600160801b820481166020840152600160c01b90910416918101919091529091506000613e4c611287565b9050613e5661530e565b838152600a546020820181905283516001600160801b031660a0830152670de0b6b3a764000060e0830152600090613e8f908690613af8565b600080516020615a6a833981519152546000818152601060209081526040808320838052909152902054919250905b898460600151101561401357811580613ed657508a82115b614013576000828152600e602052604090205460ff161580613ef6575080155b15613f2a57506000908152600f60209081526040808320600101548084526010835281842084805290925290912054613ebe565b6000828152601060209081526040808320848452909152902054818103613f515750614013565b6001600160a01b0382166000908152600d602090815260408083208151808301909252805482526001015491810182905284929091613f92908490896144bd565b9050613f9e89876138b3565b60c08901526060880151613fb2908f615779565b610100890152602082015181516040830151613ff392613fdc9290916001600160801b0316614290565b835160208d01518c906001600160401b03166142b0565b1561400757614004888383866144fc565b97505b83945050505050613ebe565b614030846000015185608001518660200151888a60400151614736565b506020840151600a5560608401518a1461405d57604051633e6c5e0f60e01b815260040160405180910390fd5b8360600151846040015198509850505050505050509250929050565b600080614087858585614290565b9050801580159061416b5750866001600160401b03166141697f0000000000000000000000000000000000000000000000000000000000000000887f00000000000000000000000000000000000000000000000000000000000000006001600160a01b03166370a08231306040518263ffffffff1660e01b815260040161410e91906155f3565b602060405180830381865afa15801561412b573d6000803e3d6000fd5b505050506040513d601f19601f8201168201806040525081019061414f9190615812565b614159919061579f565b61416391906157cc565b83613a01565b105b1561417a576001915050614180565b60009150505b95945050505050565b604080518082019091526000808252602082015285516141a99085614318565b865260208601516141ba9084614318565b60208701819052158015906141f357506009546020870151865160408801516001600160801b03938416936141f193929116614290565b105b1561421157604051634b2c23a160e11b815260040160405180910390fd5b6001600160a01b0387166000818152600d6020908152604090912088518155908801516001909101557f71671d6112ff9270f1553ebc8fbf767a3221090f1002c7047475b6fa8f5801cd85856142678682614318565b6040805193845260208401929092529082015260600160405180910390a2509395945050505050565b6000816142a685856001600160401b03166138b3565b6123e39190615779565b600084826142be858761579f565b6142c891906157cc565b101595945050505050565b8082036000821380156142e557508281115b806142fa57506000821280156142fa57508281105b15610b935760405163e942b9ed60e01b815260040160405180910390fd5b81810160008213801561432a57508281105b8061433f575060008212801561433f57508281115b15610b93576040516354012a2960e11b815260040160405180910390fd5b6000670de0b6b3a76400006143728484614c87565b8161437f5761437f6157b6565b059392505050565b60008061439d8385604001518660800151614290565b905080156144525761444d81600b547f00000000000000000000000000000000000000000000000000000000000000006001600160a01b0316631c3536e7306040518263ffffffff1660e01b81526004016143f891906155f3565b602060405180830381865afa158015614415573d6000803e3d6000fd5b505050506040513d601f19601f820116820180604052508101906144399190615812565b614443908561578c565b6123d99190615779565b6123e3565b6000949350505050565b6000600160401b8210614482576040516302217c1560e11b815260040160405180910390fd5b5090565b61448e6152ee565b81516001600160401b031660000361448257600060208301819052670de0b6b3a7640000835260408301525090565b6144c56152ee565b6144ce84612677565b90506144db818385613daa565b6001600160801b031660408201526001600160401b03909116815292915050565b61450461530e565b600080600080600061452c896020015189600001518a604001516001600160801b0316614290565b905060006145438b61010001518c60e001516138b3565b90506145a98183118015614563575060a08c01516145618385615779565b105b61457a57614575838d60e00151613a01565b614597565b6145978c60a001518461458d9190615779565b8d60e00151613a01565b6117e78c600001518e60c00151614cd0565b6101008c01519091508181118183180218955060006145cc878d60e001516138b3565b90506145dd81848c60400151614935565b6001600160801b0390811660408d01528b519195506145ff9183918716614d06565b945061460f878d60c00151613a01565b8b51909650861115614620578a5195505b8a51861480156146335750848b60200151115b1561465f576146428184615779565b8c61012001818151614654919061578c565b90525060208b015194505b5050506000896020015190506000614697888c600001518b858e602001516146868a614b9f565b61468f90615893565b896000614980565b908c5290506146cc888b8b6146ab89614b9f565b6146b490615893565b6146bd89614b9f565b6146c690615893565b87614189565b50838b6020018181516146df9190615779565b90525060408b0180518691906146f690839061578c565b90525060608b01805187919061470d90839061578c565b90525060808b01805182919061472490839061578c565b905250999a9950505050505050505050565b600061474d82848689604001518a60800151614d42565b61475686612f03565b61475f85614d74565b9695505050505050565b6040516001600160a01b0383166024820152604481018290526111ff90849063a9059cbb60e01b90606401612e48565b6147a38282611d46565b611283576147b081614dc7565b6147bb836020614dd9565b6040516020016147cc929190615957565b60408051601f198184030181529082905262461bcd60e51b8252611270916004016159c6565b6000614847826040518060400160405280602081526020017f5361666545524332303a206c6f772d6c6576656c2063616c6c206661696c6564815250856001600160a01b0316614f749092919063ffffffff16565b905080516000148061486857508080602001905181019061486891906159f9565b6111ff5760405162461bcd60e51b815260206004820152602a60248201527f5361666545524332303a204552433230206f7065726174696f6e20646964206e6044820152691bdd081cdd58d8d9595960b21b6064820152608401611270565b6000816000036148ea5760405163ee7efd5760e01b815260040160405180910390fd5b600082815260208490526040902054151580614916575060008281526020849052604090206001015415155b8061243257505060008080526020929092526040909120600101541490565b600081841580159061494657508315155b15614978578361495f6001600160801b0385168761579f565b61496991906157cc565b91506149758282615a16565b90505b935093915050565b614988615367565b60208781015160008b8152601190925260408220546149cc908c906149ad8a8a614318565b6001600160401b038816156149c25787614f83565b8c60200151614f83565b6001600160401b031660208a01526149e48b8a614fc9565b6149fc8a8a600001518a8a8a868f602001518c613c0b565b909c909b509950505050505050505050565b6000808212614a1d5781610b93565b600092915050565b6000806000806000807f00000000000000000000000000000000000000000000000000000000000000006001600160a01b0316635e5c06e2306040518263ffffffff1660e01b8152600401614a7a91906155f3565b6040805180830381865afa158015614a96573d6000803e3d6000fd5b505050506040513d601f19601f82011682018060405250810190614aba91906158af565b91509150614ac782614a0e565b9350614ad38282615078565b92506000614adf612bc5565b600a549091506000614b0383614af58185613af8565b846000806000806000613c0b565b90935090506000614b30848385614b18611287565b600954600160c01b90046001600160401b0316614736565b9050614b458385604001518660800151614290565b614b4f8c8a61578c565b614b59919061578c565b995080614b65876150a0565b614b6f919061578c565b9850888a1015614b9257604051630538704d60e11b815260040160405180910390fd5b5050505050509193509193565b6000600160ff1b821061448257604051632db27c5360e01b815260040160405180910390fd5b60015460ff166139d85760405162461bcd60e51b815260206004820152601460248201527314185d5cd8589b194e881b9bdd081c185d5cd95960621b6044820152606401611270565b600061243283604001516001600160401b03166123ca846001600160401b031686602001516001600160401b03164203670de0b6b3a76400006150b7565b614c54613992565b6001805460ff1916811790557f62e78cea01bee320cd4e420270b5ea74000d11b0c9f74754ebdbfc544b05a2583361397b565b8181026000831280614cb257508115801590614cb2575082828281614cae57614cae6157b6565b0514155b15610b9357604051631eed389360e01b815260040160405180910390fd5b600081600019048311820215614cee5763c4c5d7f56000526004601cfd5b50670de0b6b3a7640000910281810615159190040190565b6000614d24614d15838661578c565b846001600160401b0316613a01565b905083614d32828585614290565b1015612432576001019392505050565b614d4f8585858585614079565b15614d6d57604051632ce9f52360e01b815260040160405180910390fd5b5050505050565b6000614d7e613992565b614da8827f00000000000000000000000000000000000000000000000000000000000000006138b3565b600b6000828254614db9919061578c565b92505081905590505b919050565b6060610b936001600160a01b03831660145b60606000614de883600261579f565b614df390600261578c565b6001600160401b03811115614e0a57614e0a615508565b6040519080825280601f01601f191660200182016040528015614e34576020820181803683370190505b509050600360fc1b81600081518110614e4f57614e4f61582b565b60200101906001600160f81b031916908160001a905350600f60fb1b81600181518110614e7e57614e7e61582b565b60200101906001600160f81b031916908160001a9053506000614ea284600261579f565b614ead90600161578c565b90505b6001811115614f25576f181899199a1a9b1b9c1cb0b131b232b360811b85600f1660108110614ee157614ee161582b565b1a60f81b828281518110614ef757614ef761582b565b60200101906001600160f81b031916908160001a90535060049490941c93614f1e81615a36565b9050614eb0565b5083156124325760405162461bcd60e51b815260206004820181905260248201527f537472696e67733a20686578206c656e67746820696e73756666696369656e746044820152606401611270565b60606123e38484600085615175565b808315801590614f94575082601254115b156123e3576000848152601060205260409020614fb19086612f91565b50505060009182525060116020526040812081905590565b6001600160a01b0382166000818152600860209081526040918290208451815486840151878601516001600160801b03908116600160801b81026001600160401b03938416600160401b81026001600160801b031990961694909616938417949094179190911692909217909355845192835292820192909252918201527f491dea4b757c9c18e4b668fc545a09f969bd7a6ca7c9f79bb5f53a1e996aeac89060600160405180910390a25050565b60008061508483615893565b90508084126144525761509784826158d3565b61444d90615893565b6000808213614a1d576150b282615893565b610b93565b60008280156151695784801561515e576001851680156150d9578693506150dd565b8493505b50600284046002860495505b8515615158578687028760801c1561510057600080fd5b8181018181101561511057600080fd5b869004975050600186161561514d57868402848882041415881515161561513657600080fd5b8181018181101561514657600080fd5b8690049450505b6002860495506150e9565b50615163565b600092505b5061516d565b8291505b509392505050565b6060824710156151d65760405162461bcd60e51b815260206004820152602660248201527f416464726573733a20696e73756666696369656e742062616c616e636520666f6044820152651c8818d85b1b60d21b6064820152608401611270565b600080866001600160a01b031685876040516151f29190615a4d565b60006040518083038185875af1925050503d806000811461522f576040519150601f19603f3d011682016040523d82523d6000602084013e615234565b606091505b509150915061524587838387615250565b979650505050505050565b606083156152bf5782516000036152b8576001600160a01b0385163b6152b85760405162461bcd60e51b815260206004820152601d60248201527f416464726573733a2063616c6c20746f206e6f6e2d636f6e74726163740000006044820152606401611270565b50816123e3565b6123e383838151156152d45781518083602001fd5b8060405162461bcd60e51b815260040161127091906159c6565b604080516060810182526000808252602082018190529181019190915290565b604051806101400160405280615322615367565b81526020016000815260200160008152602001600081526020016000815260200160008152602001600081526020016000815260200160008152602001600081525090565b6040805160a08101825260008082526020820181905291810182905260608101829052608081019190915290565b6040518060a0016040528060008152602001600081526020016000815260200160006001600160801b0316815260200160006001600160801b031681525090565b80356001600160a01b0381168114614dc257600080fd5b6000602082840312156153ff57600080fd5b612432826153d6565b60006020828403121561541a57600080fd5b81356001600160e01b03198116811461243257600080fd5b6000806040838503121561544557600080fd5b82359150615455602084016153d6565b90509250929050565b60006020828403121561547057600080fd5b5035919050565b8015158114610bf057600080fd5b6000806040838503121561549857600080fd5b6154a1836153d6565b915060208301356154b181615477565b809150509250929050565b600080604083850312156154cf57600080fd5b50508035926020909101359150565b600080604083850312156154f157600080fd5b6154fa836153d6565b946020939093013593505050565b634e487b7160e01b600052604160045260246000fd5b600082601f83011261552f57600080fd5b813560206001600160401b038083111561554b5761554b615508565b8260051b604051601f19603f8301168101818110848211171561557057615570615508565b60405293845285810183019383810192508785111561558e57600080fd5b83870191505b8482101561524557813583529183019190830190615594565b600080604083850312156155c057600080fd5b8235915060208301356001600160401b038111156155dd57600080fd5b6155e98582860161551e565b9150509250929050565b6001600160a01b0391909116815260200190565b60008060006060848603121561561c57600080fd5b615625846153d6565b9250615633602085016153d6565b9150604084013561564381615477565b809150509250925092565b600080600080600060a0868803121561566657600080fd5b61566f866153d6565b945061567d602087016153d6565b935061568b604087016153d6565b94979396509394606081013594506080013592915050565b600080604083850312156156b657600080fd5b6156bf836153d6565b9150615455602084016153d6565b6000806000604084860312156156e257600080fd5b83356001600160401b03808211156156f957600080fd5b818601915086601f83011261570d57600080fd5b81358181111561571c57600080fd5b8760208260051b850101111561573157600080fd5b60209283019550935090850135908082111561574c57600080fd5b506157598682870161551e565b9150509250925092565b634e487b7160e01b600052601160045260246000fd5b81810381811115610b9357610b93615763565b80820180821115610b9357610b93615763565b8082028115828204841417610b9357610b93615763565b634e487b7160e01b600052601260045260246000fd5b6000826157e957634e487b7160e01b600052601260045260246000fd5b500490565b6001600160a01b039384168152919092166020820152604081019190915260600190565b60006020828403121561582457600080fd5b5051919050565b634e487b7160e01b600052603260045260246000fd5b6001600160a01b039485168152928416602084015292166040820152901515606082015260800190565b808201828112600083128015821682158216171561588b5761588b615763565b505092915050565b6000600160ff1b82016158a8576158a8615763565b5060000390565b600080604083850312156158c257600080fd5b505080516020909101519092909150565b8181036000831280158383131683831282161715610eb357610eb3615763565b6001600160401b03828116828216039080821115610eb357610eb3615763565b6001600160801b03818116838216019080821115610eb357610eb3615763565b60005b8381101561594e578181015183820152602001615936565b50506000910152565b76020b1b1b2b9b9a1b7b73a3937b61d1030b1b1b7bab73a1604d1b815260008351615989816017850160208801615933565b7001034b99036b4b9b9b4b733903937b6329607d1b60179184019182015283516159ba816028840160208801615933565b01602801949350505050565b60208152600082518060208401526159e5816040850160208701615933565b601f01601f19169190910160400192915050565b600060208284031215615a0b57600080fd5b815161243281615477565b6001600160801b03828116828216039080821115610eb357610eb3615763565b600081615a4557615a45615763565b506000190190565b60008251615a5f818460208701615933565b919091019291505056fef4803e074bd026baaf6ed2e288c9515f68c72fb7216eebdd7cae1718a53ec376a26469706673582212200712db1dbd235536ad4e5d98a6cb2a7be8213678e3f359319ccd57177ec1c8bf64736f6c63430008130033a2646970667358221220376ece618063e99a08f66ca950ab5ab6f759f3314753228f52112b5d7f9ef86964736f6c63430008130033",
    "linkReferences": {}
  },
  "methodIdentifiers": {
    "deploy()": "775c300c"
  },
  "id": 93
}