{
  "abi": [
    {
      "inputs": [],
      "stateMutability": "nonpayable",
      "type": "constructor"
    },
    {
      "inputs": [
        {
          "internalType": "string",
          "name": "str",
          "type": "string"
        }
      ],
      "name": "StringTooLong",
      "type": "error"
    },
    {
      "anonymous": false,
      "inputs": [
        {
          "indexed": true,
          "internalType": "address",
          "name": "owner",
          "type": "address"
        },
        {
          "indexed": true,
          "internalType": "address",
          "name": "spender",
          "type": "address"
        },
        {
          "indexed": false,
          "internalType": "uint256",
          "name": "value",
          "type": "uint256"
        }
      ],
      "name": "Approval",
      "type": "event"
    },
    {
      "anonymous": false,
      "inputs": [],
      "name": "EIP712DomainChanged",
      "type": "event"
    },
    {
      "anonymous": false,
      "inputs": [
        {
          "indexed": true,
          "internalType": "bytes32",
          "name": "role",
          "type": "bytes32"
        },
        {
          "indexed": true,
          "internalType": "bytes32",
          "name": "previousAdminRole",
          "type": "bytes32"
        },
        {
          "indexed": true,
          "internalType": "bytes32",
          "name": "newAdminRole",
          "type": "bytes32"
        }
      ],
      "name": "RoleAdminChanged",
      "type": "event"
    },
    {
      "anonymous": false,
      "inputs": [
        {
          "indexed": true,
          "internalType": "bytes32",
          "name": "role",
          "type": "bytes32"
        },
        {
          "indexed": true,
          "internalType": "address",
          "name": "account",
          "type": "address"
        },
        {
          "indexed": true,
          "internalType": "address",
          "name": "sender",
          "type": "address"
        }
      ],
      "name": "RoleGranted",
      "type": "event"
    },
    {
      "anonymous": false,
      "inputs": [
        {
          "indexed": true,
          "internalType": "bytes32",
          "name": "role",
          "type": "bytes32"
        },
        {
          "indexed": true,
          "internalType": "address",
          "name": "account",
          "type": "address"
        },
        {
          "indexed": true,
          "internalType": "address",
          "name": "sender",
          "type": "address"
        }
      ],
      "name": "RoleRevoked",
      "type": "event"
    },
    {
      "anonymous": false,
      "inputs": [
        {
          "indexed": true,
          "internalType": "address",
          "name": "from",
          "type": "address"
        },
        {
          "indexed": true,
          "internalType": "address",
          "name": "to",
          "type": "address"
        },
        {
          "indexed": false,
          "internalType": "uint256",
          "name": "value",
          "type": "uint256"
        }
      ],
      "name": "Transfer",
      "type": "event"
    },
    {
      "inputs": [],
      "name": "DEFAULT_ADMIN_ROLE",
      "outputs": [
        {
          "internalType": "bytes32",
          "name": "",
          "type": "bytes32"
        }
      ],
      "stateMutability": "view",
      "type": "function"
    },
    {
      "inputs": [],
      "name": "DOMAIN_SEPARATOR",
      "outputs": [
        {
          "internalType": "bytes32",
          "name": "",
          "type": "bytes32"
        }
      ],
      "stateMutability": "view",
      "type": "function"
    },
    {
      "inputs": [
        {
          "internalType": "address",
          "name": "owner",
          "type": "address"
        },
        {
          "internalType": "address",
          "name": "spender",
          "type": "address"
        }
      ],
      "name": "allowance",
      "outputs": [
        {
          "internalType": "uint256",
          "name": "",
          "type": "uint256"
        }
      ],
      "stateMutability": "view",
      "type": "function"
    },
    {
      "inputs": [
        {
          "internalType": "address",
          "name": "spender",
          "type": "address"
        },
        {
          "internalType": "uint256",
          "name": "amount",
          "type": "uint256"
        }
      ],
      "name": "approve",
      "outputs": [
        {
          "internalType": "bool",
          "name": "",
          "type": "bool"
        }
      ],
      "stateMutability": "nonpayable",
      "type": "function"
    },
    {
      "inputs": [
        {
          "internalType": "address",
          "name": "account",
          "type": "address"
        }
      ],
      "name": "balanceOf",
      "outputs": [
        {
          "internalType": "uint256",
          "name": "",
          "type": "uint256"
        }
      ],
      "stateMutability": "view",
      "type": "function"
    },
    {
      "inputs": [
        {
          "internalType": "address",
          "name": "from",
          "type": "address"
        },
        {
          "internalType": "uint256",
          "name": "amount",
          "type": "uint256"
        }
      ],
      "name": "burn",
      "outputs": [],
      "stateMutability": "nonpayable",
      "type": "function"
    },
    {
      "inputs": [],
      "name": "decimals",
      "outputs": [
        {
          "internalType": "uint8",
          "name": "",
          "type": "uint8"
        }
      ],
      "stateMutability": "view",
      "type": "function"
    },
    {
      "inputs": [
        {
          "internalType": "address",
          "name": "spender",
          "type": "address"
        },
        {
          "internalType": "uint256",
          "name": "subtractedValue",
          "type": "uint256"
        }
      ],
      "name": "decreaseAllowance",
      "outputs": [
        {
          "internalType": "bool",
          "name": "",
          "type": "bool"
        }
      ],
      "stateMutability": "nonpayable",
      "type": "function"
    },
    {
      "inputs": [],
      "name": "eip712Domain",
      "outputs": [
        {
          "internalType": "bytes1",
          "name": "fields",
          "type": "bytes1"
        },
        {
          "internalType": "string",
          "name": "name",
          "type": "string"
        },
        {
          "internalType": "string",
          "name": "version",
          "type": "string"
        },
        {
          "internalType": "uint256",
          "name": "chainId",
          "type": "uint256"
        },
        {
          "internalType": "address",
          "name": "verifyingContract",
          "type": "address"
        },
        {
          "internalType": "bytes32",
          "name": "salt",
          "type": "bytes32"
        },
        {
          "internalType": "uint256[]",
          "name": "extensions",
          "type": "uint256[]"
        }
      ],
      "stateMutability": "view",
      "type": "function"
    },
    {
      "inputs": [
        {
          "internalType": "bytes32",
          "name": "role",
          "type": "bytes32"
        }
      ],
      "name": "getRoleAdmin",
      "outputs": [
        {
          "internalType": "bytes32",
          "name": "",
          "type": "bytes32"
        }
      ],
      "stateMutability": "view",
      "type": "function"
    },
    {
      "inputs": [
        {
          "internalType": "bytes32",
          "name": "role",
          "type": "bytes32"
        },
        {
          "internalType": "address",
          "name": "account",
          "type": "address"
        }
      ],
      "name": "grantRole",
      "outputs": [],
      "stateMutability": "nonpayable",
      "type": "function"
    },
    {
      "inputs": [
        {
          "internalType": "bytes32",
          "name": "role",
          "type": "bytes32"
        },
        {
          "internalType": "address",
          "name": "account",
          "type": "address"
        }
      ],
      "name": "hasRole",
      "outputs": [
        {
          "internalType": "bool",
          "name": "",
          "type": "bool"
        }
      ],
      "stateMutability": "view",
      "type": "function"
    },
    {
      "inputs": [
        {
          "internalType": "address",
          "name": "spender",
          "type": "address"
        },
        {
          "internalType": "uint256",
          "name": "addedValue",
          "type": "uint256"
        }
      ],
      "name": "increaseAllowance",
      "outputs": [
        {
          "internalType": "bool",
          "name": "",
          "type": "bool"
        }
      ],
      "stateMutability": "nonpayable",
      "type": "function"
    },
    {
      "inputs": [
        {
          "internalType": "address",
          "name": "to",
          "type": "address"
        },
        {
          "internalType": "uint256",
          "name": "amount",
          "type": "uint256"
        }
      ],
      "name": "mint",
      "outputs": [],
      "stateMutability": "nonpayable",
      "type": "function"
    },
    {
      "inputs": [],
      "name": "name",
      "outputs": [
        {
          "internalType": "string",
          "name": "",
          "type": "string"
        }
      ],
      "stateMutability": "view",
      "type": "function"
    },
    {
      "inputs": [
        {
          "internalType": "address",
          "name": "owner",
          "type": "address"
        }
      ],
      "name": "nonces",
      "outputs": [
        {
          "internalType": "uint256",
          "name": "",
          "type": "uint256"
        }
      ],
      "stateMutability": "view",
      "type": "function"
    },
    {
      "inputs": [
        {
          "internalType": "address",
          "name": "owner",
          "type": "address"
        },
        {
          "internalType": "address",
          "name": "spender",
          "type": "address"
        },
        {
          "internalType": "uint256",
          "name": "value",
          "type": "uint256"
        },
        {
          "internalType": "uint256",
          "name": "deadline",
          "type": "uint256"
        },
        {
          "internalType": "uint8",
          "name": "v",
          "type": "uint8"
        },
        {
          "internalType": "bytes32",
          "name": "r",
          "type": "bytes32"
        },
        {
          "internalType": "bytes32",
          "name": "s",
          "type": "bytes32"
        }
      ],
      "name": "permit",
      "outputs": [],
      "stateMutability": "nonpayable",
      "type": "function"
    },
    {
      "inputs": [
        {
          "internalType": "bytes32",
          "name": "role",
          "type": "bytes32"
        },
        {
          "internalType": "address",
          "name": "account",
          "type": "address"
        }
      ],
      "name": "renounceRole",
      "outputs": [],
      "stateMutability": "nonpayable",
      "type": "function"
    },
    {
      "inputs": [
        {
          "internalType": "bytes32",
          "name": "role",
          "type": "bytes32"
        },
        {
          "internalType": "address",
          "name": "account",
          "type": "address"
        }
      ],
      "name": "revokeRole",
      "outputs": [],
      "stateMutability": "nonpayable",
      "type": "function"
    },
    {
      "inputs": [
        {
          "internalType": "bytes4",
          "name": "interfaceId",
          "type": "bytes4"
        }
      ],
      "name": "supportsInterface",
      "outputs": [
        {
          "internalType": "bool",
          "name": "",
          "type": "bool"
        }
      ],
      "stateMutability": "view",
      "type": "function"
    },
    {
      "inputs": [],
      "name": "symbol",
      "outputs": [
        {
          "internalType": "string",
          "name": "",
          "type": "string"
        }
      ],
      "stateMutability": "view",
      "type": "function"
    },
    {
      "inputs": [],
      "name": "totalSupply",
      "outputs": [
        {
          "internalType": "uint256",
          "name": "",
          "type": "uint256"
        }
      ],
      "stateMutability": "view",
      "type": "function"
    },
    {
      "inputs": [
        {
          "internalType": "address",
          "name": "to",
          "type": "address"
        },
        {
          "internalType": "uint256",
          "name": "amount",
          "type": "uint256"
        }
      ],
      "name": "transfer",
      "outputs": [
        {
          "internalType": "bool",
          "name": "",
          "type": "bool"
        }
      ],
      "stateMutability": "nonpayable",
      "type": "function"
    },
    {
      "inputs": [
        {
          "internalType": "address",
          "name": "from",
          "type": "address"
        },
        {
          "internalType": "address",
          "name": "to",
          "type": "address"
        },
        {
          "internalType": "uint256",
          "name": "amount",
          "type": "uint256"
        }
      ],
      "name": "transferFrom",
      "outputs": [
        {
          "internalType": "bool",
          "name": "",
          "type": "bool"
        }
      ],
      "stateMutability": "nonpayable",
      "type": "function"
    }
  ],
  "bytecode": {
    "object": "0x6101606040523480156200001257600080fd5b506040518060400160405280600a81526020016929ba30b13632b1b7b4b760b11b81525080604051806040016040528060018152602001603160f81b8152506040518060400160405280600a81526020016929ba30b13632b1b7b4b760b11b8152506040518060400160405280600481526020016314d5109360e21b8152508160049081620000a2919062000377565b506005620000b1828262000377565b50620000c391508390506006620001ac565b60e052620000d3816007620001ac565b61010052815160208084019190912061012052815190820120610140524660a052620001636101205161014051604080517f8b73c3c69bb8fe3d512ecc4cf759cc79239f7b179b0ffacaa9a75d522b39400f60208201529081019290925260608201524660808201523060a082015260009060c00160405160208183030381529060405280519060200120905090565b60805250503060c052506200017a600033620001e5565b620001a67f553c15132cdbfb2f7255bedd79fb0e91b615777da29e2ed768297cd19eef47b033620001e5565b620004b8565b6000602083511015620001cc57620001c48362000286565b9050620001df565b81620001d9848262000377565b50600090505b92915050565b6000828152602081815260408083206001600160a01b038516845290915290205460ff1662000282576000828152602081815260408083206001600160a01b03851684529091529020805460ff19166001179055620002413390565b6001600160a01b0316816001600160a01b0316837f2f8788117e7eff1d82e926ec794901d17c78024a50270940304540a733656f0d60405160405180910390a45b5050565b600080829050601f81511115620002bd578260405163305a27a960e01b8152600401620002b4919062000443565b60405180910390fd5b8051620002ca8262000493565b179392505050565b634e487b7160e01b600052604160045260246000fd5b600181811c90821680620002fd57607f821691505b6020821081036200031e57634e487b7160e01b600052602260045260246000fd5b50919050565b601f8211156200037257600081815260208120601f850160051c810160208610156200034d5750805b601f850160051c820191505b818110156200036e5782815560010162000359565b5050505b505050565b81516001600160401b03811115620003935762000393620002d2565b620003ab81620003a48454620002e8565b8462000324565b602080601f831160018114620003e35760008415620003ca5750858301515b600019600386901b1c1916600185901b1785556200036e565b600085815260208120601f198616915b828110156200041457888601518255948401946001909101908401620003f3565b5085821015620004335787850151600019600388901b60f8161c191681555b5050505050600190811b01905550565b600060208083528351808285015260005b81811015620004725785810183015185820160400152820162000454565b506000604082860101526040601f19601f8301168501019250505092915050565b805160208083015191908110156200031e5760001960209190910360031b1b16919050565b60805160a05160c05160e0516101005161012051610140516119a5620005136000396000610d0b01526000610ce3015260006105b40152600061058901526000610c3e01526000610c6801526000610c9201526119a56000f3fe608060405234801561001057600080fd5b50600436106101585760003560e01c806370a08231116100c3578063a217fddf1161007c578063a217fddf146102df578063a457c2d7146102e7578063a9059cbb146102fa578063d505accf1461030d578063d547741f14610320578063dd62ed3e1461033357600080fd5b806370a082311461025a5780637ecebe001461028357806384b0196e1461029657806391d14854146102b157806395d89b41146102c45780639dc29fac146102cc57600080fd5b80632f2ff15d116101155780632f2ff15d146101f5578063313ce5671461020a5780633644e5151461021957806336568abe14610221578063395093511461023457806340c10f191461024757600080fd5b806301ffc9a71461015d57806306fdde0314610185578063095ea7b31461019a57806318160ddd146101ad57806323b872dd146101bf578063248a9ca3146101d2575b600080fd5b61017061016b366004611571565b610346565b60405190151581526020015b60405180910390f35b61018d61037d565b60405161017c91906115eb565b6101706101a836600461161a565b61040f565b6003545b60405190815260200161017c565b6101706101cd366004611644565b610427565b6101b16101e0366004611680565b60009081526020819052604090206001015490565b610208610203366004611699565b61044b565b005b6040516012815260200161017c565b6101b1610475565b61020861022f366004611699565b610484565b61017061024236600461161a565b610507565b61020861025536600461161a565b610529565b6101b16102683660046116c5565b6001600160a01b031660009081526001602052604090205490565b6101b16102913660046116c5565b61055d565b61029e61057b565b60405161017c97969594939291906116e0565b6101706102bf366004611699565b610604565b61018d61062d565b6102086102da36600461161a565b61063c565b6101b1600081565b6101706102f536600461161a565b61067b565b61017061030836600461161a565b6106f6565b61020861031b366004611776565b610704565b61020861032e366004611699565b610868565b6101b16103413660046117e9565b61088d565b60006001600160e01b03198216637965db0b60e01b148061037757506301ffc9a760e01b6001600160e01b03198316145b92915050565b60606004805461038c90611813565b80601f01602080910402602001604051908101604052809291908181526020018280546103b890611813565b80156104055780601f106103da57610100808354040283529160200191610405565b820191906000526020600020905b8154815290600101906020018083116103e857829003601f168201915b5050505050905090565b60003361041d8185856108b8565b5060019392505050565b6000336104358582856109dc565b610440858585610a05565b506001949350505050565b60008281526020819052604090206001015461046681610ba0565b6104708383610bad565b505050565b600061047f610c31565b905090565b6001600160a01b03811633146104f95760405162461bcd60e51b815260206004820152602f60248201527f416363657373436f6e74726f6c3a2063616e206f6e6c792072656e6f756e636560448201526e103937b632b9903337b91039b2b63360891b60648201526084015b60405180910390fd5b6105038282610d5c565b5050565b60003361041d81858561051a838361088d565b610524919061185d565b6108b8565b7f553c15132cdbfb2f7255bedd79fb0e91b615777da29e2ed768297cd19eef47b061055381610ba0565b6104708383610dc1565b6001600160a01b038116600090815260086020526040812054610377565b6000606080828080836105af7f00000000000000000000000000000000000000000000000000000000000000006006610e70565b6105da7f00000000000000000000000000000000000000000000000000000000000000006007610e70565b60408051600080825260208201909252600f60f81b9b939a50919850469750309650945092509050565b6000918252602082815260408084206001600160a01b0393909316845291905290205460ff1690565b60606005805461038c90611813565b7f553c15132cdbfb2f7255bedd79fb0e91b615777da29e2ed768297cd19eef47b061066681610ba0565b6106718333846109dc565b6104708383610f1c565b60003381610689828661088d565b9050838110156106e95760405162461bcd60e51b815260206004820152602560248201527f45524332303a2064656372656173656420616c6c6f77616e63652062656c6f77604482015264207a65726f60d81b60648201526084016104f0565b61044082868684036108b8565b60003361041d818585610a05565b834211156107545760405162461bcd60e51b815260206004820152601d60248201527f45524332305065726d69743a206578706972656420646561646c696e6500000060448201526064016104f0565b60007f6e71edae12b1b97f4d1f60370fef10105fa2faae0126114a169c64845d6126c98888886107838c61103e565b6040805160208101969096526001600160a01b0394851690860152929091166060840152608083015260a082015260c0810186905260e00160405160208183030381529060405280519060200120905060006107de82611066565b905060006107ee82878787611093565b9050896001600160a01b0316816001600160a01b0316146108515760405162461bcd60e51b815260206004820152601e60248201527f45524332305065726d69743a20696e76616c6964207369676e6174757265000060448201526064016104f0565b61085c8a8a8a6108b8565b50505050505050505050565b60008281526020819052604090206001015461088381610ba0565b6104708383610d5c565b6001600160a01b03918216600090815260026020908152604080832093909416825291909152205490565b6001600160a01b03831661091a5760405162461bcd60e51b8152602060048201526024808201527f45524332303a20617070726f76652066726f6d20746865207a65726f206164646044820152637265737360e01b60648201526084016104f0565b6001600160a01b03821661097b5760405162461bcd60e51b815260206004820152602260248201527f45524332303a20617070726f766520746f20746865207a65726f206164647265604482015261737360f01b60648201526084016104f0565b6001600160a01b0383811660008181526002602090815260408083209487168084529482529182902085905590518481527f8c5be1e5ebec7d5bd14f71427d1e84f3dd0314c0f7b2291e5b200ac8c7c3b925910160405180910390a3505050565b816001600160a01b0316836001600160a01b0316036109fa57505050565b6104708383836110bb565b6001600160a01b038316610a695760405162461bcd60e51b815260206004820152602560248201527f45524332303a207472616e736665722066726f6d20746865207a65726f206164604482015264647265737360d81b60648201526084016104f0565b6001600160a01b038216610acb5760405162461bcd60e51b815260206004820152602360248201527f45524332303a207472616e7366657220746f20746865207a65726f206164647260448201526265737360e81b60648201526084016104f0565b6001600160a01b03831660009081526001602052604090205481811015610b435760405162461bcd60e51b815260206004820152602660248201527f45524332303a207472616e7366657220616d6f756e7420657863656564732062604482015265616c616e636560d01b60648201526084016104f0565b6001600160a01b03808516600081815260016020526040808220868603905592861680825290839020805486019055915160008051602061195083398151915290610b919086815260200190565b60405180910390a35b50505050565b610baa813361112f565b50565b610bb78282610604565b610503576000828152602081815260408083206001600160a01b03851684529091529020805460ff19166001179055610bed3390565b6001600160a01b0316816001600160a01b0316837f2f8788117e7eff1d82e926ec794901d17c78024a50270940304540a733656f0d60405160405180910390a45050565b6000306001600160a01b037f000000000000000000000000000000000000000000000000000000000000000016148015610c8a57507f000000000000000000000000000000000000000000000000000000000000000046145b15610cb457507f000000000000000000000000000000000000000000000000000000000000000090565b61047f604080517f8b73c3c69bb8fe3d512ecc4cf759cc79239f7b179b0ffacaa9a75d522b39400f60208201527f0000000000000000000000000000000000000000000000000000000000000000918101919091527f000000000000000000000000000000000000000000000000000000000000000060608201524660808201523060a082015260009060c00160405160208183030381529060405280519060200120905090565b610d668282610604565b15610503576000828152602081815260408083206001600160a01b0385168085529252808320805460ff1916905551339285917ff6391f5c32d9c69d2a47ea670b442974b53935d1edc7fd64eb21e047a839171b9190a45050565b6001600160a01b038216610e175760405162461bcd60e51b815260206004820152601f60248201527f45524332303a206d696e7420746f20746865207a65726f20616464726573730060448201526064016104f0565b8060036000828254610e29919061185d565b90915550506001600160a01b038216600081815260016020908152604080832080548601905551848152600080516020611950833981519152910160405180910390a35050565b606060ff831615610e8b57610e8483611188565b9050610377565b818054610e9790611813565b80601f0160208091040260200160405190810160405280929190818152602001828054610ec390611813565b8015610f105780601f10610ee557610100808354040283529160200191610f10565b820191906000526020600020905b815481529060010190602001808311610ef357829003601f168201915b50505050509050610377565b6001600160a01b038216610f7c5760405162461bcd60e51b815260206004820152602160248201527f45524332303a206275726e2066726f6d20746865207a65726f206164647265736044820152607360f81b60648201526084016104f0565b6001600160a01b03821660009081526001602052604090205481811015610ff05760405162461bcd60e51b815260206004820152602260248201527f45524332303a206275726e20616d6f756e7420657863656564732062616c616e604482015261636560f01b60648201526084016104f0565b6001600160a01b0383166000818152600160209081526040808320868603905560038054879003905551858152919291600080516020611950833981519152910160405180910390a3505050565b6001600160a01b03811660009081526008602052604090208054600181018255905b50919050565b6000610377611073610c31565b8360405161190160f01b8152600281019290925260228201526042902090565b60008060006110a4878787876111bd565b915091506110b181611277565b5095945050505050565b60006110c7848461088d565b90506000198114610b9a57818110156111225760405162461bcd60e51b815260206004820152601d60248201527f45524332303a20696e73756666696369656e7420616c6c6f77616e636500000060448201526064016104f0565b610b9a84848484036108b8565b6111398282610604565b61050357611146816113bc565b6111518360206113ce565b604051602001611162929190611886565b60408051601f198184030181529082905262461bcd60e51b82526104f0916004016115eb565b60408051602080825281830190925260609160ff84169160009180820181803683375050509182525060208101929092525090565b6000806fa2a8918ca85bafe22016d0b997e4df60600160ff1b038311156111ea575060009050600361126e565b6040805160008082526020820180845289905260ff881692820192909252606081018690526080810185905260019060a0016020604051602081039080840390855afa15801561123e573d6000803e3d6000fd5b5050604051601f1901519150506001600160a01b0381166112675760006001925092505061126e565b9150600090505b94509492505050565b600081600481111561128b5761128b6118f5565b036112935750565b60018160048111156112a7576112a76118f5565b036112ef5760405162461bcd60e51b815260206004820152601860248201527745434453413a20696e76616c6964207369676e617475726560401b60448201526064016104f0565b6002816004811115611303576113036118f5565b036113505760405162461bcd60e51b815260206004820152601f60248201527f45434453413a20696e76616c6964207369676e6174757265206c656e6774680060448201526064016104f0565b6003816004811115611364576113646118f5565b03610baa5760405162461bcd60e51b815260206004820152602260248201527f45434453413a20696e76616c6964207369676e6174757265202773272076616c604482015261756560f01b60648201526084016104f0565b60606103776001600160a01b03831660145b606060006113dd83600261190b565b6113e890600261185d565b67ffffffffffffffff81111561140057611400611870565b6040519080825280601f01601f19166020018201604052801561142a576020820181803683370190505b509050600360fc1b8160008151811061144557611445611922565b60200101906001600160f81b031916908160001a905350600f60fb1b8160018151811061147457611474611922565b60200101906001600160f81b031916908160001a905350600061149884600261190b565b6114a390600161185d565b90505b600181111561151b576f181899199a1a9b1b9c1cb0b131b232b360811b85600f16601081106114d7576114d7611922565b1a60f81b8282815181106114ed576114ed611922565b60200101906001600160f81b031916908160001a90535060049490941c9361151481611938565b90506114a6565b50831561156a5760405162461bcd60e51b815260206004820181905260248201527f537472696e67733a20686578206c656e67746820696e73756666696369656e7460448201526064016104f0565b9392505050565b60006020828403121561158357600080fd5b81356001600160e01b03198116811461156a57600080fd5b60005b838110156115b657818101518382015260200161159e565b50506000910152565b600081518084526115d781602086016020860161159b565b601f01601f19169290920160200192915050565b60208152600061156a60208301846115bf565b80356001600160a01b038116811461161557600080fd5b919050565b6000806040838503121561162d57600080fd5b611636836115fe565b946020939093013593505050565b60008060006060848603121561165957600080fd5b611662846115fe565b9250611670602085016115fe565b9150604084013590509250925092565b60006020828403121561169257600080fd5b5035919050565b600080604083850312156116ac57600080fd5b823591506116bc602084016115fe565b90509250929050565b6000602082840312156116d757600080fd5b61156a826115fe565b60ff60f81b881681526000602060e08184015261170060e084018a6115bf565b8381036040850152611712818a6115bf565b606085018990526001600160a01b038816608086015260a0850187905284810360c0860152855180825283870192509083019060005b8181101561176457835183529284019291840191600101611748565b50909c9b505050505050505050505050565b600080600080600080600060e0888a03121561179157600080fd5b61179a886115fe565b96506117a8602089016115fe565b95506040880135945060608801359350608088013560ff811681146117cc57600080fd5b9699959850939692959460a0840135945060c09093013592915050565b600080604083850312156117fc57600080fd5b611805836115fe565b91506116bc602084016115fe565b600181811c9082168061182757607f821691505b60208210810361106057634e487b7160e01b600052602260045260246000fd5b634e487b7160e01b600052601160045260246000fd5b8082018082111561037757610377611847565b634e487b7160e01b600052604160045260246000fd5b76020b1b1b2b9b9a1b7b73a3937b61d1030b1b1b7bab73a1604d1b8152600083516118b881601785016020880161159b565b7001034b99036b4b9b9b4b733903937b6329607d1b60179184019182015283516118e981602884016020880161159b565b01602801949350505050565b634e487b7160e01b600052602160045260246000fd5b808202811582820484141761037757610377611847565b634e487b7160e01b600052603260045260246000fd5b60008161194757611947611847565b50600019019056feddf252ad1be2c89b69c2b068fc378daa952ba7f163c4a11628f55a4df523b3efa26469706673582212201f72b7f1bfe89d25f4babc21389905e8b4aa4064729e07c3b4e09146f6fe568064736f6c63430008130033",
    "linkReferences": {}
  },
  "methodIdentifiers": {
    "DEFAULT_ADMIN_ROLE()": "a217fddf",
    "DOMAIN_SEPARATOR()": "3644e515",
    "allowance(address,address)": "dd62ed3e",
    "approve(address,uint256)": "095ea7b3",
    "balanceOf(address)": "70a08231",
    "burn(address,uint256)": "9dc29fac",
    "decimals()": "313ce567",
    "decreaseAllowance(address,uint256)": "a457c2d7",
    "eip712Domain()": "84b0196e",
    "getRoleAdmin(bytes32)": "248a9ca3",
    "grantRole(bytes32,address)": "2f2ff15d",
    "hasRole(bytes32,address)": "91d14854",
    "increaseAllowance(address,uint256)": "39509351",
    "mint(address,uint256)": "40c10f19",
    "name()": "06fdde03",
    "nonces(address)": "7ecebe00",
    "permit(address,address,uint256,uint256,uint8,bytes32,bytes32)": "d505accf",
    "renounceRole(bytes32,address)": "36568abe",
    "revokeRole(bytes32,address)": "d547741f",
    "supportsInterface(bytes4)": "01ffc9a7",
    "symbol()": "95d89b41",
    "totalSupply()": "18160ddd",
    "transfer(address,uint256)": "a9059cbb",
    "transferFrom(address,address,uint256)": "23b872dd"
  },
  "id": 96
}