{
  "abi": [
    {
      "inputs": [
        {
          "internalType": "address",
          "name": "flashlender_",
          "type": "address"
        },
        {
          "internalType": "address",
          "name": "swapActions_",
          "type": "address"
        },
        {
          "internalType": "address",
          "name": "PoolAction_",
          "type": "address"
        }
      ],
      "stateMutability": "nonpayable",
      "type": "constructor"
    },
    {
      "inputs": [],
      "name": "Action__revertBytes_emptyRevertBytes",
      "type": "error"
    },
    {
      "inputs": [],
      "name": "Math__toInt256_overflow",
      "type": "error"
    },
    {
      "inputs": [],
      "name": "PositionActionChai__onDeposit__invalidSrcToken",
      "type": "error"
    },
    {
      "inputs": [],
      "name": "PositionActionChai__onIncreaseLever__invalidUpFrontToken",
      "type": "error"
    },
    {
      "inputs": [],
      "name": "PositionAction__borrow_InvalidAuxSwap",
      "type": "error"
    },
    {
      "inputs": [],
      "name": "PositionAction__decreaseLever_invalidAuxSwap",
      "type": "error"
    },
    {
      "inputs": [],
      "name": "PositionAction__decreaseLever_invalidPrimarySwap",
      "type": "error"
    },
    {
      "inputs": [],
      "name": "PositionAction__decreaseLever_invalidResidualRecipient",
      "type": "error"
    },
    {
      "inputs": [],
      "name": "PositionAction__delegateViaStablecoin_InvalidAuxSwap",
      "type": "error"
    },
    {
      "inputs": [],
      "name": "PositionAction__deposit_InvalidAuxSwap",
      "type": "error"
    },
    {
      "inputs": [],
      "name": "PositionAction__increaseLever_invalidAuxSwap",
      "type": "error"
    },
    {
      "inputs": [],
      "name": "PositionAction__increaseLever_invalidPrimarySwap",
      "type": "error"
    },
    {
      "inputs": [],
      "name": "PositionAction__onCreditFlashLoan__invalidSender",
      "type": "error"
    },
    {
      "inputs": [],
      "name": "PositionAction__onFlashLoan__invalidSender",
      "type": "error"
    },
    {
      "inputs": [],
      "name": "PositionAction__onlyDelegatecall",
      "type": "error"
    },
    {
      "inputs": [],
      "name": "PositionAction__repay_InvalidAuxSwap",
      "type": "error"
    },
    {
      "inputs": [],
      "name": "CALLBACK_SUCCESS",
      "outputs": [
        {
          "internalType": "bytes32",
          "name": "",
          "type": "bytes32"
        }
      ],
      "stateMutability": "view",
      "type": "function"
    },
    {
      "inputs": [],
      "name": "CALLBACK_SUCCESS_CREDIT",
      "outputs": [
        {
          "internalType": "bytes32",
          "name": "",
          "type": "bytes32"
        }
      ],
      "stateMutability": "view",
      "type": "function"
    },
    {
      "inputs": [
        {
          "internalType": "address",
          "name": "position",
          "type": "address"
        },
        {
          "internalType": "address",
          "name": "vault",
          "type": "address"
        },
        {
          "components": [
            {
              "internalType": "uint256",
              "name": "amount",
              "type": "uint256"
            },
            {
              "internalType": "address",
              "name": "creditor",
              "type": "address"
            },
            {
              "components": [
                {
                  "internalType": "enum SwapProtocol",
                  "name": "swapProtocol",
                  "type": "uint8"
                },
                {
                  "internalType": "enum SwapType",
                  "name": "swapType",
                  "type": "uint8"
                },
                {
                  "internalType": "address",
                  "name": "assetIn",
                  "type": "address"
                },
                {
                  "internalType": "uint256",
                  "name": "amount",
                  "type": "uint256"
                },
                {
                  "internalType": "uint256",
                  "name": "limit",
                  "type": "uint256"
                },
                {
                  "internalType": "address",
                  "name": "recipient",
                  "type": "address"
                },
                {
                  "internalType": "uint256",
                  "name": "deadline",
                  "type": "uint256"
                },
                {
                  "internalType": "bytes",
                  "name": "args",
                  "type": "bytes"
                }
              ],
              "internalType": "struct SwapParams",
              "name": "auxSwap",
              "type": "tuple"
            }
          ],
          "internalType": "struct CreditParams",
          "name": "creditParams",
          "type": "tuple"
        }
      ],
      "name": "borrow",
      "outputs": [],
      "stateMutability": "nonpayable",
      "type": "function"
    },
    {
      "inputs": [],
      "name": "cdm",
      "outputs": [
        {
          "internalType": "contract ICDM",
          "name": "",
          "type": "address"
        }
      ],
      "stateMutability": "view",
      "type": "function"
    },
    {
      "inputs": [
        {
          "components": [
            {
              "internalType": "address",
              "name": "position",
              "type": "address"
            },
            {
              "internalType": "address",
              "name": "vault",
              "type": "address"
            },
            {
              "internalType": "address",
              "name": "collateralToken",
              "type": "address"
            },
            {
              "components": [
                {
                  "internalType": "enum SwapProtocol",
                  "name": "swapProtocol",
                  "type": "uint8"
                },
                {
                  "internalType": "enum SwapType",
                  "name": "swapType",
                  "type": "uint8"
                },
                {
                  "internalType": "address",
                  "name": "assetIn",
                  "type": "address"
                },
                {
                  "internalType": "uint256",
                  "name": "amount",
                  "type": "uint256"
                },
                {
                  "internalType": "uint256",
                  "name": "limit",
                  "type": "uint256"
                },
                {
                  "internalType": "address",
                  "name": "recipient",
                  "type": "address"
                },
                {
                  "internalType": "uint256",
                  "name": "deadline",
                  "type": "uint256"
                },
                {
                  "internalType": "bytes",
                  "name": "args",
                  "type": "bytes"
                }
              ],
              "internalType": "struct SwapParams",
              "name": "primarySwap",
              "type": "tuple"
            },
            {
              "components": [
                {
                  "internalType": "enum SwapProtocol",
                  "name": "swapProtocol",
                  "type": "uint8"
                },
                {
                  "internalType": "enum SwapType",
                  "name": "swapType",
                  "type": "uint8"
                },
                {
                  "internalType": "address",
                  "name": "assetIn",
                  "type": "address"
                },
                {
                  "internalType": "uint256",
                  "name": "amount",
                  "type": "uint256"
                },
                {
                  "internalType": "uint256",
                  "name": "limit",
                  "type": "uint256"
                },
                {
                  "internalType": "address",
                  "name": "recipient",
                  "type": "address"
                },
                {
                  "internalType": "uint256",
                  "name": "deadline",
                  "type": "uint256"
                },
                {
                  "internalType": "bytes",
                  "name": "args",
                  "type": "bytes"
                }
              ],
              "internalType": "struct SwapParams",
              "name": "auxSwap",
              "type": "tuple"
            },
            {
              "components": [
                {
                  "internalType": "enum Protocol",
                  "name": "protocol",
                  "type": "uint8"
                },
                {
                  "internalType": "uint256",
                  "name": "minOut",
                  "type": "uint256"
                },
                {
                  "internalType": "address",
                  "name": "recipient",
                  "type": "address"
                },
                {
                  "internalType": "bytes",
                  "name": "args",
                  "type": "bytes"
                }
              ],
              "internalType": "struct PoolActionParams",
              "name": "auxAction",
              "type": "tuple"
            }
          ],
          "internalType": "struct LeverParams",
          "name": "leverParams",
          "type": "tuple"
        },
        {
          "internalType": "uint256",
          "name": "subCollateral",
          "type": "uint256"
        },
        {
          "internalType": "address",
          "name": "residualRecipient",
          "type": "address"
        }
      ],
      "name": "decreaseLever",
      "outputs": [],
      "stateMutability": "nonpayable",
      "type": "function"
    },
    {
      "inputs": [
        {
          "internalType": "address",
          "name": "position",
          "type": "address"
        },
        {
          "internalType": "address",
          "name": "vault",
          "type": "address"
        },
        {
          "components": [
            {
              "internalType": "address",
              "name": "targetToken",
              "type": "address"
            },
            {
              "internalType": "uint256",
              "name": "amount",
              "type": "uint256"
            },
            {
              "internalType": "address",
              "name": "collateralizer",
              "type": "address"
            },
            {
              "components": [
                {
                  "internalType": "enum SwapProtocol",
                  "name": "swapProtocol",
                  "type": "uint8"
                },
                {
                  "internalType": "enum SwapType",
                  "name": "swapType",
                  "type": "uint8"
                },
                {
                  "internalType": "address",
                  "name": "assetIn",
                  "type": "address"
                },
                {
                  "internalType": "uint256",
                  "name": "amount",
                  "type": "uint256"
                },
                {
                  "internalType": "uint256",
                  "name": "limit",
                  "type": "uint256"
                },
                {
                  "internalType": "address",
                  "name": "recipient",
                  "type": "address"
                },
                {
                  "internalType": "uint256",
                  "name": "deadline",
                  "type": "uint256"
                },
                {
                  "internalType": "bytes",
                  "name": "args",
                  "type": "bytes"
                }
              ],
              "internalType": "struct SwapParams",
              "name": "auxSwap",
              "type": "tuple"
            }
          ],
          "internalType": "struct CollateralParams",
          "name": "collateralParams",
          "type": "tuple"
        },
        {
          "components": [
            {
              "internalType": "enum ApprovalType",
              "name": "approvalType",
              "type": "uint8"
            },
            {
              "internalType": "uint256",
              "name": "approvalAmount",
              "type": "uint256"
            },
            {
              "internalType": "uint256",
              "name": "nonce",
              "type": "uint256"
            },
            {
              "internalType": "uint256",
              "name": "deadline",
              "type": "uint256"
            },
            {
              "internalType": "uint8",
              "name": "v",
              "type": "uint8"
            },
            {
              "internalType": "bytes32",
              "name": "r",
              "type": "bytes32"
            },
            {
              "internalType": "bytes32",
              "name": "s",
              "type": "bytes32"
            }
          ],
          "internalType": "struct PermitParams",
          "name": "permitParams",
          "type": "tuple"
        }
      ],
      "name": "deposit",
      "outputs": [],
      "stateMutability": "nonpayable",
      "type": "function"
    },
    {
      "inputs": [
        {
          "internalType": "address",
          "name": "position",
          "type": "address"
        },
        {
          "internalType": "address",
          "name": "vault",
          "type": "address"
        },
        {
          "components": [
            {
              "internalType": "address",
              "name": "targetToken",
              "type": "address"
            },
            {
              "internalType": "uint256",
              "name": "amount",
              "type": "uint256"
            },
            {
              "internalType": "address",
              "name": "collateralizer",
              "type": "address"
            },
            {
              "components": [
                {
                  "internalType": "enum SwapProtocol",
                  "name": "swapProtocol",
                  "type": "uint8"
                },
                {
                  "internalType": "enum SwapType",
                  "name": "swapType",
                  "type": "uint8"
                },
                {
                  "internalType": "address",
                  "name": "assetIn",
                  "type": "address"
                },
                {
                  "internalType": "uint256",
                  "name": "amount",
                  "type": "uint256"
                },
                {
                  "internalType": "uint256",
                  "name": "limit",
                  "type": "uint256"
                },
                {
                  "internalType": "address",
                  "name": "recipient",
                  "type": "address"
                },
                {
                  "internalType": "uint256",
                  "name": "deadline",
                  "type": "uint256"
                },
                {
                  "internalType": "bytes",
                  "name": "args",
                  "type": "bytes"
                }
              ],
              "internalType": "struct SwapParams",
              "name": "auxSwap",
              "type": "tuple"
            }
          ],
          "internalType": "struct CollateralParams",
          "name": "collateralParams",
          "type": "tuple"
        },
        {
          "components": [
            {
              "internalType": "uint256",
              "name": "amount",
              "type": "uint256"
            },
            {
              "internalType": "address",
              "name": "creditor",
              "type": "address"
            },
            {
              "components": [
                {
                  "internalType": "enum SwapProtocol",
                  "name": "swapProtocol",
                  "type": "uint8"
                },
                {
                  "internalType": "enum SwapType",
                  "name": "swapType",
                  "type": "uint8"
                },
                {
                  "internalType": "address",
                  "name": "assetIn",
                  "type": "address"
                },
                {
                  "internalType": "uint256",
                  "name": "amount",
                  "type": "uint256"
                },
                {
                  "internalType": "uint256",
                  "name": "limit",
                  "type": "uint256"
                },
                {
                  "internalType": "address",
                  "name": "recipient",
                  "type": "address"
                },
                {
                  "internalType": "uint256",
                  "name": "deadline",
                  "type": "uint256"
                },
                {
                  "internalType": "bytes",
                  "name": "args",
                  "type": "bytes"
                }
              ],
              "internalType": "struct SwapParams",
              "name": "auxSwap",
              "type": "tuple"
            }
          ],
          "internalType": "struct CreditParams",
          "name": "creditParams",
          "type": "tuple"
        },
        {
          "components": [
            {
              "internalType": "enum ApprovalType",
              "name": "approvalType",
              "type": "uint8"
            },
            {
              "internalType": "uint256",
              "name": "approvalAmount",
              "type": "uint256"
            },
            {
              "internalType": "uint256",
              "name": "nonce",
              "type": "uint256"
            },
            {
              "internalType": "uint256",
              "name": "deadline",
              "type": "uint256"
            },
            {
              "internalType": "uint8",
              "name": "v",
              "type": "uint8"
            },
            {
              "internalType": "bytes32",
              "name": "r",
              "type": "bytes32"
            },
            {
              "internalType": "bytes32",
              "name": "s",
              "type": "bytes32"
            }
          ],
          "internalType": "struct PermitParams",
          "name": "permitParams",
          "type": "tuple"
        }
      ],
      "name": "depositAndBorrow",
      "outputs": [],
      "stateMutability": "nonpayable",
      "type": "function"
    },
    {
      "inputs": [],
      "name": "flashlender",
      "outputs": [
        {
          "internalType": "contract IFlashlender",
          "name": "",
          "type": "address"
        }
      ],
      "stateMutability": "view",
      "type": "function"
    },
    {
      "inputs": [
        {
          "components": [
            {
              "internalType": "address",
              "name": "position",
              "type": "address"
            },
            {
              "internalType": "address",
              "name": "vault",
              "type": "address"
            },
            {
              "internalType": "address",
              "name": "collateralToken",
              "type": "address"
            },
            {
              "components": [
                {
                  "internalType": "enum SwapProtocol",
                  "name": "swapProtocol",
                  "type": "uint8"
                },
                {
                  "internalType": "enum SwapType",
                  "name": "swapType",
                  "type": "uint8"
                },
                {
                  "internalType": "address",
                  "name": "assetIn",
                  "type": "address"
                },
                {
                  "internalType": "uint256",
                  "name": "amount",
                  "type": "uint256"
                },
                {
                  "internalType": "uint256",
                  "name": "limit",
                  "type": "uint256"
                },
                {
                  "internalType": "address",
                  "name": "recipient",
                  "type": "address"
                },
                {
                  "internalType": "uint256",
                  "name": "deadline",
                  "type": "uint256"
                },
                {
                  "internalType": "bytes",
                  "name": "args",
                  "type": "bytes"
                }
              ],
              "internalType": "struct SwapParams",
              "name": "primarySwap",
              "type": "tuple"
            },
            {
              "components": [
                {
                  "internalType": "enum SwapProtocol",
                  "name": "swapProtocol",
                  "type": "uint8"
                },
                {
                  "internalType": "enum SwapType",
                  "name": "swapType",
                  "type": "uint8"
                },
                {
                  "internalType": "address",
                  "name": "assetIn",
                  "type": "address"
                },
                {
                  "internalType": "uint256",
                  "name": "amount",
                  "type": "uint256"
                },
                {
                  "internalType": "uint256",
                  "name": "limit",
                  "type": "uint256"
                },
                {
                  "internalType": "address",
                  "name": "recipient",
                  "type": "address"
                },
                {
                  "internalType": "uint256",
                  "name": "deadline",
                  "type": "uint256"
                },
                {
                  "internalType": "bytes",
                  "name": "args",
                  "type": "bytes"
                }
              ],
              "internalType": "struct SwapParams",
              "name": "auxSwap",
              "type": "tuple"
            },
            {
              "components": [
                {
                  "internalType": "enum Protocol",
                  "name": "protocol",
                  "type": "uint8"
                },
                {
                  "internalType": "uint256",
                  "name": "minOut",
                  "type": "uint256"
                },
                {
                  "internalType": "address",
                  "name": "recipient",
                  "type": "address"
                },
                {
                  "internalType": "bytes",
                  "name": "args",
                  "type": "bytes"
                }
              ],
              "internalType": "struct PoolActionParams",
              "name": "auxAction",
              "type": "tuple"
            }
          ],
          "internalType": "struct LeverParams",
          "name": "leverParams",
          "type": "tuple"
        },
        {
          "internalType": "address",
          "name": "upFrontToken",
          "type": "address"
        },
        {
          "internalType": "uint256",
          "name": "upFrontAmount",
          "type": "uint256"
        },
        {
          "internalType": "address",
          "name": "collateralizer",
          "type": "address"
        },
        {
          "components": [
            {
              "internalType": "enum ApprovalType",
              "name": "approvalType",
              "type": "uint8"
            },
            {
              "internalType": "uint256",
              "name": "approvalAmount",
              "type": "uint256"
            },
            {
              "internalType": "uint256",
              "name": "nonce",
              "type": "uint256"
            },
            {
              "internalType": "uint256",
              "name": "deadline",
              "type": "uint256"
            },
            {
              "internalType": "uint8",
              "name": "v",
              "type": "uint8"
            },
            {
              "internalType": "bytes32",
              "name": "r",
              "type": "bytes32"
            },
            {
              "internalType": "bytes32",
              "name": "s",
              "type": "bytes32"
            }
          ],
          "internalType": "struct PermitParams",
          "name": "permitParams",
          "type": "tuple"
        }
      ],
      "name": "increaseLever",
      "outputs": [],
      "stateMutability": "nonpayable",
      "type": "function"
    },
    {
      "inputs": [],
      "name": "minter",
      "outputs": [
        {
          "internalType": "contract IMinter",
          "name": "",
          "type": "address"
        }
      ],
      "stateMutability": "view",
      "type": "function"
    },
    {
      "inputs": [
        {
          "internalType": "address[]",
          "name": "targets",
          "type": "address[]"
        },
        {
          "internalType": "bytes[]",
          "name": "data",
          "type": "bytes[]"
        },
        {
          "internalType": "bool[]",
          "name": "delegateCall",
          "type": "bool[]"
        }
      ],
      "name": "multisend",
      "outputs": [],
      "stateMutability": "nonpayable",
      "type": "function"
    },
    {
      "inputs": [
        {
          "internalType": "address",
          "name": "",
          "type": "address"
        },
        {
          "internalType": "uint256",
          "name": "",
          "type": "uint256"
        },
        {
          "internalType": "uint256",
          "name": "",
          "type": "uint256"
        },
        {
          "internalType": "bytes",
          "name": "data",
          "type": "bytes"
        }
      ],
      "name": "onCreditFlashLoan",
      "outputs": [
        {
          "internalType": "bytes32",
          "name": "",
          "type": "bytes32"
        }
      ],
      "stateMutability": "nonpayable",
      "type": "function"
    },
    {
      "inputs": [
        {
          "internalType": "address",
          "name": "",
          "type": "address"
        },
        {
          "internalType": "address",
          "name": "",
          "type": "address"
        },
        {
          "internalType": "uint256",
          "name": "",
          "type": "uint256"
        },
        {
          "internalType": "uint256",
          "name": "",
          "type": "uint256"
        },
        {
          "internalType": "bytes",
          "name": "data",
          "type": "bytes"
        }
      ],
      "name": "onFlashLoan",
      "outputs": [
        {
          "internalType": "bytes32",
          "name": "",
          "type": "bytes32"
        }
      ],
      "stateMutability": "nonpayable",
      "type": "function"
    },
    {
      "inputs": [],
      "name": "permit2",
      "outputs": [
        {
          "internalType": "address",
          "name": "",
          "type": "address"
        }
      ],
      "stateMutability": "view",
      "type": "function"
    },
    {
      "inputs": [],
      "name": "poolAction",
      "outputs": [
        {
          "internalType": "contract PoolAction",
          "name": "",
          "type": "address"
        }
      ],
      "stateMutability": "view",
      "type": "function"
    },
    {
      "inputs": [
        {
          "internalType": "address",
          "name": "position",
          "type": "address"
        },
        {
          "internalType": "address",
          "name": "vault",
          "type": "address"
        },
        {
          "components": [
            {
              "internalType": "uint256",
              "name": "amount",
              "type": "uint256"
            },
            {
              "internalType": "address",
              "name": "creditor",
              "type": "address"
            },
            {
              "components": [
                {
                  "internalType": "enum SwapProtocol",
                  "name": "swapProtocol",
                  "type": "uint8"
                },
                {
                  "internalType": "enum SwapType",
                  "name": "swapType",
                  "type": "uint8"
                },
                {
                  "internalType": "address",
                  "name": "assetIn",
                  "type": "address"
                },
                {
                  "internalType": "uint256",
                  "name": "amount",
                  "type": "uint256"
                },
                {
                  "internalType": "uint256",
                  "name": "limit",
                  "type": "uint256"
                },
                {
                  "internalType": "address",
                  "name": "recipient",
                  "type": "address"
                },
                {
                  "internalType": "uint256",
                  "name": "deadline",
                  "type": "uint256"
                },
                {
                  "internalType": "bytes",
                  "name": "args",
                  "type": "bytes"
                }
              ],
              "internalType": "struct SwapParams",
              "name": "auxSwap",
              "type": "tuple"
            }
          ],
          "internalType": "struct CreditParams",
          "name": "creditParams",
          "type": "tuple"
        },
        {
          "components": [
            {
              "internalType": "enum ApprovalType",
              "name": "approvalType",
              "type": "uint8"
            },
            {
              "internalType": "uint256",
              "name": "approvalAmount",
              "type": "uint256"
            },
            {
              "internalType": "uint256",
              "name": "nonce",
              "type": "uint256"
            },
            {
              "internalType": "uint256",
              "name": "deadline",
              "type": "uint256"
            },
            {
              "internalType": "uint8",
              "name": "v",
              "type": "uint8"
            },
            {
              "internalType": "bytes32",
              "name": "r",
              "type": "bytes32"
            },
            {
              "internalType": "bytes32",
              "name": "s",
              "type": "bytes32"
            }
          ],
          "internalType": "struct PermitParams",
          "name": "permitParams",
          "type": "tuple"
        }
      ],
      "name": "repay",
      "outputs": [],
      "stateMutability": "nonpayable",
      "type": "function"
    },
    {
      "inputs": [],
      "name": "self",
      "outputs": [
        {
          "internalType": "address",
          "name": "",
          "type": "address"
        }
      ],
      "stateMutability": "view",
      "type": "function"
    },
    {
      "inputs": [],
      "name": "stablecoin",
      "outputs": [
        {
          "internalType": "contract IStablecoin",
          "name": "",
          "type": "address"
        }
      ],
      "stateMutability": "view",
      "type": "function"
    },
    {
      "inputs": [],
      "name": "swapAction",
      "outputs": [
        {
          "internalType": "contract SwapAction",
          "name": "",
          "type": "address"
        }
      ],
      "stateMutability": "view",
      "type": "function"
    },
    {
      "inputs": [
        {
          "internalType": "address",
          "name": "position",
          "type": "address"
        },
        {
          "internalType": "address",
          "name": "vault",
          "type": "address"
        },
        {
          "components": [
            {
              "internalType": "address",
              "name": "targetToken",
              "type": "address"
            },
            {
              "internalType": "uint256",
              "name": "amount",
              "type": "uint256"
            },
            {
              "internalType": "address",
              "name": "collateralizer",
              "type": "address"
            },
            {
              "components": [
                {
                  "internalType": "enum SwapProtocol",
                  "name": "swapProtocol",
                  "type": "uint8"
                },
                {
                  "internalType": "enum SwapType",
                  "name": "swapType",
                  "type": "uint8"
                },
                {
                  "internalType": "address",
                  "name": "assetIn",
                  "type": "address"
                },
                {
                  "internalType": "uint256",
                  "name": "amount",
                  "type": "uint256"
                },
                {
                  "internalType": "uint256",
                  "name": "limit",
                  "type": "uint256"
                },
                {
                  "internalType": "address",
                  "name": "recipient",
                  "type": "address"
                },
                {
                  "internalType": "uint256",
                  "name": "deadline",
                  "type": "uint256"
                },
                {
                  "internalType": "bytes",
                  "name": "args",
                  "type": "bytes"
                }
              ],
              "internalType": "struct SwapParams",
              "name": "auxSwap",
              "type": "tuple"
            }
          ],
          "internalType": "struct CollateralParams",
          "name": "collateralParams",
          "type": "tuple"
        }
      ],
      "name": "withdraw",
      "outputs": [],
      "stateMutability": "nonpayable",
      "type": "function"
    },
    {
      "inputs": [
        {
          "internalType": "address",
          "name": "position",
          "type": "address"
        },
        {
          "internalType": "address",
          "name": "vault",
          "type": "address"
        },
        {
          "components": [
            {
              "internalType": "address",
              "name": "targetToken",
              "type": "address"
            },
            {
              "internalType": "uint256",
              "name": "amount",
              "type": "uint256"
            },
            {
              "internalType": "address",
              "name": "collateralizer",
              "type": "address"
            },
            {
              "components": [
                {
                  "internalType": "enum SwapProtocol",
                  "name": "swapProtocol",
                  "type": "uint8"
                },
                {
                  "internalType": "enum SwapType",
                  "name": "swapType",
                  "type": "uint8"
                },
                {
                  "internalType": "address",
                  "name": "assetIn",
                  "type": "address"
                },
                {
                  "internalType": "uint256",
                  "name": "amount",
                  "type": "uint256"
                },
                {
                  "internalType": "uint256",
                  "name": "limit",
                  "type": "uint256"
                },
                {
                  "internalType": "address",
                  "name": "recipient",
                  "type": "address"
                },
                {
                  "internalType": "uint256",
                  "name": "deadline",
                  "type": "uint256"
                },
                {
                  "internalType": "bytes",
                  "name": "args",
                  "type": "bytes"
                }
              ],
              "internalType": "struct SwapParams",
              "name": "auxSwap",
              "type": "tuple"
            }
          ],
          "internalType": "struct CollateralParams",
          "name": "collateralParams",
          "type": "tuple"
        },
        {
          "components": [
            {
              "internalType": "uint256",
              "name": "amount",
              "type": "uint256"
            },
            {
              "internalType": "address",
              "name": "creditor",
              "type": "address"
            },
            {
              "components": [
                {
                  "internalType": "enum SwapProtocol",
                  "name": "swapProtocol",
                  "type": "uint8"
                },
                {
                  "internalType": "enum SwapType",
                  "name": "swapType",
                  "type": "uint8"
                },
                {
                  "internalType": "address",
                  "name": "assetIn",
                  "type": "address"
                },
                {
                  "internalType": "uint256",
                  "name": "amount",
                  "type": "uint256"
                },
                {
                  "internalType": "uint256",
                  "name": "limit",
                  "type": "uint256"
                },
                {
                  "internalType": "address",
                  "name": "recipient",
                  "type": "address"
                },
                {
                  "internalType": "uint256",
                  "name": "deadline",
                  "type": "uint256"
                },
                {
                  "internalType": "bytes",
                  "name": "args",
                  "type": "bytes"
                }
              ],
              "internalType": "struct SwapParams",
              "name": "auxSwap",
              "type": "tuple"
            }
          ],
          "internalType": "struct CreditParams",
          "name": "creditParams",
          "type": "tuple"
        },
        {
          "components": [
            {
              "internalType": "enum ApprovalType",
              "name": "approvalType",
              "type": "uint8"
            },
            {
              "internalType": "uint256",
              "name": "approvalAmount",
              "type": "uint256"
            },
            {
              "internalType": "uint256",
              "name": "nonce",
              "type": "uint256"
            },
            {
              "internalType": "uint256",
              "name": "deadline",
              "type": "uint256"
            },
            {
              "internalType": "uint8",
              "name": "v",
              "type": "uint8"
            },
            {
              "internalType": "bytes32",
              "name": "r",
              "type": "bytes32"
            },
            {
              "internalType": "bytes32",
              "name": "s",
              "type": "bytes32"
            }
          ],
          "internalType": "struct PermitParams",
          "name": "permitParams",
          "type": "tuple"
        }
      ],
      "name": "withdrawAndRepay",
      "outputs": [],
      "stateMutability": "nonpayable",
      "type": "function"
    }
  ],
  "bytecode": {
    "object": "0x6101606040523480156200001257600080fd5b5060405162004f8a38038062004f8a8339810160408190526200003591620002c5565b828282826001600160a01b031660a0816001600160a01b03168152505060a0516001600160a01b031663e9cbd8226040518163ffffffff1660e01b8152600401602060405180830381865afa15801562000093573d6000803e3d6000fd5b505050506040513d601f19601f82011682018060405250810190620000b9919062000319565b6001600160a01b031660c0816001600160a01b03168152505060a0516001600160a01b031663075461726040518163ffffffff1660e01b8152600401602060405180830381865afa15801562000113573d6000803e3d6000fd5b505050506040513d601f19601f8201168201806040525081019062000139919062000319565b6001600160a01b031660e0816001600160a01b03168152505060a0516001600160a01b031663e2dfb3176040518163ffffffff1660e01b8152600401602060405180830381865afa15801562000193573d6000803e3d6000fd5b505050506040513d601f19601f82011682018060405250810190620001b9919062000319565b6001600160a01b0390811660808190523061010052838216610120528282166101405260e05160405163d9c70f5760e01b815292166004830152600160248301529063d9c70f5790604401600060405180830381600087803b1580156200021f57600080fd5b505af115801562000234573d6000803e3d6000fd5b505060805160405163d9c70f5760e01b81526001600160a01b03878116600483015260016024830152909116925063d9c70f579150604401600060405180830381600087803b1580156200028757600080fd5b505af11580156200029c573d6000803e3d6000fd5b5050505050505050505062000340565b6001600160a01b0381168114620002c257600080fd5b50565b600080600060608486031215620002db57600080fd5b8351620002e881620002ac565b6020850151909350620002fb81620002ac565b60408501519092506200030e81620002ac565b809150509250925092565b6000602082840312156200032c57600080fd5b81516200033981620002ac565b9392505050565b60805160a05160c05160e051610100516101205161014051614a596200053160003960006102ff0152600081816102b1015281816106ac015281816108ac015281816109bf01528181610a1c0152818161297001528181612a0c0152612d47015260008181610250015281816103b201528181610c9a01528181610d7601528181610e8d01528181610f1a01528181610f4b01528181610fac01528181611050015281816111550152818161119e0152818161128e01528181611365015281816114340152818161162e015281816116b001528181611824015281816118c8015281816119ab01528181611a220152611c00015260008181610156015281816107940152818161082001528181610b3601528181612615015281816126ac0152818161277d015281816127ed0152818161289d01528181612c5b0152612ce00152600081816103260152818161076701528181610bbc01528181610d1c015281816110710152818161290201528181612bd40152612c2e015260008181610360015281816104830152818161094b01528181610bf101528181611025015261189d0152600081816102d8015281816105220152818161063901528181611496015281816115a401528181611c6201528181611d5f015281816125e60152818161274c015261286c0152614a596000f3fe608060405234801561001057600080fd5b50600436106101375760003560e01c80637104ddb2116100b8578063e3008e5a1161007c578063e3008e5a146102fa578063e9cbd82214610321578063ede2bf5f14610348578063ee58918a1461035b578063f38584e014610382578063faa994051461039557600080fd5b80637104ddb21461024b5780638237e5381461027257806396c2c40814610299578063a888828b146102ac578063e2dfb317146102d357600080fd5b806323e30c8b116100ff57806323e30c8b146101ec578063301a1131146101ff5780634ad4d4ad1461021257806356415a90146102255780636c7470571461023857600080fd5b80630567d4b11461013c57806307546172146101515780630f13be2a1461018e57806312261ee7146101c357806316d8f165146101d9575b600080fd5b61014f61014a366004613919565b6103a8565b005b6101787f000000000000000000000000000000000000000000000000000000000000000081565b604051610185919061398d565b60405180910390f35b6101b57f24ea9631d6c6b69006fd9fa411bb9c8909638fd1d178dd2f1d231dca3e3e4d7981565b604051908152602001610185565b6101786e22d473030f116ddee9f6b43ac78ba381565b6101b56101e73660046139e9565b610476565b6101b56101fa366004613a52565b61093e565b61014f61020d366004613adf565b610c90565b61014f610220366004613b6f565b611194565b61014f610233366004613bfe565b611284565b61014f610246366004613c5f565b61135b565b6101787f000000000000000000000000000000000000000000000000000000000000000081565b6101b57f439148f0bbc682ca079e46d6e2c2f0c1e3b820f1a291b069d8882abf8cf18dd981565b61014f6102a7366004613b6f565b61142a565b6101787f000000000000000000000000000000000000000000000000000000000000000081565b6101787f000000000000000000000000000000000000000000000000000000000000000081565b6101787f000000000000000000000000000000000000000000000000000000000000000081565b6101787f000000000000000000000000000000000000000000000000000000000000000081565b61014f610356366004613cb6565b611624565b6101787f000000000000000000000000000000000000000000000000000000000000000081565b61014f610390366004613d54565b611a18565b61014f6103a3366004613ddb565b611bf6565b6001600160a01b037f00000000000000000000000000000000000000000000000000000000000000001630036103f15760405163f46a288f60e01b815260040160405180910390fd5b60006103fe848484611dc9565b9050836001600160a01b031663c75a4b5e86303061041b86611f2a565b60006040518663ffffffff1660e01b815260040161043d959493929190613e34565b600060405180830381600087803b15801561045757600080fd5b505af115801561046b573d6000803e3d6000fd5b505050505050505050565b6000336001600160a01b037f000000000000000000000000000000000000000000000000000000000000000016146104c1576040516351b8314560e11b815260040160405180910390fd5b600080806104d185870187614177565b92509250925060006104f484602001518560000151866060015160600151611f54565b602085015160405163d9c70f5760e01b81526001600160a01b039182166004820152600160248201529192507f0000000000000000000000000000000000000000000000000000000000000000169063d9c70f5790604401600060405180830381600087803b15801561056657600080fd5b505af115801561057a573d6000803e3d6000fd5b5050505083602001516001600160a01b031663c75a4b5e856000015130306105a188611f2a565b6105aa906141c4565b6105b387611f2a565b6105bc906141c4565b6040518663ffffffff1660e01b81526004016105dc959493929190613e34565b600060405180830381600087803b1580156105f657600080fd5b505af115801561060a573d6000803e3d6000fd5b50505050602084015160405163d9c70f5760e01b81526001600160a01b039182166004820152600060248201527f00000000000000000000000000000000000000000000000000000000000000009091169063d9c70f5790604401600060405180830381600087803b15801561067f57600080fd5b505af1158015610693573d6000803e3d6000fd5b5050505060006106a38585611fe0565b9050600061071f7f00000000000000000000000000000000000000000000000000000000000000006346caab3460e01b88606001516040516024016106e89190614256565b60408051601f198184030181529190526020810180516001600160e01b03166001600160e01b031990931692909217909152612142565b905060008180602001905181019061073791906142ea565b905060006107458285614303565b6060808a0151015160405163095ea7b360e01b81529192506001600160a01b037f0000000000000000000000000000000000000000000000000000000000000000169163095ea7b3916107bd917f00000000000000000000000000000000000000000000000000000000000000009190600401614316565b6020604051808303816000875af11580156107dc573d6000803e3d6000fd5b505050506040513d601f19601f82011682018060405250810190610800919061433d565b506060808901510151604051637e348b7d60e01b81526001600160a01b037f00000000000000000000000000000000000000000000000000000000000000001691637e348b7d91610855913091600401614316565b600060405180830381600087803b15801561086f57600080fd5b505af1158015610883573d6000803e3d6000fd5b50505050600081111561090b576080880151604001516001600160a01b0316156108ee576108e87f00000000000000000000000000000000000000000000000000000000000000006346caab3460e01b8a608001516040516024016106e89190614256565b5061090b565b60608801516040015161090b906001600160a01b031687836121b2565b507f24ea9631d6c6b69006fd9fa411bb9c8909638fd1d178dd2f1d231dca3e3e4d799d9c50505050505050505050505050565b6000336001600160a01b037f00000000000000000000000000000000000000000000000000000000000000001614610989576040516309436d0560e01b815260040160405180910390fd5b600080806109998587018761435a565b60808301516040015192955090935091506001600160a01b031615610a155760006109fb7f00000000000000000000000000000000000000000000000000000000000000006346caab3460e01b86608001516040516024016106e89190614256565b905080806020019051810190610a1191906142ea565b9150505b6000610a587f00000000000000000000000000000000000000000000000000000000000000006346caab3460e01b86606001516040516024016106e89190614256565b9050600081806020019051810190610a7091906142ea565b90506000610a808686868561220d565b90506000610a9f87602001518860000151896060015160600151611f54565b905086602001516001600160a01b031663c75a4b5e88600001513030610ac487611f2a565b610acd87611f2a565b6040518663ffffffff1660e01b8152600401610aed959493929190613e34565b600060405180830381600087803b158015610b0757600080fd5b505af1158015610b1b573d6000803e3d6000fd5b50505050606087810151015160405163ef693bed60e01b81527f00000000000000000000000000000000000000000000000000000000000000006001600160a01b03169163ef693bed91610b73913091600401614316565b600060405180830381600087803b158015610b8d57600080fd5b505af1158015610ba1573d6000803e3d6000fd5b50505050606087810151015160405163095ea7b360e01b81527f00000000000000000000000000000000000000000000000000000000000000006001600160a01b03169163095ea7b391610c19917f000000000000000000000000000000000000000000000000000000000000000091600401614316565b6020604051808303816000875af1158015610c38573d6000803e3d6000fd5b505050506040513d601f19601f82011682018060405250810190610c5c919061433d565b507f439148f0bbc682ca079e46d6e2c2f0c1e3b820f1a291b069d8882abf8cf18dd99e9d5050505050505050505050505050565b6001600160a01b037f0000000000000000000000000000000000000000000000000000000000000000163003610cd95760405163f46a288f60e01b815260040160405180910390fd5b6000610ce860608701876143b3565b610cf99060408101906020016143d3565b6001811115610d0a57610d0a6141e0565b141580610d6657506001600160a01b037f000000000000000000000000000000000000000000000000000000000000000016610d4960608701876143b3565b610d5a9060608101906040016143f0565b6001600160a01b031614155b80610dc057506001600160a01b037f000000000000000000000000000000000000000000000000000000000000000016610da360608701876143b3565b610db49060c081019060a0016143f0565b6001600160a01b031614155b15610dde576040516304286a2760e01b815260040160405180910390fd5b6000610ded60808701876143b3565b610dfe9060608101906040016143f0565b6001600160a01b031614158015610ed757506000610e1f60808701876143b3565b610e309060408101906020016143d3565b6001811115610e4157610e416141e0565b141580610e7d57506001600160a01b038416610e6060808701876143b3565b610e719060608101906040016143f0565b6001600160a01b031614155b80610ed757506001600160a01b037f000000000000000000000000000000000000000000000000000000000000000016610eba60808701876143b3565b610ecb9060c081019060a0016143f0565b6001600160a01b031614155b15610ef557604051630655da1360e41b815260040160405180910390fd5b8215610f7f57306001600160a01b03831603610f4457610f3f6001600160a01b0385167f0000000000000000000000000000000000000000000000000000000000000000856121b2565b610f7f565b610f7f84837f000000000000000000000000000000000000000000000000000000000000000086610f7a3687900387018761442d565b612404565b610f8f60408601602087016143f0565b6001600160a01b0316638309dbdd610faa60208801886143f0565b7f000000000000000000000000000000000000000000000000000000000000000060016040518463ffffffff1660e01b8152600401610feb939291906144bc565b600060405180830381600087803b15801561100557600080fd5b505af1158015611019573d6000803e3d6000fd5b50506001600160a01b037f0000000000000000000000000000000000000000000000000000000000000000169150635cffe9de90507f00000000000000000000000000000000000000000000000000000000000000007f000000000000000000000000000000000000000000000000000000000000000061109d60608a018a6143b3565b606001358989896040516020016110b69392919061472e565b6040516020818303038152906040526040518563ffffffff1660e01b81526004016110e4949392919061475c565b6020604051808303816000875af1158015611103573d6000803e3d6000fd5b505050506040513d601f19601f82011682018060405250810190611127919061433d565b5061113860408601602087016143f0565b6001600160a01b0316638309dbdd61115360208801886143f0565b7f000000000000000000000000000000000000000000000000000000000000000060006040518463ffffffff1660e01b815260040161043d939291906144bc565b6001600160a01b037f00000000000000000000000000000000000000000000000000000000000000001630036111dd5760405163f46a288f60e01b815260040160405180910390fd5b60006111ea858584611dc9565b905060006111fa86888635611f54565b9050856001600160a01b031663c75a4b5e88303061121787611f2a565b61122087611f2a565b6040518663ffffffff1660e01b8152600401611240959493929190613e34565b600060405180830381600087803b15801561125a57600080fd5b505af115801561126e573d6000803e3d6000fd5b5050505061127b846125cf565b50505050505050565b6001600160a01b037f00000000000000000000000000000000000000000000000000000000000000001630036112cd5760405163f46a288f60e01b815260040160405180910390fd5b60006112db83858435611f54565b9050826001600160a01b031663c75a4b5e85303060006112fa87611f2a565b6040518663ffffffff1660e01b815260040161131a959493929190613e34565b600060405180830381600087803b15801561133457600080fd5b505af1158015611348573d6000803e3d6000fd5b50505050611355826125cf565b50505050565b6001600160a01b037f00000000000000000000000000000000000000000000000000000000000000001630036113a45760405163f46a288f60e01b815260040160405180910390fd5b816001600160a01b031663c75a4b5e8430306113c38660200135611f2a565b6113cc906141c4565b60006040518663ffffffff1660e01b81526004016113ee959493929190613e34565b600060405180830381600087803b15801561140857600080fd5b505af115801561141c573d6000803e3d6000fd5b5050505061135582826129b9565b6001600160a01b037f00000000000000000000000000000000000000000000000000000000000000001630036114735760405163f46a288f60e01b815260040160405180910390fd5b61147f85858484612a77565b604051638309dbdd60e01b81526001600160a01b037f00000000000000000000000000000000000000000000000000000000000000001690638309dbdd906114d090889088906001906004016144bc565b600060405180830381600087803b1580156114ea57600080fd5b505af11580156114fe573d6000803e3d6000fd5b50505050836001600160a01b031663c75a4b5e8630306115218860200135611f2a565b61152a906141c4565b6115348835611f2a565b61153d906141c4565b6040518663ffffffff1660e01b815260040161155d959493929190613e34565b600060405180830381600087803b15801561157757600080fd5b505af115801561158b573d6000803e3d6000fd5b5050604051638309dbdd60e01b81526001600160a01b037f0000000000000000000000000000000000000000000000000000000000000000169250638309dbdd91506115e090889088906000906004016144bc565b600060405180830381600087803b1580156115fa57600080fd5b505af115801561160e573d6000803e3d6000fd5b5050505061161c84846129b9565b505050505050565b6001600160a01b037f000000000000000000000000000000000000000000000000000000000000000016300361166d5760405163f46a288f60e01b815260040160405180910390fd5b600161167c60608501856143b3565b61168d9060408101906020016143d3565b600181111561169e5761169e6141e0565b1415806116fa57506001600160a01b037f0000000000000000000000000000000000000000000000000000000000000000166116dd60608501856143b3565b6116ee9060c081019060a0016143f0565b6001600160a01b031614155b15611718576040516338ef377d60e01b815260040160405180910390fd5b600061172760808501856143b3565b6117389060608101906040016143f0565b6001600160a01b03161415801561177e5750600061175960808501856143b3565b61176a9060408101906020016143d3565b600181111561177b5761177b6141e0565b14155b1561179c57604051630e6c295f60e11b815260040160405180910390fd5b60006117ab60808501856143b3565b6117bc9060608101906040016143f0565b6001600160a01b03161480156117d957506001600160a01b038116155b156117f75760405163163a7c2d60e01b815260040160405180910390fd5b61180760408401602085016143f0565b6001600160a01b0316638309dbdd61182260208601866143f0565b7f000000000000000000000000000000000000000000000000000000000000000060016040518463ffffffff1660e01b8152600401611863939291906144bc565b600060405180830381600087803b15801561187d57600080fd5b505af1158015611891573d6000803e3d6000fd5b50506001600160a01b037f0000000000000000000000000000000000000000000000000000000000000000169150637b644bad90507f00000000000000000000000000000000000000000000000000000000000000006118f460608701876143b3565b6060013586868660405160200161190d9392919061478f565b6040516020818303038152906040526040518463ffffffff1660e01b815260040161193a939291906147c2565b6020604051808303816000875af1158015611959573d6000803e3d6000fd5b505050506040513d601f19601f8201168201806040525081019061197d919061433d565b5061198e60408401602085016143f0565b6001600160a01b0316638309dbdd6119a960208601866143f0565b7f000000000000000000000000000000000000000000000000000000000000000060006040518463ffffffff1660e01b81526004016119ea939291906144bc565b600060405180830381600087803b158015611a0457600080fd5b505af115801561127b573d6000803e3d6000fd5b6001600160a01b037f0000000000000000000000000000000000000000000000000000000000000000163003611a615760405163f46a288f60e01b815260040160405180910390fd5b8460005b81811015611bec57838382818110611a7f57611a7f6147e9565b9050602002016020810190611a9491906147ff565b15611b2757611b21888883818110611aae57611aae6147e9565b9050602002016020810190611ac391906143f0565b878784818110611ad557611ad56147e9565b9050602002810190611ae7919061481c565b8080601f01602080910402602001604051908101604052809392919081815260200183838082843760009201919091525061214292505050565b50611be4565b600080898984818110611b3c57611b3c6147e9565b9050602002016020810190611b5191906143f0565b6001600160a01b0316888885818110611b6c57611b6c6147e9565b9050602002810190611b7e919061481c565b604051611b8c929190614862565b6000604051808303816000865af19150503d8060008114611bc9576040519150601f19603f3d011682016040523d82523d6000602084013e611bce565b606091505b509150915081611be157611be181612d17565b50505b600101611a65565b5050505050505050565b6001600160a01b037f0000000000000000000000000000000000000000000000000000000000000000163003611c3f5760405163f46a288f60e01b815260040160405180910390fd5b611c4b84848484612a77565b604051638309dbdd60e01b81526001600160a01b037f00000000000000000000000000000000000000000000000000000000000000001690638309dbdd90611c9c90879087906001906004016144bc565b600060405180830381600087803b158015611cb657600080fd5b505af1158015611cca573d6000803e3d6000fd5b50505050826001600160a01b031663c75a4b5e8530306000611cef8860000135611f2a565b611cf8906141c4565b6040518663ffffffff1660e01b8152600401611d18959493929190613e34565b600060405180830381600087803b158015611d3257600080fd5b505af1158015611d46573d6000803e3d6000fd5b5050604051638309dbdd60e01b81526001600160a01b037f0000000000000000000000000000000000000000000000000000000000000000169250638309dbdd9150611d9b90879087906000906004016144bc565b600060405180830381600087803b158015611db557600080fd5b505af1158015611bec573d6000803e3d6000fd5b6000602083013581611dde60608601866143b3565b611def9060608101906040016143f0565b6001600160a01b031614611eb857611e0a60208501856143f0565b6001600160a01b0316611e2060608601866143b3565b611e319060608101906040016143f0565b6001600160a01b0316141580611e6d575030611e5060608601866143b3565b611e619060c081019060a0016143f0565b6001600160a01b031614155b15611e8b5760405163469498c560e11b815260040160405180910390fd5b611eb1611e9e60608601604087016143f0565b611eab60608701876143b3565b85612d3f565b9050611f08565b30611ec960608601604087016143f0565b6001600160a01b031614611f0857611f08611ee760208601866143f0565b611ef760608701604088016143f0565b3084610f7a3689900389018961442d565b611f1f85611f1960208701876143f0565b83612e0c565b9150505b9392505050565b6000600160ff1b8210611f5057604051632db27c5360e01b815260040160405180910390fd5b5090565b6000806000856001600160a01b0316638051ba75866040518263ffffffff1660e01b8152600401611f85919061398d565b606060405180830381865afa158015611fa2573d6000803e3d6000fd5b505050506040513d601f19601f82011682018060405250810190611fc69190614872565b5091509150611fd6848383613041565b9695505050505050565b60008083602001516001600160a01b031663f3fef3a330856040518363ffffffff1660e01b8152600401612015929190614316565b6020604051808303816000875af1158015612034573d6000803e3d6000fd5b505050506040513d601f19601f8201168201806040525081019061205891906142ea565b60405163ef693bed60e01b8152909150600080516020614a048339815191529063ef693bed9061208e9030908590600401614316565b600060405180830381600087803b1580156120a857600080fd5b505af11580156120bc573d6000803e3d6000fd5b50506040516370a0823160e01b8152736b175474e89094c44da98b954eedeac495271d0f92506370a0823191506120f790309060040161398d565b602060405180830381865afa158015612114573d6000803e3d6000fd5b505050506040513d601f19601f8201168201806040525081019061213891906142ea565b9150505b92915050565b6060600080846001600160a01b03168460405161215f91906148b5565b600060405180830381855af49150503d806000811461219a576040519150601f19603f3d011682016040523d82523d6000602084013e61219f565b606091505b5091509150816121385761213881612d17565b6122088363a9059cbb60e01b84846040516024016121d1929190614316565b60408051601f198184030181529190526020810180516001600160e01b03166001600160e01b03199093169290921790915261307d565b505050565b6000816001600160a01b038516736b175474e89094c44da98b954eedeac495271d0f148061224b57506080860151604001516001600160a01b031615155b1561225d5761225a84826148c7565b90505b61228a736b175474e89094c44da98b954eedeac495271d0f600080516020614a0483398151915283613157565b604051633b4da69f60e01b8152600080516020614a0483398151915290633b4da69f906122bd9030908590600401614316565b600060405180830381600087803b1580156122d757600080fd5b505af11580156122eb573d6000803e3d6000fd5b50506040516370a0823160e01b8152600080516020614a0483398151915292506370a08231915061232090309060040161398d565b602060405180830381865afa15801561233d573d6000803e3d6000fd5b505050506040513d601f19601f8201168201806040525081019061236191906142ea565b602087015190915061238390600080516020614a048339815191529083613157565b85602001516001600160a01b03166347e7ef2430836040518363ffffffff1660e01b81526004016123b5929190614316565b6020604051808303816000875af11580156123d4573d6000803e3d6000fd5b505050506040513d601f19601f820116820180604052508101906123f891906142ea565b9150505b949350505050565b600281516002811115612419576124196141e0565b03612543576e22d473030f116ddee9f6b43ac78ba36001600160a01b03166330f28b7a604051806060016040528060405180604001604052808a6001600160a01b03168152602001866020015181525081526020018460400151815260200184606001518152506040518060400160405280876001600160a01b0316815260200186815250878560a001518660c00151876080015160f81b6040516020016124de9392919092835260208301919091526001600160f81b031916604082015260410190565b6040516020818303038152906040526040518563ffffffff1660e01b815260040161250c94939291906148da565b600060405180830381600087803b15801561252657600080fd5b505af115801561253a573d6000803e3d6000fd5b505050506125c8565b600181516002811115612558576125586141e0565b036125b35761259984848360200151846060015185608001518660a001518760c001518c6001600160a01b03166131f090979695949392919063ffffffff16565b6125ae6001600160a01b0386168585856133cb565b6125c8565b6125c86001600160a01b0386168585856133cb565b5050505050565b604051638309dbdd60e01b81526001600160a01b037f00000000000000000000000000000000000000000000000000000000000000001690638309dbdd906126409030907f0000000000000000000000000000000000000000000000000000000000000000906001906004016144bc565b600060405180830381600087803b15801561265a57600080fd5b505af115801561266e573d6000803e3d6000fd5b506000925061268391505060408301836143b3565b6126949060608101906040016143f0565b6001600160a01b0316036127d6576001600160a01b037f00000000000000000000000000000000000000000000000000000000000000001663ef693bed6126e160408401602085016143f0565b6040516001600160e01b031960e084901b1681526127059190853590600401614316565b600060405180830381600087803b15801561271f57600080fd5b505af1158015612733573d6000803e3d6000fd5b5050604051638309dbdd60e01b81526001600160a01b037f0000000000000000000000000000000000000000000000000000000000000000169250638309dbdd91506127a89030907f0000000000000000000000000000000000000000000000000000000000000000906000906004016144bc565b600060405180830381600087803b1580156127c257600080fd5b505af11580156125c8573d6000803e3d6000fd5b60405163ef693bed60e01b81526001600160a01b037f0000000000000000000000000000000000000000000000000000000000000000169063ef693bed90612825903090853590600401614316565b600060405180830381600087803b15801561283f57600080fd5b505af1158015612853573d6000803e3d6000fd5b5050604051638309dbdd60e01b81526001600160a01b037f0000000000000000000000000000000000000000000000000000000000000000169250638309dbdd91506128c89030907f0000000000000000000000000000000000000000000000000000000000000000906000906004016144bc565b600060405180830381600087803b1580156128e257600080fd5b505af11580156128f6573d6000803e3d6000fd5b50506001600160a01b037f0000000000000000000000000000000000000000000000000000000000000000169150612933905060408301836143b3565b6129449060608101906040016143f0565b6001600160a01b03161461296b5760405163051b33b760e51b815260040160405180910390fd5b6129b47f00000000000000000000000000000000000000000000000000000000000000006311b2aacd60e21b6129a460408501856143b3565b6040516024016106e89190614953565b505b50565b6000806129d7846129cd60208601866143f0565b8560200135613403565b905060006129e860608501856143b3565b6129f99060608101906040016143f0565b6001600160a01b031614612a4657612a407f00000000000000000000000000000000000000000000000000000000000000006311b2aacd60e21b6129a460608701876143b3565b50611f23565b611f23612a5960608501604086016143f0565b82612a6760208701876143f0565b6001600160a01b031691906121b2565b600080612a8760408501856143b3565b612a989060608101906040016143f0565b6001600160a01b031614612b195730612ab460408501856143b3565b612ac59060c081019060a0016143f0565b6001600160a01b031614612aec57604051633300ff5360e21b815260040160405180910390fd5b612b12612aff60408501602086016143f0565b612b0c60408601866143b3565b84612d3f565b9050612c17565b600080856001600160a01b0316638051ba75886040518263ffffffff1660e01b8152600401612b48919061398d565b606060405180830381865afa158015612b65573d6000803e3d6000fd5b505050506040513d601f19601f82011682018060405250810190612b899190614872565b50909250905080612ba46001600160401b03841687356135fe565b612bae9190614303565b925030612bc160408701602088016143f0565b6001600160a01b031614612c1457612c147f0000000000000000000000000000000000000000000000000000000000000000612c0360408801602089016143f0565b3086610f7a368a90038a018a61442d565b50505b60405163095ea7b360e01b81526001600160a01b037f0000000000000000000000000000000000000000000000000000000000000000169063095ea7b390612c85907f0000000000000000000000000000000000000000000000000000000000000000908590600401614316565b6020604051808303816000875af1158015612ca4573d6000803e3d6000fd5b505050506040513d601f19601f82011682018060405250810190612cc8919061433d565b50604051637e348b7d60e01b81526001600160a01b037f00000000000000000000000000000000000000000000000000000000000000001690637e348b7d9061043d9030908590600401614316565b805115612d2657805181602001fd5b60405163491182fb60e01b815260040160405180910390fd5b600080612d837f0000000000000000000000000000000000000000000000000000000000000000630147931c60e01b8786886040516024016106e893929190614966565b9050600081806020019051810190612d9b91906142ea565b90506001612daf60408701602088016143d3565b6001811115612dc057612dc06141e0565b03612dff576000612dd5826080880135614303565b90508015612df257612df28782612a6760608a0160408b016143f0565b8560600135935050612e03565b8092505b50509392505050565b60006001600160a01b038316600080516020614a0483398151915214612fb7576040516370a0823160e01b8152600090600080516020614a04833981519152906370a0823190612e6090309060040161398d565b602060405180830381865afa158015612e7d573d6000803e3d6000fd5b505050506040513d601f19601f82011682018060405250810190612ea191906142ea565b9050612ed0736b175474e89094c44da98b954eedeac495271d0f600080516020614a0483398151915285613157565b604051633b4da69f60e01b8152600080516020614a0483398151915290633b4da69f90612f039030908790600401614316565b600060405180830381600087803b158015612f1d57600080fd5b505af1158015612f31573d6000803e3d6000fd5b50506040516370a0823160e01b8152839250600080516020614a0483398151915291506370a0823190612f6890309060040161398d565b602060405180830381865afa158015612f85573d6000803e3d6000fd5b505050506040513d601f19601f82011682018060405250810190612fa991906142ea565b612fb39190614303565b9250505b612fd0600080516020614a048339815191528584613157565b6040516311f9fbc960e21b81526001600160a01b038516906347e7ef2490612ffe9030908690600401614316565b6020604051808303816000875af115801561301d573d6000803e3d6000fd5b505050506040513d601f19601f820116820180604052508101906123fc91906142ea565b600061305f61305083866148c7565b846001600160401b031661362c565b90508361306d82858561367b565b1015611f23576001019392505050565b60006130d2826040518060400160405280602081526020017f5361666545524332303a206c6f772d6c6576656c2063616c6c206661696c6564815250856001600160a01b031661369b9092919063ffffffff16565b90508051600014806130f35750808060200190518101906130f3919061433d565b6122085760405162461bcd60e51b815260206004820152602a60248201527f5361666545524332303a204552433230206f7065726174696f6e20646964206e6044820152691bdd081cdd58d8d9595960b21b60648201526084015b60405180910390fd5b600063095ea7b360e01b8383604051602401613174929190614316565b60408051601f198184030181529190526020810180516001600160e01b03166001600160e01b03199093169290921790915290506131b284826136aa565b611355576040516001600160a01b0384166024820152600060448201526131e690859063095ea7b360e01b906064016121d1565b611355848261307d565b604051623f675f60e91b81526000906001600160a01b038a1690637ecebe009061321e908b9060040161398d565b602060405180830381865afa15801561323b573d6000803e3d6000fd5b505050506040513d601f19601f8201168201806040525081019061325f91906142ea565b60405163d505accf60e01b81526001600160a01b038a811660048301528981166024830152604482018990526064820188905260ff8716608483015260a4820186905260c48201859052919250908a169063d505accf9060e401600060405180830381600087803b1580156132d357600080fd5b505af11580156132e7573d6000803e3d6000fd5b5050604051623f675f60e91b8152600092506001600160a01b038c169150637ecebe0090613319908c9060040161398d565b602060405180830381865afa158015613336573d6000803e3d6000fd5b505050506040513d601f19601f8201168201806040525081019061335a91906142ea565b90506133678260016148c7565b81146133bf5760405162461bcd60e51b815260206004820152602160248201527f5361666545524332303a207065726d697420646964206e6f74207375636365656044820152601960fa1b606482015260840161314e565b50505050505050505050565b6040516001600160a01b03808516602483015283166044820152606481018290526113559085906323b872dd60e01b906084016121d1565b600080846001600160a01b031663f3fef3a330856040518363ffffffff1660e01b8152600401613434929190614316565b6020604051808303816000875af1158015613453573d6000803e3d6000fd5b505050506040513d601f19601f8201168201806040525081019061347791906142ea565b90506001600160a01b038416600080516020614a04833981519152146123fc576040516370a0823160e01b8152600090736b175474e89094c44da98b954eedeac495271d0f906370a08231906134d190309060040161398d565b602060405180830381865afa1580156134ee573d6000803e3d6000fd5b505050506040513d601f19601f8201168201806040525081019061351291906142ea565b60405163ef693bed60e01b8152909150600080516020614a048339815191529063ef693bed906135489030908690600401614316565b600060405180830381600087803b15801561356257600080fd5b505af1158015613576573d6000803e3d6000fd5b50506040516370a0823160e01b8152839250736b175474e89094c44da98b954eedeac495271d0f91506370a08231906135b390309060040161398d565b602060405180830381865afa1580156135d0573d6000803e3d6000fd5b505050506040513d601f19601f820116820180604052508101906135f491906142ea565b6123f89190614303565b60008160001904831182021561361c5763c4c5d7f56000526004601cfd5b50670de0b6b3a764000091020490565b60007812725dd1d243aba0e75fe645cc4873f9e65afe688c928e1f218311670de0b6b3a7640000021582026136695763bcbede656000526004601cfd5b50670de0b6b3a7640000919091020490565b60008161369185856001600160401b03166135fe565b6123fc9190614303565b60606123fc8484600085613751565b6000806000846001600160a01b0316846040516136c791906148b5565b6000604051808303816000865af19150503d8060008114613704576040519150601f19603f3d011682016040523d82523d6000602084013e613709565b606091505b5091509150818015613733575080511580613733575080806020019051810190613733919061433d565b801561374857506001600160a01b0385163b15155b95945050505050565b6060824710156137b25760405162461bcd60e51b815260206004820152602660248201527f416464726573733a20696e73756666696369656e742062616c616e636520666f6044820152651c8818d85b1b60d21b606482015260840161314e565b600080866001600160a01b031685876040516137ce91906148b5565b60006040518083038185875af1925050503d806000811461380b576040519150601f19603f3d011682016040523d82523d6000602084013e613810565b606091505b50915091506138218783838761382c565b979650505050505050565b6060831561389b578251600003613894576001600160a01b0385163b6138945760405162461bcd60e51b815260206004820152601d60248201527f416464726573733a2063616c6c20746f206e6f6e2d636f6e7472616374000000604482015260640161314e565b50816123fc565b6123fc83838151156138b05781518083602001fd5b8060405162461bcd60e51b815260040161314e91906149f0565b6001600160a01b03811681146129b657600080fd5b80356138ea816138ca565b919050565b60006080828403121561390157600080fd5b50919050565b600060e0828403121561390157600080fd5b600080600080610140858703121561393057600080fd5b843561393b816138ca565b9350602085013561394b816138ca565b925060408501356001600160401b0381111561396657600080fd5b613972878288016138ef565b9250506139828660608701613907565b905092959194509250565b6001600160a01b0391909116815260200190565b60008083601f8401126139b357600080fd5b5081356001600160401b038111156139ca57600080fd5b6020830191508360208285010111156139e257600080fd5b9250929050565b600080600080600060808688031215613a0157600080fd5b8535613a0c816138ca565b9450602086013593506040860135925060608601356001600160401b03811115613a3557600080fd5b613a41888289016139a1565b969995985093965092949392505050565b60008060008060008060a08789031215613a6b57600080fd5b8635613a76816138ca565b95506020870135613a86816138ca565b9450604087013593506060870135925060808701356001600160401b03811115613aaf57600080fd5b613abb89828a016139a1565b979a9699509497509295939492505050565b600060c0828403121561390157600080fd5b60008060008060006101608688031215613af857600080fd5b85356001600160401b03811115613b0e57600080fd5b613b1a88828901613acd565b9550506020860135613b2b816138ca565b9350604086013592506060860135613b42816138ca565b9150613b518760808801613907565b90509295509295909350565b60006060828403121561390157600080fd5b60008060008060006101608688031215613b8857600080fd5b8535613b93816138ca565b94506020860135613ba3816138ca565b935060408601356001600160401b0380821115613bbf57600080fd5b613bcb89838a016138ef565b94506060880135915080821115613be157600080fd5b50613bee88828901613b5d565b925050613b518760808801613907565b600080600060608486031215613c1357600080fd5b8335613c1e816138ca565b92506020840135613c2e816138ca565b915060408401356001600160401b03811115613c4957600080fd5b613c5586828701613b5d565b9150509250925092565b600080600060608486031215613c7457600080fd5b8335613c7f816138ca565b92506020840135613c8f816138ca565b915060408401356001600160401b03811115613caa57600080fd5b613c55868287016138ef565b600080600060608486031215613ccb57600080fd5b83356001600160401b03811115613ce157600080fd5b613ced86828701613acd565b935050602084013591506040840135613d05816138ca565b809150509250925092565b60008083601f840112613d2257600080fd5b5081356001600160401b03811115613d3957600080fd5b6020830191508360208260051b85010111156139e257600080fd5b60008060008060008060608789031215613d6d57600080fd5b86356001600160401b0380821115613d8457600080fd5b613d908a838b01613d10565b90985096506020890135915080821115613da957600080fd5b613db58a838b01613d10565b90965094506040890135915080821115613dce57600080fd5b50613abb89828a01613d10565b6000806000806101408587031215613df257600080fd5b8435613dfd816138ca565b93506020850135613e0d816138ca565b925060408501356001600160401b03811115613e2857600080fd5b61397287828801613b5d565b6001600160a01b03958616815293851660208501529190931660408301526060820192909252608081019190915260a00190565b634e487b7160e01b600052604160045260246000fd5b60405161010081016001600160401b0381118282101715613ea157613ea1613e68565b60405290565b60405160c081016001600160401b0381118282101715613ea157613ea1613e68565b600281106129b657600080fd5b80356138ea81613ec9565b600082601f830112613ef257600080fd5b81356001600160401b0380821115613f0c57613f0c613e68565b604051601f8301601f19908116603f01168101908282118183101715613f3457613f34613e68565b81604052838152866020858801011115613f4d57600080fd5b836020870160208301376000602085830101528094505050505092915050565b60006101008284031215613f8057600080fd5b613f88613e7e565b9050613f9382613ed6565b8152613fa160208301613ed6565b6020820152613fb2604083016138df565b60408201526060820135606082015260808201356080820152613fd760a083016138df565b60a082015260c082013560c082015260e08201356001600160401b03811115613fff57600080fd5b61400b84828501613ee1565b60e08301525092915050565b60006080828403121561402957600080fd5b604051608081016001600160401b03828210818311171561404c5761404c613e68565b816040528293508435915061406082613ec9565b818352602085013560208401526040850135915061407d826138ca565b816040840152606085013591508082111561409757600080fd5b506140a485828601613ee1565b6060830152505092915050565b600060c082840312156140c357600080fd5b6140cb613ea7565b90506140d6826138df565b81526140e4602083016138df565b60208201526140f5604083016138df565b604082015260608201356001600160401b038082111561411457600080fd5b61412085838601613f6d565b6060840152608084013591508082111561413957600080fd5b61414585838601613f6d565b608084015260a084013591508082111561415e57600080fd5b5061416b84828501614017565b60a08301525092915050565b60008060006060848603121561418c57600080fd5b83356001600160401b038111156141a257600080fd5b613ced868287016140b1565b634e487b7160e01b600052601160045260246000fd5b6000600160ff1b82016141d9576141d96141ae565b5060000390565b634e487b7160e01b600052602160045260246000fd5b600281106129b6576129b66141e0565b60005b83811015614221578181015183820152602001614209565b50506000910152565b60008151808452614242816020860160208601614206565b601f01601f19169290920160200192915050565b6020815260008251614267816141f6565b80602084015250602083015161427c816141f6565b8060408401525060018060a01b03604084015116606083015260608301516080830152608083015160a083015260a08301516142c360c08401826001600160a01b03169052565b5060c083015160e083015260e083015161010080818501525061213861012084018261422a565b6000602082840312156142fc57600080fd5b5051919050565b8181038181111561213c5761213c6141ae565b6001600160a01b03929092168252602082015260400190565b80151581146129b657600080fd5b60006020828403121561434f57600080fd5b8151611f238161432f565b60008060006060848603121561436f57600080fd5b83356001600160401b0381111561438557600080fd5b614391868287016140b1565b93505060208401356143a2816138ca565b929592945050506040919091013590565b6000823560fe198336030181126143c957600080fd5b9190910192915050565b6000602082840312156143e557600080fd5b8135611f2381613ec9565b60006020828403121561440257600080fd5b8135611f23816138ca565b8035600381106138ea57600080fd5b803560ff811681146138ea57600080fd5b600060e0828403121561443f57600080fd5b60405160e081018181106001600160401b038211171561446157614461613e68565b60405261446d8361440d565b81526020830135602082015260408301356040820152606083013560608201526144996080840161441c565b608082015260a083013560a082015260c083013560c08201528091505092915050565b6001600160a01b039384168152919092166020820152901515604082015260600190565b6000823560fe198336030181126144f657600080fd5b90910192915050565b6000808335601e1984360301811261451657600080fd5b83016020810192503590506001600160401b0381111561453557600080fd5b8036038213156139e257600080fd5b81835281816020850137506000828201602090810191909152601f909101601f19169091010190565b6000610100823561457d81613ec9565b614586816141f6565b8452602083013561459681613ec9565b61459f816141f6565b602085015260408301356145b2816138ca565b6001600160a01b0316604085015260608381013590850152608080840135908501526145e060a084016138df565b6001600160a01b031660a085015260c0838101359085015261460560e08401846144ff565b8260e0870152611fd68387018284614544565b6000813561462581613ec9565b61462e816141f6565b8352602082810135908401526040820135614648816138ca565b6001600160a01b0316604084015261466360608301836144ff565b60806060860152613748608086018284614544565b60008135614685816138ca565b6001600160a01b0390811684526020830135906146a1826138ca565b90811660208501526040830135906146b8826138ca565b1660408401526146cb60608301836144e0565b60c060608501526146df60c085018261456d565b90506146ee60808401846144e0565b8482036080860152614700828261456d565b91505060a0830135607e1984360301811261471a57600080fd5b84820360a086015261374882858301614618565b6060815260006147416060830186614678565b6001600160a01b039490941660208301525060400152919050565b6001600160a01b0385811682528416602082015260408101839052608060608201819052600090611fd69083018461422a565b6060815260006147a26060830186614678565b6020830194909452506001600160a01b0391909116604090910152919050565b60018060a01b0384168152826020820152606060408201526000613748606083018461422a565b634e487b7160e01b600052603260045260246000fd5b60006020828403121561481157600080fd5b8135611f238161432f565b6000808335601e1984360301811261483357600080fd5b8301803591506001600160401b0382111561484d57600080fd5b6020019150368190038213156139e257600080fd5b8183823760009101908152919050565b60008060006060848603121561488757600080fd5b83516001600160401b038116811461489e57600080fd5b602085015160409095015190969495509392505050565b600082516143c9818460208701614206565b8082018082111561213c5761213c6141ae565b60006101006148fd83885180516001600160a01b03168252602090810151910152565b6020870151604084015260408701516060840152614931608084018780516001600160a01b03168252602090810151910152565b6001600160a01b03851660c084015260e083018190526138218184018561422a565b602081526000611f23602083018461456d565b6001600160a01b038416815260006101206149808561440d565b60038110614990576149906141e0565b8060208501525060208501356040840152604085013560608401526060850135608084015260ff6149c36080870161441c565b1660a084015260a085013560c084015260c085013560e0840152806101008401526123f88184018561456d565b602081526000611f23602083018461422a56fe00000000000000000000000006af07097c9eeb7fd685c692751d5c66db49c215a264697066735822122095190817278c33a19ef4165c71a45cb4b2496914ba3d25ba4f8a90082046e43364736f6c63430008130033",
    "linkReferences": {}
  },
  "methodIdentifiers": {
    "CALLBACK_SUCCESS()": "8237e538",
    "CALLBACK_SUCCESS_CREDIT()": "0f13be2a",
    "borrow(address,address,(uint256,address,(uint8,uint8,address,uint256,uint256,address,uint256,bytes)))": "56415a90",
    "cdm()": "e2dfb317",
    "decreaseLever((address,address,address,(uint8,uint8,address,uint256,uint256,address,uint256,bytes),(uint8,uint8,address,uint256,uint256,address,uint256,bytes),(uint8,uint256,address,bytes)),uint256,address)": "ede2bf5f",
    "deposit(address,address,(address,uint256,address,(uint8,uint8,address,uint256,uint256,address,uint256,bytes)),(uint8,uint256,uint256,uint256,uint8,bytes32,bytes32))": "0567d4b1",
    "depositAndBorrow(address,address,(address,uint256,address,(uint8,uint8,address,uint256,uint256,address,uint256,bytes)),(uint256,address,(uint8,uint8,address,uint256,uint256,address,uint256,bytes)),(uint8,uint256,uint256,uint256,uint8,bytes32,bytes32))": "4ad4d4ad",
    "flashlender()": "ee58918a",
    "increaseLever((address,address,address,(uint8,uint8,address,uint256,uint256,address,uint256,bytes),(uint8,uint8,address,uint256,uint256,address,uint256,bytes),(uint8,uint256,address,bytes)),address,uint256,address,(uint8,uint256,uint256,uint256,uint8,bytes32,bytes32))": "301a1131",
    "minter()": "07546172",
    "multisend(address[],bytes[],bool[])": "f38584e0",
    "onCreditFlashLoan(address,uint256,uint256,bytes)": "16d8f165",
    "onFlashLoan(address,address,uint256,uint256,bytes)": "23e30c8b",
    "permit2()": "12261ee7",
    "poolAction()": "e3008e5a",
    "repay(address,address,(uint256,address,(uint8,uint8,address,uint256,uint256,address,uint256,bytes)),(uint8,uint256,uint256,uint256,uint8,bytes32,bytes32))": "faa99405",
    "self()": "7104ddb2",
    "stablecoin()": "e9cbd822",
    "swapAction()": "a888828b",
    "withdraw(address,address,(address,uint256,address,(uint8,uint8,address,uint256,uint256,address,uint256,bytes)))": "6c747057",
    "withdrawAndRepay(address,address,(address,uint256,address,(uint8,uint8,address,uint256,uint256,address,uint256,bytes)),(uint256,address,(uint8,uint8,address,uint256,uint256,address,uint256,bytes)),(uint8,uint256,uint256,uint256,uint8,bytes32,bytes32))": "96c2c408"
  },
  "id": 126
}