{
  "abi": [
    {
      "inputs": [
        {
          "internalType": "address",
          "name": "flashlender_",
          "type": "address"
        },
        {
          "internalType": "address",
          "name": "swapActions_",
          "type": "address"
        }
      ],
      "stateMutability": "nonpayable",
      "type": "constructor"
    },
    {
      "inputs": [],
      "name": "Action__revertBytes_emptyRevertBytes",
      "type": "error"
    },
    {
      "inputs": [],
      "name": "Math__toInt256_overflow",
      "type": "error"
    },
    {
      "inputs": [],
      "name": "PositionActionChai__onDeposit__invalidSrcToken",
      "type": "error"
    },
    {
      "inputs": [],
      "name": "PositionActionChai__onIncreaseLever__invalidUpFrontToken",
      "type": "error"
    },
    {
      "inputs": [],
      "name": "PositionAction__borrow_InvalidAuxSwap",
      "type": "error"
    },
    {
      "inputs": [],
      "name": "PositionAction__decreaseLever_invalidAuxSwap",
      "type": "error"
    },
    {
      "inputs": [],
      "name": "PositionAction__decreaseLever_invalidPrimarySwap",
      "type": "error"
    },
    {
      "inputs": [],
      "name": "PositionAction__decreaseLever_invalidResidualRecipient",
      "type": "error"
    },
    {
      "inputs": [],
      "name": "PositionAction__delegateViaStablecoin_InvalidAuxSwap",
      "type": "error"
    },
    {
      "inputs": [],
      "name": "PositionAction__deposit_InvalidAuxSwap",
      "type": "error"
    },
    {
      "inputs": [],
      "name": "PositionAction__increaseLever_invalidAuxSwap",
      "type": "error"
    },
    {
      "inputs": [],
      "name": "PositionAction__increaseLever_invalidPrimarySwap",
      "type": "error"
    },
    {
      "inputs": [],
      "name": "PositionAction__onCreditFlashLoan__invalidSender",
      "type": "error"
    },
    {
      "inputs": [],
      "name": "PositionAction__onFlashLoan__invalidSender",
      "type": "error"
    },
    {
      "inputs": [],
      "name": "PositionAction__onlyDelegatecall",
      "type": "error"
    },
    {
      "inputs": [],
      "name": "PositionAction__repay_InvalidAuxSwap",
      "type": "error"
    },
    {
      "inputs": [],
      "name": "CALLBACK_SUCCESS",
      "outputs": [
        {
          "internalType": "bytes32",
          "name": "",
          "type": "bytes32"
        }
      ],
      "stateMutability": "view",
      "type": "function"
    },
    {
      "inputs": [],
      "name": "CALLBACK_SUCCESS_CREDIT",
      "outputs": [
        {
          "internalType": "bytes32",
          "name": "",
          "type": "bytes32"
        }
      ],
      "stateMutability": "view",
      "type": "function"
    },
    {
      "inputs": [
        {
          "internalType": "address",
          "name": "position",
          "type": "address"
        },
        {
          "internalType": "address",
          "name": "vault",
          "type": "address"
        },
        {
          "components": [
            {
              "internalType": "uint256",
              "name": "amount",
              "type": "uint256"
            },
            {
              "internalType": "address",
              "name": "creditor",
              "type": "address"
            },
            {
              "components": [
                {
                  "internalType": "enum SwapProtocol",
                  "name": "swapProtocol",
                  "type": "uint8"
                },
                {
                  "internalType": "enum SwapType",
                  "name": "swapType",
                  "type": "uint8"
                },
                {
                  "internalType": "address",
                  "name": "assetIn",
                  "type": "address"
                },
                {
                  "internalType": "uint256",
                  "name": "amount",
                  "type": "uint256"
                },
                {
                  "internalType": "uint256",
                  "name": "limit",
                  "type": "uint256"
                },
                {
                  "internalType": "address",
                  "name": "recipient",
                  "type": "address"
                },
                {
                  "internalType": "uint256",
                  "name": "deadline",
                  "type": "uint256"
                },
                {
                  "internalType": "bytes",
                  "name": "args",
                  "type": "bytes"
                }
              ],
              "internalType": "struct SwapParams",
              "name": "auxSwap",
              "type": "tuple"
            }
          ],
          "internalType": "struct CreditParams",
          "name": "creditParams",
          "type": "tuple"
        }
      ],
      "name": "borrow",
      "outputs": [],
      "stateMutability": "nonpayable",
      "type": "function"
    },
    {
      "inputs": [],
      "name": "cdm",
      "outputs": [
        {
          "internalType": "contract ICDM",
          "name": "",
          "type": "address"
        }
      ],
      "stateMutability": "view",
      "type": "function"
    },
    {
      "inputs": [
        {
          "components": [
            {
              "internalType": "address",
              "name": "position",
              "type": "address"
            },
            {
              "internalType": "address",
              "name": "vault",
              "type": "address"
            },
            {
              "internalType": "address",
              "name": "collateralToken",
              "type": "address"
            },
            {
              "components": [
                {
                  "internalType": "enum SwapProtocol",
                  "name": "swapProtocol",
                  "type": "uint8"
                },
                {
                  "internalType": "enum SwapType",
                  "name": "swapType",
                  "type": "uint8"
                },
                {
                  "internalType": "address",
                  "name": "assetIn",
                  "type": "address"
                },
                {
                  "internalType": "uint256",
                  "name": "amount",
                  "type": "uint256"
                },
                {
                  "internalType": "uint256",
                  "name": "limit",
                  "type": "uint256"
                },
                {
                  "internalType": "address",
                  "name": "recipient",
                  "type": "address"
                },
                {
                  "internalType": "uint256",
                  "name": "deadline",
                  "type": "uint256"
                },
                {
                  "internalType": "bytes",
                  "name": "args",
                  "type": "bytes"
                }
              ],
              "internalType": "struct SwapParams",
              "name": "primarySwap",
              "type": "tuple"
            },
            {
              "components": [
                {
                  "internalType": "enum SwapProtocol",
                  "name": "swapProtocol",
                  "type": "uint8"
                },
                {
                  "internalType": "enum SwapType",
                  "name": "swapType",
                  "type": "uint8"
                },
                {
                  "internalType": "address",
                  "name": "assetIn",
                  "type": "address"
                },
                {
                  "internalType": "uint256",
                  "name": "amount",
                  "type": "uint256"
                },
                {
                  "internalType": "uint256",
                  "name": "limit",
                  "type": "uint256"
                },
                {
                  "internalType": "address",
                  "name": "recipient",
                  "type": "address"
                },
                {
                  "internalType": "uint256",
                  "name": "deadline",
                  "type": "uint256"
                },
                {
                  "internalType": "bytes",
                  "name": "args",
                  "type": "bytes"
                }
              ],
              "internalType": "struct SwapParams",
              "name": "auxSwap",
              "type": "tuple"
            }
          ],
          "internalType": "struct LeverParams",
          "name": "leverParams",
          "type": "tuple"
        },
        {
          "internalType": "uint256",
          "name": "subCollateral",
          "type": "uint256"
        },
        {
          "internalType": "address",
          "name": "residualRecipient",
          "type": "address"
        }
      ],
      "name": "decreaseLever",
      "outputs": [],
      "stateMutability": "nonpayable",
      "type": "function"
    },
    {
      "inputs": [
        {
          "internalType": "address",
          "name": "position",
          "type": "address"
        },
        {
          "internalType": "address",
          "name": "vault",
          "type": "address"
        },
        {
          "components": [
            {
              "internalType": "address",
              "name": "targetToken",
              "type": "address"
            },
            {
              "internalType": "uint256",
              "name": "amount",
              "type": "uint256"
            },
            {
              "internalType": "address",
              "name": "collateralizer",
              "type": "address"
            },
            {
              "components": [
                {
                  "internalType": "enum SwapProtocol",
                  "name": "swapProtocol",
                  "type": "uint8"
                },
                {
                  "internalType": "enum SwapType",
                  "name": "swapType",
                  "type": "uint8"
                },
                {
                  "internalType": "address",
                  "name": "assetIn",
                  "type": "address"
                },
                {
                  "internalType": "uint256",
                  "name": "amount",
                  "type": "uint256"
                },
                {
                  "internalType": "uint256",
                  "name": "limit",
                  "type": "uint256"
                },
                {
                  "internalType": "address",
                  "name": "recipient",
                  "type": "address"
                },
                {
                  "internalType": "uint256",
                  "name": "deadline",
                  "type": "uint256"
                },
                {
                  "internalType": "bytes",
                  "name": "args",
                  "type": "bytes"
                }
              ],
              "internalType": "struct SwapParams",
              "name": "auxSwap",
              "type": "tuple"
            }
          ],
          "internalType": "struct CollateralParams",
          "name": "collateralParams",
          "type": "tuple"
        },
        {
          "components": [
            {
              "internalType": "enum ApprovalType",
              "name": "approvalType",
              "type": "uint8"
            },
            {
              "internalType": "uint256",
              "name": "approvalAmount",
              "type": "uint256"
            },
            {
              "internalType": "uint256",
              "name": "nonce",
              "type": "uint256"
            },
            {
              "internalType": "uint256",
              "name": "deadline",
              "type": "uint256"
            },
            {
              "internalType": "uint8",
              "name": "v",
              "type": "uint8"
            },
            {
              "internalType": "bytes32",
              "name": "r",
              "type": "bytes32"
            },
            {
              "internalType": "bytes32",
              "name": "s",
              "type": "bytes32"
            }
          ],
          "internalType": "struct PermitParams",
          "name": "permitParams",
          "type": "tuple"
        }
      ],
      "name": "deposit",
      "outputs": [],
      "stateMutability": "nonpayable",
      "type": "function"
    },
    {
      "inputs": [
        {
          "internalType": "address",
          "name": "position",
          "type": "address"
        },
        {
          "internalType": "address",
          "name": "vault",
          "type": "address"
        },
        {
          "components": [
            {
              "internalType": "address",
              "name": "targetToken",
              "type": "address"
            },
            {
              "internalType": "uint256",
              "name": "amount",
              "type": "uint256"
            },
            {
              "internalType": "address",
              "name": "collateralizer",
              "type": "address"
            },
            {
              "components": [
                {
                  "internalType": "enum SwapProtocol",
                  "name": "swapProtocol",
                  "type": "uint8"
                },
                {
                  "internalType": "enum SwapType",
                  "name": "swapType",
                  "type": "uint8"
                },
                {
                  "internalType": "address",
                  "name": "assetIn",
                  "type": "address"
                },
                {
                  "internalType": "uint256",
                  "name": "amount",
                  "type": "uint256"
                },
                {
                  "internalType": "uint256",
                  "name": "limit",
                  "type": "uint256"
                },
                {
                  "internalType": "address",
                  "name": "recipient",
                  "type": "address"
                },
                {
                  "internalType": "uint256",
                  "name": "deadline",
                  "type": "uint256"
                },
                {
                  "internalType": "bytes",
                  "name": "args",
                  "type": "bytes"
                }
              ],
              "internalType": "struct SwapParams",
              "name": "auxSwap",
              "type": "tuple"
            }
          ],
          "internalType": "struct CollateralParams",
          "name": "collateralParams",
          "type": "tuple"
        },
        {
          "components": [
            {
              "internalType": "uint256",
              "name": "amount",
              "type": "uint256"
            },
            {
              "internalType": "address",
              "name": "creditor",
              "type": "address"
            },
            {
              "components": [
                {
                  "internalType": "enum SwapProtocol",
                  "name": "swapProtocol",
                  "type": "uint8"
                },
                {
                  "internalType": "enum SwapType",
                  "name": "swapType",
                  "type": "uint8"
                },
                {
                  "internalType": "address",
                  "name": "assetIn",
                  "type": "address"
                },
                {
                  "internalType": "uint256",
                  "name": "amount",
                  "type": "uint256"
                },
                {
                  "internalType": "uint256",
                  "name": "limit",
                  "type": "uint256"
                },
                {
                  "internalType": "address",
                  "name": "recipient",
                  "type": "address"
                },
                {
                  "internalType": "uint256",
                  "name": "deadline",
                  "type": "uint256"
                },
                {
                  "internalType": "bytes",
                  "name": "args",
                  "type": "bytes"
                }
              ],
              "internalType": "struct SwapParams",
              "name": "auxSwap",
              "type": "tuple"
            }
          ],
          "internalType": "struct CreditParams",
          "name": "creditParams",
          "type": "tuple"
        },
        {
          "components": [
            {
              "internalType": "enum ApprovalType",
              "name": "approvalType",
              "type": "uint8"
            },
            {
              "internalType": "uint256",
              "name": "approvalAmount",
              "type": "uint256"
            },
            {
              "internalType": "uint256",
              "name": "nonce",
              "type": "uint256"
            },
            {
              "internalType": "uint256",
              "name": "deadline",
              "type": "uint256"
            },
            {
              "internalType": "uint8",
              "name": "v",
              "type": "uint8"
            },
            {
              "internalType": "bytes32",
              "name": "r",
              "type": "bytes32"
            },
            {
              "internalType": "bytes32",
              "name": "s",
              "type": "bytes32"
            }
          ],
          "internalType": "struct PermitParams",
          "name": "permitParams",
          "type": "tuple"
        }
      ],
      "name": "depositAndBorrow",
      "outputs": [],
      "stateMutability": "nonpayable",
      "type": "function"
    },
    {
      "inputs": [],
      "name": "flashlender",
      "outputs": [
        {
          "internalType": "contract IFlashlender",
          "name": "",
          "type": "address"
        }
      ],
      "stateMutability": "view",
      "type": "function"
    },
    {
      "inputs": [
        {
          "components": [
            {
              "internalType": "address",
              "name": "position",
              "type": "address"
            },
            {
              "internalType": "address",
              "name": "vault",
              "type": "address"
            },
            {
              "internalType": "address",
              "name": "collateralToken",
              "type": "address"
            },
            {
              "components": [
                {
                  "internalType": "enum SwapProtocol",
                  "name": "swapProtocol",
                  "type": "uint8"
                },
                {
                  "internalType": "enum SwapType",
                  "name": "swapType",
                  "type": "uint8"
                },
                {
                  "internalType": "address",
                  "name": "assetIn",
                  "type": "address"
                },
                {
                  "internalType": "uint256",
                  "name": "amount",
                  "type": "uint256"
                },
                {
                  "internalType": "uint256",
                  "name": "limit",
                  "type": "uint256"
                },
                {
                  "internalType": "address",
                  "name": "recipient",
                  "type": "address"
                },
                {
                  "internalType": "uint256",
                  "name": "deadline",
                  "type": "uint256"
                },
                {
                  "internalType": "bytes",
                  "name": "args",
                  "type": "bytes"
                }
              ],
              "internalType": "struct SwapParams",
              "name": "primarySwap",
              "type": "tuple"
            },
            {
              "components": [
                {
                  "internalType": "enum SwapProtocol",
                  "name": "swapProtocol",
                  "type": "uint8"
                },
                {
                  "internalType": "enum SwapType",
                  "name": "swapType",
                  "type": "uint8"
                },
                {
                  "internalType": "address",
                  "name": "assetIn",
                  "type": "address"
                },
                {
                  "internalType": "uint256",
                  "name": "amount",
                  "type": "uint256"
                },
                {
                  "internalType": "uint256",
                  "name": "limit",
                  "type": "uint256"
                },
                {
                  "internalType": "address",
                  "name": "recipient",
                  "type": "address"
                },
                {
                  "internalType": "uint256",
                  "name": "deadline",
                  "type": "uint256"
                },
                {
                  "internalType": "bytes",
                  "name": "args",
                  "type": "bytes"
                }
              ],
              "internalType": "struct SwapParams",
              "name": "auxSwap",
              "type": "tuple"
            }
          ],
          "internalType": "struct LeverParams",
          "name": "leverParams",
          "type": "tuple"
        },
        {
          "internalType": "address",
          "name": "upFrontToken",
          "type": "address"
        },
        {
          "internalType": "uint256",
          "name": "upFrontAmount",
          "type": "uint256"
        },
        {
          "internalType": "address",
          "name": "collateralizer",
          "type": "address"
        },
        {
          "components": [
            {
              "internalType": "enum ApprovalType",
              "name": "approvalType",
              "type": "uint8"
            },
            {
              "internalType": "uint256",
              "name": "approvalAmount",
              "type": "uint256"
            },
            {
              "internalType": "uint256",
              "name": "nonce",
              "type": "uint256"
            },
            {
              "internalType": "uint256",
              "name": "deadline",
              "type": "uint256"
            },
            {
              "internalType": "uint8",
              "name": "v",
              "type": "uint8"
            },
            {
              "internalType": "bytes32",
              "name": "r",
              "type": "bytes32"
            },
            {
              "internalType": "bytes32",
              "name": "s",
              "type": "bytes32"
            }
          ],
          "internalType": "struct PermitParams",
          "name": "permitParams",
          "type": "tuple"
        }
      ],
      "name": "increaseLever",
      "outputs": [],
      "stateMutability": "nonpayable",
      "type": "function"
    },
    {
      "inputs": [],
      "name": "minter",
      "outputs": [
        {
          "internalType": "contract IMinter",
          "name": "",
          "type": "address"
        }
      ],
      "stateMutability": "view",
      "type": "function"
    },
    {
      "inputs": [
        {
          "internalType": "address[]",
          "name": "targets",
          "type": "address[]"
        },
        {
          "internalType": "bytes[]",
          "name": "data",
          "type": "bytes[]"
        },
        {
          "internalType": "bool[]",
          "name": "delegateCall",
          "type": "bool[]"
        }
      ],
      "name": "multisend",
      "outputs": [],
      "stateMutability": "nonpayable",
      "type": "function"
    },
    {
      "inputs": [
        {
          "internalType": "address",
          "name": "",
          "type": "address"
        },
        {
          "internalType": "uint256",
          "name": "",
          "type": "uint256"
        },
        {
          "internalType": "uint256",
          "name": "",
          "type": "uint256"
        },
        {
          "internalType": "bytes",
          "name": "data",
          "type": "bytes"
        }
      ],
      "name": "onCreditFlashLoan",
      "outputs": [
        {
          "internalType": "bytes32",
          "name": "",
          "type": "bytes32"
        }
      ],
      "stateMutability": "nonpayable",
      "type": "function"
    },
    {
      "inputs": [
        {
          "internalType": "address",
          "name": "",
          "type": "address"
        },
        {
          "internalType": "address",
          "name": "",
          "type": "address"
        },
        {
          "internalType": "uint256",
          "name": "",
          "type": "uint256"
        },
        {
          "internalType": "uint256",
          "name": "",
          "type": "uint256"
        },
        {
          "internalType": "bytes",
          "name": "data",
          "type": "bytes"
        }
      ],
      "name": "onFlashLoan",
      "outputs": [
        {
          "internalType": "bytes32",
          "name": "",
          "type": "bytes32"
        }
      ],
      "stateMutability": "nonpayable",
      "type": "function"
    },
    {
      "inputs": [],
      "name": "permit2",
      "outputs": [
        {
          "internalType": "address",
          "name": "",
          "type": "address"
        }
      ],
      "stateMutability": "view",
      "type": "function"
    },
    {
      "inputs": [
        {
          "internalType": "address",
          "name": "position",
          "type": "address"
        },
        {
          "internalType": "address",
          "name": "vault",
          "type": "address"
        },
        {
          "components": [
            {
              "internalType": "uint256",
              "name": "amount",
              "type": "uint256"
            },
            {
              "internalType": "address",
              "name": "creditor",
              "type": "address"
            },
            {
              "components": [
                {
                  "internalType": "enum SwapProtocol",
                  "name": "swapProtocol",
                  "type": "uint8"
                },
                {
                  "internalType": "enum SwapType",
                  "name": "swapType",
                  "type": "uint8"
                },
                {
                  "internalType": "address",
                  "name": "assetIn",
                  "type": "address"
                },
                {
                  "internalType": "uint256",
                  "name": "amount",
                  "type": "uint256"
                },
                {
                  "internalType": "uint256",
                  "name": "limit",
                  "type": "uint256"
                },
                {
                  "internalType": "address",
                  "name": "recipient",
                  "type": "address"
                },
                {
                  "internalType": "uint256",
                  "name": "deadline",
                  "type": "uint256"
                },
                {
                  "internalType": "bytes",
                  "name": "args",
                  "type": "bytes"
                }
              ],
              "internalType": "struct SwapParams",
              "name": "auxSwap",
              "type": "tuple"
            }
          ],
          "internalType": "struct CreditParams",
          "name": "creditParams",
          "type": "tuple"
        },
        {
          "components": [
            {
              "internalType": "enum ApprovalType",
              "name": "approvalType",
              "type": "uint8"
            },
            {
              "internalType": "uint256",
              "name": "approvalAmount",
              "type": "uint256"
            },
            {
              "internalType": "uint256",
              "name": "nonce",
              "type": "uint256"
            },
            {
              "internalType": "uint256",
              "name": "deadline",
              "type": "uint256"
            },
            {
              "internalType": "uint8",
              "name": "v",
              "type": "uint8"
            },
            {
              "internalType": "bytes32",
              "name": "r",
              "type": "bytes32"
            },
            {
              "internalType": "bytes32",
              "name": "s",
              "type": "bytes32"
            }
          ],
          "internalType": "struct PermitParams",
          "name": "permitParams",
          "type": "tuple"
        }
      ],
      "name": "repay",
      "outputs": [],
      "stateMutability": "nonpayable",
      "type": "function"
    },
    {
      "inputs": [],
      "name": "self",
      "outputs": [
        {
          "internalType": "address",
          "name": "",
          "type": "address"
        }
      ],
      "stateMutability": "view",
      "type": "function"
    },
    {
      "inputs": [],
      "name": "stablecoin",
      "outputs": [
        {
          "internalType": "contract IStablecoin",
          "name": "",
          "type": "address"
        }
      ],
      "stateMutability": "view",
      "type": "function"
    },
    {
      "inputs": [],
      "name": "swapAction",
      "outputs": [
        {
          "internalType": "contract SwapAction",
          "name": "",
          "type": "address"
        }
      ],
      "stateMutability": "view",
      "type": "function"
    },
    {
      "inputs": [
        {
          "internalType": "address",
          "name": "position",
          "type": "address"
        },
        {
          "internalType": "address",
          "name": "vault",
          "type": "address"
        },
        {
          "components": [
            {
              "internalType": "address",
              "name": "targetToken",
              "type": "address"
            },
            {
              "internalType": "uint256",
              "name": "amount",
              "type": "uint256"
            },
            {
              "internalType": "address",
              "name": "collateralizer",
              "type": "address"
            },
            {
              "components": [
                {
                  "internalType": "enum SwapProtocol",
                  "name": "swapProtocol",
                  "type": "uint8"
                },
                {
                  "internalType": "enum SwapType",
                  "name": "swapType",
                  "type": "uint8"
                },
                {
                  "internalType": "address",
                  "name": "assetIn",
                  "type": "address"
                },
                {
                  "internalType": "uint256",
                  "name": "amount",
                  "type": "uint256"
                },
                {
                  "internalType": "uint256",
                  "name": "limit",
                  "type": "uint256"
                },
                {
                  "internalType": "address",
                  "name": "recipient",
                  "type": "address"
                },
                {
                  "internalType": "uint256",
                  "name": "deadline",
                  "type": "uint256"
                },
                {
                  "internalType": "bytes",
                  "name": "args",
                  "type": "bytes"
                }
              ],
              "internalType": "struct SwapParams",
              "name": "auxSwap",
              "type": "tuple"
            }
          ],
          "internalType": "struct CollateralParams",
          "name": "collateralParams",
          "type": "tuple"
        }
      ],
      "name": "withdraw",
      "outputs": [],
      "stateMutability": "nonpayable",
      "type": "function"
    },
    {
      "inputs": [
        {
          "internalType": "address",
          "name": "position",
          "type": "address"
        },
        {
          "internalType": "address",
          "name": "vault",
          "type": "address"
        },
        {
          "components": [
            {
              "internalType": "address",
              "name": "targetToken",
              "type": "address"
            },
            {
              "internalType": "uint256",
              "name": "amount",
              "type": "uint256"
            },
            {
              "internalType": "address",
              "name": "collateralizer",
              "type": "address"
            },
            {
              "components": [
                {
                  "internalType": "enum SwapProtocol",
                  "name": "swapProtocol",
                  "type": "uint8"
                },
                {
                  "internalType": "enum SwapType",
                  "name": "swapType",
                  "type": "uint8"
                },
                {
                  "internalType": "address",
                  "name": "assetIn",
                  "type": "address"
                },
                {
                  "internalType": "uint256",
                  "name": "amount",
                  "type": "uint256"
                },
                {
                  "internalType": "uint256",
                  "name": "limit",
                  "type": "uint256"
                },
                {
                  "internalType": "address",
                  "name": "recipient",
                  "type": "address"
                },
                {
                  "internalType": "uint256",
                  "name": "deadline",
                  "type": "uint256"
                },
                {
                  "internalType": "bytes",
                  "name": "args",
                  "type": "bytes"
                }
              ],
              "internalType": "struct SwapParams",
              "name": "auxSwap",
              "type": "tuple"
            }
          ],
          "internalType": "struct CollateralParams",
          "name": "collateralParams",
          "type": "tuple"
        },
        {
          "components": [
            {
              "internalType": "uint256",
              "name": "amount",
              "type": "uint256"
            },
            {
              "internalType": "address",
              "name": "creditor",
              "type": "address"
            },
            {
              "components": [
                {
                  "internalType": "enum SwapProtocol",
                  "name": "swapProtocol",
                  "type": "uint8"
                },
                {
                  "internalType": "enum SwapType",
                  "name": "swapType",
                  "type": "uint8"
                },
                {
                  "internalType": "address",
                  "name": "assetIn",
                  "type": "address"
                },
                {
                  "internalType": "uint256",
                  "name": "amount",
                  "type": "uint256"
                },
                {
                  "internalType": "uint256",
                  "name": "limit",
                  "type": "uint256"
                },
                {
                  "internalType": "address",
                  "name": "recipient",
                  "type": "address"
                },
                {
                  "internalType": "uint256",
                  "name": "deadline",
                  "type": "uint256"
                },
                {
                  "internalType": "bytes",
                  "name": "args",
                  "type": "bytes"
                }
              ],
              "internalType": "struct SwapParams",
              "name": "auxSwap",
              "type": "tuple"
            }
          ],
          "internalType": "struct CreditParams",
          "name": "creditParams",
          "type": "tuple"
        },
        {
          "components": [
            {
              "internalType": "enum ApprovalType",
              "name": "approvalType",
              "type": "uint8"
            },
            {
              "internalType": "uint256",
              "name": "approvalAmount",
              "type": "uint256"
            },
            {
              "internalType": "uint256",
              "name": "nonce",
              "type": "uint256"
            },
            {
              "internalType": "uint256",
              "name": "deadline",
              "type": "uint256"
            },
            {
              "internalType": "uint8",
              "name": "v",
              "type": "uint8"
            },
            {
              "internalType": "bytes32",
              "name": "r",
              "type": "bytes32"
            },
            {
              "internalType": "bytes32",
              "name": "s",
              "type": "bytes32"
            }
          ],
          "internalType": "struct PermitParams",
          "name": "permitParams",
          "type": "tuple"
        }
      ],
      "name": "withdrawAndRepay",
      "outputs": [],
      "stateMutability": "nonpayable",
      "type": "function"
    }
  ],
  "bytecode": {
    "object": "0x6101406040523480156200001257600080fd5b5060405162004df238038062004df28339810160408190526200003591620002bb565b8181816001600160a01b031660a0816001600160a01b03168152505060a0516001600160a01b031663e9cbd8226040518163ffffffff1660e01b8152600401602060405180830381865afa15801562000092573d6000803e3d6000fd5b505050506040513d601f19601f82011682018060405250810190620000b89190620002fa565b6001600160a01b031660c0816001600160a01b03168152505060a0516001600160a01b031663075461726040518163ffffffff1660e01b8152600401602060405180830381865afa15801562000112573d6000803e3d6000fd5b505050506040513d601f19601f82011682018060405250810190620001389190620002fa565b6001600160a01b031660e0816001600160a01b03168152505060a0516001600160a01b031663e2dfb3176040518163ffffffff1660e01b8152600401602060405180830381865afa15801562000192573d6000803e3d6000fd5b505050506040513d601f19601f82011682018060405250810190620001b89190620002fa565b6001600160a01b03908116608081905230610100528282166101205260e05160405163d9c70f5760e01b815292166004830152600160248301529063d9c70f5790604401600060405180830381600087803b1580156200021757600080fd5b505af11580156200022c573d6000803e3d6000fd5b505060805160405163d9c70f5760e01b81526001600160a01b03868116600483015260016024830152909116925063d9c70f579150604401600060405180830381600087803b1580156200027f57600080fd5b505af115801562000294573d6000803e3d6000fd5b505050505050505062000321565b6001600160a01b0381168114620002b857600080fd5b50565b60008060408385031215620002cf57600080fd5b8251620002dc81620002a2565b6020840151909250620002ef81620002a2565b809150509250929050565b6000602082840312156200030d57600080fd5b81516200031a81620002a2565b9392505050565b60805160a05160c05160e05161010051610120516148eb62000507600039600081816102a601528181610a7701528181610c7701528181610d8a01528181610de70152818161277a015281816128160152612d15015260008181610245015281816103800152818161044e015281816104d001528181610644015281816106e8015281816107cb015281816110650152818161114c01528181611223015281816112f2015281816114ec015281816115c8015281816116df0152818161176c0152818161179d015281816117fe015281816118a2015281816119a7015281816119f00152611bce01526000818161014b01528181610b5f01528181610beb01528181610f0101528181612418015281816124af01528181612580015281816125f7015281816126a701528181612a650152612aea01526000818161030701528181610b3201528181610f870152818161156e015281816118c30152818161270c015281816129de0152612a3801526000818161032e015281816106bd0152818161084e01528181610d1601528181610fbc01526118770152600081816102e0015281816108ed01528181610a04015281816113540152818161146201528181611c3001528181611d2d015281816123e90152818161254f015261267601526148eb6000f3fe608060405234801561001057600080fd5b506004361061012c5760003560e01c80637104ddb2116100ad578063e2dfb31711610071578063e2dfb317146102db578063e9cbd82214610302578063ee58918a14610329578063f38584e014610350578063faa994051461036357600080fd5b80637104ddb2146102405780638237e5381461026757806396c2c4081461028e578063a888828b146102a1578063aad598ae146102c857600080fd5b806316d8f165116100f457806316d8f165146101e157806323e30c8b146101f45780634ad4d4ad1461020757806356415a901461021a5780636c7470571461022d57600080fd5b80630567d4b11461013157806307546172146101465780630b839bf2146101835780630f13be2a1461019657806312261ee7146101cb575b600080fd5b61014461013f3660046138e7565b610376565b005b61016d7f000000000000000000000000000000000000000000000000000000000000000081565b60405161017a919061395b565b60405180910390f35b610144610191366004613981565b610444565b6101bd7f24ea9631d6c6b69006fd9fa411bb9c8909638fd1d178dd2f1d231dca3e3e4d7981565b60405190815260200161017a565b61016d6e22d473030f116ddee9f6b43ac78ba381565b6101bd6101ef366004613a23565b610841565b6101bd610202366004613a8c565b610d09565b610144610215366004613b19565b61105b565b610144610228366004613bb4565b611142565b61014461023b366004613c15565b611219565b61016d7f000000000000000000000000000000000000000000000000000000000000000081565b6101bd7f439148f0bbc682ca079e46d6e2c2f0c1e3b820f1a291b069d8882abf8cf18dd981565b61014461029c366004613b19565b6112e8565b61016d7f000000000000000000000000000000000000000000000000000000000000000081565b6101446102d6366004613c6c565b6114e2565b61016d7f000000000000000000000000000000000000000000000000000000000000000081565b61016d7f000000000000000000000000000000000000000000000000000000000000000081565b61016d7f000000000000000000000000000000000000000000000000000000000000000081565b61014461035e366004613d22565b6119e6565b610144610371366004613da9565b611bc4565b6001600160a01b037f00000000000000000000000000000000000000000000000000000000000000001630036103bf5760405163f46a288f60e01b815260040160405180910390fd5b60006103cc848484611d97565b9050836001600160a01b031663c75a4b5e8630306103e986611ef8565b60006040518663ffffffff1660e01b815260040161040b959493929190613e02565b600060405180830381600087803b15801561042557600080fd5b505af1158015610439573d6000803e3d6000fd5b505050505050505050565b6001600160a01b037f000000000000000000000000000000000000000000000000000000000000000016300361048d5760405163f46a288f60e01b815260040160405180910390fd5b600161049c6060850185613e4c565b6104ad906040810190602001613e7b565b60018111156104be576104be613e36565b14158061051a57506001600160a01b037f0000000000000000000000000000000000000000000000000000000000000000166104fd6060850185613e4c565b61050e9060c081019060a001613e96565b6001600160a01b031614155b15610538576040516338ef377d60e01b815260040160405180910390fd5b60006105476080850185613e4c565b610558906060810190604001613e96565b6001600160a01b03161415801561059e575060006105796080850185613e4c565b61058a906040810190602001613e7b565b600181111561059b5761059b613e36565b14155b156105bc57604051630e6c295f60e11b815260040160405180910390fd5b60006105cb6080850185613e4c565b6105dc906060810190604001613e96565b6001600160a01b03161480156105f957506001600160a01b038116155b156106175760405163163a7c2d60e01b815260040160405180910390fd5b6106276040840160208501613e96565b6001600160a01b0316638309dbdd6106426020860186613e96565b7f000000000000000000000000000000000000000000000000000000000000000060016040518463ffffffff1660e01b815260040161068393929190613eb3565b600060405180830381600087803b15801561069d57600080fd5b505af11580156106b1573d6000803e3d6000fd5b50506001600160a01b037f0000000000000000000000000000000000000000000000000000000000000000169150637b644bad90507f00000000000000000000000000000000000000000000000000000000000000006107146060870187613e4c565b6060013586868660405160200161072d939291906140d3565b6040516020818303038152906040526040518463ffffffff1660e01b815260040161075a93929190614156565b6020604051808303816000875af1158015610779573d6000803e3d6000fd5b505050506040513d601f19601f8201168201806040525081019061079d919061418b565b506107ae6040840160208501613e96565b6001600160a01b0316638309dbdd6107c96020860186613e96565b7f000000000000000000000000000000000000000000000000000000000000000060006040518463ffffffff1660e01b815260040161080a93929190613eb3565b600060405180830381600087803b15801561082457600080fd5b505af1158015610838573d6000803e3d6000fd5b50505050505050565b6000336001600160a01b037f0000000000000000000000000000000000000000000000000000000000000000161461088c576040516351b8314560e11b815260040160405180910390fd5b6000808061089c858701876143e2565b92509250925060006108bf84602001518560000151866060015160600151611f22565b602085015160405163d9c70f5760e01b81526001600160a01b039182166004820152600160248201529192507f0000000000000000000000000000000000000000000000000000000000000000169063d9c70f5790604401600060405180830381600087803b15801561093157600080fd5b505af1158015610945573d6000803e3d6000fd5b5050505083602001516001600160a01b031663c75a4b5e8560000151303061096c88611ef8565b6109759061442f565b61097e87611ef8565b6109879061442f565b6040518663ffffffff1660e01b81526004016109a7959493929190613e02565b600060405180830381600087803b1580156109c157600080fd5b505af11580156109d5573d6000803e3d6000fd5b50505050602084015160405163d9c70f5760e01b81526001600160a01b039182166004820152600060248201527f00000000000000000000000000000000000000000000000000000000000000009091169063d9c70f5790604401600060405180830381600087803b158015610a4a57600080fd5b505af1158015610a5e573d6000803e3d6000fd5b505050506000610a6e8585611fae565b90506000610aea7f00000000000000000000000000000000000000000000000000000000000000006346caab3460e01b8860600151604051602401610ab3919061444b565b60408051601f198184030181529190526020810180516001600160e01b03166001600160e01b031990931692909217909152612110565b9050600081806020019051810190610b0291906144dd565b90506000610b1082856144f6565b6060808a0151015160405163095ea7b360e01b81529192506001600160a01b037f0000000000000000000000000000000000000000000000000000000000000000169163095ea7b391610b88917f00000000000000000000000000000000000000000000000000000000000000009190600401614509565b6020604051808303816000875af1158015610ba7573d6000803e3d6000fd5b505050506040513d601f19601f82011682018060405250810190610bcb919061418b565b506060808901510151604051637e348b7d60e01b81526001600160a01b037f00000000000000000000000000000000000000000000000000000000000000001691637e348b7d91610c20913091600401614509565b600060405180830381600087803b158015610c3a57600080fd5b505af1158015610c4e573d6000803e3d6000fd5b505050506000811115610cd6576080880151604001516001600160a01b031615610cb957610cb37f00000000000000000000000000000000000000000000000000000000000000006346caab3460e01b8a60800151604051602401610ab3919061444b565b50610cd6565b606088015160400151610cd6906001600160a01b03168783612180565b507f24ea9631d6c6b69006fd9fa411bb9c8909638fd1d178dd2f1d231dca3e3e4d799d9c50505050505050505050505050565b6000336001600160a01b037f00000000000000000000000000000000000000000000000000000000000000001614610d54576040516309436d0560e01b815260040160405180910390fd5b60008080610d6485870187614522565b60808301516040015192955090935091506001600160a01b031615610de0576000610dc67f00000000000000000000000000000000000000000000000000000000000000006346caab3460e01b8660800151604051602401610ab3919061444b565b905080806020019051810190610ddc91906144dd565b9150505b6000610e237f00000000000000000000000000000000000000000000000000000000000000006346caab3460e01b8660600151604051602401610ab3919061444b565b9050600081806020019051810190610e3b91906144dd565b90506000610e4b868686856121db565b90506000610e6a87602001518860000151896060015160600151611f22565b905086602001516001600160a01b031663c75a4b5e88600001513030610e8f87611ef8565b610e9887611ef8565b6040518663ffffffff1660e01b8152600401610eb8959493929190613e02565b600060405180830381600087803b158015610ed257600080fd5b505af1158015610ee6573d6000803e3d6000fd5b50505050606087810151015160405163ef693bed60e01b81527f00000000000000000000000000000000000000000000000000000000000000006001600160a01b03169163ef693bed91610f3e913091600401614509565b600060405180830381600087803b158015610f5857600080fd5b505af1158015610f6c573d6000803e3d6000fd5b50505050606087810151015160405163095ea7b360e01b81527f00000000000000000000000000000000000000000000000000000000000000006001600160a01b03169163095ea7b391610fe4917f000000000000000000000000000000000000000000000000000000000000000091600401614509565b6020604051808303816000875af1158015611003573d6000803e3d6000fd5b505050506040513d601f19601f82011682018060405250810190611027919061418b565b507f439148f0bbc682ca079e46d6e2c2f0c1e3b820f1a291b069d8882abf8cf18dd99e9d5050505050505050505050505050565b6001600160a01b037f00000000000000000000000000000000000000000000000000000000000000001630036110a45760405163f46a288f60e01b815260040160405180910390fd5b60006110b1858584611d97565b905060006110c186888635611f22565b9050856001600160a01b031663c75a4b5e8830306110de87611ef8565b6110e787611ef8565b6040518663ffffffff1660e01b8152600401611107959493929190613e02565b600060405180830381600087803b15801561112157600080fd5b505af1158015611135573d6000803e3d6000fd5b50505050610838846123d2565b6001600160a01b037f000000000000000000000000000000000000000000000000000000000000000016300361118b5760405163f46a288f60e01b815260040160405180910390fd5b600061119983858435611f22565b9050826001600160a01b031663c75a4b5e85303060006111b887611ef8565b6040518663ffffffff1660e01b81526004016111d8959493929190613e02565b600060405180830381600087803b1580156111f257600080fd5b505af1158015611206573d6000803e3d6000fd5b50505050611213826123d2565b50505050565b6001600160a01b037f00000000000000000000000000000000000000000000000000000000000000001630036112625760405163f46a288f60e01b815260040160405180910390fd5b816001600160a01b031663c75a4b5e8430306112818660200135611ef8565b61128a9061442f565b60006040518663ffffffff1660e01b81526004016112ac959493929190613e02565b600060405180830381600087803b1580156112c657600080fd5b505af11580156112da573d6000803e3d6000fd5b5050505061121382826127c3565b6001600160a01b037f00000000000000000000000000000000000000000000000000000000000000001630036113315760405163f46a288f60e01b815260040160405180910390fd5b61133d85858484612881565b604051638309dbdd60e01b81526001600160a01b037f00000000000000000000000000000000000000000000000000000000000000001690638309dbdd9061138e9088908890600190600401613eb3565b600060405180830381600087803b1580156113a857600080fd5b505af11580156113bc573d6000803e3d6000fd5b50505050836001600160a01b031663c75a4b5e8630306113df8860200135611ef8565b6113e89061442f565b6113f28835611ef8565b6113fb9061442f565b6040518663ffffffff1660e01b815260040161141b959493929190613e02565b600060405180830381600087803b15801561143557600080fd5b505af1158015611449573d6000803e3d6000fd5b5050604051638309dbdd60e01b81526001600160a01b037f0000000000000000000000000000000000000000000000000000000000000000169250638309dbdd915061149e9088908890600090600401613eb3565b600060405180830381600087803b1580156114b857600080fd5b505af11580156114cc573d6000803e3d6000fd5b505050506114da84846127c3565b505050505050565b6001600160a01b037f000000000000000000000000000000000000000000000000000000000000000016300361152b5760405163f46a288f60e01b815260040160405180910390fd5b600061153a6060870187613e4c565b61154b906040810190602001613e7b565b600181111561155c5761155c613e36565b1415806115b857506001600160a01b037f00000000000000000000000000000000000000000000000000000000000000001661159b6060870187613e4c565b6115ac906060810190604001613e96565b6001600160a01b031614155b8061161257506001600160a01b037f0000000000000000000000000000000000000000000000000000000000000000166115f56060870187613e4c565b6116069060c081019060a001613e96565b6001600160a01b031614155b15611630576040516304286a2760e01b815260040160405180910390fd5b600061163f6080870187613e4c565b611650906060810190604001613e96565b6001600160a01b031614158015611729575060006116716080870187613e4c565b611682906040810190602001613e7b565b600181111561169357611693613e36565b1415806116cf57506001600160a01b0384166116b26080870187613e4c565b6116c3906060810190604001613e96565b6001600160a01b031614155b8061172957506001600160a01b037f00000000000000000000000000000000000000000000000000000000000000001661170c6080870187613e4c565b61171d9060c081019060a001613e96565b6001600160a01b031614155b1561174757604051630655da1360e41b815260040160405180910390fd5b82156117d157306001600160a01b03831603611796576117916001600160a01b0385167f000000000000000000000000000000000000000000000000000000000000000085612180565b6117d1565b6117d184837f0000000000000000000000000000000000000000000000000000000000000000866117cc3687900387018761458c565b612b21565b6117e16040860160208701613e96565b6001600160a01b0316638309dbdd6117fc6020880188613e96565b7f000000000000000000000000000000000000000000000000000000000000000060016040518463ffffffff1660e01b815260040161183d93929190613eb3565b600060405180830381600087803b15801561185757600080fd5b505af115801561186b573d6000803e3d6000fd5b50506001600160a01b037f0000000000000000000000000000000000000000000000000000000000000000169150635cffe9de90507f00000000000000000000000000000000000000000000000000000000000000007f00000000000000000000000000000000000000000000000000000000000000006118ef60608a018a613e4c565b606001358989896040516020016119089392919061461f565b6040516020818303038152906040526040518563ffffffff1660e01b8152600401611936949392919061464d565b6020604051808303816000875af1158015611955573d6000803e3d6000fd5b505050506040513d601f19601f82011682018060405250810190611979919061418b565b5061198a6040860160208701613e96565b6001600160a01b0316638309dbdd6119a56020880188613e96565b7f000000000000000000000000000000000000000000000000000000000000000060006040518463ffffffff1660e01b815260040161040b93929190613eb3565b6001600160a01b037f0000000000000000000000000000000000000000000000000000000000000000163003611a2f5760405163f46a288f60e01b815260040160405180910390fd5b8460005b81811015611bba57838382818110611a4d57611a4d614680565b9050602002016020810190611a629190614696565b15611af557611aef888883818110611a7c57611a7c614680565b9050602002016020810190611a919190613e96565b878784818110611aa357611aa3614680565b9050602002810190611ab591906146b3565b8080601f01602080910402602001604051908101604052809392919081815260200183838082843760009201919091525061211092505050565b50611bb2565b600080898984818110611b0a57611b0a614680565b9050602002016020810190611b1f9190613e96565b6001600160a01b0316888885818110611b3a57611b3a614680565b9050602002810190611b4c91906146b3565b604051611b5a9291906146f9565b6000604051808303816000865af19150503d8060008114611b97576040519150601f19603f3d011682016040523d82523d6000602084013e611b9c565b606091505b509150915081611baf57611baf81612ce5565b50505b600101611a33565b5050505050505050565b6001600160a01b037f0000000000000000000000000000000000000000000000000000000000000000163003611c0d5760405163f46a288f60e01b815260040160405180910390fd5b611c1984848484612881565b604051638309dbdd60e01b81526001600160a01b037f00000000000000000000000000000000000000000000000000000000000000001690638309dbdd90611c6a9087908790600190600401613eb3565b600060405180830381600087803b158015611c8457600080fd5b505af1158015611c98573d6000803e3d6000fd5b50505050826001600160a01b031663c75a4b5e8530306000611cbd8860000135611ef8565b611cc69061442f565b6040518663ffffffff1660e01b8152600401611ce6959493929190613e02565b600060405180830381600087803b158015611d0057600080fd5b505af1158015611d14573d6000803e3d6000fd5b5050604051638309dbdd60e01b81526001600160a01b037f0000000000000000000000000000000000000000000000000000000000000000169250638309dbdd9150611d699087908790600090600401613eb3565b600060405180830381600087803b158015611d8357600080fd5b505af1158015611bba573d6000803e3d6000fd5b6000602083013581611dac6060860186613e4c565b611dbd906060810190604001613e96565b6001600160a01b031614611e8657611dd86020850185613e96565b6001600160a01b0316611dee6060860186613e4c565b611dff906060810190604001613e96565b6001600160a01b0316141580611e3b575030611e1e6060860186613e4c565b611e2f9060c081019060a001613e96565b6001600160a01b031614155b15611e595760405163469498c560e11b815260040160405180910390fd5b611e7f611e6c6060860160408701613e96565b611e796060870187613e4c565b85612d0d565b9050611ed6565b30611e976060860160408701613e96565b6001600160a01b031614611ed657611ed6611eb56020860186613e96565b611ec56060870160408801613e96565b30846117cc3689900389018961458c565b611eed85611ee76020870187613e96565b83612dda565b9150505b9392505050565b6000600160ff1b8210611f1e57604051632db27c5360e01b815260040160405180910390fd5b5090565b6000806000856001600160a01b0316638051ba75866040518263ffffffff1660e01b8152600401611f53919061395b565b606060405180830381865afa158015611f70573d6000803e3d6000fd5b505050506040513d601f19601f82011682018060405250810190611f949190614709565b5091509150611fa484838361300f565b9695505050505050565b60008083602001516001600160a01b031663f3fef3a330856040518363ffffffff1660e01b8152600401611fe3929190614509565b6020604051808303816000875af1158015612002573d6000803e3d6000fd5b505050506040513d601f19601f8201168201806040525081019061202691906144dd565b60405163ef693bed60e01b81529091506000805160206148968339815191529063ef693bed9061205c9030908590600401614509565b600060405180830381600087803b15801561207657600080fd5b505af115801561208a573d6000803e3d6000fd5b50506040516370a0823160e01b8152736b175474e89094c44da98b954eedeac495271d0f92506370a0823191506120c590309060040161395b565b602060405180830381865afa1580156120e2573d6000803e3d6000fd5b505050506040513d601f19601f8201168201806040525081019061210691906144dd565b9150505b92915050565b6060600080846001600160a01b03168460405161212d919061474c565b600060405180830381855af49150503d8060008114612168576040519150601f19603f3d011682016040523d82523d6000602084013e61216d565b606091505b5091509150816121065761210681612ce5565b6121d68363a9059cbb60e01b848460405160240161219f929190614509565b60408051601f198184030181529190526020810180516001600160e01b03166001600160e01b03199093169290921790915261304b565b505050565b6000816001600160a01b038516736b175474e89094c44da98b954eedeac495271d0f148061221957506080860151604001516001600160a01b031615155b1561222b57612228848261475e565b90505b612258736b175474e89094c44da98b954eedeac495271d0f60008051602061489683398151915283613125565b604051633b4da69f60e01b815260008051602061489683398151915290633b4da69f9061228b9030908590600401614509565b600060405180830381600087803b1580156122a557600080fd5b505af11580156122b9573d6000803e3d6000fd5b50506040516370a0823160e01b815260008051602061489683398151915292506370a0823191506122ee90309060040161395b565b602060405180830381865afa15801561230b573d6000803e3d6000fd5b505050506040513d601f19601f8201168201806040525081019061232f91906144dd565b6020870151909150612351906000805160206148968339815191529083613125565b85602001516001600160a01b03166347e7ef2430836040518363ffffffff1660e01b8152600401612383929190614509565b6020604051808303816000875af11580156123a2573d6000803e3d6000fd5b505050506040513d601f19601f820116820180604052508101906123c691906144dd565b9150505b949350505050565b604051638309dbdd60e01b81526001600160a01b037f00000000000000000000000000000000000000000000000000000000000000001690638309dbdd906124439030907f000000000000000000000000000000000000000000000000000000000000000090600190600401613eb3565b600060405180830381600087803b15801561245d57600080fd5b505af1158015612471573d6000803e3d6000fd5b50600092506124869150506040830183613e4c565b612497906060810190604001613e96565b6001600160a01b0316036125e0576001600160a01b037f00000000000000000000000000000000000000000000000000000000000000001663ef693bed6124e46040840160208501613e96565b6040516001600160e01b031960e084901b1681526125089190853590600401614509565b600060405180830381600087803b15801561252257600080fd5b505af1158015612536573d6000803e3d6000fd5b5050604051638309dbdd60e01b81526001600160a01b037f0000000000000000000000000000000000000000000000000000000000000000169250638309dbdd91506125ab9030907f000000000000000000000000000000000000000000000000000000000000000090600090600401613eb3565b600060405180830381600087803b1580156125c557600080fd5b505af11580156125d9573d6000803e3d6000fd5b5050505050565b60405163ef693bed60e01b81526001600160a01b037f0000000000000000000000000000000000000000000000000000000000000000169063ef693bed9061262f903090853590600401614509565b600060405180830381600087803b15801561264957600080fd5b505af115801561265d573d6000803e3d6000fd5b5050604051638309dbdd60e01b81526001600160a01b037f0000000000000000000000000000000000000000000000000000000000000000169250638309dbdd91506126d29030907f000000000000000000000000000000000000000000000000000000000000000090600090600401613eb3565b600060405180830381600087803b1580156126ec57600080fd5b505af1158015612700573d6000803e3d6000fd5b50506001600160a01b037f000000000000000000000000000000000000000000000000000000000000000016915061273d90506040830183613e4c565b61274e906060810190604001613e96565b6001600160a01b0316146127755760405163051b33b760e51b815260040160405180910390fd5b6127be7f00000000000000000000000000000000000000000000000000000000000000006311b2aacd60e21b6127ae6040850185613e4c565b604051602401610ab39190614771565b505b50565b6000806127e1846127d76020860186613e96565b85602001356131be565b905060006127f26060850185613e4c565b612803906060810190604001613e96565b6001600160a01b0316146128505761284a7f00000000000000000000000000000000000000000000000000000000000000006311b2aacd60e21b6127ae6060870187613e4c565b50611ef1565b611ef16128636060850160408601613e96565b826128716020870187613e96565b6001600160a01b03169190612180565b6000806128916040850185613e4c565b6128a2906060810190604001613e96565b6001600160a01b03161461292357306128be6040850185613e4c565b6128cf9060c081019060a001613e96565b6001600160a01b0316146128f657604051633300ff5360e21b815260040160405180910390fd5b61291c6129096040850160208601613e96565b6129166040860186613e4c565b84612d0d565b9050612a21565b600080856001600160a01b0316638051ba75886040518263ffffffff1660e01b8152600401612952919061395b565b606060405180830381865afa15801561296f573d6000803e3d6000fd5b505050506040513d601f19601f820116820180604052508101906129939190614709565b509092509050806129ae6001600160401b03841687356133b9565b6129b891906144f6565b9250306129cb6040870160208801613e96565b6001600160a01b031614612a1e57612a1e7f0000000000000000000000000000000000000000000000000000000000000000612a0d6040880160208901613e96565b30866117cc368a90038a018a61458c565b50505b60405163095ea7b360e01b81526001600160a01b037f0000000000000000000000000000000000000000000000000000000000000000169063095ea7b390612a8f907f0000000000000000000000000000000000000000000000000000000000000000908590600401614509565b6020604051808303816000875af1158015612aae573d6000803e3d6000fd5b505050506040513d601f19601f82011682018060405250810190612ad2919061418b565b50604051637e348b7d60e01b81526001600160a01b037f00000000000000000000000000000000000000000000000000000000000000001690637e348b7d9061040b9030908590600401614509565b600281516002811115612b3657612b36613e36565b03612c60576e22d473030f116ddee9f6b43ac78ba36001600160a01b03166330f28b7a604051806060016040528060405180604001604052808a6001600160a01b03168152602001866020015181525081526020018460400151815260200184606001518152506040518060400160405280876001600160a01b0316815260200186815250878560a001518660c00151876080015160f81b604051602001612bfb9392919092835260208301919091526001600160f81b031916604082015260410190565b6040516020818303038152906040526040518563ffffffff1660e01b8152600401612c299493929190614784565b600060405180830381600087803b158015612c4357600080fd5b505af1158015612c57573d6000803e3d6000fd5b505050506125d9565b600181516002811115612c7557612c75613e36565b03612cd057612cb684848360200151846060015185608001518660a001518760c001518c6001600160a01b03166133e790979695949392919063ffffffff16565b612ccb6001600160a01b0386168585856135c2565b6125d9565b6125d96001600160a01b0386168585856135c2565b805115612cf457805181602001fd5b60405163491182fb60e01b815260040160405180910390fd5b600080612d517f0000000000000000000000000000000000000000000000000000000000000000630147931c60e01b878688604051602401610ab3939291906147fd565b9050600081806020019051810190612d6991906144dd565b90506001612d7d6040870160208801613e7b565b6001811115612d8e57612d8e613e36565b03612dcd576000612da38260808801356144f6565b90508015612dc057612dc0878261287160608a0160408b01613e96565b8560600135935050612dd1565b8092505b50509392505050565b60006001600160a01b03831660008051602061489683398151915214612f85576040516370a0823160e01b8152600090600080516020614896833981519152906370a0823190612e2e90309060040161395b565b602060405180830381865afa158015612e4b573d6000803e3d6000fd5b505050506040513d601f19601f82011682018060405250810190612e6f91906144dd565b9050612e9e736b175474e89094c44da98b954eedeac495271d0f60008051602061489683398151915285613125565b604051633b4da69f60e01b815260008051602061489683398151915290633b4da69f90612ed19030908790600401614509565b600060405180830381600087803b158015612eeb57600080fd5b505af1158015612eff573d6000803e3d6000fd5b50506040516370a0823160e01b815283925060008051602061489683398151915291506370a0823190612f3690309060040161395b565b602060405180830381865afa158015612f53573d6000803e3d6000fd5b505050506040513d601f19601f82011682018060405250810190612f7791906144dd565b612f8191906144f6565b9250505b612f9e6000805160206148968339815191528584613125565b6040516311f9fbc960e21b81526001600160a01b038516906347e7ef2490612fcc9030908690600401614509565b6020604051808303816000875af1158015612feb573d6000803e3d6000fd5b505050506040513d601f19601f820116820180604052508101906123ca91906144dd565b600061302d61301e838661475e565b846001600160401b03166135fa565b90508361303b828585613649565b1015611ef1576001019392505050565b60006130a0826040518060400160405280602081526020017f5361666545524332303a206c6f772d6c6576656c2063616c6c206661696c6564815250856001600160a01b03166136699092919063ffffffff16565b90508051600014806130c15750808060200190518101906130c1919061418b565b6121d65760405162461bcd60e51b815260206004820152602a60248201527f5361666545524332303a204552433230206f7065726174696f6e20646964206e6044820152691bdd081cdd58d8d9595960b21b60648201526084015b60405180910390fd5b600063095ea7b360e01b8383604051602401613142929190614509565b60408051601f198184030181529190526020810180516001600160e01b03166001600160e01b03199093169290921790915290506131808482613678565b611213576040516001600160a01b0384166024820152600060448201526131b490859063095ea7b360e01b9060640161219f565b611213848261304b565b600080846001600160a01b031663f3fef3a330856040518363ffffffff1660e01b81526004016131ef929190614509565b6020604051808303816000875af115801561320e573d6000803e3d6000fd5b505050506040513d601f19601f8201168201806040525081019061323291906144dd565b90506001600160a01b038416600080516020614896833981519152146123ca576040516370a0823160e01b8152600090736b175474e89094c44da98b954eedeac495271d0f906370a082319061328c90309060040161395b565b602060405180830381865afa1580156132a9573d6000803e3d6000fd5b505050506040513d601f19601f820116820180604052508101906132cd91906144dd565b60405163ef693bed60e01b81529091506000805160206148968339815191529063ef693bed906133039030908690600401614509565b600060405180830381600087803b15801561331d57600080fd5b505af1158015613331573d6000803e3d6000fd5b50506040516370a0823160e01b8152839250736b175474e89094c44da98b954eedeac495271d0f91506370a082319061336e90309060040161395b565b602060405180830381865afa15801561338b573d6000803e3d6000fd5b505050506040513d601f19601f820116820180604052508101906133af91906144dd565b6123c691906144f6565b6000816000190483118202156133d75763c4c5d7f56000526004601cfd5b50670de0b6b3a764000091020490565b604051623f675f60e91b81526000906001600160a01b038a1690637ecebe0090613415908b9060040161395b565b602060405180830381865afa158015613432573d6000803e3d6000fd5b505050506040513d601f19601f8201168201806040525081019061345691906144dd565b60405163d505accf60e01b81526001600160a01b038a811660048301528981166024830152604482018990526064820188905260ff8716608483015260a4820186905260c48201859052919250908a169063d505accf9060e401600060405180830381600087803b1580156134ca57600080fd5b505af11580156134de573d6000803e3d6000fd5b5050604051623f675f60e91b8152600092506001600160a01b038c169150637ecebe0090613510908c9060040161395b565b602060405180830381865afa15801561352d573d6000803e3d6000fd5b505050506040513d601f19601f8201168201806040525081019061355191906144dd565b905061355e82600161475e565b81146135b65760405162461bcd60e51b815260206004820152602160248201527f5361666545524332303a207065726d697420646964206e6f74207375636365656044820152601960fa1b606482015260840161311c565b50505050505050505050565b6040516001600160a01b03808516602483015283166044820152606481018290526112139085906323b872dd60e01b9060840161219f565b60007812725dd1d243aba0e75fe645cc4873f9e65afe688c928e1f218311670de0b6b3a7640000021582026136375763bcbede656000526004601cfd5b50670de0b6b3a7640000919091020490565b60008161365f85856001600160401b03166133b9565b6123ca91906144f6565b60606123ca848460008561371f565b6000806000846001600160a01b031684604051613695919061474c565b6000604051808303816000865af19150503d80600081146136d2576040519150601f19603f3d011682016040523d82523d6000602084013e6136d7565b606091505b5091509150818015613701575080511580613701575080806020019051810190613701919061418b565b801561371657506001600160a01b0385163b15155b95945050505050565b6060824710156137805760405162461bcd60e51b815260206004820152602660248201527f416464726573733a20696e73756666696369656e742062616c616e636520666f6044820152651c8818d85b1b60d21b606482015260840161311c565b600080866001600160a01b0316858760405161379c919061474c565b60006040518083038185875af1925050503d80600081146137d9576040519150601f19603f3d011682016040523d82523d6000602084013e6137de565b606091505b50915091506137ef878383876137fa565b979650505050505050565b60608315613869578251600003613862576001600160a01b0385163b6138625760405162461bcd60e51b815260206004820152601d60248201527f416464726573733a2063616c6c20746f206e6f6e2d636f6e7472616374000000604482015260640161311c565b50816123ca565b6123ca838381511561387e5781518083602001fd5b8060405162461bcd60e51b815260040161311c9190614882565b6001600160a01b03811681146127c057600080fd5b80356138b881613898565b919050565b6000608082840312156138cf57600080fd5b50919050565b600060e082840312156138cf57600080fd5b60008060008061014085870312156138fe57600080fd5b843561390981613898565b9350602085013561391981613898565b925060408501356001600160401b0381111561393457600080fd5b613940878288016138bd565b92505061395086606087016138d5565b905092959194509250565b6001600160a01b0391909116815260200190565b600060a082840312156138cf57600080fd5b60008060006060848603121561399657600080fd5b83356001600160401b038111156139ac57600080fd5b6139b88682870161396f565b9350506020840135915060408401356139d081613898565b809150509250925092565b60008083601f8401126139ed57600080fd5b5081356001600160401b03811115613a0457600080fd5b602083019150836020828501011115613a1c57600080fd5b9250929050565b600080600080600060808688031215613a3b57600080fd5b8535613a4681613898565b9450602086013593506040860135925060608601356001600160401b03811115613a6f57600080fd5b613a7b888289016139db565b969995985093965092949392505050565b60008060008060008060a08789031215613aa557600080fd5b8635613ab081613898565b95506020870135613ac081613898565b9450604087013593506060870135925060808701356001600160401b03811115613ae957600080fd5b613af589828a016139db565b979a9699509497509295939492505050565b6000606082840312156138cf57600080fd5b60008060008060006101608688031215613b3257600080fd5b8535613b3d81613898565b94506020860135613b4d81613898565b935060408601356001600160401b0380821115613b6957600080fd5b613b7589838a016138bd565b94506060880135915080821115613b8b57600080fd5b50613b9888828901613b07565b925050613ba887608088016138d5565b90509295509295909350565b600080600060608486031215613bc957600080fd5b8335613bd481613898565b92506020840135613be481613898565b915060408401356001600160401b03811115613bff57600080fd5b613c0b86828701613b07565b9150509250925092565b600080600060608486031215613c2a57600080fd5b8335613c3581613898565b92506020840135613c4581613898565b915060408401356001600160401b03811115613c6057600080fd5b613c0b868287016138bd565b60008060008060006101608688031215613c8557600080fd5b85356001600160401b03811115613c9b57600080fd5b613ca78882890161396f565b9550506020860135613cb881613898565b9350604086013592506060860135613ccf81613898565b9150613ba887608088016138d5565b60008083601f840112613cf057600080fd5b5081356001600160401b03811115613d0757600080fd5b6020830191508360208260051b8501011115613a1c57600080fd5b60008060008060008060608789031215613d3b57600080fd5b86356001600160401b0380821115613d5257600080fd5b613d5e8a838b01613cde565b90985096506020890135915080821115613d7757600080fd5b613d838a838b01613cde565b90965094506040890135915080821115613d9c57600080fd5b50613af589828a01613cde565b6000806000806101408587031215613dc057600080fd5b8435613dcb81613898565b93506020850135613ddb81613898565b925060408501356001600160401b03811115613df657600080fd5b61394087828801613b07565b6001600160a01b03958616815293851660208501529190931660408301526060820192909252608081019190915260a00190565b634e487b7160e01b600052602160045260246000fd5b6000823560fe19833603018112613e6257600080fd5b9190910192915050565b8035600281106138b857600080fd5b600060208284031215613e8d57600080fd5b611ef182613e6c565b600060208284031215613ea857600080fd5b8135611ef181613898565b6001600160a01b039384168152919092166020820152901515604082015260600190565b6000823560fe19833603018112613eed57600080fd5b90910192915050565b600381106127c057600080fd5b80356138b881613ef6565b600381106127c0576127c0613e36565b60028110613f2e57613f2e613e36565b9052565b6000808335601e19843603018112613f4957600080fd5b83016020810192503590506001600160401b03811115613f6857600080fd5b803603821315613a1c57600080fd5b81835281816020850137506000828201602090810191909152601f909101601f19169091010190565b60006101008235613fb081613ef6565b613fb981613f0e565b8452613fc760208401613e6c565b613fd46020860182613f1e565b506040830135613fe381613898565b6001600160a01b03166040850152606083810135908501526080808401359085015260a083013561401381613898565b6001600160a01b031660a085015260c0838101359085015261403860e0840184613f32565b8260e0870152611fa48387018284613f77565b6000813561405881613898565b6001600160a01b03908116845260208301359061407482613898565b908116602085015260408301359061408b82613898565b16604084015261409e6060830183613ed7565b60a060608501526140b260a0850182613fa0565b90506140c16080840184613ed7565b84820360808601526137168282613fa0565b6060815260006140e6606083018661404b565b6020830194909452506001600160a01b0391909116604090910152919050565b60005b83811015614121578181015183820152602001614109565b50506000910152565b60008151808452614142816020860160208601614106565b601f01601f19169290920160200192915050565b60018060a01b0384168152826020820152606060408201526000613716606083018461412a565b80151581146127c057600080fd5b60006020828403121561419d57600080fd5b8151611ef18161417d565b634e487b7160e01b600052604160045260246000fd5b60405161010081016001600160401b03811182821017156141e1576141e16141a8565b60405290565b600082601f8301126141f857600080fd5b81356001600160401b0380821115614212576142126141a8565b604051601f8301601f19908116603f0116810190828211818310171561423a5761423a6141a8565b8160405283815286602085880101111561425357600080fd5b836020870160208301376000602085830101528094505050505092915050565b6000610100828403121561428657600080fd5b61428e6141be565b905061429982613f03565b81526142a760208301613e6c565b60208201526142b8604083016138ad565b604082015260608201356060820152608082013560808201526142dd60a083016138ad565b60a082015260c082013560c082015260e08201356001600160401b0381111561430557600080fd5b614311848285016141e7565b60e08301525092915050565b600060a0828403121561432f57600080fd5b60405160a081016001600160401b038282108183111715614352576143526141a8565b816040528293508435915061436682613898565b90825260208401359061437882613898565b81602084015261438a604086016138ad565b604084015260608501359150808211156143a357600080fd5b6143af86838701614273565b606084015260808501359150808211156143c857600080fd5b506143d585828601614273565b6080830152505092915050565b6000806000606084860312156143f757600080fd5b83356001600160401b0381111561440d57600080fd5b6139b88682870161431d565b634e487b7160e01b600052601160045260246000fd5b6000600160ff1b820161444457614444614419565b5060000390565b602081526000825161445c81613f0e565b8060208401525060208301516144756040840182613f1e565b5060018060a01b03604084015116606083015260608301516080830152608083015160a083015260a08301516144b660c08401826001600160a01b03169052565b5060c083015160e083015260e083015161010080818501525061210661012084018261412a565b6000602082840312156144ef57600080fd5b5051919050565b8181038181111561210a5761210a614419565b6001600160a01b03929092168252602082015260400190565b60008060006060848603121561453757600080fd5b83356001600160401b0381111561454d57600080fd5b6145598682870161431d565b935050602084013561456a81613898565b929592945050506040919091013590565b803560ff811681146138b857600080fd5b600060e0828403121561459e57600080fd5b60405160e081018181106001600160401b03821117156145c0576145c06141a8565b60405282356145ce81613ef6565b808252506020830135602082015260408301356040820152606083013560608201526145fc6080840161457b565b608082015260a083013560a082015260c083013560c08201528091505092915050565b606081526000614632606083018661404b565b6001600160a01b039490941660208301525060400152919050565b6001600160a01b0385811682528416602082015260408101839052608060608201819052600090611fa49083018461412a565b634e487b7160e01b600052603260045260246000fd5b6000602082840312156146a857600080fd5b8135611ef18161417d565b6000808335601e198436030181126146ca57600080fd5b8301803591506001600160401b038211156146e457600080fd5b602001915036819003821315613a1c57600080fd5b8183823760009101908152919050565b60008060006060848603121561471e57600080fd5b83516001600160401b038116811461473557600080fd5b602085015160409095015190969495509392505050565b60008251613e62818460208701614106565b8082018082111561210a5761210a614419565b602081526000611ef16020830184613fa0565b60006101006147a783885180516001600160a01b03168252602090810151910152565b60208701516040840152604087015160608401526147db608084018780516001600160a01b03168252602090810151910152565b6001600160a01b03851660c084015260e083018190526137ef8184018561412a565b6001600160a01b03841681526000610120843561481981613ef6565b61482281613f0e565b8060208501525060208501356040840152604085013560608401526060850135608084015260ff6148556080870161457b565b1660a084015260a085013560c084015260c085013560e0840152806101008401526123c681840185613fa0565b602081526000611ef1602083018461412a56fe00000000000000000000000006af07097c9eeb7fd685c692751d5c66db49c215a2646970667358221220135ff7097c027ed06a95678734a31bd4be13a0249a767c3c984773ef266fc39564736f6c63430008130033",
    "linkReferences": {}
  },
  "methodIdentifiers": {
    "CALLBACK_SUCCESS()": "8237e538",
    "CALLBACK_SUCCESS_CREDIT()": "0f13be2a",
    "borrow(address,address,(uint256,address,(uint8,uint8,address,uint256,uint256,address,uint256,bytes)))": "56415a90",
    "cdm()": "e2dfb317",
    "decreaseLever((address,address,address,(uint8,uint8,address,uint256,uint256,address,uint256,bytes),(uint8,uint8,address,uint256,uint256,address,uint256,bytes)),uint256,address)": "0b839bf2",
    "deposit(address,address,(address,uint256,address,(uint8,uint8,address,uint256,uint256,address,uint256,bytes)),(uint8,uint256,uint256,uint256,uint8,bytes32,bytes32))": "0567d4b1",
    "depositAndBorrow(address,address,(address,uint256,address,(uint8,uint8,address,uint256,uint256,address,uint256,bytes)),(uint256,address,(uint8,uint8,address,uint256,uint256,address,uint256,bytes)),(uint8,uint256,uint256,uint256,uint8,bytes32,bytes32))": "4ad4d4ad",
    "flashlender()": "ee58918a",
    "increaseLever((address,address,address,(uint8,uint8,address,uint256,uint256,address,uint256,bytes),(uint8,uint8,address,uint256,uint256,address,uint256,bytes)),address,uint256,address,(uint8,uint256,uint256,uint256,uint8,bytes32,bytes32))": "aad598ae",
    "minter()": "07546172",
    "multisend(address[],bytes[],bool[])": "f38584e0",
    "onCreditFlashLoan(address,uint256,uint256,bytes)": "16d8f165",
    "onFlashLoan(address,address,uint256,uint256,bytes)": "23e30c8b",
    "permit2()": "12261ee7",
    "repay(address,address,(uint256,address,(uint8,uint8,address,uint256,uint256,address,uint256,bytes)),(uint8,uint256,uint256,uint256,uint8,bytes32,bytes32))": "faa99405",
    "self()": "7104ddb2",
    "stablecoin()": "e9cbd822",
    "swapAction()": "a888828b",
    "withdraw(address,address,(address,uint256,address,(uint8,uint8,address,uint256,uint256,address,uint256,bytes)))": "6c747057",
    "withdrawAndRepay(address,address,(address,uint256,address,(uint8,uint8,address,uint256,uint256,address,uint256,bytes)),(uint256,address,(uint8,uint8,address,uint256,uint256,address,uint256,bytes)),(uint8,uint256,uint256,uint256,uint8,bytes32,bytes32))": "96c2c408"
  },
  "id": 125
}