{
  "abi": [
    {
      "inputs": [
        {
          "internalType": "contract IPRBProxyPlugin",
          "name": "currentPlugin",
          "type": "address"
        },
        {
          "internalType": "contract IPRBProxyPlugin",
          "name": "newPlugin",
          "type": "address"
        },
        {
          "internalType": "bytes4",
          "name": "method",
          "type": "bytes4"
        }
      ],
      "name": "PRBProxyRegistry_PluginMethodCollision",
      "type": "error"
    },
    {
      "inputs": [
        {
          "internalType": "contract IPRBProxyPlugin",
          "name": "plugin",
          "type": "address"
        }
      ],
      "name": "PRBProxyRegistry_PluginUnknown",
      "type": "error"
    },
    {
      "inputs": [
        {
          "internalType": "contract IPRBProxyPlugin",
          "name": "plugin",
          "type": "address"
        }
      ],
      "name": "PRBProxyRegistry_PluginWithZeroMethods",
      "type": "error"
    },
    {
      "inputs": [
        {
          "internalType": "address",
          "name": "user",
          "type": "address"
        }
      ],
      "name": "PRBProxyRegistry_UserDoesNotHaveProxy",
      "type": "error"
    },
    {
      "inputs": [
        {
          "internalType": "address",
          "name": "user",
          "type": "address"
        },
        {
          "internalType": "contract IPRBProxy",
          "name": "proxy",
          "type": "address"
        }
      ],
      "name": "PRBProxyRegistry_UserHasProxy",
      "type": "error"
    },
    {
      "anonymous": false,
      "inputs": [
        {
          "indexed": true,
          "internalType": "address",
          "name": "operator",
          "type": "address"
        },
        {
          "indexed": true,
          "internalType": "address",
          "name": "owner",
          "type": "address"
        },
        {
          "indexed": false,
          "internalType": "contract IPRBProxy",
          "name": "proxy",
          "type": "address"
        }
      ],
      "name": "DeployProxy",
      "type": "event"
    },
    {
      "anonymous": false,
      "inputs": [
        {
          "indexed": true,
          "internalType": "address",
          "name": "owner",
          "type": "address"
        },
        {
          "indexed": true,
          "internalType": "contract IPRBProxy",
          "name": "proxy",
          "type": "address"
        },
        {
          "indexed": true,
          "internalType": "contract IPRBProxyPlugin",
          "name": "plugin",
          "type": "address"
        },
        {
          "indexed": false,
          "internalType": "bytes4[]",
          "name": "methods",
          "type": "bytes4[]"
        }
      ],
      "name": "InstallPlugin",
      "type": "event"
    },
    {
      "anonymous": false,
      "inputs": [
        {
          "indexed": true,
          "internalType": "address",
          "name": "owner",
          "type": "address"
        },
        {
          "indexed": true,
          "internalType": "contract IPRBProxy",
          "name": "proxy",
          "type": "address"
        },
        {
          "indexed": true,
          "internalType": "address",
          "name": "envoy",
          "type": "address"
        },
        {
          "indexed": false,
          "internalType": "address",
          "name": "target",
          "type": "address"
        },
        {
          "indexed": false,
          "internalType": "bool",
          "name": "newPermission",
          "type": "bool"
        }
      ],
      "name": "SetPermission",
      "type": "event"
    },
    {
      "anonymous": false,
      "inputs": [
        {
          "indexed": true,
          "internalType": "address",
          "name": "owner",
          "type": "address"
        },
        {
          "indexed": true,
          "internalType": "contract IPRBProxy",
          "name": "proxy",
          "type": "address"
        },
        {
          "indexed": true,
          "internalType": "contract IPRBProxyPlugin",
          "name": "plugin",
          "type": "address"
        },
        {
          "indexed": false,
          "internalType": "bytes4[]",
          "name": "methods",
          "type": "bytes4[]"
        }
      ],
      "name": "UninstallPlugin",
      "type": "event"
    },
    {
      "inputs": [],
      "name": "VERSION",
      "outputs": [
        {
          "internalType": "string",
          "name": "",
          "type": "string"
        }
      ],
      "stateMutability": "view",
      "type": "function"
    },
    {
      "inputs": [],
      "name": "constructorParams",
      "outputs": [
        {
          "internalType": "address",
          "name": "owner",
          "type": "address"
        },
        {
          "internalType": "address",
          "name": "target",
          "type": "address"
        },
        {
          "internalType": "bytes",
          "name": "data",
          "type": "bytes"
        }
      ],
      "stateMutability": "view",
      "type": "function"
    },
    {
      "inputs": [],
      "name": "deploy",
      "outputs": [
        {
          "internalType": "contract IPRBProxy",
          "name": "proxy",
          "type": "address"
        }
      ],
      "stateMutability": "nonpayable",
      "type": "function"
    },
    {
      "inputs": [
        {
          "internalType": "address",
          "name": "target",
          "type": "address"
        },
        {
          "internalType": "bytes",
          "name": "data",
          "type": "bytes"
        }
      ],
      "name": "deployAndExecute",
      "outputs": [
        {
          "internalType": "contract IPRBProxy",
          "name": "proxy",
          "type": "address"
        }
      ],
      "stateMutability": "nonpayable",
      "type": "function"
    },
    {
      "inputs": [
        {
          "internalType": "address",
          "name": "target",
          "type": "address"
        },
        {
          "internalType": "bytes",
          "name": "data",
          "type": "bytes"
        },
        {
          "internalType": "contract IPRBProxyPlugin",
          "name": "plugin",
          "type": "address"
        }
      ],
      "name": "deployAndExecuteAndInstallPlugin",
      "outputs": [
        {
          "internalType": "contract IPRBProxy",
          "name": "proxy",
          "type": "address"
        }
      ],
      "stateMutability": "nonpayable",
      "type": "function"
    },
    {
      "inputs": [
        {
          "internalType": "contract IPRBProxyPlugin",
          "name": "plugin",
          "type": "address"
        }
      ],
      "name": "deployAndInstallPlugin",
      "outputs": [
        {
          "internalType": "contract IPRBProxy",
          "name": "proxy",
          "type": "address"
        }
      ],
      "stateMutability": "nonpayable",
      "type": "function"
    },
    {
      "inputs": [
        {
          "internalType": "address",
          "name": "user",
          "type": "address"
        }
      ],
      "name": "deployFor",
      "outputs": [
        {
          "internalType": "contract IPRBProxy",
          "name": "proxy",
          "type": "address"
        }
      ],
      "stateMutability": "nonpayable",
      "type": "function"
    },
    {
      "inputs": [
        {
          "internalType": "address",
          "name": "owner",
          "type": "address"
        },
        {
          "internalType": "contract IPRBProxyPlugin",
          "name": "plugin",
          "type": "address"
        }
      ],
      "name": "getMethodsByOwner",
      "outputs": [
        {
          "internalType": "bytes4[]",
          "name": "methods",
          "type": "bytes4[]"
        }
      ],
      "stateMutability": "view",
      "type": "function"
    },
    {
      "inputs": [
        {
          "internalType": "contract IPRBProxy",
          "name": "proxy",
          "type": "address"
        },
        {
          "internalType": "contract IPRBProxyPlugin",
          "name": "plugin",
          "type": "address"
        }
      ],
      "name": "getMethodsByProxy",
      "outputs": [
        {
          "internalType": "bytes4[]",
          "name": "methods",
          "type": "bytes4[]"
        }
      ],
      "stateMutability": "view",
      "type": "function"
    },
    {
      "inputs": [
        {
          "internalType": "address",
          "name": "owner",
          "type": "address"
        },
        {
          "internalType": "address",
          "name": "envoy",
          "type": "address"
        },
        {
          "internalType": "address",
          "name": "target",
          "type": "address"
        }
      ],
      "name": "getPermissionByOwner",
      "outputs": [
        {
          "internalType": "bool",
          "name": "permission",
          "type": "bool"
        }
      ],
      "stateMutability": "view",
      "type": "function"
    },
    {
      "inputs": [
        {
          "internalType": "contract IPRBProxy",
          "name": "proxy",
          "type": "address"
        },
        {
          "internalType": "address",
          "name": "envoy",
          "type": "address"
        },
        {
          "internalType": "address",
          "name": "target",
          "type": "address"
        }
      ],
      "name": "getPermissionByProxy",
      "outputs": [
        {
          "internalType": "bool",
          "name": "permission",
          "type": "bool"
        }
      ],
      "stateMutability": "view",
      "type": "function"
    },
    {
      "inputs": [
        {
          "internalType": "address",
          "name": "owner",
          "type": "address"
        },
        {
          "internalType": "bytes4",
          "name": "method",
          "type": "bytes4"
        }
      ],
      "name": "getPluginByOwner",
      "outputs": [
        {
          "internalType": "contract IPRBProxyPlugin",
          "name": "plugin",
          "type": "address"
        }
      ],
      "stateMutability": "view",
      "type": "function"
    },
    {
      "inputs": [
        {
          "internalType": "contract IPRBProxy",
          "name": "proxy",
          "type": "address"
        },
        {
          "internalType": "bytes4",
          "name": "method",
          "type": "bytes4"
        }
      ],
      "name": "getPluginByProxy",
      "outputs": [
        {
          "internalType": "contract IPRBProxyPlugin",
          "name": "plugin",
          "type": "address"
        }
      ],
      "stateMutability": "view",
      "type": "function"
    },
    {
      "inputs": [
        {
          "internalType": "address",
          "name": "user",
          "type": "address"
        }
      ],
      "name": "getProxy",
      "outputs": [
        {
          "internalType": "contract IPRBProxy",
          "name": "proxy",
          "type": "address"
        }
      ],
      "stateMutability": "view",
      "type": "function"
    },
    {
      "inputs": [
        {
          "internalType": "contract IPRBProxyPlugin",
          "name": "plugin",
          "type": "address"
        }
      ],
      "name": "installPlugin",
      "outputs": [],
      "stateMutability": "nonpayable",
      "type": "function"
    },
    {
      "inputs": [
        {
          "internalType": "address",
          "name": "envoy",
          "type": "address"
        },
        {
          "internalType": "address",
          "name": "target",
          "type": "address"
        },
        {
          "internalType": "bool",
          "name": "permission",
          "type": "bool"
        }
      ],
      "name": "setPermission",
      "outputs": [],
      "stateMutability": "nonpayable",
      "type": "function"
    },
    {
      "inputs": [
        {
          "internalType": "contract IPRBProxyPlugin",
          "name": "plugin",
          "type": "address"
        }
      ],
      "name": "uninstallPlugin",
      "outputs": [],
      "stateMutability": "nonpayable",
      "type": "function"
    }
  ],
  "bytecode": {
    "object": "0x608060405234801561001057600080fd5b506123ba806100206000396000f3fe60806040523480156200001157600080fd5b5060043610620000ff5760003560e01c8063775c300c116200009e578063775c300c14620002275780639d1bd1591462000231578063aa4b826a1462000248578063b31d1b99146200025f578063b7fba4d314620002a8578063b967840314620002d7578063fa557e9314620002ee578063fb4a4d081462000305578063ffa1ad74146200031c57600080fd5b8063092af81314620001045780631ddef5b914620001335780634bddd93a146200014a5780635cabcdf7146200016357806361be4859146200018b5780636383afb214620001cf57806366b0182d14620001f557806374912cd21462000210575b600080fd5b6200011b62000115366004620011f5565b62000350565b6040516200012a919062001250565b60405180910390f35b6200011b620001443660046200127b565b620003e8565b620001616200015b366004620012b9565b62000492565b005b6200017a62000174366004620012e0565b620006a8565b60405190151581526020016200012a565b6200011b6200019c3660046200127b565b6001600160a01b0391821660009081526005602090815260408083206001600160e01b0319909416835292905220541690565b620001e6620001e036600462001332565b62000751565b6040516200012a919062001365565b620001ff62000885565b6040516200012a93929190620013fd565b6200011b62000221366004620012b9565b62000935565b6200011b6200099f565b6200011b6200024236600462001434565b62000a05565b6200016162000259366004620014a4565b62000aa1565b6200017a62000270366004620012e0565b6001600160a01b0392831660009081526004602090815260408083209486168352938152838220929094168152925290205460ff1690565b6200011b620002b9366004620012b9565b6001600160a01b039081166000908152600660205260409020541690565b62000161620002e8366004620012b9565b62000b65565b620001e6620002ff36600462001332565b62000bae565b6200011b62000316366004620012b9565b62000c34565b6200034160405180604001604052806005815260200164342e302e3160d81b81525081565b6040516200012a9190620014ef565b336000818152600660205260408120549091906001600160a01b031680156200039b57818160405163bf0b215b60e01b81526004016200039292919062001504565b60405180910390fd5b620003de338787878080601f01602080910402602001604051908101604052809392919081815260200183838082843760009201919091525062000ca792505050565b9695505050505050565b600060056000846001600160a01b0316638da5cb5b6040518163ffffffff1660e01b8152600401602060405180830381865afa1580156200042d573d6000803e3d6000fd5b505050506040513d601f19601f820116820180604052508101906200045391906200151e565b6001600160a01b039081168252602080830193909352604091820160009081206001600160e01b03199096168152949092529092205490911692915050565b336000908152600660205260409020546001600160a01b0316620004cd57336040516333685ad760e01b815260040162000392919062001250565b3360008181526003602090815260408083206001600160a01b03861684528252808320805482518185028101850190935280835291929091908301828280156200056457602002820191906000526020600020906000905b82829054906101000a900460e01b6001600160e01b03191681526020019060040190602082600301049283019260010382029150808411620005255790505b50505050509050600081519050806000036200059757836040516338d4b05760e01b815260040162000392919062001250565b60005b8181101562000610576001600160a01b03841660009081526005602052604081208451909190859084908110620005d557620005d56200153e565b6020908102919091018101516001600160e01b031916825281019190915260400160002080546001600160a01b03191690556001016200059a565b506001600160a01b0380841660009081526003602090815260408083209388168352929052908120620006439162001055565b6001600160a01b0383811660008181526006602052604090819020549051838816939190911691907f0971095f3fa0f917fd0ad98319d7cdb8e837d8c98d5e47fb2700e8b68ac961c9906200069a90879062001365565b60405180910390a450505050565b600060046000856001600160a01b0316638da5cb5b6040518163ffffffff1660e01b8152600401602060405180830381865afa158015620006ed573d6000803e3d6000fd5b505050506040513d601f19601f820116820180604052508101906200071391906200151e565b6001600160a01b039081168252602080830193909352604091820160009081209682168152958352818620941685529290525090205460ff16919050565b606060036000846001600160a01b0316638da5cb5b6040518163ffffffff1660e01b8152600401602060405180830381865afa15801562000796573d6000803e3d6000fd5b505050506040513d601f19601f82011682018060405250810190620007bc91906200151e565b6001600160a01b03166001600160a01b031681526020019081526020016000206000836001600160a01b03166001600160a01b031681526020019081526020016000208054806020026020016040519081016040528092919081815260200182805480156200087857602002820191906000526020600020906000905b82829054906101000a900460e01b6001600160e01b03191681526020019060040190602082600301049283019260010382029150808411620008395790505b5050505050905092915050565b60008054600154600280546001600160a01b03938416949290931692620008ac9062001554565b80601f0160208091040260200160405190810160405280929190818152602001828054620008da9062001554565b80156200092b5780601f10620008ff576101008083540402835291602001916200092b565b820191906000526020600020905b8154815290600101906020018083116200090d57829003601f168201915b5050505050905083565b6001600160a01b03808216600090815260066020526040812054909183911680156200097a57818160405163bf0b215b60e01b81526004016200039292919062001504565b620009978460006040518060200160405280600081525062000ca7565b949350505050565b336000818152600660205260408120549091906001600160a01b03168015620009e157818160405163bf0b215b60e01b81526004016200039292919062001504565b620009fe3360006040518060200160405280600081525062000ca7565b9250505090565b336000818152600660205260408120549091906001600160a01b0316801562000a4757818160405163bf0b215b60e01b81526004016200039292919062001504565b62000a8a338888888080601f01602080910402602001604051908101604052809392919081815260200183838082843760009201919091525062000ca792505050565b925062000a978462000e16565b5050949350505050565b336000908152600660205260409020546001600160a01b031662000adc57336040516333685ad760e01b815260040162000392919062001250565b3360008181526004602090815260408083206001600160a01b03888116808652918452828520888216808752908552838620805460ff1916891515908117909155878752600686529584902054845191825294810195909552909392169184917f4f2bd80fb4928b06abcd76e3b26209a615f0612f98dc4a8b176934b1a389933391016200069a565b336000908152600660205260409020546001600160a01b031662000ba057336040516333685ad760e01b815260040162000392919062001250565b62000bab8162000e16565b50565b6001600160a01b03808316600090815260036020908152604080832093851683529281529082902080548351818402810184019094528084526060939283018282801562000878576000918252602091829020805460e01b6001600160e01b03191684529082028301929091600491018084116200083957509498975050505050505050565b336000818152600660205260408120549091906001600160a01b0316801562000c7657818160405163bf0b215b60e01b81526004016200039292919062001504565b62000c933360006040518060200160405280600081525062000ca7565b925062000ca08462000e16565b5050919050565b6040516bffffffffffffffffffffffff19606085901b166020820152600090819060340160405160208183030381529060405262000ce59062001590565b604080516060810182526001600160a01b0380891680835290881660208301819052928201879052600080546001600160a01b03199081169092178155600180549092169093179055919250600262000d3f86826200161e565b509050508060405162000d52906200107c565b8190604051809103906000f590508015801562000d73573d6000803e3d6000fd5b50600080546001600160a01b031990811682556001805490911690559092508062000da06002826200108a565b50506001600160a01b038581166000818152600660205260409081902080546001600160a01b03191693861693909317909255905133907f2d8895d948115783fa362a57339c4c179365fafeafdd7dca66364ae296f50b759062000e0690869062001250565b60405180910390a3509392505050565b6000816001600160a01b0316636aeb45946040518163ffffffff1660e01b81526004016000604051808303816000875af115801562000e59573d6000803e3d6000fd5b505050506040513d6000823e601f3d908101601f1916820160405262000e839190810190620016fd565b8051909150600081900362000eaf57826040516362d3093d60e11b815260040162000392919062001250565b3360005b8281101562000fc557600084828151811062000ed35762000ed36200153e565b6020908102919091018101516001600160a01b0385811660009081526005845260408082206001600160e01b0319851683529094529290922054909250161562000f75576001600160a01b0383811660009081526005602090815260408083206001600160e01b031986168085529252918290205491516361a2116b60e11b815291831660048301529188166024820152604481019190915260640162000392565b6001600160a01b0383811660009081526005602090815260408083206001600160e01b03199590951683529390529190912080546001600160a01b03191691871691909117905560010162000eb3565b506001600160a01b0380821660009081526003602090815260408083209388168352928152919020845162000ffd92860190620010c9565b506001600160a01b0381811660008181526006602052604090819020549051838816939190911691907f71b3c95c0b8611d2f0f9c4e492ebbcf20d034943bccac6ef1a71ae90e0f243fa906200069a90889062001365565b50805460008255600701600890049060005260206000209081019062000bab91906200117c565b610bb480620017d183390190565b508054620010989062001554565b6000825580601f10620010a9575050565b601f01602090049060005260206000209081019062000bab91906200117c565b828054828255906000526020600020906007016008900481019282156200116a5791602002820160005b838211156200113657835183826101000a81548163ffffffff021916908360e01c02179055509260200192600401602081600301049283019260010302620010f3565b8015620011685782816101000a81549063ffffffff021916905560040160208160030104928301926001030262001136565b505b50620011789291506200117c565b5090565b5b808211156200117857600081556001016200117d565b6001600160a01b038116811462000bab57600080fd5b60008083601f840112620011bc57600080fd5b50813567ffffffffffffffff811115620011d557600080fd5b602083019150836020828501011115620011ee57600080fd5b9250929050565b6000806000604084860312156200120b57600080fd5b8335620012188162001193565b9250602084013567ffffffffffffffff8111156200123557600080fd5b6200124386828701620011a9565b9497909650939450505050565b6001600160a01b0391909116815260200190565b6001600160e01b03198116811462000bab57600080fd5b600080604083850312156200128f57600080fd5b82356200129c8162001193565b91506020830135620012ae8162001264565b809150509250929050565b600060208284031215620012cc57600080fd5b8135620012d98162001193565b9392505050565b600080600060608486031215620012f657600080fd5b8335620013038162001193565b92506020840135620013158162001193565b91506040840135620013278162001193565b809150509250925092565b600080604083850312156200134657600080fd5b8235620013538162001193565b91506020830135620012ae8162001193565b6020808252825182820181905260009190848201906040850190845b81811015620013a95783516001600160e01b0319168352928401929184019160010162001381565b50909695505050505050565b6000815180845260005b81811015620013dd57602081850181015186830182015201620013bf565b506000602082860101526020601f19601f83011685010191505092915050565b6001600160a01b038481168252831660208201526060604082018190526000906200142b90830184620013b5565b95945050505050565b600080600080606085870312156200144b57600080fd5b8435620014588162001193565b9350602085013567ffffffffffffffff8111156200147557600080fd5b6200148387828801620011a9565b9094509250506040850135620014998162001193565b939692955090935050565b600080600060608486031215620014ba57600080fd5b8335620014c78162001193565b92506020840135620014d98162001193565b9150604084013580151581146200132757600080fd5b602081526000620012d96020830184620013b5565b6001600160a01b0392831681529116602082015260400190565b6000602082840312156200153157600080fd5b8151620012d98162001193565b634e487b7160e01b600052603260045260246000fd5b600181811c908216806200156957607f821691505b6020821081036200158a57634e487b7160e01b600052602260045260246000fd5b50919050565b805160208083015191908110156200158a5760001960209190910360031b1b16919050565b634e487b7160e01b600052604160045260246000fd5b601f8211156200161957600081815260208120601f850160051c81016020861015620015f45750805b601f850160051c820191505b81811015620016155782815560010162001600565b5050505b505050565b815167ffffffffffffffff8111156200163b576200163b620015b5565b62001653816200164c845462001554565b84620015cb565b602080601f8311600181146200168b5760008415620016725750858301515b600019600386901b1c1916600185901b17855562001615565b600085815260208120601f198616915b82811015620016bc578886015182559484019460019091019084016200169b565b5085821015620016db5787850151600019600388901b60f8161c191681555b5050505050600190811b01905550565b8051620016f88162001264565b919050565b600060208083850312156200171157600080fd5b825167ffffffffffffffff808211156200172a57600080fd5b818501915085601f8301126200173f57600080fd5b815181811115620017545762001754620015b5565b8060051b604051601f19603f830116810181811085821117156200177c576200177c620015b5565b6040529182528482019250838101850191888311156200179b57600080fd5b938501935b82851015620017c457620017b485620016eb565b84529385019392850192620017a0565b9897505050505050505056fe60c06040523480156200001157600080fd5b503360a0819052604080516366b0182d60e01b81529051600092839283926366b0182d9160048082019286929091908290030181865afa1580156200005a573d6000803e3d6000fd5b505050506040513d6000823e601f3d908101601f1916820160405262000084919081019062000232565b6001600160a01b038084166080529295509093509150821615620000b057620000ae8282620000b9565b505b50505062000390565b6060826001600160a01b03163b600003620000f657604051636d17e5ef60e11b81526001600160a01b038416600482015260240160405180910390fd5b6000836001600160a01b03168360405162000112919062000312565b600060405180830381855af49150503d80600081146200014f576040519150601f19603f3d011682016040523d82523d6000602084013e62000154565b606091505b508093508192505050836001600160a01b03167fb24ebe141c5f2a744b103bea65fce6c40e0dc65d7341d092c09b160f4044799084846040516200019a9291906200035e565b60405180910390a280620001d257815115620001b95781518060208401fd5b60405163061a160d60e41b815260040160405180910390fd5b5092915050565b80516001600160a01b0381168114620001f157600080fd5b919050565b634e487b7160e01b600052604160045260246000fd5b60005b83811015620002295781810151838201526020016200020f565b50506000910152565b6000806000606084860312156200024857600080fd5b6200025384620001d9565b92506200026360208501620001d9565b60408501519092506001600160401b03808211156200028157600080fd5b818601915086601f8301126200029657600080fd5b815181811115620002ab57620002ab620001f6565b604051601f8201601f19908116603f01168101908382118183101715620002d657620002d6620001f6565b81604052828152896020848701011115620002f057600080fd5b620003038360208301602088016200020c565b80955050505050509250925092565b60008251620003268184602087016200020c565b9190910192915050565b600081518084526200034a8160208601602086016200020c565b601f01601f19169290920160200192915050565b60408152600062000373604083018562000330565b828103602084015262000387818562000330565b95945050505050565b60805160a0516107cf620003e5600039600081816099015281816102970152610346015260008181605601528181610131015281816102d8015281816102fe0152818161037301526103e901526107cf6000f3fe6080604052600436106100385760003560e01c80631cff79cd1461025c5780637b103999146102855780638da5cb5b146102c65761003f565b3661003f57005b6040516361be485960e01b81526001600160a01b037f000000000000000000000000000000000000000000000000000000000000000081166004830152600080356001600160e01b031916602484015291369160609184917f000000000000000000000000000000000000000000000000000000000000000016906361be485990604401602060405180830381865afa1580156100e0573d6000803e3d6000fd5b505050506040513d601f19601f820116820180604052508101906101049190610592565b90506001600160a01b03811661017557604051638848730f60e01b81523360048201526001600160a01b037f00000000000000000000000000000000000000000000000000000000000000001660248201526001600160e01b03196000351660448201526064015b60405180910390fd5b6000816001600160a01b031685856040516101919291906105b6565b600060405180830381855af49150503d80600081146101cc576040519150601f19603f3d011682016040523d82523d6000602084013e6101d1565b606091505b508094508192505050816001600160a01b03167fc4dabe0d7ef7462e2218f2c398c21ef217803e1c46f5cf802d1a5d1d9b503f2f86868660405161021793929190610616565b60405180910390a28061024f578251156102345782518084602001fd5b8160405163023c045d60e21b815260040161016c919061065e565b5050915050805190602001f35b61026f61026a366004610672565b6102fa565b60405161027c91906106f7565b60405180910390f35b34801561029157600080fd5b506102b97f000000000000000000000000000000000000000000000000000000000000000081565b60405161027c919061065e565b3480156102d257600080fd5b506102b97f000000000000000000000000000000000000000000000000000000000000000081565b60607f00000000000000000000000000000000000000000000000000000000000000006001600160a01b031633146104285760405163b31d1b9960e01b81526000906001600160a01b037f0000000000000000000000000000000000000000000000000000000000000000169063b31d1b999061039f907f00000000000000000000000000000000000000000000000000000000000000009033908a9060040161070a565b602060405180830381865afa1580156103bc573d6000803e3d6000fd5b505050506040513d601f19601f820116820180604052508101906103e0919061072d565b905080610426577f000000000000000000000000000000000000000000000000000000000000000033866040516355d1750960e01b815260040161016c9392919061070a565b505b6104688484848080601f01602080910402602001604051908101604052809392919081815260200183838082843760009201919091525061047092505050565b949350505050565b6060826001600160a01b03163b60000361049f5782604051636d17e5ef60e11b815260040161016c919061065e565b6000836001600160a01b0316836040516104b9919061074f565b600060405180830381855af49150503d80600081146104f4576040519150601f19603f3d011682016040523d82523d6000602084013e6104f9565b606091505b508093508192505050836001600160a01b03167fb24ebe141c5f2a744b103bea65fce6c40e0dc65d7341d092c09b160f40447990848460405161053d92919061076b565b60405180910390a2806105735781511561055a5781518060208401fd5b60405163061a160d60e41b815260040160405180910390fd5b5092915050565b6001600160a01b038116811461058f57600080fd5b50565b6000602082840312156105a457600080fd5b81516105af8161057a565b9392505050565b8183823760009101908152919050565b60005b838110156105e15781810151838201526020016105c9565b50506000910152565b600081518084526106028160208601602086016105c6565b601f01601f19169290920160200192915050565b60408152826040820152828460608301376000606084830101526000601f19601f8501168201606083820301602084015261065460608201856105ea565b9695505050505050565b6001600160a01b0391909116815260200190565b60008060006040848603121561068757600080fd5b83356106928161057a565b9250602084013567ffffffffffffffff808211156106af57600080fd5b818601915086601f8301126106c357600080fd5b8135818111156106d257600080fd5b8760208285010111156106e457600080fd5b6020830194508093505050509250925092565b6020815260006105af60208301846105ea565b6001600160a01b0393841681529183166020830152909116604082015260600190565b60006020828403121561073f57600080fd5b815180151581146105af57600080fd5b600082516107618184602087016105c6565b9190910192915050565b60408152600061077e60408301856105ea565b828103602084015261079081856105ea565b9594505050505056fea264697066735822122055638770bd61e4af43c475dbeabe9de50a2023ceb9b7a0c6e5fa98eda67a2f6f64736f6c63430008130033a26469706673582212208996688ffece2a5a2c4839142c2962997b3cf424ab896a84285661f09574737664736f6c63430008130033",
    "linkReferences": {}
  },
  "methodIdentifiers": {
    "VERSION()": "ffa1ad74",
    "constructorParams()": "66b0182d",
    "deploy()": "775c300c",
    "deployAndExecute(address,bytes)": "092af813",
    "deployAndExecuteAndInstallPlugin(address,bytes,address)": "9d1bd159",
    "deployAndInstallPlugin(address)": "fb4a4d08",
    "deployFor(address)": "74912cd2",
    "getMethodsByOwner(address,address)": "fa557e93",
    "getMethodsByProxy(address,address)": "6383afb2",
    "getPermissionByOwner(address,address,address)": "b31d1b99",
    "getPermissionByProxy(address,address,address)": "5cabcdf7",
    "getPluginByOwner(address,bytes4)": "61be4859",
    "getPluginByProxy(address,bytes4)": "1ddef5b9",
    "getProxy(address)": "b7fba4d3",
    "installPlugin(address)": "b9678403",
    "setPermission(address,address,bool)": "aa4b826a",
    "uninstallPlugin(address)": "4bddd93a"
  },
  "id": 82
}