{
  "abi": [
    {
      "inputs": [
        {
          "internalType": "address",
          "name": "factory",
          "type": "address"
        }
      ],
      "stateMutability": "nonpayable",
      "type": "constructor"
    },
    {
      "inputs": [],
      "name": "CDPVault_TypeB__calculateAssetsAndLiabilities_insufficientAssets",
      "type": "error"
    },
    {
      "inputs": [],
      "name": "CDPVault_TypeB__claimUndelegatedCredit_epochNotClaimable",
      "type": "error"
    },
    {
      "inputs": [],
      "name": "CDPVault_TypeB__claimUndelegatedCredit_epochNotFixed",
      "type": "error"
    },
    {
      "inputs": [],
      "name": "CDPVault_TypeB__delegateCredit_creditAmountTooSmall",
      "type": "error"
    },
    {
      "inputs": [],
      "name": "CDPVault_TypeB__setUp_Deactivated",
      "type": "error"
    },
    {
      "inputs": [],
      "name": "CDPVault__addLimitPriceTick_invalidPriceTickOrder",
      "type": "error"
    },
    {
      "inputs": [],
      "name": "CDPVault__addLimitPriceTick_limitPriceTickOutOfRange",
      "type": "error"
    },
    {
      "inputs": [],
      "name": "CDPVault__cancelLimitOrder_limitOrderDoesNotExist",
      "type": "error"
    },
    {
      "inputs": [],
      "name": "CDPVault__checkEmergencyMode_entered",
      "type": "error"
    },
    {
      "inputs": [],
      "name": "CDPVault__createLimitOrder_limitOrderAlreadyExists",
      "type": "error"
    },
    {
      "inputs": [],
      "name": "CDPVault__createLimitOrder_limitOrderFloor",
      "type": "error"
    },
    {
      "inputs": [],
      "name": "CDPVault__createLimitOrder_limitPriceTickNotActive",
      "type": "error"
    },
    {
      "inputs": [],
      "name": "CDPVault__exchange_notEnoughExchanged",
      "type": "error"
    },
    {
      "inputs": [],
      "name": "CDPVault__liquidatePosition_notUnsafe",
      "type": "error"
    },
    {
      "inputs": [],
      "name": "CDPVault__liquidatePositions_argLengthMismatch",
      "type": "error"
    },
    {
      "inputs": [],
      "name": "CDPVault__modifyCollateralAndDebt_maxUtilizationRatio",
      "type": "error"
    },
    {
      "inputs": [],
      "name": "CDPVault__modifyCollateralAndDebt_noPermission",
      "type": "error"
    },
    {
      "inputs": [],
      "name": "CDPVault__modifyCollateralAndDebt_notSafe",
      "type": "error"
    },
    {
      "inputs": [],
      "name": "CDPVault__modifyPosition_debtFloor",
      "type": "error"
    },
    {
      "inputs": [],
      "name": "CDPVault__setParameter_unrecognizedParameter",
      "type": "error"
    },
    {
      "inputs": [],
      "name": "IdIsZero",
      "type": "error"
    },
    {
      "inputs": [],
      "name": "InterestRateModel__setBaseRate_invalidBaseRate",
      "type": "error"
    },
    {
      "inputs": [],
      "name": "ItemInList",
      "type": "error"
    },
    {
      "inputs": [],
      "name": "ItemNotInList",
      "type": "error"
    },
    {
      "inputs": [],
      "name": "Math__add_overflow_signed",
      "type": "error"
    },
    {
      "inputs": [],
      "name": "Math__mul_overflow_signed",
      "type": "error"
    },
    {
      "inputs": [],
      "name": "Math__sub_overflow_signed",
      "type": "error"
    },
    {
      "inputs": [],
      "name": "Math__toInt256_overflow",
      "type": "error"
    },
    {
      "inputs": [],
      "name": "Math__toUint64_overflow",
      "type": "error"
    },
    {
      "inputs": [],
      "name": "Permission__modifyPermission_notPermitted",
      "type": "error"
    },
    {
      "anonymous": false,
      "inputs": [
        {
          "indexed": true,
          "internalType": "uint256",
          "name": "limitPriceTick",
          "type": "uint256"
        }
      ],
      "name": "AddLimitPriceTick",
      "type": "event"
    },
    {
      "anonymous": false,
      "inputs": [
        {
          "indexed": true,
          "internalType": "uint256",
          "name": "limitPriceTick",
          "type": "uint256"
        },
        {
          "indexed": true,
          "internalType": "address",
          "name": "maker",
          "type": "address"
        }
      ],
      "name": "CancelLimitOrder",
      "type": "event"
    },
    {
      "anonymous": false,
      "inputs": [
        {
          "indexed": true,
          "internalType": "address",
          "name": "delegator",
          "type": "address"
        },
        {
          "indexed": false,
          "internalType": "uint256",
          "name": "sharesRedeemed",
          "type": "uint256"
        },
        {
          "indexed": false,
          "internalType": "uint256",
          "name": "creditClaimed",
          "type": "uint256"
        }
      ],
      "name": "ClaimUndelegatedCredit",
      "type": "event"
    },
    {
      "anonymous": false,
      "inputs": [
        {
          "indexed": true,
          "internalType": "uint256",
          "name": "limitPriceTick",
          "type": "uint256"
        },
        {
          "indexed": true,
          "internalType": "address",
          "name": "maker",
          "type": "address"
        }
      ],
      "name": "CreateLimitOrder",
      "type": "event"
    },
    {
      "anonymous": false,
      "inputs": [
        {
          "indexed": true,
          "internalType": "address",
          "name": "delegator",
          "type": "address"
        },
        {
          "indexed": false,
          "internalType": "uint256",
          "name": "creditDelegated",
          "type": "uint256"
        },
        {
          "indexed": false,
          "internalType": "uint256",
          "name": "sharesIssued",
          "type": "uint256"
        }
      ],
      "name": "DelegateCredit",
      "type": "event"
    },
    {
      "anonymous": false,
      "inputs": [
        {
          "indexed": true,
          "internalType": "address",
          "name": "redeemer",
          "type": "address"
        },
        {
          "indexed": false,
          "internalType": "uint256",
          "name": "creditExchanged",
          "type": "uint256"
        },
        {
          "indexed": false,
          "internalType": "uint256",
          "name": "collateralRedeemed",
          "type": "uint256"
        }
      ],
      "name": "Exchange",
      "type": "event"
    },
    {
      "anonymous": false,
      "inputs": [
        {
          "indexed": true,
          "internalType": "uint256",
          "name": "limitPriceTick",
          "type": "uint256"
        },
        {
          "indexed": true,
          "internalType": "uint256",
          "name": "limitOrderId",
          "type": "uint256"
        },
        {
          "indexed": false,
          "internalType": "uint256",
          "name": "collateralRedeemed",
          "type": "uint256"
        },
        {
          "indexed": false,
          "internalType": "uint256",
          "name": "creditExchanged",
          "type": "uint256"
        }
      ],
      "name": "ExecuteLimitOrder",
      "type": "event"
    },
    {
      "anonymous": false,
      "inputs": [
        {
          "indexed": true,
          "internalType": "address",
          "name": "position",
          "type": "address"
        },
        {
          "indexed": false,
          "internalType": "uint256",
          "name": "collateralReleased",
          "type": "uint256"
        },
        {
          "indexed": false,
          "internalType": "uint256",
          "name": "normalDebtRepaid",
          "type": "uint256"
        },
        {
          "indexed": true,
          "internalType": "address",
          "name": "liquidator",
          "type": "address"
        }
      ],
      "name": "LiquidatePosition",
      "type": "event"
    },
    {
      "anonymous": false,
      "inputs": [
        {
          "indexed": true,
          "internalType": "address",
          "name": "position",
          "type": "address"
        },
        {
          "indexed": true,
          "internalType": "address",
          "name": "collateralizer",
          "type": "address"
        },
        {
          "indexed": true,
          "internalType": "address",
          "name": "creditor",
          "type": "address"
        },
        {
          "indexed": false,
          "internalType": "int256",
          "name": "deltaCollateral",
          "type": "int256"
        },
        {
          "indexed": false,
          "internalType": "int256",
          "name": "deltaNormalDebt",
          "type": "int256"
        }
      ],
      "name": "ModifyCollateralAndDebt",
      "type": "event"
    },
    {
      "anonymous": false,
      "inputs": [
        {
          "indexed": false,
          "internalType": "address",
          "name": "authorizer",
          "type": "address"
        },
        {
          "indexed": false,
          "internalType": "address",
          "name": "owner",
          "type": "address"
        },
        {
          "indexed": false,
          "internalType": "address",
          "name": "caller",
          "type": "address"
        },
        {
          "indexed": false,
          "internalType": "bool",
          "name": "grant",
          "type": "bool"
        }
      ],
      "name": "ModifyPermission",
      "type": "event"
    },
    {
      "anonymous": false,
      "inputs": [
        {
          "indexed": true,
          "internalType": "address",
          "name": "position",
          "type": "address"
        },
        {
          "indexed": false,
          "internalType": "int256",
          "name": "deltaCollateral",
          "type": "int256"
        },
        {
          "indexed": false,
          "internalType": "int256",
          "name": "deltaNormalDebt",
          "type": "int256"
        },
        {
          "indexed": false,
          "internalType": "uint256",
          "name": "totalNormalDebt",
          "type": "uint256"
        }
      ],
      "name": "ModifyPosition",
      "type": "event"
    },
    {
      "anonymous": false,
      "inputs": [
        {
          "indexed": false,
          "internalType": "address",
          "name": "account",
          "type": "address"
        }
      ],
      "name": "Paused",
      "type": "event"
    },
    {
      "anonymous": false,
      "inputs": [
        {
          "indexed": true,
          "internalType": "uint256",
          "name": "limitPriceTick",
          "type": "uint256"
        }
      ],
      "name": "RemoveLimitPriceTick",
      "type": "event"
    },
    {
      "anonymous": false,
      "inputs": [
        {
          "indexed": true,
          "internalType": "bytes32",
          "name": "role",
          "type": "bytes32"
        },
        {
          "indexed": true,
          "internalType": "bytes32",
          "name": "previousAdminRole",
          "type": "bytes32"
        },
        {
          "indexed": true,
          "internalType": "bytes32",
          "name": "newAdminRole",
          "type": "bytes32"
        }
      ],
      "name": "RoleAdminChanged",
      "type": "event"
    },
    {
      "anonymous": false,
      "inputs": [
        {
          "indexed": true,
          "internalType": "bytes32",
          "name": "role",
          "type": "bytes32"
        },
        {
          "indexed": true,
          "internalType": "address",
          "name": "account",
          "type": "address"
        },
        {
          "indexed": true,
          "internalType": "address",
          "name": "sender",
          "type": "address"
        }
      ],
      "name": "RoleGranted",
      "type": "event"
    },
    {
      "anonymous": false,
      "inputs": [
        {
          "indexed": true,
          "internalType": "bytes32",
          "name": "role",
          "type": "bytes32"
        },
        {
          "indexed": true,
          "internalType": "address",
          "name": "account",
          "type": "address"
        },
        {
          "indexed": true,
          "internalType": "address",
          "name": "sender",
          "type": "address"
        }
      ],
      "name": "RoleRevoked",
      "type": "event"
    },
    {
      "anonymous": false,
      "inputs": [
        {
          "indexed": false,
          "internalType": "int64",
          "name": "baseRate",
          "type": "int64"
        }
      ],
      "name": "SetBaseRate",
      "type": "event"
    },
    {
      "anonymous": false,
      "inputs": [],
      "name": "SetGlobalIRS",
      "type": "event"
    },
    {
      "anonymous": false,
      "inputs": [
        {
          "indexed": true,
          "internalType": "bytes32",
          "name": "parameter",
          "type": "bytes32"
        },
        {
          "indexed": false,
          "internalType": "uint256",
          "name": "data",
          "type": "uint256"
        }
      ],
      "name": "SetParameter",
      "type": "event"
    },
    {
      "anonymous": false,
      "inputs": [
        {
          "indexed": false,
          "internalType": "address",
          "name": "owner",
          "type": "address"
        },
        {
          "indexed": false,
          "internalType": "address",
          "name": "agent",
          "type": "address"
        },
        {
          "indexed": false,
          "internalType": "bool",
          "name": "grant",
          "type": "bool"
        }
      ],
      "name": "SetPermittedAgent",
      "type": "event"
    },
    {
      "anonymous": false,
      "inputs": [
        {
          "indexed": true,
          "internalType": "address",
          "name": "position",
          "type": "address"
        },
        {
          "indexed": false,
          "internalType": "uint256",
          "name": "snapshotRateAccumulator",
          "type": "uint256"
        },
        {
          "indexed": false,
          "internalType": "uint256",
          "name": "accruedRebate",
          "type": "uint256"
        },
        {
          "indexed": false,
          "internalType": "uint256",
          "name": "rebateFactor",
          "type": "uint256"
        }
      ],
      "name": "SetPositionIRS",
      "type": "event"
    },
    {
      "anonymous": false,
      "inputs": [
        {
          "indexed": true,
          "internalType": "address",
          "name": "delegator",
          "type": "address"
        },
        {
          "indexed": false,
          "internalType": "uint256",
          "name": "shareAmount",
          "type": "uint256"
        },
        {
          "indexed": false,
          "internalType": "uint256",
          "name": "estimatedClaim",
          "type": "uint256"
        },
        {
          "indexed": true,
          "internalType": "uint256",
          "name": "epoch",
          "type": "uint256"
        },
        {
          "indexed": false,
          "internalType": "uint256",
          "name": "claimableAtEpoch",
          "type": "uint256"
        }
      ],
      "name": "UndelegateCredit",
      "type": "event"
    },
    {
      "anonymous": false,
      "inputs": [
        {
          "indexed": false,
          "internalType": "address",
          "name": "account",
          "type": "address"
        }
      ],
      "name": "Unpaused",
      "type": "event"
    },
    {
      "inputs": [],
      "name": "DEFAULT_ADMIN_ROLE",
      "outputs": [
        {
          "internalType": "bytes32",
          "name": "",
          "type": "bytes32"
        }
      ],
      "stateMutability": "view",
      "type": "function"
    },
    {
      "inputs": [],
      "name": "EPOCH_DURATION",
      "outputs": [
        {
          "internalType": "uint256",
          "name": "",
          "type": "uint256"
        }
      ],
      "stateMutability": "view",
      "type": "function"
    },
    {
      "inputs": [],
      "name": "EPOCH_FIX_DELAY",
      "outputs": [
        {
          "internalType": "uint256",
          "name": "",
          "type": "uint256"
        }
      ],
      "stateMutability": "view",
      "type": "function"
    },
    {
      "inputs": [],
      "name": "EPOCH_FIX_TIMEOUT",
      "outputs": [
        {
          "internalType": "uint256",
          "name": "",
          "type": "uint256"
        }
      ],
      "stateMutability": "view",
      "type": "function"
    },
    {
      "inputs": [
        {
          "internalType": "uint256",
          "name": "priceTick",
          "type": "uint256"
        }
      ],
      "name": "activeLimitPriceTicks",
      "outputs": [
        {
          "internalType": "bool",
          "name": "isActive",
          "type": "bool"
        }
      ],
      "stateMutability": "view",
      "type": "function"
    },
    {
      "inputs": [
        {
          "internalType": "uint256",
          "name": "limitPriceTick",
          "type": "uint256"
        },
        {
          "internalType": "uint256",
          "name": "nextLimitPriceTick",
          "type": "uint256"
        }
      ],
      "name": "addLimitPriceTick",
      "outputs": [],
      "stateMutability": "nonpayable",
      "type": "function"
    },
    {
      "inputs": [],
      "name": "buffer",
      "outputs": [
        {
          "internalType": "contract IBuffer",
          "name": "",
          "type": "address"
        }
      ],
      "stateMutability": "view",
      "type": "function"
    },
    {
      "inputs": [
        {
          "internalType": "uint256",
          "name": "priceTick",
          "type": "uint256"
        }
      ],
      "name": "calculateRebateFactorForPriceTick",
      "outputs": [
        {
          "internalType": "uint64",
          "name": "",
          "type": "uint64"
        }
      ],
      "stateMutability": "view",
      "type": "function"
    },
    {
      "inputs": [],
      "name": "cancelLimitOrder",
      "outputs": [],
      "stateMutability": "nonpayable",
      "type": "function"
    },
    {
      "inputs": [
        {
          "internalType": "address",
          "name": "owner",
          "type": "address"
        }
      ],
      "name": "cash",
      "outputs": [
        {
          "internalType": "uint256",
          "name": "balance",
          "type": "uint256"
        }
      ],
      "stateMutability": "view",
      "type": "function"
    },
    {
      "inputs": [],
      "name": "cdm",
      "outputs": [
        {
          "internalType": "contract ICDM",
          "name": "",
          "type": "address"
        }
      ],
      "stateMutability": "view",
      "type": "function"
    },
    {
      "inputs": [],
      "name": "claimFees",
      "outputs": [
        {
          "internalType": "uint256",
          "name": "feesClaimed",
          "type": "uint256"
        }
      ],
      "stateMutability": "nonpayable",
      "type": "function"
    },
    {
      "inputs": [
        {
          "internalType": "uint256",
          "name": "claimForEpoch",
          "type": "uint256"
        }
      ],
      "name": "claimUndelegatedCredit",
      "outputs": [
        {
          "internalType": "uint256",
          "name": "creditAmount",
          "type": "uint256"
        }
      ],
      "stateMutability": "nonpayable",
      "type": "function"
    },
    {
      "inputs": [
        {
          "internalType": "uint256",
          "name": "limitPriceTick",
          "type": "uint256"
        }
      ],
      "name": "createLimitOrder",
      "outputs": [],
      "stateMutability": "nonpayable",
      "type": "function"
    },
    {
      "inputs": [],
      "name": "creditWithholder",
      "outputs": [
        {
          "internalType": "address",
          "name": "",
          "type": "address"
        }
      ],
      "stateMutability": "view",
      "type": "function"
    },
    {
      "inputs": [
        {
          "internalType": "uint256",
          "name": "creditAmount",
          "type": "uint256"
        }
      ],
      "name": "delegateCredit",
      "outputs": [
        {
          "internalType": "uint256",
          "name": "sharesAmount",
          "type": "uint256"
        }
      ],
      "stateMutability": "nonpayable",
      "type": "function"
    },
    {
      "inputs": [
        {
          "internalType": "address",
          "name": "to",
          "type": "address"
        },
        {
          "internalType": "uint256",
          "name": "amount",
          "type": "uint256"
        }
      ],
      "name": "deposit",
      "outputs": [
        {
          "internalType": "uint256",
          "name": "cashAmount",
          "type": "uint256"
        }
      ],
      "stateMutability": "nonpayable",
      "type": "function"
    },
    {
      "inputs": [],
      "name": "enterEmergencyMode",
      "outputs": [],
      "stateMutability": "nonpayable",
      "type": "function"
    },
    {
      "inputs": [
        {
          "internalType": "uint256",
          "name": "epoch",
          "type": "uint256"
        }
      ],
      "name": "epochs",
      "outputs": [
        {
          "internalType": "uint256",
          "name": "totalCreditClaimable",
          "type": "uint256"
        },
        {
          "internalType": "uint256",
          "name": "totalCreditWithheld",
          "type": "uint256"
        },
        {
          "internalType": "uint256",
          "name": "totalSharesQueued",
          "type": "uint256"
        },
        {
          "internalType": "uint128",
          "name": "claimRatio",
          "type": "uint128"
        },
        {
          "internalType": "uint128",
          "name": "estimatedCreditClaimPerShare",
          "type": "uint128"
        }
      ],
      "stateMutability": "view",
      "type": "function"
    },
    {
      "inputs": [
        {
          "internalType": "uint256",
          "name": "upperLimitPriceTick",
          "type": "uint256"
        },
        {
          "internalType": "uint256",
          "name": "creditToExchange",
          "type": "uint256"
        }
      ],
      "name": "exchange",
      "outputs": [
        {
          "internalType": "uint256",
          "name": "creditExchanged",
          "type": "uint256"
        },
        {
          "internalType": "uint256",
          "name": "collateralExchanged",
          "type": "uint256"
        }
      ],
      "stateMutability": "nonpayable",
      "type": "function"
    },
    {
      "inputs": [
        {
          "internalType": "uint256",
          "name": "upperLimitPriceTick",
          "type": "uint256"
        },
        {
          "internalType": "uint256",
          "name": "creditToExchange",
          "type": "uint256"
        }
      ],
      "name": "exchangePreview",
      "outputs": [
        {
          "internalType": "uint256",
          "name": "creditExchanged",
          "type": "uint256"
        },
        {
          "internalType": "uint256",
          "name": "collateralExchanged",
          "type": "uint256"
        }
      ],
      "stateMutability": "nonpayable",
      "type": "function"
    },
    {
      "inputs": [],
      "name": "getCurrentEpoch",
      "outputs": [
        {
          "internalType": "uint256",
          "name": "currentEpoch",
          "type": "uint256"
        }
      ],
      "stateMutability": "view",
      "type": "function"
    },
    {
      "inputs": [],
      "name": "getGlobalIRS",
      "outputs": [
        {
          "components": [
            {
              "internalType": "int64",
              "name": "baseRate",
              "type": "int64"
            },
            {
              "internalType": "uint64",
              "name": "lastUpdated",
              "type": "uint64"
            },
            {
              "internalType": "uint64",
              "name": "rateAccumulator",
              "type": "uint64"
            },
            {
              "internalType": "uint256",
              "name": "averageRebate",
              "type": "uint256"
            },
            {
              "internalType": "uint256",
              "name": "globalAccruedRebate",
              "type": "uint256"
            }
          ],
          "internalType": "struct InterestRateModel.GlobalIRS",
          "name": "",
          "type": "tuple"
        }
      ],
      "stateMutability": "view",
      "type": "function"
    },
    {
      "inputs": [
        {
          "internalType": "uint256",
          "name": "priceTick",
          "type": "uint256"
        },
        {
          "internalType": "uint256",
          "name": "index",
          "type": "uint256"
        }
      ],
      "name": "getLimitOrder",
      "outputs": [
        {
          "internalType": "uint256",
          "name": "limitOrderId",
          "type": "uint256"
        }
      ],
      "stateMutability": "view",
      "type": "function"
    },
    {
      "inputs": [
        {
          "internalType": "address",
          "name": "position",
          "type": "address"
        }
      ],
      "name": "getPositionIRS",
      "outputs": [
        {
          "components": [
            {
              "internalType": "uint64",
              "name": "snapshotRateAccumulator",
              "type": "uint64"
            },
            {
              "internalType": "uint64",
              "name": "rebateFactor",
              "type": "uint64"
            },
            {
              "internalType": "uint128",
              "name": "accruedRebate",
              "type": "uint128"
            }
          ],
          "internalType": "struct InterestRateModel.PositionIRS",
          "name": "",
          "type": "tuple"
        }
      ],
      "stateMutability": "view",
      "type": "function"
    },
    {
      "inputs": [
        {
          "internalType": "uint256",
          "name": "index",
          "type": "uint256"
        }
      ],
      "name": "getPriceTick",
      "outputs": [
        {
          "internalType": "uint256",
          "name": "priceTick",
          "type": "uint256"
        },
        {
          "internalType": "bool",
          "name": "isActive",
          "type": "bool"
        }
      ],
      "stateMutability": "view",
      "type": "function"
    },
    {
      "inputs": [
        {
          "internalType": "bytes32",
          "name": "role",
          "type": "bytes32"
        }
      ],
      "name": "getRoleAdmin",
      "outputs": [
        {
          "internalType": "bytes32",
          "name": "",
          "type": "bytes32"
        }
      ],
      "stateMutability": "view",
      "type": "function"
    },
    {
      "inputs": [
        {
          "internalType": "bytes32",
          "name": "role",
          "type": "bytes32"
        },
        {
          "internalType": "address",
          "name": "account",
          "type": "address"
        }
      ],
      "name": "grantRole",
      "outputs": [],
      "stateMutability": "nonpayable",
      "type": "function"
    },
    {
      "inputs": [
        {
          "internalType": "address",
          "name": "owner",
          "type": "address"
        },
        {
          "internalType": "address",
          "name": "caller",
          "type": "address"
        }
      ],
      "name": "hasPermission",
      "outputs": [
        {
          "internalType": "bool",
          "name": "",
          "type": "bool"
        }
      ],
      "stateMutability": "view",
      "type": "function"
    },
    {
      "inputs": [
        {
          "internalType": "bytes32",
          "name": "role",
          "type": "bytes32"
        },
        {
          "internalType": "address",
          "name": "account",
          "type": "address"
        }
      ],
      "name": "hasRole",
      "outputs": [
        {
          "internalType": "bool",
          "name": "",
          "type": "bool"
        }
      ],
      "stateMutability": "view",
      "type": "function"
    },
    {
      "inputs": [],
      "name": "limitOrderFloor",
      "outputs": [
        {
          "internalType": "uint256",
          "name": "",
          "type": "uint256"
        }
      ],
      "stateMutability": "view",
      "type": "function"
    },
    {
      "inputs": [
        {
          "internalType": "uint256",
          "name": "limitOrderId",
          "type": "uint256"
        }
      ],
      "name": "limitOrders",
      "outputs": [
        {
          "internalType": "uint256",
          "name": "priceTick",
          "type": "uint256"
        }
      ],
      "stateMutability": "view",
      "type": "function"
    },
    {
      "inputs": [
        {
          "internalType": "address[]",
          "name": "owners",
          "type": "address[]"
        },
        {
          "internalType": "uint256[]",
          "name": "repayAmounts",
          "type": "uint256[]"
        }
      ],
      "name": "liquidatePositions",
      "outputs": [],
      "stateMutability": "nonpayable",
      "type": "function"
    },
    {
      "inputs": [],
      "name": "liquidationConfig",
      "outputs": [
        {
          "internalType": "uint64",
          "name": "liquidationPenalty",
          "type": "uint64"
        },
        {
          "internalType": "uint64",
          "name": "liquidationDiscount",
          "type": "uint64"
        },
        {
          "internalType": "uint64",
          "name": "targetHealthFactor",
          "type": "uint64"
        }
      ],
      "stateMutability": "view",
      "type": "function"
    },
    {
      "inputs": [
        {
          "internalType": "address",
          "name": "owner",
          "type": "address"
        },
        {
          "internalType": "address",
          "name": "collateralizer",
          "type": "address"
        },
        {
          "internalType": "address",
          "name": "creditor",
          "type": "address"
        },
        {
          "internalType": "int256",
          "name": "deltaCollateral",
          "type": "int256"
        },
        {
          "internalType": "int256",
          "name": "deltaNormalDebt",
          "type": "int256"
        }
      ],
      "name": "modifyCollateralAndDebt",
      "outputs": [],
      "stateMutability": "nonpayable",
      "type": "function"
    },
    {
      "inputs": [
        {
          "internalType": "address",
          "name": "owner",
          "type": "address"
        },
        {
          "internalType": "address",
          "name": "caller",
          "type": "address"
        },
        {
          "internalType": "bool",
          "name": "permitted",
          "type": "bool"
        }
      ],
      "name": "modifyPermission",
      "outputs": [],
      "stateMutability": "nonpayable",
      "type": "function"
    },
    {
      "inputs": [
        {
          "internalType": "address",
          "name": "caller",
          "type": "address"
        },
        {
          "internalType": "bool",
          "name": "permitted",
          "type": "bool"
        }
      ],
      "name": "modifyPermission",
      "outputs": [],
      "stateMutability": "nonpayable",
      "type": "function"
    },
    {
      "inputs": [],
      "name": "oracle",
      "outputs": [
        {
          "internalType": "contract IOracle",
          "name": "",
          "type": "address"
        }
      ],
      "stateMutability": "view",
      "type": "function"
    },
    {
      "inputs": [],
      "name": "pause",
      "outputs": [],
      "stateMutability": "nonpayable",
      "type": "function"
    },
    {
      "inputs": [],
      "name": "paused",
      "outputs": [
        {
          "internalType": "bool",
          "name": "",
          "type": "bool"
        }
      ],
      "stateMutability": "view",
      "type": "function"
    },
    {
      "inputs": [],
      "name": "pausedAt",
      "outputs": [
        {
          "internalType": "uint256",
          "name": "",
          "type": "uint256"
        }
      ],
      "stateMutability": "view",
      "type": "function"
    },
    {
      "inputs": [
        {
          "internalType": "address",
          "name": "owner",
          "type": "address"
        }
      ],
      "name": "positions",
      "outputs": [
        {
          "internalType": "uint256",
          "name": "collateral",
          "type": "uint256"
        },
        {
          "internalType": "uint256",
          "name": "normalDebt",
          "type": "uint256"
        }
      ],
      "stateMutability": "view",
      "type": "function"
    },
    {
      "inputs": [],
      "name": "protocolFee",
      "outputs": [
        {
          "internalType": "uint256",
          "name": "",
          "type": "uint256"
        }
      ],
      "stateMutability": "view",
      "type": "function"
    },
    {
      "inputs": [
        {
          "internalType": "uint256",
          "name": "limitPriceTick",
          "type": "uint256"
        }
      ],
      "name": "removeLimitPriceTick",
      "outputs": [],
      "stateMutability": "nonpayable",
      "type": "function"
    },
    {
      "inputs": [
        {
          "internalType": "bytes32",
          "name": "role",
          "type": "bytes32"
        },
        {
          "internalType": "address",
          "name": "account",
          "type": "address"
        }
      ],
      "name": "renounceRole",
      "outputs": [],
      "stateMutability": "nonpayable",
      "type": "function"
    },
    {
      "inputs": [
        {
          "internalType": "bytes32",
          "name": "role",
          "type": "bytes32"
        },
        {
          "internalType": "address",
          "name": "account",
          "type": "address"
        }
      ],
      "name": "revokeRole",
      "outputs": [],
      "stateMutability": "nonpayable",
      "type": "function"
    },
    {
      "inputs": [
        {
          "internalType": "bytes32",
          "name": "parameter",
          "type": "bytes32"
        },
        {
          "internalType": "uint256",
          "name": "data",
          "type": "uint256"
        }
      ],
      "name": "setParameter",
      "outputs": [],
      "stateMutability": "nonpayable",
      "type": "function"
    },
    {
      "inputs": [
        {
          "internalType": "address",
          "name": "agent",
          "type": "address"
        },
        {
          "internalType": "bool",
          "name": "permitted",
          "type": "bool"
        }
      ],
      "name": "setPermissionAgent",
      "outputs": [],
      "stateMutability": "nonpayable",
      "type": "function"
    },
    {
      "inputs": [
        {
          "internalType": "address",
          "name": "unwinderFactory",
          "type": "address"
        }
      ],
      "name": "setUnwinderFactory",
      "outputs": [],
      "stateMutability": "nonpayable",
      "type": "function"
    },
    {
      "inputs": [],
      "name": "setUp",
      "outputs": [],
      "stateMutability": "nonpayable",
      "type": "function"
    },
    {
      "inputs": [
        {
          "internalType": "address",
          "name": "owner",
          "type": "address"
        }
      ],
      "name": "shares",
      "outputs": [
        {
          "internalType": "uint256",
          "name": "balance",
          "type": "uint256"
        }
      ],
      "stateMutability": "view",
      "type": "function"
    },
    {
      "inputs": [
        {
          "internalType": "uint256",
          "name": "epoch",
          "type": "uint256"
        },
        {
          "internalType": "address",
          "name": "delegator",
          "type": "address"
        }
      ],
      "name": "sharesQueuedByEpoch",
      "outputs": [
        {
          "internalType": "uint256",
          "name": "sharesQueued",
          "type": "uint256"
        }
      ],
      "stateMutability": "view",
      "type": "function"
    },
    {
      "inputs": [],
      "name": "spotPrice",
      "outputs": [
        {
          "internalType": "uint256",
          "name": "",
          "type": "uint256"
        }
      ],
      "stateMutability": "nonpayable",
      "type": "function"
    },
    {
      "inputs": [
        {
          "internalType": "bytes4",
          "name": "interfaceId",
          "type": "bytes4"
        }
      ],
      "name": "supportsInterface",
      "outputs": [
        {
          "internalType": "bool",
          "name": "",
          "type": "bool"
        }
      ],
      "stateMutability": "view",
      "type": "function"
    },
    {
      "inputs": [],
      "name": "token",
      "outputs": [
        {
          "internalType": "contract IERC20",
          "name": "",
          "type": "address"
        }
      ],
      "stateMutability": "view",
      "type": "function"
    },
    {
      "inputs": [],
      "name": "tokenScale",
      "outputs": [
        {
          "internalType": "uint256",
          "name": "",
          "type": "uint256"
        }
      ],
      "stateMutability": "view",
      "type": "function"
    },
    {
      "inputs": [],
      "name": "totalAccruedFees",
      "outputs": [
        {
          "internalType": "uint256",
          "name": "",
          "type": "uint256"
        }
      ],
      "stateMutability": "view",
      "type": "function"
    },
    {
      "inputs": [],
      "name": "totalCreditClaimable",
      "outputs": [
        {
          "internalType": "uint256",
          "name": "",
          "type": "uint256"
        }
      ],
      "stateMutability": "view",
      "type": "function"
    },
    {
      "inputs": [],
      "name": "totalNormalDebt",
      "outputs": [
        {
          "internalType": "uint256",
          "name": "",
          "type": "uint256"
        }
      ],
      "stateMutability": "view",
      "type": "function"
    },
    {
      "inputs": [],
      "name": "totalShares",
      "outputs": [
        {
          "internalType": "uint256",
          "name": "",
          "type": "uint256"
        }
      ],
      "stateMutability": "view",
      "type": "function"
    },
    {
      "inputs": [
        {
          "internalType": "uint256",
          "name": "shareAmount",
          "type": "uint256"
        },
        {
          "internalType": "uint256[]",
          "name": "prevQueuedEpochs",
          "type": "uint256[]"
        }
      ],
      "name": "undelegateCredit",
      "outputs": [
        {
          "internalType": "uint256",
          "name": "estimatedClaim",
          "type": "uint256"
        },
        {
          "internalType": "uint256",
          "name": "currentEpoch",
          "type": "uint256"
        },
        {
          "internalType": "uint256",
          "name": "claimableAtEpoch",
          "type": "uint256"
        },
        {
          "internalType": "uint256",
          "name": "fixableUntilEpoch",
          "type": "uint256"
        }
      ],
      "stateMutability": "nonpayable",
      "type": "function"
    },
    {
      "inputs": [],
      "name": "unpause",
      "outputs": [],
      "stateMutability": "nonpayable",
      "type": "function"
    },
    {
      "inputs": [],
      "name": "vaultConfig",
      "outputs": [
        {
          "internalType": "uint128",
          "name": "debtFloor",
          "type": "uint128"
        },
        {
          "internalType": "uint64",
          "name": "liquidationRatio",
          "type": "uint64"
        },
        {
          "internalType": "uint64",
          "name": "globalLiquidationRatio",
          "type": "uint64"
        }
      ],
      "stateMutability": "view",
      "type": "function"
    },
    {
      "inputs": [
        {
          "internalType": "address",
          "name": "position",
          "type": "address"
        }
      ],
      "name": "virtualIRS",
      "outputs": [
        {
          "internalType": "uint64",
          "name": "rateAccumulator",
          "type": "uint64"
        },
        {
          "internalType": "uint256",
          "name": "accruedRebate",
          "type": "uint256"
        },
        {
          "internalType": "uint256",
          "name": "globalAccruedRebate",
          "type": "uint256"
        }
      ],
      "stateMutability": "view",
      "type": "function"
    },
    {
      "inputs": [
        {
          "internalType": "address",
          "name": "to",
          "type": "address"
        },
        {
          "internalType": "uint256",
          "name": "amount",
          "type": "uint256"
        }
      ],
      "name": "withdraw",
      "outputs": [
        {
          "internalType": "uint256",
          "name": "tokenAmount",
          "type": "uint256"
        }
      ],
      "stateMutability": "nonpayable",
      "type": "function"
    }
  ],
  "bytecode": {
    "object": "0x6101a06040523480156200001257600080fd5b5060405162005e4f38038062005e4f833981016040819052620000359162000179565b6001805460ff1916905560408051639a295e7360e01b81529051829182916001600160a01b03831691639a295e739160048083019261010092919082900301816000875af11580156200008c573d6000803e3d6000fd5b505050506040513d601f19601f82011682018060405250810190620000b29190620001a0565b610160526101405261012052610100526001600160a01b0390811660e05290811660c05290811660a0529081166080526040805163bf404a4160e01b81529051918516935063bf404a41925060048082019260209290919082900301816000875af115801562000126573d6000803e3d6000fd5b505050506040513d601f19601f820116820180604052508101906200014c919062000179565b6001600160a01b031661018052506200022f565b6001600160a01b03811681146200017657600080fd5b50565b6000602082840312156200018c57600080fd5b8151620001998162000160565b9392505050565b600080600080600080600080610100898b031215620001be57600080fd5b8851620001cb8162000160565b60208a0151909850620001de8162000160565b60408a0151909750620001f18162000160565b60608a0151909650620002048162000160565b60808a015160a08b015160c08c015160e0909c01519a9d999c50979a91999098919650945092505050565b60805160a05160c05160e0516101005161012051610140516101605161018051615ac16200038e600039600081816107eb015281816110ae015281816117520152818161339e015281816134760152818161375901526137f0015260006123820152600081816122b00152613b170152600081816107930152614d860152600081816104d0015281816114f601528181612cd501526140a4015260008181610a7901528181610ab3015281816112ce015281816114c801528181612d0801526140c6015260008181610a2c0152818161248a0152612b4501526000818161069001526112a10152600081816109a901528181610b02015281816110810152818161172301528181611e330152818161218b0152818161220e0152818161245b0152818161251801528181612a8901528181613371015281816134490152818161372a015281816137c9015281816143b00152614a320152615ac16000f3fe608060405234801561001057600080fd5b506004361061035a5760003560e01c80638309dbdd116101ca578063c75a4b5e11610105578063dbe6b31c116100a8578063dbe6b31c1461093c578063dc2ec24914610988578063df10f68714610991578063e2dfb317146109a4578063eb953449146109cb578063edaafe2014610a27578063ef0563fb14610a4e578063f3fef3a314610a61578063fc0c546a14610a7457600080fd5b8063c75a4b5e1461088a578063cb6238c81461089d578063cde68041146108c8578063ce7c2ac2146108db578063d294f093146108fb578063d4b7eac314610903578063d547741f14610916578063d9c70f571461092957600080fd5b8063a3e2b4951161016d578063a3e2b49514610764578063a70b9f0c14610784578063b0e21e8a1461078e578063b6dc16f6146107b5578063b97dd9e2146107d5578063ba95534c146107dd578063bf404a41146107e6578063c6b61e4c1461080d57600080fd5b80638309dbdd146106f7578063842c311e1461070a5780638456cb591461071357806388439aea1461071b57806391d148541461072e57806393f9eb35146107415780639844afd214610754578063a217fddf1461075c57600080fd5b8063398482d81161029a5780635c975abb1161023d5780635c975abb146105b05780635fe83c7b146105bb578063683f81a1146105c45780636e5e741e146105e7578063723507be1461061a5780637cc34bb41461062d5780637dc0d1d01461068b5780638051ba75146106bf57600080fd5b8063398482d8146105055780633a98ef391461050d5780633f4ba83a1461051657806344a3c6641461051e578063472132f01461053157806347e7ef241461053957806351f813ec1461054c57806355f575101461057457600080fd5b8063280c37ef11610302578063280c37ef146104635780632906f94e146104765780632af8992b146104895780632b2368a21461049c5780632e55d0f2146104af5780632f2ff15d146104b8578063342c02b1146104cb57806336568abe146104f257600080fd5b806206e07a1461035f57806301ffc9a7146103745780630a9254e41461039c57806314815a6d146103a457806319f1039c146103dd5780631c580ad5146103e55780632202ce8c14610438578063248a9ca314610440575b600080fd5b61037261036d3660046153ef565b610a9b565b005b61038761038236600461540a565b610b62565b60405190151581526020015b60405180910390f35b610372610b99565b6103cf6103b2366004615434565b601860209081526000928352604080842090915290825290205481565b604051908152602001610393565b6103cf600381565b60135461040e906001600160401b0380821691600160401b8104821691600160801b9091041683565b604080516001600160401b0394851681529284166020840152921691810191909152606001610393565b610372610bf3565b6103cf61044e366004615460565b60009081526020819052604090206001015490565b610372610471366004615487565b610cbc565b610372610484366004615460565b610d33565b6103cf6104973660046154be565b610e6c565b6103cf6104aa366004615460565b610eba565b6103cf60025481565b6103726104c6366004615434565b6111da565b6103cf7f000000000000000000000000000000000000000000000000000000000000000081565b610372610500366004615434565b611204565b6103cf611287565b6103cf60145481565b61037261133e565b61037261052c3660046154be565b611378565b6103cf600181565b6103cf6105473660046154e0565b6114b1565b61055f61055a366004615460565b611553565b60408051928352901515602083015201610393565b61059b6105823660046153ef565b600d602052600090815260409020805460019091015482565b60408051928352602083019190915201610393565b60015460ff16610387565b6103cf60165481565b6103876105d2366004615460565b600e6020526000908152604090205460ff1681565b6105fa6105f53660046155af565b6115af565b604080519485526020850193909352918301526060820152608001610393565b6103726106283660046154be565b611930565b60095461065c906001600160801b038116906001600160401b03600160801b8204811691600160c01b90041683565b604080516001600160801b0390941684526001600160401b039283166020850152911690820152606001610393565b6106b27f000000000000000000000000000000000000000000000000000000000000000081565b60405161039391906155f5565b6106d26106cd3660046153ef565b611b94565b604080516001600160401b039094168452602084019290925290820152606001610393565b610372610705366004615609565b611c24565b6103cf600a5481565b610372611cf3565b61059b6107293660046154be565b611d25565b61038761073c366004615434565b611d48565b6103cf61074f366004615460565b611d71565b610372611ee1565b6103cf600081565b6103cf610772366004615460565b60116020526000908152604090205481565b6103cf6203f48081565b6103cf7f000000000000000000000000000000000000000000000000000000000000000081565b6103cf6107c33660046153ef565b600c6020526000908152604090205481565b6103cf611f33565b6103cf600b5481565b6106b27f000000000000000000000000000000000000000000000000000000000000000081565b61085661081b366004615460565b6017602052600090815260409020805460018201546002830154600390930154919290916001600160801b0380821691600160801b90041685565b604080519586526020860194909452928401919091526001600160801b03908116606084015216608082015260a001610393565b610372610898366004615650565b611f51565b6108b06108ab366004615460565b612366565b6040516001600160401b039091168152602001610393565b6103876108d63660046156a5565b6123ed565b6103cf6108e93660046153ef565b60156020526000908152604090205481565b6103cf61243b565b61059b6109113660046154be565b6124e9565b610372610924366004615434565b6125f1565b610372610937366004615487565b612616565b61094f61094a3660046153ef565b612679565b6040805182516001600160401b03908116825260208085015190911690820152918101516001600160801b031690820152606001610393565b6103cf60125481565b61037261099f3660046156cf565b6126e4565b6106b27f000000000000000000000000000000000000000000000000000000000000000081565b6109d3612bc7565b6040516103939190600060a082019050825160070b825260208301516001600160401b0380821660208501528060408601511660408501525050606083015160608301526080830151608083015292915050565b6106b27f000000000000000000000000000000000000000000000000000000000000000081565b610372610a5c366004615460565b612c1e565b6103cf610a6f3660046154e0565b612ca0565b6106b27f000000000000000000000000000000000000000000000000000000000000000081565b6000610aa681612d2f565b610adc6001600160a01b037f00000000000000000000000000000000000000000000000000000000000000001683600019612d39565b60405163d9c70f5760e01b81526001600160a01b038381166004830152600160248301527f0000000000000000000000000000000000000000000000000000000000000000169063d9c70f5790604401600060405180830381600087803b158015610b4657600080fd5b505af1158015610b5a573d6000803e3d6000fd5b505050505050565b60006001600160e01b03198216637965db0b60e01b1480610b9357506301ffc9a760e01b6001600160e01b03198316145b92915050565b6000610ba3612bc7565b905080602001516001600160401b0316600014610bbf57600080fd5b610bca600033612e81565b6001600160401b0342166020820152670de0b6b3a76400006040820152610bf081612f05565b50565b3360008181526011602052604081205490819003610c2457604051630573b42560e51b815260040160405180910390fd5b6000818152601060205260409020610c3c9083612f93565b600082815260116020908152604080832083905533808452600d909252822060010154600a54610c8893610c6e611287565b600954600160c01b90046001600160401b03166000613014565b505060405133915082907f6f36e2a381bc87c87bcc2043deb0a5cdf9a6d87eb14cbe13cf0f1fe39f324dd990600090a35050565b3360008181526004602090815260408083206001600160a01b03871680855290835292819020805460ff1916861515908117909155815194855291840192909252908201527f6501e8bfa2d3e686d62fe2c0c3275df594494583b0a63a70b7452d3eeb712bd6906060015b60405180910390a15050565b6000818152600e602052604090205460ff16610d625760405163da4b118b60e01b815260040160405180910390fd5b336000908152600d6020526040902060010154601254811015610d98576040516305c0093760e21b815260040160405180910390fd5b3360008181526011602052604090205415610dc65760405163345c017d60e01b815260040160405180910390fd5b600081815260116020908152604080832086905585835260108083528184208480528084529184206001015493879052909152610e049183906130df565b610e373383600a546000610e16611287565b600954600160c01b90046001600160401b0316610e328a612366565b613014565b505060405133915084907f85d7690ee90733d849878d2bbbd5bf047e442ce2d045c0308a58cfd2ce53031590600090a3505050565b6000828152601060209081526040808320838052909152812054905b828114610eb35760008481526010602090815260408083208584529091529020549150600101610e88565b5092915050565b600080610ec5611f33565b905060018301811015610eeb576040516319b8050760e31b815260040160405180910390fd5b6000610ef6846131ac565b94505050505080604001516000148015610f1b575060608101516001600160801b0316155b8015610f2957506020810151155b15610f8a5750600083815260176020908152604091829020825160a081018452815481526001820154928101929092526002810154928201929092526003909101546001600160801b038082166060840152600160801b9091041660808201525b604081015115801590610fa8575060608101516001600160801b0316155b15610fc657604051632204228160e01b815260040160405180910390fd5b60008481526018602090815260408083203384529091528120546060830151909190610ffc9083906001600160801b03166138b5565b60008781526018602090815260408083203384529091528120559050611022818361577b565b336000908152601560205260408120805490919061104190849061578e565b909155505060408301518351919250829161105d9083906157a1565b61106791906157ce565b604051632b0b3a6f60e21b81529095506001600160a01b037f0000000000000000000000000000000000000000000000000000000000000000169063ac2ce9bc906110da907f00000000000000000000000000000000000000000000000000000000000000009033908a906004016157f0565b600060405180830381600087803b1580156110f457600080fd5b505af1158015611108573d6000803e3d6000fd5b50505050818360400181815161111e919061577b565b90525082518590849061113290839061577b565b9052506000868152601760209081526040808320865181559186015160018301558501516002820155606085015160808601516001600160801b03908116600160801b029116176003909101556016805487929061119190849061577b565b9091555050604080518381526020810187905233917f5a4beaa18eb50f2c5150783acec1964edb2e32cbf0f99957707375f76ffbd982910160405180910390a250505050919050565b6000828152602081905260409020600101546111f581612d2f565b6111ff8383612e81565b505050565b6001600160a01b03811633146112795760405162461bcd60e51b815260206004820152602f60248201527f416363657373436f6e74726f6c3a2063616e206f6e6c792072656e6f756e636560448201526e103937b632b9903337b91039b2b63360891b60648201526084015b60405180910390fd5b61128382826138e3565b5050565b604051632cbf04c160e01b81526000906001600160a01b037f00000000000000000000000000000000000000000000000000000000000000001690632cbf04c1906112f6907f0000000000000000000000000000000000000000000000000000000000000000906004016155f5565b6020604051808303816000875af1158015611315573d6000803e3d6000fd5b505050506040513d601f19601f820116820180604052508101906113399190615814565b905090565b7f65d7a28e3265b37a6474929f336521b332c1681b933f6cb9f3376673440d862a61136881612d2f565b611370613948565b506000600255565b611380613994565b7ff96f3d6876b63665360200e15ed8964960110cbbd99e917fb50ad1e576f538ac6113aa81612d2f565b670de0b6b3a76400008310806113c857508268056bc75e2d63100000105b156113e6576040516336bbc25960e01b815260040160405180910390fd5b60008052600f602052600080516020615a6c833981519152548015801561140c57508215155b806114295750821580159061142957508284118061142957508281115b8061144157506000838152600f602052604090205484105b1561145f576040516346b0cc7160e11b815260040160405180910390fd5b61146b600f85856130df565b6000848152600e6020526040808220805460ff191660011790555185917f3907a47dfbf148deb99efcd854a68497cbdc2a2db8488083ecb842ad6bde91a891a250505050565b60006114bb613994565b6114f06001600160a01b037f0000000000000000000000000000000000000000000000000000000000000000163330856139dc565b61151a827f0000000000000000000000000000000000000000000000000000000000000000613a03565b6001600160a01b0384166000908152600c602052604081208054929350839290919061154790849061578e565b90915550909392505050565b6000808052600f602052600080516020615a6c8339815191525490805b838114611593576000838152600f60205260409020600101549250600101611570565b50506000818152600e6020526040902054909260ff9091169150565b6000806000806115bd611f33565b925060008060008060006115d0886131ac565b945094509450945094506000805b8b518110156116d55760008c82815181106115fb576115fb61582d565b60200260200101519050816001019150806000148061161d575060038b038110155b8061164157506000818152601760205260409020600301546001600160801b031615155b8061165b5750600081815260176020526040902060020154155b1561166657506115de565b600081815260186020908152604080832033845290915290205461168a818561578e565b6000838152601860209081526040808320338452825280832083905585835260179091528120600201805492965083929091906116c890849061577b565b909155506115de92505050565b50828c6116e2878961577b565b6116ec91906157a1565b6116f691906157ce565b99506000848b11611707578a611709565b845b604051632b0b3a6f60e21b81529091506001600160a01b037f0000000000000000000000000000000000000000000000000000000000000000169063ac2ce9bc9061177c9030907f00000000000000000000000000000000000000000000000000000000000000009086906004016157f0565b600060405180830381600087803b15801561179657600080fd5b505af11580156117aa573d6000803e3d6000fd5b5050505080836020018181516117c0919061578e565b905250506040820151156117f9576117f482608001516001600160801b03166117e98c8f613a03565b808218908211021890565b611803565b6118038a8d613a03565b6001600160801b031660808301526040820180518d919061182590839061578e565b905250600089815260176020908152604080832085518155828601516001820155818601516002820155606086015160808701516001600160801b03908116600160801b0291161760039091015560188252808320338452909152812080548e929061189290849061578e565b9091555050336000908152601560205260409020548c906118b490839061578e565b6118be919061577b565b336000818152601560209081526040918290209390935580518f81529283018d905260018c01908301819052995060038b0198508a917fe5248481489259c5ccaad0795cac80cd527112765494ed5a8d98b93501b27f079060600160405180910390a350505050505092959194509250565b611938613994565b7f7e2be3cffb06427cbcb9b1d12d4b78adcf14a2bf640e9bbdeb54bb711b65ec7161196281612d2f565b82683232b13a233637b7b960b91b0361199557600980546001600160801b0319166001600160801b038416179055611b55565b826f6c69717569646174696f6e526174696f60801b036119d9576009805467ffffffffffffffff60801b1916600160801b6001600160401b03851602179055611b55565b8275676c6f62616c4c69717569646174696f6e526174696f60501b03611a1e57600980546001600160c01b0316600160c01b6001600160401b03851602179055611b55565b826e3634b6b4ba27b93232b9233637b7b960891b03611a41576012829055611b55565b8267626173655261746560c01b03611a7257611a6d6000198314611a655782613a52565b600019613a52565b611b55565b82716c69717569646174696f6e50656e616c747960701b03611aaf576013805467ffffffffffffffff19166001600160401b038416179055611b55565b82721b1a5c5d5a59185d1a5bdb911a5cd8dbdd5b9d606a1b03611af6576013805467ffffffffffffffff60401b1916600160401b6001600160401b03851602179055611b55565b82713a30b933b2ba2432b0b63a342330b1ba37b960711b03611b3c576013805467ffffffffffffffff60801b1916600160801b6001600160401b03851602179055611b55565b604051638dd691e760e01b815260040160405180910390fd5b827f4327e67d6578eb2c9293fb22f9334006073ac1397c7100f5dd5adca09ad71c0883604051611b8791815260200190565b60405180910390a2505050565b600080600080611ba2612bc7565b600a54909150611bb28282613afa565b9450611bc78286836000806000806000613c0d565b506080810151935091506001600160a01b03861615611c1b57611c0f611bec87612679565b6001600160a01b0388166000908152600d60205260409020600101548790613dac565b6001600160801b031693505b50509193909250565b6001600160a01b0383163314801590611c6157506001600160a01b038316600090815260046020908152604080832033845290915290205460ff16155b15611c7f57604051638743d2ff60e01b815260040160405180910390fd5b6001600160a01b0383811660009081526003602090815260408083209386168352929052819020805460ff1916831515179055517fdcf2bd5a4c47afeb1792d170f6f5e6e528e30c6b546fffe62b697a11f8953b2b90611ce6903390869086908690615843565b60405180910390a1505050565b7f65d7a28e3265b37a6474929f336521b332c1681b933f6cb9f3376673440d862a611d1d81612d2f565b610bf0613de7565b6000803315611d3357600080fd5b611d3d8484613df5565b915091509250929050565b6000918252602082815260408084206001600160a01b0393909316845291905290205460ff1690565b6000670de0b6b3a7640000821015611d9c57604051630a6055b960e21b815260040160405180910390fd5b6000806000611db1611dac611f33565b6131ac565b50935050925092508060001480611dcf5750611dcd828461577b565b155b611df657611ddd828461577b565b611de786836157a1565b611df191906157ce565b611df8565b845b3360009081526015602052604090208054820190559350611e19848261578e565b601455604051632b0b3a6f60e21b81526001600160a01b037f0000000000000000000000000000000000000000000000000000000000000000169063ac2ce9bc90611e6c90339030908a906004016157f0565b600060405180830381600087803b158015611e8657600080fd5b505af1158015611e9a573d6000803e3d6000fd5b505060408051888152602081018890523393507f12352042ba8d46dbbba12767322c1c3bb5ed774314b10c283f945bf69e83f15792500160405180910390a2505050919050565b611ee9613994565b600080611ef66000611b94565b6009549294509250611f2691600160c01b90046001600160401b03169050611f1c611287565b600a54858561407b565b1561128357611283613de7565b60006203f480804206420381611f4b57611f4b6157b8565b04905090565b6000811380611f605750600082125b8015611f735750611f7185336123ed565b155b80611f905750600082138015611f905750611f8e84336123ed565b155b80611fad5750600081128015611fad5750611fab83336123ed565b155b15611fcb57604051634c26249960e01b815260040160405180910390fd5b6001600160a01b0385166000908152600d6020908152604080832081518083018352815481526001909101548184015281516060810183526009546001600160801b03811682526001600160401b03600160801b8204811695830195909552600160c01b900490931691830191909152600a549092612048611287565b905060008060006120678c8860200151878b888b604001516000613014565b92509250925061207b8c88848c8c8a61418b565b9650600088138061208c5750600089125b80156120cf57506120cd6120b68860200151846000015185604001516001600160801b0316614292565b8851602089015187906001600160401b03166142b2565b155b156120ed57604051633f66923d60e01b815260040160405180910390fd5b6001600160a01b038b166000908152600c6020526040902054612110908a6142d5565b6001600160a01b038c166000908152600c6020526040902055612133858961431a565b945084600a819055506000816001600160801b031661215f85604001516001600160401b03168b61435f565b612169919061586d565b905060008113156121fb57604051632b0b3a6f60e21b81526001600160a01b037f0000000000000000000000000000000000000000000000000000000000000000169063ac2ce9bc906121c49030908f9086906004016157f0565b600060405180830381600087803b1580156121de57600080fd5b505af11580156121f2573d6000803e3d6000fd5b5050505061228f565b600081121561228f576001600160a01b037f00000000000000000000000000000000000000000000000000000000000000001663ac2ce9bc8c3061223e85615895565b6040518463ffffffff1660e01b815260040161225c939291906157f0565b600060405180830381600087803b15801561227657600080fd5b505af115801561228a573d6000803e3d6000fd5b505050505b60008913156122f75760006122a48588614389565b90506001600160401b037f000000000000000000000000000000000000000000000000000000000000000060401c16808211156122f4576040516329b823dd60e21b815260040160405180910390fd5b50505b8a6001600160a01b03168c6001600160a01b03168e6001600160a01b03167f7ce3e27b99e7e2e42f0ddcb6f6679a25081a5fd4ca991bcd05c45e54daa997088d8d60405161234f929190918252602082015260400190565b60405180910390a450505050505050505050505050565b6000670de0b6b3a764000082101561238057506000919050565b7f00000000000000000000000000000000000000000000000000000000000000006001600160801b0381169060801c6123e56123e0670de0b6b3a76400006123d1856123cc838a61577b565b6138b5565b6123db908561578e565b613a03565b61445e565b949350505050565b6000816001600160a01b0316836001600160a01b0316148061243457506001600160a01b0380841660009081526003602090815260408083209386168352929052205460ff165b9392505050565b600b80546000909155604051632b0b3a6f60e21b81526001600160a01b037f0000000000000000000000000000000000000000000000000000000000000000169063ac2ce9bc906124b49030907f00000000000000000000000000000000000000000000000000000000000000009086906004016157f0565b600060405180830381600087803b1580156124ce57600080fd5b505af11580156124e2573d6000803e3d6000fd5b5050505090565b6000806124f68484613df5565b9092509050811561258457604051632b0b3a6f60e21b81526001600160a01b037f0000000000000000000000000000000000000000000000000000000000000000169063ac2ce9bc90612551903390309087906004016157f0565b600060405180830381600087803b15801561256b57600080fd5b505af115801561257f573d6000803e3d6000fd5b505050505b80156125af57336000908152600c6020526040812080548392906125a990849061578e565b90915550505b604080518381526020810183905233917f26981b9aefbb0f732b0264bd34c255e831001eb50b06bc85b32cc39e14389721910160405180910390a29250929050565b60008281526020819052604090206001015461260c81612d2f565b6111ff83836138e3565b3360008181526003602090815260408083206001600160a01b038716845290915290819020805460ff1916841515179055517fdcf2bd5a4c47afeb1792d170f6f5e6e528e30c6b546fffe62b697a11f8953b2b91610d2791819086908690615843565b6126816152f0565b6001600160a01b038216600090815260086020908152604091829020825160608101845290546001600160401b038082168352600160401b82041692820192909252600160801b9091046001600160801b031691810191909152610b9390614488565b6126ec613994565b8051821461270d576040516338f30c4b60e11b815260040160405180910390fd5b6000612717612bc7565b60408051606080820183526009546001600160801b03811683526001600160401b03600160801b8083048216602080870191909152600160c01b909304821685870152855193840186526013548083168552600160401b810483169385019390935290910416928101929092529192506000612791611287565b905061279b615310565b848152600a5460208201526009546001600160801b031660a08201526013546127d5908390600160401b90046001600160401b03166138b5565b60c08201526013546001600160401b031660e082015260208101516000906127fe908790613afa565b905060005b88811015612a1c5760008a8a8381811061281f5761281f61582d565b905060200201602081019061283491906153ef565b90506001600160a01b038116158061286557508882815181106128595761285961582d565b60200260200101516000145b612a13576001600160a01b0381166000908152600d602090815260408083208151808301909252805482526001015491810182905291906128a8908490876144bf565b905060006128c883602001518784604001516001600160801b0316614292565b90508715806128ef57506128ef8184600001518a8d602001516001600160401b03166142b2565b1561290d5760405163f87e38e960e01b815260040160405180910390fd5b600080600061293661292387600001518d6138b5565b8e602001516001600160401b0316613a03565b9050806129508d604001516001600160401b0316866138b5565b61295a919061577b565b91505060006129838d602001516001600160401b03168d602001516001600160401b03166138b5565b90506000612999670de0b6b3a764000083613a03565b6129b48e604001516001600160401b03168d60e001516138b5565b6129be919061577b565b90506129ca8382613a03565b93505050506129fa8d87815181106129e4576129e461582d565b60200260200101516117e9838b60e00151613a03565b610100890152612a0c888585886144fe565b9750505050505b50600101612803565b50612a648260000151612a4584606001518560e00151670de0b6b3a76400006123cc919061577b565b8460800151612a54919061578e565b8460200151868960400151614738565b506020820151600a556060820151604051632b0b3a6f60e21b81526001600160a01b037f0000000000000000000000000000000000000000000000000000000000000000169163ac2ce9bc91612ac19133913091906004016157f0565b600060405180830381600087803b158015612adb57600080fd5b505af1158015612aef573d6000803e3d6000fd5b505050604080840151336000908152600c60205291822080549193509190612b1890849061578e565b909155505061012082015115612bbc57610120820151604051630bd0dedd60e21b815260048101919091527f00000000000000000000000000000000000000000000000000000000000000006001600160a01b031690632f437b74906024016020604051808303816000875af1158015612b96573d6000803e3d6000fd5b505050506040513d601f19601f82011682018060405250810190612bba9190615814565b505b505050505050505050565b612bcf615369565b506040805160a081018252600554600781810b83526001600160401b03600160401b830481166020850152600160801b9092049091169282019290925260065460608201529054608082015290565b612c26613994565b7ff96f3d6876b63665360200e15ed8964960110cbbd99e917fb50ad1e576f538ac612c5081612d2f565b6000828152600e60205260409020805460ff19169055612c71600f83612f93565b60405182907f343776161924dfe02a29fdf57e6087e2d25ca11fe703785a80632e9ab88c88a190600090a25050565b6000612caa613994565b336000908152600c602052604081208054849290612cc990849061577b565b90915550612cf99050827f00000000000000000000000000000000000000000000000000000000000000006138b5565b9050610b936001600160a01b037f000000000000000000000000000000000000000000000000000000000000000016848361476b565b610bf0813361479b565b801580612db35750604051636eb1769f60e11b81523060048201526001600160a01b03838116602483015284169063dd62ed3e90604401602060405180830381865afa158015612d8d573d6000803e3d6000fd5b505050506040513d601f19601f82011682018060405250810190612db19190615814565b155b612e1e5760405162461bcd60e51b815260206004820152603660248201527f5361666545524332303a20617070726f76652066726f6d206e6f6e2d7a65726f60448201527520746f206e6f6e2d7a65726f20616c6c6f77616e636560501b6064820152608401611270565b6040516001600160a01b0383166024820152604481018290526111ff90849063095ea7b360e01b906064015b60408051601f198184030181529190526020810180516001600160e01b03166001600160e01b0319909316929092179091526147f4565b612e8b8282611d48565b611283576000828152602081815260408083206001600160a01b03851684529091529020805460ff19166001179055612ec13390565b6001600160a01b0316816001600160a01b0316837f2f8788117e7eff1d82e926ec794901d17c78024a50270940304540a733656f0d60405160405180910390a45050565b80516005805460208401516040808601516001600160401b03908116600160801b0267ffffffffffffffff60801b19938216600160401b026001600160801b03199095169190961617929092171692909217905560608201516006556080820151600755517f9334cbdde649ebcbf798eaa08c381dc574197dc53947470a9be908dbcccc330190600090a150565b600081815260208381526040918290208251808401909352805483526001015490820152612fc183836148c9565b612fde5760405163564e265760e11b815260040160405180910390fd5b60208082018051835160009081529590925260408086206001908101939093559251905185528285205591835282208281550155565b61301c615369565b6130246152f0565b600061302e612bc7565b92506130398a612679565b91506000613047848a613afa565b905061305483828c613dac565b6001600160801b031660408401526001600160401b031682526130936000881261307f576000613088565b61308888615895565b8a8460400151614937565b6001600160801b03166040840152905060006130b58b85858c8e8d888c614982565b90945090506130d084826130c98c8c61431a565b8a8a614738565b50509750975097945050505050565b6130e983836148c9565b1561310757604051631e2bbc4f60e11b815260040160405180910390fd5b801580159061311d575061311b83826148c9565b155b1561313b5760405163564e265760e11b815260040160405180910390fd5b60008181526020849052604090208054908390558115801561316c5750600082815260208590526040902060010154155b156131865760008281526020859052604090206001018390555b600081815260209490945260408085206001908101859055938552909320928355910155565b6000806000806131ba615397565b60006131c4611f33565b60408051600480825260a08201909252919250600091829160609190816020015b6131ed615397565b8152602001906001900390816131e55790505090506000805b600381116133535760021981870101600081815260176020908152604091829020825160a081018452815481526001820154928101929092526002810154928201929092526003909101546001600160801b038082166060840152600160801b909104166080820152845181908690859081106132855761328561582d565b602002602001018190525080604001516000141580156132b0575060608101516001600160801b0316155b80156132c65750876132c360018461578e565b11155b156133115786156132ed5760808101516001600160801b03168085119085180284186132fc565b80608001516001600160801b03165b935080604001518761330e919061578e565b96505b60608101516001909301926001600160801b03161580156133355750604081015115155b1561334c576020810151613349908761578e565b95505b5050613206565b50601654604051632f2e037160e11b81526000906001600160a01b037f00000000000000000000000000000000000000000000000000000000000000001690635e5c06e2906133c6907f0000000000000000000000000000000000000000000000000000000000000000906004016155f5565b6040805180830381865afa1580156133e2573d6000803e3d6000fd5b505050506040513d601f19601f8201168201806040525081019061340691906158b1565b5090506000828661341684614a10565b613420919061577b565b61342a919061577b565b905080156134d557604051632b0b3a6f60e21b81526001600160a01b037f0000000000000000000000000000000000000000000000000000000000000000169063ac2ce9bc906134a2907f000000000000000000000000000000000000000000000000000000000000000090309086906004016157f0565b600060405180830381600087803b1580156134bc57600080fd5b505af11580156134d0573d6000803e3d6000fd5b505050505b505060008060145499506134e886614a27565b929f50909d50909b5050891561351d5789878d8f613506919061577b565b61351091906157a1565b61351a91906157ce565b90505b801561356357613531816117e9868a6138b5565b9050600061353f878d61578e565b905061355381808410848218028418613a03565b925061355f82846138b5565b9150505b6000805b600381116136ff5760008160038c03019050600088838151811061358d5761358d61582d565b6020026020010151905080604001516000141580156135b7575060608101516001600160801b0316155b80156135cd57508b6135ca60018461578e565b11155b156136f5576040518060a001604052808c8360400151886135ee91906157a1565b6135f891906157ce565b8152602001826020015181526020016136158360400151896138b5565b81526001600160801b03881660208201526000604090910152805190915061363d908861578e565b965080604001518e61364f919061577b565b9d5061365e8160200151614ba1565b815161366990614ba1565b61367391906158d5565b61367d908561586d565b935060008160200181815250508089848151811061369d5761369d61582d565b602090810291909101810191909152600083815260178252604090819020835181559183015160018301558201516002820155606082015160808301516001600160801b03908116600160801b029116176003909101555b5050600101613567565b50601684905560148b905560008113156137b657604051632b0b3a6f60e21b81526001600160a01b037f0000000000000000000000000000000000000000000000000000000000000000169063ac2ce9bc906137839030907f00000000000000000000000000000000000000000000000000000000000000009086906004016157f0565b600060405180830381600087803b15801561379d57600080fd5b505af11580156137b1573d6000803e3d6000fd5b505050505b600081121561386a576001600160a01b037f00000000000000000000000000000000000000000000000000000000000000001663ac2ce9bc7f00000000000000000000000000000000000000000000000000000000000000003061381985615895565b6040518463ffffffff1660e01b8152600401613837939291906157f0565b600060405180830381600087803b15801561385157600080fd5b505af1158015613865573d6000803e3d6000fd5b505050505b60008f8a613878919061577b565b9050806003106138a2578681600303815181106138975761389761582d565b60200260200101519a505b5050505050505050505091939590929450565b6000816000190483118202156138d35763c4c5d7f56000526004601cfd5b50670de0b6b3a764000091020490565b6138ed8282611d48565b15611283576000828152602081815260408083206001600160a01b0385168085529252808320805460ff1916905551339285917ff6391f5c32d9c69d2a47ea670b442974b53935d1edc7fd64eb21e047a839171b9190a45050565b613950614bc7565b6001805460ff191690557f5db9ee0a495bf2e6ff9c91a7834c1ba4fdd244a5e8aa4e537bd38aeae4b073aa335b60405161398a91906155f5565b60405180910390a1565b60015460ff16156139da5760405162461bcd60e51b815260206004820152601060248201526f14185d5cd8589b194e881c185d5cd95960821b6044820152606401611270565b565b6139fd846323b872dd60e01b858585604051602401612e4a939291906157f0565b50505050565b60007812725dd1d243aba0e75fe645cc4873f9e65afe688c928e1f218311670de0b6b3a764000002158202613a405763bcbede656000526004601cfd5b50670de0b6b3a7640000919091020490565b60008160070b138015613a705750670de0b6b3a7640000600782900b125b80613a865750670de0b6b8c1e505ce600782900b135b15613aa45760405163947800ab60e01b815260040160405180910390fd5b6005805467ffffffffffffffff19166001600160401b038316179055604051600782900b81527fcb1621676ff5c8c9deff7ffc0af9b2c296851bc5b191381ac07d97e82ec03fe69060200160405180910390a150565b6000806000846000015160070b1215613bff576001600160401b037f000000000000000000000000000000000000000000000000000000000000000081811691604082901c1690670de0b6b3a764000064ffffffffff608083901c811682019260a881901c821683019260d09190911c909116016000613b7a8a8a614389565b905084811115613b875750835b858111613bbb57613baa613ba4613b9e868561577b565b88613a03565b826138b5565b613bb4908561578e565b9650613bf4565b613be7613bdd613bcb848661577b565b6123db89670de0b6b3a764000061577b565b6123cc888461577b565b613bf1908361578e565b96505b505050505050613c03565b5082515b6123e58482614c10565b613c15615369565b600080613c22898861431a565b60608c015190915087151580613c4a5750856001600160401b0316876001600160401b031614155b15613c9557613c66866001600160401b03166123cc8b8b61431a565b613c79886001600160401b03168b6138b5565b8d60600151613c88919061577b565b613c92919061578e565b90505b60008a15613cda57613cd5613ccf613cb18f606001518e613a03565b8f604001518f613cc191906158f5565b6001600160401b03166138b5565b846138b5565b613cdd565b60005b90506000866001600160801b0316828f60800151613cfb919061578e565b613d05919061577b565b90506040518060a001604052808f6000015160070b8152602001426001600160401b031681526020018e6001600160401b03168152602001848152602001828152509550505089600014613d9857613d93613d8d613d678e606001518d613a03565b613d7990670de0b6b3a764000061577b565b8e604001518760400151613cc191906158f5565b8b6138b5565b613d9b565b60005b925050509850989650505050505050565b6000613dd8613dd285602001516001600160401b0316866000015186613cc191906158f5565b836138b5565b84604001516123e59190615915565b613def614c4e565b42600255565b6000806000613e02612bc7565b604080516060810182526009546001600160801b03811682526001600160401b03600160801b820481166020840152600160c01b90910416918101919091529091506000613e4e611287565b9050613e58615310565b838152600a546020820181905283516001600160801b031660a0830152670de0b6b3a764000060e0830152600090613e91908690613afa565b600080516020615a6c833981519152546000818152601060209081526040808320838052909152902054919250905b898460600151101561401557811580613ed857508a82115b614015576000828152600e602052604090205460ff161580613ef8575080155b15613f2c57506000908152600f60209081526040808320600101548084526010835281842084805290925290912054613ec0565b6000828152601060209081526040808320848452909152902054818103613f535750614015565b6001600160a01b0382166000908152600d602090815260408083208151808301909252805482526001015491810182905284929091613f94908490896144bf565b9050613fa089876138b5565b60c08901526060880151613fb4908f61577b565b610100890152602082015181516040830151613ff592613fde9290916001600160801b0316614292565b835160208d01518c906001600160401b03166142b2565b1561400957614006888383866144fe565b97505b83945050505050613ec0565b614032846000015185608001518660200151888a60400151614738565b506020840151600a5560608401518a1461405f57604051633e6c5e0f60e01b815260040160405180910390fd5b8360600151846040015198509850505050505050509250929050565b600080614089858585614292565b9050801580159061416d5750866001600160401b031661416b7f0000000000000000000000000000000000000000000000000000000000000000887f00000000000000000000000000000000000000000000000000000000000000006001600160a01b03166370a08231306040518263ffffffff1660e01b815260040161411091906155f5565b602060405180830381865afa15801561412d573d6000803e3d6000fd5b505050506040513d601f19601f820116820180604052508101906141519190615814565b61415b91906157a1565b61416591906157ce565b83613a03565b105b1561417c576001915050614182565b60009150505b95945050505050565b604080518082019091526000808252602082015285516141ab908561431a565b865260208601516141bc908461431a565b60208701819052158015906141f557506009546020870151865160408801516001600160801b03938416936141f393929116614292565b105b1561421357604051634b2c23a160e11b815260040160405180910390fd5b6001600160a01b0387166000818152600d6020908152604090912088518155908801516001909101557f71671d6112ff9270f1553ebc8fbf767a3221090f1002c7047475b6fa8f5801cd8585614269868261431a565b6040805193845260208401929092529082015260600160405180910390a2509395945050505050565b6000816142a885856001600160401b03166138b5565b6123e5919061577b565b600084826142c085876157a1565b6142ca91906157ce565b101595945050505050565b8082036000821380156142e757508281115b806142fc57506000821280156142fc57508281105b15610b935760405163e942b9ed60e01b815260040160405180910390fd5b81810160008213801561432c57508281105b80614341575060008212801561434157508281115b15610b93576040516354012a2960e11b815260040160405180910390fd5b6000670de0b6b3a76400006143748484614c89565b81614381576143816157b8565b059392505050565b60008061439f8385604001518660800151614292565b905080156144545761444f81600b547f00000000000000000000000000000000000000000000000000000000000000006001600160a01b0316631c3536e7306040518263ffffffff1660e01b81526004016143fa91906155f5565b602060405180830381865afa158015614417573d6000803e3d6000fd5b505050506040513d601f19601f8201168201806040525081019061443b9190615814565b614445908561578e565b6123db919061577b565b6123e5565b6000949350505050565b6000600160401b8210614484576040516302217c1560e11b815260040160405180910390fd5b5090565b6144906152f0565b81516001600160401b031660000361448457600060208301819052670de0b6b3a7640000835260408301525090565b6144c76152f0565b6144d084612679565b90506144dd818385613dac565b6001600160801b031660408201526001600160401b03909116815292915050565b614506615310565b600080600080600061452e896020015189600001518a604001516001600160801b0316614292565b905060006145458b61010001518c60e001516138b5565b90506145ab8183118015614565575060a08c0151614563838561577b565b105b61457c57614577838d60e00151613a03565b614599565b6145998c60a001518461458f919061577b565b8d60e00151613a03565b6117e98c600001518e60c00151614cd2565b6101008c01519091508181118183180218955060006145ce878d60e001516138b5565b90506145df81848c60400151614937565b6001600160801b0390811660408d01528b519195506146019183918716614d08565b9450614611878d60c00151613a03565b8b51909650861115614622578a5195505b8a51861480156146355750848b60200151115b1561466157614644818461577b565b8c61012001818151614656919061578e565b90525060208b015194505b5050506000896020015190506000614699888c600001518b858e602001516146888a614ba1565b61469190615895565b896000614982565b908c5290506146ce888b8b6146ad89614ba1565b6146b690615895565b6146bf89614ba1565b6146c890615895565b8761418b565b50838b6020018181516146e1919061577b565b90525060408b0180518691906146f890839061578e565b90525060608b01805187919061470f90839061578e565b90525060808b01805182919061472690839061578e565b905250999a9950505050505050505050565b600061474f82848689604001518a60800151614d44565b61475886612f05565b61476185614d76565b9695505050505050565b6040516001600160a01b0383166024820152604481018290526111ff90849063a9059cbb60e01b90606401612e4a565b6147a58282611d48565b611283576147b281614dc9565b6147bd836020614ddb565b6040516020016147ce929190615959565b60408051601f198184030181529082905262461bcd60e51b8252611270916004016159c8565b6000614849826040518060400160405280602081526020017f5361666545524332303a206c6f772d6c6576656c2063616c6c206661696c6564815250856001600160a01b0316614f769092919063ffffffff16565b905080516000148061486a57508080602001905181019061486a91906159fb565b6111ff5760405162461bcd60e51b815260206004820152602a60248201527f5361666545524332303a204552433230206f7065726174696f6e20646964206e6044820152691bdd081cdd58d8d9595960b21b6064820152608401611270565b6000816000036148ec5760405163ee7efd5760e01b815260040160405180910390fd5b600082815260208490526040902054151580614918575060008281526020849052604090206001015415155b8061243457505060008080526020929092526040909120600101541490565b600081841580159061494857508315155b1561497a57836149616001600160801b038516876157a1565b61496b91906157ce565b91506149778282615a18565b90505b935093915050565b61498a615369565b60208781015160008b8152601190925260408220546149ce908c906149af8a8a61431a565b6001600160401b038816156149c45787614f85565b8c60200151614f85565b6001600160401b031660208a01526149e68b8a614fcb565b6149fe8a8a600001518a8a8a868f602001518c613c0d565b909c909b509950505050505050505050565b6000808212614a1f5781610b93565b600092915050565b6000806000806000807f00000000000000000000000000000000000000000000000000000000000000006001600160a01b0316635e5c06e2306040518263ffffffff1660e01b8152600401614a7c91906155f5565b6040805180830381865afa158015614a98573d6000803e3d6000fd5b505050506040513d601f19601f82011682018060405250810190614abc91906158b1565b91509150614ac982614a10565b9350614ad5828261507a565b92506000614ae1612bc7565b600a549091506000614b0583614af78185613afa565b846000806000806000613c0d565b90935090506000614b32848385614b1a611287565b600954600160c01b90046001600160401b0316614738565b9050614b478385604001518660800151614292565b614b518c8a61578e565b614b5b919061578e565b995080614b67876150a2565b614b71919061578e565b9850888a1015614b9457604051630538704d60e11b815260040160405180910390fd5b5050505050509193509193565b6000600160ff1b821061448457604051632db27c5360e01b815260040160405180910390fd5b60015460ff166139da5760405162461bcd60e51b815260206004820152601460248201527314185d5cd8589b194e881b9bdd081c185d5cd95960621b6044820152606401611270565b600061243483604001516001600160401b03166123cc846001600160401b031686602001516001600160401b03164203670de0b6b3a76400006150b9565b614c56613994565b6001805460ff1916811790557f62e78cea01bee320cd4e420270b5ea74000d11b0c9f74754ebdbfc544b05a2583361397d565b8181026000831280614cb457508115801590614cb4575082828281614cb057614cb06157b8565b0514155b15610b9357604051631eed389360e01b815260040160405180910390fd5b600081600019048311820215614cf05763c4c5d7f56000526004601cfd5b50670de0b6b3a7640000910281810615159190040190565b6000614d26614d17838661578e565b846001600160401b0316613a03565b905083614d34828585614292565b1015612434576001019392505050565b614d51858585858561407b565b15614d6f57604051632ce9f52360e01b815260040160405180910390fd5b5050505050565b6000614d80613994565b614daa827f00000000000000000000000000000000000000000000000000000000000000006138b5565b600b6000828254614dbb919061578e565b92505081905590505b919050565b6060610b936001600160a01b03831660145b60606000614dea8360026157a1565b614df590600261578e565b6001600160401b03811115614e0c57614e0c61550a565b6040519080825280601f01601f191660200182016040528015614e36576020820181803683370190505b509050600360fc1b81600081518110614e5157614e5161582d565b60200101906001600160f81b031916908160001a905350600f60fb1b81600181518110614e8057614e8061582d565b60200101906001600160f81b031916908160001a9053506000614ea48460026157a1565b614eaf90600161578e565b90505b6001811115614f27576f181899199a1a9b1b9c1cb0b131b232b360811b85600f1660108110614ee357614ee361582d565b1a60f81b828281518110614ef957614ef961582d565b60200101906001600160f81b031916908160001a90535060049490941c93614f2081615a38565b9050614eb2565b5083156124345760405162461bcd60e51b815260206004820181905260248201527f537472696e67733a20686578206c656e67746820696e73756666696369656e746044820152606401611270565b60606123e58484600085615177565b808315801590614f96575082601254115b156123e5576000848152601060205260409020614fb39086612f93565b50505060009182525060116020526040812081905590565b6001600160a01b0382166000818152600860209081526040918290208451815486840151878601516001600160801b03908116600160801b81026001600160401b03938416600160401b81026001600160801b031990961694909616938417949094179190911692909217909355845192835292820192909252918201527f491dea4b757c9c18e4b668fc545a09f969bd7a6ca7c9f79bb5f53a1e996aeac89060600160405180910390a25050565b60008061508683615895565b90508084126144545761509984826158d5565b61444f90615895565b6000808213614a1f576150b482615895565b610b93565b600082801561516b57848015615160576001851680156150db578693506150df565b8493505b50600284046002860495505b851561515a578687028760801c1561510257600080fd5b8181018181101561511257600080fd5b869004975050600186161561514f57868402848882041415881515161561513857600080fd5b8181018181101561514857600080fd5b8690049450505b6002860495506150eb565b50615165565b600092505b5061516f565b8291505b509392505050565b6060824710156151d85760405162461bcd60e51b815260206004820152602660248201527f416464726573733a20696e73756666696369656e742062616c616e636520666f6044820152651c8818d85b1b60d21b6064820152608401611270565b600080866001600160a01b031685876040516151f49190615a4f565b60006040518083038185875af1925050503d8060008114615231576040519150601f19603f3d011682016040523d82523d6000602084013e615236565b606091505b509150915061524787838387615252565b979650505050505050565b606083156152c15782516000036152ba576001600160a01b0385163b6152ba5760405162461bcd60e51b815260206004820152601d60248201527f416464726573733a2063616c6c20746f206e6f6e2d636f6e74726163740000006044820152606401611270565b50816123e5565b6123e583838151156152d65781518083602001fd5b8060405162461bcd60e51b815260040161127091906159c8565b604080516060810182526000808252602082018190529181019190915290565b604051806101400160405280615324615369565b81526020016000815260200160008152602001600081526020016000815260200160008152602001600081526020016000815260200160008152602001600081525090565b6040805160a08101825260008082526020820181905291810182905260608101829052608081019190915290565b6040518060a0016040528060008152602001600081526020016000815260200160006001600160801b0316815260200160006001600160801b031681525090565b80356001600160a01b0381168114614dc457600080fd5b60006020828403121561540157600080fd5b612434826153d8565b60006020828403121561541c57600080fd5b81356001600160e01b03198116811461243457600080fd5b6000806040838503121561544757600080fd5b82359150615457602084016153d8565b90509250929050565b60006020828403121561547257600080fd5b5035919050565b8015158114610bf057600080fd5b6000806040838503121561549a57600080fd5b6154a3836153d8565b915060208301356154b381615479565b809150509250929050565b600080604083850312156154d157600080fd5b50508035926020909101359150565b600080604083850312156154f357600080fd5b6154fc836153d8565b946020939093013593505050565b634e487b7160e01b600052604160045260246000fd5b600082601f83011261553157600080fd5b813560206001600160401b038083111561554d5761554d61550a565b8260051b604051601f19603f830116810181811084821117156155725761557261550a565b60405293845285810183019383810192508785111561559057600080fd5b83870191505b8482101561524757813583529183019190830190615596565b600080604083850312156155c257600080fd5b8235915060208301356001600160401b038111156155df57600080fd5b6155eb85828601615520565b9150509250929050565b6001600160a01b0391909116815260200190565b60008060006060848603121561561e57600080fd5b615627846153d8565b9250615635602085016153d8565b9150604084013561564581615479565b809150509250925092565b600080600080600060a0868803121561566857600080fd5b615671866153d8565b945061567f602087016153d8565b935061568d604087016153d8565b94979396509394606081013594506080013592915050565b600080604083850312156156b857600080fd5b6156c1836153d8565b9150615457602084016153d8565b6000806000604084860312156156e457600080fd5b83356001600160401b03808211156156fb57600080fd5b818601915086601f83011261570f57600080fd5b81358181111561571e57600080fd5b8760208260051b850101111561573357600080fd5b60209283019550935090850135908082111561574e57600080fd5b5061575b86828701615520565b9150509250925092565b634e487b7160e01b600052601160045260246000fd5b81810381811115610b9357610b93615765565b80820180821115610b9357610b93615765565b8082028115828204841417610b9357610b93615765565b634e487b7160e01b600052601260045260246000fd5b6000826157eb57634e487b7160e01b600052601260045260246000fd5b500490565b6001600160a01b039384168152919092166020820152604081019190915260600190565b60006020828403121561582657600080fd5b5051919050565b634e487b7160e01b600052603260045260246000fd5b6001600160a01b039485168152928416602084015292166040820152901515606082015260800190565b808201828112600083128015821682158216171561588d5761588d615765565b505092915050565b6000600160ff1b82016158aa576158aa615765565b5060000390565b600080604083850312156158c457600080fd5b505080516020909101519092909150565b8181036000831280158383131683831282161715610eb357610eb3615765565b6001600160401b03828116828216039080821115610eb357610eb3615765565b6001600160801b03818116838216019080821115610eb357610eb3615765565b60005b83811015615950578181015183820152602001615938565b50506000910152565b76020b1b1b2b9b9a1b7b73a3937b61d1030b1b1b7bab73a1604d1b81526000835161598b816017850160208801615935565b7001034b99036b4b9b9b4b733903937b6329607d1b60179184019182015283516159bc816028840160208801615935565b01602801949350505050565b60208152600082518060208401526159e7816040850160208701615935565b601f01601f19169190910160400192915050565b600060208284031215615a0d57600080fd5b815161243481615479565b6001600160801b03828116828216039080821115610eb357610eb3615765565b600081615a4757615a47615765565b506000190190565b60008251615a61818460208701615935565b919091019291505056fef4803e074bd026baaf6ed2e288c9515f68c72fb7216eebdd7cae1718a53ec376a2646970667358221220c8db42ed214699a06f27e3398b1455cd6dc27af864abe0a8d41cfa64aa325cf364736f6c63430008130033",
    "linkReferences": {}
  },
  "methodIdentifiers": {
    "DEFAULT_ADMIN_ROLE()": "a217fddf",
    "EPOCH_DURATION()": "a70b9f0c",
    "EPOCH_FIX_DELAY()": "472132f0",
    "EPOCH_FIX_TIMEOUT()": "19f1039c",
    "activeLimitPriceTicks(uint256)": "683f81a1",
    "addLimitPriceTick(uint256,uint256)": "44a3c664",
    "buffer()": "edaafe20",
    "calculateRebateFactorForPriceTick(uint256)": "cb6238c8",
    "cancelLimitOrder()": "2202ce8c",
    "cash(address)": "b6dc16f6",
    "cdm()": "e2dfb317",
    "claimFees()": "d294f093",
    "claimUndelegatedCredit(uint256)": "2b2368a2",
    "createLimitOrder(uint256)": "2906f94e",
    "creditWithholder()": "bf404a41",
    "delegateCredit(uint256)": "93f9eb35",
    "deposit(address,uint256)": "47e7ef24",
    "enterEmergencyMode()": "9844afd2",
    "epochs(uint256)": "c6b61e4c",
    "exchange(uint256,uint256)": "d4b7eac3",
    "exchangePreview(uint256,uint256)": "88439aea",
    "getCurrentEpoch()": "b97dd9e2",
    "getGlobalIRS()": "eb953449",
    "getLimitOrder(uint256,uint256)": "2af8992b",
    "getPositionIRS(address)": "dbe6b31c",
    "getPriceTick(uint256)": "51f813ec",
    "getRoleAdmin(bytes32)": "248a9ca3",
    "grantRole(bytes32,address)": "2f2ff15d",
    "hasPermission(address,address)": "cde68041",
    "hasRole(bytes32,address)": "91d14854",
    "limitOrderFloor()": "dc2ec249",
    "limitOrders(uint256)": "a3e2b495",
    "liquidatePositions(address[],uint256[])": "df10f687",
    "liquidationConfig()": "1c580ad5",
    "modifyCollateralAndDebt(address,address,address,int256,int256)": "c75a4b5e",
    "modifyPermission(address,address,bool)": "8309dbdd",
    "modifyPermission(address,bool)": "d9c70f57",
    "oracle()": "7dc0d1d0",
    "pause()": "8456cb59",
    "paused()": "5c975abb",
    "pausedAt()": "2e55d0f2",
    "positions(address)": "55f57510",
    "protocolFee()": "b0e21e8a",
    "removeLimitPriceTick(uint256)": "ef0563fb",
    "renounceRole(bytes32,address)": "36568abe",
    "revokeRole(bytes32,address)": "d547741f",
    "setParameter(bytes32,uint256)": "723507be",
    "setPermissionAgent(address,bool)": "280c37ef",
    "setUnwinderFactory(address)": "0006e07a",
    "setUp()": "0a9254e4",
    "shares(address)": "ce7c2ac2",
    "sharesQueuedByEpoch(uint256,address)": "14815a6d",
    "spotPrice()": "398482d8",
    "supportsInterface(bytes4)": "01ffc9a7",
    "token()": "fc0c546a",
    "tokenScale()": "342c02b1",
    "totalAccruedFees()": "ba95534c",
    "totalCreditClaimable()": "5fe83c7b",
    "totalNormalDebt()": "842c311e",
    "totalShares()": "3a98ef39",
    "undelegateCredit(uint256,uint256[])": "6e5e741e",
    "unpause()": "3f4ba83a",
    "vaultConfig()": "7cc34bb4",
    "virtualIRS(address)": "8051ba75",
    "withdraw(address,uint256)": "f3fef3a3"
  },
  "id": 92
}