{
  "abi": [
    {
      "inputs": [
        {
          "internalType": "contract ICDM",
          "name": "cdm_",
          "type": "address"
        }
      ],
      "stateMutability": "nonpayable",
      "type": "constructor"
    },
    {
      "inputs": [],
      "name": "Buffer__withdrawCredit_zeroAddress",
      "type": "error"
    },
    {
      "anonymous": false,
      "inputs": [
        {
          "indexed": true,
          "internalType": "address",
          "name": "recipient",
          "type": "address"
        },
        {
          "indexed": false,
          "internalType": "uint256",
          "name": "amount",
          "type": "uint256"
        }
      ],
      "name": "BailOut",
      "type": "event"
    },
    {
      "anonymous": false,
      "inputs": [
        {
          "indexed": false,
          "internalType": "uint8",
          "name": "version",
          "type": "uint8"
        }
      ],
      "name": "Initialized",
      "type": "event"
    },
    {
      "anonymous": false,
      "inputs": [
        {
          "indexed": true,
          "internalType": "bytes32",
          "name": "role",
          "type": "bytes32"
        },
        {
          "indexed": true,
          "internalType": "bytes32",
          "name": "previousAdminRole",
          "type": "bytes32"
        },
        {
          "indexed": true,
          "internalType": "bytes32",
          "name": "newAdminRole",
          "type": "bytes32"
        }
      ],
      "name": "RoleAdminChanged",
      "type": "event"
    },
    {
      "anonymous": false,
      "inputs": [
        {
          "indexed": true,
          "internalType": "bytes32",
          "name": "role",
          "type": "bytes32"
        },
        {
          "indexed": true,
          "internalType": "address",
          "name": "account",
          "type": "address"
        },
        {
          "indexed": true,
          "internalType": "address",
          "name": "sender",
          "type": "address"
        }
      ],
      "name": "RoleGranted",
      "type": "event"
    },
    {
      "anonymous": false,
      "inputs": [
        {
          "indexed": true,
          "internalType": "bytes32",
          "name": "role",
          "type": "bytes32"
        },
        {
          "indexed": true,
          "internalType": "address",
          "name": "account",
          "type": "address"
        },
        {
          "indexed": true,
          "internalType": "address",
          "name": "sender",
          "type": "address"
        }
      ],
      "name": "RoleRevoked",
      "type": "event"
    },
    {
      "inputs": [],
      "name": "DEFAULT_ADMIN_ROLE",
      "outputs": [
        {
          "internalType": "bytes32",
          "name": "",
          "type": "bytes32"
        }
      ],
      "stateMutability": "view",
      "type": "function"
    },
    {
      "inputs": [
        {
          "internalType": "uint256",
          "name": "amount",
          "type": "uint256"
        }
      ],
      "name": "bailOut",
      "outputs": [
        {
          "internalType": "uint256",
          "name": "bailedOut",
          "type": "uint256"
        }
      ],
      "stateMutability": "nonpayable",
      "type": "function"
    },
    {
      "inputs": [],
      "name": "cdm",
      "outputs": [
        {
          "internalType": "contract ICDM",
          "name": "",
          "type": "address"
        }
      ],
      "stateMutability": "view",
      "type": "function"
    },
    {
      "inputs": [
        {
          "internalType": "bytes32",
          "name": "role",
          "type": "bytes32"
        }
      ],
      "name": "getRoleAdmin",
      "outputs": [
        {
          "internalType": "bytes32",
          "name": "",
          "type": "bytes32"
        }
      ],
      "stateMutability": "view",
      "type": "function"
    },
    {
      "inputs": [
        {
          "internalType": "bytes32",
          "name": "role",
          "type": "bytes32"
        },
        {
          "internalType": "address",
          "name": "account",
          "type": "address"
        }
      ],
      "name": "grantRole",
      "outputs": [],
      "stateMutability": "nonpayable",
      "type": "function"
    },
    {
      "inputs": [
        {
          "internalType": "bytes32",
          "name": "role",
          "type": "bytes32"
        },
        {
          "internalType": "address",
          "name": "account",
          "type": "address"
        }
      ],
      "name": "hasRole",
      "outputs": [
        {
          "internalType": "bool",
          "name": "",
          "type": "bool"
        }
      ],
      "stateMutability": "view",
      "type": "function"
    },
    {
      "inputs": [
        {
          "internalType": "address",
          "name": "admin",
          "type": "address"
        },
        {
          "internalType": "address",
          "name": "manager",
          "type": "address"
        }
      ],
      "name": "initialize",
      "outputs": [],
      "stateMutability": "nonpayable",
      "type": "function"
    },
    {
      "inputs": [
        {
          "internalType": "bytes32",
          "name": "role",
          "type": "bytes32"
        },
        {
          "internalType": "address",
          "name": "account",
          "type": "address"
        }
      ],
      "name": "renounceRole",
      "outputs": [],
      "stateMutability": "nonpayable",
      "type": "function"
    },
    {
      "inputs": [
        {
          "internalType": "bytes32",
          "name": "role",
          "type": "bytes32"
        },
        {
          "internalType": "address",
          "name": "account",
          "type": "address"
        }
      ],
      "name": "revokeRole",
      "outputs": [],
      "stateMutability": "nonpayable",
      "type": "function"
    },
    {
      "inputs": [
        {
          "internalType": "bytes4",
          "name": "interfaceId",
          "type": "bytes4"
        }
      ],
      "name": "supportsInterface",
      "outputs": [
        {
          "internalType": "bool",
          "name": "",
          "type": "bool"
        }
      ],
      "stateMutability": "view",
      "type": "function"
    },
    {
      "inputs": [
        {
          "internalType": "address",
          "name": "to",
          "type": "address"
        },
        {
          "internalType": "uint256",
          "name": "amount",
          "type": "uint256"
        }
      ],
      "name": "withdrawCredit",
      "outputs": [],
      "stateMutability": "nonpayable",
      "type": "function"
    }
  ],
  "bytecode": {
    "object": "0x60a060405234801561001057600080fd5b50604051610fca380380610fca83398101604081905261002f9161014d565b600054610100900460ff161580801561004f5750600054600160ff909116105b806100695750303b158015610069575060005460ff166001145b6100d05760405162461bcd60e51b815260206004820152602e60248201527f496e697469616c697a61626c653a20636f6e747261637420697320616c72656160448201526d191e481a5b9a5d1a585b1a5e995960921b606482015260840160405180910390fd5b6000805460ff1916600117905580156100f3576000805461ff0019166101001790555b6001600160a01b0382166080528015610146576000805461ff0019169055604051600181527f7f26b83ff96e1f2b6a682f133852f6798a09c465da95921460cefb38474024989060200160405180910390a15b505061017d565b60006020828403121561015f57600080fd5b81516001600160a01b038116811461017657600080fd5b9392505050565b608051610e0f6101bb6000396000818161019b01528181610273015281816102f50152818161039a01528181610452015261072c0152610e0f6000f3fe608060405234801561001057600080fd5b50600436106100a95760003560e01c8063485cc95511610071578063485cc95514610142578063502b74691461015557806391d1485414610168578063a217fddf1461017b578063d547741f14610183578063e2dfb3171461019657600080fd5b806301ffc9a7146100ae578063248a9ca3146100d65780632f2ff15d146101075780632f437b741461011c57806336568abe1461012f575b600080fd5b6100c16100bc366004610b61565b6101d5565b60405190151581526020015b60405180910390f35b6100f96100e4366004610b8b565b60009081526065602052604090206001015490565b6040519081526020016100cd565b61011a610115366004610bc0565b61020c565b005b6100f961012a366004610b8b565b610236565b61011a61013d366004610bc0565b6104fa565b61011a610150366004610bec565b61057d565b61011a610163366004610c16565b6106c4565b6100c1610176366004610bc0565b61079c565b6100f9600081565b61011a610191366004610bc0565b6107c7565b6101bd7f000000000000000000000000000000000000000000000000000000000000000081565b6040516001600160a01b0390911681526020016100cd565b60006001600160e01b03198216637965db0b60e01b148061020657506301ffc9a760e01b6001600160e01b03198316145b92915050565b600082815260656020526040902060010154610227816107ec565b61023183836107f9565b505050565b60006102627fb135194eb6d2f5c2d9f470dd768a93b254dd65c61cc336ba09f96be802815c613361079c565b61026e57506000919050565b6000807f00000000000000000000000000000000000000000000000000000000000000006001600160a01b0316638543d5e06040518163ffffffff1660e01b8152600401602060405180830381865afa1580156102cf573d6000803e3d6000fd5b505050506040513d601f19601f820116820180604052508101906102f39190610c40565b7f00000000000000000000000000000000000000000000000000000000000000006001600160a01b0316632efcc8666040518163ffffffff1660e01b8152600401602060405180830381865afa158015610351573d6000803e3d6000fd5b505050506040513d601f19601f820116820180604052508101906103759190610c40565b604051631c3536e760e01b815230600482015291935091506000906001600160a01b037f00000000000000000000000000000000000000000000000000000000000000001690631c3536e790602401602060405180830381865afa1580156103e1573d6000803e3d6000fd5b505050506040513d601f19601f820116820180604052508101906104059190610c40565b905061043885821186831802821883851161042f576104248585610c6f565b808218908211021890565b80151581021890565b604051632b0b3a6f60e21b81529094506001600160a01b037f0000000000000000000000000000000000000000000000000000000000000000169063ac2ce9bc9061048b90309033908990600401610c82565b600060405180830381600087803b1580156104a557600080fd5b505af11580156104b9573d6000803e3d6000fd5b50506040518681523392507f7ca99541067489556088f90866e8b06c593cd701ef2699ba7dd14e8c4ed7af27915060200160405180910390a2505050919050565b6001600160a01b038116331461056f5760405162461bcd60e51b815260206004820152602f60248201527f416363657373436f6e74726f6c3a2063616e206f6e6c792072656e6f756e636560448201526e103937b632b9903337b91039b2b63360891b60648201526084015b60405180910390fd5b610579828261087f565b5050565b600054610100900460ff161580801561059d5750600054600160ff909116105b806105b75750303b1580156105b7575060005460ff166001145b61061a5760405162461bcd60e51b815260206004820152602e60248201527f496e697469616c697a61626c653a20636f6e747261637420697320616c72656160448201526d191e481a5b9a5d1a585b1a5e995960921b6064820152608401610566565b6000805460ff19166001179055801561063d576000805461ff0019166101001790555b6106456108e6565b6106506000846107f9565b61067a7f2d833ec49cafc608728fafc0be86fa2f0cee77eff514966193e00cd61ef512e0836107f9565b8015610231576000805461ff0019169055604051600181527f7f26b83ff96e1f2b6a682f133852f6798a09c465da95921460cefb38474024989060200160405180910390a1505050565b7f2d833ec49cafc608728fafc0be86fa2f0cee77eff514966193e00cd61ef512e06106ee816107ec565b6001600160a01b038316610715576040516365aa50bb60e11b815260040160405180910390fd5b604051632b0b3a6f60e21b81526001600160a01b037f0000000000000000000000000000000000000000000000000000000000000000169063ac2ce9bc9061076590309087908790600401610c82565b600060405180830381600087803b15801561077f57600080fd5b505af1158015610793573d6000803e3d6000fd5b50505050505050565b60009182526065602090815260408084206001600160a01b0393909316845291905290205460ff1690565b6000828152606560205260409020600101546107e2816107ec565b610231838361087f565b6107f68133610953565b50565b610803828261079c565b6105795760008281526065602090815260408083206001600160a01b03851684529091529020805460ff1916600117905561083b3390565b6001600160a01b0316816001600160a01b0316837f2f8788117e7eff1d82e926ec794901d17c78024a50270940304540a733656f0d60405160405180910390a45050565b610889828261079c565b156105795760008281526065602090815260408083206001600160a01b0385168085529252808320805460ff1916905551339285917ff6391f5c32d9c69d2a47ea670b442974b53935d1edc7fd64eb21e047a839171b9190a45050565b600054610100900460ff166109515760405162461bcd60e51b815260206004820152602b60248201527f496e697469616c697a61626c653a20636f6e7472616374206973206e6f74206960448201526a6e697469616c697a696e6760a81b6064820152608401610566565b565b61095d828261079c565b6105795761096a816109ac565b6109758360206109be565b604051602001610986929190610cca565b60408051601f198184030181529082905262461bcd60e51b825261056691600401610d39565b60606102066001600160a01b03831660145b606060006109cd836002610d6c565b6109d8906002610d83565b67ffffffffffffffff8111156109f0576109f0610d96565b6040519080825280601f01601f191660200182016040528015610a1a576020820181803683370190505b509050600360fc1b81600081518110610a3557610a35610dac565b60200101906001600160f81b031916908160001a905350600f60fb1b81600181518110610a6457610a64610dac565b60200101906001600160f81b031916908160001a9053506000610a88846002610d6c565b610a93906001610d83565b90505b6001811115610b0b576f181899199a1a9b1b9c1cb0b131b232b360811b85600f1660108110610ac757610ac7610dac565b1a60f81b828281518110610add57610add610dac565b60200101906001600160f81b031916908160001a90535060049490941c93610b0481610dc2565b9050610a96565b508315610b5a5760405162461bcd60e51b815260206004820181905260248201527f537472696e67733a20686578206c656e67746820696e73756666696369656e746044820152606401610566565b9392505050565b600060208284031215610b7357600080fd5b81356001600160e01b031981168114610b5a57600080fd5b600060208284031215610b9d57600080fd5b5035919050565b80356001600160a01b0381168114610bbb57600080fd5b919050565b60008060408385031215610bd357600080fd5b82359150610be360208401610ba4565b90509250929050565b60008060408385031215610bff57600080fd5b610c0883610ba4565b9150610be360208401610ba4565b60008060408385031215610c2957600080fd5b610c3283610ba4565b946020939093013593505050565b600060208284031215610c5257600080fd5b5051919050565b634e487b7160e01b600052601160045260246000fd5b8181038181111561020657610206610c59565b6001600160a01b039384168152919092166020820152604081019190915260600190565b60005b83811015610cc1578181015183820152602001610ca9565b50506000910152565b76020b1b1b2b9b9a1b7b73a3937b61d1030b1b1b7bab73a1604d1b815260008351610cfc816017850160208801610ca6565b7001034b99036b4b9b9b4b733903937b6329607d1b6017918401918201528351610d2d816028840160208801610ca6565b01602801949350505050565b6020815260008251806020840152610d58816040850160208701610ca6565b601f01601f19169190910160400192915050565b808202811582820484141761020657610206610c59565b8082018082111561020657610206610c59565b634e487b7160e01b600052604160045260246000fd5b634e487b7160e01b600052603260045260246000fd5b600081610dd157610dd1610c59565b50600019019056fea2646970667358221220276816a9ce98f3e53d868fdc224be30f066d56340403bf290a6fcf405cd36cbd64736f6c63430008130033",
    "linkReferences": {}
  },
  "methodIdentifiers": {
    "DEFAULT_ADMIN_ROLE()": "a217fddf",
    "bailOut(uint256)": "2f437b74",
    "cdm()": "e2dfb317",
    "getRoleAdmin(bytes32)": "248a9ca3",
    "grantRole(bytes32,address)": "2f2ff15d",
    "hasRole(bytes32,address)": "91d14854",
    "initialize(address,address)": "485cc955",
    "renounceRole(bytes32,address)": "36568abe",
    "revokeRole(bytes32,address)": "d547741f",
    "supportsInterface(bytes4)": "01ffc9a7",
    "withdrawCredit(address,uint256)": "502b7469"
  },
  "id": 86
}