{
  "abi": [
    {
      "inputs": [
        {
          "internalType": "address",
          "name": "balancerVault_",
          "type": "address"
        }
      ],
      "stateMutability": "nonpayable",
      "type": "constructor"
    },
    {
      "inputs": [],
      "name": "JoinAction__join_unsupportedProtocol",
      "type": "error"
    },
    {
      "inputs": [],
      "name": "JoinAction__transferAndJoin_invalidPermitParams",
      "type": "error"
    },
    {
      "inputs": [
        {
          "components": [
            {
              "internalType": "enum JoinProtocol",
              "name": "protocol",
              "type": "uint8"
            },
            {
              "internalType": "bytes32",
              "name": "poolId",
              "type": "bytes32"
            },
            {
              "internalType": "address[]",
              "name": "assets",
              "type": "address[]"
            },
            {
              "internalType": "uint256[]",
              "name": "assetsIn",
              "type": "uint256[]"
            },
            {
              "internalType": "uint256[]",
              "name": "maxAmountsIn",
              "type": "uint256[]"
            },
            {
              "internalType": "uint256",
              "name": "minOut",
              "type": "uint256"
            },
            {
              "internalType": "address",
              "name": "recipient",
              "type": "address"
            }
          ],
          "internalType": "struct JoinParams",
          "name": "joinParams",
          "type": "tuple"
        }
      ],
      "name": "balancerJoin",
      "outputs": [],
      "stateMutability": "nonpayable",
      "type": "function"
    },
    {
      "inputs": [],
      "name": "balancerVault",
      "outputs": [
        {
          "internalType": "contract IVault",
          "name": "",
          "type": "address"
        }
      ],
      "stateMutability": "view",
      "type": "function"
    },
    {
      "inputs": [
        {
          "components": [
            {
              "internalType": "enum JoinProtocol",
              "name": "protocol",
              "type": "uint8"
            },
            {
              "internalType": "bytes32",
              "name": "poolId",
              "type": "bytes32"
            },
            {
              "internalType": "address[]",
              "name": "assets",
              "type": "address[]"
            },
            {
              "internalType": "uint256[]",
              "name": "assetsIn",
              "type": "uint256[]"
            },
            {
              "internalType": "uint256[]",
              "name": "maxAmountsIn",
              "type": "uint256[]"
            },
            {
              "internalType": "uint256",
              "name": "minOut",
              "type": "uint256"
            },
            {
              "internalType": "address",
              "name": "recipient",
              "type": "address"
            }
          ],
          "internalType": "struct JoinParams",
          "name": "joinParams",
          "type": "tuple"
        }
      ],
      "name": "join",
      "outputs": [],
      "stateMutability": "nonpayable",
      "type": "function"
    },
    {
      "inputs": [],
      "name": "permit2",
      "outputs": [
        {
          "internalType": "address",
          "name": "",
          "type": "address"
        }
      ],
      "stateMutability": "view",
      "type": "function"
    },
    {
      "inputs": [
        {
          "internalType": "address",
          "name": "from",
          "type": "address"
        },
        {
          "components": [
            {
              "internalType": "enum ApprovalType",
              "name": "approvalType",
              "type": "uint8"
            },
            {
              "internalType": "uint256",
              "name": "approvalAmount",
              "type": "uint256"
            },
            {
              "internalType": "uint256",
              "name": "nonce",
              "type": "uint256"
            },
            {
              "internalType": "uint256",
              "name": "deadline",
              "type": "uint256"
            },
            {
              "internalType": "uint8",
              "name": "v",
              "type": "uint8"
            },
            {
              "internalType": "bytes32",
              "name": "r",
              "type": "bytes32"
            },
            {
              "internalType": "bytes32",
              "name": "s",
              "type": "bytes32"
            }
          ],
          "internalType": "struct PermitParams[]",
          "name": "permitParams",
          "type": "tuple[]"
        },
        {
          "components": [
            {
              "internalType": "enum JoinProtocol",
              "name": "protocol",
              "type": "uint8"
            },
            {
              "internalType": "bytes32",
              "name": "poolId",
              "type": "bytes32"
            },
            {
              "internalType": "address[]",
              "name": "assets",
              "type": "address[]"
            },
            {
              "internalType": "uint256[]",
              "name": "assetsIn",
              "type": "uint256[]"
            },
            {
              "internalType": "uint256[]",
              "name": "maxAmountsIn",
              "type": "uint256[]"
            },
            {
              "internalType": "uint256",
              "name": "minOut",
              "type": "uint256"
            },
            {
              "internalType": "address",
              "name": "recipient",
              "type": "address"
            }
          ],
          "internalType": "struct JoinParams",
          "name": "joinParams",
          "type": "tuple"
        }
      ],
      "name": "transferAndJoin",
      "outputs": [],
      "stateMutability": "nonpayable",
      "type": "function"
    },
    {
      "inputs": [
        {
          "components": [
            {
              "internalType": "enum JoinProtocol",
              "name": "protocol",
              "type": "uint8"
            },
            {
              "internalType": "bytes32",
              "name": "poolId",
              "type": "bytes32"
            },
            {
              "internalType": "address[]",
              "name": "assets",
              "type": "address[]"
            },
            {
              "internalType": "uint256[]",
              "name": "assetsIn",
              "type": "uint256[]"
            },
            {
              "internalType": "uint256[]",
              "name": "maxAmountsIn",
              "type": "uint256[]"
            },
            {
              "internalType": "uint256",
              "name": "minOut",
              "type": "uint256"
            },
            {
              "internalType": "address",
              "name": "recipient",
              "type": "address"
            }
          ],
          "internalType": "struct JoinParams",
          "name": "joinParams",
          "type": "tuple"
        },
        {
          "internalType": "address",
          "name": "upFrontToken",
          "type": "address"
        },
        {
          "internalType": "address",
          "name": "joinToken",
          "type": "address"
        },
        {
          "internalType": "uint256",
          "name": "flashLoanAmount",
          "type": "uint256"
        },
        {
          "internalType": "uint256",
          "name": "upfrontAmount",
          "type": "uint256"
        }
      ],
      "name": "updateLeverJoin",
      "outputs": [
        {
          "components": [
            {
              "internalType": "enum JoinProtocol",
              "name": "protocol",
              "type": "uint8"
            },
            {
              "internalType": "bytes32",
              "name": "poolId",
              "type": "bytes32"
            },
            {
              "internalType": "address[]",
              "name": "assets",
              "type": "address[]"
            },
            {
              "internalType": "uint256[]",
              "name": "assetsIn",
              "type": "uint256[]"
            },
            {
              "internalType": "uint256[]",
              "name": "maxAmountsIn",
              "type": "uint256[]"
            },
            {
              "internalType": "uint256",
              "name": "minOut",
              "type": "uint256"
            },
            {
              "internalType": "address",
              "name": "recipient",
              "type": "address"
            }
          ],
          "internalType": "struct JoinParams",
          "name": "outParams",
          "type": "tuple"
        }
      ],
      "stateMutability": "pure",
      "type": "function"
    }
  ],
  "bytecode": {
    "object": "0x60a060405234801561001057600080fd5b506040516116c53803806116c583398101604081905261002f91610040565b6001600160a01b0316608052610070565b60006020828403121561005257600080fd5b81516001600160a01b038116811461006957600080fd5b9392505050565b60805161162d6100986000396000818160980152818161013001526103e7015261162d6000f3fe608060405234801561001057600080fd5b50600436106100625760003560e01c806312261ee714610067578063158274a51461009357806373f91709146100ba578063989e852c146100cf578063b91965ff146100ef578063c5c7cbe514610102575b600080fd5b61007d6e22d473030f116ddee9f6b43ac78ba381565b60405161008a9190610da2565b60405180910390f35b61007d7f000000000000000000000000000000000000000000000000000000000000000081565b6100cd6100c8366004611008565b610115565b005b6100e26100dd36600461103c565b610227565b60405161008a9190611135565b6100cd6100fd366004611008565b6103e5565b6100cd6101103660046111fb565b6104cb565b60008082518015610128576101286110ab565b0361015457507f000000000000000000000000000000000000000000000000000000000000000061016d565b6040516391a2b90360e01b815260040160405180910390fd5b60005b8260400151518110156102025782608001518181518110610193576101936112a5565b60200260200101516000146101fa576101fa82846080015183815181106101bc576101bc6112a5565b6020026020010151856040015184815181106101da576101da6112a5565b60200260200101516001600160a01b03166105f19092919063ffffffff16565b600101610170565b50600082518015610215576102156110ab565b0361022357610223826103e5565b5050565b6102676040805160e081019091528060008152600060208201819052606060408301819052808301819052608083015260a0820181905260c09091015290565b508460008651801561027b5761027b6110ab565b036103dc57604086015151606087015151811415600061029b85876112d1565b90506000826102ab5760006102ae565b60015b60ff1690505b838110156103d7576000836102ca5760006102cd565b60015b6102da9060ff16836112e4565b9050896001600160a01b03168b6040015183815181106102fc576102fc6112a5565b60200260200101516001600160a01b03160361035e578286608001518381518110610329576103296112a5565b602002602001018181525050828660600151828151811061034c5761034c6112a5565b602002602001018181525050506103d7565b8a604001518281518110610374576103746112a5565b60200260200101516001600160a01b0316896001600160a01b0316036103ce5787866080015183815181106103ab576103ab6112a5565b602002602001018181525050878660600151828151811061034c5761034c6112a5565b506001016102b4565b505050505b95945050505050565b7f00000000000000000000000000000000000000000000000000000000000000006001600160a01b031663b95cac288260200151308460c0015160405180608001604052808760400151815260200187608001518152602001600188606001518960a0015160405160200161045c939291906112f7565b6040516020818303038152906040528152602001600015158152506040518563ffffffff1660e01b81526004016104969493929190611380565b600060405180830381600087803b1580156104b057600080fd5b505af11580156104c4573d6000803e3d6000fd5b5050505050565b6001600160a01b03841630146105df57816104e96040830183611415565b90501461050957604051639d1d279560e01b815260040160405180910390fd5b60005b6105196040830183611415565b90508110156105dd5761052f6080830183611415565b8281811061053f5761053f6112a5565b905060200201356000146105d5576105d561055d6040840184611415565b8381811061056d5761056d6112a5565b90506020020160208101906105829190611465565b86306105916080870187611415565b868181106105a1576105a16112a5565b905060200201358888878181106105ba576105ba6112a5565b905060e002018036038101906105d09190611487565b6106b3565b60010161050c565b505b6105eb6100c882611508565b50505050565b604080516001600160a01b038416602482015260448082018490528251808303909101815260649091019091526020810180516001600160e01b031663095ea7b360e01b1790526106428482610877565b6105eb576040516001600160a01b0384166024820152600060448201526106a990859063095ea7b360e01b906064015b60408051601f198184030181529190526020810180516001600160e01b03166001600160e01b031990931692909217909152610920565b6105eb8482610920565b6002815160028111156106c8576106c86110ab565b036107f2576e22d473030f116ddee9f6b43ac78ba36001600160a01b03166330f28b7a604051806060016040528060405180604001604052808a6001600160a01b03168152602001866020015181525081526020018460400151815260200184606001518152506040518060400160405280876001600160a01b0316815260200186815250878560a001518660c00151876080015160f81b60405160200161078d9392919092835260208301919091526001600160f81b031916604082015260410190565b6040516020818303038152906040526040518563ffffffff1660e01b81526004016107bb9493929190611514565b600060405180830381600087803b1580156107d557600080fd5b505af11580156107e9573d6000803e3d6000fd5b505050506104c4565b600181516002811115610807576108076110ab565b036108625761084884848360200151846060015185608001518660a001518760c001518c6001600160a01b03166109ff90979695949392919063ffffffff16565b61085d6001600160a01b038616858585610bda565b6104c4565b6104c46001600160a01b038616858585610bda565b6000806000846001600160a01b031684604051610894919061158d565b6000604051808303816000865af19150503d80600081146108d1576040519150601f19603f3d011682016040523d82523d6000602084013e6108d6565b606091505b509150915081801561090057508051158061090057508080602001905181019061090091906115a9565b801561091557506001600160a01b0385163b15155b925050505b92915050565b6000610975826040518060400160405280602081526020017f5361666545524332303a206c6f772d6c6576656c2063616c6c206661696c6564815250856001600160a01b0316610c129092919063ffffffff16565b905080516000148061099657508080602001905181019061099691906115a9565b6109fa5760405162461bcd60e51b815260206004820152602a60248201527f5361666545524332303a204552433230206f7065726174696f6e20646964206e6044820152691bdd081cdd58d8d9595960b21b60648201526084015b60405180910390fd5b505050565b604051623f675f60e91b81526000906001600160a01b038a1690637ecebe0090610a2d908b90600401610da2565b602060405180830381865afa158015610a4a573d6000803e3d6000fd5b505050506040513d601f19601f82011682018060405250810190610a6e91906115cb565b60405163d505accf60e01b81526001600160a01b038a811660048301528981166024830152604482018990526064820188905260ff8716608483015260a4820186905260c48201859052919250908a169063d505accf9060e401600060405180830381600087803b158015610ae257600080fd5b505af1158015610af6573d6000803e3d6000fd5b5050604051623f675f60e91b8152600092506001600160a01b038c169150637ecebe0090610b28908c90600401610da2565b602060405180830381865afa158015610b45573d6000803e3d6000fd5b505050506040513d601f19601f82011682018060405250810190610b6991906115cb565b9050610b768260016112d1565b8114610bce5760405162461bcd60e51b815260206004820152602160248201527f5361666545524332303a207065726d697420646964206e6f74207375636365656044820152601960fa1b60648201526084016109f1565b50505050505050505050565b6040516001600160a01b03808516602483015283166044820152606481018290526105eb9085906323b872dd60e01b90608401610672565b6060610c218484600085610c29565b949350505050565b606082471015610c8a5760405162461bcd60e51b815260206004820152602660248201527f416464726573733a20696e73756666696369656e742062616c616e636520666f6044820152651c8818d85b1b60d21b60648201526084016109f1565b600080866001600160a01b03168587604051610ca6919061158d565b60006040518083038185875af1925050503d8060008114610ce3576040519150601f19603f3d011682016040523d82523d6000602084013e610ce8565b606091505b5091509150610cf987838387610d04565b979650505050505050565b60608315610d73578251600003610d6c576001600160a01b0385163b610d6c5760405162461bcd60e51b815260206004820152601d60248201527f416464726573733a2063616c6c20746f206e6f6e2d636f6e747261637400000060448201526064016109f1565b5081610c21565b610c218383815115610d885781518083602001fd5b8060405162461bcd60e51b81526004016109f191906115e4565b6001600160a01b0391909116815260200190565b634e487b7160e01b600052604160045260246000fd5b60405160e081016001600160401b0381118282101715610dee57610dee610db6565b60405290565b604051601f8201601f191681016001600160401b0381118282101715610e1c57610e1c610db6565b604052919050565b803560018110610e3357600080fd5b919050565b60006001600160401b03821115610e5157610e51610db6565b5060051b60200190565b80356001600160a01b0381168114610e3357600080fd5b600082601f830112610e8357600080fd5b81356020610e98610e9383610e38565b610df4565b82815260059290921b84018101918181019086841115610eb757600080fd5b8286015b84811015610ed957610ecc81610e5b565b8352918301918301610ebb565b509695505050505050565b600082601f830112610ef557600080fd5b81356020610f05610e9383610e38565b82815260059290921b84018101918181019086841115610f2457600080fd5b8286015b84811015610ed95780358352918301918301610f28565b600060e08284031215610f5157600080fd5b610f59610dcc565b9050610f6482610e24565b81526020820135602082015260408201356001600160401b0380821115610f8a57600080fd5b610f9685838601610e72565b60408401526060840135915080821115610faf57600080fd5b610fbb85838601610ee4565b60608401526080840135915080821115610fd457600080fd5b50610fe184828501610ee4565b60808301525060a082013560a0820152610ffd60c08301610e5b565b60c082015292915050565b60006020828403121561101a57600080fd5b81356001600160401b0381111561103057600080fd5b610c2184828501610f3f565b600080600080600060a0868803121561105457600080fd5b85356001600160401b0381111561106a57600080fd5b61107688828901610f3f565b95505061108560208701610e5b565b935061109360408701610e5b565b94979396509394606081013594506080013592915050565b634e487b7160e01b600052602160045260246000fd5b600081518084526020808501945080840160005b838110156110fa5781516001600160a01b0316875295820195908201906001016110d5565b509495945050505050565b600081518084526020808501945080840160005b838110156110fa57815187529582019590820190600101611119565b60208152600082516001811061114d5761114d6110ab565b8060208401525060208301516040830152604083015160e060608401526111786101008401826110c1565b90506060840151601f19808584030160808601526111968383611105565b925060808601519150808584030160a0860152506111b48282611105565b91505060a084015160c084015260c08401516111db60e08501826001600160a01b03169052565b509392505050565b600060e082840312156111f557600080fd5b50919050565b6000806000806060858703121561121157600080fd5b61121a85610e5b565b935060208501356001600160401b038082111561123657600080fd5b818701915087601f83011261124a57600080fd5b81358181111561125957600080fd5b88602060e08302850101111561126e57600080fd5b60208301955080945050604087013591508082111561128c57600080fd5b50611299878288016111e3565b91505092959194509250565b634e487b7160e01b600052603260045260246000fd5b634e487b7160e01b600052601160045260246000fd5b8082018082111561091a5761091a6112bb565b8181038181111561091a5761091a6112bb565b600060048510611309576113096110ab565b848252606060208301526113206060830185611105565b9050826040830152949350505050565b60005b8381101561134b578181015183820152602001611333565b50506000910152565b6000815180845261136c816020860160208601611330565b601f01601f19169290920160200192915050565b8481526001600160a01b038481166020830152831660408201526080606082018190528251818301919091526000906113bd6101008401826110c1565b90506020840151607f19808584030160a08601526113db8383611105565b925060408601519150808584030160c0860152506113f98282611354565b9150506060840151151560e08401528091505095945050505050565b6000808335601e1984360301811261142c57600080fd5b8301803591506001600160401b0382111561144657600080fd5b6020019150600581901b360382131561145e57600080fd5b9250929050565b60006020828403121561147757600080fd5b61148082610e5b565b9392505050565b600060e0828403121561149957600080fd5b6114a1610dcc565b8235600381106114b057600080fd5b80825250602083013560208201526040830135604082015260608301356060820152608083013560ff811681146114e657600080fd5b608082015260a0838101359082015260c0928301359281019290925250919050565b600061091a3683610f3f565b600061010061153783885180516001600160a01b03168252602090810151910152565b602087015160408401526040870151606084015261156b608084018780516001600160a01b03168252602090810151910152565b6001600160a01b03851660c084015260e08301819052610cf981840185611354565b6000825161159f818460208701611330565b9190910192915050565b6000602082840312156115bb57600080fd5b8151801515811461148057600080fd5b6000602082840312156115dd57600080fd5b5051919050565b602081526000611480602083018461135456fea264697066735822122097f459de753179580c3433a495ecf1d006d559910fd97ca93ab14449a416e0ee64736f6c63430008130033",
    "linkReferences": {}
  },
  "methodIdentifiers": {
    "balancerJoin((uint8,bytes32,address[],uint256[],uint256[],uint256,address))": "b91965ff",
    "balancerVault()": "158274a5",
    "join((uint8,bytes32,address[],uint256[],uint256[],uint256,address))": "73f91709",
    "permit2()": "12261ee7",
    "transferAndJoin(address,(uint8,uint256,uint256,uint256,uint8,bytes32,bytes32)[],(uint8,bytes32,address[],uint256[],uint256[],uint256,address))": "c5c7cbe5",
    "updateLeverJoin((uint8,bytes32,address[],uint256[],uint256[],uint256,address),address,address,uint256,uint256)": "989e852c"
  },
  "id": 122
}