{
  "abi": [
    {
      "inputs": [
        {
          "internalType": "address",
          "name": "flashlender_",
          "type": "address"
        },
        {
          "internalType": "address",
          "name": "swapAction_",
          "type": "address"
        },
        {
          "internalType": "address",
          "name": "PoolAction_",
          "type": "address"
        }
      ],
      "stateMutability": "nonpayable",
      "type": "constructor"
    },
    {
      "inputs": [],
      "name": "Action__revertBytes_emptyRevertBytes",
      "type": "error"
    },
    {
      "inputs": [],
      "name": "Math__toInt256_overflow",
      "type": "error"
    },
    {
      "inputs": [],
      "name": "PositionAction__borrow_InvalidAuxSwap",
      "type": "error"
    },
    {
      "inputs": [],
      "name": "PositionAction__decreaseLever_invalidAuxSwap",
      "type": "error"
    },
    {
      "inputs": [],
      "name": "PositionAction__decreaseLever_invalidPrimarySwap",
      "type": "error"
    },
    {
      "inputs": [],
      "name": "PositionAction__decreaseLever_invalidResidualRecipient",
      "type": "error"
    },
    {
      "inputs": [],
      "name": "PositionAction__delegateViaStablecoin_InvalidAuxSwap",
      "type": "error"
    },
    {
      "inputs": [],
      "name": "PositionAction__deposit_InvalidAuxSwap",
      "type": "error"
    },
    {
      "inputs": [],
      "name": "PositionAction__increaseLever_invalidAuxSwap",
      "type": "error"
    },
    {
      "inputs": [],
      "name": "PositionAction__increaseLever_invalidPrimarySwap",
      "type": "error"
    },
    {
      "inputs": [],
      "name": "PositionAction__onCreditFlashLoan__invalidSender",
      "type": "error"
    },
    {
      "inputs": [],
      "name": "PositionAction__onFlashLoan__invalidSender",
      "type": "error"
    },
    {
      "inputs": [],
      "name": "PositionAction__onlyDelegatecall",
      "type": "error"
    },
    {
      "inputs": [],
      "name": "PositionAction__repay_InvalidAuxSwap",
      "type": "error"
    },
    {
      "inputs": [],
      "name": "CALLBACK_SUCCESS",
      "outputs": [
        {
          "internalType": "bytes32",
          "name": "",
          "type": "bytes32"
        }
      ],
      "stateMutability": "view",
      "type": "function"
    },
    {
      "inputs": [],
      "name": "CALLBACK_SUCCESS_CREDIT",
      "outputs": [
        {
          "internalType": "bytes32",
          "name": "",
          "type": "bytes32"
        }
      ],
      "stateMutability": "view",
      "type": "function"
    },
    {
      "inputs": [
        {
          "internalType": "address",
          "name": "position",
          "type": "address"
        },
        {
          "internalType": "address",
          "name": "vault",
          "type": "address"
        },
        {
          "components": [
            {
              "internalType": "uint256",
              "name": "amount",
              "type": "uint256"
            },
            {
              "internalType": "address",
              "name": "creditor",
              "type": "address"
            },
            {
              "components": [
                {
                  "internalType": "enum SwapProtocol",
                  "name": "swapProtocol",
                  "type": "uint8"
                },
                {
                  "internalType": "enum SwapType",
                  "name": "swapType",
                  "type": "uint8"
                },
                {
                  "internalType": "address",
                  "name": "assetIn",
                  "type": "address"
                },
                {
                  "internalType": "uint256",
                  "name": "amount",
                  "type": "uint256"
                },
                {
                  "internalType": "uint256",
                  "name": "limit",
                  "type": "uint256"
                },
                {
                  "internalType": "address",
                  "name": "recipient",
                  "type": "address"
                },
                {
                  "internalType": "uint256",
                  "name": "deadline",
                  "type": "uint256"
                },
                {
                  "internalType": "bytes",
                  "name": "args",
                  "type": "bytes"
                }
              ],
              "internalType": "struct SwapParams",
              "name": "auxSwap",
              "type": "tuple"
            }
          ],
          "internalType": "struct CreditParams",
          "name": "creditParams",
          "type": "tuple"
        }
      ],
      "name": "borrow",
      "outputs": [],
      "stateMutability": "nonpayable",
      "type": "function"
    },
    {
      "inputs": [],
      "name": "cdm",
      "outputs": [
        {
          "internalType": "contract ICDM",
          "name": "",
          "type": "address"
        }
      ],
      "stateMutability": "view",
      "type": "function"
    },
    {
      "inputs": [
        {
          "components": [
            {
              "internalType": "address",
              "name": "position",
              "type": "address"
            },
            {
              "internalType": "address",
              "name": "vault",
              "type": "address"
            },
            {
              "internalType": "address",
              "name": "collateralToken",
              "type": "address"
            },
            {
              "components": [
                {
                  "internalType": "enum SwapProtocol",
                  "name": "swapProtocol",
                  "type": "uint8"
                },
                {
                  "internalType": "enum SwapType",
                  "name": "swapType",
                  "type": "uint8"
                },
                {
                  "internalType": "address",
                  "name": "assetIn",
                  "type": "address"
                },
                {
                  "internalType": "uint256",
                  "name": "amount",
                  "type": "uint256"
                },
                {
                  "internalType": "uint256",
                  "name": "limit",
                  "type": "uint256"
                },
                {
                  "internalType": "address",
                  "name": "recipient",
                  "type": "address"
                },
                {
                  "internalType": "uint256",
                  "name": "deadline",
                  "type": "uint256"
                },
                {
                  "internalType": "bytes",
                  "name": "args",
                  "type": "bytes"
                }
              ],
              "internalType": "struct SwapParams",
              "name": "primarySwap",
              "type": "tuple"
            },
            {
              "components": [
                {
                  "internalType": "enum SwapProtocol",
                  "name": "swapProtocol",
                  "type": "uint8"
                },
                {
                  "internalType": "enum SwapType",
                  "name": "swapType",
                  "type": "uint8"
                },
                {
                  "internalType": "address",
                  "name": "assetIn",
                  "type": "address"
                },
                {
                  "internalType": "uint256",
                  "name": "amount",
                  "type": "uint256"
                },
                {
                  "internalType": "uint256",
                  "name": "limit",
                  "type": "uint256"
                },
                {
                  "internalType": "address",
                  "name": "recipient",
                  "type": "address"
                },
                {
                  "internalType": "uint256",
                  "name": "deadline",
                  "type": "uint256"
                },
                {
                  "internalType": "bytes",
                  "name": "args",
                  "type": "bytes"
                }
              ],
              "internalType": "struct SwapParams",
              "name": "auxSwap",
              "type": "tuple"
            },
            {
              "components": [
                {
                  "internalType": "enum Protocol",
                  "name": "protocol",
                  "type": "uint8"
                },
                {
                  "internalType": "uint256",
                  "name": "minOut",
                  "type": "uint256"
                },
                {
                  "internalType": "address",
                  "name": "recipient",
                  "type": "address"
                },
                {
                  "internalType": "bytes",
                  "name": "args",
                  "type": "bytes"
                }
              ],
              "internalType": "struct PoolActionParams",
              "name": "auxAction",
              "type": "tuple"
            }
          ],
          "internalType": "struct LeverParams",
          "name": "leverParams",
          "type": "tuple"
        },
        {
          "internalType": "uint256",
          "name": "subCollateral",
          "type": "uint256"
        },
        {
          "internalType": "address",
          "name": "residualRecipient",
          "type": "address"
        }
      ],
      "name": "decreaseLever",
      "outputs": [],
      "stateMutability": "nonpayable",
      "type": "function"
    },
    {
      "inputs": [
        {
          "internalType": "address",
          "name": "position",
          "type": "address"
        },
        {
          "internalType": "address",
          "name": "vault",
          "type": "address"
        },
        {
          "components": [
            {
              "internalType": "address",
              "name": "targetToken",
              "type": "address"
            },
            {
              "internalType": "uint256",
              "name": "amount",
              "type": "uint256"
            },
            {
              "internalType": "address",
              "name": "collateralizer",
              "type": "address"
            },
            {
              "components": [
                {
                  "internalType": "enum SwapProtocol",
                  "name": "swapProtocol",
                  "type": "uint8"
                },
                {
                  "internalType": "enum SwapType",
                  "name": "swapType",
                  "type": "uint8"
                },
                {
                  "internalType": "address",
                  "name": "assetIn",
                  "type": "address"
                },
                {
                  "internalType": "uint256",
                  "name": "amount",
                  "type": "uint256"
                },
                {
                  "internalType": "uint256",
                  "name": "limit",
                  "type": "uint256"
                },
                {
                  "internalType": "address",
                  "name": "recipient",
                  "type": "address"
                },
                {
                  "internalType": "uint256",
                  "name": "deadline",
                  "type": "uint256"
                },
                {
                  "internalType": "bytes",
                  "name": "args",
                  "type": "bytes"
                }
              ],
              "internalType": "struct SwapParams",
              "name": "auxSwap",
              "type": "tuple"
            }
          ],
          "internalType": "struct CollateralParams",
          "name": "collateralParams",
          "type": "tuple"
        },
        {
          "components": [
            {
              "internalType": "enum ApprovalType",
              "name": "approvalType",
              "type": "uint8"
            },
            {
              "internalType": "uint256",
              "name": "approvalAmount",
              "type": "uint256"
            },
            {
              "internalType": "uint256",
              "name": "nonce",
              "type": "uint256"
            },
            {
              "internalType": "uint256",
              "name": "deadline",
              "type": "uint256"
            },
            {
              "internalType": "uint8",
              "name": "v",
              "type": "uint8"
            },
            {
              "internalType": "bytes32",
              "name": "r",
              "type": "bytes32"
            },
            {
              "internalType": "bytes32",
              "name": "s",
              "type": "bytes32"
            }
          ],
          "internalType": "struct PermitParams",
          "name": "permitParams",
          "type": "tuple"
        }
      ],
      "name": "deposit",
      "outputs": [],
      "stateMutability": "nonpayable",
      "type": "function"
    },
    {
      "inputs": [
        {
          "internalType": "address",
          "name": "position",
          "type": "address"
        },
        {
          "internalType": "address",
          "name": "vault",
          "type": "address"
        },
        {
          "components": [
            {
              "internalType": "address",
              "name": "targetToken",
              "type": "address"
            },
            {
              "internalType": "uint256",
              "name": "amount",
              "type": "uint256"
            },
            {
              "internalType": "address",
              "name": "collateralizer",
              "type": "address"
            },
            {
              "components": [
                {
                  "internalType": "enum SwapProtocol",
                  "name": "swapProtocol",
                  "type": "uint8"
                },
                {
                  "internalType": "enum SwapType",
                  "name": "swapType",
                  "type": "uint8"
                },
                {
                  "internalType": "address",
                  "name": "assetIn",
                  "type": "address"
                },
                {
                  "internalType": "uint256",
                  "name": "amount",
                  "type": "uint256"
                },
                {
                  "internalType": "uint256",
                  "name": "limit",
                  "type": "uint256"
                },
                {
                  "internalType": "address",
                  "name": "recipient",
                  "type": "address"
                },
                {
                  "internalType": "uint256",
                  "name": "deadline",
                  "type": "uint256"
                },
                {
                  "internalType": "bytes",
                  "name": "args",
                  "type": "bytes"
                }
              ],
              "internalType": "struct SwapParams",
              "name": "auxSwap",
              "type": "tuple"
            }
          ],
          "internalType": "struct CollateralParams",
          "name": "collateralParams",
          "type": "tuple"
        },
        {
          "components": [
            {
              "internalType": "uint256",
              "name": "amount",
              "type": "uint256"
            },
            {
              "internalType": "address",
              "name": "creditor",
              "type": "address"
            },
            {
              "components": [
                {
                  "internalType": "enum SwapProtocol",
                  "name": "swapProtocol",
                  "type": "uint8"
                },
                {
                  "internalType": "enum SwapType",
                  "name": "swapType",
                  "type": "uint8"
                },
                {
                  "internalType": "address",
                  "name": "assetIn",
                  "type": "address"
                },
                {
                  "internalType": "uint256",
                  "name": "amount",
                  "type": "uint256"
                },
                {
                  "internalType": "uint256",
                  "name": "limit",
                  "type": "uint256"
                },
                {
                  "internalType": "address",
                  "name": "recipient",
                  "type": "address"
                },
                {
                  "internalType": "uint256",
                  "name": "deadline",
                  "type": "uint256"
                },
                {
                  "internalType": "bytes",
                  "name": "args",
                  "type": "bytes"
                }
              ],
              "internalType": "struct SwapParams",
              "name": "auxSwap",
              "type": "tuple"
            }
          ],
          "internalType": "struct CreditParams",
          "name": "creditParams",
          "type": "tuple"
        },
        {
          "components": [
            {
              "internalType": "enum ApprovalType",
              "name": "approvalType",
              "type": "uint8"
            },
            {
              "internalType": "uint256",
              "name": "approvalAmount",
              "type": "uint256"
            },
            {
              "internalType": "uint256",
              "name": "nonce",
              "type": "uint256"
            },
            {
              "internalType": "uint256",
              "name": "deadline",
              "type": "uint256"
            },
            {
              "internalType": "uint8",
              "name": "v",
              "type": "uint8"
            },
            {
              "internalType": "bytes32",
              "name": "r",
              "type": "bytes32"
            },
            {
              "internalType": "bytes32",
              "name": "s",
              "type": "bytes32"
            }
          ],
          "internalType": "struct PermitParams",
          "name": "permitParams",
          "type": "tuple"
        }
      ],
      "name": "depositAndBorrow",
      "outputs": [],
      "stateMutability": "nonpayable",
      "type": "function"
    },
    {
      "inputs": [],
      "name": "flashlender",
      "outputs": [
        {
          "internalType": "contract IFlashlender",
          "name": "",
          "type": "address"
        }
      ],
      "stateMutability": "view",
      "type": "function"
    },
    {
      "inputs": [
        {
          "components": [
            {
              "internalType": "address",
              "name": "position",
              "type": "address"
            },
            {
              "internalType": "address",
              "name": "vault",
              "type": "address"
            },
            {
              "internalType": "address",
              "name": "collateralToken",
              "type": "address"
            },
            {
              "components": [
                {
                  "internalType": "enum SwapProtocol",
                  "name": "swapProtocol",
                  "type": "uint8"
                },
                {
                  "internalType": "enum SwapType",
                  "name": "swapType",
                  "type": "uint8"
                },
                {
                  "internalType": "address",
                  "name": "assetIn",
                  "type": "address"
                },
                {
                  "internalType": "uint256",
                  "name": "amount",
                  "type": "uint256"
                },
                {
                  "internalType": "uint256",
                  "name": "limit",
                  "type": "uint256"
                },
                {
                  "internalType": "address",
                  "name": "recipient",
                  "type": "address"
                },
                {
                  "internalType": "uint256",
                  "name": "deadline",
                  "type": "uint256"
                },
                {
                  "internalType": "bytes",
                  "name": "args",
                  "type": "bytes"
                }
              ],
              "internalType": "struct SwapParams",
              "name": "primarySwap",
              "type": "tuple"
            },
            {
              "components": [
                {
                  "internalType": "enum SwapProtocol",
                  "name": "swapProtocol",
                  "type": "uint8"
                },
                {
                  "internalType": "enum SwapType",
                  "name": "swapType",
                  "type": "uint8"
                },
                {
                  "internalType": "address",
                  "name": "assetIn",
                  "type": "address"
                },
                {
                  "internalType": "uint256",
                  "name": "amount",
                  "type": "uint256"
                },
                {
                  "internalType": "uint256",
                  "name": "limit",
                  "type": "uint256"
                },
                {
                  "internalType": "address",
                  "name": "recipient",
                  "type": "address"
                },
                {
                  "internalType": "uint256",
                  "name": "deadline",
                  "type": "uint256"
                },
                {
                  "internalType": "bytes",
                  "name": "args",
                  "type": "bytes"
                }
              ],
              "internalType": "struct SwapParams",
              "name": "auxSwap",
              "type": "tuple"
            },
            {
              "components": [
                {
                  "internalType": "enum Protocol",
                  "name": "protocol",
                  "type": "uint8"
                },
                {
                  "internalType": "uint256",
                  "name": "minOut",
                  "type": "uint256"
                },
                {
                  "internalType": "address",
                  "name": "recipient",
                  "type": "address"
                },
                {
                  "internalType": "bytes",
                  "name": "args",
                  "type": "bytes"
                }
              ],
              "internalType": "struct PoolActionParams",
              "name": "auxAction",
              "type": "tuple"
            }
          ],
          "internalType": "struct LeverParams",
          "name": "leverParams",
          "type": "tuple"
        },
        {
          "internalType": "address",
          "name": "upFrontToken",
          "type": "address"
        },
        {
          "internalType": "uint256",
          "name": "upFrontAmount",
          "type": "uint256"
        },
        {
          "internalType": "address",
          "name": "collateralizer",
          "type": "address"
        },
        {
          "components": [
            {
              "internalType": "enum ApprovalType",
              "name": "approvalType",
              "type": "uint8"
            },
            {
              "internalType": "uint256",
              "name": "approvalAmount",
              "type": "uint256"
            },
            {
              "internalType": "uint256",
              "name": "nonce",
              "type": "uint256"
            },
            {
              "internalType": "uint256",
              "name": "deadline",
              "type": "uint256"
            },
            {
              "internalType": "uint8",
              "name": "v",
              "type": "uint8"
            },
            {
              "internalType": "bytes32",
              "name": "r",
              "type": "bytes32"
            },
            {
              "internalType": "bytes32",
              "name": "s",
              "type": "bytes32"
            }
          ],
          "internalType": "struct PermitParams",
          "name": "permitParams",
          "type": "tuple"
        }
      ],
      "name": "increaseLever",
      "outputs": [],
      "stateMutability": "nonpayable",
      "type": "function"
    },
    {
      "inputs": [],
      "name": "minter",
      "outputs": [
        {
          "internalType": "contract IMinter",
          "name": "",
          "type": "address"
        }
      ],
      "stateMutability": "view",
      "type": "function"
    },
    {
      "inputs": [
        {
          "internalType": "address[]",
          "name": "targets",
          "type": "address[]"
        },
        {
          "internalType": "bytes[]",
          "name": "data",
          "type": "bytes[]"
        },
        {
          "internalType": "bool[]",
          "name": "delegateCall",
          "type": "bool[]"
        }
      ],
      "name": "multisend",
      "outputs": [],
      "stateMutability": "nonpayable",
      "type": "function"
    },
    {
      "inputs": [
        {
          "internalType": "address",
          "name": "",
          "type": "address"
        },
        {
          "internalType": "uint256",
          "name": "",
          "type": "uint256"
        },
        {
          "internalType": "uint256",
          "name": "",
          "type": "uint256"
        },
        {
          "internalType": "bytes",
          "name": "data",
          "type": "bytes"
        }
      ],
      "name": "onCreditFlashLoan",
      "outputs": [
        {
          "internalType": "bytes32",
          "name": "",
          "type": "bytes32"
        }
      ],
      "stateMutability": "nonpayable",
      "type": "function"
    },
    {
      "inputs": [
        {
          "internalType": "address",
          "name": "",
          "type": "address"
        },
        {
          "internalType": "address",
          "name": "",
          "type": "address"
        },
        {
          "internalType": "uint256",
          "name": "",
          "type": "uint256"
        },
        {
          "internalType": "uint256",
          "name": "",
          "type": "uint256"
        },
        {
          "internalType": "bytes",
          "name": "data",
          "type": "bytes"
        }
      ],
      "name": "onFlashLoan",
      "outputs": [
        {
          "internalType": "bytes32",
          "name": "",
          "type": "bytes32"
        }
      ],
      "stateMutability": "nonpayable",
      "type": "function"
    },
    {
      "inputs": [],
      "name": "permit2",
      "outputs": [
        {
          "internalType": "address",
          "name": "",
          "type": "address"
        }
      ],
      "stateMutability": "view",
      "type": "function"
    },
    {
      "inputs": [],
      "name": "poolAction",
      "outputs": [
        {
          "internalType": "contract PoolAction",
          "name": "",
          "type": "address"
        }
      ],
      "stateMutability": "view",
      "type": "function"
    },
    {
      "inputs": [
        {
          "internalType": "address",
          "name": "position",
          "type": "address"
        },
        {
          "internalType": "address",
          "name": "vault",
          "type": "address"
        },
        {
          "components": [
            {
              "internalType": "uint256",
              "name": "amount",
              "type": "uint256"
            },
            {
              "internalType": "address",
              "name": "creditor",
              "type": "address"
            },
            {
              "components": [
                {
                  "internalType": "enum SwapProtocol",
                  "name": "swapProtocol",
                  "type": "uint8"
                },
                {
                  "internalType": "enum SwapType",
                  "name": "swapType",
                  "type": "uint8"
                },
                {
                  "internalType": "address",
                  "name": "assetIn",
                  "type": "address"
                },
                {
                  "internalType": "uint256",
                  "name": "amount",
                  "type": "uint256"
                },
                {
                  "internalType": "uint256",
                  "name": "limit",
                  "type": "uint256"
                },
                {
                  "internalType": "address",
                  "name": "recipient",
                  "type": "address"
                },
                {
                  "internalType": "uint256",
                  "name": "deadline",
                  "type": "uint256"
                },
                {
                  "internalType": "bytes",
                  "name": "args",
                  "type": "bytes"
                }
              ],
              "internalType": "struct SwapParams",
              "name": "auxSwap",
              "type": "tuple"
            }
          ],
          "internalType": "struct CreditParams",
          "name": "creditParams",
          "type": "tuple"
        },
        {
          "components": [
            {
              "internalType": "enum ApprovalType",
              "name": "approvalType",
              "type": "uint8"
            },
            {
              "internalType": "uint256",
              "name": "approvalAmount",
              "type": "uint256"
            },
            {
              "internalType": "uint256",
              "name": "nonce",
              "type": "uint256"
            },
            {
              "internalType": "uint256",
              "name": "deadline",
              "type": "uint256"
            },
            {
              "internalType": "uint8",
              "name": "v",
              "type": "uint8"
            },
            {
              "internalType": "bytes32",
              "name": "r",
              "type": "bytes32"
            },
            {
              "internalType": "bytes32",
              "name": "s",
              "type": "bytes32"
            }
          ],
          "internalType": "struct PermitParams",
          "name": "permitParams",
          "type": "tuple"
        }
      ],
      "name": "repay",
      "outputs": [],
      "stateMutability": "nonpayable",
      "type": "function"
    },
    {
      "inputs": [],
      "name": "self",
      "outputs": [
        {
          "internalType": "address",
          "name": "",
          "type": "address"
        }
      ],
      "stateMutability": "view",
      "type": "function"
    },
    {
      "inputs": [],
      "name": "stablecoin",
      "outputs": [
        {
          "internalType": "contract IStablecoin",
          "name": "",
          "type": "address"
        }
      ],
      "stateMutability": "view",
      "type": "function"
    },
    {
      "inputs": [],
      "name": "swapAction",
      "outputs": [
        {
          "internalType": "contract SwapAction",
          "name": "",
          "type": "address"
        }
      ],
      "stateMutability": "view",
      "type": "function"
    },
    {
      "inputs": [
        {
          "internalType": "address",
          "name": "position",
          "type": "address"
        },
        {
          "internalType": "address",
          "name": "vault",
          "type": "address"
        },
        {
          "components": [
            {
              "internalType": "address",
              "name": "targetToken",
              "type": "address"
            },
            {
              "internalType": "uint256",
              "name": "amount",
              "type": "uint256"
            },
            {
              "internalType": "address",
              "name": "collateralizer",
              "type": "address"
            },
            {
              "components": [
                {
                  "internalType": "enum SwapProtocol",
                  "name": "swapProtocol",
                  "type": "uint8"
                },
                {
                  "internalType": "enum SwapType",
                  "name": "swapType",
                  "type": "uint8"
                },
                {
                  "internalType": "address",
                  "name": "assetIn",
                  "type": "address"
                },
                {
                  "internalType": "uint256",
                  "name": "amount",
                  "type": "uint256"
                },
                {
                  "internalType": "uint256",
                  "name": "limit",
                  "type": "uint256"
                },
                {
                  "internalType": "address",
                  "name": "recipient",
                  "type": "address"
                },
                {
                  "internalType": "uint256",
                  "name": "deadline",
                  "type": "uint256"
                },
                {
                  "internalType": "bytes",
                  "name": "args",
                  "type": "bytes"
                }
              ],
              "internalType": "struct SwapParams",
              "name": "auxSwap",
              "type": "tuple"
            }
          ],
          "internalType": "struct CollateralParams",
          "name": "collateralParams",
          "type": "tuple"
        }
      ],
      "name": "withdraw",
      "outputs": [],
      "stateMutability": "nonpayable",
      "type": "function"
    },
    {
      "inputs": [
        {
          "internalType": "address",
          "name": "position",
          "type": "address"
        },
        {
          "internalType": "address",
          "name": "vault",
          "type": "address"
        },
        {
          "components": [
            {
              "internalType": "address",
              "name": "targetToken",
              "type": "address"
            },
            {
              "internalType": "uint256",
              "name": "amount",
              "type": "uint256"
            },
            {
              "internalType": "address",
              "name": "collateralizer",
              "type": "address"
            },
            {
              "components": [
                {
                  "internalType": "enum SwapProtocol",
                  "name": "swapProtocol",
                  "type": "uint8"
                },
                {
                  "internalType": "enum SwapType",
                  "name": "swapType",
                  "type": "uint8"
                },
                {
                  "internalType": "address",
                  "name": "assetIn",
                  "type": "address"
                },
                {
                  "internalType": "uint256",
                  "name": "amount",
                  "type": "uint256"
                },
                {
                  "internalType": "uint256",
                  "name": "limit",
                  "type": "uint256"
                },
                {
                  "internalType": "address",
                  "name": "recipient",
                  "type": "address"
                },
                {
                  "internalType": "uint256",
                  "name": "deadline",
                  "type": "uint256"
                },
                {
                  "internalType": "bytes",
                  "name": "args",
                  "type": "bytes"
                }
              ],
              "internalType": "struct SwapParams",
              "name": "auxSwap",
              "type": "tuple"
            }
          ],
          "internalType": "struct CollateralParams",
          "name": "collateralParams",
          "type": "tuple"
        },
        {
          "components": [
            {
              "internalType": "uint256",
              "name": "amount",
              "type": "uint256"
            },
            {
              "internalType": "address",
              "name": "creditor",
              "type": "address"
            },
            {
              "components": [
                {
                  "internalType": "enum SwapProtocol",
                  "name": "swapProtocol",
                  "type": "uint8"
                },
                {
                  "internalType": "enum SwapType",
                  "name": "swapType",
                  "type": "uint8"
                },
                {
                  "internalType": "address",
                  "name": "assetIn",
                  "type": "address"
                },
                {
                  "internalType": "uint256",
                  "name": "amount",
                  "type": "uint256"
                },
                {
                  "internalType": "uint256",
                  "name": "limit",
                  "type": "uint256"
                },
                {
                  "internalType": "address",
                  "name": "recipient",
                  "type": "address"
                },
                {
                  "internalType": "uint256",
                  "name": "deadline",
                  "type": "uint256"
                },
                {
                  "internalType": "bytes",
                  "name": "args",
                  "type": "bytes"
                }
              ],
              "internalType": "struct SwapParams",
              "name": "auxSwap",
              "type": "tuple"
            }
          ],
          "internalType": "struct CreditParams",
          "name": "creditParams",
          "type": "tuple"
        },
        {
          "components": [
            {
              "internalType": "enum ApprovalType",
              "name": "approvalType",
              "type": "uint8"
            },
            {
              "internalType": "uint256",
              "name": "approvalAmount",
              "type": "uint256"
            },
            {
              "internalType": "uint256",
              "name": "nonce",
              "type": "uint256"
            },
            {
              "internalType": "uint256",
              "name": "deadline",
              "type": "uint256"
            },
            {
              "internalType": "uint8",
              "name": "v",
              "type": "uint8"
            },
            {
              "internalType": "bytes32",
              "name": "r",
              "type": "bytes32"
            },
            {
              "internalType": "bytes32",
              "name": "s",
              "type": "bytes32"
            }
          ],
          "internalType": "struct PermitParams",
          "name": "permitParams",
          "type": "tuple"
        }
      ],
      "name": "withdrawAndRepay",
      "outputs": [],
      "stateMutability": "nonpayable",
      "type": "function"
    }
  ],
  "bytecode": {
    "object": "0x6101606040523480156200001257600080fd5b5060405162004a2438038062004a248339810160408190526200003591620002c5565b828282826001600160a01b031660a0816001600160a01b03168152505060a0516001600160a01b031663e9cbd8226040518163ffffffff1660e01b8152600401602060405180830381865afa15801562000093573d6000803e3d6000fd5b505050506040513d601f19601f82011682018060405250810190620000b9919062000319565b6001600160a01b031660c0816001600160a01b03168152505060a0516001600160a01b031663075461726040518163ffffffff1660e01b8152600401602060405180830381865afa15801562000113573d6000803e3d6000fd5b505050506040513d601f19601f8201168201806040525081019062000139919062000319565b6001600160a01b031660e0816001600160a01b03168152505060a0516001600160a01b031663e2dfb3176040518163ffffffff1660e01b8152600401602060405180830381865afa15801562000193573d6000803e3d6000fd5b505050506040513d601f19601f82011682018060405250810190620001b9919062000319565b6001600160a01b0390811660808190523061010052838216610120528282166101405260e05160405163d9c70f5760e01b815292166004830152600160248301529063d9c70f5790604401600060405180830381600087803b1580156200021f57600080fd5b505af115801562000234573d6000803e3d6000fd5b505060805160405163d9c70f5760e01b81526001600160a01b03878116600483015260016024830152909116925063d9c70f579150604401600060405180830381600087803b1580156200028757600080fd5b505af11580156200029c573d6000803e3d6000fd5b5050505050505050505062000340565b6001600160a01b0381168114620002c257600080fd5b50565b600080600060608486031215620002db57600080fd5b8351620002e881620002ac565b6020850151909350620002fb81620002ac565b60408501519092506200030e81620002ac565b809150509250925092565b6000602082840312156200032c57600080fd5b81516200033981620002ac565b9392505050565b60805160a05160c05160e0516101005161012051610140516144f36200053160003960006102ff0152600081816102b1015281816106ac015281816108ac015281816109bf01528181610a1c015281816126dd015281816127790152612ab4015260008181610250015281816103b201528181610c9a01528181610d7601528181610e8d01528181610f1a01528181610f4b01528181610fac01528181611050015281816111550152818161119e0152818161128e01528181611365015281816114340152818161162e015281816116b001528181611824015281816118c8015281816119ab01528181611a220152611c00015260008181610156015281816107940152818161082001528181610b360152818161238201528181612419015281816124ea0152818161255a0152818161260a015281816129c80152612a4d0152600081816103260152818161076701528181610bbc01528181610d1c015281816110710152818161266f01528181612941015261299b015260008181610360015281816104830152818161094b01528181610bf101528181611025015261189d0152600081816102d8015281816105220152818161063901528181611496015281816115a401528181611c6201528181611d5f01528181612353015281816124b901526125d901526144f36000f3fe608060405234801561001057600080fd5b50600436106101375760003560e01c80637104ddb2116100b8578063e3008e5a1161007c578063e3008e5a146102fa578063e9cbd82214610321578063ede2bf5f14610348578063ee58918a1461035b578063f38584e014610382578063faa994051461039557600080fd5b80637104ddb21461024b5780638237e5381461027257806396c2c40814610299578063a888828b146102ac578063e2dfb317146102d357600080fd5b806323e30c8b116100ff57806323e30c8b146101ec578063301a1131146101ff5780634ad4d4ad1461021257806356415a90146102255780636c7470571461023857600080fd5b80630567d4b11461013c57806307546172146101515780630f13be2a1461018e57806312261ee7146101c357806316d8f165146101d9575b600080fd5b61014f61014a3660046133b6565b6103a8565b005b6101787f000000000000000000000000000000000000000000000000000000000000000081565b604051610185919061342a565b60405180910390f35b6101b57f24ea9631d6c6b69006fd9fa411bb9c8909638fd1d178dd2f1d231dca3e3e4d7981565b604051908152602001610185565b6101786e22d473030f116ddee9f6b43ac78ba381565b6101b56101e7366004613486565b610476565b6101b56101fa3660046134ef565b61093e565b61014f61020d36600461357c565b610c90565b61014f61022036600461360c565b611194565b61014f61023336600461369b565b611284565b61014f6102463660046136fc565b61135b565b6101787f000000000000000000000000000000000000000000000000000000000000000081565b6101b57f439148f0bbc682ca079e46d6e2c2f0c1e3b820f1a291b069d8882abf8cf18dd981565b61014f6102a736600461360c565b61142a565b6101787f000000000000000000000000000000000000000000000000000000000000000081565b6101787f000000000000000000000000000000000000000000000000000000000000000081565b6101787f000000000000000000000000000000000000000000000000000000000000000081565b6101787f000000000000000000000000000000000000000000000000000000000000000081565b61014f610356366004613753565b611624565b6101787f000000000000000000000000000000000000000000000000000000000000000081565b61014f6103903660046137f1565b611a18565b61014f6103a3366004613878565b611bf6565b6001600160a01b037f00000000000000000000000000000000000000000000000000000000000000001630036103f15760405163f46a288f60e01b815260040160405180910390fd5b60006103fe848484611dc9565b9050836001600160a01b031663c75a4b5e86303061041b86611f2a565b60006040518663ffffffff1660e01b815260040161043d9594939291906138d1565b600060405180830381600087803b15801561045757600080fd5b505af115801561046b573d6000803e3d6000fd5b505050505050505050565b6000336001600160a01b037f000000000000000000000000000000000000000000000000000000000000000016146104c1576040516351b8314560e11b815260040160405180910390fd5b600080806104d185870187613c14565b92509250925060006104f484602001518560000151866060015160600151611f54565b602085015160405163d9c70f5760e01b81526001600160a01b039182166004820152600160248201529192507f0000000000000000000000000000000000000000000000000000000000000000169063d9c70f5790604401600060405180830381600087803b15801561056657600080fd5b505af115801561057a573d6000803e3d6000fd5b5050505083602001516001600160a01b031663c75a4b5e856000015130306105a188611f2a565b6105aa90613c61565b6105b387611f2a565b6105bc90613c61565b6040518663ffffffff1660e01b81526004016105dc9594939291906138d1565b600060405180830381600087803b1580156105f657600080fd5b505af115801561060a573d6000803e3d6000fd5b50505050602084015160405163d9c70f5760e01b81526001600160a01b039182166004820152600060248201527f00000000000000000000000000000000000000000000000000000000000000009091169063d9c70f5790604401600060405180830381600087803b15801561067f57600080fd5b505af1158015610693573d6000803e3d6000fd5b5050505060006106a38585611fe0565b9050600061071f7f00000000000000000000000000000000000000000000000000000000000000006346caab3460e01b88606001516040516024016106e89190613cf3565b60408051601f198184030181529190526020810180516001600160e01b03166001600160e01b031990931692909217909152611ffb565b90506000818060200190518101906107379190613d87565b905060006107458285613da0565b6060808a0151015160405163095ea7b360e01b81529192506001600160a01b037f0000000000000000000000000000000000000000000000000000000000000000169163095ea7b3916107bd917f00000000000000000000000000000000000000000000000000000000000000009190600401613db3565b6020604051808303816000875af11580156107dc573d6000803e3d6000fd5b505050506040513d601f19601f820116820180604052508101906108009190613dda565b506060808901510151604051637e348b7d60e01b81526001600160a01b037f00000000000000000000000000000000000000000000000000000000000000001691637e348b7d91610855913091600401613db3565b600060405180830381600087803b15801561086f57600080fd5b505af1158015610883573d6000803e3d6000fd5b50505050600081111561090b576080880151604001516001600160a01b0316156108ee576108e87f00000000000000000000000000000000000000000000000000000000000000006346caab3460e01b8a608001516040516024016106e89190613cf3565b5061090b565b60608801516040015161090b906001600160a01b03168783612073565b507f24ea9631d6c6b69006fd9fa411bb9c8909638fd1d178dd2f1d231dca3e3e4d799d9c50505050505050505050505050565b6000336001600160a01b037f00000000000000000000000000000000000000000000000000000000000000001614610989576040516309436d0560e01b815260040160405180910390fd5b6000808061099985870187613df7565b60808301516040015192955090935091506001600160a01b031615610a155760006109fb7f00000000000000000000000000000000000000000000000000000000000000006346caab3460e01b86608001516040516024016106e89190613cf3565b905080806020019051810190610a119190613d87565b9150505b6000610a587f00000000000000000000000000000000000000000000000000000000000000006346caab3460e01b86606001516040516024016106e89190613cf3565b9050600081806020019051810190610a709190613d87565b90506000610a80868686856120ce565b90506000610a9f87602001518860000151896060015160600151611f54565b905086602001516001600160a01b031663c75a4b5e88600001513030610ac487611f2a565b610acd87611f2a565b6040518663ffffffff1660e01b8152600401610aed9594939291906138d1565b600060405180830381600087803b158015610b0757600080fd5b505af1158015610b1b573d6000803e3d6000fd5b50505050606087810151015160405163ef693bed60e01b81527f00000000000000000000000000000000000000000000000000000000000000006001600160a01b03169163ef693bed91610b73913091600401613db3565b600060405180830381600087803b158015610b8d57600080fd5b505af1158015610ba1573d6000803e3d6000fd5b50505050606087810151015160405163095ea7b360e01b81527f00000000000000000000000000000000000000000000000000000000000000006001600160a01b03169163095ea7b391610c19917f000000000000000000000000000000000000000000000000000000000000000091600401613db3565b6020604051808303816000875af1158015610c38573d6000803e3d6000fd5b505050506040513d601f19601f82011682018060405250810190610c5c9190613dda565b507f439148f0bbc682ca079e46d6e2c2f0c1e3b820f1a291b069d8882abf8cf18dd99e9d5050505050505050505050505050565b6001600160a01b037f0000000000000000000000000000000000000000000000000000000000000000163003610cd95760405163f46a288f60e01b815260040160405180910390fd5b6000610ce86060870187613e50565b610cf9906040810190602001613e70565b6001811115610d0a57610d0a613c7d565b141580610d6657506001600160a01b037f000000000000000000000000000000000000000000000000000000000000000016610d496060870187613e50565b610d5a906060810190604001613e8d565b6001600160a01b031614155b80610dc057506001600160a01b037f000000000000000000000000000000000000000000000000000000000000000016610da36060870187613e50565b610db49060c081019060a001613e8d565b6001600160a01b031614155b15610dde576040516304286a2760e01b815260040160405180910390fd5b6000610ded6080870187613e50565b610dfe906060810190604001613e8d565b6001600160a01b031614158015610ed757506000610e1f6080870187613e50565b610e30906040810190602001613e70565b6001811115610e4157610e41613c7d565b141580610e7d57506001600160a01b038416610e606080870187613e50565b610e71906060810190604001613e8d565b6001600160a01b031614155b80610ed757506001600160a01b037f000000000000000000000000000000000000000000000000000000000000000016610eba6080870187613e50565b610ecb9060c081019060a001613e8d565b6001600160a01b031614155b15610ef557604051630655da1360e41b815260040160405180910390fd5b8215610f7f57306001600160a01b03831603610f4457610f3f6001600160a01b0385167f000000000000000000000000000000000000000000000000000000000000000085612073565b610f7f565b610f7f84837f000000000000000000000000000000000000000000000000000000000000000086610f7a36879003870187613eca565b612171565b610f8f6040860160208701613e8d565b6001600160a01b0316638309dbdd610faa6020880188613e8d565b7f000000000000000000000000000000000000000000000000000000000000000060016040518463ffffffff1660e01b8152600401610feb93929190613f59565b600060405180830381600087803b15801561100557600080fd5b505af1158015611019573d6000803e3d6000fd5b50506001600160a01b037f0000000000000000000000000000000000000000000000000000000000000000169150635cffe9de90507f00000000000000000000000000000000000000000000000000000000000000007f000000000000000000000000000000000000000000000000000000000000000061109d60608a018a613e50565b606001358989896040516020016110b6939291906141cb565b6040516020818303038152906040526040518563ffffffff1660e01b81526004016110e494939291906141f9565b6020604051808303816000875af1158015611103573d6000803e3d6000fd5b505050506040513d601f19601f820116820180604052508101906111279190613dda565b506111386040860160208701613e8d565b6001600160a01b0316638309dbdd6111536020880188613e8d565b7f000000000000000000000000000000000000000000000000000000000000000060006040518463ffffffff1660e01b815260040161043d93929190613f59565b6001600160a01b037f00000000000000000000000000000000000000000000000000000000000000001630036111dd5760405163f46a288f60e01b815260040160405180910390fd5b60006111ea858584611dc9565b905060006111fa86888635611f54565b9050856001600160a01b031663c75a4b5e88303061121787611f2a565b61122087611f2a565b6040518663ffffffff1660e01b81526004016112409594939291906138d1565b600060405180830381600087803b15801561125a57600080fd5b505af115801561126e573d6000803e3d6000fd5b5050505061127b8461233c565b50505050505050565b6001600160a01b037f00000000000000000000000000000000000000000000000000000000000000001630036112cd5760405163f46a288f60e01b815260040160405180910390fd5b60006112db83858435611f54565b9050826001600160a01b031663c75a4b5e85303060006112fa87611f2a565b6040518663ffffffff1660e01b815260040161131a9594939291906138d1565b600060405180830381600087803b15801561133457600080fd5b505af1158015611348573d6000803e3d6000fd5b505050506113558261233c565b50505050565b6001600160a01b037f00000000000000000000000000000000000000000000000000000000000000001630036113a45760405163f46a288f60e01b815260040160405180910390fd5b816001600160a01b031663c75a4b5e8430306113c38660200135611f2a565b6113cc90613c61565b60006040518663ffffffff1660e01b81526004016113ee9594939291906138d1565b600060405180830381600087803b15801561140857600080fd5b505af115801561141c573d6000803e3d6000fd5b505050506113558282612726565b6001600160a01b037f00000000000000000000000000000000000000000000000000000000000000001630036114735760405163f46a288f60e01b815260040160405180910390fd5b61147f858584846127e4565b604051638309dbdd60e01b81526001600160a01b037f00000000000000000000000000000000000000000000000000000000000000001690638309dbdd906114d09088908890600190600401613f59565b600060405180830381600087803b1580156114ea57600080fd5b505af11580156114fe573d6000803e3d6000fd5b50505050836001600160a01b031663c75a4b5e8630306115218860200135611f2a565b61152a90613c61565b6115348835611f2a565b61153d90613c61565b6040518663ffffffff1660e01b815260040161155d9594939291906138d1565b600060405180830381600087803b15801561157757600080fd5b505af115801561158b573d6000803e3d6000fd5b5050604051638309dbdd60e01b81526001600160a01b037f0000000000000000000000000000000000000000000000000000000000000000169250638309dbdd91506115e09088908890600090600401613f59565b600060405180830381600087803b1580156115fa57600080fd5b505af115801561160e573d6000803e3d6000fd5b5050505061161c8484612726565b505050505050565b6001600160a01b037f000000000000000000000000000000000000000000000000000000000000000016300361166d5760405163f46a288f60e01b815260040160405180910390fd5b600161167c6060850185613e50565b61168d906040810190602001613e70565b600181111561169e5761169e613c7d565b1415806116fa57506001600160a01b037f0000000000000000000000000000000000000000000000000000000000000000166116dd6060850185613e50565b6116ee9060c081019060a001613e8d565b6001600160a01b031614155b15611718576040516338ef377d60e01b815260040160405180910390fd5b60006117276080850185613e50565b611738906060810190604001613e8d565b6001600160a01b03161415801561177e575060006117596080850185613e50565b61176a906040810190602001613e70565b600181111561177b5761177b613c7d565b14155b1561179c57604051630e6c295f60e11b815260040160405180910390fd5b60006117ab6080850185613e50565b6117bc906060810190604001613e8d565b6001600160a01b03161480156117d957506001600160a01b038116155b156117f75760405163163a7c2d60e01b815260040160405180910390fd5b6118076040840160208501613e8d565b6001600160a01b0316638309dbdd6118226020860186613e8d565b7f000000000000000000000000000000000000000000000000000000000000000060016040518463ffffffff1660e01b815260040161186393929190613f59565b600060405180830381600087803b15801561187d57600080fd5b505af1158015611891573d6000803e3d6000fd5b50506001600160a01b037f0000000000000000000000000000000000000000000000000000000000000000169150637b644bad90507f00000000000000000000000000000000000000000000000000000000000000006118f46060870187613e50565b6060013586868660405160200161190d9392919061422c565b6040516020818303038152906040526040518463ffffffff1660e01b815260040161193a9392919061425f565b6020604051808303816000875af1158015611959573d6000803e3d6000fd5b505050506040513d601f19601f8201168201806040525081019061197d9190613dda565b5061198e6040840160208501613e8d565b6001600160a01b0316638309dbdd6119a96020860186613e8d565b7f000000000000000000000000000000000000000000000000000000000000000060006040518463ffffffff1660e01b81526004016119ea93929190613f59565b600060405180830381600087803b158015611a0457600080fd5b505af115801561127b573d6000803e3d6000fd5b6001600160a01b037f0000000000000000000000000000000000000000000000000000000000000000163003611a615760405163f46a288f60e01b815260040160405180910390fd5b8460005b81811015611bec57838382818110611a7f57611a7f614286565b9050602002016020810190611a94919061429c565b15611b2757611b21888883818110611aae57611aae614286565b9050602002016020810190611ac39190613e8d565b878784818110611ad557611ad5614286565b9050602002810190611ae791906142b9565b8080601f016020809104026020016040519081016040528093929190818152602001838380828437600092019190915250611ffb92505050565b50611be4565b600080898984818110611b3c57611b3c614286565b9050602002016020810190611b519190613e8d565b6001600160a01b0316888885818110611b6c57611b6c614286565b9050602002810190611b7e91906142b9565b604051611b8c9291906142ff565b6000604051808303816000865af19150503d8060008114611bc9576040519150601f19603f3d011682016040523d82523d6000602084013e611bce565b606091505b509150915081611be157611be181612a84565b50505b600101611a65565b5050505050505050565b6001600160a01b037f0000000000000000000000000000000000000000000000000000000000000000163003611c3f5760405163f46a288f60e01b815260040160405180910390fd5b611c4b848484846127e4565b604051638309dbdd60e01b81526001600160a01b037f00000000000000000000000000000000000000000000000000000000000000001690638309dbdd90611c9c9087908790600190600401613f59565b600060405180830381600087803b158015611cb657600080fd5b505af1158015611cca573d6000803e3d6000fd5b50505050826001600160a01b031663c75a4b5e8530306000611cef8860000135611f2a565b611cf890613c61565b6040518663ffffffff1660e01b8152600401611d189594939291906138d1565b600060405180830381600087803b158015611d3257600080fd5b505af1158015611d46573d6000803e3d6000fd5b5050604051638309dbdd60e01b81526001600160a01b037f0000000000000000000000000000000000000000000000000000000000000000169250638309dbdd9150611d9b9087908790600090600401613f59565b600060405180830381600087803b158015611db557600080fd5b505af1158015611bec573d6000803e3d6000fd5b6000602083013581611dde6060860186613e50565b611def906060810190604001613e8d565b6001600160a01b031614611eb857611e0a6020850185613e8d565b6001600160a01b0316611e206060860186613e50565b611e31906060810190604001613e8d565b6001600160a01b0316141580611e6d575030611e506060860186613e50565b611e619060c081019060a001613e8d565b6001600160a01b031614155b15611e8b5760405163469498c560e11b815260040160405180910390fd5b611eb1611e9e6060860160408701613e8d565b611eab6060870187613e50565b85612aac565b9050611f08565b30611ec96060860160408701613e8d565b6001600160a01b031614611f0857611f08611ee76020860186613e8d565b611ef76060870160408801613e8d565b3084610f7a36899003890189613eca565b611f1f85611f196020870187613e8d565b83612b79565b9150505b9392505050565b6000600160ff1b8210611f5057604051632db27c5360e01b815260040160405180910390fd5b5090565b6000806000856001600160a01b0316638051ba75866040518263ffffffff1660e01b8152600401611f85919061342a565b606060405180830381865afa158015611fa2573d6000803e3d6000fd5b505050506040513d601f19601f82011682018060405250810190611fc6919061430f565b5091509150611fd6848383612c65565b9695505050505050565b6000611ff28360200151600084612ca1565b90505b92915050565b6060600080846001600160a01b0316846040516120189190614352565b600060405180830381855af49150503d8060008114612053576040519150601f19603f3d011682016040523d82523d6000602084013e612058565b606091505b50915091508161206b5761206b81612a84565b949350505050565b6120c98363a9059cbb60e01b8484604051602401612092929190613db3565b60408051601f198184030181529190526020810180516001600160e01b03166001600160e01b031990931692909217909152612d15565b505050565b6000806120db8484614364565b602087015160408801519192506120fc916001600160a01b03169083612def565b85602001516001600160a01b03166347e7ef2430836040518363ffffffff1660e01b815260040161212e929190613db3565b6020604051808303816000875af115801561214d573d6000803e3d6000fd5b505050506040513d601f19601f82011682018060405250810190611fd69190613d87565b60028151600281111561218657612186613c7d565b036122b0576e22d473030f116ddee9f6b43ac78ba36001600160a01b03166330f28b7a604051806060016040528060405180604001604052808a6001600160a01b03168152602001866020015181525081526020018460400151815260200184606001518152506040518060400160405280876001600160a01b0316815260200186815250878560a001518660c00151876080015160f81b60405160200161224b9392919092835260208301919091526001600160f81b031916604082015260410190565b6040516020818303038152906040526040518563ffffffff1660e01b81526004016122799493929190614377565b600060405180830381600087803b15801561229357600080fd5b505af11580156122a7573d6000803e3d6000fd5b50505050612335565b6001815160028111156122c5576122c5613c7d565b036123205761230684848360200151846060015185608001518660a001518760c001518c6001600160a01b0316612e8890979695949392919063ffffffff16565b61231b6001600160a01b038616858585613063565b612335565b6123356001600160a01b038616858585613063565b5050505050565b604051638309dbdd60e01b81526001600160a01b037f00000000000000000000000000000000000000000000000000000000000000001690638309dbdd906123ad9030907f000000000000000000000000000000000000000000000000000000000000000090600190600401613f59565b600060405180830381600087803b1580156123c757600080fd5b505af11580156123db573d6000803e3d6000fd5b50600092506123f09150506040830183613e50565b612401906060810190604001613e8d565b6001600160a01b031603612543576001600160a01b037f00000000000000000000000000000000000000000000000000000000000000001663ef693bed61244e6040840160208501613e8d565b6040516001600160e01b031960e084901b1681526124729190853590600401613db3565b600060405180830381600087803b15801561248c57600080fd5b505af11580156124a0573d6000803e3d6000fd5b5050604051638309dbdd60e01b81526001600160a01b037f0000000000000000000000000000000000000000000000000000000000000000169250638309dbdd91506125159030907f000000000000000000000000000000000000000000000000000000000000000090600090600401613f59565b600060405180830381600087803b15801561252f57600080fd5b505af1158015612335573d6000803e3d6000fd5b60405163ef693bed60e01b81526001600160a01b037f0000000000000000000000000000000000000000000000000000000000000000169063ef693bed90612592903090853590600401613db3565b600060405180830381600087803b1580156125ac57600080fd5b505af11580156125c0573d6000803e3d6000fd5b5050604051638309dbdd60e01b81526001600160a01b037f0000000000000000000000000000000000000000000000000000000000000000169250638309dbdd91506126359030907f000000000000000000000000000000000000000000000000000000000000000090600090600401613f59565b600060405180830381600087803b15801561264f57600080fd5b505af1158015612663573d6000803e3d6000fd5b50506001600160a01b037f00000000000000000000000000000000000000000000000000000000000000001691506126a090506040830183613e50565b6126b1906060810190604001613e8d565b6001600160a01b0316146126d85760405163051b33b760e51b815260040160405180910390fd5b6127217f00000000000000000000000000000000000000000000000000000000000000006311b2aacd60e21b6127116040850185613e50565b6040516024016106e891906143f0565b505b50565b6000806127448461273a6020860186613e8d565b8560200135612ca1565b905060006127556060850185613e50565b612766906060810190604001613e8d565b6001600160a01b0316146127b3576127ad7f00000000000000000000000000000000000000000000000000000000000000006311b2aacd60e21b6127116060870187613e50565b50611ff2565b611ff26127c66060850160408601613e8d565b826127d46020870187613e8d565b6001600160a01b03169190612073565b6000806127f46040850185613e50565b612805906060810190604001613e8d565b6001600160a01b03161461288657306128216040850185613e50565b6128329060c081019060a001613e8d565b6001600160a01b03161461285957604051633300ff5360e21b815260040160405180910390fd5b61287f61286c6040850160208601613e8d565b6128796040860186613e50565b84612aac565b9050612984565b600080856001600160a01b0316638051ba75886040518263ffffffff1660e01b81526004016128b5919061342a565b606060405180830381865afa1580156128d2573d6000803e3d6000fd5b505050506040513d601f19601f820116820180604052508101906128f6919061430f565b509092509050806129116001600160401b038416873561309b565b61291b9190613da0565b92503061292e6040870160208801613e8d565b6001600160a01b031614612981576129817f00000000000000000000000000000000000000000000000000000000000000006129706040880160208901613e8d565b3086610f7a368a90038a018a613eca565b50505b60405163095ea7b360e01b81526001600160a01b037f0000000000000000000000000000000000000000000000000000000000000000169063095ea7b3906129f2907f0000000000000000000000000000000000000000000000000000000000000000908590600401613db3565b6020604051808303816000875af1158015612a11573d6000803e3d6000fd5b505050506040513d601f19601f82011682018060405250810190612a359190613dda565b50604051637e348b7d60e01b81526001600160a01b037f00000000000000000000000000000000000000000000000000000000000000001690637e348b7d9061043d9030908590600401613db3565b805115612a9357805181602001fd5b60405163491182fb60e01b815260040160405180910390fd5b600080612af07f0000000000000000000000000000000000000000000000000000000000000000630147931c60e01b8786886040516024016106e893929190614403565b9050600081806020019051810190612b089190613d87565b90506001612b1c6040870160208801613e70565b6001811115612b2d57612b2d613c7d565b03612b6c576000612b42826080880135613da0565b90508015612b5f57612b5f87826127d460608a0160408b01613e8d565b8560600135935050612b70565b8092505b50509392505050565b600080846001600160a01b031663fc0c546a6040518163ffffffff1660e01b8152600401602060405180830381865afa158015612bba573d6000803e3d6000fd5b505050506040513d601f19601f82011682018060405250810190612bde919061448d565b9050612bf46001600160a01b0382168685612def565b6040516311f9fbc960e21b81526001600160a01b038616906347e7ef2490612c229030908790600401613db3565b6020604051808303816000875af1158015612c41573d6000803e3d6000fd5b505050506040513d601f19601f82011682018060405250810190611f1f9190613d87565b6000612c83612c748386614364565b846001600160401b03166130c9565b905083612c91828585613118565b1015611f23576001019392505050565b60405163f3fef3a360e01b81526000906001600160a01b0385169063f3fef3a390612cd29030908690600401613db3565b6020604051808303816000875af1158015612cf1573d6000803e3d6000fd5b505050506040513d601f19601f8201168201806040525081019061206b9190613d87565b6000612d6a826040518060400160405280602081526020017f5361666545524332303a206c6f772d6c6576656c2063616c6c206661696c6564815250856001600160a01b03166131389092919063ffffffff16565b9050805160001480612d8b575080806020019051810190612d8b9190613dda565b6120c95760405162461bcd60e51b815260206004820152602a60248201527f5361666545524332303a204552433230206f7065726174696f6e20646964206e6044820152691bdd081cdd58d8d9595960b21b60648201526084015b60405180910390fd5b600063095ea7b360e01b8383604051602401612e0c929190613db3565b60408051601f198184030181529190526020810180516001600160e01b03166001600160e01b0319909316929092179091529050612e4a8482613147565b611355576040516001600160a01b038416602482015260006044820152612e7e90859063095ea7b360e01b90606401612092565b6113558482612d15565b604051623f675f60e91b81526000906001600160a01b038a1690637ecebe0090612eb6908b9060040161342a565b602060405180830381865afa158015612ed3573d6000803e3d6000fd5b505050506040513d601f19601f82011682018060405250810190612ef79190613d87565b60405163d505accf60e01b81526001600160a01b038a811660048301528981166024830152604482018990526064820188905260ff8716608483015260a4820186905260c48201859052919250908a169063d505accf9060e401600060405180830381600087803b158015612f6b57600080fd5b505af1158015612f7f573d6000803e3d6000fd5b5050604051623f675f60e91b8152600092506001600160a01b038c169150637ecebe0090612fb1908c9060040161342a565b602060405180830381865afa158015612fce573d6000803e3d6000fd5b505050506040513d601f19601f82011682018060405250810190612ff29190613d87565b9050612fff826001614364565b81146130575760405162461bcd60e51b815260206004820152602160248201527f5361666545524332303a207065726d697420646964206e6f74207375636365656044820152601960fa1b6064820152608401612de6565b50505050505050505050565b6040516001600160a01b03808516602483015283166044820152606481018290526113559085906323b872dd60e01b90608401612092565b6000816000190483118202156130b95763c4c5d7f56000526004601cfd5b50670de0b6b3a764000091020490565b60007812725dd1d243aba0e75fe645cc4873f9e65afe688c928e1f218311670de0b6b3a7640000021582026131065763bcbede656000526004601cfd5b50670de0b6b3a7640000919091020490565b60008161312e85856001600160401b031661309b565b61206b9190613da0565b606061206b84846000856131ee565b6000806000846001600160a01b0316846040516131649190614352565b6000604051808303816000865af19150503d80600081146131a1576040519150601f19603f3d011682016040523d82523d6000602084013e6131a6565b606091505b50915091508180156131d05750805115806131d05750808060200190518101906131d09190613dda565b80156131e557506001600160a01b0385163b15155b95945050505050565b60608247101561324f5760405162461bcd60e51b815260206004820152602660248201527f416464726573733a20696e73756666696369656e742062616c616e636520666f6044820152651c8818d85b1b60d21b6064820152608401612de6565b600080866001600160a01b0316858760405161326b9190614352565b60006040518083038185875af1925050503d80600081146132a8576040519150601f19603f3d011682016040523d82523d6000602084013e6132ad565b606091505b50915091506132be878383876132c9565b979650505050505050565b60608315613338578251600003613331576001600160a01b0385163b6133315760405162461bcd60e51b815260206004820152601d60248201527f416464726573733a2063616c6c20746f206e6f6e2d636f6e74726163740000006044820152606401612de6565b508161206b565b61206b838381511561334d5781518083602001fd5b8060405162461bcd60e51b8152600401612de691906144aa565b6001600160a01b038116811461272357600080fd5b803561338781613367565b919050565b60006080828403121561339e57600080fd5b50919050565b600060e0828403121561339e57600080fd5b60008060008061014085870312156133cd57600080fd5b84356133d881613367565b935060208501356133e881613367565b925060408501356001600160401b0381111561340357600080fd5b61340f8782880161338c565b92505061341f86606087016133a4565b905092959194509250565b6001600160a01b0391909116815260200190565b60008083601f84011261345057600080fd5b5081356001600160401b0381111561346757600080fd5b60208301915083602082850101111561347f57600080fd5b9250929050565b60008060008060006080868803121561349e57600080fd5b85356134a981613367565b9450602086013593506040860135925060608601356001600160401b038111156134d257600080fd5b6134de8882890161343e565b969995985093965092949392505050565b60008060008060008060a0878903121561350857600080fd5b863561351381613367565b9550602087013561352381613367565b9450604087013593506060870135925060808701356001600160401b0381111561354c57600080fd5b61355889828a0161343e565b979a9699509497509295939492505050565b600060c0828403121561339e57600080fd5b6000806000806000610160868803121561359557600080fd5b85356001600160401b038111156135ab57600080fd5b6135b78882890161356a565b95505060208601356135c881613367565b93506040860135925060608601356135df81613367565b91506135ee87608088016133a4565b90509295509295909350565b60006060828403121561339e57600080fd5b6000806000806000610160868803121561362557600080fd5b853561363081613367565b9450602086013561364081613367565b935060408601356001600160401b038082111561365c57600080fd5b61366889838a0161338c565b9450606088013591508082111561367e57600080fd5b5061368b888289016135fa565b9250506135ee87608088016133a4565b6000806000606084860312156136b057600080fd5b83356136bb81613367565b925060208401356136cb81613367565b915060408401356001600160401b038111156136e657600080fd5b6136f2868287016135fa565b9150509250925092565b60008060006060848603121561371157600080fd5b833561371c81613367565b9250602084013561372c81613367565b915060408401356001600160401b0381111561374757600080fd5b6136f28682870161338c565b60008060006060848603121561376857600080fd5b83356001600160401b0381111561377e57600080fd5b61378a8682870161356a565b9350506020840135915060408401356137a281613367565b809150509250925092565b60008083601f8401126137bf57600080fd5b5081356001600160401b038111156137d657600080fd5b6020830191508360208260051b850101111561347f57600080fd5b6000806000806000806060878903121561380a57600080fd5b86356001600160401b038082111561382157600080fd5b61382d8a838b016137ad565b9098509650602089013591508082111561384657600080fd5b6138528a838b016137ad565b9096509450604089013591508082111561386b57600080fd5b5061355889828a016137ad565b600080600080610140858703121561388f57600080fd5b843561389a81613367565b935060208501356138aa81613367565b925060408501356001600160401b038111156138c557600080fd5b61340f878288016135fa565b6001600160a01b03958616815293851660208501529190931660408301526060820192909252608081019190915260a00190565b634e487b7160e01b600052604160045260246000fd5b60405161010081016001600160401b038111828210171561393e5761393e613905565b60405290565b60405160c081016001600160401b038111828210171561393e5761393e613905565b6002811061272357600080fd5b803561338781613966565b600082601f83011261398f57600080fd5b81356001600160401b03808211156139a9576139a9613905565b604051601f8301601f19908116603f011681019082821181831017156139d1576139d1613905565b816040528381528660208588010111156139ea57600080fd5b836020870160208301376000602085830101528094505050505092915050565b60006101008284031215613a1d57600080fd5b613a2561391b565b9050613a3082613973565b8152613a3e60208301613973565b6020820152613a4f6040830161337c565b60408201526060820135606082015260808201356080820152613a7460a0830161337c565b60a082015260c082013560c082015260e08201356001600160401b03811115613a9c57600080fd5b613aa88482850161397e565b60e08301525092915050565b600060808284031215613ac657600080fd5b604051608081016001600160401b038282108183111715613ae957613ae9613905565b8160405282935084359150613afd82613966565b8183526020850135602084015260408501359150613b1a82613367565b8160408401526060850135915080821115613b3457600080fd5b50613b418582860161397e565b6060830152505092915050565b600060c08284031215613b6057600080fd5b613b68613944565b9050613b738261337c565b8152613b816020830161337c565b6020820152613b926040830161337c565b604082015260608201356001600160401b0380821115613bb157600080fd5b613bbd85838601613a0a565b60608401526080840135915080821115613bd657600080fd5b613be285838601613a0a565b608084015260a0840135915080821115613bfb57600080fd5b50613c0884828501613ab4565b60a08301525092915050565b600080600060608486031215613c2957600080fd5b83356001600160401b03811115613c3f57600080fd5b61378a86828701613b4e565b634e487b7160e01b600052601160045260246000fd5b6000600160ff1b8201613c7657613c76613c4b565b5060000390565b634e487b7160e01b600052602160045260246000fd5b6002811061272357612723613c7d565b60005b83811015613cbe578181015183820152602001613ca6565b50506000910152565b60008151808452613cdf816020860160208601613ca3565b601f01601f19169290920160200192915050565b6020815260008251613d0481613c93565b806020840152506020830151613d1981613c93565b8060408401525060018060a01b03604084015116606083015260608301516080830152608083015160a083015260a0830151613d6060c08401826001600160a01b03169052565b5060c083015160e083015260e083015161010080818501525061206b610120840182613cc7565b600060208284031215613d9957600080fd5b5051919050565b81810381811115611ff557611ff5613c4b565b6001600160a01b03929092168252602082015260400190565b801515811461272357600080fd5b600060208284031215613dec57600080fd5b8151611ff281613dcc565b600080600060608486031215613e0c57600080fd5b83356001600160401b03811115613e2257600080fd5b613e2e86828701613b4e565b9350506020840135613e3f81613367565b929592945050506040919091013590565b6000823560fe19833603018112613e6657600080fd5b9190910192915050565b600060208284031215613e8257600080fd5b8135611ff281613966565b600060208284031215613e9f57600080fd5b8135611ff281613367565b80356003811061338757600080fd5b803560ff8116811461338757600080fd5b600060e08284031215613edc57600080fd5b60405160e081018181106001600160401b0382111715613efe57613efe613905565b604052613f0a83613eaa565b8152602083013560208201526040830135604082015260608301356060820152613f3660808401613eb9565b608082015260a083013560a082015260c083013560c08201528091505092915050565b6001600160a01b039384168152919092166020820152901515604082015260600190565b6000823560fe19833603018112613f9357600080fd5b90910192915050565b6000808335601e19843603018112613fb357600080fd5b83016020810192503590506001600160401b03811115613fd257600080fd5b80360382131561347f57600080fd5b81835281816020850137506000828201602090810191909152601f909101601f19169091010190565b6000610100823561401a81613966565b61402381613c93565b8452602083013561403381613966565b61403c81613c93565b6020850152604083013561404f81613367565b6001600160a01b03166040850152606083810135908501526080808401359085015261407d60a0840161337c565b6001600160a01b031660a085015260c083810135908501526140a260e0840184613f9c565b8260e0870152611fd68387018284613fe1565b600081356140c281613966565b6140cb81613c93565b83526020828101359084015260408201356140e581613367565b6001600160a01b031660408401526141006060830183613f9c565b608060608601526131e5608086018284613fe1565b6000813561412281613367565b6001600160a01b03908116845260208301359061413e82613367565b908116602085015260408301359061415582613367565b1660408401526141686060830183613f7d565b60c0606085015261417c60c085018261400a565b905061418b6080840184613f7d565b848203608086015261419d828261400a565b91505060a0830135607e198436030181126141b757600080fd5b84820360a08601526131e5828583016140b5565b6060815260006141de6060830186614115565b6001600160a01b039490941660208301525060400152919050565b6001600160a01b0385811682528416602082015260408101839052608060608201819052600090611fd690830184613cc7565b60608152600061423f6060830186614115565b6020830194909452506001600160a01b0391909116604090910152919050565b60018060a01b03841681528260208201526060604082015260006131e56060830184613cc7565b634e487b7160e01b600052603260045260246000fd5b6000602082840312156142ae57600080fd5b8135611ff281613dcc565b6000808335601e198436030181126142d057600080fd5b8301803591506001600160401b038211156142ea57600080fd5b60200191503681900382131561347f57600080fd5b8183823760009101908152919050565b60008060006060848603121561432457600080fd5b83516001600160401b038116811461433b57600080fd5b602085015160409095015190969495509392505050565b60008251613e66818460208701613ca3565b80820180821115611ff557611ff5613c4b565b600061010061439a83885180516001600160a01b03168252602090810151910152565b60208701516040840152604087015160608401526143ce608084018780516001600160a01b03168252602090810151910152565b6001600160a01b03851660c084015260e083018190526132be81840185613cc7565b602081526000611ff2602083018461400a565b6001600160a01b0384168152600061012061441d85613eaa565b6003811061442d5761442d613c7d565b8060208501525060208501356040840152604085013560608401526060850135608084015260ff61446060808701613eb9565b1660a084015260a085013560c084015260c085013560e084015280610100840152611fd68184018561400a565b60006020828403121561449f57600080fd5b8151611ff281613367565b602081526000611ff26020830184613cc756fea26469706673582212204d4771854a83e067c7006a70dfddc25573830b42188c174ac795c5ebb73aa85664736f6c63430008130033",
    "linkReferences": {}
  },
  "methodIdentifiers": {
    "CALLBACK_SUCCESS()": "8237e538",
    "CALLBACK_SUCCESS_CREDIT()": "0f13be2a",
    "borrow(address,address,(uint256,address,(uint8,uint8,address,uint256,uint256,address,uint256,bytes)))": "56415a90",
    "cdm()": "e2dfb317",
    "decreaseLever((address,address,address,(uint8,uint8,address,uint256,uint256,address,uint256,bytes),(uint8,uint8,address,uint256,uint256,address,uint256,bytes),(uint8,uint256,address,bytes)),uint256,address)": "ede2bf5f",
    "deposit(address,address,(address,uint256,address,(uint8,uint8,address,uint256,uint256,address,uint256,bytes)),(uint8,uint256,uint256,uint256,uint8,bytes32,bytes32))": "0567d4b1",
    "depositAndBorrow(address,address,(address,uint256,address,(uint8,uint8,address,uint256,uint256,address,uint256,bytes)),(uint256,address,(uint8,uint8,address,uint256,uint256,address,uint256,bytes)),(uint8,uint256,uint256,uint256,uint8,bytes32,bytes32))": "4ad4d4ad",
    "flashlender()": "ee58918a",
    "increaseLever((address,address,address,(uint8,uint8,address,uint256,uint256,address,uint256,bytes),(uint8,uint8,address,uint256,uint256,address,uint256,bytes),(uint8,uint256,address,bytes)),address,uint256,address,(uint8,uint256,uint256,uint256,uint8,bytes32,bytes32))": "301a1131",
    "minter()": "07546172",
    "multisend(address[],bytes[],bool[])": "f38584e0",
    "onCreditFlashLoan(address,uint256,uint256,bytes)": "16d8f165",
    "onFlashLoan(address,address,uint256,uint256,bytes)": "23e30c8b",
    "permit2()": "12261ee7",
    "poolAction()": "e3008e5a",
    "repay(address,address,(uint256,address,(uint8,uint8,address,uint256,uint256,address,uint256,bytes)),(uint8,uint256,uint256,uint256,uint8,bytes32,bytes32))": "faa99405",
    "self()": "7104ddb2",
    "stablecoin()": "e9cbd822",
    "swapAction()": "a888828b",
    "withdraw(address,address,(address,uint256,address,(uint8,uint8,address,uint256,uint256,address,uint256,bytes)))": "6c747057",
    "withdrawAndRepay(address,address,(address,uint256,address,(uint8,uint8,address,uint256,uint256,address,uint256,bytes)),(uint256,address,(uint8,uint8,address,uint256,uint256,address,uint256,bytes)),(uint8,uint256,uint256,uint256,uint8,bytes32,bytes32))": "96c2c408"
  },
  "id": 124
}