{
  "abi": [
    {
      "inputs": [
        {
          "internalType": "address",
          "name": "flashlender_",
          "type": "address"
        },
        {
          "internalType": "address",
          "name": "swapAction_",
          "type": "address"
        }
      ],
      "stateMutability": "nonpayable",
      "type": "constructor"
    },
    {
      "inputs": [],
      "name": "Action__revertBytes_emptyRevertBytes",
      "type": "error"
    },
    {
      "inputs": [],
      "name": "Math__toInt256_overflow",
      "type": "error"
    },
    {
      "inputs": [],
      "name": "PositionAction__borrow_InvalidAuxSwap",
      "type": "error"
    },
    {
      "inputs": [],
      "name": "PositionAction__decreaseLever_invalidAuxSwap",
      "type": "error"
    },
    {
      "inputs": [],
      "name": "PositionAction__decreaseLever_invalidPrimarySwap",
      "type": "error"
    },
    {
      "inputs": [],
      "name": "PositionAction__decreaseLever_invalidResidualRecipient",
      "type": "error"
    },
    {
      "inputs": [],
      "name": "PositionAction__delegateViaStablecoin_InvalidAuxSwap",
      "type": "error"
    },
    {
      "inputs": [],
      "name": "PositionAction__deposit_InvalidAuxSwap",
      "type": "error"
    },
    {
      "inputs": [],
      "name": "PositionAction__increaseLever_invalidAuxSwap",
      "type": "error"
    },
    {
      "inputs": [],
      "name": "PositionAction__increaseLever_invalidPrimarySwap",
      "type": "error"
    },
    {
      "inputs": [],
      "name": "PositionAction__onCreditFlashLoan__invalidSender",
      "type": "error"
    },
    {
      "inputs": [],
      "name": "PositionAction__onFlashLoan__invalidSender",
      "type": "error"
    },
    {
      "inputs": [],
      "name": "PositionAction__onlyDelegatecall",
      "type": "error"
    },
    {
      "inputs": [],
      "name": "PositionAction__repay_InvalidAuxSwap",
      "type": "error"
    },
    {
      "inputs": [],
      "name": "CALLBACK_SUCCESS",
      "outputs": [
        {
          "internalType": "bytes32",
          "name": "",
          "type": "bytes32"
        }
      ],
      "stateMutability": "view",
      "type": "function"
    },
    {
      "inputs": [],
      "name": "CALLBACK_SUCCESS_CREDIT",
      "outputs": [
        {
          "internalType": "bytes32",
          "name": "",
          "type": "bytes32"
        }
      ],
      "stateMutability": "view",
      "type": "function"
    },
    {
      "inputs": [
        {
          "internalType": "address",
          "name": "position",
          "type": "address"
        },
        {
          "internalType": "address",
          "name": "vault",
          "type": "address"
        },
        {
          "components": [
            {
              "internalType": "uint256",
              "name": "amount",
              "type": "uint256"
            },
            {
              "internalType": "address",
              "name": "creditor",
              "type": "address"
            },
            {
              "components": [
                {
                  "internalType": "enum SwapProtocol",
                  "name": "swapProtocol",
                  "type": "uint8"
                },
                {
                  "internalType": "enum SwapType",
                  "name": "swapType",
                  "type": "uint8"
                },
                {
                  "internalType": "address",
                  "name": "assetIn",
                  "type": "address"
                },
                {
                  "internalType": "uint256",
                  "name": "amount",
                  "type": "uint256"
                },
                {
                  "internalType": "uint256",
                  "name": "limit",
                  "type": "uint256"
                },
                {
                  "internalType": "address",
                  "name": "recipient",
                  "type": "address"
                },
                {
                  "internalType": "uint256",
                  "name": "deadline",
                  "type": "uint256"
                },
                {
                  "internalType": "bytes",
                  "name": "args",
                  "type": "bytes"
                }
              ],
              "internalType": "struct SwapParams",
              "name": "auxSwap",
              "type": "tuple"
            }
          ],
          "internalType": "struct CreditParams",
          "name": "creditParams",
          "type": "tuple"
        }
      ],
      "name": "borrow",
      "outputs": [],
      "stateMutability": "nonpayable",
      "type": "function"
    },
    {
      "inputs": [],
      "name": "cdm",
      "outputs": [
        {
          "internalType": "contract ICDM",
          "name": "",
          "type": "address"
        }
      ],
      "stateMutability": "view",
      "type": "function"
    },
    {
      "inputs": [
        {
          "internalType": "address",
          "name": "vault",
          "type": "address"
        },
        {
          "internalType": "uint256",
          "name": "claimForEpoch",
          "type": "uint256"
        }
      ],
      "name": "claimUndelegatedCredit",
      "outputs": [
        {
          "internalType": "uint256",
          "name": "creditAmount",
          "type": "uint256"
        }
      ],
      "stateMutability": "nonpayable",
      "type": "function"
    },
    {
      "inputs": [
        {
          "components": [
            {
              "internalType": "address",
              "name": "position",
              "type": "address"
            },
            {
              "internalType": "address",
              "name": "vault",
              "type": "address"
            },
            {
              "internalType": "address",
              "name": "collateralToken",
              "type": "address"
            },
            {
              "components": [
                {
                  "internalType": "enum SwapProtocol",
                  "name": "swapProtocol",
                  "type": "uint8"
                },
                {
                  "internalType": "enum SwapType",
                  "name": "swapType",
                  "type": "uint8"
                },
                {
                  "internalType": "address",
                  "name": "assetIn",
                  "type": "address"
                },
                {
                  "internalType": "uint256",
                  "name": "amount",
                  "type": "uint256"
                },
                {
                  "internalType": "uint256",
                  "name": "limit",
                  "type": "uint256"
                },
                {
                  "internalType": "address",
                  "name": "recipient",
                  "type": "address"
                },
                {
                  "internalType": "uint256",
                  "name": "deadline",
                  "type": "uint256"
                },
                {
                  "internalType": "bytes",
                  "name": "args",
                  "type": "bytes"
                }
              ],
              "internalType": "struct SwapParams",
              "name": "primarySwap",
              "type": "tuple"
            },
            {
              "components": [
                {
                  "internalType": "enum SwapProtocol",
                  "name": "swapProtocol",
                  "type": "uint8"
                },
                {
                  "internalType": "enum SwapType",
                  "name": "swapType",
                  "type": "uint8"
                },
                {
                  "internalType": "address",
                  "name": "assetIn",
                  "type": "address"
                },
                {
                  "internalType": "uint256",
                  "name": "amount",
                  "type": "uint256"
                },
                {
                  "internalType": "uint256",
                  "name": "limit",
                  "type": "uint256"
                },
                {
                  "internalType": "address",
                  "name": "recipient",
                  "type": "address"
                },
                {
                  "internalType": "uint256",
                  "name": "deadline",
                  "type": "uint256"
                },
                {
                  "internalType": "bytes",
                  "name": "args",
                  "type": "bytes"
                }
              ],
              "internalType": "struct SwapParams",
              "name": "auxSwap",
              "type": "tuple"
            }
          ],
          "internalType": "struct LeverParams",
          "name": "leverParams",
          "type": "tuple"
        },
        {
          "internalType": "uint256",
          "name": "subCollateral",
          "type": "uint256"
        },
        {
          "internalType": "address",
          "name": "residualRecipient",
          "type": "address"
        }
      ],
      "name": "decreaseLever",
      "outputs": [],
      "stateMutability": "nonpayable",
      "type": "function"
    },
    {
      "inputs": [
        {
          "internalType": "address",
          "name": "vault",
          "type": "address"
        },
        {
          "internalType": "uint256",
          "name": "creditAmount",
          "type": "uint256"
        }
      ],
      "name": "delegate",
      "outputs": [
        {
          "internalType": "uint256",
          "name": "sharesAmount",
          "type": "uint256"
        }
      ],
      "stateMutability": "nonpayable",
      "type": "function"
    },
    {
      "inputs": [
        {
          "internalType": "address",
          "name": "creditor",
          "type": "address"
        },
        {
          "internalType": "address",
          "name": "vault",
          "type": "address"
        },
        {
          "internalType": "uint256",
          "name": "credit",
          "type": "uint256"
        },
        {
          "components": [
            {
              "internalType": "enum SwapProtocol",
              "name": "swapProtocol",
              "type": "uint8"
            },
            {
              "internalType": "enum SwapType",
              "name": "swapType",
              "type": "uint8"
            },
            {
              "internalType": "address",
              "name": "assetIn",
              "type": "address"
            },
            {
              "internalType": "uint256",
              "name": "amount",
              "type": "uint256"
            },
            {
              "internalType": "uint256",
              "name": "limit",
              "type": "uint256"
            },
            {
              "internalType": "address",
              "name": "recipient",
              "type": "address"
            },
            {
              "internalType": "uint256",
              "name": "deadline",
              "type": "uint256"
            },
            {
              "internalType": "bytes",
              "name": "args",
              "type": "bytes"
            }
          ],
          "internalType": "struct SwapParams",
          "name": "swapParams",
          "type": "tuple"
        },
        {
          "components": [
            {
              "internalType": "enum ApprovalType",
              "name": "approvalType",
              "type": "uint8"
            },
            {
              "internalType": "uint256",
              "name": "approvalAmount",
              "type": "uint256"
            },
            {
              "internalType": "uint256",
              "name": "nonce",
              "type": "uint256"
            },
            {
              "internalType": "uint256",
              "name": "deadline",
              "type": "uint256"
            },
            {
              "internalType": "uint8",
              "name": "v",
              "type": "uint8"
            },
            {
              "internalType": "bytes32",
              "name": "r",
              "type": "bytes32"
            },
            {
              "internalType": "bytes32",
              "name": "s",
              "type": "bytes32"
            }
          ],
          "internalType": "struct PermitParams",
          "name": "permitParams",
          "type": "tuple"
        }
      ],
      "name": "delegateViaStablecoin",
      "outputs": [],
      "stateMutability": "nonpayable",
      "type": "function"
    },
    {
      "inputs": [
        {
          "internalType": "address",
          "name": "position",
          "type": "address"
        },
        {
          "internalType": "address",
          "name": "vault",
          "type": "address"
        },
        {
          "components": [
            {
              "internalType": "address",
              "name": "targetToken",
              "type": "address"
            },
            {
              "internalType": "uint256",
              "name": "amount",
              "type": "uint256"
            },
            {
              "internalType": "address",
              "name": "collateralizer",
              "type": "address"
            },
            {
              "components": [
                {
                  "internalType": "enum SwapProtocol",
                  "name": "swapProtocol",
                  "type": "uint8"
                },
                {
                  "internalType": "enum SwapType",
                  "name": "swapType",
                  "type": "uint8"
                },
                {
                  "internalType": "address",
                  "name": "assetIn",
                  "type": "address"
                },
                {
                  "internalType": "uint256",
                  "name": "amount",
                  "type": "uint256"
                },
                {
                  "internalType": "uint256",
                  "name": "limit",
                  "type": "uint256"
                },
                {
                  "internalType": "address",
                  "name": "recipient",
                  "type": "address"
                },
                {
                  "internalType": "uint256",
                  "name": "deadline",
                  "type": "uint256"
                },
                {
                  "internalType": "bytes",
                  "name": "args",
                  "type": "bytes"
                }
              ],
              "internalType": "struct SwapParams",
              "name": "auxSwap",
              "type": "tuple"
            }
          ],
          "internalType": "struct CollateralParams",
          "name": "collateralParams",
          "type": "tuple"
        },
        {
          "components": [
            {
              "internalType": "enum ApprovalType",
              "name": "approvalType",
              "type": "uint8"
            },
            {
              "internalType": "uint256",
              "name": "approvalAmount",
              "type": "uint256"
            },
            {
              "internalType": "uint256",
              "name": "nonce",
              "type": "uint256"
            },
            {
              "internalType": "uint256",
              "name": "deadline",
              "type": "uint256"
            },
            {
              "internalType": "uint8",
              "name": "v",
              "type": "uint8"
            },
            {
              "internalType": "bytes32",
              "name": "r",
              "type": "bytes32"
            },
            {
              "internalType": "bytes32",
              "name": "s",
              "type": "bytes32"
            }
          ],
          "internalType": "struct PermitParams",
          "name": "permitParams",
          "type": "tuple"
        }
      ],
      "name": "deposit",
      "outputs": [],
      "stateMutability": "nonpayable",
      "type": "function"
    },
    {
      "inputs": [
        {
          "internalType": "address",
          "name": "position",
          "type": "address"
        },
        {
          "internalType": "address",
          "name": "vault",
          "type": "address"
        },
        {
          "components": [
            {
              "internalType": "address",
              "name": "targetToken",
              "type": "address"
            },
            {
              "internalType": "uint256",
              "name": "amount",
              "type": "uint256"
            },
            {
              "internalType": "address",
              "name": "collateralizer",
              "type": "address"
            },
            {
              "components": [
                {
                  "internalType": "enum SwapProtocol",
                  "name": "swapProtocol",
                  "type": "uint8"
                },
                {
                  "internalType": "enum SwapType",
                  "name": "swapType",
                  "type": "uint8"
                },
                {
                  "internalType": "address",
                  "name": "assetIn",
                  "type": "address"
                },
                {
                  "internalType": "uint256",
                  "name": "amount",
                  "type": "uint256"
                },
                {
                  "internalType": "uint256",
                  "name": "limit",
                  "type": "uint256"
                },
                {
                  "internalType": "address",
                  "name": "recipient",
                  "type": "address"
                },
                {
                  "internalType": "uint256",
                  "name": "deadline",
                  "type": "uint256"
                },
                {
                  "internalType": "bytes",
                  "name": "args",
                  "type": "bytes"
                }
              ],
              "internalType": "struct SwapParams",
              "name": "auxSwap",
              "type": "tuple"
            }
          ],
          "internalType": "struct CollateralParams",
          "name": "collateralParams",
          "type": "tuple"
        },
        {
          "components": [
            {
              "internalType": "uint256",
              "name": "amount",
              "type": "uint256"
            },
            {
              "internalType": "address",
              "name": "creditor",
              "type": "address"
            },
            {
              "components": [
                {
                  "internalType": "enum SwapProtocol",
                  "name": "swapProtocol",
                  "type": "uint8"
                },
                {
                  "internalType": "enum SwapType",
                  "name": "swapType",
                  "type": "uint8"
                },
                {
                  "internalType": "address",
                  "name": "assetIn",
                  "type": "address"
                },
                {
                  "internalType": "uint256",
                  "name": "amount",
                  "type": "uint256"
                },
                {
                  "internalType": "uint256",
                  "name": "limit",
                  "type": "uint256"
                },
                {
                  "internalType": "address",
                  "name": "recipient",
                  "type": "address"
                },
                {
                  "internalType": "uint256",
                  "name": "deadline",
                  "type": "uint256"
                },
                {
                  "internalType": "bytes",
                  "name": "args",
                  "type": "bytes"
                }
              ],
              "internalType": "struct SwapParams",
              "name": "auxSwap",
              "type": "tuple"
            }
          ],
          "internalType": "struct CreditParams",
          "name": "creditParams",
          "type": "tuple"
        },
        {
          "components": [
            {
              "internalType": "enum ApprovalType",
              "name": "approvalType",
              "type": "uint8"
            },
            {
              "internalType": "uint256",
              "name": "approvalAmount",
              "type": "uint256"
            },
            {
              "internalType": "uint256",
              "name": "nonce",
              "type": "uint256"
            },
            {
              "internalType": "uint256",
              "name": "deadline",
              "type": "uint256"
            },
            {
              "internalType": "uint8",
              "name": "v",
              "type": "uint8"
            },
            {
              "internalType": "bytes32",
              "name": "r",
              "type": "bytes32"
            },
            {
              "internalType": "bytes32",
              "name": "s",
              "type": "bytes32"
            }
          ],
          "internalType": "struct PermitParams",
          "name": "permitParams",
          "type": "tuple"
        }
      ],
      "name": "depositAndBorrow",
      "outputs": [],
      "stateMutability": "nonpayable",
      "type": "function"
    },
    {
      "inputs": [
        {
          "internalType": "address",
          "name": "position",
          "type": "address"
        },
        {
          "internalType": "address",
          "name": "depositVault",
          "type": "address"
        },
        {
          "internalType": "address",
          "name": "delegateVault",
          "type": "address"
        },
        {
          "internalType": "uint256",
          "name": "credit",
          "type": "uint256"
        },
        {
          "components": [
            {
              "internalType": "address",
              "name": "targetToken",
              "type": "address"
            },
            {
              "internalType": "uint256",
              "name": "amount",
              "type": "uint256"
            },
            {
              "internalType": "address",
              "name": "collateralizer",
              "type": "address"
            },
            {
              "components": [
                {
                  "internalType": "enum SwapProtocol",
                  "name": "swapProtocol",
                  "type": "uint8"
                },
                {
                  "internalType": "enum SwapType",
                  "name": "swapType",
                  "type": "uint8"
                },
                {
                  "internalType": "address",
                  "name": "assetIn",
                  "type": "address"
                },
                {
                  "internalType": "uint256",
                  "name": "amount",
                  "type": "uint256"
                },
                {
                  "internalType": "uint256",
                  "name": "limit",
                  "type": "uint256"
                },
                {
                  "internalType": "address",
                  "name": "recipient",
                  "type": "address"
                },
                {
                  "internalType": "uint256",
                  "name": "deadline",
                  "type": "uint256"
                },
                {
                  "internalType": "bytes",
                  "name": "args",
                  "type": "bytes"
                }
              ],
              "internalType": "struct SwapParams",
              "name": "auxSwap",
              "type": "tuple"
            }
          ],
          "internalType": "struct CollateralParams",
          "name": "collateralParams",
          "type": "tuple"
        },
        {
          "components": [
            {
              "internalType": "enum ApprovalType",
              "name": "approvalType",
              "type": "uint8"
            },
            {
              "internalType": "uint256",
              "name": "approvalAmount",
              "type": "uint256"
            },
            {
              "internalType": "uint256",
              "name": "nonce",
              "type": "uint256"
            },
            {
              "internalType": "uint256",
              "name": "deadline",
              "type": "uint256"
            },
            {
              "internalType": "uint8",
              "name": "v",
              "type": "uint8"
            },
            {
              "internalType": "bytes32",
              "name": "r",
              "type": "bytes32"
            },
            {
              "internalType": "bytes32",
              "name": "s",
              "type": "bytes32"
            }
          ],
          "internalType": "struct PermitParams",
          "name": "permitParams",
          "type": "tuple"
        }
      ],
      "name": "depositAndDelegate",
      "outputs": [],
      "stateMutability": "nonpayable",
      "type": "function"
    },
    {
      "inputs": [],
      "name": "flashlender",
      "outputs": [
        {
          "internalType": "contract IFlashlender",
          "name": "",
          "type": "address"
        }
      ],
      "stateMutability": "view",
      "type": "function"
    },
    {
      "inputs": [
        {
          "components": [
            {
              "internalType": "address",
              "name": "position",
              "type": "address"
            },
            {
              "internalType": "address",
              "name": "vault",
              "type": "address"
            },
            {
              "internalType": "address",
              "name": "collateralToken",
              "type": "address"
            },
            {
              "components": [
                {
                  "internalType": "enum SwapProtocol",
                  "name": "swapProtocol",
                  "type": "uint8"
                },
                {
                  "internalType": "enum SwapType",
                  "name": "swapType",
                  "type": "uint8"
                },
                {
                  "internalType": "address",
                  "name": "assetIn",
                  "type": "address"
                },
                {
                  "internalType": "uint256",
                  "name": "amount",
                  "type": "uint256"
                },
                {
                  "internalType": "uint256",
                  "name": "limit",
                  "type": "uint256"
                },
                {
                  "internalType": "address",
                  "name": "recipient",
                  "type": "address"
                },
                {
                  "internalType": "uint256",
                  "name": "deadline",
                  "type": "uint256"
                },
                {
                  "internalType": "bytes",
                  "name": "args",
                  "type": "bytes"
                }
              ],
              "internalType": "struct SwapParams",
              "name": "primarySwap",
              "type": "tuple"
            },
            {
              "components": [
                {
                  "internalType": "enum SwapProtocol",
                  "name": "swapProtocol",
                  "type": "uint8"
                },
                {
                  "internalType": "enum SwapType",
                  "name": "swapType",
                  "type": "uint8"
                },
                {
                  "internalType": "address",
                  "name": "assetIn",
                  "type": "address"
                },
                {
                  "internalType": "uint256",
                  "name": "amount",
                  "type": "uint256"
                },
                {
                  "internalType": "uint256",
                  "name": "limit",
                  "type": "uint256"
                },
                {
                  "internalType": "address",
                  "name": "recipient",
                  "type": "address"
                },
                {
                  "internalType": "uint256",
                  "name": "deadline",
                  "type": "uint256"
                },
                {
                  "internalType": "bytes",
                  "name": "args",
                  "type": "bytes"
                }
              ],
              "internalType": "struct SwapParams",
              "name": "auxSwap",
              "type": "tuple"
            }
          ],
          "internalType": "struct LeverParams",
          "name": "leverParams",
          "type": "tuple"
        },
        {
          "internalType": "address",
          "name": "upFrontToken",
          "type": "address"
        },
        {
          "internalType": "uint256",
          "name": "upFrontAmount",
          "type": "uint256"
        },
        {
          "internalType": "address",
          "name": "collateralizer",
          "type": "address"
        },
        {
          "components": [
            {
              "internalType": "enum ApprovalType",
              "name": "approvalType",
              "type": "uint8"
            },
            {
              "internalType": "uint256",
              "name": "approvalAmount",
              "type": "uint256"
            },
            {
              "internalType": "uint256",
              "name": "nonce",
              "type": "uint256"
            },
            {
              "internalType": "uint256",
              "name": "deadline",
              "type": "uint256"
            },
            {
              "internalType": "uint8",
              "name": "v",
              "type": "uint8"
            },
            {
              "internalType": "bytes32",
              "name": "r",
              "type": "bytes32"
            },
            {
              "internalType": "bytes32",
              "name": "s",
              "type": "bytes32"
            }
          ],
          "internalType": "struct PermitParams",
          "name": "permitParams",
          "type": "tuple"
        }
      ],
      "name": "increaseLever",
      "outputs": [],
      "stateMutability": "nonpayable",
      "type": "function"
    },
    {
      "inputs": [],
      "name": "minter",
      "outputs": [
        {
          "internalType": "contract IMinter",
          "name": "",
          "type": "address"
        }
      ],
      "stateMutability": "view",
      "type": "function"
    },
    {
      "inputs": [
        {
          "internalType": "address[]",
          "name": "targets",
          "type": "address[]"
        },
        {
          "internalType": "bytes[]",
          "name": "data",
          "type": "bytes[]"
        },
        {
          "internalType": "bool[]",
          "name": "delegateCall",
          "type": "bool[]"
        }
      ],
      "name": "multisend",
      "outputs": [],
      "stateMutability": "nonpayable",
      "type": "function"
    },
    {
      "inputs": [
        {
          "internalType": "address",
          "name": "",
          "type": "address"
        },
        {
          "internalType": "uint256",
          "name": "",
          "type": "uint256"
        },
        {
          "internalType": "uint256",
          "name": "",
          "type": "uint256"
        },
        {
          "internalType": "bytes",
          "name": "data",
          "type": "bytes"
        }
      ],
      "name": "onCreditFlashLoan",
      "outputs": [
        {
          "internalType": "bytes32",
          "name": "",
          "type": "bytes32"
        }
      ],
      "stateMutability": "nonpayable",
      "type": "function"
    },
    {
      "inputs": [
        {
          "internalType": "address",
          "name": "",
          "type": "address"
        },
        {
          "internalType": "address",
          "name": "",
          "type": "address"
        },
        {
          "internalType": "uint256",
          "name": "",
          "type": "uint256"
        },
        {
          "internalType": "uint256",
          "name": "",
          "type": "uint256"
        },
        {
          "internalType": "bytes",
          "name": "data",
          "type": "bytes"
        }
      ],
      "name": "onFlashLoan",
      "outputs": [
        {
          "internalType": "bytes32",
          "name": "",
          "type": "bytes32"
        }
      ],
      "stateMutability": "nonpayable",
      "type": "function"
    },
    {
      "inputs": [],
      "name": "permit2",
      "outputs": [
        {
          "internalType": "address",
          "name": "",
          "type": "address"
        }
      ],
      "stateMutability": "view",
      "type": "function"
    },
    {
      "inputs": [
        {
          "internalType": "address",
          "name": "position",
          "type": "address"
        },
        {
          "internalType": "address",
          "name": "vault",
          "type": "address"
        },
        {
          "components": [
            {
              "internalType": "uint256",
              "name": "amount",
              "type": "uint256"
            },
            {
              "internalType": "address",
              "name": "creditor",
              "type": "address"
            },
            {
              "components": [
                {
                  "internalType": "enum SwapProtocol",
                  "name": "swapProtocol",
                  "type": "uint8"
                },
                {
                  "internalType": "enum SwapType",
                  "name": "swapType",
                  "type": "uint8"
                },
                {
                  "internalType": "address",
                  "name": "assetIn",
                  "type": "address"
                },
                {
                  "internalType": "uint256",
                  "name": "amount",
                  "type": "uint256"
                },
                {
                  "internalType": "uint256",
                  "name": "limit",
                  "type": "uint256"
                },
                {
                  "internalType": "address",
                  "name": "recipient",
                  "type": "address"
                },
                {
                  "internalType": "uint256",
                  "name": "deadline",
                  "type": "uint256"
                },
                {
                  "internalType": "bytes",
                  "name": "args",
                  "type": "bytes"
                }
              ],
              "internalType": "struct SwapParams",
              "name": "auxSwap",
              "type": "tuple"
            }
          ],
          "internalType": "struct CreditParams",
          "name": "creditParams",
          "type": "tuple"
        },
        {
          "components": [
            {
              "internalType": "enum ApprovalType",
              "name": "approvalType",
              "type": "uint8"
            },
            {
              "internalType": "uint256",
              "name": "approvalAmount",
              "type": "uint256"
            },
            {
              "internalType": "uint256",
              "name": "nonce",
              "type": "uint256"
            },
            {
              "internalType": "uint256",
              "name": "deadline",
              "type": "uint256"
            },
            {
              "internalType": "uint8",
              "name": "v",
              "type": "uint8"
            },
            {
              "internalType": "bytes32",
              "name": "r",
              "type": "bytes32"
            },
            {
              "internalType": "bytes32",
              "name": "s",
              "type": "bytes32"
            }
          ],
          "internalType": "struct PermitParams",
          "name": "permitParams",
          "type": "tuple"
        }
      ],
      "name": "repay",
      "outputs": [],
      "stateMutability": "nonpayable",
      "type": "function"
    },
    {
      "inputs": [
        {
          "internalType": "address",
          "name": "position",
          "type": "address"
        },
        {
          "internalType": "address",
          "name": "vault",
          "type": "address"
        },
        {
          "internalType": "uint256",
          "name": "claimForEpoch",
          "type": "uint256"
        },
        {
          "internalType": "uint256",
          "name": "subNormalDebt",
          "type": "uint256"
        },
        {
          "components": [
            {
              "internalType": "uint256",
              "name": "amount",
              "type": "uint256"
            },
            {
              "internalType": "address",
              "name": "creditor",
              "type": "address"
            },
            {
              "components": [
                {
                  "internalType": "enum SwapProtocol",
                  "name": "swapProtocol",
                  "type": "uint8"
                },
                {
                  "internalType": "enum SwapType",
                  "name": "swapType",
                  "type": "uint8"
                },
                {
                  "internalType": "address",
                  "name": "assetIn",
                  "type": "address"
                },
                {
                  "internalType": "uint256",
                  "name": "amount",
                  "type": "uint256"
                },
                {
                  "internalType": "uint256",
                  "name": "limit",
                  "type": "uint256"
                },
                {
                  "internalType": "address",
                  "name": "recipient",
                  "type": "address"
                },
                {
                  "internalType": "uint256",
                  "name": "deadline",
                  "type": "uint256"
                },
                {
                  "internalType": "bytes",
                  "name": "args",
                  "type": "bytes"
                }
              ],
              "internalType": "struct SwapParams",
              "name": "auxSwap",
              "type": "tuple"
            }
          ],
          "internalType": "struct CreditParams",
          "name": "creditParams",
          "type": "tuple"
        },
        {
          "components": [
            {
              "internalType": "enum ApprovalType",
              "name": "approvalType",
              "type": "uint8"
            },
            {
              "internalType": "uint256",
              "name": "approvalAmount",
              "type": "uint256"
            },
            {
              "internalType": "uint256",
              "name": "nonce",
              "type": "uint256"
            },
            {
              "internalType": "uint256",
              "name": "deadline",
              "type": "uint256"
            },
            {
              "internalType": "uint8",
              "name": "v",
              "type": "uint8"
            },
            {
              "internalType": "bytes32",
              "name": "r",
              "type": "bytes32"
            },
            {
              "internalType": "bytes32",
              "name": "s",
              "type": "bytes32"
            }
          ],
          "internalType": "struct PermitParams",
          "name": "permitParams",
          "type": "tuple"
        }
      ],
      "name": "repayAndClaim",
      "outputs": [],
      "stateMutability": "nonpayable",
      "type": "function"
    },
    {
      "inputs": [],
      "name": "self",
      "outputs": [
        {
          "internalType": "address",
          "name": "",
          "type": "address"
        }
      ],
      "stateMutability": "view",
      "type": "function"
    },
    {
      "inputs": [],
      "name": "stablecoin",
      "outputs": [
        {
          "internalType": "contract IStablecoin",
          "name": "",
          "type": "address"
        }
      ],
      "stateMutability": "view",
      "type": "function"
    },
    {
      "inputs": [],
      "name": "swapAction",
      "outputs": [
        {
          "internalType": "contract SwapAction",
          "name": "",
          "type": "address"
        }
      ],
      "stateMutability": "view",
      "type": "function"
    },
    {
      "inputs": [
        {
          "internalType": "address",
          "name": "vault",
          "type": "address"
        },
        {
          "internalType": "uint256",
          "name": "shareAmount",
          "type": "uint256"
        },
        {
          "internalType": "uint256[]",
          "name": "prevQueuedEpochs",
          "type": "uint256[]"
        }
      ],
      "name": "undelegate",
      "outputs": [
        {
          "internalType": "uint256",
          "name": "estimatedClaim",
          "type": "uint256"
        },
        {
          "internalType": "uint256",
          "name": "epoch",
          "type": "uint256"
        },
        {
          "internalType": "uint256",
          "name": "claimableAtEpoch",
          "type": "uint256"
        },
        {
          "internalType": "uint256",
          "name": "fixableUntilEpoch",
          "type": "uint256"
        }
      ],
      "stateMutability": "nonpayable",
      "type": "function"
    },
    {
      "inputs": [
        {
          "internalType": "address",
          "name": "position",
          "type": "address"
        },
        {
          "internalType": "address",
          "name": "vault",
          "type": "address"
        },
        {
          "components": [
            {
              "internalType": "address",
              "name": "targetToken",
              "type": "address"
            },
            {
              "internalType": "uint256",
              "name": "amount",
              "type": "uint256"
            },
            {
              "internalType": "address",
              "name": "collateralizer",
              "type": "address"
            },
            {
              "components": [
                {
                  "internalType": "enum SwapProtocol",
                  "name": "swapProtocol",
                  "type": "uint8"
                },
                {
                  "internalType": "enum SwapType",
                  "name": "swapType",
                  "type": "uint8"
                },
                {
                  "internalType": "address",
                  "name": "assetIn",
                  "type": "address"
                },
                {
                  "internalType": "uint256",
                  "name": "amount",
                  "type": "uint256"
                },
                {
                  "internalType": "uint256",
                  "name": "limit",
                  "type": "uint256"
                },
                {
                  "internalType": "address",
                  "name": "recipient",
                  "type": "address"
                },
                {
                  "internalType": "uint256",
                  "name": "deadline",
                  "type": "uint256"
                },
                {
                  "internalType": "bytes",
                  "name": "args",
                  "type": "bytes"
                }
              ],
              "internalType": "struct SwapParams",
              "name": "auxSwap",
              "type": "tuple"
            }
          ],
          "internalType": "struct CollateralParams",
          "name": "collateralParams",
          "type": "tuple"
        }
      ],
      "name": "withdraw",
      "outputs": [],
      "stateMutability": "nonpayable",
      "type": "function"
    },
    {
      "inputs": [
        {
          "internalType": "address",
          "name": "position",
          "type": "address"
        },
        {
          "internalType": "address",
          "name": "withdrawVault",
          "type": "address"
        },
        {
          "internalType": "address",
          "name": "delegateVault",
          "type": "address"
        },
        {
          "internalType": "uint256",
          "name": "claimForEpoch",
          "type": "uint256"
        },
        {
          "internalType": "uint256",
          "name": "subNormalDebt",
          "type": "uint256"
        },
        {
          "components": [
            {
              "internalType": "address",
              "name": "targetToken",
              "type": "address"
            },
            {
              "internalType": "uint256",
              "name": "amount",
              "type": "uint256"
            },
            {
              "internalType": "address",
              "name": "collateralizer",
              "type": "address"
            },
            {
              "components": [
                {
                  "internalType": "enum SwapProtocol",
                  "name": "swapProtocol",
                  "type": "uint8"
                },
                {
                  "internalType": "enum SwapType",
                  "name": "swapType",
                  "type": "uint8"
                },
                {
                  "internalType": "address",
                  "name": "assetIn",
                  "type": "address"
                },
                {
                  "internalType": "uint256",
                  "name": "amount",
                  "type": "uint256"
                },
                {
                  "internalType": "uint256",
                  "name": "limit",
                  "type": "uint256"
                },
                {
                  "internalType": "address",
                  "name": "recipient",
                  "type": "address"
                },
                {
                  "internalType": "uint256",
                  "name": "deadline",
                  "type": "uint256"
                },
                {
                  "internalType": "bytes",
                  "name": "args",
                  "type": "bytes"
                }
              ],
              "internalType": "struct SwapParams",
              "name": "auxSwap",
              "type": "tuple"
            }
          ],
          "internalType": "struct CollateralParams",
          "name": "collateralParams",
          "type": "tuple"
        }
      ],
      "name": "withdrawAndClaim",
      "outputs": [],
      "stateMutability": "nonpayable",
      "type": "function"
    },
    {
      "inputs": [
        {
          "internalType": "address",
          "name": "position",
          "type": "address"
        },
        {
          "internalType": "address",
          "name": "vault",
          "type": "address"
        },
        {
          "components": [
            {
              "internalType": "address",
              "name": "targetToken",
              "type": "address"
            },
            {
              "internalType": "uint256",
              "name": "amount",
              "type": "uint256"
            },
            {
              "internalType": "address",
              "name": "collateralizer",
              "type": "address"
            },
            {
              "components": [
                {
                  "internalType": "enum SwapProtocol",
                  "name": "swapProtocol",
                  "type": "uint8"
                },
                {
                  "internalType": "enum SwapType",
                  "name": "swapType",
                  "type": "uint8"
                },
                {
                  "internalType": "address",
                  "name": "assetIn",
                  "type": "address"
                },
                {
                  "internalType": "uint256",
                  "name": "amount",
                  "type": "uint256"
                },
                {
                  "internalType": "uint256",
                  "name": "limit",
                  "type": "uint256"
                },
                {
                  "internalType": "address",
                  "name": "recipient",
                  "type": "address"
                },
                {
                  "internalType": "uint256",
                  "name": "deadline",
                  "type": "uint256"
                },
                {
                  "internalType": "bytes",
                  "name": "args",
                  "type": "bytes"
                }
              ],
              "internalType": "struct SwapParams",
              "name": "auxSwap",
              "type": "tuple"
            }
          ],
          "internalType": "struct CollateralParams",
          "name": "collateralParams",
          "type": "tuple"
        },
        {
          "components": [
            {
              "internalType": "uint256",
              "name": "amount",
              "type": "uint256"
            },
            {
              "internalType": "address",
              "name": "creditor",
              "type": "address"
            },
            {
              "components": [
                {
                  "internalType": "enum SwapProtocol",
                  "name": "swapProtocol",
                  "type": "uint8"
                },
                {
                  "internalType": "enum SwapType",
                  "name": "swapType",
                  "type": "uint8"
                },
                {
                  "internalType": "address",
                  "name": "assetIn",
                  "type": "address"
                },
                {
                  "internalType": "uint256",
                  "name": "amount",
                  "type": "uint256"
                },
                {
                  "internalType": "uint256",
                  "name": "limit",
                  "type": "uint256"
                },
                {
                  "internalType": "address",
                  "name": "recipient",
                  "type": "address"
                },
                {
                  "internalType": "uint256",
                  "name": "deadline",
                  "type": "uint256"
                },
                {
                  "internalType": "bytes",
                  "name": "args",
                  "type": "bytes"
                }
              ],
              "internalType": "struct SwapParams",
              "name": "auxSwap",
              "type": "tuple"
            }
          ],
          "internalType": "struct CreditParams",
          "name": "creditParams",
          "type": "tuple"
        },
        {
          "components": [
            {
              "internalType": "enum ApprovalType",
              "name": "approvalType",
              "type": "uint8"
            },
            {
              "internalType": "uint256",
              "name": "approvalAmount",
              "type": "uint256"
            },
            {
              "internalType": "uint256",
              "name": "nonce",
              "type": "uint256"
            },
            {
              "internalType": "uint256",
              "name": "deadline",
              "type": "uint256"
            },
            {
              "internalType": "uint8",
              "name": "v",
              "type": "uint8"
            },
            {
              "internalType": "bytes32",
              "name": "r",
              "type": "bytes32"
            },
            {
              "internalType": "bytes32",
              "name": "s",
              "type": "bytes32"
            }
          ],
          "internalType": "struct PermitParams",
          "name": "permitParams",
          "type": "tuple"
        }
      ],
      "name": "withdrawAndRepay",
      "outputs": [],
      "stateMutability": "nonpayable",
      "type": "function"
    }
  ],
  "bytecode": {
    "object": "0x6101406040523480156200001257600080fd5b50604051620056f8380380620056f88339810160408190526200003591620002bb565b8181816001600160a01b031660a0816001600160a01b03168152505060a0516001600160a01b031663e9cbd8226040518163ffffffff1660e01b8152600401602060405180830381865afa15801562000092573d6000803e3d6000fd5b505050506040513d601f19601f82011682018060405250810190620000b89190620002fa565b6001600160a01b031660c0816001600160a01b03168152505060a0516001600160a01b031663075461726040518163ffffffff1660e01b8152600401602060405180830381865afa15801562000112573d6000803e3d6000fd5b505050506040513d601f19601f82011682018060405250810190620001389190620002fa565b6001600160a01b031660e0816001600160a01b03168152505060a0516001600160a01b031663e2dfb3176040518163ffffffff1660e01b8152600401602060405180830381865afa15801562000192573d6000803e3d6000fd5b505050506040513d601f19601f82011682018060405250810190620001b89190620002fa565b6001600160a01b03908116608081905230610100528282166101205260e05160405163d9c70f5760e01b815292166004830152600160248301529063d9c70f5790604401600060405180830381600087803b1580156200021757600080fd5b505af11580156200022c573d6000803e3d6000fd5b505060805160405163d9c70f5760e01b81526001600160a01b03868116600483015260016024830152909116925063d9c70f579150604401600060405180830381600087803b1580156200027f57600080fd5b505af115801562000294573d6000803e3d6000fd5b505050505050505062000321565b6001600160a01b0381168114620002b857600080fd5b50565b60008060408385031215620002cf57600080fd5b8251620002dc81620002a2565b6020840151909250620002ef81620002a2565b809150509250929050565b6000602082840312156200030d57600080fd5b81516200031a81620002a2565b9392505050565b60805160a05160c05160e051610100516101205161518f620005696000396000818161035b01528181610dbd01528181610fbd015281816110d00152818161112d015281816130000152818161333c01526135730152600081816102c7015281816105e7015281816106d90152818161079c0152818161081e0152818161099201528181610a3601528181610b19015281816113ab0152818161149201528181611569015281816117bb0152818161191501528181611b0f01528181611beb01528181611d0201528181611d8f01528181611dc001528181611e2101528181611ec501528181611fca01528181612013015281816122bd0152818161250e01526126ec0152600081816101d101528181610ea501528181610f310152818161124701528181612146015281816121cb01528181612c9e01528181612d3501528181612e0601528181612e7d01528181612f2d0152818161322d01526132b20152600081816103e201528181610e78015281816112cd01528181611b9101528181611ee6015281816120d10152818161211901528181612f92015281816131a6015261320001526000818161041c01528181610a0b01528181610b9c0152818161105c015281816113020152611e9a0152600081816103bb0152818161047e0152818161056d01528181610c2c01528181610d3f015281816116370152818161173b0152818161197701528181611a850152818161237f0152818161248c0152818161274e0152818161284b01528181612c6f01528181612dd50152612efc015261518f6000f3fe608060405234801561001057600080fd5b50600436106101795760003560e01c80637104ddb2116100d9578063dfad9c3711610087578063dfad9c37146103a3578063e2dfb317146103b6578063e9cbd822146103dd578063ecec164114610404578063ee58918a14610417578063f38584e01461043e578063faa994051461045157600080fd5b80637104ddb2146102c25780637810436a146102e95780638237e5381461031c57806396c2c40814610343578063a888828b14610356578063aad598ae1461037d578063df3df7731461039057600080fd5b806312261ee71161013657806312261ee71461023a57806316d8f1651461025057806323e30c8b146102635780634ad4d4ad1461027657806356415a901461028957806365b57a741461029c5780636c747057146102af57600080fd5b8063026e402b1461017e57806303ccc7d0146101a45780630567d4b1146101b957806307546172146101cc5780630b839bf2146102005780630f13be2a14610213575b600080fd5b61019161018c366004613e63565b610464565b6040519081526020015b60405180910390f35b6101b76101b2366004613eb9565b6105dd565b005b6101b76101c7366004613f48565b6106cf565b6101f37f000000000000000000000000000000000000000000000000000000000000000081565b60405161019b9190613fbc565b6101b761020e366004613fe2565b610792565b6101917f24ea9631d6c6b69006fd9fa411bb9c8909638fd1d178dd2f1d231dca3e3e4d7981565b6101f36e22d473030f116ddee9f6b43ac78ba381565b61019161025e366004614084565b610b8f565b6101916102713660046140ed565b61104f565b6101b761028436600461417a565b6113a1565b6101b7610297366004614215565b611488565b6101b76102aa366004614276565b61155f565b6101b76102bd3660046142e0565b6117b1565b6101f37f000000000000000000000000000000000000000000000000000000000000000081565b6102fc6102f736600461437b565b611880565b60408051948552602085019390935291830152606082015260800161019b565b6101917f439148f0bbc682ca079e46d6e2c2f0c1e3b820f1a291b069d8882abf8cf18dd981565b6101b761035136600461417a565b61190b565b6101f37f000000000000000000000000000000000000000000000000000000000000000081565b6101b761038b3660046143d6565b611b05565b6101b761039e366004614448565b612009565b6101916103b1366004613e63565b61223e565b6101f37f000000000000000000000000000000000000000000000000000000000000000081565b6101f37f000000000000000000000000000000000000000000000000000000000000000081565b6101b76104123660046144b1565b6122b3565b6101f37f000000000000000000000000000000000000000000000000000000000000000081565b6101b761044c366004614537565b612504565b6101b761045f3660046145be565b6126e2565b60405163d9c70f5760e01b81526000906001600160a01b037f0000000000000000000000000000000000000000000000000000000000000000169063d9c70f57906104b6908690600190600401614617565b600060405180830381600087803b1580156104d057600080fd5b505af11580156104e4573d6000803e3d6000fd5b50506040516393f9eb3560e01b8152600481018590526001600160a01b03861692506393f9eb3591506024016020604051808303816000875af115801561052f573d6000803e3d6000fd5b505050506040513d601f19601f820116820180604052508101906105539190614632565b60405163d9c70f5760e01b81529091506001600160a01b037f0000000000000000000000000000000000000000000000000000000000000000169063d9c70f57906105a5908690600090600401614617565b600060405180830381600087803b1580156105bf57600080fd5b505af11580156105d3573d6000803e3d6000fd5b5050505092915050565b6001600160a01b037f00000000000000000000000000000000000000000000000000000000000000001630036106265760405163f46a288f60e01b815260040160405180910390fd5b60006106338684846128b5565b90506000610642878987612a14565b9050866001600160a01b031663c75a4b5e89303061065f87612aa0565b61066887612aa0565b6040518663ffffffff1660e01b815260040161068895949392919061464b565b600060405180830381600087803b1580156106a257600080fd5b505af11580156106b6573d6000803e3d6000fd5b505050506106c48686610464565b505050505050505050565b6001600160a01b037f00000000000000000000000000000000000000000000000000000000000000001630036107185760405163f46a288f60e01b815260040160405180910390fd5b60006107258484846128b5565b9050836001600160a01b031663c75a4b5e86303061074286612aa0565b60006040518663ffffffff1660e01b815260040161076495949392919061464b565b600060405180830381600087803b15801561077e57600080fd5b505af11580156106c4573d6000803e3d6000fd5b6001600160a01b037f00000000000000000000000000000000000000000000000000000000000000001630036107db5760405163f46a288f60e01b815260040160405180910390fd5b60016107ea6060850185614695565b6107fb9060408101906020016146c4565b600181111561080c5761080c61467f565b14158061086857506001600160a01b037f00000000000000000000000000000000000000000000000000000000000000001661084b6060850185614695565b61085c9060c081019060a0016146df565b6001600160a01b031614155b15610886576040516338ef377d60e01b815260040160405180910390fd5b60006108956080850185614695565b6108a69060608101906040016146df565b6001600160a01b0316141580156108ec575060006108c76080850185614695565b6108d89060408101906020016146c4565b60018111156108e9576108e961467f565b14155b1561090a57604051630e6c295f60e11b815260040160405180910390fd5b60006109196080850185614695565b61092a9060608101906040016146df565b6001600160a01b031614801561094757506001600160a01b038116155b156109655760405163163a7c2d60e01b815260040160405180910390fd5b61097560408401602085016146df565b6001600160a01b0316638309dbdd61099060208601866146df565b7f000000000000000000000000000000000000000000000000000000000000000060016040518463ffffffff1660e01b81526004016109d1939291906146fc565b600060405180830381600087803b1580156109eb57600080fd5b505af11580156109ff573d6000803e3d6000fd5b50506001600160a01b037f0000000000000000000000000000000000000000000000000000000000000000169150637b644bad90507f0000000000000000000000000000000000000000000000000000000000000000610a626060870187614695565b60600135868686604051602001610a7b9392919061491c565b6040516020818303038152906040526040518463ffffffff1660e01b8152600401610aa89392919061499f565b6020604051808303816000875af1158015610ac7573d6000803e3d6000fd5b505050506040513d601f19601f82011682018060405250810190610aeb91906149d4565b50610afc60408401602085016146df565b6001600160a01b0316638309dbdd610b1760208601866146df565b7f000000000000000000000000000000000000000000000000000000000000000060006040518463ffffffff1660e01b8152600401610b58939291906146fc565b600060405180830381600087803b158015610b7257600080fd5b505af1158015610b86573d6000803e3d6000fd5b50505050505050565b6000336001600160a01b037f00000000000000000000000000000000000000000000000000000000000000001614610bda576040516351b8314560e11b815260040160405180910390fd5b60008080610bea85870187614c2b565b9250925092506000610c0d84602001518560000151866060015160600151612a14565b602085015160405163d9c70f5760e01b81529192506001600160a01b037f0000000000000000000000000000000000000000000000000000000000000000169163d9c70f5791610c6291600190600401614617565b600060405180830381600087803b158015610c7c57600080fd5b505af1158015610c90573d6000803e3d6000fd5b5050505083602001516001600160a01b031663c75a4b5e85600001513030610cb788612aa0565b610cc090614c78565b610cc987612aa0565b610cd290614c78565b6040518663ffffffff1660e01b8152600401610cf295949392919061464b565b600060405180830381600087803b158015610d0c57600080fd5b505af1158015610d20573d6000803e3d6000fd5b505050602085015160405163d9c70f5760e01b81526001600160a01b037f000000000000000000000000000000000000000000000000000000000000000016925063d9c70f5791610d7691600090600401614617565b600060405180830381600087803b158015610d9057600080fd5b505af1158015610da4573d6000803e3d6000fd5b505050506000610db48585612aca565b90506000610e307f00000000000000000000000000000000000000000000000000000000000000006346caab3460e01b8860600151604051602401610df99190614c94565b60408051601f198184030181529190526020810180516001600160e01b03166001600160e01b031990931692909217909152612ae2565b9050600081806020019051810190610e489190614632565b90506000610e568285614d26565b6060808a0151015160405163095ea7b360e01b81529192506001600160a01b037f0000000000000000000000000000000000000000000000000000000000000000169163095ea7b391610ece917f00000000000000000000000000000000000000000000000000000000000000009190600401614d39565b6020604051808303816000875af1158015610eed573d6000803e3d6000fd5b505050506040513d601f19601f82011682018060405250810190610f1191906149d4565b506060808901510151604051637e348b7d60e01b81526001600160a01b037f00000000000000000000000000000000000000000000000000000000000000001691637e348b7d91610f66913091600401614d39565b600060405180830381600087803b158015610f8057600080fd5b505af1158015610f94573d6000803e3d6000fd5b50505050600081111561101c576080880151604001516001600160a01b031615610fff57610ff97f00000000000000000000000000000000000000000000000000000000000000006346caab3460e01b8a60800151604051602401610df99190614c94565b5061101c565b60608801516040015161101c906001600160a01b03168783612b5a565b507f24ea9631d6c6b69006fd9fa411bb9c8909638fd1d178dd2f1d231dca3e3e4d799d9c50505050505050505050505050565b6000336001600160a01b037f0000000000000000000000000000000000000000000000000000000000000000161461109a576040516309436d0560e01b815260040160405180910390fd5b600080806110aa85870187614d52565b60808301516040015192955090935091506001600160a01b03161561112657600061110c7f00000000000000000000000000000000000000000000000000000000000000006346caab3460e01b8660800151604051602401610df99190614c94565b9050808060200190518101906111229190614632565b9150505b60006111697f00000000000000000000000000000000000000000000000000000000000000006346caab3460e01b8660600151604051602401610df99190614c94565b90506000818060200190518101906111819190614632565b9050600061119186868685612bb5565b905060006111b087602001518860000151896060015160600151612a14565b905086602001516001600160a01b031663c75a4b5e886000015130306111d587612aa0565b6111de87612aa0565b6040518663ffffffff1660e01b81526004016111fe95949392919061464b565b600060405180830381600087803b15801561121857600080fd5b505af115801561122c573d6000803e3d6000fd5b50505050606087810151015160405163ef693bed60e01b81527f00000000000000000000000000000000000000000000000000000000000000006001600160a01b03169163ef693bed91611284913091600401614d39565b600060405180830381600087803b15801561129e57600080fd5b505af11580156112b2573d6000803e3d6000fd5b50505050606087810151015160405163095ea7b360e01b81527f00000000000000000000000000000000000000000000000000000000000000006001600160a01b03169163095ea7b39161132a917f000000000000000000000000000000000000000000000000000000000000000091600401614d39565b6020604051808303816000875af1158015611349573d6000803e3d6000fd5b505050506040513d601f19601f8201168201806040525081019061136d91906149d4565b507f439148f0bbc682ca079e46d6e2c2f0c1e3b820f1a291b069d8882abf8cf18dd99e9d5050505050505050505050505050565b6001600160a01b037f00000000000000000000000000000000000000000000000000000000000000001630036113ea5760405163f46a288f60e01b815260040160405180910390fd5b60006113f78585846128b5565b9050600061140786888635612a14565b9050856001600160a01b031663c75a4b5e88303061142487612aa0565b61142d87612aa0565b6040518663ffffffff1660e01b815260040161144d95949392919061464b565b600060405180830381600087803b15801561146757600080fd5b505af115801561147b573d6000803e3d6000fd5b50505050610b8684612c58565b6001600160a01b037f00000000000000000000000000000000000000000000000000000000000000001630036114d15760405163f46a288f60e01b815260040160405180910390fd5b60006114df83858435612a14565b9050826001600160a01b031663c75a4b5e85303060006114fe87612aa0565b6040518663ffffffff1660e01b815260040161151e95949392919061464b565b600060405180830381600087803b15801561153857600080fd5b505af115801561154c573d6000803e3d6000fd5b5050505061155982612c58565b50505050565b6001600160a01b037f00000000000000000000000000000000000000000000000000000000000000001630036115a85760405163f46a288f60e01b815260040160405180910390fd5b6115b486868484613049565b604051631591b45160e11b8152600481018590526001600160a01b03861690632b2368a2906024016020604051808303816000875af11580156115fb573d6000803e3d6000fd5b505050506040513d601f19601f8201168201806040525081019061161f9190614632565b50604051638309dbdd60e01b81526001600160a01b037f00000000000000000000000000000000000000000000000000000000000000001690638309dbdd9061167190899089906001906004016146fc565b600060405180830381600087803b15801561168b57600080fd5b505af115801561169f573d6000803e3d6000fd5b5050506001600160a01b038616905063c75a4b5e87308060006116cb6116c68a8a35614dab565b612aa0565b6116d490614c78565b6040518663ffffffff1660e01b81526004016116f495949392919061464b565b600060405180830381600087803b15801561170e57600080fd5b505af1158015611722573d6000803e3d6000fd5b5050604051638309dbdd60e01b81526001600160a01b037f0000000000000000000000000000000000000000000000000000000000000000169250638309dbdd915061177790899089906000906004016146fc565b600060405180830381600087803b15801561179157600080fd5b505af11580156117a5573d6000803e3d6000fd5b50505050505050505050565b6001600160a01b037f00000000000000000000000000000000000000000000000000000000000000001630036117fa5760405163f46a288f60e01b815260040160405180910390fd5b816001600160a01b031663c75a4b5e8430306118198660200135612aa0565b61182290614c78565b60006040518663ffffffff1660e01b815260040161184495949392919061464b565b600060405180830381600087803b15801561185e57600080fd5b505af1158015611872573d6000803e3d6000fd5b5050505061155982826132e9565b600080600080876001600160a01b0316636e5e741e8888886040518463ffffffff1660e01b81526004016118b693929190614dbe565b6080604051808303816000875af11580156118d5573d6000803e3d6000fd5b505050506040513d601f19601f820116820180604052508101906118f99190614dff565b929b919a509850909650945050505050565b6001600160a01b037f00000000000000000000000000000000000000000000000000000000000000001630036119545760405163f46a288f60e01b815260040160405180910390fd5b61196085858484613049565b604051638309dbdd60e01b81526001600160a01b037f00000000000000000000000000000000000000000000000000000000000000001690638309dbdd906119b190889088906001906004016146fc565b600060405180830381600087803b1580156119cb57600080fd5b505af11580156119df573d6000803e3d6000fd5b50505050836001600160a01b031663c75a4b5e863030611a028860200135612aa0565b611a0b90614c78565b611a158835612aa0565b611a1e90614c78565b6040518663ffffffff1660e01b8152600401611a3e95949392919061464b565b600060405180830381600087803b158015611a5857600080fd5b505af1158015611a6c573d6000803e3d6000fd5b5050604051638309dbdd60e01b81526001600160a01b037f0000000000000000000000000000000000000000000000000000000000000000169250638309dbdd9150611ac190889088906000906004016146fc565b600060405180830381600087803b158015611adb57600080fd5b505af1158015611aef573d6000803e3d6000fd5b50505050611afd84846132e9565b505050505050565b6001600160a01b037f0000000000000000000000000000000000000000000000000000000000000000163003611b4e5760405163f46a288f60e01b815260040160405180910390fd5b6000611b5d6060870187614695565b611b6e9060408101906020016146c4565b6001811115611b7f57611b7f61467f565b141580611bdb57506001600160a01b037f000000000000000000000000000000000000000000000000000000000000000016611bbe6060870187614695565b611bcf9060608101906040016146df565b6001600160a01b031614155b80611c3557506001600160a01b037f000000000000000000000000000000000000000000000000000000000000000016611c186060870187614695565b611c299060c081019060a0016146df565b6001600160a01b031614155b15611c53576040516304286a2760e01b815260040160405180910390fd5b6000611c626080870187614695565b611c739060608101906040016146df565b6001600160a01b031614158015611d4c57506000611c946080870187614695565b611ca59060408101906020016146c4565b6001811115611cb657611cb661467f565b141580611cf257506001600160a01b038416611cd56080870187614695565b611ce69060608101906040016146df565b6001600160a01b031614155b80611d4c57506001600160a01b037f000000000000000000000000000000000000000000000000000000000000000016611d2f6080870187614695565b611d409060c081019060a0016146df565b6001600160a01b031614155b15611d6a57604051630655da1360e41b815260040160405180910390fd5b8215611df457306001600160a01b03831603611db957611db46001600160a01b0385167f000000000000000000000000000000000000000000000000000000000000000085612b5a565b611df4565b611df484837f000000000000000000000000000000000000000000000000000000000000000086611def36879003870187614e46565b6133a7565b611e0460408601602087016146df565b6001600160a01b0316638309dbdd611e1f60208801886146df565b7f000000000000000000000000000000000000000000000000000000000000000060016040518463ffffffff1660e01b8152600401611e60939291906146fc565b600060405180830381600087803b158015611e7a57600080fd5b505af1158015611e8e573d6000803e3d6000fd5b50506001600160a01b037f0000000000000000000000000000000000000000000000000000000000000000169150635cffe9de90507f00000000000000000000000000000000000000000000000000000000000000007f0000000000000000000000000000000000000000000000000000000000000000611f1260608a018a614695565b60600135898989604051602001611f2b93929190614ed9565b6040516020818303038152906040526040518563ffffffff1660e01b8152600401611f599493929190614f07565b6020604051808303816000875af1158015611f78573d6000803e3d6000fd5b505050506040513d601f19601f82011682018060405250810190611f9c91906149d4565b50611fad60408601602087016146df565b6001600160a01b0316638309dbdd611fc860208801886146df565b7f000000000000000000000000000000000000000000000000000000000000000060006040518463ffffffff1660e01b8152600401610764939291906146fc565b6001600160a01b037f00000000000000000000000000000000000000000000000000000000000000001630036120525760405163f46a288f60e01b815260040160405180910390fd5b600061206460608401604085016146df565b6001600160a01b0316146120bc573061208360c0840160a085016146df565b6001600160a01b0316146120aa57604051634d6d22c560e11b815260040160405180910390fd5b6120b585838361356b565b9250612102565b6001600160a01b0385163014612102576121027f0000000000000000000000000000000000000000000000000000000000000000863086611def36879003870187614e46565b60405163095ea7b360e01b81526001600160a01b037f0000000000000000000000000000000000000000000000000000000000000000169063095ea7b390612170907f0000000000000000000000000000000000000000000000000000000000000000908790600401614d39565b6020604051808303816000875af115801561218f573d6000803e3d6000fd5b505050506040513d601f19601f820116820180604052508101906121b391906149d4565b50604051637e348b7d60e01b81526001600160a01b037f00000000000000000000000000000000000000000000000000000000000000001690637e348b7d906122029030908790600401614d39565b600060405180830381600087803b15801561221c57600080fd5b505af1158015612230573d6000803e3d6000fd5b50505050611afd8484610464565b604051631591b45160e11b8152600481018290526000906001600160a01b03841690632b2368a2906024016020604051808303816000875af1158015612288573d6000803e3d6000fd5b505050506040513d601f19601f820116820180604052508101906122ac9190614632565b9392505050565b6001600160a01b037f00000000000000000000000000000000000000000000000000000000000000001630036122fc5760405163f46a288f60e01b815260040160405180910390fd5b604051631591b45160e11b8152600481018490526001600160a01b03851690632b2368a2906024016020604051808303816000875af1158015612343573d6000803e3d6000fd5b505050506040513d601f19601f820116820180604052508101906123679190614632565b50604051638309dbdd60e01b81526001600160a01b037f00000000000000000000000000000000000000000000000000000000000000001690638309dbdd906123b990899089906001906004016146fc565b600060405180830381600087803b1580156123d357600080fd5b505af11580156123e7573d6000803e3d6000fd5b50505050846001600160a01b031663c75a4b5e87303061240a8660200135612aa0565b61241390614c78565b61241c88612aa0565b61242590614c78565b6040518663ffffffff1660e01b815260040161244595949392919061464b565b600060405180830381600087803b15801561245f57600080fd5b505af1158015612473573d6000803e3d6000fd5b5050604051638309dbdd60e01b81526001600160a01b037f0000000000000000000000000000000000000000000000000000000000000000169250638309dbdd91506124c890899089906000906004016146fc565b600060405180830381600087803b1580156124e257600080fd5b505af11580156124f6573d6000803e3d6000fd5b50505050610b8685826132e9565b6001600160a01b037f000000000000000000000000000000000000000000000000000000000000000016300361254d5760405163f46a288f60e01b815260040160405180910390fd5b8460005b818110156126d85783838281811061256b5761256b614f3a565b90506020020160208101906125809190614f50565b156126135761260d88888381811061259a5761259a614f3a565b90506020020160208101906125af91906146df565b8787848181106125c1576125c1614f3a565b90506020028101906125d39190614f6d565b8080601f016020809104026020016040519081016040528093929190818152602001838380828437600092019190915250612ae292505050565b506126d0565b60008089898481811061262857612628614f3a565b905060200201602081019061263d91906146df565b6001600160a01b031688888581811061265857612658614f3a565b905060200281019061266a9190614f6d565b604051612678929190614fb3565b6000604051808303816000865af19150503d80600081146126b5576040519150601f19603f3d011682016040523d82523d6000602084013e6126ba565b606091505b5091509150816126cd576126cd81613638565b50505b600101612551565b5050505050505050565b6001600160a01b037f000000000000000000000000000000000000000000000000000000000000000016300361272b5760405163f46a288f60e01b815260040160405180910390fd5b61273784848484613049565b604051638309dbdd60e01b81526001600160a01b037f00000000000000000000000000000000000000000000000000000000000000001690638309dbdd9061278890879087906001906004016146fc565b600060405180830381600087803b1580156127a257600080fd5b505af11580156127b6573d6000803e3d6000fd5b50505050826001600160a01b031663c75a4b5e85303060006127db8860000135612aa0565b6127e490614c78565b6040518663ffffffff1660e01b815260040161280495949392919061464b565b600060405180830381600087803b15801561281e57600080fd5b505af1158015612832573d6000803e3d6000fd5b5050604051638309dbdd60e01b81526001600160a01b037f0000000000000000000000000000000000000000000000000000000000000000169250638309dbdd915061288790879087906000906004016146fc565b600060405180830381600087803b1580156128a157600080fd5b505af11580156126d8573d6000803e3d6000fd5b60006020830135816128ca6060860186614695565b6128db9060608101906040016146df565b6001600160a01b0316146129a4576128f660208501856146df565b6001600160a01b031661290c6060860186614695565b61291d9060608101906040016146df565b6001600160a01b031614158061295957503061293c6060860186614695565b61294d9060c081019060a0016146df565b6001600160a01b031614155b156129775760405163469498c560e11b815260040160405180910390fd5b61299d61298a60608601604087016146df565b6129976060870187614695565b8561356b565b90506129f4565b306129b560608601604087016146df565b6001600160a01b0316146129f4576129f46129d360208601866146df565b6129e360608701604088016146df565b3084611def36899003890189614e46565b612a0b85612a0560208701876146df565b83613660565b95945050505050565b6000806000856001600160a01b0316638051ba75866040518263ffffffff1660e01b8152600401612a459190613fbc565b606060405180830381865afa158015612a62573d6000803e3d6000fd5b505050506040513d601f19601f82011682018060405250810190612a869190614fc3565b5091509150612a9684838361374c565b9695505050505050565b6000600160ff1b8210612ac657604051632db27c5360e01b815260040160405180910390fd5b5090565b60006122ac8360200151600084613788565b92915050565b6060600080846001600160a01b031684604051612aff9190615006565b600060405180830381855af49150503d8060008114612b3a576040519150601f19603f3d011682016040523d82523d6000602084013e612b3f565b606091505b509150915081612b5257612b5281613638565b949350505050565b612bb08363a9059cbb60e01b8484604051602401612b79929190614d39565b60408051601f198184030181529190526020810180516001600160e01b03166001600160e01b0319909316929092179091526137fc565b505050565b600080612bc28484614dab565b60208701516040880151919250612be3916001600160a01b031690836138d6565b85602001516001600160a01b03166347e7ef2430836040518363ffffffff1660e01b8152600401612c15929190614d39565b6020604051808303816000875af1158015612c34573d6000803e3d6000fd5b505050506040513d601f19601f82011682018060405250810190612a969190614632565b604051638309dbdd60e01b81526001600160a01b037f00000000000000000000000000000000000000000000000000000000000000001690638309dbdd90612cc99030907f0000000000000000000000000000000000000000000000000000000000000000906001906004016146fc565b600060405180830381600087803b158015612ce357600080fd5b505af1158015612cf7573d6000803e3d6000fd5b5060009250612d0c9150506040830183614695565b612d1d9060608101906040016146df565b6001600160a01b031603612e66576001600160a01b037f00000000000000000000000000000000000000000000000000000000000000001663ef693bed612d6a60408401602085016146df565b6040516001600160e01b031960e084901b168152612d8e9190853590600401614d39565b600060405180830381600087803b158015612da857600080fd5b505af1158015612dbc573d6000803e3d6000fd5b5050604051638309dbdd60e01b81526001600160a01b037f0000000000000000000000000000000000000000000000000000000000000000169250638309dbdd9150612e319030907f0000000000000000000000000000000000000000000000000000000000000000906000906004016146fc565b600060405180830381600087803b158015612e4b57600080fd5b505af1158015612e5f573d6000803e3d6000fd5b5050505050565b60405163ef693bed60e01b81526001600160a01b037f0000000000000000000000000000000000000000000000000000000000000000169063ef693bed90612eb5903090853590600401614d39565b600060405180830381600087803b158015612ecf57600080fd5b505af1158015612ee3573d6000803e3d6000fd5b5050604051638309dbdd60e01b81526001600160a01b037f0000000000000000000000000000000000000000000000000000000000000000169250638309dbdd9150612f589030907f0000000000000000000000000000000000000000000000000000000000000000906000906004016146fc565b600060405180830381600087803b158015612f7257600080fd5b505af1158015612f86573d6000803e3d6000fd5b50506001600160a01b037f0000000000000000000000000000000000000000000000000000000000000000169150612fc390506040830183614695565b612fd49060608101906040016146df565b6001600160a01b031614612ffb5760405163051b33b760e51b815260040160405180910390fd5b6130447f00000000000000000000000000000000000000000000000000000000000000006311b2aacd60e21b6130346040850185614695565b604051602401610df99190615018565b505b50565b6000806130596040850185614695565b61306a9060608101906040016146df565b6001600160a01b0316146130eb57306130866040850185614695565b6130979060c081019060a0016146df565b6001600160a01b0316146130be57604051633300ff5360e21b815260040160405180910390fd5b6130e46130d160408501602086016146df565b6130de6040860186614695565b8461356b565b90506131e9565b600080856001600160a01b0316638051ba75886040518263ffffffff1660e01b815260040161311a9190613fbc565b606060405180830381865afa158015613137573d6000803e3d6000fd5b505050506040513d601f19601f8201168201806040525081019061315b9190614fc3565b509092509050806131766001600160401b038416873561396f565b6131809190614d26565b92503061319360408701602088016146df565b6001600160a01b0316146131e6576131e67f00000000000000000000000000000000000000000000000000000000000000006131d560408801602089016146df565b3086611def368a90038a018a614e46565b50505b60405163095ea7b360e01b81526001600160a01b037f0000000000000000000000000000000000000000000000000000000000000000169063095ea7b390613257907f0000000000000000000000000000000000000000000000000000000000000000908590600401614d39565b6020604051808303816000875af1158015613276573d6000803e3d6000fd5b505050506040513d601f19601f8201168201806040525081019061329a91906149d4565b50604051637e348b7d60e01b81526001600160a01b037f00000000000000000000000000000000000000000000000000000000000000001690637e348b7d906107649030908590600401614d39565b600080613307846132fd60208601866146df565b8560200135613788565b905060006133186060850185614695565b6133299060608101906040016146df565b6001600160a01b031614613376576133707f00000000000000000000000000000000000000000000000000000000000000006311b2aacd60e21b6130346060870187614695565b506122ac565b6122ac61338960608501604086016146df565b8261339760208701876146df565b6001600160a01b03169190612b5a565b6002815160028111156133bc576133bc61467f565b036134e6576e22d473030f116ddee9f6b43ac78ba36001600160a01b03166330f28b7a604051806060016040528060405180604001604052808a6001600160a01b03168152602001866020015181525081526020018460400151815260200184606001518152506040518060400160405280876001600160a01b0316815260200186815250878560a001518660c00151876080015160f81b6040516020016134819392919092835260208301919091526001600160f81b031916604082015260410190565b6040516020818303038152906040526040518563ffffffff1660e01b81526004016134af949392919061502b565b600060405180830381600087803b1580156134c957600080fd5b505af11580156134dd573d6000803e3d6000fd5b50505050612e5f565b6001815160028111156134fb576134fb61467f565b036135565761353c84848360200151846060015185608001518660a001518760c001518c6001600160a01b031661399d90979695949392919063ffffffff16565b6135516001600160a01b038616858585613b6c565b612e5f565b612e5f6001600160a01b038616858585613b6c565b6000806135af7f0000000000000000000000000000000000000000000000000000000000000000630147931c60e01b878688604051602401610df9939291906150a4565b90506000818060200190518101906135c79190614632565b905060016135db60408701602088016146c4565b60018111156135ec576135ec61467f565b0361362b576000613601826080880135614d26565b9050801561361e5761361e878261339760608a0160408b016146df565b856060013593505061362f565b8092505b50509392505050565b80511561364757805181602001fd5b60405163491182fb60e01b815260040160405180910390fd5b600080846001600160a01b031663fc0c546a6040518163ffffffff1660e01b8152600401602060405180830381865afa1580156136a1573d6000803e3d6000fd5b505050506040513d601f19601f820116820180604052508101906136c59190615129565b90506136db6001600160a01b03821686856138d6565b6040516311f9fbc960e21b81526001600160a01b038616906347e7ef24906137099030908790600401614d39565b6020604051808303816000875af1158015613728573d6000803e3d6000fd5b505050506040513d601f19601f82011682018060405250810190612a0b9190614632565b600061376a61375b8386614dab565b846001600160401b0316613ba4565b905083613778828585613bf3565b10156122ac576001019392505050565b60405163f3fef3a360e01b81526000906001600160a01b0385169063f3fef3a3906137b99030908690600401614d39565b6020604051808303816000875af11580156137d8573d6000803e3d6000fd5b505050506040513d601f19601f82011682018060405250810190612b529190614632565b6000613851826040518060400160405280602081526020017f5361666545524332303a206c6f772d6c6576656c2063616c6c206661696c6564815250856001600160a01b0316613c139092919063ffffffff16565b905080516000148061387257508080602001905181019061387291906149d4565b612bb05760405162461bcd60e51b815260206004820152602a60248201527f5361666545524332303a204552433230206f7065726174696f6e20646964206e6044820152691bdd081cdd58d8d9595960b21b60648201526084015b60405180910390fd5b600063095ea7b360e01b83836040516024016138f3929190614d39565b60408051601f198184030181529190526020810180516001600160e01b03166001600160e01b03199093169290921790915290506139318482613c22565b611559576040516001600160a01b03841660248201526000604482015261396590859063095ea7b360e01b90606401612b79565b61155984826137fc565b60008160001904831182021561398d5763c4c5d7f56000526004601cfd5b50670de0b6b3a764000091020490565b604051623f675f60e91b81526000906001600160a01b038a1690637ecebe00906139cb908b90600401613fbc565b602060405180830381865afa1580156139e8573d6000803e3d6000fd5b505050506040513d601f19601f82011682018060405250810190613a0c9190614632565b60405163d505accf60e01b81526001600160a01b038a811660048301528981166024830152604482018990526064820188905260ff8716608483015260a4820186905260c48201859052919250908a169063d505accf9060e401600060405180830381600087803b158015613a8057600080fd5b505af1158015613a94573d6000803e3d6000fd5b5050604051623f675f60e91b8152600092506001600160a01b038c169150637ecebe0090613ac6908c90600401613fbc565b602060405180830381865afa158015613ae3573d6000803e3d6000fd5b505050506040513d601f19601f82011682018060405250810190613b079190614632565b9050613b14826001614dab565b81146117a55760405162461bcd60e51b815260206004820152602160248201527f5361666545524332303a207065726d697420646964206e6f74207375636365656044820152601960fa1b60648201526084016138cd565b6040516001600160a01b03808516602483015283166044820152606481018290526115599085906323b872dd60e01b90608401612b79565b60007812725dd1d243aba0e75fe645cc4873f9e65afe688c928e1f218311670de0b6b3a764000002158202613be15763bcbede656000526004601cfd5b50670de0b6b3a7640000919091020490565b600081613c0985856001600160401b031661396f565b612b529190614d26565b6060612b528484600085613cc5565b6000806000846001600160a01b031684604051613c3f9190615006565b6000604051808303816000865af19150503d8060008114613c7c576040519150601f19603f3d011682016040523d82523d6000602084013e613c81565b606091505b5091509150818015613cab575080511580613cab575080806020019051810190613cab91906149d4565b8015612a0b5750505050506001600160a01b03163b151590565b606082471015613d265760405162461bcd60e51b815260206004820152602660248201527f416464726573733a20696e73756666696369656e742062616c616e636520666f6044820152651c8818d85b1b60d21b60648201526084016138cd565b600080866001600160a01b03168587604051613d429190615006565b60006040518083038185875af1925050503d8060008114613d7f576040519150601f19603f3d011682016040523d82523d6000602084013e613d84565b606091505b5091509150613d9587838387613da0565b979650505050505050565b60608315613e0f578251600003613e08576001600160a01b0385163b613e085760405162461bcd60e51b815260206004820152601d60248201527f416464726573733a2063616c6c20746f206e6f6e2d636f6e747261637400000060448201526064016138cd565b5081612b52565b612b528383815115613e245781518083602001fd5b8060405162461bcd60e51b81526004016138cd9190615146565b6001600160a01b038116811461304657600080fd5b8035613e5e81613e3e565b919050565b60008060408385031215613e7657600080fd5b8235613e8181613e3e565b946020939093013593505050565b600060808284031215613ea157600080fd5b50919050565b600060e08284031215613ea157600080fd5b6000806000806000806101808789031215613ed357600080fd5b8635613ede81613e3e565b95506020870135613eee81613e3e565b94506040870135613efe81613e3e565b93506060870135925060808701356001600160401b03811115613f2057600080fd5b613f2c89828a01613e8f565b925050613f3c8860a08901613ea7565b90509295509295509295565b6000806000806101408587031215613f5f57600080fd5b8435613f6a81613e3e565b93506020850135613f7a81613e3e565b925060408501356001600160401b03811115613f9557600080fd5b613fa187828801613e8f565b925050613fb18660608701613ea7565b905092959194509250565b6001600160a01b0391909116815260200190565b600060a08284031215613ea157600080fd5b600080600060608486031215613ff757600080fd5b83356001600160401b0381111561400d57600080fd5b61401986828701613fd0565b93505060208401359150604084013561403181613e3e565b809150509250925092565b60008083601f84011261404e57600080fd5b5081356001600160401b0381111561406557600080fd5b60208301915083602082850101111561407d57600080fd5b9250929050565b60008060008060006080868803121561409c57600080fd5b85356140a781613e3e565b9450602086013593506040860135925060608601356001600160401b038111156140d057600080fd5b6140dc8882890161403c565b969995985093965092949392505050565b60008060008060008060a0878903121561410657600080fd5b863561411181613e3e565b9550602087013561412181613e3e565b9450604087013593506060870135925060808701356001600160401b0381111561414a57600080fd5b61415689828a0161403c565b979a9699509497509295939492505050565b600060608284031215613ea157600080fd5b6000806000806000610160868803121561419357600080fd5b853561419e81613e3e565b945060208601356141ae81613e3e565b935060408601356001600160401b03808211156141ca57600080fd5b6141d689838a01613e8f565b945060608801359150808211156141ec57600080fd5b506141f988828901614168565b9250506142098760808801613ea7565b90509295509295909350565b60008060006060848603121561422a57600080fd5b833561423581613e3e565b9250602084013561424581613e3e565b915060408401356001600160401b0381111561426057600080fd5b61426c86828701614168565b9150509250925092565b600080600080600080610180878903121561429057600080fd5b863561429b81613e3e565b955060208701356142ab81613e3e565b9450604087013593506060870135925060808701356001600160401b038111156142d457600080fd5b613f2c89828a01614168565b6000806000606084860312156142f557600080fd5b833561430081613e3e565b9250602084013561431081613e3e565b915060408401356001600160401b0381111561432b57600080fd5b61426c86828701613e8f565b60008083601f84011261434957600080fd5b5081356001600160401b0381111561436057600080fd5b6020830191508360208260051b850101111561407d57600080fd5b6000806000806060858703121561439157600080fd5b843561439c81613e3e565b93506020850135925060408501356001600160401b038111156143be57600080fd5b6143ca87828801614337565b95989497509550505050565b600080600080600061016086880312156143ef57600080fd5b85356001600160401b0381111561440557600080fd5b61441188828901613fd0565b955050602086013561442281613e3e565b935060408601359250606086013561443981613e3e565b91506142098760808801613ea7565b6000806000806000610160868803121561446157600080fd5b853561446c81613e3e565b9450602086013561447c81613e3e565b93506040860135925060608601356001600160401b0381111561449e57600080fd5b8601610100818903121561443957600080fd5b60008060008060008060c087890312156144ca57600080fd5b86356144d581613e3e565b955060208701356144e581613e3e565b945060408701356144f581613e3e565b9350606087013592506080870135915060a08701356001600160401b0381111561451e57600080fd5b61452a89828a01613e8f565b9150509295509295509295565b6000806000806000806060878903121561455057600080fd5b86356001600160401b038082111561456757600080fd5b6145738a838b01614337565b9098509650602089013591508082111561458c57600080fd5b6145988a838b01614337565b909650945060408901359150808211156145b157600080fd5b5061415689828a01614337565b60008060008061014085870312156145d557600080fd5b84356145e081613e3e565b935060208501356145f081613e3e565b925060408501356001600160401b0381111561460b57600080fd5b613fa187828801614168565b6001600160a01b039290921682521515602082015260400190565b60006020828403121561464457600080fd5b5051919050565b6001600160a01b03958616815293851660208501529190931660408301526060820192909252608081019190915260a00190565b634e487b7160e01b600052602160045260246000fd5b6000823560fe198336030181126146ab57600080fd5b9190910192915050565b803560028110613e5e57600080fd5b6000602082840312156146d657600080fd5b6122ac826146b5565b6000602082840312156146f157600080fd5b81356122ac81613e3e565b6001600160a01b039384168152919092166020820152901515604082015260600190565b6000823560fe1983360301811261473657600080fd5b90910192915050565b6003811061304657600080fd5b8035613e5e8161473f565b600381106130465761304661467f565b600281106147775761477761467f565b9052565b6000808335601e1984360301811261479257600080fd5b83016020810192503590506001600160401b038111156147b157600080fd5b80360382131561407d57600080fd5b81835281816020850137506000828201602090810191909152601f909101601f19169091010190565b600061010082356147f98161473f565b61480281614757565b8452614810602084016146b5565b61481d6020860182614767565b50604083013561482c81613e3e565b6001600160a01b03166040850152606083810135908501526080808401359085015260a083013561485c81613e3e565b6001600160a01b031660a085015260c0838101359085015261488160e084018461477b565b8260e0870152612a9683870182846147c0565b600081356148a181613e3e565b6001600160a01b0390811684526020830135906148bd82613e3e565b90811660208501526040830135906148d482613e3e565b1660408401526148e76060830183614720565b60a060608501526148fb60a08501826147e9565b905061490a6080840184614720565b8482036080860152612a0b82826147e9565b60608152600061492f6060830186614894565b6020830194909452506001600160a01b0391909116604090910152919050565b60005b8381101561496a578181015183820152602001614952565b50506000910152565b6000815180845261498b81602086016020860161494f565b601f01601f19169290920160200192915050565b60018060a01b0384168152826020820152606060408201526000612a0b6060830184614973565b801515811461304657600080fd5b6000602082840312156149e657600080fd5b81516122ac816149c6565b634e487b7160e01b600052604160045260246000fd5b60405161010081016001600160401b0381118282101715614a2a57614a2a6149f1565b60405290565b600082601f830112614a4157600080fd5b81356001600160401b0380821115614a5b57614a5b6149f1565b604051601f8301601f19908116603f01168101908282118183101715614a8357614a836149f1565b81604052838152866020858801011115614a9c57600080fd5b836020870160208301376000602085830101528094505050505092915050565b60006101008284031215614acf57600080fd5b614ad7614a07565b9050614ae28261474c565b8152614af0602083016146b5565b6020820152614b0160408301613e53565b60408201526060820135606082015260808201356080820152614b2660a08301613e53565b60a082015260c082013560c082015260e08201356001600160401b03811115614b4e57600080fd5b614b5a84828501614a30565b60e08301525092915050565b600060a08284031215614b7857600080fd5b60405160a081016001600160401b038282108183111715614b9b57614b9b6149f1565b8160405282935084359150614baf82613e3e565b908252602084013590614bc182613e3e565b816020840152614bd360408601613e53565b60408401526060850135915080821115614bec57600080fd5b614bf886838701614abc565b60608401526080850135915080821115614c1157600080fd5b50614c1e85828601614abc565b6080830152505092915050565b600080600060608486031215614c4057600080fd5b83356001600160401b03811115614c5657600080fd5b61401986828701614b66565b634e487b7160e01b600052601160045260246000fd5b6000600160ff1b8201614c8d57614c8d614c62565b5060000390565b6020815260008251614ca581614757565b806020840152506020830151614cbe6040840182614767565b5060018060a01b03604084015116606083015260608301516080830152608083015160a083015260a0830151614cff60c08401826001600160a01b03169052565b5060c083015160e083015260e0830151610100808185015250612b52610120840182614973565b81810381811115612adc57612adc614c62565b6001600160a01b03929092168252602082015260400190565b600080600060608486031215614d6757600080fd5b83356001600160401b03811115614d7d57600080fd5b614d8986828701614b66565b9350506020840135614d9a81613e3e565b929592945050506040919091013590565b80820180821115612adc57612adc614c62565b838152604060208201819052810182905260006001600160fb1b03831115614de557600080fd5b8260051b8085606085013791909101606001949350505050565b60008060008060808587031215614e1557600080fd5b505082516020840151604085015160609095015191969095509092509050565b803560ff81168114613e5e57600080fd5b600060e08284031215614e5857600080fd5b60405160e081018181106001600160401b0382111715614e7a57614e7a6149f1565b6040528235614e888161473f565b80825250602083013560208201526040830135604082015260608301356060820152614eb660808401614e35565b608082015260a083013560a082015260c083013560c08201528091505092915050565b606081526000614eec6060830186614894565b6001600160a01b039490941660208301525060400152919050565b6001600160a01b0385811682528416602082015260408101839052608060608201819052600090612a9690830184614973565b634e487b7160e01b600052603260045260246000fd5b600060208284031215614f6257600080fd5b81356122ac816149c6565b6000808335601e19843603018112614f8457600080fd5b8301803591506001600160401b03821115614f9e57600080fd5b60200191503681900382131561407d57600080fd5b8183823760009101908152919050565b600080600060608486031215614fd857600080fd5b83516001600160401b0381168114614fef57600080fd5b602085015160409095015190969495509392505050565b600082516146ab81846020870161494f565b6020815260006122ac60208301846147e9565b600061010061504e83885180516001600160a01b03168252602090810151910152565b6020870151604084015260408701516060840152615082608084018780516001600160a01b03168252602090810151910152565b6001600160a01b03851660c084015260e08301819052613d9581840185614973565b6001600160a01b0384168152600061012084356150c08161473f565b6150c981614757565b8060208501525060208501356040840152604085013560608401526060850135608084015260ff6150fc60808701614e35565b1660a084015260a085013560c084015260c085013560e084015280610100840152612a96818401856147e9565b60006020828403121561513b57600080fd5b81516122ac81613e3e565b6020815260006122ac602083018461497356fea2646970667358221220ea15e335d480c8ede49aeb9b117cc7d670d27fbcef118e8a5ed52bcdd80a014e64736f6c63430008130033",
    "linkReferences": {}
  },
  "methodIdentifiers": {
    "CALLBACK_SUCCESS()": "8237e538",
    "CALLBACK_SUCCESS_CREDIT()": "0f13be2a",
    "borrow(address,address,(uint256,address,(uint8,uint8,address,uint256,uint256,address,uint256,bytes)))": "56415a90",
    "cdm()": "e2dfb317",
    "claimUndelegatedCredit(address,uint256)": "dfad9c37",
    "decreaseLever((address,address,address,(uint8,uint8,address,uint256,uint256,address,uint256,bytes),(uint8,uint8,address,uint256,uint256,address,uint256,bytes)),uint256,address)": "0b839bf2",
    "delegate(address,uint256)": "026e402b",
    "delegateViaStablecoin(address,address,uint256,(uint8,uint8,address,uint256,uint256,address,uint256,bytes),(uint8,uint256,uint256,uint256,uint8,bytes32,bytes32))": "df3df773",
    "deposit(address,address,(address,uint256,address,(uint8,uint8,address,uint256,uint256,address,uint256,bytes)),(uint8,uint256,uint256,uint256,uint8,bytes32,bytes32))": "0567d4b1",
    "depositAndBorrow(address,address,(address,uint256,address,(uint8,uint8,address,uint256,uint256,address,uint256,bytes)),(uint256,address,(uint8,uint8,address,uint256,uint256,address,uint256,bytes)),(uint8,uint256,uint256,uint256,uint8,bytes32,bytes32))": "4ad4d4ad",
    "depositAndDelegate(address,address,address,uint256,(address,uint256,address,(uint8,uint8,address,uint256,uint256,address,uint256,bytes)),(uint8,uint256,uint256,uint256,uint8,bytes32,bytes32))": "03ccc7d0",
    "flashlender()": "ee58918a",
    "increaseLever((address,address,address,(uint8,uint8,address,uint256,uint256,address,uint256,bytes),(uint8,uint8,address,uint256,uint256,address,uint256,bytes)),address,uint256,address,(uint8,uint256,uint256,uint256,uint8,bytes32,bytes32))": "aad598ae",
    "minter()": "07546172",
    "multisend(address[],bytes[],bool[])": "f38584e0",
    "onCreditFlashLoan(address,uint256,uint256,bytes)": "16d8f165",
    "onFlashLoan(address,address,uint256,uint256,bytes)": "23e30c8b",
    "permit2()": "12261ee7",
    "repay(address,address,(uint256,address,(uint8,uint8,address,uint256,uint256,address,uint256,bytes)),(uint8,uint256,uint256,uint256,uint8,bytes32,bytes32))": "faa99405",
    "repayAndClaim(address,address,uint256,uint256,(uint256,address,(uint8,uint8,address,uint256,uint256,address,uint256,bytes)),(uint8,uint256,uint256,uint256,uint8,bytes32,bytes32))": "65b57a74",
    "self()": "7104ddb2",
    "stablecoin()": "e9cbd822",
    "swapAction()": "a888828b",
    "undelegate(address,uint256,uint256[])": "7810436a",
    "withdraw(address,address,(address,uint256,address,(uint8,uint8,address,uint256,uint256,address,uint256,bytes)))": "6c747057",
    "withdrawAndClaim(address,address,address,uint256,uint256,(address,uint256,address,(uint8,uint8,address,uint256,uint256,address,uint256,bytes)))": "ecec1641",
    "withdrawAndRepay(address,address,(address,uint256,address,(uint8,uint8,address,uint256,uint256,address,uint256,bytes)),(uint256,address,(uint8,uint8,address,uint256,uint256,address,uint256,bytes)),(uint8,uint256,uint256,uint256,uint8,bytes32,bytes32))": "96c2c408"
  },
  "id": 118
}