{
  "abi": [
    {
      "inputs": [
        {
          "internalType": "address",
          "name": "flashlender_",
          "type": "address"
        },
        {
          "internalType": "address",
          "name": "swapAction_",
          "type": "address"
        }
      ],
      "stateMutability": "nonpayable",
      "type": "constructor"
    },
    {
      "inputs": [],
      "name": "Action__revertBytes_emptyRevertBytes",
      "type": "error"
    },
    {
      "inputs": [],
      "name": "Math__toInt256_overflow",
      "type": "error"
    },
    {
      "inputs": [],
      "name": "PositionAction__borrow_InvalidAuxSwap",
      "type": "error"
    },
    {
      "inputs": [],
      "name": "PositionAction__decreaseLever_invalidAuxSwap",
      "type": "error"
    },
    {
      "inputs": [],
      "name": "PositionAction__decreaseLever_invalidPrimarySwap",
      "type": "error"
    },
    {
      "inputs": [],
      "name": "PositionAction__decreaseLever_invalidResidualRecipient",
      "type": "error"
    },
    {
      "inputs": [],
      "name": "PositionAction__delegateViaStablecoin_InvalidAuxSwap",
      "type": "error"
    },
    {
      "inputs": [],
      "name": "PositionAction__deposit_InvalidAuxSwap",
      "type": "error"
    },
    {
      "inputs": [],
      "name": "PositionAction__increaseLever_invalidAuxSwap",
      "type": "error"
    },
    {
      "inputs": [],
      "name": "PositionAction__increaseLever_invalidPrimarySwap",
      "type": "error"
    },
    {
      "inputs": [],
      "name": "PositionAction__onCreditFlashLoan__invalidSender",
      "type": "error"
    },
    {
      "inputs": [],
      "name": "PositionAction__onFlashLoan__invalidSender",
      "type": "error"
    },
    {
      "inputs": [],
      "name": "PositionAction__onlyDelegatecall",
      "type": "error"
    },
    {
      "inputs": [],
      "name": "PositionAction__repay_InvalidAuxSwap",
      "type": "error"
    },
    {
      "inputs": [],
      "name": "CALLBACK_SUCCESS",
      "outputs": [
        {
          "internalType": "bytes32",
          "name": "",
          "type": "bytes32"
        }
      ],
      "stateMutability": "view",
      "type": "function"
    },
    {
      "inputs": [],
      "name": "CALLBACK_SUCCESS_CREDIT",
      "outputs": [
        {
          "internalType": "bytes32",
          "name": "",
          "type": "bytes32"
        }
      ],
      "stateMutability": "view",
      "type": "function"
    },
    {
      "inputs": [
        {
          "internalType": "address",
          "name": "position",
          "type": "address"
        },
        {
          "internalType": "address",
          "name": "vault",
          "type": "address"
        },
        {
          "components": [
            {
              "internalType": "uint256",
              "name": "amount",
              "type": "uint256"
            },
            {
              "internalType": "address",
              "name": "creditor",
              "type": "address"
            },
            {
              "components": [
                {
                  "internalType": "enum SwapProtocol",
                  "name": "swapProtocol",
                  "type": "uint8"
                },
                {
                  "internalType": "enum SwapType",
                  "name": "swapType",
                  "type": "uint8"
                },
                {
                  "internalType": "address",
                  "name": "assetIn",
                  "type": "address"
                },
                {
                  "internalType": "uint256",
                  "name": "amount",
                  "type": "uint256"
                },
                {
                  "internalType": "uint256",
                  "name": "limit",
                  "type": "uint256"
                },
                {
                  "internalType": "address",
                  "name": "recipient",
                  "type": "address"
                },
                {
                  "internalType": "uint256",
                  "name": "deadline",
                  "type": "uint256"
                },
                {
                  "internalType": "bytes",
                  "name": "args",
                  "type": "bytes"
                }
              ],
              "internalType": "struct SwapParams",
              "name": "auxSwap",
              "type": "tuple"
            }
          ],
          "internalType": "struct CreditParams",
          "name": "creditParams",
          "type": "tuple"
        }
      ],
      "name": "borrow",
      "outputs": [],
      "stateMutability": "nonpayable",
      "type": "function"
    },
    {
      "inputs": [],
      "name": "cdm",
      "outputs": [
        {
          "internalType": "contract ICDM",
          "name": "",
          "type": "address"
        }
      ],
      "stateMutability": "view",
      "type": "function"
    },
    {
      "inputs": [
        {
          "components": [
            {
              "internalType": "address",
              "name": "position",
              "type": "address"
            },
            {
              "internalType": "address",
              "name": "vault",
              "type": "address"
            },
            {
              "internalType": "address",
              "name": "collateralToken",
              "type": "address"
            },
            {
              "components": [
                {
                  "internalType": "enum SwapProtocol",
                  "name": "swapProtocol",
                  "type": "uint8"
                },
                {
                  "internalType": "enum SwapType",
                  "name": "swapType",
                  "type": "uint8"
                },
                {
                  "internalType": "address",
                  "name": "assetIn",
                  "type": "address"
                },
                {
                  "internalType": "uint256",
                  "name": "amount",
                  "type": "uint256"
                },
                {
                  "internalType": "uint256",
                  "name": "limit",
                  "type": "uint256"
                },
                {
                  "internalType": "address",
                  "name": "recipient",
                  "type": "address"
                },
                {
                  "internalType": "uint256",
                  "name": "deadline",
                  "type": "uint256"
                },
                {
                  "internalType": "bytes",
                  "name": "args",
                  "type": "bytes"
                }
              ],
              "internalType": "struct SwapParams",
              "name": "primarySwap",
              "type": "tuple"
            },
            {
              "components": [
                {
                  "internalType": "enum SwapProtocol",
                  "name": "swapProtocol",
                  "type": "uint8"
                },
                {
                  "internalType": "enum SwapType",
                  "name": "swapType",
                  "type": "uint8"
                },
                {
                  "internalType": "address",
                  "name": "assetIn",
                  "type": "address"
                },
                {
                  "internalType": "uint256",
                  "name": "amount",
                  "type": "uint256"
                },
                {
                  "internalType": "uint256",
                  "name": "limit",
                  "type": "uint256"
                },
                {
                  "internalType": "address",
                  "name": "recipient",
                  "type": "address"
                },
                {
                  "internalType": "uint256",
                  "name": "deadline",
                  "type": "uint256"
                },
                {
                  "internalType": "bytes",
                  "name": "args",
                  "type": "bytes"
                }
              ],
              "internalType": "struct SwapParams",
              "name": "auxSwap",
              "type": "tuple"
            }
          ],
          "internalType": "struct LeverParams",
          "name": "leverParams",
          "type": "tuple"
        },
        {
          "internalType": "uint256",
          "name": "subCollateral",
          "type": "uint256"
        },
        {
          "internalType": "address",
          "name": "residualRecipient",
          "type": "address"
        }
      ],
      "name": "decreaseLever",
      "outputs": [],
      "stateMutability": "nonpayable",
      "type": "function"
    },
    {
      "inputs": [
        {
          "internalType": "address",
          "name": "position",
          "type": "address"
        },
        {
          "internalType": "address",
          "name": "vault",
          "type": "address"
        },
        {
          "components": [
            {
              "internalType": "address",
              "name": "targetToken",
              "type": "address"
            },
            {
              "internalType": "uint256",
              "name": "amount",
              "type": "uint256"
            },
            {
              "internalType": "address",
              "name": "collateralizer",
              "type": "address"
            },
            {
              "components": [
                {
                  "internalType": "enum SwapProtocol",
                  "name": "swapProtocol",
                  "type": "uint8"
                },
                {
                  "internalType": "enum SwapType",
                  "name": "swapType",
                  "type": "uint8"
                },
                {
                  "internalType": "address",
                  "name": "assetIn",
                  "type": "address"
                },
                {
                  "internalType": "uint256",
                  "name": "amount",
                  "type": "uint256"
                },
                {
                  "internalType": "uint256",
                  "name": "limit",
                  "type": "uint256"
                },
                {
                  "internalType": "address",
                  "name": "recipient",
                  "type": "address"
                },
                {
                  "internalType": "uint256",
                  "name": "deadline",
                  "type": "uint256"
                },
                {
                  "internalType": "bytes",
                  "name": "args",
                  "type": "bytes"
                }
              ],
              "internalType": "struct SwapParams",
              "name": "auxSwap",
              "type": "tuple"
            }
          ],
          "internalType": "struct CollateralParams",
          "name": "collateralParams",
          "type": "tuple"
        },
        {
          "components": [
            {
              "internalType": "enum ApprovalType",
              "name": "approvalType",
              "type": "uint8"
            },
            {
              "internalType": "uint256",
              "name": "approvalAmount",
              "type": "uint256"
            },
            {
              "internalType": "uint256",
              "name": "nonce",
              "type": "uint256"
            },
            {
              "internalType": "uint256",
              "name": "deadline",
              "type": "uint256"
            },
            {
              "internalType": "uint8",
              "name": "v",
              "type": "uint8"
            },
            {
              "internalType": "bytes32",
              "name": "r",
              "type": "bytes32"
            },
            {
              "internalType": "bytes32",
              "name": "s",
              "type": "bytes32"
            }
          ],
          "internalType": "struct PermitParams",
          "name": "permitParams",
          "type": "tuple"
        }
      ],
      "name": "deposit",
      "outputs": [],
      "stateMutability": "nonpayable",
      "type": "function"
    },
    {
      "inputs": [
        {
          "internalType": "address",
          "name": "position",
          "type": "address"
        },
        {
          "internalType": "address",
          "name": "vault",
          "type": "address"
        },
        {
          "components": [
            {
              "internalType": "address",
              "name": "targetToken",
              "type": "address"
            },
            {
              "internalType": "uint256",
              "name": "amount",
              "type": "uint256"
            },
            {
              "internalType": "address",
              "name": "collateralizer",
              "type": "address"
            },
            {
              "components": [
                {
                  "internalType": "enum SwapProtocol",
                  "name": "swapProtocol",
                  "type": "uint8"
                },
                {
                  "internalType": "enum SwapType",
                  "name": "swapType",
                  "type": "uint8"
                },
                {
                  "internalType": "address",
                  "name": "assetIn",
                  "type": "address"
                },
                {
                  "internalType": "uint256",
                  "name": "amount",
                  "type": "uint256"
                },
                {
                  "internalType": "uint256",
                  "name": "limit",
                  "type": "uint256"
                },
                {
                  "internalType": "address",
                  "name": "recipient",
                  "type": "address"
                },
                {
                  "internalType": "uint256",
                  "name": "deadline",
                  "type": "uint256"
                },
                {
                  "internalType": "bytes",
                  "name": "args",
                  "type": "bytes"
                }
              ],
              "internalType": "struct SwapParams",
              "name": "auxSwap",
              "type": "tuple"
            }
          ],
          "internalType": "struct CollateralParams",
          "name": "collateralParams",
          "type": "tuple"
        },
        {
          "components": [
            {
              "internalType": "uint256",
              "name": "amount",
              "type": "uint256"
            },
            {
              "internalType": "address",
              "name": "creditor",
              "type": "address"
            },
            {
              "components": [
                {
                  "internalType": "enum SwapProtocol",
                  "name": "swapProtocol",
                  "type": "uint8"
                },
                {
                  "internalType": "enum SwapType",
                  "name": "swapType",
                  "type": "uint8"
                },
                {
                  "internalType": "address",
                  "name": "assetIn",
                  "type": "address"
                },
                {
                  "internalType": "uint256",
                  "name": "amount",
                  "type": "uint256"
                },
                {
                  "internalType": "uint256",
                  "name": "limit",
                  "type": "uint256"
                },
                {
                  "internalType": "address",
                  "name": "recipient",
                  "type": "address"
                },
                {
                  "internalType": "uint256",
                  "name": "deadline",
                  "type": "uint256"
                },
                {
                  "internalType": "bytes",
                  "name": "args",
                  "type": "bytes"
                }
              ],
              "internalType": "struct SwapParams",
              "name": "auxSwap",
              "type": "tuple"
            }
          ],
          "internalType": "struct CreditParams",
          "name": "creditParams",
          "type": "tuple"
        },
        {
          "components": [
            {
              "internalType": "enum ApprovalType",
              "name": "approvalType",
              "type": "uint8"
            },
            {
              "internalType": "uint256",
              "name": "approvalAmount",
              "type": "uint256"
            },
            {
              "internalType": "uint256",
              "name": "nonce",
              "type": "uint256"
            },
            {
              "internalType": "uint256",
              "name": "deadline",
              "type": "uint256"
            },
            {
              "internalType": "uint8",
              "name": "v",
              "type": "uint8"
            },
            {
              "internalType": "bytes32",
              "name": "r",
              "type": "bytes32"
            },
            {
              "internalType": "bytes32",
              "name": "s",
              "type": "bytes32"
            }
          ],
          "internalType": "struct PermitParams",
          "name": "permitParams",
          "type": "tuple"
        }
      ],
      "name": "depositAndBorrow",
      "outputs": [],
      "stateMutability": "nonpayable",
      "type": "function"
    },
    {
      "inputs": [],
      "name": "flashlender",
      "outputs": [
        {
          "internalType": "contract IFlashlender",
          "name": "",
          "type": "address"
        }
      ],
      "stateMutability": "view",
      "type": "function"
    },
    {
      "inputs": [
        {
          "components": [
            {
              "internalType": "address",
              "name": "position",
              "type": "address"
            },
            {
              "internalType": "address",
              "name": "vault",
              "type": "address"
            },
            {
              "internalType": "address",
              "name": "collateralToken",
              "type": "address"
            },
            {
              "components": [
                {
                  "internalType": "enum SwapProtocol",
                  "name": "swapProtocol",
                  "type": "uint8"
                },
                {
                  "internalType": "enum SwapType",
                  "name": "swapType",
                  "type": "uint8"
                },
                {
                  "internalType": "address",
                  "name": "assetIn",
                  "type": "address"
                },
                {
                  "internalType": "uint256",
                  "name": "amount",
                  "type": "uint256"
                },
                {
                  "internalType": "uint256",
                  "name": "limit",
                  "type": "uint256"
                },
                {
                  "internalType": "address",
                  "name": "recipient",
                  "type": "address"
                },
                {
                  "internalType": "uint256",
                  "name": "deadline",
                  "type": "uint256"
                },
                {
                  "internalType": "bytes",
                  "name": "args",
                  "type": "bytes"
                }
              ],
              "internalType": "struct SwapParams",
              "name": "primarySwap",
              "type": "tuple"
            },
            {
              "components": [
                {
                  "internalType": "enum SwapProtocol",
                  "name": "swapProtocol",
                  "type": "uint8"
                },
                {
                  "internalType": "enum SwapType",
                  "name": "swapType",
                  "type": "uint8"
                },
                {
                  "internalType": "address",
                  "name": "assetIn",
                  "type": "address"
                },
                {
                  "internalType": "uint256",
                  "name": "amount",
                  "type": "uint256"
                },
                {
                  "internalType": "uint256",
                  "name": "limit",
                  "type": "uint256"
                },
                {
                  "internalType": "address",
                  "name": "recipient",
                  "type": "address"
                },
                {
                  "internalType": "uint256",
                  "name": "deadline",
                  "type": "uint256"
                },
                {
                  "internalType": "bytes",
                  "name": "args",
                  "type": "bytes"
                }
              ],
              "internalType": "struct SwapParams",
              "name": "auxSwap",
              "type": "tuple"
            }
          ],
          "internalType": "struct LeverParams",
          "name": "leverParams",
          "type": "tuple"
        },
        {
          "internalType": "address",
          "name": "upFrontToken",
          "type": "address"
        },
        {
          "internalType": "uint256",
          "name": "upFrontAmount",
          "type": "uint256"
        },
        {
          "internalType": "address",
          "name": "collateralizer",
          "type": "address"
        },
        {
          "components": [
            {
              "internalType": "enum ApprovalType",
              "name": "approvalType",
              "type": "uint8"
            },
            {
              "internalType": "uint256",
              "name": "approvalAmount",
              "type": "uint256"
            },
            {
              "internalType": "uint256",
              "name": "nonce",
              "type": "uint256"
            },
            {
              "internalType": "uint256",
              "name": "deadline",
              "type": "uint256"
            },
            {
              "internalType": "uint8",
              "name": "v",
              "type": "uint8"
            },
            {
              "internalType": "bytes32",
              "name": "r",
              "type": "bytes32"
            },
            {
              "internalType": "bytes32",
              "name": "s",
              "type": "bytes32"
            }
          ],
          "internalType": "struct PermitParams",
          "name": "permitParams",
          "type": "tuple"
        }
      ],
      "name": "increaseLever",
      "outputs": [],
      "stateMutability": "nonpayable",
      "type": "function"
    },
    {
      "inputs": [],
      "name": "minter",
      "outputs": [
        {
          "internalType": "contract IMinter",
          "name": "",
          "type": "address"
        }
      ],
      "stateMutability": "view",
      "type": "function"
    },
    {
      "inputs": [
        {
          "internalType": "address[]",
          "name": "targets",
          "type": "address[]"
        },
        {
          "internalType": "bytes[]",
          "name": "data",
          "type": "bytes[]"
        },
        {
          "internalType": "bool[]",
          "name": "delegateCall",
          "type": "bool[]"
        }
      ],
      "name": "multisend",
      "outputs": [],
      "stateMutability": "nonpayable",
      "type": "function"
    },
    {
      "inputs": [
        {
          "internalType": "address",
          "name": "",
          "type": "address"
        },
        {
          "internalType": "uint256",
          "name": "",
          "type": "uint256"
        },
        {
          "internalType": "uint256",
          "name": "",
          "type": "uint256"
        },
        {
          "internalType": "bytes",
          "name": "data",
          "type": "bytes"
        }
      ],
      "name": "onCreditFlashLoan",
      "outputs": [
        {
          "internalType": "bytes32",
          "name": "",
          "type": "bytes32"
        }
      ],
      "stateMutability": "nonpayable",
      "type": "function"
    },
    {
      "inputs": [
        {
          "internalType": "address",
          "name": "",
          "type": "address"
        },
        {
          "internalType": "address",
          "name": "",
          "type": "address"
        },
        {
          "internalType": "uint256",
          "name": "",
          "type": "uint256"
        },
        {
          "internalType": "uint256",
          "name": "",
          "type": "uint256"
        },
        {
          "internalType": "bytes",
          "name": "data",
          "type": "bytes"
        }
      ],
      "name": "onFlashLoan",
      "outputs": [
        {
          "internalType": "bytes32",
          "name": "",
          "type": "bytes32"
        }
      ],
      "stateMutability": "nonpayable",
      "type": "function"
    },
    {
      "inputs": [],
      "name": "permit2",
      "outputs": [
        {
          "internalType": "address",
          "name": "",
          "type": "address"
        }
      ],
      "stateMutability": "view",
      "type": "function"
    },
    {
      "inputs": [
        {
          "internalType": "address",
          "name": "position",
          "type": "address"
        },
        {
          "internalType": "address",
          "name": "vault",
          "type": "address"
        },
        {
          "components": [
            {
              "internalType": "uint256",
              "name": "amount",
              "type": "uint256"
            },
            {
              "internalType": "address",
              "name": "creditor",
              "type": "address"
            },
            {
              "components": [
                {
                  "internalType": "enum SwapProtocol",
                  "name": "swapProtocol",
                  "type": "uint8"
                },
                {
                  "internalType": "enum SwapType",
                  "name": "swapType",
                  "type": "uint8"
                },
                {
                  "internalType": "address",
                  "name": "assetIn",
                  "type": "address"
                },
                {
                  "internalType": "uint256",
                  "name": "amount",
                  "type": "uint256"
                },
                {
                  "internalType": "uint256",
                  "name": "limit",
                  "type": "uint256"
                },
                {
                  "internalType": "address",
                  "name": "recipient",
                  "type": "address"
                },
                {
                  "internalType": "uint256",
                  "name": "deadline",
                  "type": "uint256"
                },
                {
                  "internalType": "bytes",
                  "name": "args",
                  "type": "bytes"
                }
              ],
              "internalType": "struct SwapParams",
              "name": "auxSwap",
              "type": "tuple"
            }
          ],
          "internalType": "struct CreditParams",
          "name": "creditParams",
          "type": "tuple"
        },
        {
          "components": [
            {
              "internalType": "enum ApprovalType",
              "name": "approvalType",
              "type": "uint8"
            },
            {
              "internalType": "uint256",
              "name": "approvalAmount",
              "type": "uint256"
            },
            {
              "internalType": "uint256",
              "name": "nonce",
              "type": "uint256"
            },
            {
              "internalType": "uint256",
              "name": "deadline",
              "type": "uint256"
            },
            {
              "internalType": "uint8",
              "name": "v",
              "type": "uint8"
            },
            {
              "internalType": "bytes32",
              "name": "r",
              "type": "bytes32"
            },
            {
              "internalType": "bytes32",
              "name": "s",
              "type": "bytes32"
            }
          ],
          "internalType": "struct PermitParams",
          "name": "permitParams",
          "type": "tuple"
        }
      ],
      "name": "repay",
      "outputs": [],
      "stateMutability": "nonpayable",
      "type": "function"
    },
    {
      "inputs": [],
      "name": "self",
      "outputs": [
        {
          "internalType": "address",
          "name": "",
          "type": "address"
        }
      ],
      "stateMutability": "view",
      "type": "function"
    },
    {
      "inputs": [],
      "name": "stablecoin",
      "outputs": [
        {
          "internalType": "contract IStablecoin",
          "name": "",
          "type": "address"
        }
      ],
      "stateMutability": "view",
      "type": "function"
    },
    {
      "inputs": [],
      "name": "swapAction",
      "outputs": [
        {
          "internalType": "contract SwapAction",
          "name": "",
          "type": "address"
        }
      ],
      "stateMutability": "view",
      "type": "function"
    },
    {
      "inputs": [
        {
          "internalType": "address",
          "name": "position",
          "type": "address"
        },
        {
          "internalType": "address",
          "name": "vault",
          "type": "address"
        },
        {
          "components": [
            {
              "internalType": "address",
              "name": "targetToken",
              "type": "address"
            },
            {
              "internalType": "uint256",
              "name": "amount",
              "type": "uint256"
            },
            {
              "internalType": "address",
              "name": "collateralizer",
              "type": "address"
            },
            {
              "components": [
                {
                  "internalType": "enum SwapProtocol",
                  "name": "swapProtocol",
                  "type": "uint8"
                },
                {
                  "internalType": "enum SwapType",
                  "name": "swapType",
                  "type": "uint8"
                },
                {
                  "internalType": "address",
                  "name": "assetIn",
                  "type": "address"
                },
                {
                  "internalType": "uint256",
                  "name": "amount",
                  "type": "uint256"
                },
                {
                  "internalType": "uint256",
                  "name": "limit",
                  "type": "uint256"
                },
                {
                  "internalType": "address",
                  "name": "recipient",
                  "type": "address"
                },
                {
                  "internalType": "uint256",
                  "name": "deadline",
                  "type": "uint256"
                },
                {
                  "internalType": "bytes",
                  "name": "args",
                  "type": "bytes"
                }
              ],
              "internalType": "struct SwapParams",
              "name": "auxSwap",
              "type": "tuple"
            }
          ],
          "internalType": "struct CollateralParams",
          "name": "collateralParams",
          "type": "tuple"
        }
      ],
      "name": "withdraw",
      "outputs": [],
      "stateMutability": "nonpayable",
      "type": "function"
    },
    {
      "inputs": [
        {
          "internalType": "address",
          "name": "position",
          "type": "address"
        },
        {
          "internalType": "address",
          "name": "vault",
          "type": "address"
        },
        {
          "components": [
            {
              "internalType": "address",
              "name": "targetToken",
              "type": "address"
            },
            {
              "internalType": "uint256",
              "name": "amount",
              "type": "uint256"
            },
            {
              "internalType": "address",
              "name": "collateralizer",
              "type": "address"
            },
            {
              "components": [
                {
                  "internalType": "enum SwapProtocol",
                  "name": "swapProtocol",
                  "type": "uint8"
                },
                {
                  "internalType": "enum SwapType",
                  "name": "swapType",
                  "type": "uint8"
                },
                {
                  "internalType": "address",
                  "name": "assetIn",
                  "type": "address"
                },
                {
                  "internalType": "uint256",
                  "name": "amount",
                  "type": "uint256"
                },
                {
                  "internalType": "uint256",
                  "name": "limit",
                  "type": "uint256"
                },
                {
                  "internalType": "address",
                  "name": "recipient",
                  "type": "address"
                },
                {
                  "internalType": "uint256",
                  "name": "deadline",
                  "type": "uint256"
                },
                {
                  "internalType": "bytes",
                  "name": "args",
                  "type": "bytes"
                }
              ],
              "internalType": "struct SwapParams",
              "name": "auxSwap",
              "type": "tuple"
            }
          ],
          "internalType": "struct CollateralParams",
          "name": "collateralParams",
          "type": "tuple"
        },
        {
          "components": [
            {
              "internalType": "uint256",
              "name": "amount",
              "type": "uint256"
            },
            {
              "internalType": "address",
              "name": "creditor",
              "type": "address"
            },
            {
              "components": [
                {
                  "internalType": "enum SwapProtocol",
                  "name": "swapProtocol",
                  "type": "uint8"
                },
                {
                  "internalType": "enum SwapType",
                  "name": "swapType",
                  "type": "uint8"
                },
                {
                  "internalType": "address",
                  "name": "assetIn",
                  "type": "address"
                },
                {
                  "internalType": "uint256",
                  "name": "amount",
                  "type": "uint256"
                },
                {
                  "internalType": "uint256",
                  "name": "limit",
                  "type": "uint256"
                },
                {
                  "internalType": "address",
                  "name": "recipient",
                  "type": "address"
                },
                {
                  "internalType": "uint256",
                  "name": "deadline",
                  "type": "uint256"
                },
                {
                  "internalType": "bytes",
                  "name": "args",
                  "type": "bytes"
                }
              ],
              "internalType": "struct SwapParams",
              "name": "auxSwap",
              "type": "tuple"
            }
          ],
          "internalType": "struct CreditParams",
          "name": "creditParams",
          "type": "tuple"
        },
        {
          "components": [
            {
              "internalType": "enum ApprovalType",
              "name": "approvalType",
              "type": "uint8"
            },
            {
              "internalType": "uint256",
              "name": "approvalAmount",
              "type": "uint256"
            },
            {
              "internalType": "uint256",
              "name": "nonce",
              "type": "uint256"
            },
            {
              "internalType": "uint256",
              "name": "deadline",
              "type": "uint256"
            },
            {
              "internalType": "uint8",
              "name": "v",
              "type": "uint8"
            },
            {
              "internalType": "bytes32",
              "name": "r",
              "type": "bytes32"
            },
            {
              "internalType": "bytes32",
              "name": "s",
              "type": "bytes32"
            }
          ],
          "internalType": "struct PermitParams",
          "name": "permitParams",
          "type": "tuple"
        }
      ],
      "name": "withdrawAndRepay",
      "outputs": [],
      "stateMutability": "nonpayable",
      "type": "function"
    }
  ],
  "bytecode": {
    "object": "0x6101406040523480156200001257600080fd5b506040516200488c3803806200488c8339810160408190526200003591620002bb565b8181816001600160a01b031660a0816001600160a01b03168152505060a0516001600160a01b031663e9cbd8226040518163ffffffff1660e01b8152600401602060405180830381865afa15801562000092573d6000803e3d6000fd5b505050506040513d601f19601f82011682018060405250810190620000b89190620002fa565b6001600160a01b031660c0816001600160a01b03168152505060a0516001600160a01b031663075461726040518163ffffffff1660e01b8152600401602060405180830381865afa15801562000112573d6000803e3d6000fd5b505050506040513d601f19601f82011682018060405250810190620001389190620002fa565b6001600160a01b031660e0816001600160a01b03168152505060a0516001600160a01b031663e2dfb3176040518163ffffffff1660e01b8152600401602060405180830381865afa15801562000192573d6000803e3d6000fd5b505050506040513d601f19601f82011682018060405250810190620001b89190620002fa565b6001600160a01b03908116608081905230610100528282166101205260e05160405163d9c70f5760e01b815292166004830152600160248301529063d9c70f5790604401600060405180830381600087803b1580156200021757600080fd5b505af11580156200022c573d6000803e3d6000fd5b505060805160405163d9c70f5760e01b81526001600160a01b03868116600483015260016024830152909116925063d9c70f579150604401600060405180830381600087803b1580156200027f57600080fd5b505af115801562000294573d6000803e3d6000fd5b505050505050505062000321565b6001600160a01b0381168114620002b857600080fd5b50565b60008060408385031215620002cf57600080fd5b8251620002dc81620002a2565b6020840151909250620002ef81620002a2565b809150509250929050565b6000602082840312156200030d57600080fd5b81516200031a81620002a2565b9392505050565b60805160a05160c05160e051610100516101205161438562000507600039600081816102a601528181610a7701528181610c7701528181610d8a01528181610de7015281816124e7015281816125830152612a82015260008181610245015281816103800152818161044e015281816104d001528181610644015281816106e8015281816107cb015281816110650152818161114c01528181611223015281816112f2015281816114ec015281816115c8015281816116df0152818161176c0152818161179d015281816117fe015281816118a2015281816119a7015281816119f00152611bce01526000818161014b01528181610b5f01528181610beb01528181610f01015281816121850152818161221c015281816122ed0152818161236401528181612414015281816127d2015261285701526000818161030701528181610b3201528181610f870152818161156e015281816118c3015281816124790152818161274b01526127a501526000818161032e015281816106bd0152818161084e01528181610d1601528181610fbc01526118770152600081816102e0015281816108ed01528181610a04015281816113540152818161146201528181611c3001528181611d2d01528181612156015281816122bc01526123e301526143856000f3fe608060405234801561001057600080fd5b506004361061012c5760003560e01c80637104ddb2116100ad578063e2dfb31711610071578063e2dfb317146102db578063e9cbd82214610302578063ee58918a14610329578063f38584e014610350578063faa994051461036357600080fd5b80637104ddb2146102405780638237e5381461026757806396c2c4081461028e578063a888828b146102a1578063aad598ae146102c857600080fd5b806316d8f165116100f457806316d8f165146101e157806323e30c8b146101f45780634ad4d4ad1461020757806356415a901461021a5780636c7470571461022d57600080fd5b80630567d4b11461013157806307546172146101465780630b839bf2146101835780630f13be2a1461019657806312261ee7146101cb575b600080fd5b61014461013f366004613384565b610376565b005b61016d7f000000000000000000000000000000000000000000000000000000000000000081565b60405161017a91906133f8565b60405180910390f35b61014461019136600461341e565b610444565b6101bd7f24ea9631d6c6b69006fd9fa411bb9c8909638fd1d178dd2f1d231dca3e3e4d7981565b60405190815260200161017a565b61016d6e22d473030f116ddee9f6b43ac78ba381565b6101bd6101ef3660046134c0565b610841565b6101bd610202366004613529565b610d09565b6101446102153660046135b6565b61105b565b610144610228366004613651565b611142565b61014461023b3660046136b2565b611219565b61016d7f000000000000000000000000000000000000000000000000000000000000000081565b6101bd7f439148f0bbc682ca079e46d6e2c2f0c1e3b820f1a291b069d8882abf8cf18dd981565b61014461029c3660046135b6565b6112e8565b61016d7f000000000000000000000000000000000000000000000000000000000000000081565b6101446102d6366004613709565b6114e2565b61016d7f000000000000000000000000000000000000000000000000000000000000000081565b61016d7f000000000000000000000000000000000000000000000000000000000000000081565b61016d7f000000000000000000000000000000000000000000000000000000000000000081565b61014461035e3660046137bf565b6119e6565b610144610371366004613846565b611bc4565b6001600160a01b037f00000000000000000000000000000000000000000000000000000000000000001630036103bf5760405163f46a288f60e01b815260040160405180910390fd5b60006103cc848484611d97565b9050836001600160a01b031663c75a4b5e8630306103e986611ef8565b60006040518663ffffffff1660e01b815260040161040b95949392919061389f565b600060405180830381600087803b15801561042557600080fd5b505af1158015610439573d6000803e3d6000fd5b505050505050505050565b6001600160a01b037f000000000000000000000000000000000000000000000000000000000000000016300361048d5760405163f46a288f60e01b815260040160405180910390fd5b600161049c60608501856138e9565b6104ad906040810190602001613918565b60018111156104be576104be6138d3565b14158061051a57506001600160a01b037f0000000000000000000000000000000000000000000000000000000000000000166104fd60608501856138e9565b61050e9060c081019060a001613933565b6001600160a01b031614155b15610538576040516338ef377d60e01b815260040160405180910390fd5b600061054760808501856138e9565b610558906060810190604001613933565b6001600160a01b03161415801561059e5750600061057960808501856138e9565b61058a906040810190602001613918565b600181111561059b5761059b6138d3565b14155b156105bc57604051630e6c295f60e11b815260040160405180910390fd5b60006105cb60808501856138e9565b6105dc906060810190604001613933565b6001600160a01b03161480156105f957506001600160a01b038116155b156106175760405163163a7c2d60e01b815260040160405180910390fd5b6106276040840160208501613933565b6001600160a01b0316638309dbdd6106426020860186613933565b7f000000000000000000000000000000000000000000000000000000000000000060016040518463ffffffff1660e01b815260040161068393929190613950565b600060405180830381600087803b15801561069d57600080fd5b505af11580156106b1573d6000803e3d6000fd5b50506001600160a01b037f0000000000000000000000000000000000000000000000000000000000000000169150637b644bad90507f000000000000000000000000000000000000000000000000000000000000000061071460608701876138e9565b6060013586868660405160200161072d93929190613b70565b6040516020818303038152906040526040518463ffffffff1660e01b815260040161075a93929190613bf3565b6020604051808303816000875af1158015610779573d6000803e3d6000fd5b505050506040513d601f19601f8201168201806040525081019061079d9190613c28565b506107ae6040840160208501613933565b6001600160a01b0316638309dbdd6107c96020860186613933565b7f000000000000000000000000000000000000000000000000000000000000000060006040518463ffffffff1660e01b815260040161080a93929190613950565b600060405180830381600087803b15801561082457600080fd5b505af1158015610838573d6000803e3d6000fd5b50505050505050565b6000336001600160a01b037f0000000000000000000000000000000000000000000000000000000000000000161461088c576040516351b8314560e11b815260040160405180910390fd5b6000808061089c85870187613e7f565b92509250925060006108bf84602001518560000151866060015160600151611f22565b602085015160405163d9c70f5760e01b81526001600160a01b039182166004820152600160248201529192507f0000000000000000000000000000000000000000000000000000000000000000169063d9c70f5790604401600060405180830381600087803b15801561093157600080fd5b505af1158015610945573d6000803e3d6000fd5b5050505083602001516001600160a01b031663c75a4b5e8560000151303061096c88611ef8565b61097590613ecc565b61097e87611ef8565b61098790613ecc565b6040518663ffffffff1660e01b81526004016109a795949392919061389f565b600060405180830381600087803b1580156109c157600080fd5b505af11580156109d5573d6000803e3d6000fd5b50505050602084015160405163d9c70f5760e01b81526001600160a01b039182166004820152600060248201527f00000000000000000000000000000000000000000000000000000000000000009091169063d9c70f5790604401600060405180830381600087803b158015610a4a57600080fd5b505af1158015610a5e573d6000803e3d6000fd5b505050506000610a6e8585611fae565b90506000610aea7f00000000000000000000000000000000000000000000000000000000000000006346caab3460e01b8860600151604051602401610ab39190613ee8565b60408051601f198184030181529190526020810180516001600160e01b03166001600160e01b031990931692909217909152611fc9565b9050600081806020019051810190610b029190613f7a565b90506000610b108285613f93565b6060808a0151015160405163095ea7b360e01b81529192506001600160a01b037f0000000000000000000000000000000000000000000000000000000000000000169163095ea7b391610b88917f00000000000000000000000000000000000000000000000000000000000000009190600401613fa6565b6020604051808303816000875af1158015610ba7573d6000803e3d6000fd5b505050506040513d601f19601f82011682018060405250810190610bcb9190613c28565b506060808901510151604051637e348b7d60e01b81526001600160a01b037f00000000000000000000000000000000000000000000000000000000000000001691637e348b7d91610c20913091600401613fa6565b600060405180830381600087803b158015610c3a57600080fd5b505af1158015610c4e573d6000803e3d6000fd5b505050506000811115610cd6576080880151604001516001600160a01b031615610cb957610cb37f00000000000000000000000000000000000000000000000000000000000000006346caab3460e01b8a60800151604051602401610ab39190613ee8565b50610cd6565b606088015160400151610cd6906001600160a01b03168783612041565b507f24ea9631d6c6b69006fd9fa411bb9c8909638fd1d178dd2f1d231dca3e3e4d799d9c50505050505050505050505050565b6000336001600160a01b037f00000000000000000000000000000000000000000000000000000000000000001614610d54576040516309436d0560e01b815260040160405180910390fd5b60008080610d6485870187613fbf565b60808301516040015192955090935091506001600160a01b031615610de0576000610dc67f00000000000000000000000000000000000000000000000000000000000000006346caab3460e01b8660800151604051602401610ab39190613ee8565b905080806020019051810190610ddc9190613f7a565b9150505b6000610e237f00000000000000000000000000000000000000000000000000000000000000006346caab3460e01b8660600151604051602401610ab39190613ee8565b9050600081806020019051810190610e3b9190613f7a565b90506000610e4b8686868561209c565b90506000610e6a87602001518860000151896060015160600151611f22565b905086602001516001600160a01b031663c75a4b5e88600001513030610e8f87611ef8565b610e9887611ef8565b6040518663ffffffff1660e01b8152600401610eb895949392919061389f565b600060405180830381600087803b158015610ed257600080fd5b505af1158015610ee6573d6000803e3d6000fd5b50505050606087810151015160405163ef693bed60e01b81527f00000000000000000000000000000000000000000000000000000000000000006001600160a01b03169163ef693bed91610f3e913091600401613fa6565b600060405180830381600087803b158015610f5857600080fd5b505af1158015610f6c573d6000803e3d6000fd5b50505050606087810151015160405163095ea7b360e01b81527f00000000000000000000000000000000000000000000000000000000000000006001600160a01b03169163095ea7b391610fe4917f000000000000000000000000000000000000000000000000000000000000000091600401613fa6565b6020604051808303816000875af1158015611003573d6000803e3d6000fd5b505050506040513d601f19601f820116820180604052508101906110279190613c28565b507f439148f0bbc682ca079e46d6e2c2f0c1e3b820f1a291b069d8882abf8cf18dd99e9d5050505050505050505050505050565b6001600160a01b037f00000000000000000000000000000000000000000000000000000000000000001630036110a45760405163f46a288f60e01b815260040160405180910390fd5b60006110b1858584611d97565b905060006110c186888635611f22565b9050856001600160a01b031663c75a4b5e8830306110de87611ef8565b6110e787611ef8565b6040518663ffffffff1660e01b815260040161110795949392919061389f565b600060405180830381600087803b15801561112157600080fd5b505af1158015611135573d6000803e3d6000fd5b505050506108388461213f565b6001600160a01b037f000000000000000000000000000000000000000000000000000000000000000016300361118b5760405163f46a288f60e01b815260040160405180910390fd5b600061119983858435611f22565b9050826001600160a01b031663c75a4b5e85303060006111b887611ef8565b6040518663ffffffff1660e01b81526004016111d895949392919061389f565b600060405180830381600087803b1580156111f257600080fd5b505af1158015611206573d6000803e3d6000fd5b505050506112138261213f565b50505050565b6001600160a01b037f00000000000000000000000000000000000000000000000000000000000000001630036112625760405163f46a288f60e01b815260040160405180910390fd5b816001600160a01b031663c75a4b5e8430306112818660200135611ef8565b61128a90613ecc565b60006040518663ffffffff1660e01b81526004016112ac95949392919061389f565b600060405180830381600087803b1580156112c657600080fd5b505af11580156112da573d6000803e3d6000fd5b505050506112138282612530565b6001600160a01b037f00000000000000000000000000000000000000000000000000000000000000001630036113315760405163f46a288f60e01b815260040160405180910390fd5b61133d858584846125ee565b604051638309dbdd60e01b81526001600160a01b037f00000000000000000000000000000000000000000000000000000000000000001690638309dbdd9061138e9088908890600190600401613950565b600060405180830381600087803b1580156113a857600080fd5b505af11580156113bc573d6000803e3d6000fd5b50505050836001600160a01b031663c75a4b5e8630306113df8860200135611ef8565b6113e890613ecc565b6113f28835611ef8565b6113fb90613ecc565b6040518663ffffffff1660e01b815260040161141b95949392919061389f565b600060405180830381600087803b15801561143557600080fd5b505af1158015611449573d6000803e3d6000fd5b5050604051638309dbdd60e01b81526001600160a01b037f0000000000000000000000000000000000000000000000000000000000000000169250638309dbdd915061149e9088908890600090600401613950565b600060405180830381600087803b1580156114b857600080fd5b505af11580156114cc573d6000803e3d6000fd5b505050506114da8484612530565b505050505050565b6001600160a01b037f000000000000000000000000000000000000000000000000000000000000000016300361152b5760405163f46a288f60e01b815260040160405180910390fd5b600061153a60608701876138e9565b61154b906040810190602001613918565b600181111561155c5761155c6138d3565b1415806115b857506001600160a01b037f00000000000000000000000000000000000000000000000000000000000000001661159b60608701876138e9565b6115ac906060810190604001613933565b6001600160a01b031614155b8061161257506001600160a01b037f0000000000000000000000000000000000000000000000000000000000000000166115f560608701876138e9565b6116069060c081019060a001613933565b6001600160a01b031614155b15611630576040516304286a2760e01b815260040160405180910390fd5b600061163f60808701876138e9565b611650906060810190604001613933565b6001600160a01b0316141580156117295750600061167160808701876138e9565b611682906040810190602001613918565b6001811115611693576116936138d3565b1415806116cf57506001600160a01b0384166116b260808701876138e9565b6116c3906060810190604001613933565b6001600160a01b031614155b8061172957506001600160a01b037f00000000000000000000000000000000000000000000000000000000000000001661170c60808701876138e9565b61171d9060c081019060a001613933565b6001600160a01b031614155b1561174757604051630655da1360e41b815260040160405180910390fd5b82156117d157306001600160a01b03831603611796576117916001600160a01b0385167f000000000000000000000000000000000000000000000000000000000000000085612041565b6117d1565b6117d184837f0000000000000000000000000000000000000000000000000000000000000000866117cc36879003870187614029565b61288e565b6117e16040860160208701613933565b6001600160a01b0316638309dbdd6117fc6020880188613933565b7f000000000000000000000000000000000000000000000000000000000000000060016040518463ffffffff1660e01b815260040161183d93929190613950565b600060405180830381600087803b15801561185757600080fd5b505af115801561186b573d6000803e3d6000fd5b50506001600160a01b037f0000000000000000000000000000000000000000000000000000000000000000169150635cffe9de90507f00000000000000000000000000000000000000000000000000000000000000007f00000000000000000000000000000000000000000000000000000000000000006118ef60608a018a6138e9565b60600135898989604051602001611908939291906140bc565b6040516020818303038152906040526040518563ffffffff1660e01b815260040161193694939291906140ea565b6020604051808303816000875af1158015611955573d6000803e3d6000fd5b505050506040513d601f19601f820116820180604052508101906119799190613c28565b5061198a6040860160208701613933565b6001600160a01b0316638309dbdd6119a56020880188613933565b7f000000000000000000000000000000000000000000000000000000000000000060006040518463ffffffff1660e01b815260040161040b93929190613950565b6001600160a01b037f0000000000000000000000000000000000000000000000000000000000000000163003611a2f5760405163f46a288f60e01b815260040160405180910390fd5b8460005b81811015611bba57838382818110611a4d57611a4d61411d565b9050602002016020810190611a629190614133565b15611af557611aef888883818110611a7c57611a7c61411d565b9050602002016020810190611a919190613933565b878784818110611aa357611aa361411d565b9050602002810190611ab59190614150565b8080601f016020809104026020016040519081016040528093929190818152602001838380828437600092019190915250611fc992505050565b50611bb2565b600080898984818110611b0a57611b0a61411d565b9050602002016020810190611b1f9190613933565b6001600160a01b0316888885818110611b3a57611b3a61411d565b9050602002810190611b4c9190614150565b604051611b5a929190614196565b6000604051808303816000865af19150503d8060008114611b97576040519150601f19603f3d011682016040523d82523d6000602084013e611b9c565b606091505b509150915081611baf57611baf81612a52565b50505b600101611a33565b5050505050505050565b6001600160a01b037f0000000000000000000000000000000000000000000000000000000000000000163003611c0d5760405163f46a288f60e01b815260040160405180910390fd5b611c19848484846125ee565b604051638309dbdd60e01b81526001600160a01b037f00000000000000000000000000000000000000000000000000000000000000001690638309dbdd90611c6a9087908790600190600401613950565b600060405180830381600087803b158015611c8457600080fd5b505af1158015611c98573d6000803e3d6000fd5b50505050826001600160a01b031663c75a4b5e8530306000611cbd8860000135611ef8565b611cc690613ecc565b6040518663ffffffff1660e01b8152600401611ce695949392919061389f565b600060405180830381600087803b158015611d0057600080fd5b505af1158015611d14573d6000803e3d6000fd5b5050604051638309dbdd60e01b81526001600160a01b037f0000000000000000000000000000000000000000000000000000000000000000169250638309dbdd9150611d699087908790600090600401613950565b600060405180830381600087803b158015611d8357600080fd5b505af1158015611bba573d6000803e3d6000fd5b6000602083013581611dac60608601866138e9565b611dbd906060810190604001613933565b6001600160a01b031614611e8657611dd86020850185613933565b6001600160a01b0316611dee60608601866138e9565b611dff906060810190604001613933565b6001600160a01b0316141580611e3b575030611e1e60608601866138e9565b611e2f9060c081019060a001613933565b6001600160a01b031614155b15611e595760405163469498c560e11b815260040160405180910390fd5b611e7f611e6c6060860160408701613933565b611e7960608701876138e9565b85612a7a565b9050611ed6565b30611e976060860160408701613933565b6001600160a01b031614611ed657611ed6611eb56020860186613933565b611ec56060870160408801613933565b30846117cc36899003890189614029565b611eed85611ee76020870187613933565b83612b47565b9150505b9392505050565b6000600160ff1b8210611f1e57604051632db27c5360e01b815260040160405180910390fd5b5090565b6000806000856001600160a01b0316638051ba75866040518263ffffffff1660e01b8152600401611f5391906133f8565b606060405180830381865afa158015611f70573d6000803e3d6000fd5b505050506040513d601f19601f82011682018060405250810190611f9491906141a6565b5091509150611fa4848383612c33565b9695505050505050565b6000611fc08360200151600084612c6f565b90505b92915050565b6060600080846001600160a01b031684604051611fe691906141e9565b600060405180830381855af49150503d8060008114612021576040519150601f19603f3d011682016040523d82523d6000602084013e612026565b606091505b5091509150816120395761203981612a52565b949350505050565b6120978363a9059cbb60e01b8484604051602401612060929190613fa6565b60408051601f198184030181529190526020810180516001600160e01b03166001600160e01b031990931692909217909152612ce3565b505050565b6000806120a984846141fb565b602087015160408801519192506120ca916001600160a01b03169083612dbd565b85602001516001600160a01b03166347e7ef2430836040518363ffffffff1660e01b81526004016120fc929190613fa6565b6020604051808303816000875af115801561211b573d6000803e3d6000fd5b505050506040513d601f19601f82011682018060405250810190611fa49190613f7a565b604051638309dbdd60e01b81526001600160a01b037f00000000000000000000000000000000000000000000000000000000000000001690638309dbdd906121b09030907f000000000000000000000000000000000000000000000000000000000000000090600190600401613950565b600060405180830381600087803b1580156121ca57600080fd5b505af11580156121de573d6000803e3d6000fd5b50600092506121f391505060408301836138e9565b612204906060810190604001613933565b6001600160a01b03160361234d576001600160a01b037f00000000000000000000000000000000000000000000000000000000000000001663ef693bed6122516040840160208501613933565b6040516001600160e01b031960e084901b1681526122759190853590600401613fa6565b600060405180830381600087803b15801561228f57600080fd5b505af11580156122a3573d6000803e3d6000fd5b5050604051638309dbdd60e01b81526001600160a01b037f0000000000000000000000000000000000000000000000000000000000000000169250638309dbdd91506123189030907f000000000000000000000000000000000000000000000000000000000000000090600090600401613950565b600060405180830381600087803b15801561233257600080fd5b505af1158015612346573d6000803e3d6000fd5b5050505050565b60405163ef693bed60e01b81526001600160a01b037f0000000000000000000000000000000000000000000000000000000000000000169063ef693bed9061239c903090853590600401613fa6565b600060405180830381600087803b1580156123b657600080fd5b505af11580156123ca573d6000803e3d6000fd5b5050604051638309dbdd60e01b81526001600160a01b037f0000000000000000000000000000000000000000000000000000000000000000169250638309dbdd915061243f9030907f000000000000000000000000000000000000000000000000000000000000000090600090600401613950565b600060405180830381600087803b15801561245957600080fd5b505af115801561246d573d6000803e3d6000fd5b50506001600160a01b037f00000000000000000000000000000000000000000000000000000000000000001691506124aa905060408301836138e9565b6124bb906060810190604001613933565b6001600160a01b0316146124e25760405163051b33b760e51b815260040160405180910390fd5b61252b7f00000000000000000000000000000000000000000000000000000000000000006311b2aacd60e21b61251b60408501856138e9565b604051602401610ab3919061420e565b505b50565b60008061254e846125446020860186613933565b8560200135612c6f565b9050600061255f60608501856138e9565b612570906060810190604001613933565b6001600160a01b0316146125bd576125b77f00000000000000000000000000000000000000000000000000000000000000006311b2aacd60e21b61251b60608701876138e9565b50611fc0565b611fc06125d06060850160408601613933565b826125de6020870187613933565b6001600160a01b03169190612041565b6000806125fe60408501856138e9565b61260f906060810190604001613933565b6001600160a01b031614612690573061262b60408501856138e9565b61263c9060c081019060a001613933565b6001600160a01b03161461266357604051633300ff5360e21b815260040160405180910390fd5b6126896126766040850160208601613933565b61268360408601866138e9565b84612a7a565b905061278e565b600080856001600160a01b0316638051ba75886040518263ffffffff1660e01b81526004016126bf91906133f8565b606060405180830381865afa1580156126dc573d6000803e3d6000fd5b505050506040513d601f19601f8201168201806040525081019061270091906141a6565b5090925090508061271b6001600160401b0384168735612e56565b6127259190613f93565b9250306127386040870160208801613933565b6001600160a01b03161461278b5761278b7f000000000000000000000000000000000000000000000000000000000000000061277a6040880160208901613933565b30866117cc368a90038a018a614029565b50505b60405163095ea7b360e01b81526001600160a01b037f0000000000000000000000000000000000000000000000000000000000000000169063095ea7b3906127fc907f0000000000000000000000000000000000000000000000000000000000000000908590600401613fa6565b6020604051808303816000875af115801561281b573d6000803e3d6000fd5b505050506040513d601f19601f8201168201806040525081019061283f9190613c28565b50604051637e348b7d60e01b81526001600160a01b037f00000000000000000000000000000000000000000000000000000000000000001690637e348b7d9061040b9030908590600401613fa6565b6002815160028111156128a3576128a36138d3565b036129cd576e22d473030f116ddee9f6b43ac78ba36001600160a01b03166330f28b7a604051806060016040528060405180604001604052808a6001600160a01b03168152602001866020015181525081526020018460400151815260200184606001518152506040518060400160405280876001600160a01b0316815260200186815250878560a001518660c00151876080015160f81b6040516020016129689392919092835260208301919091526001600160f81b031916604082015260410190565b6040516020818303038152906040526040518563ffffffff1660e01b81526004016129969493929190614221565b600060405180830381600087803b1580156129b057600080fd5b505af11580156129c4573d6000803e3d6000fd5b50505050612346565b6001815160028111156129e2576129e26138d3565b03612a3d57612a2384848360200151846060015185608001518660a001518760c001518c6001600160a01b0316612e8490979695949392919063ffffffff16565b612a386001600160a01b03861685858561305f565b612346565b6123466001600160a01b03861685858561305f565b805115612a6157805181602001fd5b60405163491182fb60e01b815260040160405180910390fd5b600080612abe7f0000000000000000000000000000000000000000000000000000000000000000630147931c60e01b878688604051602401610ab39392919061429a565b9050600081806020019051810190612ad69190613f7a565b90506001612aea6040870160208801613918565b6001811115612afb57612afb6138d3565b03612b3a576000612b10826080880135613f93565b90508015612b2d57612b2d87826125de60608a0160408b01613933565b8560600135935050612b3e565b8092505b50509392505050565b600080846001600160a01b031663fc0c546a6040518163ffffffff1660e01b8152600401602060405180830381865afa158015612b88573d6000803e3d6000fd5b505050506040513d601f19601f82011682018060405250810190612bac919061431f565b9050612bc26001600160a01b0382168685612dbd565b6040516311f9fbc960e21b81526001600160a01b038616906347e7ef2490612bf09030908790600401613fa6565b6020604051808303816000875af1158015612c0f573d6000803e3d6000fd5b505050506040513d601f19601f82011682018060405250810190611eed9190613f7a565b6000612c51612c4283866141fb565b846001600160401b0316613097565b905083612c5f8285856130e6565b1015611ef1576001019392505050565b60405163f3fef3a360e01b81526000906001600160a01b0385169063f3fef3a390612ca09030908690600401613fa6565b6020604051808303816000875af1158015612cbf573d6000803e3d6000fd5b505050506040513d601f19601f820116820180604052508101906120399190613f7a565b6000612d38826040518060400160405280602081526020017f5361666545524332303a206c6f772d6c6576656c2063616c6c206661696c6564815250856001600160a01b03166131069092919063ffffffff16565b9050805160001480612d59575080806020019051810190612d599190613c28565b6120975760405162461bcd60e51b815260206004820152602a60248201527f5361666545524332303a204552433230206f7065726174696f6e20646964206e6044820152691bdd081cdd58d8d9595960b21b60648201526084015b60405180910390fd5b600063095ea7b360e01b8383604051602401612dda929190613fa6565b60408051601f198184030181529190526020810180516001600160e01b03166001600160e01b0319909316929092179091529050612e188482613115565b611213576040516001600160a01b038416602482015260006044820152612e4c90859063095ea7b360e01b90606401612060565b6112138482612ce3565b600081600019048311820215612e745763c4c5d7f56000526004601cfd5b50670de0b6b3a764000091020490565b604051623f675f60e91b81526000906001600160a01b038a1690637ecebe0090612eb2908b906004016133f8565b602060405180830381865afa158015612ecf573d6000803e3d6000fd5b505050506040513d601f19601f82011682018060405250810190612ef39190613f7a565b60405163d505accf60e01b81526001600160a01b038a811660048301528981166024830152604482018990526064820188905260ff8716608483015260a4820186905260c48201859052919250908a169063d505accf9060e401600060405180830381600087803b158015612f6757600080fd5b505af1158015612f7b573d6000803e3d6000fd5b5050604051623f675f60e91b8152600092506001600160a01b038c169150637ecebe0090612fad908c906004016133f8565b602060405180830381865afa158015612fca573d6000803e3d6000fd5b505050506040513d601f19601f82011682018060405250810190612fee9190613f7a565b9050612ffb8260016141fb565b81146130535760405162461bcd60e51b815260206004820152602160248201527f5361666545524332303a207065726d697420646964206e6f74207375636365656044820152601960fa1b6064820152608401612db4565b50505050505050505050565b6040516001600160a01b03808516602483015283166044820152606481018290526112139085906323b872dd60e01b90608401612060565b60007812725dd1d243aba0e75fe645cc4873f9e65afe688c928e1f218311670de0b6b3a7640000021582026130d45763bcbede656000526004601cfd5b50670de0b6b3a7640000919091020490565b6000816130fc85856001600160401b0316612e56565b6120399190613f93565b606061203984846000856131bc565b6000806000846001600160a01b03168460405161313291906141e9565b6000604051808303816000865af19150503d806000811461316f576040519150601f19603f3d011682016040523d82523d6000602084013e613174565b606091505b509150915081801561319e57508051158061319e57508080602001905181019061319e9190613c28565b80156131b357506001600160a01b0385163b15155b95945050505050565b60608247101561321d5760405162461bcd60e51b815260206004820152602660248201527f416464726573733a20696e73756666696369656e742062616c616e636520666f6044820152651c8818d85b1b60d21b6064820152608401612db4565b600080866001600160a01b0316858760405161323991906141e9565b60006040518083038185875af1925050503d8060008114613276576040519150601f19603f3d011682016040523d82523d6000602084013e61327b565b606091505b509150915061328c87838387613297565b979650505050505050565b606083156133065782516000036132ff576001600160a01b0385163b6132ff5760405162461bcd60e51b815260206004820152601d60248201527f416464726573733a2063616c6c20746f206e6f6e2d636f6e74726163740000006044820152606401612db4565b5081612039565b612039838381511561331b5781518083602001fd5b8060405162461bcd60e51b8152600401612db4919061433c565b6001600160a01b038116811461252d57600080fd5b803561335581613335565b919050565b60006080828403121561336c57600080fd5b50919050565b600060e0828403121561336c57600080fd5b600080600080610140858703121561339b57600080fd5b84356133a681613335565b935060208501356133b681613335565b925060408501356001600160401b038111156133d157600080fd5b6133dd8782880161335a565b9250506133ed8660608701613372565b905092959194509250565b6001600160a01b0391909116815260200190565b600060a0828403121561336c57600080fd5b60008060006060848603121561343357600080fd5b83356001600160401b0381111561344957600080fd5b6134558682870161340c565b93505060208401359150604084013561346d81613335565b809150509250925092565b60008083601f84011261348a57600080fd5b5081356001600160401b038111156134a157600080fd5b6020830191508360208285010111156134b957600080fd5b9250929050565b6000806000806000608086880312156134d857600080fd5b85356134e381613335565b9450602086013593506040860135925060608601356001600160401b0381111561350c57600080fd5b61351888828901613478565b969995985093965092949392505050565b60008060008060008060a0878903121561354257600080fd5b863561354d81613335565b9550602087013561355d81613335565b9450604087013593506060870135925060808701356001600160401b0381111561358657600080fd5b61359289828a01613478565b979a9699509497509295939492505050565b60006060828403121561336c57600080fd5b600080600080600061016086880312156135cf57600080fd5b85356135da81613335565b945060208601356135ea81613335565b935060408601356001600160401b038082111561360657600080fd5b61361289838a0161335a565b9450606088013591508082111561362857600080fd5b50613635888289016135a4565b9250506136458760808801613372565b90509295509295909350565b60008060006060848603121561366657600080fd5b833561367181613335565b9250602084013561368181613335565b915060408401356001600160401b0381111561369c57600080fd5b6136a8868287016135a4565b9150509250925092565b6000806000606084860312156136c757600080fd5b83356136d281613335565b925060208401356136e281613335565b915060408401356001600160401b038111156136fd57600080fd5b6136a88682870161335a565b6000806000806000610160868803121561372257600080fd5b85356001600160401b0381111561373857600080fd5b6137448882890161340c565b955050602086013561375581613335565b935060408601359250606086013561376c81613335565b91506136458760808801613372565b60008083601f84011261378d57600080fd5b5081356001600160401b038111156137a457600080fd5b6020830191508360208260051b85010111156134b957600080fd5b600080600080600080606087890312156137d857600080fd5b86356001600160401b03808211156137ef57600080fd5b6137fb8a838b0161377b565b9098509650602089013591508082111561381457600080fd5b6138208a838b0161377b565b9096509450604089013591508082111561383957600080fd5b5061359289828a0161377b565b600080600080610140858703121561385d57600080fd5b843561386881613335565b9350602085013561387881613335565b925060408501356001600160401b0381111561389357600080fd5b6133dd878288016135a4565b6001600160a01b03958616815293851660208501529190931660408301526060820192909252608081019190915260a00190565b634e487b7160e01b600052602160045260246000fd5b6000823560fe198336030181126138ff57600080fd5b9190910192915050565b80356002811061335557600080fd5b60006020828403121561392a57600080fd5b611fc082613909565b60006020828403121561394557600080fd5b8135611fc081613335565b6001600160a01b039384168152919092166020820152901515604082015260600190565b6000823560fe1983360301811261398a57600080fd5b90910192915050565b6003811061252d57600080fd5b803561335581613993565b6003811061252d5761252d6138d3565b600281106139cb576139cb6138d3565b9052565b6000808335601e198436030181126139e657600080fd5b83016020810192503590506001600160401b03811115613a0557600080fd5b8036038213156134b957600080fd5b81835281816020850137506000828201602090810191909152601f909101601f19169091010190565b60006101008235613a4d81613993565b613a56816139ab565b8452613a6460208401613909565b613a7160208601826139bb565b506040830135613a8081613335565b6001600160a01b03166040850152606083810135908501526080808401359085015260a0830135613ab081613335565b6001600160a01b031660a085015260c08381013590850152613ad560e08401846139cf565b8260e0870152611fa48387018284613a14565b60008135613af581613335565b6001600160a01b039081168452602083013590613b1182613335565b9081166020850152604083013590613b2882613335565b166040840152613b3b6060830183613974565b60a06060850152613b4f60a0850182613a3d565b9050613b5e6080840184613974565b84820360808601526131b38282613a3d565b606081526000613b836060830186613ae8565b6020830194909452506001600160a01b0391909116604090910152919050565b60005b83811015613bbe578181015183820152602001613ba6565b50506000910152565b60008151808452613bdf816020860160208601613ba3565b601f01601f19169290920160200192915050565b60018060a01b03841681528260208201526060604082015260006131b36060830184613bc7565b801515811461252d57600080fd5b600060208284031215613c3a57600080fd5b8151611fc081613c1a565b634e487b7160e01b600052604160045260246000fd5b60405161010081016001600160401b0381118282101715613c7e57613c7e613c45565b60405290565b600082601f830112613c9557600080fd5b81356001600160401b0380821115613caf57613caf613c45565b604051601f8301601f19908116603f01168101908282118183101715613cd757613cd7613c45565b81604052838152866020858801011115613cf057600080fd5b836020870160208301376000602085830101528094505050505092915050565b60006101008284031215613d2357600080fd5b613d2b613c5b565b9050613d36826139a0565b8152613d4460208301613909565b6020820152613d556040830161334a565b60408201526060820135606082015260808201356080820152613d7a60a0830161334a565b60a082015260c082013560c082015260e08201356001600160401b03811115613da257600080fd5b613dae84828501613c84565b60e08301525092915050565b600060a08284031215613dcc57600080fd5b60405160a081016001600160401b038282108183111715613def57613def613c45565b8160405282935084359150613e0382613335565b908252602084013590613e1582613335565b816020840152613e276040860161334a565b60408401526060850135915080821115613e4057600080fd5b613e4c86838701613d10565b60608401526080850135915080821115613e6557600080fd5b50613e7285828601613d10565b6080830152505092915050565b600080600060608486031215613e9457600080fd5b83356001600160401b03811115613eaa57600080fd5b61345586828701613dba565b634e487b7160e01b600052601160045260246000fd5b6000600160ff1b8201613ee157613ee1613eb6565b5060000390565b6020815260008251613ef9816139ab565b806020840152506020830151613f1260408401826139bb565b5060018060a01b03604084015116606083015260608301516080830152608083015160a083015260a0830151613f5360c08401826001600160a01b03169052565b5060c083015160e083015260e0830151610100808185015250612039610120840182613bc7565b600060208284031215613f8c57600080fd5b5051919050565b81810381811115611fc357611fc3613eb6565b6001600160a01b03929092168252602082015260400190565b600080600060608486031215613fd457600080fd5b83356001600160401b03811115613fea57600080fd5b613ff686828701613dba565b935050602084013561400781613335565b929592945050506040919091013590565b803560ff8116811461335557600080fd5b600060e0828403121561403b57600080fd5b60405160e081018181106001600160401b038211171561405d5761405d613c45565b604052823561406b81613993565b8082525060208301356020820152604083013560408201526060830135606082015261409960808401614018565b608082015260a083013560a082015260c083013560c08201528091505092915050565b6060815260006140cf6060830186613ae8565b6001600160a01b039490941660208301525060400152919050565b6001600160a01b0385811682528416602082015260408101839052608060608201819052600090611fa490830184613bc7565b634e487b7160e01b600052603260045260246000fd5b60006020828403121561414557600080fd5b8135611fc081613c1a565b6000808335601e1984360301811261416757600080fd5b8301803591506001600160401b0382111561418157600080fd5b6020019150368190038213156134b957600080fd5b8183823760009101908152919050565b6000806000606084860312156141bb57600080fd5b83516001600160401b03811681146141d257600080fd5b602085015160409095015190969495509392505050565b600082516138ff818460208701613ba3565b80820180821115611fc357611fc3613eb6565b602081526000611fc06020830184613a3d565b600061010061424483885180516001600160a01b03168252602090810151910152565b6020870151604084015260408701516060840152614278608084018780516001600160a01b03168252602090810151910152565b6001600160a01b03851660c084015260e0830181905261328c81840185613bc7565b6001600160a01b0384168152600061012084356142b681613993565b6142bf816139ab565b8060208501525060208501356040840152604085013560608401526060850135608084015260ff6142f260808701614018565b1660a084015260a085013560c084015260c085013560e084015280610100840152611fa481840185613a3d565b60006020828403121561433157600080fd5b8151611fc081613335565b602081526000611fc06020830184613bc756fea26469706673582212203debe8b67abf8841fe9d2359071dc37e0d87677c8f978516cb2efc4d4427d83264736f6c63430008130033",
    "linkReferences": {}
  },
  "methodIdentifiers": {
    "CALLBACK_SUCCESS()": "8237e538",
    "CALLBACK_SUCCESS_CREDIT()": "0f13be2a",
    "borrow(address,address,(uint256,address,(uint8,uint8,address,uint256,uint256,address,uint256,bytes)))": "56415a90",
    "cdm()": "e2dfb317",
    "decreaseLever((address,address,address,(uint8,uint8,address,uint256,uint256,address,uint256,bytes),(uint8,uint8,address,uint256,uint256,address,uint256,bytes)),uint256,address)": "0b839bf2",
    "deposit(address,address,(address,uint256,address,(uint8,uint8,address,uint256,uint256,address,uint256,bytes)),(uint8,uint256,uint256,uint256,uint8,bytes32,bytes32))": "0567d4b1",
    "depositAndBorrow(address,address,(address,uint256,address,(uint8,uint8,address,uint256,uint256,address,uint256,bytes)),(uint256,address,(uint8,uint8,address,uint256,uint256,address,uint256,bytes)),(uint8,uint256,uint256,uint256,uint8,bytes32,bytes32))": "4ad4d4ad",
    "flashlender()": "ee58918a",
    "increaseLever((address,address,address,(uint8,uint8,address,uint256,uint256,address,uint256,bytes),(uint8,uint8,address,uint256,uint256,address,uint256,bytes)),address,uint256,address,(uint8,uint256,uint256,uint256,uint8,bytes32,bytes32))": "aad598ae",
    "minter()": "07546172",
    "multisend(address[],bytes[],bool[])": "f38584e0",
    "onCreditFlashLoan(address,uint256,uint256,bytes)": "16d8f165",
    "onFlashLoan(address,address,uint256,uint256,bytes)": "23e30c8b",
    "permit2()": "12261ee7",
    "repay(address,address,(uint256,address,(uint8,uint8,address,uint256,uint256,address,uint256,bytes)),(uint8,uint256,uint256,uint256,uint8,bytes32,bytes32))": "faa99405",
    "self()": "7104ddb2",
    "stablecoin()": "e9cbd822",
    "swapAction()": "a888828b",
    "withdraw(address,address,(address,uint256,address,(uint8,uint8,address,uint256,uint256,address,uint256,bytes)))": "6c747057",
    "withdrawAndRepay(address,address,(address,uint256,address,(uint8,uint8,address,uint256,uint256,address,uint256,bytes)),(uint256,address,(uint8,uint8,address,uint256,uint256,address,uint256,bytes)),(uint8,uint256,uint256,uint256,uint8,bytes32,bytes32))": "96c2c408"
  },
  "id": 123
}